{
  "contractName": "Admin",
  "abi": [
    {
      "anonymous": false,
      "inputs": [
        {
          "indexed": true,
          "internalType": "address",
          "name": "previousOwner",
          "type": "address"
        },
        {
          "indexed": true,
          "internalType": "address",
          "name": "newOwner",
          "type": "address"
        }
      ],
      "name": "OwnershipTransferred",
      "type": "event"
    },
    {
      "inputs": [],
      "name": "owner",
      "outputs": [
        {
          "internalType": "address",
          "name": "",
          "type": "address"
        }
      ],
      "stateMutability": "view",
      "type": "function"
    },
    {
      "inputs": [],
      "name": "renounceOwnership",
      "outputs": [],
      "stateMutability": "nonpayable",
      "type": "function"
    },
    {
      "inputs": [
        {
          "internalType": "address",
          "name": "newOwner",
          "type": "address"
        }
      ],
      "name": "transferOwnership",
      "outputs": [],
      "stateMutability": "nonpayable",
      "type": "function"
    },
    {
      "inputs": [
        {
          "internalType": "address",
          "name": "_solar",
          "type": "address"
        }
      ],
      "name": "setSolarAddress",
      "outputs": [],
      "stateMutability": "nonpayable",
      "type": "function"
    },
    {
      "inputs": [
        {
          "internalType": "address",
          "name": "_tsuno",
          "type": "address"
        }
      ],
      "name": "setTsunoAddress",
      "outputs": [],
      "stateMutability": "nonpayable",
      "type": "function"
    },
    {
      "inputs": [
        {
          "internalType": "address",
          "name": "_sat",
          "type": "address"
        }
      ],
      "name": "setSatAddress",
      "outputs": [],
      "stateMutability": "nonpayable",
      "type": "function"
    }
  ],
  "bytecode": "0x608060405234801561001057600080fd5b50600061001b61006e565b600780546001600160a01b0319166001600160a01b038316908117909155604051919250906000907f8be0079c531659141344cd1fd0a4f28419497f9722a3daafe3b4186f6b6457e0908290a350610072565b3390565b6104c5806100816000396000f3fe608060405234801561001057600080fd5b50600436106100625760003560e01c80633e49cc9b14610067578063715018a61461008f5780638aaf4bfc146100975780638da5cb5b146100bd578063bc562ba9146100e1578063f2fde38b14610107575b600080fd5b61008d6004803603602081101561007d57600080fd5b50356001600160a01b031661012d565b005b61008d6101a7565b61008d600480360360208110156100ad57600080fd5b50356001600160a01b0316610249565b6100c56102c3565b604080516001600160a01b039092168252519081900360200190f35b61008d600480360360208110156100f757600080fd5b50356001600160a01b03166102d2565b61008d6004803603602081101561011d57600080fd5b50356001600160a01b031661034c565b610135610445565b6007546001600160a01b03908116911614610185576040805162461bcd60e51b81526020600482018190526024820152600080516020610470833981519152604482015290519081900360640190fd5b600580546001600160a01b0319166001600160a01b0392909216919091179055565b6101af610445565b6007546001600160a01b039081169116146101ff576040805162461bcd60e51b81526020600482018190526024820152600080516020610470833981519152604482015290519081900360640190fd5b6007546040516000916001600160a01b0316907f8be0079c531659141344cd1fd0a4f28419497f9722a3daafe3b4186f6b6457e0908390a3600780546001600160a01b0319169055565b610251610445565b6007546001600160a01b039081169116146102a1576040805162461bcd60e51b81526020600482018190526024820152600080516020610470833981519152604482015290519081900360640190fd5b600680546001600160a01b0319166001600160a01b0392909216919091179055565b6007546001600160a01b031690565b6102da610445565b6007546001600160a01b0390811691161461032a576040805162461bcd60e51b81526020600482018190526024820152600080516020610470833981519152604482015290519081900360640190fd5b600480546001600160a01b0319166001600160a01b0392909216919091179055565b610354610445565b6007546001600160a01b039081169116146103a4576040805162461bcd60e51b81526020600482018190526024820152600080516020610470833981519152604482015290519081900360640190fd5b6001600160a01b0381166103e95760405162461bcd60e51b815260040180806020018281038252602681526020018061044a6026913960400191505060405180910390fd5b6007546040516001600160a01b038084169216907f8be0079c531659141344cd1fd0a4f28419497f9722a3daafe3b4186f6b6457e090600090a3600780546001600160a01b0319166001600160a01b0392909216919091179055565b339056fe4f776e61626c653a206e6577206f776e657220697320746865207a65726f20616464726573734f776e61626c653a2063616c6c6572206973206e6f7420746865206f776e6572a264697066735822122079224777e8a5a1ebbcc92a1b3ccb39a0519d960d9335f35df2c1f4b0d31ddcbb64736f6c634300060c0033",
  "immutableReferences": {},
  "source": "// SPDX-License-Identifier: MIT\n\n// code to deploy DyDx solo protocol locally\npragma solidity 0.6.12;\nimport {State} from './State.sol';\nimport {Ownable} from '@openzeppelin/contracts/access/Ownable.sol';\n\ncontract Admin is State, Ownable {\n    function setSolarAddress(address _solar) public onlyOwner {\n        g_state.solar = _solar;\n    }\n\n    function setTsunoAddress(address _tsuno) public onlyOwner {\n        g_state.tsuno = _tsuno;\n    }\n\n    function setSatAddress(address _sat) public onlyOwner {\n        g_state.sat = _sat;\n    }\n}\n",
  "sourcePath": "C:\\Users\\James\\projects\\tsuno-fe\\contracts\\protocol\\Admin.sol",
  "compiler": {
    "name": "solc",
    "version": "0.6.12+commit.27d51765.Emscripten.clang"
  },
  "schemaVersion": "3.2.5",
  "updatedAt": "2020-09-25T15:32:48.849Z",
  "devdoc": {
    "kind": "dev",
    "methods": {
      "owner()": {
        "details": "Returns the address of the current owner."
      },
      "renounceOwnership()": {
        "details": "Leaves the contract without owner. It will not be possible to call `onlyOwner` functions anymore. Can only be called by the current owner. NOTE: Renouncing ownership will leave the contract without an owner, thereby removing any functionality that is only available to the owner."
      },
      "transferOwnership(address)": {
        "details": "Transfers ownership of the contract to a new account (`newOwner`). Can only be called by the current owner."
      }
    },
    "version": 1
  },
  "userdoc": {
    "kind": "user",
    "methods": {},
    "version": 1
  }
}