{
  "contractName": "Constants",
  "abi": [
    {
      "inputs": [],
      "name": "resetConstants",
      "outputs": [],
      "stateMutability": "nonpayable",
      "type": "function"
    }
  ],
  "bytecode": "0x608060405234801561001057600080fd5b506103c4806100206000396000f3fe608060405234801561001057600080fd5b506004361061002b5760003560e01c806311217c5e14610030575b600080fd5b61003861003a565b005b60016013819055604b6014819055604c60159081556096601681905560976017556101906018556101916019556103e8601a81905560408051608080820183528782526007602080840191909152828401899052602a6060938401819052600c80546201000060ff19918216909c1761ff00199081166107001762ff0000199081169d909d17909255600d92909255855193840186526004808552928401989098526008948301949094529101839052600e805483169091178516611500179096166208000017909555600f55612710601055601b805460129086168117841661320017909155601c805486169094178316614b0017909355601d8054909416171661960017909155805561014d610349565b50604080516102608101825260096102208201818152610240830191909152815281518083018352600a80825260208281018290528084019290925283518085018552600f8082528184018190528486019190915284518086018652600280825281850152606085015284518086018652600c808252818501819052608086019190915285518087018752600d8082528186015260a08601528551808701875283815280850184905260c08601528551808701875260038082528186015260e0860152855180870187528281528085018390526101008601528551808701875282815280850192909252610120850191909152845180860186526014808252818501819052610140860191909152855180870187526005808252818601526101608601528551808701875281815280850191909152610180850152845180860186526015808252818501526101a085015284518086018652601e808252818501526101c085015284518086018652828152808401929092526101e084019190915283518085019094528084529083015261020081019190915260005b6011811015610345578181601181106102fe57fe5b602090810291909101516000838152600583526040902081518154929093015160ff1990921660ff9384161761ff00191661010093909216929092021790556001016102e9565b5050565b6040518061022001604052806011905b610361610377565b8152602001906001900390816103595790505090565b60408051808201909152600080825260208201529056fea2646970667358221220184c2fc50e9aaa3ef9c8e9810fa490e217b520847f94c9b1fff1c8f3f3904f6264736f6c634300060c0033",
  "immutableReferences": {},
  "source": "pragma solidity 0.6.12;\nimport './BaseStorage.sol';\n\ncontract Constants is BaseStorage {\n    uint32 constant LOW_YIELD_LOW = 1;\n    uint32 constant LOW_YIELD_HIGH = 75;\n\n    uint32 constant MEDIUM_YIELD_LOW = 76;\n    uint32 constant MEDIUM_YIELD_HIGH = 150;\n\n    uint32 constant HIGH_YIELD_LOW = 151;\n    uint32 constant HIGH_YIELD_HIGH = 400;\n\n    uint32 constant INSANE_YIELD_LOW = 401;\n    uint32 constant INSANE_YIELD_HIGH = 1000;\n\n    // Total System Types\n    uint256 constant TOTAL_SYSTEM_TYPES = 7;\n\n    // Rolling\n    uint32 constant MAX_ROLL = 10000;\n    uint32 constant ONE_PERCENT_MAX_ROLL = MAX_ROLL / 100;\n    uint32 constant POINT_ONE_PERCENT_OF_MAX_ROLL = MAX_ROLL / 1000;\n    uint8 constant MAX_ALIENFLEET_O_D = 50;\n    uint8 constant MIN_ALIENFLEET_O_D = 18;\n    uint8 constant MAX_ADVANCED_ALIENFLEET_O_D = 75;\n    uint8 constant MIN_ADVANCED_ALIENFLEET_O_D = 35;\n    uint8 constant MAX_ANCIENTFLEET_O_D = 150;\n    uint8 constant MIN_ANCIENTFLEET_O_D = 100;\n\n    // Galaxy Boundaries\n    uint8 constant MAX_QUADRANT = 4;\n    uint8 constant MAX_DISTRICT = 8;\n    uint8 constant MAX_SECTOR = 21;\n    uint256 constant MAX_STAR = 1000;\n\n    // Starting Position for all new addresses\n    uint8 constant START_POSITION_QUADRANT = 1;\n    uint8 constant START_POSITION_DISTRICT = 1;\n    uint8 constant START_POSITION_SECTOR = 7;\n    uint32 constant START_POSITION_STAR = 42;\n\n    // Total Ships & Technology\n    uint16 constant TOTAL_SAT_ITEMS = 18;\n\n    // Bonus Variables\n    uint256 constant DEFENSE_BONUS = 100000;\n\n    enum ShipAndTechList {\n        FEDERATION_MASTER_VESSEL,\n        FEDERATION_CRUISER,\n        FEDERATION_DESTROYER,\n        FEDERATION_FIGHTER_PLANE,\n        ALIEN_MASTER_VESSEL,\n        ALIEN_CRUISER,\n        ALIEN_DESTROYER,\n        ALIEN_FIGHTER_PLANE,\n        ADVANCED_RACE_MASTER_VESSEL,\n        ADVANCED_RACE_CRUISER,\n        ADVANCED_RACE_DESTROYER,\n        ADVANCED_RACE_FIGHTER_PLANE,\n        ANCIENT_MASTER_VESSEL,\n        ANCIENT_CRUISER,\n        ANCIENT_DESTROYER,\n        ANCIENT_FIGHTER_PLANE,\n        PIRATE_SHIP,\n        PIRATE_WEAPON\n    }\n\n    // Ships and technology attack\n    uint8 constant FEDERATION_MASTER_VESSEL_OFFENSE = 9;\n    uint8 constant FEDERATION_CRUISER_OFFENSE = 10;\n    uint8 constant FEDERATION_DESTROYER_OFFENSE = 15;\n    uint8 constant FEDERATION_FIGHTER_PLANE_OFFENSE = 2;\n\n    uint8 constant ALIEN_MASTER_VESSEL_OFFENSE = 12;\n    uint8 constant ALIEN_CRUISER_OFFENSE = 13;\n    uint8 constant ALIEN_DESTROYER_OFFENSE = 10;\n    uint8 constant ALIEN_FIGHTER_PLANE_OFFENSE = 3;\n\n    uint8 constant ADVANCED_RACE_MASTER_VESSEL_OFFENSE = 15;\n    uint8 constant ADVANCED_RACE_CRUISER_OFFENSE = 15;\n    uint8 constant ADVANCED_RACE_DESTROYER_OFFENSE = 20;\n    uint8 constant ADVANCED_RACE_FIGHTER_PLANE_OFFENSE = 5;\n\n    uint8 constant ANCIENT_MASTER_VESSEL_OFFENSE = 20;\n    uint8 constant ANCIENT_CRUISER_OFFENSE = 21;\n    uint8 constant ANCIENT_DESTROYER_OFFENSE = 30;\n    uint8 constant ANCIENT_FIGHTER_PLANE_OFFENSE = 10;\n\n    uint8 constant PIRATE_SHIP_OFFENSE = 12;\n\n    // Ships and technology Defense\n    uint8 constant FEDERATION_MASTER_VESSEL_DEFENSE = 9;\n    uint8 constant FEDERATION_CRUISER_DEFENSE = 10;\n    uint8 constant FEDERATION_DESTROYER_DEFENSE = 15;\n    uint8 constant FEDERATION_FIGHTER_PLANE_DEFENSE = 2;\n\n    uint8 constant ALIEN_MASTER_VESSEL_DEFENSE = 12;\n    uint8 constant ALIEN_CRUISER_DEFENSE = 13;\n    uint8 constant ALIEN_DESTROYER_DEFENSE = 10;\n    uint8 constant ALIEN_FIGHTER_PLANE_DEFENSE = 3;\n\n    uint8 constant ADVANCED_RACE_MASTER_VESSEL_DEFENSE = 15;\n    uint8 constant ADVANCED_RACE_CRUISER_DEFENSE = 15;\n    uint8 constant ADVANCED_RACE_DESTROYER_DEFENSE = 20;\n    uint8 constant ADVANCED_RACE_FIGHTER_PLANE_DEFENSE = 5;\n\n    uint8 constant ANCIENT_MASTER_VESSEL_DEFENSE = 20;\n    uint8 constant ANCIENT_CRUISER_DEFENSE = 21;\n    uint8 constant ANCIENT_DESTROYER_DEFENSE = 30;\n    uint8 constant ANCIENT_FIGHTER_PLANE_DEFENSE = 10;\n\n    uint8 constant PIRATE_SHIP_DEFENSE = 12;\n\n    function resetConstants() public {\n        // Yield Constants\n        lowYieldRange.low = LOW_YIELD_LOW;\n        lowYieldRange.high = LOW_YIELD_HIGH;\n        mediumYieldRange.low = MEDIUM_YIELD_LOW;\n        mediumYieldRange.high = MEDIUM_YIELD_HIGH;\n        highYieldRange.low = HIGH_YIELD_LOW;\n        highYieldRange.high = HIGH_YIELD_HIGH;\n        insaneYieldRange.low = INSANE_YIELD_LOW;\n        insaneYieldRange.high = INSANE_YIELD_HIGH;\n\n        startPosition = Types.Position({\n            quadrant: START_POSITION_QUADRANT,\n            district: START_POSITION_DISTRICT,\n            sector: START_POSITION_SECTOR,\n            star: START_POSITION_STAR\n        });\n        boundaries = Types.Position({\n            quadrant: MAX_QUADRANT,\n            district: MAX_DISTRICT,\n            sector: MAX_SECTOR,\n            star: MAX_STAR\n        });\n\n        maxRoll = MAX_ROLL;\n\n        easyAiRange.low = MIN_ALIENFLEET_O_D;\n        easyAiRange.high = MAX_ALIENFLEET_O_D;\n\n        mediumAiRange.low = MAX_ADVANCED_ALIENFLEET_O_D;\n        mediumAiRange.high = MAX_ADVANCED_ALIENFLEET_O_D;\n\n        hardAiRange.low = MAX_ANCIENTFLEET_O_D;\n        hardAiRange.high = MAX_ANCIENTFLEET_O_D;\n\n        totalSats = TOTAL_SAT_ITEMS;\n\n        Types.SatStats[17] memory stats = [\n            Types.SatStats({\n                offense: FEDERATION_MASTER_VESSEL_OFFENSE,\n                defense: FEDERATION_MASTER_VESSEL_DEFENSE\n            }),\n            Types.SatStats({\n                offense: FEDERATION_CRUISER_OFFENSE,\n                defense: FEDERATION_CRUISER_DEFENSE\n            }),\n            Types.SatStats({\n                offense: FEDERATION_DESTROYER_OFFENSE,\n                defense: FEDERATION_DESTROYER_DEFENSE\n            }),\n            Types.SatStats({\n                offense: FEDERATION_FIGHTER_PLANE_OFFENSE,\n                defense: FEDERATION_FIGHTER_PLANE_DEFENSE\n            }),\n            Types.SatStats({\n                offense: ALIEN_MASTER_VESSEL_OFFENSE,\n                defense: ALIEN_MASTER_VESSEL_DEFENSE\n            }),\n            Types.SatStats({offense: ALIEN_CRUISER_OFFENSE, defense: ALIEN_CRUISER_DEFENSE}),\n            Types.SatStats({offense: ALIEN_DESTROYER_OFFENSE, defense: ALIEN_DESTROYER_DEFENSE}),\n            Types.SatStats({\n                offense: ALIEN_FIGHTER_PLANE_OFFENSE,\n                defense: ALIEN_FIGHTER_PLANE_DEFENSE\n            }),\n            Types.SatStats({\n                offense: ADVANCED_RACE_MASTER_VESSEL_OFFENSE,\n                defense: ADVANCED_RACE_MASTER_VESSEL_DEFENSE\n            }),\n            Types.SatStats({\n                offense: ADVANCED_RACE_CRUISER_OFFENSE,\n                defense: ADVANCED_RACE_CRUISER_DEFENSE\n            }),\n            Types.SatStats({\n                offense: ADVANCED_RACE_DESTROYER_OFFENSE,\n                defense: ADVANCED_RACE_DESTROYER_DEFENSE\n            }),\n            Types.SatStats({\n                offense: ADVANCED_RACE_FIGHTER_PLANE_OFFENSE,\n                defense: ADVANCED_RACE_FIGHTER_PLANE_DEFENSE\n            }),\n            Types.SatStats({\n                offense: ANCIENT_MASTER_VESSEL_OFFENSE,\n                defense: ANCIENT_MASTER_VESSEL_DEFENSE\n            }),\n            Types.SatStats({offense: ANCIENT_CRUISER_OFFENSE, defense: ANCIENT_CRUISER_DEFENSE}),\n            Types.SatStats({\n                offense: ANCIENT_DESTROYER_OFFENSE,\n                defense: ANCIENT_DESTROYER_DEFENSE\n            }),\n            Types.SatStats({\n                offense: ANCIENT_FIGHTER_PLANE_OFFENSE,\n                defense: ANCIENT_FIGHTER_PLANE_DEFENSE\n            }),\n            Types.SatStats({offense: PIRATE_SHIP_OFFENSE, defense: PIRATE_SHIP_DEFENSE})\n        ];\n        for (uint256 i = 0; i < stats.length; i++) {\n            idToSatStats[i] = stats[i];\n        }\n    }\n    // mapping(uint256 => address) private stakedTokenToOwner;\n    // mapping(uint256 => address) private tokenIdToPlanetAddress;\n    // mapping(address => Types.Position) private fleetToPosition;\n    // mapping(uint256 => Types.SatStats) private tokenIdToSatStats;\n    // mapping(Types.Position => Types.SystemType) private positionToSystemType;\n}\n",
  "sourcePath": "C:\\Users\\James\\projects\\tsuno-fe\\contracts\\Constants.sol",
  "compiler": {
    "name": "solc",
    "version": "0.6.12+commit.27d51765.Emscripten.clang"
  },
  "schemaVersion": "3.2.5",
  "updatedAt": "2020-10-22T10:02:57.696Z",
  "devdoc": {
    "kind": "dev",
    "methods": {},
    "version": 1
  },
  "userdoc": {
    "kind": "user",
    "methods": {},
    "version": 1
  }
}