{
  "contractName": "EternalStorage",
  "abi": [
    {
      "inputs": [],
      "stateMutability": "nonpayable",
      "type": "constructor"
    },
    {
      "anonymous": false,
      "inputs": [
        {
          "indexed": true,
          "internalType": "address",
          "name": "previousOwner",
          "type": "address"
        },
        {
          "indexed": true,
          "internalType": "address",
          "name": "newOwner",
          "type": "address"
        }
      ],
      "name": "OwnershipTransferred",
      "type": "event"
    },
    {
      "inputs": [],
      "name": "owner",
      "outputs": [
        {
          "internalType": "address",
          "name": "",
          "type": "address"
        }
      ],
      "stateMutability": "view",
      "type": "function",
      "constant": true
    },
    {
      "inputs": [],
      "name": "renounceOwnership",
      "outputs": [],
      "stateMutability": "nonpayable",
      "type": "function"
    },
    {
      "inputs": [
        {
          "internalType": "address",
          "name": "newOwner",
          "type": "address"
        }
      ],
      "name": "transferOwnership",
      "outputs": [],
      "stateMutability": "nonpayable",
      "type": "function"
    },
    {
      "inputs": [
        {
          "internalType": "bytes32",
          "name": "_key",
          "type": "bytes32"
        }
      ],
      "name": "getAddress",
      "outputs": [
        {
          "internalType": "address",
          "name": "",
          "type": "address"
        }
      ],
      "stateMutability": "view",
      "type": "function",
      "constant": true
    },
    {
      "inputs": [
        {
          "internalType": "bytes32",
          "name": "_key",
          "type": "bytes32"
        }
      ],
      "name": "getUint",
      "outputs": [
        {
          "internalType": "uint256",
          "name": "",
          "type": "uint256"
        }
      ],
      "stateMutability": "view",
      "type": "function",
      "constant": true
    },
    {
      "inputs": [
        {
          "internalType": "bytes32",
          "name": "_key",
          "type": "bytes32"
        }
      ],
      "name": "getString",
      "outputs": [
        {
          "internalType": "string",
          "name": "",
          "type": "string"
        }
      ],
      "stateMutability": "view",
      "type": "function",
      "constant": true
    },
    {
      "inputs": [
        {
          "internalType": "bytes32",
          "name": "_key",
          "type": "bytes32"
        }
      ],
      "name": "getBytes",
      "outputs": [
        {
          "internalType": "bytes",
          "name": "",
          "type": "bytes"
        }
      ],
      "stateMutability": "view",
      "type": "function",
      "constant": true
    },
    {
      "inputs": [
        {
          "internalType": "bytes32",
          "name": "_key",
          "type": "bytes32"
        }
      ],
      "name": "getBool",
      "outputs": [
        {
          "internalType": "bool",
          "name": "",
          "type": "bool"
        }
      ],
      "stateMutability": "view",
      "type": "function",
      "constant": true
    },
    {
      "inputs": [
        {
          "internalType": "bytes32",
          "name": "_key",
          "type": "bytes32"
        }
      ],
      "name": "getInt",
      "outputs": [
        {
          "internalType": "int256",
          "name": "",
          "type": "int256"
        }
      ],
      "stateMutability": "view",
      "type": "function",
      "constant": true
    },
    {
      "inputs": [
        {
          "internalType": "bytes32",
          "name": "_key",
          "type": "bytes32"
        }
      ],
      "name": "getUint8",
      "outputs": [
        {
          "internalType": "uint8",
          "name": "",
          "type": "uint8"
        }
      ],
      "stateMutability": "view",
      "type": "function",
      "constant": true
    },
    {
      "inputs": [
        {
          "internalType": "bytes32",
          "name": "_key",
          "type": "bytes32"
        },
        {
          "internalType": "address",
          "name": "_value",
          "type": "address"
        }
      ],
      "name": "setAddress",
      "outputs": [],
      "stateMutability": "nonpayable",
      "type": "function"
    },
    {
      "inputs": [
        {
          "internalType": "bytes32",
          "name": "_key",
          "type": "bytes32"
        },
        {
          "internalType": "uint256",
          "name": "_value",
          "type": "uint256"
        }
      ],
      "name": "setUint",
      "outputs": [],
      "stateMutability": "nonpayable",
      "type": "function"
    },
    {
      "inputs": [
        {
          "internalType": "bytes32",
          "name": "_key",
          "type": "bytes32"
        },
        {
          "internalType": "string",
          "name": "_value",
          "type": "string"
        }
      ],
      "name": "setString",
      "outputs": [],
      "stateMutability": "nonpayable",
      "type": "function"
    },
    {
      "inputs": [
        {
          "internalType": "bytes32",
          "name": "_key",
          "type": "bytes32"
        },
        {
          "internalType": "bytes",
          "name": "_value",
          "type": "bytes"
        }
      ],
      "name": "setBytes",
      "outputs": [],
      "stateMutability": "nonpayable",
      "type": "function"
    },
    {
      "inputs": [
        {
          "internalType": "bytes32",
          "name": "_key",
          "type": "bytes32"
        },
        {
          "internalType": "bool",
          "name": "_value",
          "type": "bool"
        }
      ],
      "name": "setBool",
      "outputs": [],
      "stateMutability": "nonpayable",
      "type": "function"
    },
    {
      "inputs": [
        {
          "internalType": "bytes32",
          "name": "_key",
          "type": "bytes32"
        },
        {
          "internalType": "int256",
          "name": "_value",
          "type": "int256"
        }
      ],
      "name": "setInt",
      "outputs": [],
      "stateMutability": "nonpayable",
      "type": "function"
    },
    {
      "inputs": [
        {
          "internalType": "bytes32",
          "name": "_key",
          "type": "bytes32"
        },
        {
          "internalType": "uint8",
          "name": "_value",
          "type": "uint8"
        }
      ],
      "name": "setUint8",
      "outputs": [],
      "stateMutability": "nonpayable",
      "type": "function"
    },
    {
      "inputs": [
        {
          "internalType": "bytes32",
          "name": "_key",
          "type": "bytes32"
        }
      ],
      "name": "deleteAddress",
      "outputs": [],
      "stateMutability": "nonpayable",
      "type": "function"
    },
    {
      "inputs": [
        {
          "internalType": "bytes32",
          "name": "_key",
          "type": "bytes32"
        }
      ],
      "name": "deleteUint",
      "outputs": [],
      "stateMutability": "nonpayable",
      "type": "function"
    },
    {
      "inputs": [
        {
          "internalType": "bytes32",
          "name": "_key",
          "type": "bytes32"
        }
      ],
      "name": "deleteString",
      "outputs": [],
      "stateMutability": "nonpayable",
      "type": "function"
    },
    {
      "inputs": [
        {
          "internalType": "bytes32",
          "name": "_key",
          "type": "bytes32"
        }
      ],
      "name": "deleteBytes",
      "outputs": [],
      "stateMutability": "nonpayable",
      "type": "function"
    },
    {
      "inputs": [
        {
          "internalType": "bytes32",
          "name": "_key",
          "type": "bytes32"
        }
      ],
      "name": "deleteBool",
      "outputs": [],
      "stateMutability": "nonpayable",
      "type": "function"
    },
    {
      "inputs": [
        {
          "internalType": "bytes32",
          "name": "_key",
          "type": "bytes32"
        }
      ],
      "name": "deleteInt",
      "outputs": [],
      "stateMutability": "nonpayable",
      "type": "function"
    },
    {
      "inputs": [
        {
          "internalType": "bytes32",
          "name": "_key",
          "type": "bytes32"
        }
      ],
      "name": "deleteUint8",
      "outputs": [],
      "stateMutability": "nonpayable",
      "type": "function"
    }
  ],
  "bytecode": "0x608060405234801561001057600080fd5b50600061001b6100cd565b600080546001600160a01b0319166001600160a01b0383169081178255604051929350917f8be0079c531659141344cd1fd0a4f28419497f9722a3daafe3b4186f6b6457e0908290a350604080516a6163636573732e726f6c6560a81b6020808301919091526437bbb732b960d91b602b8301523360601b603083015282516024818403018152604490920183528151918101919091206000908152600590915220805460ff191660011790556100d1565b3390565b61183b806100e06000396000f3fe608060405234801561001057600080fd5b50600436106101585760003560e01c80638da5cb5b116100c3578063dc97d9621161007c578063dc97d96214610549578063e2a4853a14610566578063e2b202bf14610589578063e74730a1146105a6578063f2fde38b146105cc578063f6bb3cc4146105f257610158565b80638da5cb5b14610412578063986e791a1461041a578063abfdcced146104ac578063bd02d0f5146104d1578063c031a18014610500578063ca446dd91461051d57610158565b8063616b59f611610115578063616b59f6146102bf5780636e899550146102dc578063715018a6146103895780637ae1cfca146103915780638b23b40b146103c25780638c160095146103f557610158565b80630e14a3761461015d57806321f8a7211461017c5780632c62ff2d146101b55780632e28d084146101d25780633e49bed01461027f5780635701a2bd146102a2575b600080fd5b61017a6004803603602081101561017357600080fd5b503561060f565b005b6101996004803603602081101561019257600080fd5b5035610709565b604080516001600160a01b039092168252519081900360200190f35b61017a600480360360208110156101cb57600080fd5b5035610724565b61017a600480360360408110156101e857600080fd5b8135919081019060408101602082013564010000000081111561020a57600080fd5b82018360208201111561021c57600080fd5b8035906020019184600183028401116401000000008311171561023e57600080fd5b91908080601f016020809104026020016040519081016040528093929190818152602001838380828437600092019190915250929550610818945050505050565b61017a6004803603604081101561029557600080fd5b5080359060200135610918565b61017a600480360360208110156102b857600080fd5b5035610a06565b61017a600480360360208110156102d557600080fd5b5035610afa565b61017a600480360360408110156102f257600080fd5b8135919081019060408101602082013564010000000081111561031457600080fd5b82018360208201111561032657600080fd5b8035906020019184600183028401116401000000008311171561034857600080fd5b91908080601f016020809104026020016040519081016040528093929190818152602001838380828437600092019190915250929550610bf0945050505050565b61017a610ceb565b6103ae600480360360208110156103a757600080fd5b5035610d9f565b604080519115158252519081900360200190f35b6103df600480360360208110156103d857600080fd5b5035610db4565b6040805160ff9092168252519081900360200190f35b61017a6004803603602081101561040b57600080fd5b5035610dc9565b610199610eb6565b6104376004803603602081101561043057600080fd5b5035610ec5565b6040805160208082528351818301528351919283929083019185019080838360005b83811015610471578181015183820152602001610459565b50505050905090810190601f16801561049e5780820380516001836020036101000a031916815260200191505b509250505060405180910390f35b61017a600480360360408110156104c257600080fd5b50803590602001351515610f64565b6104ee600480360360208110156104e757600080fd5b5035611060565b60408051918252519081900360200190f35b6104376004803603602081101561051657600080fd5b5035611072565b61017a6004803603604081101561053357600080fd5b50803590602001356001600160a01b03166110dc565b6104ee6004803603602081101561055f57600080fd5b50356111e6565b61017a6004803603604081101561057c57600080fd5b50803590602001356111f8565b61017a6004803603602081101561059f57600080fd5b50356112e6565b61017a600480360360408110156105bc57600080fd5b508035906020013560ff166113d3565b61017a600480360360208110156105e257600080fd5b50356001600160a01b03166114c7565b61017a6004803603602081101561060857600080fd5b50356115d1565b6040805160008051602061179c8339815191526020808301919091528251808303601c018152603c909201835281519181019190912060009081526005909152205460ff161515600114156106eb57604080516e636f6e74726163742e65786973747360881b6020808301919091523360601b602f830152825160238184030181526043909201835281519181019190912060009081526005909152205460ff166106eb5760405162461bcd60e51b81526004018080602001828103825260248152602001806117e26024913960400191505060405180910390fd5b600090815260036020526040902080546001600160a01b0319169055565b6000908152600360205260409020546001600160a01b031690565b6040805160008051602061179c8339815191526020808301919091528251808303601c018152603c909201835281519181019190912060009081526005909152205460ff1615156001141561080057604080516e636f6e74726163742e65786973747360881b6020808301919091523360601b602f830152825160238184030181526043909201835281519181019190912060009081526005909152205460ff166108005760405162461bcd60e51b81526004018080602001828103825260248152602001806117e26024913960400191505060405180910390fd5b6000908152600560205260409020805460ff19169055565b6040805160008051602061179c8339815191526020808301919091528251808303601c018152603c909201835281519181019190912060009081526005909152205460ff161515600114156108f457604080516e636f6e74726163742e65786973747360881b6020808301919091523360601b602f830152825160238184030181526043909201835281519181019190912060009081526005909152205460ff166108f45760405162461bcd60e51b81526004018080602001828103825260248152602001806117e26024913960400191505060405180910390fd5b60008281526004602090815260409091208251610913928401906116c8565b505050565b6040805160008051602061179c8339815191526020808301919091528251808303601c018152603c909201835281519181019190912060009081526005909152205460ff161515600114156109f457604080516e636f6e74726163742e65786973747360881b6020808301919091523360601b602f830152825160238184030181526043909201835281519181019190912060009081526005909152205460ff166109f45760405162461bcd60e51b81526004018080602001828103825260248152602001806117e26024913960400191505060405180910390fd5b60009182526006602052604090912055565b6040805160008051602061179c8339815191526020808301919091528251808303601c018152603c909201835281519181019190912060009081526005909152205460ff16151560011415610ae257604080516e636f6e74726163742e65786973747360881b6020808301919091523360601b602f830152825160238184030181526043909201835281519181019190912060009081526005909152205460ff16610ae25760405162461bcd60e51b81526004018080602001828103825260248152602001806117e26024913960400191505060405180910390fd5b6000908152600760205260409020805460ff19169055565b6040805160008051602061179c8339815191526020808301919091528251808303601c018152603c909201835281519181019190912060009081526005909152205460ff16151560011415610bd657604080516e636f6e74726163742e65786973747360881b6020808301919091523360601b602f830152825160238184030181526043909201835281519181019190912060009081526005909152205460ff16610bd65760405162461bcd60e51b81526004018080602001828103825260248152602001806117e26024913960400191505060405180910390fd5b6000818152600460205260408120610bed91611746565b50565b6040805160008051602061179c8339815191526020808301919091528251808303601c018152603c909201835281519181019190912060009081526005909152205460ff16151560011415610ccc57604080516e636f6e74726163742e65786973747360881b6020808301919091523360601b602f830152825160238184030181526043909201835281519181019190912060009081526005909152205460ff16610ccc5760405162461bcd60e51b81526004018080602001828103825260248152602001806117e26024913960400191505060405180910390fd5b60008281526002602090815260409091208251610913928401906116c8565b610cf36116c4565b6000546001600160a01b03908116911614610d55576040805162461bcd60e51b815260206004820181905260248201527f4f776e61626c653a2063616c6c6572206973206e6f7420746865206f776e6572604482015290519081900360640190fd5b600080546040516001600160a01b03909116907f8be0079c531659141344cd1fd0a4f28419497f9722a3daafe3b4186f6b6457e0908390a3600080546001600160a01b0319169055565b60009081526005602052604090205460ff1690565b60009081526007602052604090205460ff1690565b6040805160008051602061179c8339815191526020808301919091528251808303601c018152603c909201835281519181019190912060009081526005909152205460ff16151560011415610ea557604080516e636f6e74726163742e65786973747360881b6020808301919091523360601b602f830152825160238184030181526043909201835281519181019190912060009081526005909152205460ff16610ea55760405162461bcd60e51b81526004018080602001828103825260248152602001806117e26024913960400191505060405180910390fd5b600090815260066020526040812055565b6000546001600160a01b031690565b600081815260026020818152604092839020805484516001821615610100026000190190911693909304601f81018390048302840183019094528383526060939091830182828015610f585780601f10610f2d57610100808354040283529160200191610f58565b820191906000526020600020905b815481529060010190602001808311610f3b57829003601f168201915b50505050509050919050565b6040805160008051602061179c8339815191526020808301919091528251808303601c018152603c909201835281519181019190912060009081526005909152205460ff1615156001141561104057604080516e636f6e74726163742e65786973747360881b6020808301919091523360601b602f830152825160238184030181526043909201835281519181019190912060009081526005909152205460ff166110405760405162461bcd60e51b81526004018080602001828103825260248152602001806117e26024913960400191505060405180910390fd5b600091825260056020526040909120805460ff1916911515919091179055565b60009081526001602052604090205490565b60008181526004602090815260409182902080548351601f6002600019610100600186161502019093169290920491820184900484028101840190945280845260609392830182828015610f585780601f10610f2d57610100808354040283529160200191610f58565b6040805160008051602061179c8339815191526020808301919091528251808303601c018152603c909201835281519181019190912060009081526005909152205460ff161515600114156111b857604080516e636f6e74726163742e65786973747360881b6020808301919091523360601b602f830152825160238184030181526043909201835281519181019190912060009081526005909152205460ff166111b85760405162461bcd60e51b81526004018080602001828103825260248152602001806117e26024913960400191505060405180910390fd5b60009182526003602052604090912080546001600160a01b0319166001600160a01b03909216919091179055565b60009081526006602052604090205490565b6040805160008051602061179c8339815191526020808301919091528251808303601c018152603c909201835281519181019190912060009081526005909152205460ff161515600114156112d457604080516e636f6e74726163742e65786973747360881b6020808301919091523360601b602f830152825160238184030181526043909201835281519181019190912060009081526005909152205460ff166112d45760405162461bcd60e51b81526004018080602001828103825260248152602001806117e26024913960400191505060405180910390fd5b60009182526001602052604090912055565b6040805160008051602061179c8339815191526020808301919091528251808303601c018152603c909201835281519181019190912060009081526005909152205460ff161515600114156113c257604080516e636f6e74726163742e65786973747360881b6020808301919091523360601b602f830152825160238184030181526043909201835281519181019190912060009081526005909152205460ff166113c25760405162461bcd60e51b81526004018080602001828103825260248152602001806117e26024913960400191505060405180910390fd5b600090815260016020526040812055565b6040805160008051602061179c8339815191526020808301919091528251808303601c018152603c909201835281519181019190912060009081526005909152205460ff161515600114156114af57604080516e636f6e74726163742e65786973747360881b6020808301919091523360601b602f830152825160238184030181526043909201835281519181019190912060009081526005909152205460ff166114af5760405162461bcd60e51b81526004018080602001828103825260248152602001806117e26024913960400191505060405180910390fd5b60009182526006602052604090912060ff9091169055565b6114cf6116c4565b6000546001600160a01b03908116911614611531576040805162461bcd60e51b815260206004820181905260248201527f4f776e61626c653a2063616c6c6572206973206e6f7420746865206f776e6572604482015290519081900360640190fd5b6001600160a01b0381166115765760405162461bcd60e51b81526004018080602001828103825260268152602001806117bc6026913960400191505060405180910390fd5b600080546040516001600160a01b03808516939216917f8be0079c531659141344cd1fd0a4f28419497f9722a3daafe3b4186f6b6457e091a3600080546001600160a01b0319166001600160a01b0392909216919091179055565b6040805160008051602061179c8339815191526020808301919091528251808303601c018152603c909201835281519181019190912060009081526005909152205460ff161515600114156116ad57604080516e636f6e74726163742e65786973747360881b6020808301919091523360601b602f830152825160238184030181526043909201835281519181019190912060009081526005909152205460ff166116ad5760405162461bcd60e51b81526004018080602001828103825260248152602001806117e26024913960400191505060405180910390fd5b6000818152600260205260408120610bed91611746565b3390565b828054600181600116156101000203166002900490600052602060002090601f016020900481019282601f1061170957805160ff1916838001178555611736565b82800160010185558215611736579182015b8281111561173657825182559160200191906001019061171b565b50611742929150611786565b5090565b50805460018160011615610100020316600290046000825580601f1061176c5750610bed565b601f016020900490600052602060002090810190610bed91905b5b80821115611742576000815560010161178756fe636f6e74726163742e73746f726167652e696e697469616c69736564000000004f776e61626c653a206e6577206f776e657220697320746865207a65726f2061646472657373496e76616c6964206f72206f75746461746564206e6574776f726b20636f6e7472616374a2646970667358221220ca259f342ad991efb2e7031f91e913a230895aca88f8d700bedd61699a8a68f364736f6c634300060c0033",
  "immutableReferences": {},
  "source": "pragma solidity 0.6.12;\n\nimport {Ownable} from '@openzeppelin/contracts/access/Ownable.sol';\n\ncontract EternalStorage is Ownable {\n    /**** Storage Types *******/\n\n    mapping(bytes32 => uint256) private uIntStorage;\n    mapping(bytes32 => string) private stringStorage;\n    mapping(bytes32 => address) private addressStorage;\n    mapping(bytes32 => bytes) private bytesStorage;\n    mapping(bytes32 => bool) private boolStorage;\n    mapping(bytes32 => int256) private intStorage;\n    mapping(bytes32 => uint8) private uint8Storage;\n\n    /*** Modifiers ************/\n\n    /// @dev Only allow access from the latest version of a contract in the Rocket Pool network after deployment\n    modifier onlyLatestRocketNetworkContract() {\n        // The owner and other contracts are only allowed to set the storage upon deployment to register the initial contracts/settings, afterwards their direct access is disabled\n        if (\n            boolStorage[keccak256(\n                abi.encodePacked('contract.storage.initialised')\n            )] == true\n        ) {\n            // Make sure the access is permitted to only contracts in our Dapp\n            require(\n                boolStorage[keccak256(\n                    abi.encodePacked('contract.exists', msg.sender)\n                )],\n                'Invalid or outdated network contract'\n            );\n        }\n        _;\n    }\n\n    /// @dev Construct RocketStorage\n    constructor() public {\n        // Set the main owner upon deployment\n        boolStorage[keccak256(\n            abi.encodePacked('access.role', 'owner', msg.sender)\n        )] = true;\n    }\n\n    /**** Get Methods ***********/\n\n    /// @param _key The key for the record\n    function getAddress(bytes32 _key) external view returns (address) {\n        return addressStorage[_key];\n    }\n\n    /// @param _key The key for the record\n    function getUint(bytes32 _key) external view returns (uint256) {\n        return uIntStorage[_key];\n    }\n\n    /// @param _key The key for the record\n    function getString(bytes32 _key) external view returns (string memory) {\n        return stringStorage[_key];\n    }\n\n    /// @param _key The key for the record\n    function getBytes(bytes32 _key) external view returns (bytes memory) {\n        return bytesStorage[_key];\n    }\n\n    /// @param _key The key for the record\n    function getBool(bytes32 _key) external view returns (bool) {\n        return boolStorage[_key];\n    }\n\n    /// @param _key The key for the record\n    function getInt(bytes32 _key) external view returns (int256) {\n        return intStorage[_key];\n    }\n\n    function getUint8(bytes32 _key) external view returns (uint8) {\n        return uint8Storage[_key];\n    }\n\n    /**** Set Methods ***********/\n\n    /// @param _key The key for the record\n    function setAddress(bytes32 _key, address _value)\n        external\n        onlyLatestRocketNetworkContract\n    {\n        addressStorage[_key] = _value;\n    }\n\n    /// @param _key The key for the record\n    function setUint(bytes32 _key, uint256 _value)\n        external\n        onlyLatestRocketNetworkContract\n    {\n        uIntStorage[_key] = _value;\n    }\n\n    /// @param _key The key for the record\n    function setString(bytes32 _key, string memory _value)\n        external\n        onlyLatestRocketNetworkContract\n    {\n        stringStorage[_key] = _value;\n    }\n\n    /// @param _key The key for the record\n    function setBytes(bytes32 _key, bytes memory _value)\n        external\n        onlyLatestRocketNetworkContract\n    {\n        bytesStorage[_key] = _value;\n    }\n\n    /// @param _key The key for the record\n    function setBool(bytes32 _key, bool _value)\n        external\n        onlyLatestRocketNetworkContract\n    {\n        boolStorage[_key] = _value;\n    }\n\n    /// @param _key The key for the record\n    function setInt(bytes32 _key, int256 _value)\n        external\n        onlyLatestRocketNetworkContract\n    {\n        intStorage[_key] = _value;\n    }\n\n    /// @param _key The key for the record\n    function setUint8(bytes32 _key, uint8 _value)\n        external\n        onlyLatestRocketNetworkContract\n    {\n        intStorage[_key] = _value;\n    }\n\n    /**** Delete Methods ***********/\n\n    /// @param _key The key for the record\n    function deleteAddress(bytes32 _key)\n        external\n        onlyLatestRocketNetworkContract\n    {\n        delete addressStorage[_key];\n    }\n\n    /// @param _key The key for the record\n    function deleteUint(bytes32 _key) external onlyLatestRocketNetworkContract {\n        delete uIntStorage[_key];\n    }\n\n    /// @param _key The key for the record\n    function deleteString(bytes32 _key)\n        external\n        onlyLatestRocketNetworkContract\n    {\n        delete stringStorage[_key];\n    }\n\n    /// @param _key The key for the record\n    function deleteBytes(bytes32 _key)\n        external\n        onlyLatestRocketNetworkContract\n    {\n        delete bytesStorage[_key];\n    }\n\n    /// @param _key The key for the record\n    function deleteBool(bytes32 _key) external onlyLatestRocketNetworkContract {\n        delete boolStorage[_key];\n    }\n\n    /// @param _key The key for the record\n    function deleteInt(bytes32 _key) external onlyLatestRocketNetworkContract {\n        delete intStorage[_key];\n    }\n\n    /// @param _key The key for the record\n    function deleteUint8(bytes32 _key)\n        external\n        onlyLatestRocketNetworkContract\n    {\n        delete uint8Storage[_key];\n    }\n}\n",
  "sourcePath": "C:\\Users\\James\\projects\\tsuno-fe\\contracts\\EternalStorage.sol",
  "compiler": {
    "name": "solc",
    "version": "0.6.12+commit.27d51765.Emscripten.clang"
  },
  "schemaVersion": "3.2.5",
  "updatedAt": "2020-10-04T21:25:02.614Z",
  "networkType": "ethereum",
  "devdoc": {
    "kind": "dev",
    "methods": {
      "constructor": {
        "details": "Construct RocketStorage"
      },
      "deleteAddress(bytes32)": {
        "params": {
          "_key": "The key for the record"
        }
      },
      "deleteBool(bytes32)": {
        "params": {
          "_key": "The key for the record"
        }
      },
      "deleteBytes(bytes32)": {
        "params": {
          "_key": "The key for the record"
        }
      },
      "deleteInt(bytes32)": {
        "params": {
          "_key": "The key for the record"
        }
      },
      "deleteString(bytes32)": {
        "params": {
          "_key": "The key for the record"
        }
      },
      "deleteUint(bytes32)": {
        "params": {
          "_key": "The key for the record"
        }
      },
      "deleteUint8(bytes32)": {
        "params": {
          "_key": "The key for the record"
        }
      },
      "getAddress(bytes32)": {
        "params": {
          "_key": "The key for the record"
        }
      },
      "getBool(bytes32)": {
        "params": {
          "_key": "The key for the record"
        }
      },
      "getBytes(bytes32)": {
        "params": {
          "_key": "The key for the record"
        }
      },
      "getInt(bytes32)": {
        "params": {
          "_key": "The key for the record"
        }
      },
      "getString(bytes32)": {
        "params": {
          "_key": "The key for the record"
        }
      },
      "getUint(bytes32)": {
        "params": {
          "_key": "The key for the record"
        }
      },
      "owner()": {
        "details": "Returns the address of the current owner."
      },
      "renounceOwnership()": {
        "details": "Leaves the contract without owner. It will not be possible to call `onlyOwner` functions anymore. Can only be called by the current owner. NOTE: Renouncing ownership will leave the contract without an owner, thereby removing any functionality that is only available to the owner."
      },
      "setAddress(bytes32,address)": {
        "params": {
          "_key": "The key for the record"
        }
      },
      "setBool(bytes32,bool)": {
        "params": {
          "_key": "The key for the record"
        }
      },
      "setBytes(bytes32,bytes)": {
        "params": {
          "_key": "The key for the record"
        }
      },
      "setInt(bytes32,int256)": {
        "params": {
          "_key": "The key for the record"
        }
      },
      "setString(bytes32,string)": {
        "params": {
          "_key": "The key for the record"
        }
      },
      "setUint(bytes32,uint256)": {
        "params": {
          "_key": "The key for the record"
        }
      },
      "setUint8(bytes32,uint8)": {
        "params": {
          "_key": "The key for the record"
        }
      },
      "transferOwnership(address)": {
        "details": "Transfers ownership of the contract to a new account (`newOwner`). Can only be called by the current owner."
      }
    },
    "version": 1
  },
  "userdoc": {
    "kind": "user",
    "methods": {},
    "version": 1
  }
}