{
  "contractName": "FederalHarvestingRights",
  "abi": [
    {
      "inputs": [
        {
          "internalType": "address",
          "name": "_es",
          "type": "address"
        }
      ],
      "stateMutability": "nonpayable",
      "type": "constructor"
    },
    {
      "anonymous": false,
      "inputs": [
        {
          "indexed": true,
          "internalType": "address",
          "name": "owner",
          "type": "address"
        },
        {
          "indexed": true,
          "internalType": "address",
          "name": "approved",
          "type": "address"
        },
        {
          "indexed": true,
          "internalType": "uint256",
          "name": "tokenId",
          "type": "uint256"
        }
      ],
      "name": "Approval",
      "type": "event"
    },
    {
      "anonymous": false,
      "inputs": [
        {
          "indexed": true,
          "internalType": "address",
          "name": "owner",
          "type": "address"
        },
        {
          "indexed": true,
          "internalType": "address",
          "name": "operator",
          "type": "address"
        },
        {
          "indexed": false,
          "internalType": "bool",
          "name": "approved",
          "type": "bool"
        }
      ],
      "name": "ApprovalForAll",
      "type": "event"
    },
    {
      "anonymous": false,
      "inputs": [
        {
          "indexed": true,
          "internalType": "address",
          "name": "previousOwner",
          "type": "address"
        },
        {
          "indexed": true,
          "internalType": "address",
          "name": "newOwner",
          "type": "address"
        }
      ],
      "name": "OwnershipTransferred",
      "type": "event"
    },
    {
      "anonymous": false,
      "inputs": [
        {
          "indexed": true,
          "internalType": "address",
          "name": "from",
          "type": "address"
        },
        {
          "indexed": true,
          "internalType": "address",
          "name": "to",
          "type": "address"
        },
        {
          "indexed": true,
          "internalType": "uint256",
          "name": "tokenId",
          "type": "uint256"
        }
      ],
      "name": "Transfer",
      "type": "event"
    },
    {
      "inputs": [
        {
          "internalType": "address",
          "name": "to",
          "type": "address"
        },
        {
          "internalType": "uint256",
          "name": "tokenId",
          "type": "uint256"
        }
      ],
      "name": "approve",
      "outputs": [],
      "stateMutability": "nonpayable",
      "type": "function"
    },
    {
      "inputs": [
        {
          "internalType": "address",
          "name": "owner",
          "type": "address"
        }
      ],
      "name": "balanceOf",
      "outputs": [
        {
          "internalType": "uint256",
          "name": "",
          "type": "uint256"
        }
      ],
      "stateMutability": "view",
      "type": "function"
    },
    {
      "inputs": [],
      "name": "baseURI",
      "outputs": [
        {
          "internalType": "string",
          "name": "",
          "type": "string"
        }
      ],
      "stateMutability": "view",
      "type": "function"
    },
    {
      "inputs": [
        {
          "internalType": "uint256",
          "name": "tokenId",
          "type": "uint256"
        }
      ],
      "name": "getApproved",
      "outputs": [
        {
          "internalType": "address",
          "name": "",
          "type": "address"
        }
      ],
      "stateMutability": "view",
      "type": "function"
    },
    {
      "inputs": [
        {
          "internalType": "address",
          "name": "owner",
          "type": "address"
        },
        {
          "internalType": "address",
          "name": "operator",
          "type": "address"
        }
      ],
      "name": "isApprovedForAll",
      "outputs": [
        {
          "internalType": "bool",
          "name": "",
          "type": "bool"
        }
      ],
      "stateMutability": "view",
      "type": "function"
    },
    {
      "inputs": [],
      "name": "name",
      "outputs": [
        {
          "internalType": "string",
          "name": "",
          "type": "string"
        }
      ],
      "stateMutability": "view",
      "type": "function"
    },
    {
      "inputs": [],
      "name": "owner",
      "outputs": [
        {
          "internalType": "address",
          "name": "",
          "type": "address"
        }
      ],
      "stateMutability": "view",
      "type": "function"
    },
    {
      "inputs": [
        {
          "internalType": "uint256",
          "name": "tokenId",
          "type": "uint256"
        }
      ],
      "name": "ownerOf",
      "outputs": [
        {
          "internalType": "address",
          "name": "",
          "type": "address"
        }
      ],
      "stateMutability": "view",
      "type": "function"
    },
    {
      "inputs": [],
      "name": "renounceOwnership",
      "outputs": [],
      "stateMutability": "nonpayable",
      "type": "function"
    },
    {
      "inputs": [
        {
          "internalType": "address",
          "name": "from",
          "type": "address"
        },
        {
          "internalType": "address",
          "name": "to",
          "type": "address"
        },
        {
          "internalType": "uint256",
          "name": "tokenId",
          "type": "uint256"
        }
      ],
      "name": "safeTransferFrom",
      "outputs": [],
      "stateMutability": "nonpayable",
      "type": "function"
    },
    {
      "inputs": [
        {
          "internalType": "address",
          "name": "from",
          "type": "address"
        },
        {
          "internalType": "address",
          "name": "to",
          "type": "address"
        },
        {
          "internalType": "uint256",
          "name": "tokenId",
          "type": "uint256"
        },
        {
          "internalType": "bytes",
          "name": "_data",
          "type": "bytes"
        }
      ],
      "name": "safeTransferFrom",
      "outputs": [],
      "stateMutability": "nonpayable",
      "type": "function"
    },
    {
      "inputs": [
        {
          "internalType": "address",
          "name": "operator",
          "type": "address"
        },
        {
          "internalType": "bool",
          "name": "approved",
          "type": "bool"
        }
      ],
      "name": "setApprovalForAll",
      "outputs": [],
      "stateMutability": "nonpayable",
      "type": "function"
    },
    {
      "inputs": [
        {
          "internalType": "bytes4",
          "name": "interfaceId",
          "type": "bytes4"
        }
      ],
      "name": "supportsInterface",
      "outputs": [
        {
          "internalType": "bool",
          "name": "",
          "type": "bool"
        }
      ],
      "stateMutability": "view",
      "type": "function"
    },
    {
      "inputs": [],
      "name": "symbol",
      "outputs": [
        {
          "internalType": "string",
          "name": "",
          "type": "string"
        }
      ],
      "stateMutability": "view",
      "type": "function"
    },
    {
      "inputs": [
        {
          "internalType": "uint256",
          "name": "index",
          "type": "uint256"
        }
      ],
      "name": "tokenByIndex",
      "outputs": [
        {
          "internalType": "uint256",
          "name": "",
          "type": "uint256"
        }
      ],
      "stateMutability": "view",
      "type": "function"
    },
    {
      "inputs": [
        {
          "internalType": "address",
          "name": "owner",
          "type": "address"
        },
        {
          "internalType": "uint256",
          "name": "index",
          "type": "uint256"
        }
      ],
      "name": "tokenOfOwnerByIndex",
      "outputs": [
        {
          "internalType": "uint256",
          "name": "",
          "type": "uint256"
        }
      ],
      "stateMutability": "view",
      "type": "function"
    },
    {
      "inputs": [
        {
          "internalType": "uint256",
          "name": "tokenId",
          "type": "uint256"
        }
      ],
      "name": "tokenURI",
      "outputs": [
        {
          "internalType": "string",
          "name": "",
          "type": "string"
        }
      ],
      "stateMutability": "view",
      "type": "function"
    },
    {
      "inputs": [],
      "name": "totalSupply",
      "outputs": [
        {
          "internalType": "uint256",
          "name": "",
          "type": "uint256"
        }
      ],
      "stateMutability": "view",
      "type": "function"
    },
    {
      "inputs": [
        {
          "internalType": "address",
          "name": "from",
          "type": "address"
        },
        {
          "internalType": "address",
          "name": "to",
          "type": "address"
        },
        {
          "internalType": "uint256",
          "name": "tokenId",
          "type": "uint256"
        }
      ],
      "name": "transferFrom",
      "outputs": [],
      "stateMutability": "nonpayable",
      "type": "function"
    },
    {
      "inputs": [
        {
          "internalType": "address",
          "name": "newOwner",
          "type": "address"
        }
      ],
      "name": "transferOwnership",
      "outputs": [],
      "stateMutability": "nonpayable",
      "type": "function"
    },
    {
      "inputs": [
        {
          "internalType": "address",
          "name": "_to",
          "type": "address"
        },
        {
          "internalType": "uint256",
          "name": "_tokenId",
          "type": "uint256"
        }
      ],
      "name": "mint",
      "outputs": [],
      "stateMutability": "nonpayable",
      "type": "function"
    }
  ],
  "bytecode": "0x60806040523480156200001157600080fd5b506040516200218b3803806200218b833981810160405260208110156200003757600080fd5b5051604080518082018252601781527f4665646572616c48617276657374696e675269676874730000000000000000006020828101919091528251808401909352600383526223242960e91b90830152906200009a6301ffc9a760e01b6200017f565b8151620000af90600690602085019062000208565b508051620000c590600790602084019062000208565b50620000d86380ac58cd60e01b6200017f565b620000ea635b5e139f60e01b6200017f565b620000fc63780e9d6360e01b6200017f565b50600090506200010b62000204565b600a80546001600160a01b0319166001600160a01b038316908117909155604051919250906000907f8be0079c531659141344cd1fd0a4f28419497f9722a3daafe3b4186f6b6457e0908290a350600b80546001600160a01b0319166001600160a01b0392909216919091179055620002a4565b6001600160e01b03198082161415620001df576040805162461bcd60e51b815260206004820152601c60248201527f4552433136353a20696e76616c696420696e7465726661636520696400000000604482015290519081900360640190fd5b6001600160e01b0319166000908152602081905260409020805460ff19166001179055565b3390565b828054600181600116156101000203166002900490600052602060002090601f016020900481019282601f106200024b57805160ff19168380011785556200027b565b828001600101855582156200027b579182015b828111156200027b5782518255916020019190600101906200025e565b50620002899291506200028d565b5090565b5b808211156200028957600081556001016200028e565b611ed780620002b46000396000f3fe608060405234801561001057600080fd5b50600436106101375760003560e01c80636352211e116100b857806395d89b411161007c57806395d89b41146103b1578063a22cb465146103b9578063b88d4fde146103e7578063c87b56dd146104ad578063e985e9c5146104ca578063f2fde38b146104f857610137565b80636352211e146103565780636c0360eb1461037357806370a082311461037b578063715018a6146103a15780638da5cb5b146103a957610137565b806323b872dd116100ff57806323b872dd146102755780632f745c59146102ab57806340c10f19146102d757806342842e0e146103035780634f6ccce71461033957610137565b806301ffc9a71461013c57806306fdde0314610177578063081812fc146101f4578063095ea7b31461022d57806318160ddd1461025b575b600080fd5b6101636004803603602081101561015257600080fd5b50356001600160e01b03191661051e565b604080519115158252519081900360200190f35b61017f610541565b6040805160208082528351818301528351919283929083019185019080838360005b838110156101b95781810151838201526020016101a1565b50505050905090810190601f1680156101e65780820380516001836020036101000a031916815260200191505b509250505060405180910390f35b6102116004803603602081101561020a57600080fd5b50356105d7565b604080516001600160a01b039092168252519081900360200190f35b6102596004803603604081101561024357600080fd5b506001600160a01b038135169060200135610639565b005b610263610714565b60408051918252519081900360200190f35b6102596004803603606081101561028b57600080fd5b506001600160a01b03813581169160208101359091169060400135610725565b610263600480360360408110156102c157600080fd5b506001600160a01b03813516906020013561077c565b610259600480360360408110156102ed57600080fd5b506001600160a01b0381351690602001356107a7565b6102596004803603606081101561031957600080fd5b506001600160a01b0381358116916020810135909116906040013561089e565b6102636004803603602081101561034f57600080fd5b50356108b9565b6102116004803603602081101561036c57600080fd5b50356108cf565b61017f6108f7565b6102636004803603602081101561039157600080fd5b50356001600160a01b0316610958565b6102596109c0565b610211610a74565b61017f610a83565b610259600480360360408110156103cf57600080fd5b506001600160a01b0381351690602001351515610ae4565b610259600480360360808110156103fd57600080fd5b6001600160a01b0382358116926020810135909116916040820135919081019060808101606082013564010000000081111561043857600080fd5b82018360208201111561044a57600080fd5b8035906020019184600183028401116401000000008311171561046c57600080fd5b91908080601f016020809104026020016040519081016040528093929190818152602001838380828437600092019190915250929550610be9945050505050565b61017f600480360360208110156104c357600080fd5b5035610c47565b610163600480360360408110156104e057600080fd5b506001600160a01b0381358116916020013516610eee565b6102596004803603602081101561050e57600080fd5b50356001600160a01b0316610f1c565b6001600160e01b0319811660009081526020819052604090205460ff165b919050565b60068054604080516020601f60026000196101006001881615020190951694909404938401819004810282018101909252828152606093909290918301828280156105cd5780601f106105a2576101008083540402835291602001916105cd565b820191906000526020600020905b8154815290600101906020018083116105b057829003601f168201915b5050505050905090565b60006105e282611027565b61061d5760405162461bcd60e51b815260040180806020018281038252602c815260200180611daa602c913960400191505060405180910390fd5b506000908152600460205260409020546001600160a01b031690565b6000610644826108cf565b9050806001600160a01b0316836001600160a01b031614156106975760405162461bcd60e51b8152600401808060200182810382526021815260200180611e2e6021913960400191505060405180910390fd5b806001600160a01b03166106a9611034565b6001600160a01b031614806106ca57506106ca816106c5611034565b610eee565b6107055760405162461bcd60e51b8152600401808060200182810382526038815260200180611cfd6038913960400191505060405180910390fd5b61070f8383611038565b505050565b600061072060026110a6565b905090565b610736610730611034565b826110b1565b6107715760405162461bcd60e51b8152600401808060200182810382526031815260200180611e4f6031913960400191505060405180910390fd5b61070f838383611155565b6001600160a01b038216600090815260016020526040812061079e90836112a1565b90505b92915050565b600b5460408051696668722e61636365737360b01b6020808301919091523360601b602a8301528251601e818403018152603e8301808552815191830191909120633d70e7e560e11b909152604283015291516001600160a01b0390931692637ae1cfca92606280840193919291829003018186803b15801561082957600080fd5b505afa15801561083d573d6000803e3d6000fd5b505050506040513d602081101561085357600080fd5b50516108905760405162461bcd60e51b8152600401808060200182810382526022815260200180611e806022913960400191505060405180910390fd5b61089a82826112ad565b5050565b61070f83838360405180602001604052806000815250610be9565b6000806108c76002846112c7565b509392505050565b60006107a182604051806060016040528060298152602001611d5f60299139600291906112e3565b60098054604080516020601f60026000196101006001881615020190951694909404938401819004810282018101909252828152606093909290918301828280156105cd5780601f106105a2576101008083540402835291602001916105cd565b60006001600160a01b03821661099f5760405162461bcd60e51b815260040180806020018281038252602a815260200180611d35602a913960400191505060405180910390fd5b6001600160a01b03821660009081526001602052604090206107a1906110a6565b6109c8611034565b600a546001600160a01b03908116911614610a2a576040805162461bcd60e51b815260206004820181905260248201527f4f776e61626c653a2063616c6c6572206973206e6f7420746865206f776e6572604482015290519081900360640190fd5b600a546040516000916001600160a01b0316907f8be0079c531659141344cd1fd0a4f28419497f9722a3daafe3b4186f6b6457e0908390a3600a80546001600160a01b0319169055565b600a546001600160a01b031690565b60078054604080516020601f60026000196101006001881615020190951694909404938401819004810282018101909252828152606093909290918301828280156105cd5780601f106105a2576101008083540402835291602001916105cd565b610aec611034565b6001600160a01b0316826001600160a01b03161415610b52576040805162461bcd60e51b815260206004820152601960248201527f4552433732313a20617070726f766520746f2063616c6c657200000000000000604482015290519081900360640190fd5b8060056000610b5f611034565b6001600160a01b03908116825260208083019390935260409182016000908120918716808252919093529120805460ff191692151592909217909155610ba3611034565b6001600160a01b03167f17307eab39ab6107e8899845ad3d59bd9653f200f220920489ca2b5937696c318360405180821515815260200191505060405180910390a35050565b610bfa610bf4611034565b836110b1565b610c355760405162461bcd60e51b8152600401808060200182810382526031815260200180611e4f6031913960400191505060405180910390fd5b610c41848484846112fa565b50505050565b6060610c5282611027565b610c8d5760405162461bcd60e51b815260040180806020018281038252602f815260200180611dff602f913960400191505060405180910390fd5b60008281526008602090815260409182902080548351601f6002600019610100600186161502019093169290920491820184900484028101840190945280845260609392830182828015610d225780601f10610cf757610100808354040283529160200191610d22565b820191906000526020600020905b815481529060010190602001808311610d0557829003601f168201915b505060095493945050505060026000196101006001841615020190911604610d4b57905061053c565b805115610e1c576009816040516020018083805460018160011615610100020316600290048015610db35780601f10610d91576101008083540402835291820191610db3565b820191906000526020600020905b815481529060010190602001808311610d9f575b5050825160208401908083835b60208310610ddf5780518252601f199092019160209182019101610dc0565b6001836020036101000a0380198251168184511680821785525050505050509050019250505060405160208183030381529060405291505061053c565b6009610e278461134c565b6040516020018083805460018160011615610100020316600290048015610e855780601f10610e63576101008083540402835291820191610e85565b820191906000526020600020905b815481529060010190602001808311610e71575b5050825160208401908083835b60208310610eb15780518252601f199092019160209182019101610e92565b6001836020036101000a03801982511681845116808217855250505050505090500192505050604051602081830303815290604052915050919050565b6001600160a01b03918216600090815260056020908152604080832093909416825291909152205460ff1690565b610f24611034565b600a546001600160a01b03908116911614610f86576040805162461bcd60e51b815260206004820181905260248201527f4f776e61626c653a2063616c6c6572206973206e6f7420746865206f776e6572604482015290519081900360640190fd5b6001600160a01b038116610fcb5760405162461bcd60e51b8152600401808060200182810382526026815260200180611c876026913960400191505060405180910390fd5b600a546040516001600160a01b038084169216907f8be0079c531659141344cd1fd0a4f28419497f9722a3daafe3b4186f6b6457e090600090a3600a80546001600160a01b0319166001600160a01b0392909216919091179055565b60006107a1600283611427565b3390565b600081815260046020526040902080546001600160a01b0319166001600160a01b038416908117909155819061106d826108cf565b6001600160a01b03167f8c5be1e5ebec7d5bd14f71427d1e84f3dd0314c0f7b2291e5b200ac8c7c3b92560405160405180910390a45050565b60006107a182611433565b60006110bc82611027565b6110f75760405162461bcd60e51b815260040180806020018281038252602c815260200180611cd1602c913960400191505060405180910390fd5b6000611102836108cf565b9050806001600160a01b0316846001600160a01b0316148061113d5750836001600160a01b0316611132846105d7565b6001600160a01b0316145b8061114d575061114d8185610eee565b949350505050565b826001600160a01b0316611168826108cf565b6001600160a01b0316146111ad5760405162461bcd60e51b8152600401808060200182810382526029815260200180611dd66029913960400191505060405180910390fd5b6001600160a01b0382166111f25760405162461bcd60e51b8152600401808060200182810382526024815260200180611cad6024913960400191505060405180910390fd5b6111fd83838361070f565b611208600082611038565b6001600160a01b038316600090815260016020526040902061122a9082611437565b506001600160a01b038216600090815260016020526040902061124d9082611443565b5061125a6002828461144f565b5080826001600160a01b0316846001600160a01b03167fddf252ad1be2c89b69c2b068fc378daa952ba7f163c4a11628f55a4df523b3ef60405160405180910390a4505050565b600061079e8383611465565b61089a8282604051806020016040528060008152506114c9565b60008080806112d6868661151b565b9097909650945050505050565b60006112f0848484611596565b90505b9392505050565b611305848484611155565b61131184848484611660565b610c415760405162461bcd60e51b8152600401808060200182810382526032815260200180611c556032913960400191505060405180910390fd5b60608161137157506040805180820190915260018152600360fc1b602082015261053c565b8160005b811561138957600101600a82049150611375565b60608167ffffffffffffffff811180156113a257600080fd5b506040519080825280601f01601f1916602001820160405280156113cd576020820181803683370190505b50859350905060001982015b831561141e57600a840660300160f81b828280600190039350815181106113fc57fe5b60200101906001600160f81b031916908160001a905350600a840493506113d9565b50949350505050565b600061079e83836117c8565b5490565b600061079e83836117e0565b600061079e83836118a6565b60006112f084846001600160a01b0385166118f0565b815460009082106114a75760405162461bcd60e51b8152600401808060200182810382526022815260200180611c336022913960400191505060405180910390fd5b8260000182815481106114b657fe5b9060005260206000200154905092915050565b6114d38383611987565b6114e06000848484611660565b61070f5760405162461bcd60e51b8152600401808060200182810382526032815260200180611c556032913960400191505060405180910390fd5b81546000908190831061155f5760405162461bcd60e51b8152600401808060200182810382526022815260200180611d886022913960400191505060405180910390fd5b600084600001848154811061157057fe5b906000526020600020906002020190508060000154816001015492509250509250929050565b600082815260018401602052604081205482816116315760405162461bcd60e51b81526004018080602001828103825283818151815260200191508051906020019080838360005b838110156115f65781810151838201526020016115de565b50505050905090810190601f1680156116235780820380516001836020036101000a031916815260200191505b509250505060405180910390fd5b5084600001600182038154811061164457fe5b9060005260206000209060020201600101549150509392505050565b6000611674846001600160a01b0316611ab5565b6116805750600161114d565b606061178e630a85bd0160e11b611695611034565b88878760405160240180856001600160a01b03168152602001846001600160a01b0316815260200183815260200180602001828103825283818151815260200191508051906020019080838360005b838110156116fc5781810151838201526020016116e4565b50505050905090810190601f1680156117295780820380516001836020036101000a031916815260200191505b5095505050505050604051602081830303815290604052906001600160e01b0319166020820180516001600160e01b038381831617835250505050604051806060016040528060328152602001611c55603291396001600160a01b0388169190611abb565b905060008180602001905160208110156117a757600080fd5b50516001600160e01b031916630a85bd0160e11b1492505050949350505050565b60009081526001919091016020526040902054151590565b6000818152600183016020526040812054801561189c578354600019808301919081019060009087908390811061181357fe5b906000526020600020015490508087600001848154811061183057fe5b60009182526020808320909101929092558281526001898101909252604090209084019055865487908061186057fe5b600190038181906000526020600020016000905590558660010160008781526020019081526020016000206000905560019450505050506107a1565b60009150506107a1565b60006118b283836117c8565b6118e8575081546001818101845560008481526020808220909301849055845484825282860190935260409020919091556107a1565b5060006107a1565b6000828152600184016020526040812054806119555750506040805180820182528381526020808201848152865460018181018955600089815284812095516002909302909501918255915190820155865486845281880190925292909120556112f3565b8285600001600183038154811061196857fe5b90600052602060002090600202016001018190555060009150506112f3565b6001600160a01b0382166119e2576040805162461bcd60e51b815260206004820181905260248201527f4552433732313a206d696e7420746f20746865207a65726f2061646472657373604482015290519081900360640190fd5b6119eb81611027565b15611a3d576040805162461bcd60e51b815260206004820152601c60248201527f4552433732313a20746f6b656e20616c7265616479206d696e74656400000000604482015290519081900360640190fd5b611a496000838361070f565b6001600160a01b0382166000908152600160205260409020611a6b9082611443565b50611a786002828461144f565b5060405181906001600160a01b038416906000907fddf252ad1be2c89b69c2b068fc378daa952ba7f163c4a11628f55a4df523b3ef908290a45050565b3b151590565b60606112f084846000856060611ad085611ab5565b611b21576040805162461bcd60e51b815260206004820152601d60248201527f416464726573733a2063616c6c20746f206e6f6e2d636f6e7472616374000000604482015290519081900360640190fd5b60006060866001600160a01b031685876040518082805190602001908083835b60208310611b605780518252601f199092019160209182019101611b41565b6001836020036101000a03801982511681845116808217855250505050505090500191505060006040518083038185875af1925050503d8060008114611bc2576040519150601f19603f3d011682016040523d82523d6000602084013e611bc7565b606091505b50915091508115611bdb57915061114d9050565b805115611beb5780518082602001fd5b60405162461bcd60e51b81526020600482018181528651602484015286518793919283926044019190850190808383600083156115f65781810151838201526020016115de56fe456e756d657261626c655365743a20696e646578206f7574206f6620626f756e64734552433732313a207472616e7366657220746f206e6f6e20455243373231526563656976657220696d706c656d656e7465724f776e61626c653a206e6577206f776e657220697320746865207a65726f20616464726573734552433732313a207472616e7366657220746f20746865207a65726f20616464726573734552433732313a206f70657261746f7220717565727920666f72206e6f6e6578697374656e7420746f6b656e4552433732313a20617070726f76652063616c6c6572206973206e6f74206f776e6572206e6f7220617070726f76656420666f7220616c6c4552433732313a2062616c616e636520717565727920666f7220746865207a65726f20616464726573734552433732313a206f776e657220717565727920666f72206e6f6e6578697374656e7420746f6b656e456e756d657261626c654d61703a20696e646578206f7574206f6620626f756e64734552433732313a20617070726f76656420717565727920666f72206e6f6e6578697374656e7420746f6b656e4552433732313a207472616e73666572206f6620746f6b656e2074686174206973206e6f74206f776e4552433732314d657461646174613a2055524920717565727920666f72206e6f6e6578697374656e7420746f6b656e4552433732313a20617070726f76616c20746f2063757272656e74206f776e65724552433732313a207472616e736665722063616c6c6572206973206e6f74206f776e6572206e6f7220617070726f76656453656e64657220646f6573206e6f7420686176652061636365737320746f20464852a2646970667358221220ea2733f9442715a86b618b6b8a9e5e7a995ae8902daf3a6d22916ab135428d0b64736f6c634300060c0033",
  "immutableReferences": {},
  "source": "// SPDX-License-Identifier: MIT\n\npragma solidity 0.6.12;\nimport {ERC721} from '@openzeppelin/contracts/token/ERC721/ERC721.sol';\nimport {Ownable} from '@openzeppelin/contracts/access/Ownable.sol';\nimport {EternalStorage} from './EternalStorage.sol';\n\ncontract FederalHarvestingRights is ERC721('FederalHarvestingRights', 'FHR'), Ownable {\n    EternalStorage es;\n\n    constructor(address _es) public {\n        es = EternalStorage(_es);\n    }\n\n    modifier onlyOperator() {\n        // Make sure the access is permitted to only contracts in our Dapp\n        require(\n            es.getBool(keccak256(abi.encodePacked('fhr.access', msg.sender))),\n            'Sender does not have access to FHR'\n        );\n        _;\n    }\n\n    function mint(address _to, uint256 _tokenId) public onlyOperator {\n        _safeMint(_to, _tokenId);\n    }\n}\n",
  "sourcePath": "C:\\Users\\James\\projects\\tsuno-fe\\contracts\\FederalHarvestingRights.sol",
  "compiler": {
    "name": "solc",
    "version": "0.6.12+commit.27d51765.Emscripten.clang"
  },
  "schemaVersion": "3.2.5",
  "updatedAt": "2020-10-09T10:38:50.241Z",
  "networkType": "ethereum",
  "devdoc": {
    "kind": "dev",
    "methods": {
      "approve(address,uint256)": {
        "details": "See {IERC721-approve}."
      },
      "balanceOf(address)": {
        "details": "See {IERC721-balanceOf}."
      },
      "baseURI()": {
        "details": "Returns the base URI set via {_setBaseURI}. This will be automatically added as a prefix in {tokenURI} to each token's URI, or to the token ID if no specific URI is set for that token ID."
      },
      "getApproved(uint256)": {
        "details": "See {IERC721-getApproved}."
      },
      "isApprovedForAll(address,address)": {
        "details": "See {IERC721-isApprovedForAll}."
      },
      "name()": {
        "details": "See {IERC721Metadata-name}."
      },
      "owner()": {
        "details": "Returns the address of the current owner."
      },
      "ownerOf(uint256)": {
        "details": "See {IERC721-ownerOf}."
      },
      "renounceOwnership()": {
        "details": "Leaves the contract without owner. It will not be possible to call `onlyOwner` functions anymore. Can only be called by the current owner. NOTE: Renouncing ownership will leave the contract without an owner, thereby removing any functionality that is only available to the owner."
      },
      "safeTransferFrom(address,address,uint256)": {
        "details": "See {IERC721-safeTransferFrom}."
      },
      "safeTransferFrom(address,address,uint256,bytes)": {
        "details": "See {IERC721-safeTransferFrom}."
      },
      "setApprovalForAll(address,bool)": {
        "details": "See {IERC721-setApprovalForAll}."
      },
      "supportsInterface(bytes4)": {
        "details": "See {IERC165-supportsInterface}. Time complexity O(1), guaranteed to always use less than 30 000 gas."
      },
      "symbol()": {
        "details": "See {IERC721Metadata-symbol}."
      },
      "tokenByIndex(uint256)": {
        "details": "See {IERC721Enumerable-tokenByIndex}."
      },
      "tokenOfOwnerByIndex(address,uint256)": {
        "details": "See {IERC721Enumerable-tokenOfOwnerByIndex}."
      },
      "tokenURI(uint256)": {
        "details": "See {IERC721Metadata-tokenURI}."
      },
      "totalSupply()": {
        "details": "See {IERC721Enumerable-totalSupply}."
      },
      "transferFrom(address,address,uint256)": {
        "details": "See {IERC721-transferFrom}."
      },
      "transferOwnership(address)": {
        "details": "Transfers ownership of the contract to a new account (`newOwner`). Can only be called by the current owner."
      }
    },
    "version": 1
  },
  "userdoc": {
    "kind": "user",
    "methods": {},
    "version": 1
  }
}