{
  "contractName": "GameOperations",
  "abi": [
    {
      "anonymous": false,
      "inputs": [
        {
          "indexed": false,
          "internalType": "uint256",
          "name": "attackerOffense",
          "type": "uint256"
        },
        {
          "indexed": false,
          "internalType": "uint256",
          "name": "attackerDefense",
          "type": "uint256"
        },
        {
          "indexed": false,
          "internalType": "uint256",
          "name": "defenderOffense",
          "type": "uint256"
        },
        {
          "indexed": false,
          "internalType": "uint256",
          "name": "defenderDefense",
          "type": "uint256"
        }
      ],
      "name": "BattleStarted",
      "type": "event"
    },
    {
      "anonymous": false,
      "inputs": [
        {
          "indexed": false,
          "internalType": "uint8",
          "name": "quadrant",
          "type": "uint8"
        },
        {
          "indexed": false,
          "internalType": "uint8",
          "name": "district",
          "type": "uint8"
        },
        {
          "indexed": false,
          "internalType": "uint8",
          "name": "sector",
          "type": "uint8"
        },
        {
          "indexed": false,
          "internalType": "uint256",
          "name": "star",
          "type": "uint256"
        }
      ],
      "name": "LogMove",
      "type": "event"
    },
    {
      "anonymous": false,
      "inputs": [
        {
          "indexed": true,
          "internalType": "address",
          "name": "to",
          "type": "address"
        },
        {
          "indexed": false,
          "internalType": "uint8",
          "name": "systemType",
          "type": "uint8"
        }
      ],
      "name": "LogStarSystemDiscovery",
      "type": "event"
    },
    {
      "anonymous": false,
      "inputs": [
        {
          "indexed": false,
          "internalType": "uint256",
          "name": "random",
          "type": "uint256"
        }
      ],
      "name": "Random",
      "type": "event"
    },
    {
      "inputs": [
        {
          "internalType": "address",
          "name": "_gameStorage",
          "type": "address"
        }
      ],
      "name": "initialize",
      "outputs": [],
      "stateMutability": "nonpayable",
      "type": "function"
    },
    {
      "inputs": [
        {
          "components": [
            {
              "internalType": "uint8",
              "name": "quadrant",
              "type": "uint8"
            },
            {
              "internalType": "uint8",
              "name": "sector",
              "type": "uint8"
            },
            {
              "internalType": "uint8",
              "name": "district",
              "type": "uint8"
            },
            {
              "internalType": "uint256",
              "name": "star",
              "type": "uint256"
            }
          ],
          "internalType": "struct Types.Position",
          "name": "to",
          "type": "tuple"
        }
      ],
      "name": "move",
      "outputs": [],
      "stateMutability": "nonpayable",
      "type": "function"
    },
    {
      "inputs": [
        {
          "internalType": "uint256[]",
          "name": "_ships",
          "type": "uint256[]"
        },
        {
          "internalType": "uint256[]",
          "name": "_amounts",
          "type": "uint256[]"
        }
      ],
      "name": "withdrawMasterFleet",
      "outputs": [],
      "stateMutability": "nonpayable",
      "type": "function"
    },
    {
      "inputs": [
        {
          "internalType": "uint256[]",
          "name": "_ships",
          "type": "uint256[]"
        },
        {
          "internalType": "uint256[]",
          "name": "_amounts",
          "type": "uint256[]"
        }
      ],
      "name": "lockInMasterFleet",
      "outputs": [],
      "stateMutability": "nonpayable",
      "type": "function"
    },
    {
      "inputs": [
        {
          "internalType": "uint256",
          "name": "a_offense",
          "type": "uint256"
        },
        {
          "internalType": "uint256",
          "name": "a_defense",
          "type": "uint256"
        },
        {
          "internalType": "uint256",
          "name": "d_offense",
          "type": "uint256"
        },
        {
          "internalType": "uint256",
          "name": "d_defense",
          "type": "uint256"
        }
      ],
      "name": "attack",
      "outputs": [],
      "stateMutability": "nonpayable",
      "type": "function"
    }
  ],
  "bytecode": "0x608060405234801561001057600080fd5b50612271806100206000396000f3fe608060405234801561001057600080fd5b50600436106100575760003560e01c8063085738401461005c57806329b62c2c1461007157806348a2ac7f146100845780638e905cfd14610097578063c4d66de8146100aa575b600080fd5b61006f61006a366004611ba6565b6100bd565b005b61006f61007f366004611d6f565b610132565b61006f610092366004611ba6565b610175565b61006f6100a5366004611c50565b6101b4565b61006f6100b8366004611aa0565b610500565b6100c8338383610637565b60345460405163feba2dd560e01b81526001600160a01b039091169063feba2dd5906100fc90339086908690600401611e1d565b600060405180830381600087803b15801561011657600080fd5b505af115801561012a573d6000803e3d6000fd5b505050505050565b7f7550161bd2fc26d7f30d9b7370cea4e3f940b4c22624d4ec58b44462372ec4fe84848484604051610167949392919061218b565b60405180910390a150505050565b6101803383836108a4565b60345460405163ba1edf1760e01b81526001600160a01b039091169063ba1edf17906100fc90339086908690600401611e1d565b61024381603360009054906101000a90046001600160a01b03166001600160a01b031663cf677f576040518163ffffffff1660e01b815260040160806040518083038186803b15801561020657600080fd5b505afa15801561021a573d6000803e3d6000fd5b505050506040513d601f19601f8201168201806040525081019061023e9190611cb1565b610d4f565b6102685760405162461bcd60e51b815260040161025f90611f25565b60405180910390fd5b6102706119a2565b603354604051633495a7e360e11b81526001600160a01b039091169063692b4fc6906102a0903390600401611e09565b60806040518083038186803b1580156102b857600080fd5b505afa1580156102cc573d6000803e3d6000fd5b505050506040513d601f19601f820116820180604052508101906102f09190611cb1565b90506102fb81610e03565b1561038957603360009054906101000a90046001600160a01b03166001600160a01b0316636d18c9706040518163ffffffff1660e01b815260040160806040518083038186803b15801561034e57600080fd5b505afa158015610362573d6000803e3d6000fd5b505050506040513d601f19601f820116820180604052508101906103869190611cb1565b90505b6103938282610e41565b156103b05760405162461bcd60e51b815260040161025f906120f3565b60335460405163bedc6d2760e01b81526001600160a01b039091169063bedc6d27906103e29033908690600401611e5d565b600060405180830381600087803b1580156103fc57600080fd5b505af1158015610410573d6000803e3d6000fd5b505050507f067ed149b8be43d30a47ed69bc882367f66239804079b28dd002d36fc3f46ed4826000015183604001518460200151856060015160405161045994939291906121b4565b60405180910390a16033546040516348bed1c960e11b81526000916001600160a01b03169063917da3929061049290869060040161213b565b60206040518083038186803b1580156104aa57600080fd5b505afa1580156104be573d6000803e3d6000fd5b505050506040513d601f19601f820116820180604052508101906104e29190611c07565b60148111156104ed57fe5b14156104fc576104fc82610e9c565b5050565b600054610100900460ff168061051957506105196115f4565b80610527575060005460ff16155b6105435760405162461bcd60e51b815260040161025f90612053565b600054610100900460ff1615801561056e576000805460ff1961ff0019909116610100171660011790555b603380546001600160a01b0319166001600160a01b03848116919091179182905560408051633800918160e21b81529051929091169163e002460491600480820192602092909190829003018186803b1580156105ca57600080fd5b505afa1580156105de573d6000803e3d6000fd5b505050506040513d601f19601f820116820180604052508101906106029190611abc565b603480546001600160a01b0319166001600160a01b039290921691909117905580156104fc576000805461ff00191690555050565b60008060005b84518110156107d457603354855160009182916001600160a01b039091169063426d3f089089908690811061066e57fe5b60200260200101516040518263ffffffff1660e01b81526004016106929190611eb4565b604080518083038186803b1580156106a957600080fd5b505afa1580156106bd573d6000803e3d6000fd5b505050506040513d601f19601f820116820180604052508101906106e19190611d4c565b60335489519294509092506001600160a01b031690633ea26927908a908a908790811061070a57fe5b602002602001015189878151811061071e57fe5b60200260200101516040518463ffffffff1660e01b815260040161074493929190611e93565b600060405180830381600087803b15801561075e57600080fd5b505af1158015610772573d6000803e3d6000fd5b5050505061079c86848151811061078557fe5b6020026020010151836115fa90919063ffffffff16565b850194506107c68684815181106107af57fe5b6020026020010151826115fa90919063ffffffff16565b90930192505060010161063d565b50603354604051632de8dd6160e11b81526001600160a01b0390911690635bd1bac2906108079088908690600401611e7a565b600060405180830381600087803b15801561082157600080fd5b505af1158015610835573d6000803e3d6000fd5b505060335460405163010d218f60e01b81526001600160a01b03909116925063010d218f915061086b9088908590600401611e7a565b600060405180830381600087803b15801561088557600080fd5b505af1158015610899573d6000803e3d6000fd5b505050505050505050565b60008060005b8451811015610b3857603354855160009182916001600160a01b039091169063426d3f08908990869081106108db57fe5b60200260200101516040518263ffffffff1660e01b81526004016108ff9190611eb4565b604080518083038186803b15801561091657600080fd5b505afa15801561092a573d6000803e3d6000fd5b505050506040513d601f19601f8201168201806040525081019061094e9190611d4c565b915091506000603360009054906101000a90046001600160a01b03166001600160a01b031663d3bf2b7e8a8a878151811061098557fe5b60200260200101516040518363ffffffff1660e01b81526004016109aa929190611e7a565b60206040518083038186803b1580156109c257600080fd5b505afa1580156109d6573d6000803e3d6000fd5b505050506040513d601f19601f820116820180604052508101906109fa9190611d34565b905080610a195760405162461bcd60e51b815260040161025f90611f82565b868481518110610a2557fe5b6020026020010151811015610a4c5760405162461bcd60e51b815260040161025f906120a1565b60335488516001600160a01b0390911690633ea26927908b908b9088908110610a7157fe5b6020026020010151610a9f8b8981518110610a8857fe5b60200260200101518661163490919063ffffffff16565b6040518463ffffffff1660e01b8152600401610abd93929190611e93565b600060405180830381600087803b158015610ad757600080fd5b505af1158015610aeb573d6000803e3d6000fd5b50505050610b15878581518110610afe57fe5b6020026020010151846115fa90919063ffffffff16565b86019550610b2887858151811061078557fe5b94909401935050506001016108aa565b50603354604051630130835160e41b81526000916001600160a01b031690631308351090610b6a908990600401611e09565b60206040518083038186803b158015610b8257600080fd5b505afa158015610b96573d6000803e3d6000fd5b505050506040513d601f19601f82011682018060405250810190610bba9190611d34565b60335460405163d835477360e01b81529192506000916001600160a01b039091169063d835477390610bf0908a90600401611e09565b60206040518083038186803b158015610c0857600080fd5b505afa158015610c1c573d6000803e3d6000fd5b505050506040513d601f19601f82011682018060405250810190610c409190611d34565b9050838210158015610c525750828110155b610c6e5760405162461bcd60e51b815260040161025f90611fc5565b6033546001600160a01b0316635bd1bac288610c8a8588611634565b6040518363ffffffff1660e01b8152600401610ca7929190611e7a565b600060405180830381600087803b158015610cc157600080fd5b505af1158015610cd5573d6000803e3d6000fd5b50506033546001600160a01b0316915063010d218f905088610cf78487611634565b6040518363ffffffff1660e01b8152600401610d14929190611e7a565b600060405180830381600087803b158015610d2e57600080fd5b505af1158015610d42573d6000803e3d6000fd5b5050505050505050505050565b815160009060ff161580610d6b57508151835160ff9182169116115b15610d7857506000610dfd565b604083015160ff161580610d995750816040015160ff16836040015160ff16115b15610da657506000610dfd565b602083015160ff161580610dc75750816020015160ff16836020015160ff16115b15610dd457506000610dfd565b60608301511580610dec575081606001518360600151115b15610df957506000610dfd565b5060015b92915050565b805160009060ff161580610e1c5750604082015160ff16155b80610e2c5750602082015160ff16155b80610e3957506060820151155b90505b919050565b8051825160009160ff9182169116148015610e695750816040015160ff16836040015160ff16145b8015610e825750816020015160ff16836020015160ff16145b8015610e95575081606001518360600151145b9392505050565b60335460408051630a421ef360e21b8152815160009384936001600160a01b03909116926329087bcc9260048083019392829003018186803b158015610ee157600080fd5b505afa158015610ef5573d6000803e3d6000fd5b505050506040513d601f19601f82011682018060405250810190610f199190611c23565b60335460405163083b214d60e41b81529294509092506001600160a01b0316906383b214d090610f4f9086908690600401612149565b600060405180830381600087803b158015610f6957600080fd5b505af1158015610f7d573d6000803e3d6000fd5b50505050336001600160a01b03167f119eeac2475e395d798da3c40d9f901a3131b79a826c604a60d078764e8ce408836014811115610fb857fe5b604051610fc591906121a6565b60405180910390a260335460405163aa00ad6760e01b815260009182916001600160a01b039091169063aa00ad6790611002903390600401611e09565b604080518083038186803b15801561101957600080fd5b505afa15801561102d573d6000803e3d6000fd5b505050506040513d601f19601f820116820180604052508101906110519190611d4c565b603354604051636a2a747360e01b815292945090925060009182916001600160a01b031690636a2a74739061108b90600590600401611ebd565b604080518083038186803b1580156110a257600080fd5b505afa1580156110b6573d6000803e3d6000fd5b505050506040513d601f19601f820116820180604052508101906110da9190611d4c565b915091506110ea84848484610132565b60098660148111156110f857fe5b1415611109575050505050506115f1565b600186601481111561111757fe5b148061112e5750600386601481111561112c57fe5b145b806111445750600586601481111561114257fe5b145b1561114e576115ea565b600b86601481111561115c57fe5b14806111735750600d86601481111561117157fe5b145b806111895750600f86601481111561118757fe5b145b8061119f5750601386601481111561119d57fe5b145b156111a9576115ea565b60028660148111156111b757fe5b1415611384576033546040516236179d60e11b81526000916001600160a01b031690626c2f3a906111ec908a90600401611ebd565b60206040518083038186803b15801561120457600080fd5b505afa158015611218573d6000803e3d6000fd5b505050506040513d601f19601f8201168201806040525081019061123c9190611d12565b603354604051631b97d1fb60e11b81529192506001600160a01b03169063372fa3f69061126f908b90859060040161216c565b600060405180830381600087803b15801561128957600080fd5b505af115801561129d573d6000803e3d6000fd5b5050603454603354604080516304d5aae160e01b815290516001600160a01b03938416955063a080ee1594503393909216916304d5aae1916004808201926020929091908290030181600087803b1580156112f757600080fd5b505af115801561130b573d6000803e3d6000fd5b505050506040513d601f19601f8201168201806040525081019061132f9190611d34565b6040518363ffffffff1660e01b815260040161134c929190611e7a565b600060405180830381600087803b15801561136657600080fd5b505af115801561137a573d6000803e3d6000fd5b50505050506115ea565b600e86601481111561139257fe5b14156114cd5760006113a5866002611676565b156113b15760016113b4565b60025b60ff1690506113c16119c9565b6113c96116b8565b6040805160018082528183019092529192506060919060208083019080368337505060408051600180825281830190925292935060609291506020808301908036833701905050905082602001518260008151811061142457fe5b6020908102919091010152825161143b90856115fa565b8160008151811061144857fe5b602090810291909101015260345460405163ba1edf1760e01b81526001600160a01b039091169063ba1edf179061148790339086908690600401611e1d565b600060405180830381600087803b1580156114a157600080fd5b505af11580156114b5573d6000803e3d6000fd5b505050506114c4338383610637565b505050506115ea565b60108660148111156114db57fe5b14156115ea576114e96119c9565b6114f161178a565b6040805160018082528183019092529192506060919060208083019080368337505060408051600180825281830190925292935060609291506020808301908036833701905050905082602001518260008151811061154c57fe5b60200260200101818152505082600001518160008151811061156a57fe5b602090810291909101015260345460405163ba1edf1760e01b81526001600160a01b039091169063ba1edf17906115a990339086908690600401611e1d565b600060405180830381600087803b1580156115c357600080fd5b505af11580156115d7573d6000803e3d6000fd5b505050506115e6338383610637565b5050505b5050505050505b50565b303b1590565b60008261160957506000610dfd565b8282028284828161161657fe5b0414610e955760405162461bcd60e51b815260040161025f90612012565b6000610e9583836040518060400160405280601e81526020017f536166654d6174683a207375627472616374696f6e206f766572666c6f770000815250611836565b6000610e9583836040518060400160405280601881526020017f536166654d6174683a206d6f64756c6f206279207a65726f0000000000000000815250611862565b6116c06119c9565b6116c86119e3565b73__Types_________________________________63c0e6aff16040518163ffffffff1660e01b81526004016103006040518083038186803b15801561170d57600080fd5b505af4158015611721573d6000803e3d6000fd5b505050506040513d601f19601f820116820180604052508101906117459190611ad8565b9050600061175560006018611896565b9050600082826018811061176557fe5b6020020151905060405180604001604052806001815260200182815250935050505090565b6117926119c9565b61179a611a02565b73__Types_________________________________63075587706040518163ffffffff1660e01b815260040160606040518083038186803b1580156117de57600080fd5b505af41580156117f2573d6000803e3d6000fd5b505050506040513d601f19601f820116820180604052508101906118169190611b40565b9050600061182660006003611896565b9050600082826003811061176557fe5b6000818484111561185a5760405162461bcd60e51b815260040161025f9190611ed2565b505050900390565b600081836118835760405162461bcd60e51b815260040161025f9190611ed2565b5082848161188d57fe5b06949350505050565b6000816118a16118b3565b816118a857fe5b068301905092915050565b60006118c04342026118c5565b905090565b600080600283066118fe576040516118e1908490602001611eb4565b60405160208183030381529060405280519060200120905061194e565b60405161190f908490602001611eb4565b604051602081830303815290604052805190602001206040516020016119359190611eb4565b6040516020818303038152906040528051906020012090505b6000805b60208110156119755782816020811061196757fe5b1a9190910190600101611952565b5081602060028301066020811061198857fe5b1a82602083066020811061199857fe5b1a02949350505050565b60408051608081018252600080825260208201819052918101829052606081019190915290565b604051806040016040528060008152602001600081525090565b6040518061030001604052806018906020820280368337509192915050565b60405180606001604052806003906020820280368337509192915050565b600082601f830112611a30578081fd5b813567ffffffffffffffff811115611a46578182fd5b6020808202611a568282016121d8565b83815293508184018583018287018401881015611a7257600080fd5b600092505b84831015611a95578035825260019290920191908301908301611a77565b505050505092915050565b600060208284031215611ab1578081fd5b8135610e958161220a565b600060208284031215611acd578081fd5b8151610e958161220a565b6000610300808385031215611aeb578182fd5b83601f840112611af9578182fd5b611b02816121d8565b8084868487011115611b12578485fd5b8493505b6018841015611b3657805183526001939093019260209283019201611b16565b5095945050505050565b600060608284031215611b51578081fd5b82601f830112611b5f578081fd5b611b6960606121d8565b808385606086011115611b7a578384fd5b835b6003811015611b9b578151845260209384019390910190600101611b7c565b509095945050505050565b60008060408385031215611bb8578081fd5b823567ffffffffffffffff80821115611bcf578283fd5b611bdb86838701611a20565b93506020850135915080821115611bf0578283fd5b50611bfd85828601611a20565b9150509250929050565b600060208284031215611c18578081fd5b8151610e958161221f565b60008060408385031215611c35578182fd5b8251611c408161221f565b6020939093015192949293505050565b600060808284031215611c61578081fd5b611c6b60806121d8565b8235611c768161222c565b81526020830135611c868161222c565b60208201526040830135611c998161222c565b60408201526060928301359281019290925250919050565b600060808284031215611cc2578081fd5b611ccc60806121d8565b8251611cd78161222c565b81526020830151611ce78161222c565b60208201526040830151611cfa8161222c565b60408201526060928301519281019290925250919050565b600060208284031215611d23578081fd5b815161ffff81168114610e95578182fd5b600060208284031215611d45578081fd5b5051919050565b60008060408385031215611d5e578182fd5b505080516020909101519092909150565b60008060008060808587031215611d84578182fd5b5050823594602084013594506040840135936060013592509050565b6000815180845260208085019450808401835b83811015611dcf57815187529582019590820190600101611db3565b509495945050505050565b60ff815116825260ff602082015116602083015260ff6040820151166040830152606081015160608301525050565b6001600160a01b0391909116815260200190565b6001600160a01b0384168152606060208201819052600090611e4190830185611da0565b8281036040840152611e538185611da0565b9695505050505050565b6001600160a01b038316815260a08101610e956020830184611dda565b6001600160a01b03929092168252602082015260400190565b6001600160a01b039390931683526020830191909152604082015260600190565b90815260200190565b60208101611eca836121ff565b825292915050565b6000602080835283518082850152825b81811015611efe57858101830151858201604001528201611ee2565b81811115611f0f5783604083870101525b50601f01601f1916929092016040019392505050565b60208082526038908201527f506f736974696f6e206d7573742062652077697468696e20736574206c696d6960408201527f7473206f6620746865206b6e6f776e20756e6976657273650000000000000000606082015260800190565b60208082526023908201527f54686973207368697020494420686173206e6f74206265656e206c6f636b65646040820152621034b760e91b606082015260800190565b6020808252602d908201527f54686520616d6f756e742069732067726561746572207468616e20796f75722060408201526c18dd5c9c995b9d08199b19595d609a1b606082015260800190565b60208082526021908201527f536166654d6174683a206d756c7469706c69636174696f6e206f766572666c6f6040820152607760f81b606082015260800190565b6020808252602e908201527f436f6e747261637420696e7374616e63652068617320616c726561647920626560408201526d195b881a5b9a5d1a585b1a5e995960921b606082015260800190565b60208082526032908201527f416d6f756e74207265717565737465642069732067726561746572207468616e604082015271081b1bd8dad959081a5b9d1bc8199b19595d60721b606082015260800190565b60208082526028908201527f596f752063616e6e6f74206d6f766520746f20796f75722063757272656e74206040820152673637b1b0ba34b7b760c11b606082015260800190565b60808101610dfd8284611dda565b60a081016121578285611dda565b612160836121ff565b60808301529392505050565b60a0810161217a8285611dda565b61ffff831660808301529392505050565b93845260208401929092526040830152606082015260800190565b60ff91909116815260200190565b60ff9485168152928416602084015292166040820152606081019190915260800190565b60405181810167ffffffffffffffff811182821017156121f757600080fd5b604052919050565b8060158110610e3c57fe5b6001600160a01b03811681146115f157600080fd5b601581106115f157600080fd5b60ff811681146115f157600080fdfea26469706673582212206391eb1963774b3296341a4720c684aaeb1e8ee6d13c7c9e32e7ca082dd39ba964736f6c634300060c0033",
  "immutableReferences": {},
  "source": "// SPDX-License-Identifier: MIT\n\npragma solidity 0.6.12;\npragma experimental ABIEncoderV2;\n\nimport {GameStorage} from './GameStorage.sol';\nimport {SafeMath} from '@openzeppelin/contracts/math/SafeMath.sol';\nimport {\n    Initializable\n} from '@openzeppelin/upgrades-core/contracts/Initializable.sol';\nimport {Types} from './lib/Types.sol';\nimport {Discovery} from './Discovery.sol';\n\nimport {ITreasury} from './interfaces/ITreasury.sol';\n\n/**\n * @title Operation\n * @author Big Beluga\n *\n * Primary public function for entering into the protocol\n */\ncontract GameOperations is Initializable, Discovery {\n    using SafeMath for uint256;\n\n    // ============ Constants ============\n    event LogMove(uint8 quadrant, uint8 district, uint8 sector, uint256 star);\n    event LogStarSystemDiscovery(address indexed to, uint8 systemType);\n    event Random(uint256 random);\n    event BattleStarted(\n        uint256 attackerOffense,\n        uint256 attackerDefense,\n        uint256 defenderOffense,\n        uint256 defenderDefense\n    );\n    GameStorage GS;\n    ITreasury TS;\n\n    function initialize(address _gameStorage) public initializer {\n        GS = GameStorage(_gameStorage);\n        TS = ITreasury(GS.getTreasuryAddress());\n    }\n\n    function move(Types.Position memory to) public {\n        require(\n            Types.positionWithinBoundaries(to, GS.getBoundaries()),\n            'Position must be within set limits of the known universe'\n        );\n        Types.Position memory from = GS.getMasterFleetPosition(msg.sender);\n\n        if (Types.positionNotSet(from)) {\n            from = GS.getStartPosition();\n        }\n\n        require(\n            !Types.positionIsEqual(to, from),\n            'You cannot move to your current location'\n        );\n\n        GS.setMasterFleetPosition(msg.sender, to);\n        emit LogMove(to.quadrant, to.district, to.sector, to.star);\n\n        if (GS.getStarSystemType(to) == Types.SystemType.Undiscovered) {\n            explore(to);\n        } // else if (state.getStarSystemHasFleet(to)) {\n        // Fleet.Info memory starFleet = state.getStarSystemFleet(to);\n        // Fleet.Info memory masterFleet = state.getMasterFleet(msg.sender);\n        // // if defenders are set to attack on sight, defenders go first\n        // if (starFleet.orders == Fleet.Orders.Attack) {\n        //     // battle(starFleet, masterFleet);\n        // } else if (masterFleet.orders == Fleet.Orders.Attack) {\n        //     // battle(masterFleet, starFleet);\n        // } else {\n        //     // both sides are passive\n        //     return;\n        // }\n        // }\n        // check if mover is owner of starSystem\n        // if (state.getStarSystemOwner(state, to) == msg.sender) {\n        //     Fleet.Info memory masterFleet = state.getMasterFleet(\n        //         state,\n        //         msg.sender\n        //     );\n        // }\n        // check if star has fleet\n\n        // I think we end here and we move a lot of this battle logic into seperate functions,\n        // we can allow people to stack actions e.g [Move, Attack, Move, Defend] in one transaction\n    }\n\n    function withdrawMasterFleet(\n        uint256[] memory _ships,\n        uint256[] memory _amounts\n    ) public {\n        removeMasterFleet(msg.sender, _ships, _amounts);\n        TS.sendSats(msg.sender, _ships, _amounts);\n    }\n\n    function lockInMasterFleet(\n        uint256[] memory _ships,\n        uint256[] memory _amounts\n    ) public {\n        updateMasterFleet(msg.sender, _ships, _amounts);\n        TS.recieveSats(msg.sender, _ships, _amounts);\n    }\n\n    function attack(\n        uint256 a_offense,\n        uint256 a_defense,\n        uint256 d_offense,\n        uint256 d_defense\n    ) public {\n        // Get the armies\n        emit BattleStarted(a_offense, a_defense, d_offense, d_defense);\n        // TODO: convert string array to bytes32 array\n\n        // if (result) {\n        //     uint256 reward = Storage.getBalance(state, defender).div(100).mul(\n        //         80\n        //     );\n        //     Storage.addBalance(state, attacker, reward);\n        //     Storage.subBalance(state, defender, reward);\n        // } else {\n        //     uint256 reward = Storage.getBalance(state, attacker).div(100).mul(\n        //         40\n        //     );\n        //     Storage.addBalance(state, defender, reward);\n        //     Storage.subBalance(state, attacker, reward);\n        // }\n        // Events.logBattle(attacker, defender, result, string(log));\n    }\n\n    // function attackSolarSystem(\n    //     Storage.State storage state,\n    //     address attacker,\n    //     uint256 solarSystem\n    // ) public {}\n\n    // function assignShipsToSolarSystem(\n    //     Storage.State storage state,\n    //     address attacker,\n    //     uint256 solarSystem\n    // ) public {}\n\n    function explore(Types.Position memory star) private {\n        (Types.SystemType systemType, uint256 rand) = GS.getRandomSystemType();\n        GS.setStarSystemType(star, systemType);\n        emit LogStarSystemDiscovery(msg.sender, uint8(systemType));\n\n        // AncientFleetAggressive,\n        // SuperComputerEvent,\n        // AdvancedAlienFleetAggressive,\n        // AiFleetAggressive,\n        // AlienFleetAggressive,\n        // PiratesEvent,\n        // SolarWinds,\n        // Asteroids,\n        // Empty,\n        // GovermentOwned,\n        // LowYieldSystem,\n        // RandomEvent,\n        // MediumYieldSystem,\n        // ShipWreck,\n        // HighYieldSystem,\n        // AncientMiningSystem,\n        // AncientWeaponSystem,\n        // AncientShipWreck,\n        // InsaneYieldSystem,\n        // AncientRacePassive\n        (uint256 a_offense, uint256 a_defense) = GS.getMasterFleetInfo(\n            msg.sender\n        );\n        (uint256 d_offense, uint256 d_defense) = GS.getAiFleetInfo(\n            Types.SystemType.AlienFleetAggressive\n        );\n\n        attack(a_offense, a_defense, d_offense, d_defense);\n        if (systemType == Types.SystemType.Empty) {\n            // There is nothing here.\n            return;\n        } else if (\n            systemType == Types.SystemType.AncientFleetAggressive ||\n            systemType == Types.SystemType.AdvancedAlienFleetAggressive ||\n            systemType == Types.SystemType.AlienFleetAggressive\n        ) {\n            // generate fleet and technology with ancient being the strongest andsoftfisting alien being the weakest\n        } else if (\n            systemType == Types.SystemType.LowYieldSystem ||\n            systemType == Types.SystemType.MediumYieldSystem ||\n            systemType == Types.SystemType.HighYieldSystem ||\n            systemType == Types.SystemType.InsaneYieldSystem\n        ) {} else if (systemType == Types.SystemType.SuperComputerEvent) {\n            uint16 yield = GS.getRandomYield(systemType);\n            GS.setStarSystemYield(star, yield);\n            TS.mintFhr(msg.sender, GS.incrementTotalFhr());\n        } else if (systemType == Types.SystemType.ShipWreck) {\n            uint256 multiplier = rand.mod(2) == 0 ? 2 : 1;\n            Types.SatInfo memory ship = Discovery.singleAllNonAncientShips();\n            uint256[] memory ships = new uint256[](1);\n            uint256[] memory amounts = new uint256[](1);\n            ships[0] = ship.id;\n            amounts[0] = ship.amount.mul(multiplier);\n            TS.sendSats(msg.sender, ships, amounts);\n            updateMasterFleet(msg.sender, ships, amounts);\n        } else if (systemType == Types.SystemType.AncientMiningSystem) {\n            Types.SatInfo memory ship = Discovery.singleAncientMiningShip();\n            uint256[] memory ships = new uint256[](1);\n            uint256[] memory amounts = new uint256[](1);\n            ships[0] = ship.id;\n            amounts[0] = ship.amount;\n            TS.sendSats(msg.sender, ships, amounts);\n            updateMasterFleet(msg.sender, ships, amounts);\n        }\n    }\n\n    function updateMasterFleet(\n        address _master,\n        uint256[] memory _ids,\n        uint256[] memory _amounts\n    ) internal {\n        uint256 offense;\n        uint256 defense;\n        for (uint256 i = 0; i < _ids.length; i++) {\n            (uint256 o, uint256 d) = GS.getSatInfo(_ids[i]);\n            GS.setMasterLockedInShipInfo(_master, _ids[i], _amounts[i]);\n            offense += o.mul(_amounts[i]);\n            defense += d.mul(_amounts[i]);\n        }\n        GS.setMasterFleetOffense(_master, offense);\n        GS.setMasterFleetDefense(_master, defense);\n    }\n\n    function removeMasterFleet(\n        address _master,\n        uint256[] memory _ids,\n        uint256[] memory _amounts\n    ) internal {\n        uint256 offense;\n        uint256 defense;\n        for (uint256 i = 0; i < _ids.length; i++) {\n            (uint256 o, uint256 d) = GS.getSatInfo(_ids[i]);\n            uint256 lockedIn = GS.getMasterLockedInShipInfo(_master, _ids[i]);\n            require(lockedIn != 0, 'This ship ID has not been locked in');\n            require(\n                lockedIn >= _amounts[i],\n                'Amount requested is greater than locked into fleet'\n            );\n            GS.setMasterLockedInShipInfo(\n                _master,\n                _ids[i],\n                lockedIn.sub(_amounts[i])\n            );\n            offense += o.mul(_amounts[i]);\n            defense += d.mul(_amounts[i]);\n        }\n\n        uint256 currentOffense = GS.getMasterFleetOffense(_master);\n        uint256 currentDefense = GS.getMasterFleetDefense(_master);\n        require(\n            currentOffense >= offense && currentDefense >= defense,\n            'The amount is greater than your current fleet'\n        );\n        GS.setMasterFleetOffense(_master, currentOffense.sub(offense));\n        GS.setMasterFleetDefense(_master, currentDefense.sub(defense));\n    }\n}\n",
  "sourcePath": "C:/Users/James/projects/tsuno-fe/contracts/GameOperations.sol",
  "compiler": {
    "name": "solc",
    "version": "0.6.12+commit.27d51765.Emscripten.clang"
  },
  "schemaVersion": "3.2.5",
  "updatedAt": "2020-10-09T10:38:50.233Z",
  "networkType": "ethereum",
  "devdoc": {
    "author": "Big Beluga Primary public function for entering into the protocol",
    "kind": "dev",
    "methods": {},
    "title": "Operation",
    "version": 1
  },
  "userdoc": {
    "kind": "user",
    "methods": {},
    "version": 1
  }
}