{
  "contractName": "GameOperations",
  "abi": [
    {
      "anonymous": false,
      "inputs": [
        {
          "indexed": false,
          "internalType": "address",
          "name": "attacker",
          "type": "address"
        },
        {
          "indexed": false,
          "internalType": "uint256",
          "name": "attackerOffense",
          "type": "uint256"
        },
        {
          "indexed": false,
          "internalType": "uint256",
          "name": "attackerDefense",
          "type": "uint256"
        },
        {
          "indexed": false,
          "internalType": "address",
          "name": "defender",
          "type": "address"
        },
        {
          "indexed": false,
          "internalType": "uint256",
          "name": "defenderOffense",
          "type": "uint256"
        },
        {
          "indexed": false,
          "internalType": "uint256",
          "name": "defenderDefense",
          "type": "uint256"
        }
      ],
      "name": "BattleStarted",
      "type": "event"
    },
    {
      "anonymous": false,
      "inputs": [
        {
          "indexed": false,
          "internalType": "bool",
          "name": "result",
          "type": "bool"
        },
        {
          "indexed": false,
          "internalType": "uint256",
          "name": "attackersHealth",
          "type": "uint256"
        },
        {
          "indexed": false,
          "internalType": "uint256",
          "name": "defendersHealth",
          "type": "uint256"
        }
      ],
      "name": "LogBattle",
      "type": "event"
    },
    {
      "anonymous": false,
      "inputs": [
        {
          "indexed": false,
          "internalType": "uint8",
          "name": "quadrant",
          "type": "uint8"
        },
        {
          "indexed": false,
          "internalType": "uint8",
          "name": "district",
          "type": "uint8"
        },
        {
          "indexed": false,
          "internalType": "uint8",
          "name": "sector",
          "type": "uint8"
        },
        {
          "indexed": false,
          "internalType": "uint256",
          "name": "star",
          "type": "uint256"
        }
      ],
      "name": "LogMove",
      "type": "event"
    },
    {
      "anonymous": false,
      "inputs": [
        {
          "indexed": false,
          "internalType": "uint256",
          "name": "aDamage",
          "type": "uint256"
        },
        {
          "indexed": false,
          "internalType": "uint256",
          "name": "dDamage",
          "type": "uint256"
        },
        {
          "indexed": false,
          "internalType": "uint256",
          "name": "aHealth",
          "type": "uint256"
        },
        {
          "indexed": false,
          "internalType": "uint256",
          "name": "dHealth",
          "type": "uint256"
        }
      ],
      "name": "LogRound",
      "type": "event"
    },
    {
      "anonymous": false,
      "inputs": [
        {
          "indexed": true,
          "internalType": "address",
          "name": "to",
          "type": "address"
        },
        {
          "indexed": false,
          "internalType": "uint8",
          "name": "systemType",
          "type": "uint8"
        }
      ],
      "name": "LogStarSystemDiscovery",
      "type": "event"
    },
    {
      "anonymous": false,
      "inputs": [
        {
          "indexed": false,
          "internalType": "uint256",
          "name": "random",
          "type": "uint256"
        }
      ],
      "name": "Random",
      "type": "event"
    },
    {
      "inputs": [
        {
          "internalType": "enum Types.SystemType",
          "name": "systemType",
          "type": "uint8"
        }
      ],
      "name": "getRandomYield",
      "outputs": [
        {
          "internalType": "uint16",
          "name": "rand",
          "type": "uint16"
        }
      ],
      "stateMutability": "view",
      "type": "function"
    },
    {
      "inputs": [
        {
          "internalType": "uint256",
          "name": "_seed",
          "type": "uint256"
        }
      ],
      "name": "setSeed",
      "outputs": [],
      "stateMutability": "nonpayable",
      "type": "function"
    },
    {
      "inputs": [
        {
          "internalType": "address",
          "name": "_gameStorage",
          "type": "address"
        }
      ],
      "name": "initialize",
      "outputs": [],
      "stateMutability": "nonpayable",
      "type": "function"
    },
    {
      "inputs": [
        {
          "internalType": "uint256[]",
          "name": "_ships",
          "type": "uint256[]"
        },
        {
          "internalType": "uint256[]",
          "name": "_amounts",
          "type": "uint256[]"
        }
      ],
      "name": "withdrawMasterFleet",
      "outputs": [],
      "stateMutability": "nonpayable",
      "type": "function"
    },
    {
      "inputs": [
        {
          "internalType": "uint256[]",
          "name": "_ships",
          "type": "uint256[]"
        },
        {
          "internalType": "uint256[]",
          "name": "_amounts",
          "type": "uint256[]"
        }
      ],
      "name": "lockInMasterFleet",
      "outputs": [],
      "stateMutability": "nonpayable",
      "type": "function"
    },
    {
      "inputs": [
        {
          "components": [
            {
              "internalType": "uint8",
              "name": "quadrant",
              "type": "uint8"
            },
            {
              "internalType": "uint8",
              "name": "sector",
              "type": "uint8"
            },
            {
              "internalType": "uint8",
              "name": "district",
              "type": "uint8"
            },
            {
              "internalType": "uint256",
              "name": "star",
              "type": "uint256"
            }
          ],
          "internalType": "struct Types.Position",
          "name": "to",
          "type": "tuple"
        }
      ],
      "name": "move",
      "outputs": [],
      "stateMutability": "nonpayable",
      "type": "function"
    },
    {
      "inputs": [
        {
          "internalType": "address",
          "name": "defender",
          "type": "address"
        },
        {
          "internalType": "uint8",
          "name": "turns",
          "type": "uint8"
        }
      ],
      "name": "attack",
      "outputs": [],
      "stateMutability": "nonpayable",
      "type": "function"
    }
  ],
  "bytecode": "0x6080604052600160345534801561001557600080fd5b50613255806100256000396000f3fe608060405234801561001057600080fd5b506004361061007c5760003560e01c80636ebb6d801161005b5780636ebb6d80146100d25780638e905cfd146100e5578063c32a50f9146100f8578063c4d66de81461010b5761007c565b80626c2f3a1461008157806308573840146100aa57806348a2ac7f146100bf575b600080fd5b61009461008f366004612ae8565b61011e565b6040516100a19190613112565b60405180910390f35b6100bd6100b8366004612a30565b610124565b005b6100bd6100cd366004612a30565b61018e565b6100bd6100e03660046128ef565b6101c2565b6100bd6100f3366004612b20565b610b1a565b6100bd610106366004612be2565b610e5d565b6100bd6101193660046128b7565b610e62565b50600090565b603a5460405163feba2dd560e01b81526001600160a01b039091169063feba2dd59061015890339086908690600401612d2a565b600060405180830381600087803b15801561017257600080fd5b505af1158015610186573d6000803e3d6000fd5b505050505050565b603a5460405163ba1edf1760e01b81526001600160a01b039091169063ba1edf179061015890339086908690600401612d2a565b6001600160a01b0382163314156101f45760405162461bcd60e51b81526004016101eb90613003565b60405180910390fd5b6001600160a01b0382161580159061020b57503315155b6102275760405162461bcd60e51b81526004016101eb90612f3d565b61022f612707565b603954604051633495a7e360e11b81526001600160a01b039091169063692b4fc69061025f903390600401612d16565b60806040518083038186803b15801561027757600080fd5b505afa15801561028b573d6000803e3d6000fd5b505050506040513d601f19601f820116820180604052508101906102af9190612b81565b8152603954604051633495a7e360e11b81526001600160a01b039091169063692b4fc6906102e1908690600401612d16565b60806040518083038186803b1580156102f957600080fd5b505afa15801561030d573d6000803e3d6000fd5b505050506040513d601f19601f820116820180604052508101906103319190612b81565b60a082018190528151610343916111dd565b61035f5760405162461bcd60e51b81526004016101eb9061303a565b6103683361123a565b60808501526060840152604083015260208201526103858361123a565b61012085015261010084015260e0830181905260c08301829052602083015160408085015190517f39c31677b1650d5b983fb38bf1ee25e9ca25658b8bdfb9263e59651183b48368946103df94339493928a929190612da0565b60405180910390a16000610408826020015183604001518460c001518560e0015160018861155b565b905080156108a05760005b82606001515181101561049f5760008360600151828151811061043257fe5b60200260200101511161044657600061047c565b61047c606461047660148660600151858151811061046057fe5b602002602001015161170d90919063ffffffff16565b90611747565b8360600151828151811061048c57fe5b6020908102919091010152600101610413565b50603a546080830151606084015160405163feba2dd560e01b81526001600160a01b039093169263feba2dd5926104da923392600401612d2a565b600060405180830381600087803b1580156104f457600080fd5b505af1158015610508573d6000803e3d6000fd5b505050508161010001515167ffffffffffffffff8111801561052957600080fd5b50604051908082528060200260200182016040528015610553578160200160208202803683370190505b5061014083015260005b8261010001515181101561064657600061058860646104766046876101000151868151811061046057fe5b90506000846101000151838151811061059d57fe5b6020026020010151116105b15760006105b3565b805b84610100015183815181106105c457fe5b6020026020010181815250508084610100015183815181106105e257fe5b6020026020010151116105f6576000610621565b61062181856101000151848151811061060b57fe5b602002602001015161178990919063ffffffff16565b846101400151838151811061063257fe5b60209081029190910101525060010161055d565b50603954604051634ec7272b60e11b81526000916001600160a01b031690639d8e4e5690610678908890600401612d16565b60206040518083038186803b15801561069057600080fd5b505afa1580156106a4573d6000803e3d6000fd5b505050506040513d601f19601f820116820180604052508101906106c89190612bfa565b9050801561082c576035546040516331a9108f60e11b81526000916001600160a01b031690636352211e90610701908590600401613121565b60206040518083038186803b15801561071957600080fd5b505afa15801561072d573d6000803e3d6000fd5b505050506040513d601f19601f8201168201806040525081019061075191906128d3565b603a5461012086015161014087015160405163ba1edf1760e01b81529394506001600160a01b039092169263ba1edf1792610793928692909190600401612d2a565b600060405180830381600087803b1580156107ad57600080fd5b505af11580156107c1573d6000803e3d6000fd5b5050603a54604051624f9d7360e21b81526001600160a01b03909116925063013e75cc91506107f890849033908790600401612dda565b600060405180830381600087803b15801561081257600080fd5b505af1158015610826573d6000803e3d6000fd5b50505050505b603a5461012084015161010085015160405163feba2dd560e01b81526001600160a01b039093169263feba2dd592610868928a92600401612d2a565b600060405180830381600087803b15801561088257600080fd5b505af1158015610896573d6000803e3d6000fd5b5050505050610b14565b60005b826060015151811015610913576000836060015182815181106108c257fe5b6020026020010151116108d65760006108f0565b6108f06064610476605a8660600151858151811061046057fe5b8360600151828151811061090057fe5b60209081029190910101526001016108a3565b50603a546080830151606084015160405163feba2dd560e01b81526001600160a01b039093169263feba2dd59261094e923392600401612d2a565b600060405180830381600087803b15801561096857600080fd5b505af115801561097c573d6000803e3d6000fd5b505050508161010001515167ffffffffffffffff8111801561099d57600080fd5b506040519080825280602002602001820160405280156109c7578160200160208202803683370190505b5061014083015260005b82610100015151811015610aa45760006109fc6064610476600a876101000151868151811061046057fe5b905060008461010001518381518110610a1157fe5b602002602001015111610a25576000610a27565b805b8461010001518381518110610a3857fe5b602002602001018181525050808461010001518381518110610a5657fe5b602002602001015111610a6a576000610a7f565b610a7f81856101000151848151811061060b57fe5b8461014001518381518110610a9057fe5b6020908102919091010152506001016109d1565b50603a5461012083015161010084015160405163feba2dd560e01b81526001600160a01b039093169263feba2dd592610ae1928992600401612d2a565b600060405180830381600087803b158015610afb57600080fd5b505af1158015610b0f573d6000803e3d6000fd5b505050505b50505050565b610ba981603960009054906101000a90046001600160a01b03166001600160a01b031663cf677f576040518163ffffffff1660e01b815260040160806040518083038186803b158015610b6c57600080fd5b505afa158015610b80573d6000803e3d6000fd5b505050506040513d601f19601f82011682018060405250810190610ba49190612b81565b6117cb565b610bc55760405162461bcd60e51b81526004016101eb90612ee0565b610bcd61276d565b603954604051633495a7e360e11b81526001600160a01b039091169063692b4fc690610bfd903390600401612d16565b60806040518083038186803b158015610c1557600080fd5b505afa158015610c29573d6000803e3d6000fd5b505050506040513d601f19601f82011682018060405250810190610c4d9190612b81565b9050610c588161187e565b15610ce657603960009054906101000a90046001600160a01b03166001600160a01b0316636d18c9706040518163ffffffff1660e01b815260040160806040518083038186803b158015610cab57600080fd5b505afa158015610cbf573d6000803e3d6000fd5b505050506040513d601f19601f82011682018060405250810190610ce39190612b81565b90505b610cf082826111dd565b15610d0d5760405162461bcd60e51b81526004016101eb90613097565b60395460405163bedc6d2760e01b81526001600160a01b039091169063bedc6d2790610d3f9033908690600401612d6a565b600060405180830381600087803b158015610d5957600080fd5b505af1158015610d6d573d6000803e3d6000fd5b505050507f067ed149b8be43d30a47ed69bc882367f66239804079b28dd002d36fc3f46ed48260000151836040015184602001518560600151604051610db69493929190613183565b60405180910390a16039546040516348bed1c960e11b81526000916001600160a01b03169063917da39290610def9086906004016130df565b60206040518083038186803b158015610e0757600080fd5b505afa158015610e1b573d6000803e3d6000fd5b505050506040513d601f19601f82011682018060405250810190610e3f9190612b04565b6014811115610e4a57fe5b1415610e5957610e59826118b6565b5050565b603355565b600054610100900460ff1680610e7b5750610e7b61211c565b80610e89575060005460ff16155b610ea55760405162461bcd60e51b81526004016101eb90612fb5565b600054610100900460ff16158015610ed0576000805460ff1961ff0019909116610100171660011790555b603980546001600160a01b0319166001600160a01b03848116919091179182905560408051633800918160e21b81529051929091169163e002460491600480820192602092909190829003018186803b158015610f2c57600080fd5b505afa158015610f40573d6000803e3d6000fd5b505050506040513d601f19601f82011682018060405250810190610f6491906128d3565b603a80546001600160a01b0319166001600160a01b0392831617905560395460408051637718403560e01b8152905191909216916377184035916004808301926020929190829003018186803b158015610fbd57600080fd5b505afa158015610fd1573d6000803e3d6000fd5b505050506040513d601f19601f82011682018060405250810190610ff591906128d3565b603580546001600160a01b0319166001600160a01b039283161790556039546040805163123cfce160e01b81529051919092169163123cfce1916004808301926020929190829003018186803b15801561104e57600080fd5b505afa158015611062573d6000803e3d6000fd5b505050506040513d601f19601f8201168201806040525081019061108691906128d3565b603680546001600160a01b0319166001600160a01b0392831617905560395460408051635beec2bb60e01b815290519190921691635beec2bb916004808301926020929190829003018186803b1580156110df57600080fd5b505afa1580156110f3573d6000803e3d6000fd5b505050506040513d601f19601f8201168201806040525081019061111791906128d3565b603780546001600160a01b0319166001600160a01b0392831617905560395460408051633dd742c960e01b815290519190921691633dd742c9916004808301926020929190829003018186803b15801561117057600080fd5b505afa158015611184573d6000803e3d6000fd5b505050506040513d601f19601f820116820180604052508101906111a891906128d3565b603880546001600160a01b0319166001600160a01b03929092169190911790558015610e59576000805461ff00191690555050565b8051825160009160ff91821691161480156112055750816040015160ff16836040015160ff16145b801561121e5750816020015160ff16836020015160ff16145b8015611231575081606001518360600151145b90505b92915050565b600080606080603960009054906101000a90046001600160a01b03166001600160a01b031663e2cd08626040518163ffffffff1660e01b815260040160206040518083038186803b15801561128e57600080fd5b505afa1580156112a2573d6000803e3d6000fd5b505050506040513d601f19601f820116820180604052508101906112c69190612bfa565b67ffffffffffffffff811180156112dc57600080fd5b50604051908082528060200260200182016040528015611306578160200160208202803683370190505b5090506060815167ffffffffffffffff8111801561132357600080fd5b5060405190808252806020026020018201604052801561134d578160200160208202803683370190505b50905060005b82518110156113a2578083828151811061136957fe5b6020026020010181815250508682828151811061138257fe5b6001600160a01b0390921660209283029190910190910152600101611353565b506037546040516313849cfd60e21b81526001600160a01b0390911690634e1273f4906113d59084908690600401612e38565b60006040518083038186803b1580156113ed57600080fd5b505afa158015611401573d6000803e3d6000fd5b505050506040513d6000823e601f3d908101601f1916820160405261142991908101906129f5565b603954604051637008ec1b60e11b815291945060609182916001600160a01b03169063e011d8369061145f908790600401612e8e565b60006040518083038186803b15801561147757600080fd5b505afa15801561148b573d6000803e3d6000fd5b505050506040513d6000823e601f3d908101601f191682016040526114b39190810190612a91565b9150915060005b8551811015611550576000808483815181106114d257fe5b60200260200101518484815181106114e657fe5b60200260200101519150915061151888848151811061150157fe5b60200260200101518361170d90919063ffffffff16565b8a01995061154288848151811061152b57fe5b60200260200101518261170d90919063ffffffff16565b9098019750506001016114ba565b505050509193509193565b6000600a8161156a8983611747565b61157557600161157f565b61157f8983611747565b9050600061158d8884611747565b6115985760016115a2565b6115a28884611747565b9050818102600080805b8860ff168160ff1610156116bc578915611650576115cb600186612122565b92506115d8600187612122565b91507f3ab8d16fa0445f4581f0e35996348d2507338000fb353856d56f5db15618e39482848f8e60405161160f949392919061315a565b60405180910390a1828d1161162557600061162f565b61162f8d84611789565b9c50818b1161163f576000611649565b6116498b83611789565b9a5061169f565b61165b600186612122565b9250611668600187612122565b9150818b11611678576000611682565b6116828b83611789565b9a50828d1161169257600061169c565b61169c8d84611789565b9c505b8c15806116aa57508a155b156116b4576116bc565b6001016115ac565b50898c1196507fa09af1f69f0376e675eb9a774ff51b588670dda43c3dd6805069596312e3bca5878d8c6040516116f593929190612ea1565b60405180910390a15050505050509695505050505050565b60008261171c57506000611234565b8282028284828161172957fe5b04146112315760405162461bcd60e51b81526004016101eb90612f74565b600061123183836040518060400160405280601a81526020017f536166654d6174683a206469766973696f6e206279207a65726f000000000000815250612184565b600061123183836040518060400160405280601e81526020017f536166654d6174683a207375627472616374696f6e206f766572666c6f7700008152506121bd565b815160009060ff1615806117e757508151835160ff9182169116115b156117f457506000611234565b604083015160ff1615806118155750816040015160ff16836040015160ff16115b1561182257506000611234565b602083015160ff1615806118435750816020015160ff16836020015160ff16115b1561185057506000611234565b60608301511580611868575081606001518360600151115b1561187557506000611234565b50600192915050565b805160009060ff1615806118975750604082015160ff16155b806118a75750602082015160ff16155b80611234575050606001511590565b6000806118c16121e9565b60395460405163083b214d60e41b81529294509092506001600160a01b0316906383b214d0906118f790869086906004016130ed565b600060405180830381600087803b15801561191157600080fd5b505af1158015611925573d6000803e3d6000fd5b50505050336001600160a01b03167f119eeac2475e395d798da3c40d9f901a3131b79a826c604a60d078764e8ce40883601481111561196057fe5b60405161196d9190613175565b60405180910390a2600982601481111561198357fe5b1415611990575050612119565b600182601481111561199e57fe5b14806119b5575060038260148111156119b357fe5b145b806119cb575060058260148111156119c957fe5b145b15611ad257603954604051636a2a747360e01b815260009182916001600160a01b0390911690636a2a747390611a05908790600401612eb9565b6040805180830381600087803b158015611a1e57600080fd5b505af1158015611a32573d6000803e3d6000fd5b505050506040513d601f19601f82011682018060405250810190611a569190612c12565b91509150600080606080611a693361123a565b93509350935093507f39c31677b1650d5b983fb38bf1ee25e9ca25658b8bdfb9263e59651183b48368338787308888604051611aaa96959493929190612da0565b60405180910390a16000611ac4878787876001600a61155b565b905050505050505050612116565b600b826014811115611ae057fe5b1480611af75750600d826014811115611af557fe5b145b80611b0d5750600f826014811115611b0b57fe5b145b80611b2357506013826014811115611b2157fe5b145b15611ec657603954604051634f4815d760e01b815260009182916001600160a01b0390911690634f4815d790611b5d908790600401612eb9565b6040805180830381600087803b158015611b7657600080fd5b505af1158015611b8a573d6000803e3d6000fd5b505050506040513d601f19601f82011682018060405250810190611bae9190612c12565b915091506000611bbe8383612122565b90506000603960009054906101000a90046001600160a01b03166001600160a01b03166304d5aae16040518163ffffffff1660e01b8152600401602060405180830381600087803b158015611c1257600080fd5b505af1158015611c26573d6000803e3d6000fd5b505050506040513d601f19601f82011682018060405250810190611c4a9190612bfa565b603a5460405163a080ee1560e01b81529192506001600160a01b03169063a080ee1590611c7d9033908590600401612d87565b600060405180830381600087803b158015611c9757600080fd5b505af1158015611cab573d6000803e3d6000fd5b5050603854603654603554603754604051600096506001600160a01b0394851695506320515251948894611cf39488949183169390831692909116908b908790602401612dfe565b60408051601f198184030181529181526020820180516001600160e01b031663d7c41c7960e01b1790525160e084901b6001600160e01b0319168152611d3d929190600401613141565b602060405180830381600087803b158015611d5757600080fd5b505af1158015611d6b573d6000803e3d6000fd5b505050506040513d601f19601f82011682018060405250810190611d8f91906128d3565b60395460405163bedc6d2760e01b81529192506001600160a01b03169063bedc6d2790611dc29084908c90600401612d6a565b600060405180830381600087803b158015611ddc57600080fd5b505af1158015611df0573d6000803e3d6000fd5b505060395460405163f52084e960e01b81526001600160a01b03909116925063f52084e99150611e26908590859060040161312a565b600060405180830381600087803b158015611e4057600080fd5b505af1158015611e54573d6000803e3d6000fd5b50506039546040516375997ce960e01b81526001600160a01b0390911692506375997ce99150611e8a908590859060040161312a565b600060405180830381600087803b158015611ea457600080fd5b505af1158015611eb8573d6000803e3d6000fd5b505050505050505050612116565b600e826014811115611ed457fe5b1415612004576000611ee7826002612513565b15611ef3576001611ef6565b60025b60ff169050611f03612794565b611f0b612555565b60408051600180825281830190925291925060609190602080830190803683375050604080516001808252818301909252929350606092915060208083019080368337019050509050826020015182600081518110611f6657fe5b60209081029190910101528251611f7d908561170d565b81600081518110611f8a57fe5b6020908102919091010152603a5460405163ba1edf1760e01b81526001600160a01b039091169063ba1edf1790611fc990339086908690600401612d2a565b600060405180830381600087803b158015611fe357600080fd5b505af1158015611ff7573d6000803e3d6000fd5b5050505050505050612116565b601082601481111561201257fe5b141561211657612020612794565b612028612627565b6040805160018082528183019092529192506060919060208083019080368337505060408051600180825281830190925292935060609291506020808301908036833701905050905082602001518260008151811061208357fe5b6020026020010181815250508260000151816000815181106120a157fe5b6020908102919091010152603a5460405163ba1edf1760e01b81526001600160a01b039091169063ba1edf17906120e090339086908690600401612d2a565b600060405180830381600087803b1580156120fa57600080fd5b505af115801561210e573d6000803e3d6000fd5b505050505050505b50505b50565b303b1590565b60008142336033546034546040516020016121409493929190612ce9565b6040516020818303038152906040528051906020012060001c8161216057fe5b0690508281106121705780612174565b8281015b6034805460010190559392505050565b600081836121a55760405162461bcd60e51b81526004016101eb9190612ecd565b5060008385816121b157fe5b049150505b9392505050565b600081848411156121e15760405162461bcd60e51b81526004016101eb9190612ecd565b505050900390565b60008061271060646121fc600183612122565b925082600161ffff82161415612215576001945061250c565b8061ffff16602a141561222b576002945061250c565b816005028161ffff1611612242576003945061250c565b816005028161ffff1611801561225f575081600a028161ffff1611155b1561226d576004945061250c565b81600a028161ffff1611801561228a5750816014028161ffff1611155b15612298576005945061250c565b816014028161ffff161180156122b5575081601e028161ffff1611155b156122c3576006945061250c565b81601e028161ffff161180156122e05750816023028161ffff1611155b156122ee576007945061250c565b816023028161ffff1611801561230b5750816028028161ffff1611155b15612319576008945061250c565b816028028161ffff16118015612336575081602f028161ffff1611155b15612344576009945061250c565b81602f028161ffff16118015612361575081603c028161ffff1611155b1561236f57600a945061250c565b81603c028161ffff1611801561238c5750816041028161ffff1611155b1561239a57600b945061250c565b816041028161ffff161180156123b75750816046028161ffff1611155b156123c557600c945061250c565b816046028161ffff161180156123e2575081604b168161ffff1611155b156123f057600d945061250c565b816046028161ffff1611801561240d5750816050168161ffff1611155b1561241b57600e945061250c565b816050028161ffff161180156124385750816055168161ffff1611155b1561244657600f945061250c565b816055028161ffff16118015612463575081605a168161ffff1611155b15612471576010945061250c565b81605a028161ffff1611801561248e575081605f168161ffff1611155b1561249c576011945061250c565b81605f028161ffff161180156124b95750816063168161ffff1611155b156124c7576012945061250c565b816063028161ffff161180156124e45750600183038161ffff1611155b156124f2576013945061250c565b828161ffff161415612507576014945061250c565b600994505b5050509091565b600061123183836040518060400160405280601881526020017f536166654d6174683a206d6f64756c6f206279207a65726f00000000000000008152506126d3565b61255d612794565b6125656127ae565b73__Types_________________________________63c0e6aff16040518163ffffffff1660e01b81526004016103006040518083038186803b1580156125aa57600080fd5b505af41580156125be573d6000803e3d6000fd5b505050506040513d601f19601f820116820180604052508101906125e29190612927565b905060006125f260006018612122565b9050600082826018811061260257fe5b6020020151905060405180604001604052806001815260200182815250935050505090565b61262f612794565b6126376127cd565b73__Types_________________________________63075587706040518163ffffffff1660e01b815260040160606040518083038186803b15801561267b57600080fd5b505af415801561268f573d6000803e3d6000fd5b505050506040513d601f19601f820116820180604052508101906126b3919061298f565b905060006126c360006003612122565b9050600082826003811061260257fe5b600081836126f45760405162461bcd60e51b81526004016101eb9190612ecd565b508284816126fe57fe5b06949350505050565b60405180610160016040528061271b61276d565b81526020016000815260200160008152602001606081526020016060815260200161274461276d565b815260200160008152602001600081526020016060815260200160608152602001606081525090565b60408051608081018252600080825260208201819052918101829052606081019190915290565b604051806040016040528060008152602001600081525090565b6040518061030001604052806018906020820280368337509192915050565b60405180606001604052806003906020820280368337509192915050565b600082601f8301126127fb578081fd5b813561280e612809826131ce565b6131a7565b81815291506020808301908481018184028601820187101561282f57600080fd5b60005b8481101561284e57813584529282019290820190600101612832565b505050505092915050565b600082601f830112612869578081fd5b8151612877612809826131ce565b81815291506020808301908481018184028601820187101561289857600080fd5b60005b8481101561284e5781518452928201929082019060010161289b565b6000602082840312156128c8578081fd5b8135611231816131ee565b6000602082840312156128e4578081fd5b8151611231816131ee565b60008060408385031215612901578081fd5b823561290c816131ee565b9150602083013561291c81613210565b809150509250929050565b600061030080838503121561293a578182fd5b83601f840112612948578182fd5b612951816131a7565b8084868487011115612961578485fd5b8493505b601884101561298557805183526001939093019260209283019201612965565b5095945050505050565b6000606082840312156129a0578081fd5b82601f8301126129ae578081fd5b6129b860606131a7565b8083856060860111156129c9578384fd5b835b60038110156129ea5781518452602093840193909101906001016129cb565b509095945050505050565b600060208284031215612a06578081fd5b815167ffffffffffffffff811115612a1c578182fd5b612a2884828501612859565b949350505050565b60008060408385031215612a42578182fd5b823567ffffffffffffffff80821115612a59578384fd5b612a65868387016127eb565b93506020850135915080821115612a7a578283fd5b50612a87858286016127eb565b9150509250929050565b60008060408385031215612aa3578182fd5b825167ffffffffffffffff80821115612aba578384fd5b612ac686838701612859565b93506020850151915080821115612adb578283fd5b50612a8785828601612859565b600060208284031215612af9578081fd5b813561123181613203565b600060208284031215612b15578081fd5b815161123181613203565b600060808284031215612b31578081fd5b612b3b60806131a7565b8235612b4681613210565b81526020830135612b5681613210565b60208201526040830135612b6981613210565b60408201526060928301359281019290925250919050565b600060808284031215612b92578081fd5b612b9c60806131a7565b8251612ba781613210565b81526020830151612bb781613210565b60208201526040830151612bca81613210565b60408201526060928301519281019290925250919050565b600060208284031215612bf3578081fd5b5035919050565b600060208284031215612c0b578081fd5b5051919050565b60008060408385031215612c24578182fd5b505080516020909101519092909150565b6000815180845260208085019450808401835b83811015612c6457815187529582019590820190600101612c48565b509495945050505050565b60008151808452815b81811015612c9457602081850181015186830182015201612c78565b81811115612ca55782602083870101525b50601f01601f19169290920160200192915050565b60ff815116825260ff602082015116602083015260ff6040820151166040830152606081015160608301525050565b93845260609290921b6bffffffffffffffffffffffff191660208401526034830152605482015260740190565b6001600160a01b0391909116815260200190565b6001600160a01b0384168152606060208201819052600090612d4e90830185612c35565b8281036040840152612d608185612c35565b9695505050505050565b6001600160a01b038316815260a081016121b66020830184612cba565b6001600160a01b03929092168252602082015260400190565b6001600160a01b0396871681526020810195909552604085019390935293166060830152608082019290925260a081019190915260c00190565b6001600160a01b039384168152919092166020820152604081019190915260600190565b6001600160a01b0396871681529486166020860152928516604085015293166060830152608082019290925260a081019190915260c00190565b604080825283519082018190526000906020906060840190828701845b82811015612e7a5781516001600160a01b031684529284019290840190600101612e55565b50505083810382850152612d608186612c35565b6000602082526112316020830184612c35565b92151583526020830191909152604082015260600190565b6020810160158310612ec757fe5b91905290565b6000602082526112316020830184612c6f565b60208082526038908201527f506f736974696f6e206d7573742062652077697468696e20736574206c696d6960408201527f7473206f6620746865206b6e6f776e20756e6976657273650000000000000000606082015260800190565b6020808252601f908201527f416464726573736573206d757374206578697374206d75737420657869737400604082015260600190565b60208082526021908201527f536166654d6174683a206d756c7469706c69636174696f6e206f766572666c6f6040820152607760f81b606082015260800190565b6020808252602e908201527f436f6e747261637420696e7374616e63652068617320616c726561647920626560408201526d195b881a5b9a5d1a585b1a5e995960921b606082015260800190565b6020808252601a908201527f596f752063616e6e6f742061747461636b20796f757273656c66000000000000604082015260600190565b60208082526038908201527f596f752063616e206f6e6c792061747461636b2070656f706c6520617420796f60408201527f75722063757272656e742073746172206c6f636174696f6e0000000000000000606082015260800190565b60208082526028908201527f596f752063616e6e6f74206d6f766520746f20796f75722063757272656e74206040820152673637b1b0ba34b7b760c11b606082015260800190565b608081016112348284612cba565b60a081016130fb8285612cba565b6015831061310557fe5b8260808301529392505050565b61ffff91909116815260200190565b90815260200190565b9182526001600160a01b0316602082015260400190565b600083825260406020830152612a286040830184612c6f565b93845260208401929092526040830152606082015260800190565b60ff91909116815260200190565b60ff9485168152928416602084015292166040820152606081019190915260800190565b60405181810167ffffffffffffffff811182821017156131c657600080fd5b604052919050565b600067ffffffffffffffff8211156131e4578081fd5b5060209081020190565b6001600160a01b038116811461211957600080fd5b6015811061211957600080fd5b60ff8116811461211957600080fdfea2646970667358221220863a9933e90f407fdb8f80054be3f7888eab48ae660c068c1a13f080520d99f864736f6c634300060c0033",
  "immutableReferences": {},
  "source": "// SPDX-License-Identifier: MIT\n\npragma solidity 0.6.12;\npragma experimental ABIEncoderV2;\n\nimport {GameStorage} from './GameStorage.sol';\nimport {SafeMath} from '@openzeppelin/contracts/math/SafeMath.sol';\nimport {Initializable} from '@openzeppelin/upgrades-core/contracts/Initializable.sol';\nimport {Types} from './lib/Types.sol';\nimport {Discovery} from './Discovery.sol';\nimport {ITreasury} from './interfaces/ITreasury.sol';\nimport {IFHR} from './interfaces/IFHR.sol';\nimport {ISolar} from './interfaces/ISolar.sol';\nimport {ISat} from './interfaces/ISat.sol';\nimport {PlanetManager} from './PlanetManager.sol';\nimport {GameStorage} from './GameStorage.sol';\n\n/**\n * @title Operation\n * @author Big Beluga\n *\n * Primary public function for entering into the protocol\n */\ncontract GameOperations is Initializable, Discovery {\n    using SafeMath for uint256;\n    IFHR fhr;\n    ISolar solar;\n    ISat sats;\n    PlanetManager pm;\n    // ============ Constants ============\n    event LogMove(uint8 quadrant, uint8 district, uint8 sector, uint256 star);\n    event LogStarSystemDiscovery(address indexed to, uint8 systemType);\n    event LogBattle(bool result, uint256 attackersHealth, uint256 defendersHealth);\n    event Random(uint256 random);\n    event LogRound(uint256 aDamage, uint256 dDamage, uint256 aHealth, uint256 dHealth);\n    event BattleStarted(\n        address attacker,\n        uint256 attackerOffense,\n        uint256 attackerDefense,\n        address defender,\n        uint256 defenderOffense,\n        uint256 defenderDefense\n    );\n\n    struct AttackInfo {\n        Types.Position attackerPos;\n        uint256 a_offense;\n        uint256 a_defense;\n        uint256[] a_balances;\n        uint256[] a_ids;\n        Types.Position defenderPos;\n        uint256 d_offense;\n        uint256 d_defense;\n        uint256[] d_balances;\n        uint256[] d_ids;\n        uint256[] d_retreated;\n    }\n\n    GameStorage GS;\n    ITreasury TS;\n\n    function initialize(address _gameStorage) public initializer {\n        GS = GameStorage(_gameStorage);\n        TS = ITreasury(GS.getTreasuryAddress());\n        fhr = IFHR(GS.getFhrAddress());\n        solar = ISolar(GS.getSolarAddress());\n        sats = ISat(GS.getSatAddress());\n        pm = PlanetManager(GS.getPlanetManagerAddress());\n    }\n\n    function withdrawMasterFleet(uint256[] memory _ships, uint256[] memory _amounts) public {\n        // removeMasterFleet(msg.sender, _ships, _amounts);\n        TS.sendSats(msg.sender, _ships, _amounts);\n    }\n\n    function lockInMasterFleet(uint256[] memory _ships, uint256[] memory _amounts) public {\n        // updateMasterFleet(msg.sender, _ships, _amounts);\n        TS.recieveSats(msg.sender, _ships, _amounts);\n    }\n\n    function move(Types.Position memory to) public {\n        require(\n            Types.positionWithinBoundaries(to, GS.getBoundaries()),\n            'Position must be within set limits of the known universe'\n        );\n        Types.Position memory from = GS.getMasterFleetPosition(msg.sender);\n\n        if (Types.positionNotSet(from)) {\n            from = GS.getStartPosition();\n        }\n\n        require(!Types.positionIsEqual(to, from), 'You cannot move to your current location');\n\n        GS.setMasterFleetPosition(msg.sender, to);\n        emit LogMove(to.quadrant, to.district, to.sector, to.star);\n\n        if (GS.getStarSystemType(to) == Types.SystemType.Undiscovered) {\n            explore(to);\n        }\n    }\n\n    function battle(\n        uint256 a_offense,\n        uint256 a_health,\n        uint256 d_offense,\n        uint256 d_health,\n        bool defenderGoesFirst,\n        uint8 turns\n    ) internal returns (bool result) {\n        uint256 turnThreshold = 10;\n        uint256 attackerAttack = uint256(\n            a_offense.div(turnThreshold) != 0 ? a_offense.div(turnThreshold) : 1\n        );\n        uint256 defenderAttack = uint256(\n            d_offense.div(turnThreshold) != 0 ? d_offense.div(turnThreshold) : 1\n        );\n\n        uint256 nonce = attackerAttack * defenderAttack;\n        uint256 damageD;\n        uint256 damageA;\n        for (uint8 i = 0; i < turns; i++) {\n            if (defenderGoesFirst) {\n                damageD = randomrange(1, defenderAttack);\n                damageA = randomrange(1, attackerAttack);\n                emit LogRound(damageA, damageD, a_health, d_health);\n                a_health = a_health > damageD ? a_health.sub(damageD) : 0;\n                d_health = d_health > damageA ? d_health.sub(damageA) : 0;\n            } else {\n                damageD = randomrange(1, defenderAttack);\n                damageA = randomrange(1, attackerAttack);\n                d_health = d_health > damageA ? d_health.sub(damageA) : 0;\n                a_health = a_health > damageD ? a_health.sub(damageD) : 0;\n            }\n            if (a_health == 0 || d_health == 0) break;\n        }\n\n        // the result is true if the attacker wins and false if the defender wins\n        result = a_health > d_health;\n\n        emit LogBattle(result, a_health, d_health);\n    }\n\n    function calculateStats(address fleet)\n        internal\n        returns (\n            uint256 offense,\n            uint256 defense,\n            uint256[] memory balances,\n            uint256[] memory ids\n        )\n    {\n        ids = new uint256[](GS.getTotalSats());\n        address[] memory accounts = new address[](ids.length);\n        for (uint256 i = 0; i < ids.length; i++) {\n            ids[i] = i;\n            accounts[i] = fleet;\n        }\n        balances = sats.balanceOfBatch(accounts, ids);\n        (uint256[] memory offenses, uint256[] memory defenses) = GS.batchGetSatInfo(ids);\n        for (uint256 i = 0; i < balances.length; i++) {\n            (uint256 o, uint256 d) = (offenses[i], defenses[i]);\n            offense += o.mul(balances[i]);\n            defense += d.mul(balances[i]);\n        }\n    }\n\n    function attack(address defender, uint8 turns) public {\n        require(defender != msg.sender, 'You cannot attack yourself');\n        require(\n            defender != address(0) && msg.sender != address(0),\n            'Addresses must exist must exist'\n        );\n        AttackInfo memory info;\n\n        info.attackerPos = GS.getMasterFleetPosition(msg.sender);\n        info.defenderPos = GS.getMasterFleetPosition(defender);\n\n        require(\n            Types.positionIsEqual(info.attackerPos, info.defenderPos),\n            'You can only attack people at your current star location'\n        );\n\n        (info.a_offense, info.a_defense, info.a_balances, info.a_ids) = calculateStats(msg.sender);\n        (info.d_offense, info.d_defense, info.d_balances, info.d_ids) = calculateStats(defender);\n\n        emit BattleStarted(\n            msg.sender,\n            info.a_offense,\n            info.a_defense,\n            defender,\n            info.d_offense,\n            info.d_defense\n        );\n        bool result = battle(\n            info.a_offense,\n            info.a_defense,\n            info.d_offense,\n            info.d_defense,\n            true,\n            turns\n        );\n\n        if (result) {\n            for (uint256 i = 0; i < info.a_balances.length; i++) {\n                info.a_balances[i] = info.a_balances[i] > 0\n                    ? info.a_balances[i].mul(20).div(100)\n                    : 0; // 20% of attackers fleet is lost in a successful attack\n            }\n            TS.recieveSats(msg.sender, info.a_ids, info.a_balances);\n\n            info.d_retreated = new uint256[](info.d_balances.length);\n            for (uint256 i = 0; i < info.d_balances.length; i++) {\n                // 70% of defenders fleet is lost in a successful attack\n                uint256 losses = info.d_balances[i].mul(70).div(100);\n                info.d_balances[i] = info.d_balances[i] > 0 ? losses : 0;\n                info.d_retreated[i] = info.d_balances[i] > losses\n                    ? info.d_balances[i].sub(losses)\n                    : 0;\n            }\n\n            uint256 _tokenId = GS.getProxyAddressToTokenId(defender);\n            if (_tokenId > 0) {\n                // the remaining fleet managed to escape back to command\n                // while destroying the mining equipment\n                address owner = fhr.ownerOf(_tokenId);\n                TS.sendSats(owner, info.d_ids, info.d_retreated);\n                TS.transferFhr(owner, msg.sender, _tokenId);\n            }\n            TS.recieveSats(defender, info.d_ids, info.d_balances);\n        } else {\n            for (uint256 i = 0; i < info.a_balances.length; i++) {\n                info.a_balances[i] = info.a_balances[i] > 0\n                    ? info.a_balances[i].mul(90).div(100)\n                    : 0; // 20% of attackers fleet is lost in a successful attack\n            }\n            TS.recieveSats(msg.sender, info.a_ids, info.a_balances);\n\n            info.d_retreated = new uint256[](info.d_balances.length);\n            for (uint256 i = 0; i < info.d_balances.length; i++) {\n                // 70% of defenders fleet is lost in a successful attack\n                uint256 losses = info.d_balances[i].mul(10).div(100);\n                info.d_balances[i] = info.d_balances[i] > 0 ? losses : 0;\n                info.d_retreated[i] = info.d_balances[i] > losses\n                    ? info.d_balances[i].sub(losses)\n                    : 0;\n            }\n\n            TS.recieveSats(defender, info.d_ids, info.d_balances);\n        }\n\n        // // if false the defender has won\n        // else {\n        // uint256 a_actualBalance;\n        // for (uint256 i = 0; i < a_balances.length; i++) {\n        //     if (a_balances[i] > 0) a_actualBalance++;\n        // }\n        // uint256[] memory a_ids = new uint256[](a_actualBalance);\n        // uint256[] memory a_amounts = new uint256[](a_actualBalance);\n        // uint256 a_pos = 0;\n        // for (uint256 i = 0; i < a_balances.length; i++) {\n        //     if (a_balances[i] > 0) {\n        //         _ids[pos] = i;\n        //         _amounts[pos] = a_balances[i].mul(20).div(100); // 20% of attackers fleet is lost in a successful attack\n        //         pos++;\n        //     }\n        // }\n        // TS.recieveSats(msg.sender, a_ids, a_amounts);\n\n        // uint256 d_actualBalance;\n        // for (uint256 i = 0; i < a_balances.length; i++) {\n        //     if (a_balances[i] > 0) d_actualBalance++;\n        // }\n        // uint256[] memory d_ids = new uint256[](d_actualBalance);\n        // uint256[] memory d_amounts = new uint256[](d_actualBalance);\n        // uint256 d_pos = 0;\n        // for (uint256 i = 0; i < a_balances.length; i++) {\n        //     if (a_balances[i] > 0) {\n        //         _ids[pos] = i;\n        //         _amounts[pos] = a_balances[i].mul(70).div(100); // 70% of defenders fleet is lost in a successful attack\n        //         pos++;\n        //     }\n        // }\n        // TS.recieveSats(msg.sender, d_ids, d_amounts);\n\n        // uint256 _tokenId = GS.getProxyAddressToTokenId(defender);\n        // if (_tokenId > 0) {\n        //     address owner = fhr.ownerOf(_tokenId);\n        //     TS.transferFhr(owner, msg.sender, _tokenId);\n        // }\n        // }\n        // if result is true then attacker has won\n        // if (result) {}\n        // find out who won\n        // reduce both fleets\n        // reward the victor either with solar or NFT\n    }\n\n    function explore(Types.Position memory star) internal {\n        (Types.SystemType systemType, uint256 rand) = Discovery.randomSystemType();\n        GS.setStarSystemType(star, systemType);\n        emit LogStarSystemDiscovery(msg.sender, uint8(systemType));\n\n        if (systemType == Types.SystemType.Empty) {\n            // There is nothing here.\n            return;\n        } else if (\n            systemType == Types.SystemType.AncientFleetAggressive ||\n            systemType == Types.SystemType.AdvancedAlienFleetAggressive ||\n            systemType == Types.SystemType.AlienFleetAggressive\n        ) {\n            (uint256 a_offense, uint256 a_defense) = GS.getAiFleetInfo(systemType);\n            (\n                uint256 d_offense,\n                uint256 d_defense,\n                uint256[] memory d_balances,\n                uint256[] memory d_ids\n            ) = calculateStats(msg.sender);\n\n            emit BattleStarted(\n                msg.sender,\n                a_offense,\n                a_defense,\n                address(this),\n                d_offense,\n                d_defense\n            );\n            bool result = battle(a_offense, a_defense, d_offense, d_defense, true, 10);\n        } else if (\n            systemType == Types.SystemType.LowYieldSystem ||\n            systemType == Types.SystemType.MediumYieldSystem ||\n            systemType == Types.SystemType.HighYieldSystem ||\n            systemType == Types.SystemType.InsaneYieldSystem\n        ) {\n            (uint256 low, uint256 high) = GS.getStarSystemYieldRange(systemType);\n            uint256 yield = randomrange(low, high);\n            uint256 _id = GS.incrementTotalFhr();\n            TS.mintFhr(msg.sender, _id);\n            address _address = pm.createPlanet(\n                _id,\n                abi.encodeWithSignature(\n                    'initialize(address,address,address,address,uint256,uint256)',\n                    address(pm),\n                    address(solar),\n                    address(fhr),\n                    address(sats),\n                    yield,\n                    _id\n                )\n            );\n            GS.setMasterFleetPosition(_address, star);\n            GS.setTokenIdToProxyAddress(_id, _address);\n            GS.setProxyAddressToTokenId(_id, _address);\n        } else if (systemType == Types.SystemType.ShipWreck) {\n            uint256 multiplier = rand.mod(2) == 0 ? 2 : 1;\n            Types.SatInfo memory ship = Discovery.singleAllNonAncientShips();\n            uint256[] memory ships = new uint256[](1);\n            uint256[] memory amounts = new uint256[](1);\n            ships[0] = ship.id;\n            amounts[0] = ship.amount.mul(multiplier);\n            TS.sendSats(msg.sender, ships, amounts);\n        } else if (systemType == Types.SystemType.AncientMiningSystem) {\n            Types.SatInfo memory ship = Discovery.singleAncientMiningShip();\n            uint256[] memory ships = new uint256[](1);\n            uint256[] memory amounts = new uint256[](1);\n            ships[0] = ship.id;\n            amounts[0] = ship.amount;\n            TS.sendSats(msg.sender, ships, amounts);\n        }\n    }\n}\n",
  "sourcePath": "C:\\Users\\James\\projects\\tsuno-fe\\contracts\\GameOperations.sol",
  "compiler": {
    "name": "solc",
    "version": "0.6.12+commit.27d51765.Emscripten.clang"
  },
  "schemaVersion": "3.2.5",
  "updatedAt": "2020-10-20T10:07:07.091Z",
  "networkType": "ethereum",
  "devdoc": {
    "author": "Big Beluga Primary public function for entering into the protocol",
    "kind": "dev",
    "methods": {},
    "title": "Operation",
    "version": 1
  },
  "userdoc": {
    "kind": "user",
    "methods": {},
    "version": 1
  }
}