{
  "contractName": "GameOperations",
  "abi": [
    {
      "anonymous": false,
      "inputs": [
        {
          "indexed": false,
          "internalType": "address",
          "name": "attacker",
          "type": "address"
        },
        {
          "indexed": false,
          "internalType": "uint256",
          "name": "attackerOffense",
          "type": "uint256"
        },
        {
          "indexed": false,
          "internalType": "uint256",
          "name": "attackerDefense",
          "type": "uint256"
        },
        {
          "indexed": false,
          "internalType": "address",
          "name": "defender",
          "type": "address"
        },
        {
          "indexed": false,
          "internalType": "uint256",
          "name": "defenderOffense",
          "type": "uint256"
        },
        {
          "indexed": false,
          "internalType": "uint256",
          "name": "defenderDefense",
          "type": "uint256"
        }
      ],
      "name": "BattleStarted",
      "type": "event"
    },
    {
      "anonymous": false,
      "inputs": [
        {
          "indexed": false,
          "internalType": "bool",
          "name": "result",
          "type": "bool"
        },
        {
          "indexed": false,
          "internalType": "uint256",
          "name": "attackersHealth",
          "type": "uint256"
        },
        {
          "indexed": false,
          "internalType": "uint256",
          "name": "defendersHealth",
          "type": "uint256"
        }
      ],
      "name": "LogBattle",
      "type": "event"
    },
    {
      "anonymous": false,
      "inputs": [
        {
          "indexed": false,
          "internalType": "uint8",
          "name": "quadrant",
          "type": "uint8"
        },
        {
          "indexed": false,
          "internalType": "uint8",
          "name": "district",
          "type": "uint8"
        },
        {
          "indexed": false,
          "internalType": "uint8",
          "name": "sector",
          "type": "uint8"
        },
        {
          "indexed": false,
          "internalType": "uint256",
          "name": "star",
          "type": "uint256"
        }
      ],
      "name": "LogMove",
      "type": "event"
    },
    {
      "anonymous": false,
      "inputs": [
        {
          "indexed": false,
          "internalType": "uint256",
          "name": "aDamage",
          "type": "uint256"
        },
        {
          "indexed": false,
          "internalType": "uint256",
          "name": "dDamage",
          "type": "uint256"
        },
        {
          "indexed": false,
          "internalType": "uint256",
          "name": "aHealth",
          "type": "uint256"
        },
        {
          "indexed": false,
          "internalType": "uint256",
          "name": "dHealth",
          "type": "uint256"
        }
      ],
      "name": "LogRound",
      "type": "event"
    },
    {
      "anonymous": false,
      "inputs": [
        {
          "indexed": true,
          "internalType": "address",
          "name": "to",
          "type": "address"
        },
        {
          "indexed": false,
          "internalType": "uint8",
          "name": "systemType",
          "type": "uint8"
        }
      ],
      "name": "LogStarSystemDiscovery",
      "type": "event"
    },
    {
      "anonymous": false,
      "inputs": [
        {
          "indexed": false,
          "internalType": "uint256",
          "name": "random",
          "type": "uint256"
        }
      ],
      "name": "Random",
      "type": "event"
    },
    {
      "inputs": [
        {
          "internalType": "enum Types.SystemType",
          "name": "systemType",
          "type": "uint8"
        }
      ],
      "name": "getRandomYield",
      "outputs": [
        {
          "internalType": "uint16",
          "name": "rand",
          "type": "uint16"
        }
      ],
      "stateMutability": "view",
      "type": "function"
    },
    {
      "inputs": [
        {
          "internalType": "uint256",
          "name": "_seed",
          "type": "uint256"
        }
      ],
      "name": "setSeed",
      "outputs": [],
      "stateMutability": "nonpayable",
      "type": "function"
    },
    {
      "inputs": [
        {
          "internalType": "address",
          "name": "_gameStorage",
          "type": "address"
        }
      ],
      "name": "initialize",
      "outputs": [],
      "stateMutability": "nonpayable",
      "type": "function"
    },
    {
      "inputs": [
        {
          "components": [
            {
              "internalType": "uint8",
              "name": "quadrant",
              "type": "uint8"
            },
            {
              "internalType": "uint8",
              "name": "sector",
              "type": "uint8"
            },
            {
              "internalType": "uint8",
              "name": "district",
              "type": "uint8"
            },
            {
              "internalType": "uint256",
              "name": "star",
              "type": "uint256"
            }
          ],
          "internalType": "struct Types.Position",
          "name": "to",
          "type": "tuple"
        }
      ],
      "name": "move",
      "outputs": [],
      "stateMutability": "nonpayable",
      "type": "function"
    },
    {
      "inputs": [
        {
          "internalType": "address",
          "name": "defender",
          "type": "address"
        },
        {
          "internalType": "uint8",
          "name": "turns",
          "type": "uint8"
        }
      ],
      "name": "attack",
      "outputs": [],
      "stateMutability": "nonpayable",
      "type": "function"
    }
  ],
  "bytecode": "0x6080604052600160345534801561001557600080fd5b506130b0806100256000396000f3fe608060405234801561001057600080fd5b50600436106100565760003560e01c80626c2f3a1461005b5780636ebb6d80146100845780638e905cfd14610099578063c32a50f9146100ac578063c4d66de8146100bf575b600080fd5b61006e61006936600461295b565b6100d2565b60405161007b9190612f83565b60405180910390f35b6100976100923660046127b9565b6100d8565b005b6100976100a7366004612993565b610a30565b6100976100ba366004612a55565b610d73565b6100976100cd366004612781565b610d78565b50600090565b6001600160a01b03821633141561010a5760405162461bcd60e51b815260040161010190612e75565b60405180910390fd5b6001600160a01b0382161580159061012157503315155b61013d5760405162461bcd60e51b815260040161010190612daf565b61014561261d565b603954604051633495a7e360e11b81526001600160a01b039091169063692b4fc690610175903390600401612b89565b60806040518083038186803b15801561018d57600080fd5b505afa1580156101a1573d6000803e3d6000fd5b505050506040513d601f19601f820116820180604052508101906101c591906129f4565b8152603954604051633495a7e360e11b81526001600160a01b039091169063692b4fc6906101f7908690600401612b89565b60806040518083038186803b15801561020f57600080fd5b505afa158015610223573d6000803e3d6000fd5b505050506040513d601f19601f8201168201806040525081019061024791906129f4565b60a082018190528151610259916110f3565b6102755760405162461bcd60e51b815260040161010190612eac565b61027e33611150565b608085015260608401526040830152602082015261029b83611150565b61012085015261010084015260e0830181905260c08301829052602083015160408085015190517f39c31677b1650d5b983fb38bf1ee25e9ca25658b8bdfb9263e59651183b48368946102f594339493928a929190612c13565b60405180910390a1600061031e826020015183604001518460c001518560e00151600188611471565b905080156107b65760005b8260600151518110156103b55760008360600151828151811061034857fe5b60200260200101511161035c576000610392565b610392606461038c60148660600151858151811061037657fe5b602002602001015161162390919063ffffffff16565b9061165d565b836060015182815181106103a257fe5b6020908102919091010152600101610329565b50603a546080830151606084015160405163feba2dd560e01b81526001600160a01b039093169263feba2dd5926103f0923392600401612b9d565b600060405180830381600087803b15801561040a57600080fd5b505af115801561041e573d6000803e3d6000fd5b505050508161010001515167ffffffffffffffff8111801561043f57600080fd5b50604051908082528060200260200182016040528015610469578160200160208202803683370190505b5061014083015260005b8261010001515181101561055c57600061049e606461038c6046876101000151868151811061037657fe5b9050600084610100015183815181106104b357fe5b6020026020010151116104c75760006104c9565b805b84610100015183815181106104da57fe5b6020026020010181815250508084610100015183815181106104f857fe5b60200260200101511161050c576000610537565b61053781856101000151848151811061052157fe5b602002602001015161169f90919063ffffffff16565b846101400151838151811061054857fe5b602090810291909101015250600101610473565b50603954604051634ec7272b60e11b81526000916001600160a01b031690639d8e4e569061058e908890600401612b89565b60206040518083038186803b1580156105a657600080fd5b505afa1580156105ba573d6000803e3d6000fd5b505050506040513d601f19601f820116820180604052508101906105de9190612a6d565b90508015610742576035546040516331a9108f60e11b81526000916001600160a01b031690636352211e90610617908590600401612f92565b60206040518083038186803b15801561062f57600080fd5b505afa158015610643573d6000803e3d6000fd5b505050506040513d601f19601f82011682018060405250810190610667919061279d565b603a5461012086015161014087015160405163ba1edf1760e01b81529394506001600160a01b039092169263ba1edf17926106a9928692909190600401612b9d565b600060405180830381600087803b1580156106c357600080fd5b505af11580156106d7573d6000803e3d6000fd5b5050603a54604051624f9d7360e21b81526001600160a01b03909116925063013e75cc915061070e90849033908790600401612c4d565b600060405180830381600087803b15801561072857600080fd5b505af115801561073c573d6000803e3d6000fd5b50505050505b603a5461012084015161010085015160405163feba2dd560e01b81526001600160a01b039093169263feba2dd59261077e928a92600401612b9d565b600060405180830381600087803b15801561079857600080fd5b505af11580156107ac573d6000803e3d6000fd5b5050505050610a2a565b60005b826060015151811015610829576000836060015182815181106107d857fe5b6020026020010151116107ec576000610806565b610806606461038c605a8660600151858151811061037657fe5b8360600151828151811061081657fe5b60209081029190910101526001016107b9565b50603a546080830151606084015160405163feba2dd560e01b81526001600160a01b039093169263feba2dd592610864923392600401612b9d565b600060405180830381600087803b15801561087e57600080fd5b505af1158015610892573d6000803e3d6000fd5b505050508161010001515167ffffffffffffffff811180156108b357600080fd5b506040519080825280602002602001820160405280156108dd578160200160208202803683370190505b5061014083015260005b826101000151518110156109ba576000610912606461038c600a876101000151868151811061037657fe5b90506000846101000151838151811061092757fe5b60200260200101511161093b57600061093d565b805b846101000151838151811061094e57fe5b60200260200101818152505080846101000151838151811061096c57fe5b602002602001015111610980576000610995565b61099581856101000151848151811061052157fe5b84610140015183815181106109a657fe5b6020908102919091010152506001016108e7565b50603a5461012083015161010084015160405163feba2dd560e01b81526001600160a01b039093169263feba2dd5926109f7928992600401612b9d565b600060405180830381600087803b158015610a1157600080fd5b505af1158015610a25573d6000803e3d6000fd5b505050505b50505050565b610abf81603960009054906101000a90046001600160a01b03166001600160a01b031663cf677f576040518163ffffffff1660e01b815260040160806040518083038186803b158015610a8257600080fd5b505afa158015610a96573d6000803e3d6000fd5b505050506040513d601f19601f82011682018060405250810190610aba91906129f4565b6116e1565b610adb5760405162461bcd60e51b815260040161010190612d52565b610ae3612683565b603954604051633495a7e360e11b81526001600160a01b039091169063692b4fc690610b13903390600401612b89565b60806040518083038186803b158015610b2b57600080fd5b505afa158015610b3f573d6000803e3d6000fd5b505050506040513d601f19601f82011682018060405250810190610b6391906129f4565b9050610b6e81611794565b15610bfc57603960009054906101000a90046001600160a01b03166001600160a01b0316636d18c9706040518163ffffffff1660e01b815260040160806040518083038186803b158015610bc157600080fd5b505afa158015610bd5573d6000803e3d6000fd5b505050506040513d601f19601f82011682018060405250810190610bf991906129f4565b90505b610c0682826110f3565b15610c235760405162461bcd60e51b815260040161010190612f09565b60395460405163bedc6d2760e01b81526001600160a01b039091169063bedc6d2790610c559033908690600401612bdd565b600060405180830381600087803b158015610c6f57600080fd5b505af1158015610c83573d6000803e3d6000fd5b505050507f067ed149b8be43d30a47ed69bc882367f66239804079b28dd002d36fc3f46ed48260000151836040015184602001518560600151604051610ccc9493929190612ff4565b60405180910390a16039546040516348bed1c960e11b81526000916001600160a01b03169063917da39290610d05908690600401612f51565b60206040518083038186803b158015610d1d57600080fd5b505afa158015610d31573d6000803e3d6000fd5b505050506040513d601f19601f82011682018060405250810190610d559190612977565b6014811115610d6057fe5b1415610d6f57610d6f826117cc565b5050565b603355565b600054610100900460ff1680610d915750610d91612032565b80610d9f575060005460ff16155b610dbb5760405162461bcd60e51b815260040161010190612e27565b600054610100900460ff16158015610de6576000805460ff1961ff0019909116610100171660011790555b603980546001600160a01b0319166001600160a01b03848116919091179182905560408051633800918160e21b81529051929091169163e002460491600480820192602092909190829003018186803b158015610e4257600080fd5b505afa158015610e56573d6000803e3d6000fd5b505050506040513d601f19601f82011682018060405250810190610e7a919061279d565b603a80546001600160a01b0319166001600160a01b0392831617905560395460408051637718403560e01b8152905191909216916377184035916004808301926020929190829003018186803b158015610ed357600080fd5b505afa158015610ee7573d6000803e3d6000fd5b505050506040513d601f19601f82011682018060405250810190610f0b919061279d565b603580546001600160a01b0319166001600160a01b039283161790556039546040805163123cfce160e01b81529051919092169163123cfce1916004808301926020929190829003018186803b158015610f6457600080fd5b505afa158015610f78573d6000803e3d6000fd5b505050506040513d601f19601f82011682018060405250810190610f9c919061279d565b603680546001600160a01b0319166001600160a01b0392831617905560395460408051635beec2bb60e01b815290519190921691635beec2bb916004808301926020929190829003018186803b158015610ff557600080fd5b505afa158015611009573d6000803e3d6000fd5b505050506040513d601f19601f8201168201806040525081019061102d919061279d565b603780546001600160a01b0319166001600160a01b0392831617905560395460408051633dd742c960e01b815290519190921691633dd742c9916004808301926020929190829003018186803b15801561108657600080fd5b505afa15801561109a573d6000803e3d6000fd5b505050506040513d601f19601f820116820180604052508101906110be919061279d565b603880546001600160a01b0319166001600160a01b03929092169190911790558015610d6f576000805461ff00191690555050565b8051825160009160ff918216911614801561111b5750816040015160ff16836040015160ff16145b80156111345750816020015160ff16836020015160ff16145b8015611147575081606001518360600151145b90505b92915050565b600080606080603960009054906101000a90046001600160a01b03166001600160a01b031663e2cd08626040518163ffffffff1660e01b815260040160206040518083038186803b1580156111a457600080fd5b505afa1580156111b8573d6000803e3d6000fd5b505050506040513d601f19601f820116820180604052508101906111dc9190612a6d565b67ffffffffffffffff811180156111f257600080fd5b5060405190808252806020026020018201604052801561121c578160200160208202803683370190505b5090506060815167ffffffffffffffff8111801561123957600080fd5b50604051908082528060200260200182016040528015611263578160200160208202803683370190505b50905060005b82518110156112b8578083828151811061127f57fe5b6020026020010181815250508682828151811061129857fe5b6001600160a01b0390921660209283029190910190910152600101611269565b506037546040516313849cfd60e21b81526001600160a01b0390911690634e1273f4906112eb9084908690600401612cab565b60006040518083038186803b15801561130357600080fd5b505afa158015611317573d6000803e3d6000fd5b505050506040513d6000823e601f3d908101601f1916820160405261133f91908101906128bf565b603954604051637008ec1b60e11b815291945060609182916001600160a01b03169063e011d83690611375908790600401612d01565b60006040518083038186803b15801561138d57600080fd5b505afa1580156113a1573d6000803e3d6000fd5b505050506040513d6000823e601f3d908101601f191682016040526113c991908101906128fa565b9150915060005b8551811015611466576000808483815181106113e857fe5b60200260200101518484815181106113fc57fe5b60200260200101519150915061142e88848151811061141757fe5b60200260200101518361162390919063ffffffff16565b8a01995061145888848151811061144157fe5b60200260200101518261162390919063ffffffff16565b9098019750506001016113d0565b505050509193509193565b6000600a81611480898361165d565b61148b576001611495565b611495898361165d565b905060006114a3888461165d565b6114ae5760016114b8565b6114b8888461165d565b9050818102600080805b8860ff168160ff1610156115d2578915611566576114e1600186612038565b92506114ee600187612038565b91507f3ab8d16fa0445f4581f0e35996348d2507338000fb353856d56f5db15618e39482848f8e6040516115259493929190612fcb565b60405180910390a1828d1161153b576000611545565b6115458d8461169f565b9c50818b1161155557600061155f565b61155f8b8361169f565b9a506115b5565b611571600186612038565b925061157e600187612038565b9150818b1161158e576000611598565b6115988b8361169f565b9a50828d116115a85760006115b2565b6115b28d8461169f565b9c505b8c15806115c057508a155b156115ca576115d2565b6001016114c2565b50898c1196507fa09af1f69f0376e675eb9a774ff51b588670dda43c3dd6805069596312e3bca5878d8c60405161160b93929190612d14565b60405180910390a15050505050509695505050505050565b6000826116325750600061114a565b8282028284828161163f57fe5b04146111475760405162461bcd60e51b815260040161010190612de6565b600061114783836040518060400160405280601a81526020017f536166654d6174683a206469766973696f6e206279207a65726f00000000000081525061209a565b600061114783836040518060400160405280601e81526020017f536166654d6174683a207375627472616374696f6e206f766572666c6f7700008152506120d3565b815160009060ff1615806116fd57508151835160ff9182169116115b1561170a5750600061114a565b604083015160ff16158061172b5750816040015160ff16836040015160ff16115b156117385750600061114a565b602083015160ff1615806117595750816020015160ff16836020015160ff16115b156117665750600061114a565b6060830151158061177e575081606001518360600151115b1561178b5750600061114a565b50600192915050565b805160009060ff1615806117ad5750604082015160ff16155b806117bd5750602082015160ff16155b8061114a575050606001511590565b6000806117d76120ff565b60395460405163083b214d60e41b81529294509092506001600160a01b0316906383b214d09061180d9086908690600401612f5f565b600060405180830381600087803b15801561182757600080fd5b505af115801561183b573d6000803e3d6000fd5b50505050336001600160a01b03167f119eeac2475e395d798da3c40d9f901a3131b79a826c604a60d078764e8ce40883601481111561187657fe5b6040516118839190612fe6565b60405180910390a2600982601481111561189957fe5b14156118a657505061202f565b60018260148111156118b457fe5b14806118cb575060038260148111156118c957fe5b145b806118e1575060058260148111156118df57fe5b145b156119e857603954604051636a2a747360e01b815260009182916001600160a01b0390911690636a2a74739061191b908790600401612d2c565b6040805180830381600087803b15801561193457600080fd5b505af1158015611948573d6000803e3d6000fd5b505050506040513d601f19601f8201168201806040525081019061196c9190612a85565b9150915060008060608061197f33611150565b93509350935093507f39c31677b1650d5b983fb38bf1ee25e9ca25658b8bdfb9263e59651183b483683387873088886040516119c096959493929190612c13565b60405180910390a160006119da878787876001600a611471565b90505050505050505061202c565b600b8260148111156119f657fe5b1480611a0d5750600d826014811115611a0b57fe5b145b80611a235750600f826014811115611a2157fe5b145b80611a3957506013826014811115611a3757fe5b145b15611ddc57603954604051634f4815d760e01b815260009182916001600160a01b0390911690634f4815d790611a73908790600401612d2c565b6040805180830381600087803b158015611a8c57600080fd5b505af1158015611aa0573d6000803e3d6000fd5b505050506040513d601f19601f82011682018060405250810190611ac49190612a85565b915091506000611ad48383612038565b90506000603960009054906101000a90046001600160a01b03166001600160a01b03166304d5aae16040518163ffffffff1660e01b8152600401602060405180830381600087803b158015611b2857600080fd5b505af1158015611b3c573d6000803e3d6000fd5b505050506040513d601f19601f82011682018060405250810190611b609190612a6d565b603a5460405163a080ee1560e01b81529192506001600160a01b03169063a080ee1590611b939033908590600401612bfa565b600060405180830381600087803b158015611bad57600080fd5b505af1158015611bc1573d6000803e3d6000fd5b5050603854603654603554603754604051600096506001600160a01b0394851695506320515251948894611c099488949183169390831692909116908b908790602401612c71565b60408051601f198184030181529181526020820180516001600160e01b031663d7c41c7960e01b1790525160e084901b6001600160e01b0319168152611c53929190600401612fb2565b602060405180830381600087803b158015611c6d57600080fd5b505af1158015611c81573d6000803e3d6000fd5b505050506040513d601f19601f82011682018060405250810190611ca5919061279d565b60395460405163bedc6d2760e01b81529192506001600160a01b03169063bedc6d2790611cd89084908c90600401612bdd565b600060405180830381600087803b158015611cf257600080fd5b505af1158015611d06573d6000803e3d6000fd5b505060395460405163f52084e960e01b81526001600160a01b03909116925063f52084e99150611d3c9085908590600401612f9b565b600060405180830381600087803b158015611d5657600080fd5b505af1158015611d6a573d6000803e3d6000fd5b50506039546040516375997ce960e01b81526001600160a01b0390911692506375997ce99150611da09085908590600401612f9b565b600060405180830381600087803b158015611dba57600080fd5b505af1158015611dce573d6000803e3d6000fd5b50505050505050505061202c565b600e826014811115611dea57fe5b1415611f1a576000611dfd826002612429565b15611e09576001611e0c565b60025b60ff169050611e196126aa565b611e2161246b565b60408051600180825281830190925291925060609190602080830190803683375050604080516001808252818301909252929350606092915060208083019080368337019050509050826020015182600081518110611e7c57fe5b60209081029190910101528251611e939085611623565b81600081518110611ea057fe5b6020908102919091010152603a5460405163ba1edf1760e01b81526001600160a01b039091169063ba1edf1790611edf90339086908690600401612b9d565b600060405180830381600087803b158015611ef957600080fd5b505af1158015611f0d573d6000803e3d6000fd5b505050505050505061202c565b6010826014811115611f2857fe5b141561202c57611f366126aa565b611f3e61253d565b60408051600180825281830190925291925060609190602080830190803683375050604080516001808252818301909252929350606092915060208083019080368337019050509050826020015182600081518110611f9957fe5b602002602001018181525050826000015181600081518110611fb757fe5b6020908102919091010152603a5460405163ba1edf1760e01b81526001600160a01b039091169063ba1edf1790611ff690339086908690600401612b9d565b600060405180830381600087803b15801561201057600080fd5b505af1158015612024573d6000803e3d6000fd5b505050505050505b50505b50565b303b1590565b60008142336033546034546040516020016120569493929190612b5c565b6040516020818303038152906040528051906020012060001c8161207657fe5b069050828110612086578061208a565b8281015b6034805460010190559392505050565b600081836120bb5760405162461bcd60e51b81526004016101019190612d3f565b5060008385816120c757fe5b049150505b9392505050565b600081848411156120f75760405162461bcd60e51b81526004016101019190612d3f565b505050900390565b6000806127106064612112600183612038565b925082600161ffff8216141561212b5760019450612422565b8061ffff16602a14156121415760029450612422565b816005028161ffff16116121585760039450612422565b816005028161ffff16118015612175575081600a028161ffff1611155b156121835760049450612422565b81600a028161ffff161180156121a05750816014028161ffff1611155b156121ae5760059450612422565b816014028161ffff161180156121cb575081601e028161ffff1611155b156121d95760069450612422565b81601e028161ffff161180156121f65750816023028161ffff1611155b156122045760079450612422565b816023028161ffff161180156122215750816028028161ffff1611155b1561222f5760089450612422565b816028028161ffff1611801561224c575081602f028161ffff1611155b1561225a5760099450612422565b81602f028161ffff16118015612277575081603c028161ffff1611155b1561228557600a9450612422565b81603c028161ffff161180156122a25750816041028161ffff1611155b156122b057600b9450612422565b816041028161ffff161180156122cd5750816046028161ffff1611155b156122db57600c9450612422565b816046028161ffff161180156122f8575081604b168161ffff1611155b1561230657600d9450612422565b816046028161ffff161180156123235750816050168161ffff1611155b1561233157600e9450612422565b816050028161ffff1611801561234e5750816055168161ffff1611155b1561235c57600f9450612422565b816055028161ffff16118015612379575081605a168161ffff1611155b156123875760109450612422565b81605a028161ffff161180156123a4575081605f168161ffff1611155b156123b25760119450612422565b81605f028161ffff161180156123cf5750816063168161ffff1611155b156123dd5760129450612422565b816063028161ffff161180156123fa5750600183038161ffff1611155b156124085760139450612422565b828161ffff16141561241d5760149450612422565b600994505b5050509091565b600061114783836040518060400160405280601881526020017f536166654d6174683a206d6f64756c6f206279207a65726f00000000000000008152506125e9565b6124736126aa565b61247b6126c4565b73__Types_________________________________63c0e6aff16040518163ffffffff1660e01b81526004016103006040518083038186803b1580156124c057600080fd5b505af41580156124d4573d6000803e3d6000fd5b505050506040513d601f19601f820116820180604052508101906124f891906127f1565b9050600061250860006018612038565b9050600082826018811061251857fe5b6020020151905060405180604001604052806001815260200182815250935050505090565b6125456126aa565b61254d6126e3565b73__Types_________________________________63075587706040518163ffffffff1660e01b815260040160606040518083038186803b15801561259157600080fd5b505af41580156125a5573d6000803e3d6000fd5b505050506040513d601f19601f820116820180604052508101906125c99190612859565b905060006125d960006003612038565b9050600082826003811061251857fe5b6000818361260a5760405162461bcd60e51b81526004016101019190612d3f565b5082848161261457fe5b06949350505050565b604051806101600160405280612631612683565b81526020016000815260200160008152602001606081526020016060815260200161265a612683565b815260200160008152602001600081526020016060815260200160608152602001606081525090565b60408051608081018252600080825260208201819052918101829052606081019190915290565b604051806040016040528060008152602001600081525090565b6040518061030001604052806018906020820280368337509192915050565b60405180606001604052806003906020820280368337509192915050565b600082601f830112612711578081fd5b815167ffffffffffffffff811115612727578182fd5b6020808202612737828201613018565b8381529350818401858301828701840188101561275357600080fd5b600092505b84831015612776578051825260019290920191908301908301612758565b505050505092915050565b600060208284031215612792578081fd5b813561114781613049565b6000602082840312156127ae578081fd5b815161114781613049565b600080604083850312156127cb578081fd5b82356127d681613049565b915060208301356127e68161306b565b809150509250929050565b6000610300808385031215612804578182fd5b83601f840112612812578182fd5b61281b81613018565b808486848701111561282b578485fd5b8493505b601884101561284f5780518352600193909301926020928301920161282f565b5095945050505050565b60006060828403121561286a578081fd5b82601f830112612878578081fd5b6128826060613018565b808385606086011115612893578384fd5b835b60038110156128b4578151845260209384019390910190600101612895565b509095945050505050565b6000602082840312156128d0578081fd5b815167ffffffffffffffff8111156128e6578182fd5b6128f284828501612701565b949350505050565b6000806040838503121561290c578182fd5b825167ffffffffffffffff80821115612923578384fd5b61292f86838701612701565b93506020850151915080821115612944578283fd5b5061295185828601612701565b9150509250929050565b60006020828403121561296c578081fd5b81356111478161305e565b600060208284031215612988578081fd5b81516111478161305e565b6000608082840312156129a4578081fd5b6129ae6080613018565b82356129b98161306b565b815260208301356129c98161306b565b602082015260408301356129dc8161306b565b60408201526060928301359281019290925250919050565b600060808284031215612a05578081fd5b612a0f6080613018565b8251612a1a8161306b565b81526020830151612a2a8161306b565b60208201526040830151612a3d8161306b565b60408201526060928301519281019290925250919050565b600060208284031215612a66578081fd5b5035919050565b600060208284031215612a7e578081fd5b5051919050565b60008060408385031215612a97578182fd5b505080516020909101519092909150565b6000815180845260208085019450808401835b83811015612ad757815187529582019590820190600101612abb565b509495945050505050565b60008151808452815b81811015612b0757602081850181015186830182015201612aeb565b81811115612b185782602083870101525b50601f01601f19169290920160200192915050565b60ff815116825260ff602082015116602083015260ff6040820151166040830152606081015160608301525050565b93845260609290921b6bffffffffffffffffffffffff191660208401526034830152605482015260740190565b6001600160a01b0391909116815260200190565b6001600160a01b0384168152606060208201819052600090612bc190830185612aa8565b8281036040840152612bd38185612aa8565b9695505050505050565b6001600160a01b038316815260a081016120cc6020830184612b2d565b6001600160a01b03929092168252602082015260400190565b6001600160a01b0396871681526020810195909552604085019390935293166060830152608082019290925260a081019190915260c00190565b6001600160a01b039384168152919092166020820152604081019190915260600190565b6001600160a01b0396871681529486166020860152928516604085015293166060830152608082019290925260a081019190915260c00190565b604080825283519082018190526000906020906060840190828701845b82811015612ced5781516001600160a01b031684529284019290840190600101612cc8565b50505083810382850152612bd38186612aa8565b6000602082526111476020830184612aa8565b92151583526020830191909152604082015260600190565b60208101612d398361303f565b91905290565b6000602082526111476020830184612ae2565b60208082526038908201527f506f736974696f6e206d7573742062652077697468696e20736574206c696d6960408201527f7473206f6620746865206b6e6f776e20756e6976657273650000000000000000606082015260800190565b6020808252601f908201527f416464726573736573206d757374206578697374206d75737420657869737400604082015260600190565b60208082526021908201527f536166654d6174683a206d756c7469706c69636174696f6e206f766572666c6f6040820152607760f81b606082015260800190565b6020808252602e908201527f436f6e747261637420696e7374616e63652068617320616c726561647920626560408201526d195b881a5b9a5d1a585b1a5e995960921b606082015260800190565b6020808252601a908201527f596f752063616e6e6f742061747461636b20796f757273656c66000000000000604082015260600190565b60208082526038908201527f596f752063616e206f6e6c792061747461636b2070656f706c6520617420796f60408201527f75722063757272656e742073746172206c6f636174696f6e0000000000000000606082015260800190565b60208082526028908201527f596f752063616e6e6f74206d6f766520746f20796f75722063757272656e74206040820152673637b1b0ba34b7b760c11b606082015260800190565b6080810161114a8284612b2d565b60a08101612f6d8285612b2d565b612f768361303f565b8260808301529392505050565b61ffff91909116815260200190565b90815260200190565b9182526001600160a01b0316602082015260400190565b6000838252604060208301526128f26040830184612ae2565b93845260208401929092526040830152606082015260800190565b60ff91909116815260200190565b60ff9485168152928416602084015292166040820152606081019190915260800190565b60405181810167ffffffffffffffff8111828210171561303757600080fd5b604052919050565b6015811061202f57fe5b6001600160a01b038116811461202f57600080fd5b6015811061202f57600080fd5b60ff8116811461202f57600080fdfea264697066735822122081345ebb46b764f05df3a014575dde835996f21a19cb8c9a614d4b50190e09b064736f6c634300060c0033",
  "immutableReferences": {},
  "source": "// SPDX-License-Identifier: MIT\n\npragma solidity 0.6.12;\npragma experimental ABIEncoderV2;\n\nimport {GameStorage} from './GameStorage.sol';\nimport {SafeMath} from '@openzeppelin/contracts/math/SafeMath.sol';\nimport {Initializable} from '@openzeppelin/upgrades-core/contracts/Initializable.sol';\nimport {Types} from './lib/Types.sol';\nimport {Discovery} from './Discovery.sol';\nimport {ITreasury} from './interfaces/ITreasury.sol';\nimport {IFHR} from './interfaces/IFHR.sol';\nimport {ISolar} from './interfaces/ISolar.sol';\nimport {ISat} from './interfaces/ISat.sol';\nimport {PlanetManager} from './PlanetManager.sol';\nimport {GameStorage} from './GameStorage.sol';\n\n/**\n * @title Operation\n * @author Big Beluga\n *\n * Primary public function for entering into the protocol\n */\ncontract GameOperations is Initializable, Discovery {\n    using SafeMath for uint256;\n    IFHR fhr;\n    ISolar solar;\n    ISat sats;\n    PlanetManager pm;\n    // ============ Constants ============\n    event LogMove(uint8 quadrant, uint8 district, uint8 sector, uint256 star);\n    event LogStarSystemDiscovery(address indexed to, uint8 systemType);\n    event LogBattle(bool result, uint256 attackersHealth, uint256 defendersHealth);\n    event Random(uint256 random);\n    event LogRound(uint256 aDamage, uint256 dDamage, uint256 aHealth, uint256 dHealth);\n    event BattleStarted(\n        address attacker,\n        uint256 attackerOffense,\n        uint256 attackerDefense,\n        address defender,\n        uint256 defenderOffense,\n        uint256 defenderDefense\n    );\n\n    struct AttackInfo {\n        Types.Position attackerPos;\n        uint256 a_offense;\n        uint256 a_defense;\n        uint256[] a_balances;\n        uint256[] a_ids;\n        Types.Position defenderPos;\n        uint256 d_offense;\n        uint256 d_defense;\n        uint256[] d_balances;\n        uint256[] d_ids;\n        uint256[] d_retreated;\n    }\n\n    GameStorage GS;\n    ITreasury TS;\n\n    function initialize(address _gameStorage) public initializer {\n        GS = GameStorage(_gameStorage);\n        TS = ITreasury(GS.getTreasuryAddress());\n        fhr = IFHR(GS.getFhrAddress());\n        solar = ISolar(GS.getSolarAddress());\n        sats = ISat(GS.getSatAddress());\n        pm = PlanetManager(GS.getPlanetManagerAddress());\n    }\n\n    function move(Types.Position memory to) public {\n        require(\n            Types.positionWithinBoundaries(to, GS.getBoundaries()),\n            'Position must be within set limits of the known universe'\n        );\n        Types.Position memory from = GS.getMasterFleetPosition(msg.sender);\n\n        if (Types.positionNotSet(from)) {\n            from = GS.getStartPosition();\n        }\n\n        require(!Types.positionIsEqual(to, from), 'You cannot move to your current location');\n\n        GS.setMasterFleetPosition(msg.sender, to);\n        emit LogMove(to.quadrant, to.district, to.sector, to.star);\n\n        if (GS.getStarSystemType(to) == Types.SystemType.Undiscovered) {\n            explore(to);\n        }\n    }\n\n    function battle(\n        uint256 a_offense,\n        uint256 a_health,\n        uint256 d_offense,\n        uint256 d_health,\n        bool defenderGoesFirst,\n        uint8 turns\n    ) internal returns (bool result) {\n        uint256 turnThreshold = 10;\n        uint256 attackerAttack = uint256(\n            a_offense.div(turnThreshold) != 0 ? a_offense.div(turnThreshold) : 1\n        );\n        uint256 defenderAttack = uint256(\n            d_offense.div(turnThreshold) != 0 ? d_offense.div(turnThreshold) : 1\n        );\n\n        uint256 nonce = attackerAttack * defenderAttack;\n        uint256 damageD;\n        uint256 damageA;\n        for (uint8 i = 0; i < turns; i++) {\n            if (defenderGoesFirst) {\n                damageD = randomrange(1, defenderAttack);\n                damageA = randomrange(1, attackerAttack);\n                emit LogRound(damageA, damageD, a_health, d_health);\n                a_health = a_health > damageD ? a_health.sub(damageD) : 0;\n                d_health = d_health > damageA ? d_health.sub(damageA) : 0;\n            } else {\n                damageD = randomrange(1, defenderAttack);\n                damageA = randomrange(1, attackerAttack);\n                d_health = d_health > damageA ? d_health.sub(damageA) : 0;\n                a_health = a_health > damageD ? a_health.sub(damageD) : 0;\n            }\n            if (a_health == 0 || d_health == 0) break;\n        }\n\n        // the result is true if the attacker wins and false if the defender wins\n        result = a_health > d_health;\n\n        emit LogBattle(result, a_health, d_health);\n    }\n\n    function calculateStats(address fleet)\n        internal\n        returns (\n            uint256 offense,\n            uint256 defense,\n            uint256[] memory balances,\n            uint256[] memory ids\n        )\n    {\n        ids = new uint256[](GS.getTotalSats());\n        address[] memory accounts = new address[](ids.length);\n        for (uint256 i = 0; i < ids.length; i++) {\n            ids[i] = i;\n            accounts[i] = fleet;\n        }\n        balances = sats.balanceOfBatch(accounts, ids);\n        (uint256[] memory offenses, uint256[] memory defenses) = GS.batchGetSatInfo(ids);\n        for (uint256 i = 0; i < balances.length; i++) {\n            (uint256 o, uint256 d) = (offenses[i], defenses[i]);\n            offense += o.mul(balances[i]);\n            defense += d.mul(balances[i]);\n        }\n    }\n\n    function attack(address defender, uint8 turns) public {\n        require(defender != msg.sender, 'You cannot attack yourself');\n        require(\n            defender != address(0) && msg.sender != address(0),\n            'Addresses must exist must exist'\n        );\n        AttackInfo memory info;\n\n        info.attackerPos = GS.getMasterFleetPosition(msg.sender);\n        info.defenderPos = GS.getMasterFleetPosition(defender);\n\n        require(\n            Types.positionIsEqual(info.attackerPos, info.defenderPos),\n            'You can only attack people at your current star location'\n        );\n\n        (info.a_offense, info.a_defense, info.a_balances, info.a_ids) = calculateStats(msg.sender);\n        (info.d_offense, info.d_defense, info.d_balances, info.d_ids) = calculateStats(defender);\n\n        emit BattleStarted(\n            msg.sender,\n            info.a_offense,\n            info.a_defense,\n            defender,\n            info.d_offense,\n            info.d_defense\n        );\n        bool result = battle(\n            info.a_offense,\n            info.a_defense,\n            info.d_offense,\n            info.d_defense,\n            true,\n            turns\n        );\n\n        if (result) {\n            for (uint256 i = 0; i < info.a_balances.length; i++) {\n                info.a_balances[i] = info.a_balances[i] > 0\n                    ? info.a_balances[i].mul(20).div(100)\n                    : 0; // 20% of attackers fleet is lost in a successful attack\n            }\n            TS.recieveSats(msg.sender, info.a_ids, info.a_balances);\n\n            info.d_retreated = new uint256[](info.d_balances.length);\n            for (uint256 i = 0; i < info.d_balances.length; i++) {\n                // 70% of defenders fleet is lost in a successful attack\n                uint256 losses = info.d_balances[i].mul(70).div(100);\n                info.d_balances[i] = info.d_balances[i] > 0 ? losses : 0;\n                info.d_retreated[i] = info.d_balances[i] > losses\n                    ? info.d_balances[i].sub(losses)\n                    : 0;\n            }\n\n            uint256 _tokenId = GS.getProxyAddressToTokenId(defender);\n            if (_tokenId > 0) {\n                // the remaining fleet managed to escape back to command\n                // while destroying the mining equipment\n                address owner = fhr.ownerOf(_tokenId);\n                TS.sendSats(owner, info.d_ids, info.d_retreated);\n                TS.transferFhr(owner, msg.sender, _tokenId);\n            }\n            TS.recieveSats(defender, info.d_ids, info.d_balances);\n        } else {\n            for (uint256 i = 0; i < info.a_balances.length; i++) {\n                info.a_balances[i] = info.a_balances[i] > 0\n                    ? info.a_balances[i].mul(90).div(100)\n                    : 0; // 20% of attackers fleet is lost in a successful attack\n            }\n            TS.recieveSats(msg.sender, info.a_ids, info.a_balances);\n\n            info.d_retreated = new uint256[](info.d_balances.length);\n            for (uint256 i = 0; i < info.d_balances.length; i++) {\n                // 70% of defenders fleet is lost in a successful attack\n                uint256 losses = info.d_balances[i].mul(10).div(100);\n                info.d_balances[i] = info.d_balances[i] > 0 ? losses : 0;\n                info.d_retreated[i] = info.d_balances[i] > losses\n                    ? info.d_balances[i].sub(losses)\n                    : 0;\n            }\n\n            TS.recieveSats(defender, info.d_ids, info.d_balances);\n        }\n    }\n\n    function explore(Types.Position memory star) internal {\n        (Types.SystemType systemType, uint256 rand) = Discovery.randomSystemType();\n        GS.setStarSystemType(star, systemType);\n        emit LogStarSystemDiscovery(msg.sender, uint8(systemType));\n\n        if (systemType == Types.SystemType.Empty) {\n            // There is nothing here.\n            return;\n        } else if (\n            systemType == Types.SystemType.AncientFleetAggressive ||\n            systemType == Types.SystemType.AdvancedAlienFleetAggressive ||\n            systemType == Types.SystemType.AlienFleetAggressive\n        ) {\n            (uint256 a_offense, uint256 a_defense) = GS.getAiFleetInfo(systemType);\n            (\n                uint256 d_offense,\n                uint256 d_defense,\n                uint256[] memory d_balances,\n                uint256[] memory d_ids\n            ) = calculateStats(msg.sender);\n\n            emit BattleStarted(\n                msg.sender,\n                a_offense,\n                a_defense,\n                address(this),\n                d_offense,\n                d_defense\n            );\n            bool result = battle(a_offense, a_defense, d_offense, d_defense, true, 10);\n        } else if (\n            systemType == Types.SystemType.LowYieldSystem ||\n            systemType == Types.SystemType.MediumYieldSystem ||\n            systemType == Types.SystemType.HighYieldSystem ||\n            systemType == Types.SystemType.InsaneYieldSystem\n        ) {\n            (uint256 low, uint256 high) = GS.getStarSystemYieldRange(systemType);\n            uint256 yield = randomrange(low, high);\n            uint256 _id = GS.incrementTotalFhr();\n            TS.mintFhr(msg.sender, _id);\n            address _address = pm.createPlanet(\n                _id,\n                abi.encodeWithSignature(\n                    'initialize(address,address,address,address,uint256,uint256)',\n                    address(pm),\n                    address(solar),\n                    address(fhr),\n                    address(sats),\n                    yield,\n                    _id\n                )\n            );\n            GS.setMasterFleetPosition(_address, star);\n            GS.setTokenIdToProxyAddress(_id, _address);\n            GS.setProxyAddressToTokenId(_id, _address);\n        } else if (systemType == Types.SystemType.ShipWreck) {\n            uint256 multiplier = rand.mod(2) == 0 ? 2 : 1;\n            Types.SatInfo memory ship = Discovery.singleAllNonAncientShips();\n            uint256[] memory ships = new uint256[](1);\n            uint256[] memory amounts = new uint256[](1);\n            ships[0] = ship.id;\n            amounts[0] = ship.amount.mul(multiplier);\n            TS.sendSats(msg.sender, ships, amounts);\n        } else if (systemType == Types.SystemType.AncientMiningSystem) {\n            Types.SatInfo memory ship = Discovery.singleAncientMiningShip();\n            uint256[] memory ships = new uint256[](1);\n            uint256[] memory amounts = new uint256[](1);\n            ships[0] = ship.id;\n            amounts[0] = ship.amount;\n            TS.sendSats(msg.sender, ships, amounts);\n        }\n    }\n}\n",
  "sourcePath": "C:\\Users\\James\\projects\\tsuno-fe\\contracts\\GameOperations.sol",
  "compiler": {
    "name": "solc",
    "version": "0.6.12+commit.27d51765.Emscripten.clang"
  },
  "schemaVersion": "3.2.5",
  "updatedAt": "2020-10-20T18:48:17.412Z",
  "networkType": "ethereum",
  "devdoc": {
    "author": "Big Beluga Primary public function for entering into the protocol",
    "kind": "dev",
    "methods": {},
    "title": "Operation",
    "version": 1
  },
  "userdoc": {
    "kind": "user",
    "methods": {},
    "version": 1
  }
}