{
  "contractName": "GameOperations",
  "abi": [
    {
      "anonymous": false,
      "inputs": [
        {
          "indexed": false,
          "internalType": "address",
          "name": "attacker",
          "type": "address"
        },
        {
          "indexed": false,
          "internalType": "uint256",
          "name": "attackerOffense",
          "type": "uint256"
        },
        {
          "indexed": false,
          "internalType": "uint256",
          "name": "attackerDefense",
          "type": "uint256"
        },
        {
          "indexed": false,
          "internalType": "address",
          "name": "defender",
          "type": "address"
        },
        {
          "indexed": false,
          "internalType": "uint256",
          "name": "defenderOffense",
          "type": "uint256"
        },
        {
          "indexed": false,
          "internalType": "uint256",
          "name": "defenderDefense",
          "type": "uint256"
        }
      ],
      "name": "BattleStarted",
      "type": "event"
    },
    {
      "anonymous": false,
      "inputs": [
        {
          "indexed": false,
          "internalType": "bool",
          "name": "result",
          "type": "bool"
        },
        {
          "indexed": false,
          "internalType": "uint256",
          "name": "attackersHealth",
          "type": "uint256"
        },
        {
          "indexed": false,
          "internalType": "uint256",
          "name": "defendersHealth",
          "type": "uint256"
        }
      ],
      "name": "LogBattle",
      "type": "event"
    },
    {
      "anonymous": false,
      "inputs": [
        {
          "indexed": false,
          "internalType": "uint8",
          "name": "quadrant",
          "type": "uint8"
        },
        {
          "indexed": false,
          "internalType": "uint8",
          "name": "district",
          "type": "uint8"
        },
        {
          "indexed": false,
          "internalType": "uint8",
          "name": "sector",
          "type": "uint8"
        },
        {
          "indexed": false,
          "internalType": "uint256",
          "name": "star",
          "type": "uint256"
        }
      ],
      "name": "LogMove",
      "type": "event"
    },
    {
      "anonymous": false,
      "inputs": [
        {
          "indexed": false,
          "internalType": "address",
          "name": "proxy",
          "type": "address"
        },
        {
          "indexed": false,
          "internalType": "uint256",
          "name": "tokenId",
          "type": "uint256"
        }
      ],
      "name": "LogPlanetProxyCreated",
      "type": "event"
    },
    {
      "anonymous": false,
      "inputs": [
        {
          "indexed": false,
          "internalType": "uint256",
          "name": "aDamage",
          "type": "uint256"
        },
        {
          "indexed": false,
          "internalType": "uint256",
          "name": "dDamage",
          "type": "uint256"
        },
        {
          "indexed": false,
          "internalType": "uint256",
          "name": "aHealth",
          "type": "uint256"
        },
        {
          "indexed": false,
          "internalType": "uint256",
          "name": "dHealth",
          "type": "uint256"
        }
      ],
      "name": "LogRound",
      "type": "event"
    },
    {
      "anonymous": false,
      "inputs": [
        {
          "indexed": true,
          "internalType": "address",
          "name": "to",
          "type": "address"
        },
        {
          "indexed": false,
          "internalType": "uint8",
          "name": "systemType",
          "type": "uint8"
        }
      ],
      "name": "LogStarSystemDiscovery",
      "type": "event"
    },
    {
      "anonymous": false,
      "inputs": [
        {
          "indexed": false,
          "internalType": "uint256",
          "name": "random",
          "type": "uint256"
        }
      ],
      "name": "Random",
      "type": "event"
    },
    {
      "inputs": [
        {
          "internalType": "enum Types.SystemType",
          "name": "systemType",
          "type": "uint8"
        }
      ],
      "name": "getRandomYield",
      "outputs": [
        {
          "internalType": "uint16",
          "name": "rand",
          "type": "uint16"
        }
      ],
      "stateMutability": "view",
      "type": "function"
    },
    {
      "inputs": [
        {
          "internalType": "uint256",
          "name": "_seed",
          "type": "uint256"
        }
      ],
      "name": "setSeed",
      "outputs": [],
      "stateMutability": "nonpayable",
      "type": "function"
    },
    {
      "inputs": [
        {
          "internalType": "address",
          "name": "_gameStorage",
          "type": "address"
        }
      ],
      "name": "initialize",
      "outputs": [],
      "stateMutability": "nonpayable",
      "type": "function"
    },
    {
      "inputs": [
        {
          "components": [
            {
              "internalType": "uint8",
              "name": "quadrant",
              "type": "uint8"
            },
            {
              "internalType": "uint8",
              "name": "sector",
              "type": "uint8"
            },
            {
              "internalType": "uint8",
              "name": "district",
              "type": "uint8"
            },
            {
              "internalType": "uint256",
              "name": "star",
              "type": "uint256"
            }
          ],
          "internalType": "struct Types.Position",
          "name": "to",
          "type": "tuple"
        }
      ],
      "name": "move",
      "outputs": [],
      "stateMutability": "nonpayable",
      "type": "function"
    },
    {
      "inputs": [
        {
          "internalType": "address",
          "name": "defender",
          "type": "address"
        },
        {
          "internalType": "uint8",
          "name": "turns",
          "type": "uint8"
        }
      ],
      "name": "attack",
      "outputs": [],
      "stateMutability": "nonpayable",
      "type": "function"
    },
    {
      "inputs": [
        {
          "internalType": "uint256",
          "name": "tokenId",
          "type": "uint256"
        }
      ],
      "name": "deployPlanet",
      "outputs": [],
      "stateMutability": "nonpayable",
      "type": "function"
    }
  ],
  "bytecode": "0x6080604052600160345534801561001557600080fd5b50612c65806100256000396000f3fe608060405234801561001057600080fd5b50600436106100615760003560e01c80626c2f3a146100665780636ebb6d801461008f57806383954f16146100a45780638e905cfd146100b7578063c32a50f9146100ca578063c4d66de8146100dd575b600080fd5b6100796100743660046124d9565b6100f0565b6040516100869190612b29565b60405180910390f35b6100a261009d366004612405565b6100f6565b005b6100a26100b23660046125d3565b610a4e565b6100a26100c5366004612511565b610d63565b6100a26100d83660046125d3565b6110a6565b6100a26100eb3660046123cd565b6110ab565b50600090565b6001600160a01b0382163314156101285760405162461bcd60e51b815260040161011f90612a1c565b60405180910390fd5b6001600160a01b0382161580159061013f57503315155b61015b5760405162461bcd60e51b815260040161011f90612956565b6101636122c0565b603954604051633495a7e360e11b81526001600160a01b039091169063692b4fc690610193903390600401612704565b60806040518083038186803b1580156101ab57600080fd5b505afa1580156101bf573d6000803e3d6000fd5b505050506040513d601f19601f820116820180604052508101906101e39190612572565b8152603954604051633495a7e360e11b81526001600160a01b039091169063692b4fc690610215908690600401612704565b60806040518083038186803b15801561022d57600080fd5b505afa158015610241573d6000803e3d6000fd5b505050506040513d601f19601f820116820180604052508101906102659190612572565b60a08201819052815161027791611426565b6102935760405162461bcd60e51b815260040161011f90612a53565b61029c33611483565b60808501526060840152604083015260208201526102b983611483565b61012085015261010084015260e0830181905260c08301829052602083015160408085015190517f39c31677b1650d5b983fb38bf1ee25e9ca25658b8bdfb9263e59651183b483689461031394339493928a92919061278e565b60405180910390a1600061033c826020015183604001518460c001518560e001516001886117a4565b905080156107d45760005b8260600151518110156103d35760008360600151828151811061036657fe5b60200260200101511161037a5760006103b0565b6103b060646103aa60148660600151858151811061039457fe5b602002602001015161195690919063ffffffff16565b90611990565b836060015182815181106103c057fe5b6020908102919091010152600101610347565b50603a546080830151606084015160405163feba2dd560e01b81526001600160a01b039093169263feba2dd59261040e923392600401612718565b600060405180830381600087803b15801561042857600080fd5b505af115801561043c573d6000803e3d6000fd5b505050508161010001515167ffffffffffffffff8111801561045d57600080fd5b50604051908082528060200260200182016040528015610487578160200160208202803683370190505b5061014083015260005b8261010001515181101561057a5760006104bc60646103aa6046876101000151868151811061039457fe5b9050600084610100015183815181106104d157fe5b6020026020010151116104e55760006104e7565b805b84610100015183815181106104f857fe5b60200260200101818152505080846101000151838151811061051657fe5b60200260200101511161052a576000610555565b61055581856101000151848151811061053f57fe5b60200260200101516119d290919063ffffffff16565b846101400151838151811061056657fe5b602090810291909101015250600101610491565b50603954604051634ec7272b60e11b81526000916001600160a01b031690639d8e4e56906105ac908890600401612704565b60206040518083038186803b1580156105c457600080fd5b505afa1580156105d8573d6000803e3d6000fd5b505050506040513d601f19601f820116820180604052508101906105fc91906125eb565b90508015610760576035546040516331a9108f60e11b81526000916001600160a01b031690636352211e90610635908590600401612b38565b60206040518083038186803b15801561064d57600080fd5b505afa158015610661573d6000803e3d6000fd5b505050506040513d601f19601f8201168201806040525081019061068591906123e9565b603a5461012086015161014087015160405163ba1edf1760e01b81529394506001600160a01b039092169263ba1edf17926106c7928692909190600401612718565b600060405180830381600087803b1580156106e157600080fd5b505af11580156106f5573d6000803e3d6000fd5b5050603a54604051624f9d7360e21b81526001600160a01b03909116925063013e75cc915061072c908490339087906004016127c8565b600060405180830381600087803b15801561074657600080fd5b505af115801561075a573d6000803e3d6000fd5b50505050505b603a5461012084015161010085015160405163feba2dd560e01b81526001600160a01b039093169263feba2dd59261079c928a92600401612718565b600060405180830381600087803b1580156107b657600080fd5b505af11580156107ca573d6000803e3d6000fd5b5050505050610a48565b60005b826060015151811015610847576000836060015182815181106107f657fe5b60200260200101511161080a576000610824565b61082460646103aa605a8660600151858151811061039457fe5b8360600151828151811061083457fe5b60209081029190910101526001016107d7565b50603a546080830151606084015160405163feba2dd560e01b81526001600160a01b039093169263feba2dd592610882923392600401612718565b600060405180830381600087803b15801561089c57600080fd5b505af11580156108b0573d6000803e3d6000fd5b505050508161010001515167ffffffffffffffff811180156108d157600080fd5b506040519080825280602002602001820160405280156108fb578160200160208202803683370190505b5061014083015260005b826101000151518110156109d857600061093060646103aa600a876101000151868151811061039457fe5b90506000846101000151838151811061094557fe5b60200260200101511161095957600061095b565b805b846101000151838151811061096c57fe5b60200260200101818152505080846101000151838151811061098a57fe5b60200260200101511161099e5760006109b3565b6109b381856101000151848151811061053f57fe5b84610140015183815181106109c457fe5b602090810291909101015250600101610905565b50603a5461012083015161010084015160405163feba2dd560e01b81526001600160a01b039093169263feba2dd592610a15928992600401612718565b600060405180830381600087803b158015610a2f57600080fd5b505af1158015610a43573d6000803e3d6000fd5b505050505b50505050565b6035546040516331a9108f60e11b8152829133916001600160a01b0390911690636352211e90610a82908590600401612b38565b60206040518083038186803b158015610a9a57600080fd5b505afa158015610aae573d6000803e3d6000fd5b505050506040513d601f19601f82011682018060405250810190610ad291906123e9565b6001600160a01b031614610af85760405162461bcd60e51b815260040161011f9061292c565b6039546040516305f941bf60e51b81526000916001600160a01b03169063bf2837e090610b29908690600401612b38565b60206040518083038186803b158015610b4157600080fd5b505afa158015610b55573d6000803e3d6000fd5b505050506040513d601f19601f82011682018060405250810190610b7991906125eb565b6038546036546035546037546040519495506000946001600160a01b03948516946320515251948a94610bbf948894928416939182169291169086908b906024016127ec565b60408051601f198184030181529181526020820180516001600160e01b031663d7c41c7960e01b1790525160e084901b6001600160e01b0319168152610c09929190600401612b58565b602060405180830381600087803b158015610c2357600080fd5b505af1158015610c37573d6000803e3d6000fd5b505050506040513d601f19601f82011682018060405250810190610c5b91906123e9565b60395460405163f52084e960e01b81529192506001600160a01b03169063f52084e990610c8e9087908590600401612b41565b600060405180830381600087803b158015610ca857600080fd5b505af1158015610cbc573d6000803e3d6000fd5b50506039546040516375997ce960e01b81526001600160a01b0390911692506375997ce99150610cf29087908590600401612b41565b600060405180830381600087803b158015610d0c57600080fd5b505af1158015610d20573d6000803e3d6000fd5b505050507fdb89c7408779c905195fcba466a0677b3c6cf1d715f798cea48a9aab5163e1428185604051610d55929190612775565b60405180910390a150505050565b610df281603960009054906101000a90046001600160a01b03166001600160a01b031663cf677f576040518163ffffffff1660e01b815260040160806040518083038186803b158015610db557600080fd5b505afa158015610dc9573d6000803e3d6000fd5b505050506040513d601f19601f82011682018060405250810190610ded9190612572565b611a14565b610e0e5760405162461bcd60e51b815260040161011f906128cf565b610e16612326565b603954604051633495a7e360e11b81526001600160a01b039091169063692b4fc690610e46903390600401612704565b60806040518083038186803b158015610e5e57600080fd5b505afa158015610e72573d6000803e3d6000fd5b505050506040513d601f19601f82011682018060405250810190610e969190612572565b9050610ea181611ac7565b15610f2f57603960009054906101000a90046001600160a01b03166001600160a01b0316636d18c9706040518163ffffffff1660e01b815260040160806040518083038186803b158015610ef457600080fd5b505afa158015610f08573d6000803e3d6000fd5b505050506040513d601f19601f82011682018060405250810190610f2c9190612572565b90505b610f398282611426565b15610f565760405162461bcd60e51b815260040161011f90612ab0565b60395460405163bedc6d2760e01b81526001600160a01b039091169063bedc6d2790610f889033908690600401612758565b600060405180830381600087803b158015610fa257600080fd5b505af1158015610fb6573d6000803e3d6000fd5b505050507f067ed149b8be43d30a47ed69bc882367f66239804079b28dd002d36fc3f46ed48260000151836040015184602001518560600151604051610fff9493929190612ba8565b60405180910390a16039546040516348bed1c960e11b81526000916001600160a01b03169063917da39290611038908690600401612af8565b60206040518083038186803b15801561105057600080fd5b505afa158015611064573d6000803e3d6000fd5b505050506040513d601f19601f8201168201806040525081019061108891906124f5565b601481111561109357fe5b14156110a2576110a282611b05565b5050565b603355565b600054610100900460ff16806110c457506110c4611f67565b806110d2575060005460ff16155b6110ee5760405162461bcd60e51b815260040161011f906129ce565b600054610100900460ff16158015611119576000805460ff1961ff0019909116610100171660011790555b603980546001600160a01b0319166001600160a01b03848116919091179182905560408051633800918160e21b81529051929091169163e002460491600480820192602092909190829003018186803b15801561117557600080fd5b505afa158015611189573d6000803e3d6000fd5b505050506040513d601f19601f820116820180604052508101906111ad91906123e9565b603a80546001600160a01b0319166001600160a01b0392831617905560395460408051637718403560e01b8152905191909216916377184035916004808301926020929190829003018186803b15801561120657600080fd5b505afa15801561121a573d6000803e3d6000fd5b505050506040513d601f19601f8201168201806040525081019061123e91906123e9565b603580546001600160a01b0319166001600160a01b039283161790556039546040805163123cfce160e01b81529051919092169163123cfce1916004808301926020929190829003018186803b15801561129757600080fd5b505afa1580156112ab573d6000803e3d6000fd5b505050506040513d601f19601f820116820180604052508101906112cf91906123e9565b603680546001600160a01b0319166001600160a01b0392831617905560395460408051635beec2bb60e01b815290519190921691635beec2bb916004808301926020929190829003018186803b15801561132857600080fd5b505afa15801561133c573d6000803e3d6000fd5b505050506040513d601f19601f8201168201806040525081019061136091906123e9565b603780546001600160a01b0319166001600160a01b0392831617905560395460408051633dd742c960e01b815290519190921691633dd742c9916004808301926020929190829003018186803b1580156113b957600080fd5b505afa1580156113cd573d6000803e3d6000fd5b505050506040513d601f19601f820116820180604052508101906113f191906123e9565b603880546001600160a01b0319166001600160a01b039290921691909117905580156110a2576000805461ff00191690555050565b8051825160009160ff918216911614801561144e5750816040015160ff16836040015160ff16145b80156114675750816020015160ff16836020015160ff16145b801561147a575081606001518360600151145b90505b92915050565b600080606080603960009054906101000a90046001600160a01b03166001600160a01b031663e2cd08626040518163ffffffff1660e01b815260040160206040518083038186803b1580156114d757600080fd5b505afa1580156114eb573d6000803e3d6000fd5b505050506040513d601f19601f8201168201806040525081019061150f91906125eb565b67ffffffffffffffff8111801561152557600080fd5b5060405190808252806020026020018201604052801561154f578160200160208202803683370190505b5090506060815167ffffffffffffffff8111801561156c57600080fd5b50604051908082528060200260200182016040528015611596578160200160208202803683370190505b50905060005b82518110156115eb57808382815181106115b257fe5b602002602001018181525050868282815181106115cb57fe5b6001600160a01b039092166020928302919091019091015260010161159c565b506037546040516313849cfd60e21b81526001600160a01b0390911690634e1273f49061161e9084908690600401612826565b60006040518083038186803b15801561163657600080fd5b505afa15801561164a573d6000803e3d6000fd5b505050506040513d6000823e601f3d908101601f19168201604052611672919081019061243d565b603954604051637008ec1b60e11b815291945060609182916001600160a01b03169063e011d836906116a890879060040161287c565b60006040518083038186803b1580156116c057600080fd5b505afa1580156116d4573d6000803e3d6000fd5b505050506040513d6000823e601f3d908101601f191682016040526116fc9190810190612478565b9150915060005b85518110156117995760008084838151811061171b57fe5b602002602001015184848151811061172f57fe5b60200260200101519150915061176188848151811061174a57fe5b60200260200101518361195690919063ffffffff16565b8a01995061178b88848151811061177457fe5b60200260200101518261195690919063ffffffff16565b909801975050600101611703565b505050509193509193565b6000600a816117b38983611990565b6117be5760016117c8565b6117c88983611990565b905060006117d68884611990565b6117e15760016117eb565b6117eb8884611990565b9050818102600080805b8860ff168160ff16101561190557891561189957611814600186611f6d565b9250611821600187611f6d565b91507f3ab8d16fa0445f4581f0e35996348d2507338000fb353856d56f5db15618e39482848f8e6040516118589493929190612b7f565b60405180910390a1828d1161186e576000611878565b6118788d846119d2565b9c50818b11611888576000611892565b6118928b836119d2565b9a506118e8565b6118a4600186611f6d565b92506118b1600187611f6d565b9150818b116118c15760006118cb565b6118cb8b836119d2565b9a50828d116118db5760006118e5565b6118e58d846119d2565b9c505b8c15806118f357508a155b156118fd57611905565b6001016117f5565b50898c1196507fa09af1f69f0376e675eb9a774ff51b588670dda43c3dd6805069596312e3bca5878d8c60405161193e9392919061288f565b60405180910390a15050505050509695505050505050565b6000826119655750600061147d565b8282028284828161197257fe5b041461147a5760405162461bcd60e51b815260040161011f9061298d565b600061147a83836040518060400160405280601a81526020017f536166654d6174683a206469766973696f6e206279207a65726f000000000000815250612007565b600061147a83836040518060400160405280601e81526020017f536166654d6174683a207375627472616374696f6e206f766572666c6f770000815250612040565b815160009060ff161580611a3057508151835160ff9182169116115b15611a3d5750600061147d565b604083015160ff161580611a5e5750816040015160ff16836040015160ff16115b15611a6b5750600061147d565b602083015160ff161580611a8c5750816020015160ff16836020015160ff16115b15611a995750600061147d565b60608301511580611ab1575081606001518360600151115b15611abe5750600061147d565b50600192915050565b805160009060ff161580611ae05750604082015160ff16155b80611af05750602082015160ff16155b80611afd57506060820151155b90505b919050565b600080611b1061206c565b60395460405163083b214d60e41b81529294509092506001600160a01b0316906383b214d090611b469086908690600401612b06565b600060405180830381600087803b158015611b6057600080fd5b505af1158015611b74573d6000803e3d6000fd5b50505050336001600160a01b03167f119eeac2475e395d798da3c40d9f901a3131b79a826c604a60d078764e8ce408836014811115611baf57fe5b604051611bbc9190612b9a565b60405180910390a26009826014811115611bd257fe5b1415611bdf575050611f64565b6001826014811115611bed57fe5b1480611c0457506003826014811115611c0257fe5b145b80611c1a57506005826014811115611c1857fe5b145b15611d2157603954604051636a2a747360e01b815260009182916001600160a01b0390911690636a2a747390611c549087906004016128a7565b6040805180830381600087803b158015611c6d57600080fd5b505af1158015611c81573d6000803e3d6000fd5b505050506040513d601f19601f82011682018060405250810190611ca59190612603565b91509150600080606080611cb833611483565b93509350935093507f39c31677b1650d5b983fb38bf1ee25e9ca25658b8bdfb9263e59651183b48368338787308888604051611cf99695949392919061278e565b60405180910390a16000611d13878787876001600a6117a4565b905050505050505050611f61565b600b826014811115611d2f57fe5b1480611d465750600d826014811115611d4457fe5b145b80611d5c5750600f826014811115611d5a57fe5b145b80611d7257506013826014811115611d7057fe5b145b15611f6157603954604051634f4815d760e01b815260009182916001600160a01b0390911690634f4815d790611dac9087906004016128a7565b6040805180830381600087803b158015611dc557600080fd5b505af1158015611dd9573d6000803e3d6000fd5b505050506040513d601f19601f82011682018060405250810190611dfd9190612603565b915091506000603960009054906101000a90046001600160a01b03166001600160a01b03166304d5aae16040518163ffffffff1660e01b8152600401602060405180830381600087803b158015611e5357600080fd5b505af1158015611e67573d6000803e3d6000fd5b505050506040513d601f19601f82011682018060405250810190611e8b91906125eb565b6039549091506001600160a01b0316634b087b2282611eaa8686611f6d565b6040518363ffffffff1660e01b8152600401611ec7929190612b71565b600060405180830381600087803b158015611ee157600080fd5b505af1158015611ef5573d6000803e3d6000fd5b5050603a5460405163a080ee1560e01b81526001600160a01b03909116925063a080ee159150611f2b9033908590600401612775565b600060405180830381600087803b158015611f4557600080fd5b505af1158015611f59573d6000803e3d6000fd5b505050505050505b50505b50565b303b1590565b60008133603354603454604051602001611f89939291906126da565b6040516020818303038152906040528051906020012060001c81611fa957fe5b069050828110611fb95780611fbd565b8281015b6034805460010190556040519091507fbcf69e7223438137d9099bb71b1772c3eb2a5a8840750b247913cd6fd4d249d590611ff9908390612b38565b60405180910390a192915050565b600081836120285760405162461bcd60e51b815260040161011f91906128bc565b50600083858161203457fe5b049150505b9392505050565b600081848411156120645760405162461bcd60e51b815260040161011f91906128bc565b505050900390565b600080612710606482612080600184611f6d565b9050806001141561209457600194506122b9565b80602a14156120a657600294506122b9565b8160050281116120b957600394506122b9565b81600502811180156120ce575081600a028111155b156120dc57600494506122b9565b81600a02811180156120f15750816014028111155b156120ff57600594506122b9565b8160140281118015612114575081601e028111155b1561212257600694506122b9565b81601e02811180156121375750816023028111155b1561214557600794506122b9565b816023028111801561215a5750816028028111155b1561216857600894506122b9565b816028028111801561217d5750816041028111155b1561218b57600b94506122b9565b81604102811180156121a05750816046028111155b156121ae57600c94506122b9565b81604602811180156121c3575081604b168111155b156121d157600d94506122b9565b81604602811180156121e65750816050168111155b156121f457600e94506122b9565b81605002811180156122095750816055168111155b1561221757600f94506122b9565b816055028111801561222c575081605a168111155b1561223a57601094506122b9565b81605a028111801561224f575081605f168111155b1561225d57601194506122b9565b81605f02811180156122725750816063168111155b1561228057601294506122b9565b81606302811180156122955750600183038111155b156122a357601394506122b9565b828114156122b457601494506122b9565b600994505b5050509091565b6040518061016001604052806122d4612326565b8152602001600081526020016000815260200160608152602001606081526020016122fd612326565b815260200160008152602001600081526020016060815260200160608152602001606081525090565b60408051608081018252600080825260208201819052918101829052606081019190915290565b600082601f83011261235d578081fd5b815167ffffffffffffffff811115612373578182fd5b6020808202612383828201612bcc565b8381529350818401858301828701840188101561239f57600080fd5b600092505b848310156123c25780518252600192909201919083019083016123a4565b505050505092915050565b6000602082840312156123de578081fd5b813561147a81612bfe565b6000602082840312156123fa578081fd5b815161147a81612bfe565b60008060408385031215612417578081fd5b823561242281612bfe565b9150602083013561243281612c20565b809150509250929050565b60006020828403121561244e578081fd5b815167ffffffffffffffff811115612464578182fd5b6124708482850161234d565b949350505050565b6000806040838503121561248a578182fd5b825167ffffffffffffffff808211156124a1578384fd5b6124ad8683870161234d565b935060208501519150808211156124c2578283fd5b506124cf8582860161234d565b9150509250929050565b6000602082840312156124ea578081fd5b813561147a81612c13565b600060208284031215612506578081fd5b815161147a81612c13565b600060808284031215612522578081fd5b61252c6080612bcc565b823561253781612c20565b8152602083013561254781612c20565b6020820152604083013561255a81612c20565b60408201526060928301359281019290925250919050565b600060808284031215612583578081fd5b61258d6080612bcc565b825161259881612c20565b815260208301516125a881612c20565b602082015260408301516125bb81612c20565b60408201526060928301519281019290925250919050565b6000602082840312156125e4578081fd5b5035919050565b6000602082840312156125fc578081fd5b5051919050565b60008060408385031215612615578182fd5b505080516020909101519092909150565b6000815180845260208085019450808401835b8381101561265557815187529582019590820190600101612639565b509495945050505050565b60008151808452815b8181101561268557602081850181015186830182015201612669565b818111156126965782602083870101525b50601f01601f19169290920160200192915050565b60ff815116825260ff602082015116602083015260ff6040820151166040830152606081015160608301525050565b60609390931b6bffffffffffffffffffffffff191683526014830191909152603482015260540190565b6001600160a01b0391909116815260200190565b6001600160a01b038416815260606020820181905260009061273c90830185612626565b828103604084015261274e8185612626565b9695505050505050565b6001600160a01b038316815260a0810161203960208301846126ab565b6001600160a01b03929092168252602082015260400190565b6001600160a01b0396871681526020810195909552604085019390935293166060830152608082019290925260a081019190915260c00190565b6001600160a01b039384168152919092166020820152604081019190915260600190565b6001600160a01b0396871681529486166020860152928516604085015293166060830152608082019290925260a081019190915260c00190565b604080825283519082018190526000906020906060840190828701845b828110156128685781516001600160a01b031684529284019290840190600101612843565b5050508381038285015261274e8186612626565b60006020825261147a6020830184612626565b92151583526020830191909152604082015260600190565b602081016128b483612bf3565b825292915050565b60006020825261147a6020830184612660565b60208082526038908201527f506f736974696f6e206d7573742062652077697468696e20736574206c696d6960408201527f7473206f6620746865206b6e6f776e20756e6976657273650000000000000000606082015260800190565b60208082526010908201526f29b2b73232b9103737ba1037bbb732b960811b604082015260600190565b6020808252601f908201527f416464726573736573206d757374206578697374206d75737420657869737400604082015260600190565b60208082526021908201527f536166654d6174683a206d756c7469706c69636174696f6e206f766572666c6f6040820152607760f81b606082015260800190565b6020808252602e908201527f436f6e747261637420696e7374616e63652068617320616c726561647920626560408201526d195b881a5b9a5d1a585b1a5e995960921b606082015260800190565b6020808252601a908201527f596f752063616e6e6f742061747461636b20796f757273656c66000000000000604082015260600190565b60208082526038908201527f596f752063616e206f6e6c792061747461636b2070656f706c6520617420796f60408201527f75722063757272656e742073746172206c6f636174696f6e0000000000000000606082015260800190565b60208082526028908201527f596f752063616e6e6f74206d6f766520746f20796f75722063757272656e74206040820152673637b1b0ba34b7b760c11b606082015260800190565b6080810161147d82846126ab565b60a08101612b1482856126ab565b612b1d83612bf3565b60808301529392505050565b61ffff91909116815260200190565b90815260200190565b9182526001600160a01b0316602082015260400190565b6000838252604060208301526124706040830184612660565b918252602082015260400190565b93845260208401929092526040830152606082015260800190565b60ff91909116815260200190565b60ff9485168152928416602084015292166040820152606081019190915260800190565b60405181810167ffffffffffffffff81118282101715612beb57600080fd5b604052919050565b8060158110611b0057fe5b6001600160a01b0381168114611f6457600080fd5b60158110611f6457600080fd5b60ff81168114611f6457600080fdfea26469706673582212205688e872addb36791a72981ded1ba184eb58f82482c42a1d8b57427abea35b6664736f6c634300060c0033",
  "immutableReferences": {},
  "source": "// SPDX-License-Identifier: MIT\n\npragma solidity 0.6.12;\npragma experimental ABIEncoderV2;\n\nimport {GameStorage} from './GameStorage.sol';\nimport {SafeMath} from '@openzeppelin/contracts/math/SafeMath.sol';\nimport {Initializable} from '@openzeppelin/upgrades-core/contracts/Initializable.sol';\nimport {Types} from './lib/Types.sol';\nimport {Discovery} from './Discovery.sol';\nimport {ITreasury} from './interfaces/ITreasury.sol';\nimport {IFHR} from './interfaces/IFHR.sol';\nimport {ISolar} from './interfaces/ISolar.sol';\nimport {ISat} from './interfaces/ISat.sol';\nimport {PlanetManager} from './PlanetManager.sol';\nimport {GameStorage} from './GameStorage.sol';\n\n/**\n * @title Operation\n * @author Big Beluga\n *\n * Primary public function for entering into the protocol\n */\ncontract GameOperations is Initializable, Discovery {\n    using SafeMath for uint256;\n    IFHR fhr;\n    ISolar solar;\n    ISat sats;\n    PlanetManager pm;\n    // ============ Constants ============\n    event LogMove(uint8 quadrant, uint8 district, uint8 sector, uint256 star);\n    event LogStarSystemDiscovery(address indexed to, uint8 systemType);\n    event LogBattle(bool result, uint256 attackersHealth, uint256 defendersHealth);\n    event LogPlanetProxyCreated(address proxy, uint256 tokenId);\n    event Random(uint256 random);\n    event LogRound(uint256 aDamage, uint256 dDamage, uint256 aHealth, uint256 dHealth);\n    event BattleStarted(\n        address attacker,\n        uint256 attackerOffense,\n        uint256 attackerDefense,\n        address defender,\n        uint256 defenderOffense,\n        uint256 defenderDefense\n    );\n\n    struct AttackInfo {\n        Types.Position attackerPos;\n        uint256 a_offense;\n        uint256 a_defense;\n        uint256[] a_balances;\n        uint256[] a_ids;\n        Types.Position defenderPos;\n        uint256 d_offense;\n        uint256 d_defense;\n        uint256[] d_balances;\n        uint256[] d_ids;\n        uint256[] d_retreated;\n    }\n\n    GameStorage GS;\n    ITreasury TS;\n\n    modifier onlyTokenHolder(uint256 tokenId) {\n        require(fhr.ownerOf(tokenId) == msg.sender, 'Sender not owner');\n        _;\n    }\n\n    function initialize(address _gameStorage) public initializer {\n        GS = GameStorage(_gameStorage);\n        TS = ITreasury(GS.getTreasuryAddress());\n        fhr = IFHR(GS.getFhrAddress());\n        solar = ISolar(GS.getSolarAddress());\n        sats = ISat(GS.getSatAddress());\n        pm = PlanetManager(GS.getPlanetManagerAddress());\n    }\n\n    function move(Types.Position memory to) public {\n        require(\n            Types.positionWithinBoundaries(to, GS.getBoundaries()),\n            'Position must be within set limits of the known universe'\n        );\n        Types.Position memory from = GS.getMasterFleetPosition(msg.sender);\n\n        if (Types.positionNotSet(from)) {\n            from = GS.getStartPosition();\n        }\n\n        require(!Types.positionIsEqual(to, from), 'You cannot move to your current location');\n\n        GS.setMasterFleetPosition(msg.sender, to);\n        emit LogMove(to.quadrant, to.district, to.sector, to.star);\n\n        if (GS.getStarSystemType(to) == Types.SystemType.Undiscovered) {\n            explore(to);\n        }\n    }\n\n    function battle(\n        uint256 a_offense,\n        uint256 a_health,\n        uint256 d_offense,\n        uint256 d_health,\n        bool defenderGoesFirst,\n        uint8 turns\n    ) internal returns (bool result) {\n        uint256 turnThreshold = 10;\n        uint256 attackerAttack = uint256(\n            a_offense.div(turnThreshold) != 0 ? a_offense.div(turnThreshold) : 1\n        );\n        uint256 defenderAttack = uint256(\n            d_offense.div(turnThreshold) != 0 ? d_offense.div(turnThreshold) : 1\n        );\n\n        uint256 nonce = attackerAttack * defenderAttack;\n        uint256 damageD;\n        uint256 damageA;\n        for (uint8 i = 0; i < turns; i++) {\n            if (defenderGoesFirst) {\n                damageD = randomrange(1, defenderAttack);\n                damageA = randomrange(1, attackerAttack);\n                emit LogRound(damageA, damageD, a_health, d_health);\n                a_health = a_health > damageD ? a_health.sub(damageD) : 0;\n                d_health = d_health > damageA ? d_health.sub(damageA) : 0;\n            } else {\n                damageD = randomrange(1, defenderAttack);\n                damageA = randomrange(1, attackerAttack);\n                d_health = d_health > damageA ? d_health.sub(damageA) : 0;\n                a_health = a_health > damageD ? a_health.sub(damageD) : 0;\n            }\n            if (a_health == 0 || d_health == 0) break;\n        }\n\n        // the result is true if the attacker wins and false if the defender wins\n        result = a_health > d_health;\n\n        emit LogBattle(result, a_health, d_health);\n    }\n\n    function calculateStats(address fleet)\n        internal\n        returns (\n            uint256 offense,\n            uint256 defense,\n            uint256[] memory balances,\n            uint256[] memory ids\n        )\n    {\n        ids = new uint256[](GS.getTotalSats());\n        address[] memory accounts = new address[](ids.length);\n        for (uint256 i = 0; i < ids.length; i++) {\n            ids[i] = i;\n            accounts[i] = fleet;\n        }\n        balances = sats.balanceOfBatch(accounts, ids);\n        (uint256[] memory offenses, uint256[] memory defenses) = GS.batchGetSatInfo(ids);\n        for (uint256 i = 0; i < balances.length; i++) {\n            (uint256 o, uint256 d) = (offenses[i], defenses[i]);\n            offense += o.mul(balances[i]);\n            defense += d.mul(balances[i]);\n        }\n    }\n\n    function attack(address defender, uint8 turns) public {\n        require(defender != msg.sender, 'You cannot attack yourself');\n        require(defender != address(0) && msg.sender != address(0), 'Addresses must exist must exist');\n        AttackInfo memory info;\n\n        info.attackerPos = GS.getMasterFleetPosition(msg.sender);\n        info.defenderPos = GS.getMasterFleetPosition(defender);\n\n        require(\n            Types.positionIsEqual(info.attackerPos, info.defenderPos),\n            'You can only attack people at your current star location'\n        );\n\n        (info.a_offense, info.a_defense, info.a_balances, info.a_ids) = calculateStats(msg.sender);\n        (info.d_offense, info.d_defense, info.d_balances, info.d_ids) = calculateStats(defender);\n\n        emit BattleStarted(\n            msg.sender,\n            info.a_offense,\n            info.a_defense,\n            defender,\n            info.d_offense,\n            info.d_defense\n        );\n        bool result = battle(info.a_offense, info.a_defense, info.d_offense, info.d_defense, true, turns);\n\n        if (result) {\n            for (uint256 i = 0; i < info.a_balances.length; i++) {\n                info.a_balances[i] = info.a_balances[i] > 0 ? info.a_balances[i].mul(20).div(100) : 0; // 20% of attackers fleet is lost in a successful attack\n            }\n            TS.recieveSats(msg.sender, info.a_ids, info.a_balances);\n\n            info.d_retreated = new uint256[](info.d_balances.length);\n            for (uint256 i = 0; i < info.d_balances.length; i++) {\n                // 70% of defenders fleet is lost in a successful attack\n                uint256 losses = info.d_balances[i].mul(70).div(100);\n                info.d_balances[i] = info.d_balances[i] > 0 ? losses : 0;\n                info.d_retreated[i] = info.d_balances[i] > losses ? info.d_balances[i].sub(losses) : 0;\n            }\n\n            uint256 _tokenId = GS.getProxyAddressToTokenId(defender);\n            if (_tokenId > 0) {\n                // the remaining fleet managed to escape back to command\n                // while destroying the mining equipment\n                address owner = fhr.ownerOf(_tokenId);\n                TS.sendSats(owner, info.d_ids, info.d_retreated);\n                TS.transferFhr(owner, msg.sender, _tokenId);\n            }\n            TS.recieveSats(defender, info.d_ids, info.d_balances);\n        } else {\n            for (uint256 i = 0; i < info.a_balances.length; i++) {\n                info.a_balances[i] = info.a_balances[i] > 0 ? info.a_balances[i].mul(90).div(100) : 0; // 20% of attackers fleet is lost in a successful attack\n            }\n            TS.recieveSats(msg.sender, info.a_ids, info.a_balances);\n\n            info.d_retreated = new uint256[](info.d_balances.length);\n            for (uint256 i = 0; i < info.d_balances.length; i++) {\n                // 70% of defenders fleet is lost in a successful attack\n                uint256 losses = info.d_balances[i].mul(10).div(100);\n                info.d_balances[i] = info.d_balances[i] > 0 ? losses : 0;\n                info.d_retreated[i] = info.d_balances[i] > losses ? info.d_balances[i].sub(losses) : 0;\n            }\n\n            TS.recieveSats(defender, info.d_ids, info.d_balances);\n        }\n    }\n\n    function deployPlanet(uint256 tokenId) public onlyTokenHolder(tokenId) {\n        uint256 yield = GS.getTokenIdToYield(tokenId);\n        address _address = pm.createPlanet(\n            tokenId,\n            abi.encodeWithSignature(\n                'initialize(address,address,address,address,uint256,uint256)',\n                address(pm),\n                address(solar),\n                address(fhr),\n                address(sats),\n                tokenId,\n                yield\n            )\n        );\n        GS.setTokenIdToProxyAddress(tokenId, _address);\n        GS.setProxyAddressToTokenId(tokenId, _address);\n        emit LogPlanetProxyCreated(_address, tokenId);\n    }\n\n    function explore(Types.Position memory star) internal {\n        (Types.SystemType systemType, uint256 rand) = Discovery.randomSystemType();\n        GS.setStarSystemType(star, systemType);\n        emit LogStarSystemDiscovery(msg.sender, uint8(systemType));\n\n        if (systemType == Types.SystemType.Empty) {\n            // There is nothing here.\n            return;\n        } else if (\n            systemType == Types.SystemType.AncientFleetAggressive ||\n            systemType == Types.SystemType.AdvancedAlienFleetAggressive ||\n            systemType == Types.SystemType.AlienFleetAggressive\n        ) {\n            (uint256 a_offense, uint256 a_defense) = GS.getAiFleetInfo(systemType);\n            (\n                uint256 d_offense,\n                uint256 d_defense,\n                uint256[] memory d_balances,\n                uint256[] memory d_ids\n            ) = calculateStats(msg.sender);\n\n            emit BattleStarted(msg.sender, a_offense, a_defense, address(this), d_offense, d_defense);\n            bool result = battle(a_offense, a_defense, d_offense, d_defense, true, 10);\n        } else if (\n            systemType == Types.SystemType.LowYieldSystem ||\n            systemType == Types.SystemType.MediumYieldSystem ||\n            systemType == Types.SystemType.HighYieldSystem ||\n            systemType == Types.SystemType.InsaneYieldSystem\n        ) {\n            (uint256 low, uint256 high) = GS.getStarSystemYieldRange(systemType);\n            uint256 _id = GS.incrementTotalFhr();\n            GS.setTokenIdToYield(_id, randomrange(low, high));\n            TS.mintFhr(msg.sender, _id);\n        }\n        //  else if (systemType == Types.SystemType.ShipWreck) {\n        //     uint256 multiplier = rand.mod(2) == 0 ? 2 : 1;\n        //     Types.SatInfo memory ship = Discovery.singleAllNonAncientShips();\n        //     uint256[] memory ships = new uint256[](1);\n        //     uint256[] memory amounts = new uint256[](1);\n        //     ships[0] = ship.id;\n        //     amounts[0] = ship.amount.mul(multiplier);\n        //     TS.sendSats(msg.sender, ships, amounts);\n        // }\n    }\n}\n",
  "sourcePath": "C:\\Users\\James\\projects\\tsuno-fe\\contracts\\GameOperations.sol",
  "compiler": {
    "name": "solc",
    "version": "0.6.12+commit.27d51765.Emscripten.clang"
  },
  "schemaVersion": "3.2.5",
  "updatedAt": "2020-10-28T15:08:49.942Z",
  "networkType": "ethereum",
  "devdoc": {
    "author": "Big Beluga Primary public function for entering into the protocol",
    "kind": "dev",
    "methods": {},
    "title": "Operation",
    "version": 1
  },
  "userdoc": {
    "kind": "user",
    "methods": {},
    "version": 1
  }
}