{
  "contractName": "GameStorage",
  "abi": [
    {
      "anonymous": false,
      "inputs": [
        {
          "indexed": true,
          "internalType": "address",
          "name": "previousOwner",
          "type": "address"
        },
        {
          "indexed": true,
          "internalType": "address",
          "name": "newOwner",
          "type": "address"
        }
      ],
      "name": "OwnershipTransferred",
      "type": "event"
    },
    {
      "anonymous": false,
      "inputs": [
        {
          "indexed": false,
          "internalType": "uint256",
          "name": "random",
          "type": "uint256"
        }
      ],
      "name": "Random",
      "type": "event"
    },
    {
      "inputs": [],
      "name": "owner",
      "outputs": [
        {
          "internalType": "address",
          "name": "",
          "type": "address"
        }
      ],
      "stateMutability": "view",
      "type": "function",
      "constant": true
    },
    {
      "inputs": [],
      "name": "renounceOwnership",
      "outputs": [],
      "stateMutability": "nonpayable",
      "type": "function"
    },
    {
      "inputs": [],
      "name": "resetConstants",
      "outputs": [],
      "stateMutability": "nonpayable",
      "type": "function"
    },
    {
      "inputs": [
        {
          "internalType": "uint256",
          "name": "_seed",
          "type": "uint256"
        }
      ],
      "name": "setSeed",
      "outputs": [],
      "stateMutability": "nonpayable",
      "type": "function"
    },
    {
      "inputs": [
        {
          "internalType": "address",
          "name": "newOwner",
          "type": "address"
        }
      ],
      "name": "transferOwnership",
      "outputs": [],
      "stateMutability": "nonpayable",
      "type": "function"
    },
    {
      "inputs": [
        {
          "internalType": "address",
          "name": "_solar",
          "type": "address"
        },
        {
          "internalType": "address",
          "name": "_sat",
          "type": "address"
        },
        {
          "internalType": "address",
          "name": "_fhr",
          "type": "address"
        },
        {
          "internalType": "address",
          "name": "_treasury",
          "type": "address"
        },
        {
          "internalType": "address",
          "name": "_planetManager",
          "type": "address"
        },
        {
          "internalType": "address",
          "name": "_gameOperations",
          "type": "address"
        }
      ],
      "name": "initialize",
      "outputs": [],
      "stateMutability": "nonpayable",
      "type": "function"
    },
    {
      "inputs": [
        {
          "internalType": "address",
          "name": "_operator",
          "type": "address"
        }
      ],
      "name": "addOperator",
      "outputs": [],
      "stateMutability": "nonpayable",
      "type": "function"
    },
    {
      "inputs": [],
      "name": "getSolarAddress",
      "outputs": [
        {
          "internalType": "address",
          "name": "",
          "type": "address"
        }
      ],
      "stateMutability": "view",
      "type": "function",
      "constant": true
    },
    {
      "inputs": [],
      "name": "getPlanetManagerAddress",
      "outputs": [
        {
          "internalType": "address",
          "name": "",
          "type": "address"
        }
      ],
      "stateMutability": "view",
      "type": "function",
      "constant": true
    },
    {
      "inputs": [],
      "name": "getFhrAddress",
      "outputs": [
        {
          "internalType": "address",
          "name": "",
          "type": "address"
        }
      ],
      "stateMutability": "view",
      "type": "function",
      "constant": true
    },
    {
      "inputs": [],
      "name": "getSatAddress",
      "outputs": [
        {
          "internalType": "address",
          "name": "",
          "type": "address"
        }
      ],
      "stateMutability": "view",
      "type": "function",
      "constant": true
    },
    {
      "inputs": [],
      "name": "getTreasuryAddress",
      "outputs": [
        {
          "internalType": "address",
          "name": "",
          "type": "address"
        }
      ],
      "stateMutability": "view",
      "type": "function",
      "constant": true
    },
    {
      "inputs": [
        {
          "internalType": "address",
          "name": "_address",
          "type": "address"
        }
      ],
      "name": "getProxyAddressToTokenId",
      "outputs": [
        {
          "internalType": "uint256",
          "name": "",
          "type": "uint256"
        }
      ],
      "stateMutability": "view",
      "type": "function",
      "constant": true
    },
    {
      "inputs": [
        {
          "internalType": "uint256",
          "name": "token",
          "type": "uint256"
        },
        {
          "internalType": "address",
          "name": "_address",
          "type": "address"
        }
      ],
      "name": "setProxyAddressToTokenId",
      "outputs": [],
      "stateMutability": "nonpayable",
      "type": "function"
    },
    {
      "inputs": [
        {
          "internalType": "uint256",
          "name": "_token",
          "type": "uint256"
        }
      ],
      "name": "getTokenIdToProxyAddress",
      "outputs": [
        {
          "internalType": "address",
          "name": "",
          "type": "address"
        }
      ],
      "stateMutability": "view",
      "type": "function",
      "constant": true
    },
    {
      "inputs": [
        {
          "internalType": "uint256",
          "name": "token",
          "type": "uint256"
        },
        {
          "internalType": "address",
          "name": "_address",
          "type": "address"
        }
      ],
      "name": "setTokenIdToProxyAddress",
      "outputs": [],
      "stateMutability": "nonpayable",
      "type": "function"
    },
    {
      "inputs": [],
      "name": "getStartPosition",
      "outputs": [
        {
          "components": [
            {
              "internalType": "uint8",
              "name": "quadrant",
              "type": "uint8"
            },
            {
              "internalType": "uint8",
              "name": "sector",
              "type": "uint8"
            },
            {
              "internalType": "uint8",
              "name": "district",
              "type": "uint8"
            },
            {
              "internalType": "uint256",
              "name": "star",
              "type": "uint256"
            }
          ],
          "internalType": "struct Types.Position",
          "name": "",
          "type": "tuple"
        }
      ],
      "stateMutability": "view",
      "type": "function",
      "constant": true
    },
    {
      "inputs": [],
      "name": "getBoundaries",
      "outputs": [
        {
          "components": [
            {
              "internalType": "uint8",
              "name": "quadrant",
              "type": "uint8"
            },
            {
              "internalType": "uint8",
              "name": "sector",
              "type": "uint8"
            },
            {
              "internalType": "uint8",
              "name": "district",
              "type": "uint8"
            },
            {
              "internalType": "uint256",
              "name": "star",
              "type": "uint256"
            }
          ],
          "internalType": "struct Types.Position",
          "name": "",
          "type": "tuple"
        }
      ],
      "stateMutability": "view",
      "type": "function",
      "constant": true
    },
    {
      "inputs": [],
      "name": "getMaxRoll",
      "outputs": [
        {
          "internalType": "uint256",
          "name": "",
          "type": "uint256"
        }
      ],
      "stateMutability": "view",
      "type": "function",
      "constant": true
    },
    {
      "inputs": [],
      "name": "incrementTotalFhr",
      "outputs": [
        {
          "internalType": "uint256",
          "name": "",
          "type": "uint256"
        }
      ],
      "stateMutability": "nonpayable",
      "type": "function"
    },
    {
      "inputs": [],
      "name": "getTotalFhr",
      "outputs": [
        {
          "internalType": "uint256",
          "name": "",
          "type": "uint256"
        }
      ],
      "stateMutability": "view",
      "type": "function",
      "constant": true
    },
    {
      "inputs": [
        {
          "internalType": "enum Types.SystemType",
          "name": "systemType",
          "type": "uint8"
        }
      ],
      "name": "getStarSystemYieldRange",
      "outputs": [
        {
          "internalType": "uint256",
          "name": "low",
          "type": "uint256"
        },
        {
          "internalType": "uint256",
          "name": "high",
          "type": "uint256"
        }
      ],
      "stateMutability": "nonpayable",
      "type": "function"
    },
    {
      "inputs": [
        {
          "components": [
            {
              "internalType": "uint8",
              "name": "quadrant",
              "type": "uint8"
            },
            {
              "internalType": "uint8",
              "name": "sector",
              "type": "uint8"
            },
            {
              "internalType": "uint8",
              "name": "district",
              "type": "uint8"
            },
            {
              "internalType": "uint256",
              "name": "star",
              "type": "uint256"
            }
          ],
          "internalType": "struct Types.Position",
          "name": "pos",
          "type": "tuple"
        },
        {
          "internalType": "enum Types.SystemType",
          "name": "systemType",
          "type": "uint8"
        }
      ],
      "name": "setStarSystemType",
      "outputs": [],
      "stateMutability": "nonpayable",
      "type": "function"
    },
    {
      "inputs": [
        {
          "components": [
            {
              "internalType": "uint8",
              "name": "quadrant",
              "type": "uint8"
            },
            {
              "internalType": "uint8",
              "name": "sector",
              "type": "uint8"
            },
            {
              "internalType": "uint8",
              "name": "district",
              "type": "uint8"
            },
            {
              "internalType": "uint256",
              "name": "star",
              "type": "uint256"
            }
          ],
          "internalType": "struct Types.Position",
          "name": "pos",
          "type": "tuple"
        }
      ],
      "name": "getStarSystemType",
      "outputs": [
        {
          "internalType": "enum Types.SystemType",
          "name": "",
          "type": "uint8"
        }
      ],
      "stateMutability": "view",
      "type": "function",
      "constant": true
    },
    {
      "inputs": [
        {
          "internalType": "address",
          "name": "fleet",
          "type": "address"
        },
        {
          "components": [
            {
              "internalType": "uint8",
              "name": "quadrant",
              "type": "uint8"
            },
            {
              "internalType": "uint8",
              "name": "sector",
              "type": "uint8"
            },
            {
              "internalType": "uint8",
              "name": "district",
              "type": "uint8"
            },
            {
              "internalType": "uint256",
              "name": "star",
              "type": "uint256"
            }
          ],
          "internalType": "struct Types.Position",
          "name": "pos",
          "type": "tuple"
        }
      ],
      "name": "setMasterFleetPosition",
      "outputs": [],
      "stateMutability": "nonpayable",
      "type": "function"
    },
    {
      "inputs": [
        {
          "internalType": "address",
          "name": "fleet",
          "type": "address"
        }
      ],
      "name": "getMasterFleetPosition",
      "outputs": [
        {
          "components": [
            {
              "internalType": "uint8",
              "name": "quadrant",
              "type": "uint8"
            },
            {
              "internalType": "uint8",
              "name": "sector",
              "type": "uint8"
            },
            {
              "internalType": "uint8",
              "name": "district",
              "type": "uint8"
            },
            {
              "internalType": "uint256",
              "name": "star",
              "type": "uint256"
            }
          ],
          "internalType": "struct Types.Position",
          "name": "",
          "type": "tuple"
        }
      ],
      "stateMutability": "view",
      "type": "function",
      "constant": true
    },
    {
      "inputs": [
        {
          "internalType": "enum Types.SystemType",
          "name": "systemType",
          "type": "uint8"
        }
      ],
      "name": "getAiFleetInfo",
      "outputs": [
        {
          "internalType": "uint256",
          "name": "offense",
          "type": "uint256"
        },
        {
          "internalType": "uint256",
          "name": "defense",
          "type": "uint256"
        }
      ],
      "stateMutability": "nonpayable",
      "type": "function"
    },
    {
      "inputs": [],
      "name": "getTotalSats",
      "outputs": [
        {
          "internalType": "uint256",
          "name": "",
          "type": "uint256"
        }
      ],
      "stateMutability": "view",
      "type": "function",
      "constant": true
    },
    {
      "inputs": [
        {
          "internalType": "uint256",
          "name": "satType",
          "type": "uint256"
        }
      ],
      "name": "getSatInfo",
      "outputs": [
        {
          "internalType": "uint256",
          "name": "offense",
          "type": "uint256"
        },
        {
          "internalType": "uint256",
          "name": "defense",
          "type": "uint256"
        }
      ],
      "stateMutability": "view",
      "type": "function",
      "constant": true
    },
    {
      "inputs": [
        {
          "internalType": "uint256[]",
          "name": "ids",
          "type": "uint256[]"
        }
      ],
      "name": "batchGetSatInfo",
      "outputs": [
        {
          "internalType": "uint256[]",
          "name": "offenses",
          "type": "uint256[]"
        },
        {
          "internalType": "uint256[]",
          "name": "defenses",
          "type": "uint256[]"
        }
      ],
      "stateMutability": "view",
      "type": "function",
      "constant": true
    }
  ],
  "bytecode": "0x60806040526001805534801561001457600080fd5b50600061001f610072565b602080546001600160a01b0319166001600160a01b038316908117909155604051919250906000907f8be0079c531659141344cd1fd0a4f28419497f9722a3daafe3b4186f6b6457e0908290a350610076565b3390565b61142b806100856000396000f3fe608060405234801561001057600080fd5b50600436106101da5760003560e01c806383b214d011610104578063cc2a9a5b116100a2578063e2cd086211610071578063e2cd086214610399578063f2fde38b146103a1578063f52084e9146103b4578063f9a64b4c146103c7576101da565b8063cc2a9a5b14610355578063cf677f5714610368578063e002460414610370578063e011d83614610378576101da565b80639870d7fe116100de5780639870d7fe146103095780639d8e4e561461031c578063bedc6d271461032f578063c32a50f914610342576101da565b806383b214d0146102ce5780638da5cb5b146102e1578063917da392146102e9576101da565b80635beec2bb1161017c578063715018a61161014b578063715018a6146102a357806375997ce9146102ab57806377184035146102be57806377285f49146102c6576101da565b80635beec2bb14610260578063692b4fc6146102685780636a2a7473146102885780636d18c9701461029b576101da565b80631c4af560116101b85780631c4af5601461021c5780633dd742c914610224578063426d3f081461022c5780634f4815d71461024d576101da565b806304d5aae1146101df57806311217c5e146101fd578063123cfce114610207575b600080fd5b6101e76103da565b6040516101f4919061137f565b60405180910390f35b610205610421565b005b61020f610733565b6040516101f4919061124e565b6101e7610742565b61020f610748565b61023f61023a3660046111ac565b610757565b6040516101f4929190611388565b61023f61025b366004611138565b610776565b61020f6107fc565b61027b610276366004610fcc565b61080b565b6040516101f49190611346565b61023f610296366004611138565b61086c565b61027b61092c565b61020561096f565b6102056102b93660046111c4565b6109ee565b61020f610a08565b6101e7610a17565b6102056102dc366004611172565b610a1d565b61020f610a7b565b6102fc6102f7366004611157565b610a8a565b6040516101f49190611290565b610205610317366004610fcc565b610acf565b6101e761032a366004610fcc565b610b28565b61020561033d36600461106f565b610b43565b6102056103503660046111ac565b610bab565b610205610363366004610fee565b610bb0565b61027b610c1f565b61020f610c62565b61038b6103863660046110a3565b610c71565b6040516101f4929190611262565b6101e7610d6e565b6102056103af366004610fcc565b610d74565b6102056103c23660046111c4565b610e2b565b61020f6103d53660046111ac565b610e59565b3360009081526021602052604081205460ff166104125760405162461bcd60e51b81526004016104099061131f565b60405180910390fd5b50601280546001019081905590565b60016014819055604b6015818155604c601655609660178190556097601855610190601955610191601a556103e8601b5560408051608080820183528682526007602080840191909152828401889052602a6060938401819052600d80546201000060ff19918216909b1761ff00199081166107001762ff0000199081169c909c17909255600e929092558551938401865260048085529284019790975260089483019490945261271091909201819052600f80548416909217851661150017909616620800001790556010859055601194909455601c805460129086168117841661320017909155601d805486169094178316614b0017909355601e8054909416171661960017909155601355610537610edb565b50604080516102608101825260096102208201818152610240830191909152815281518083018352600a80825260208281018290528084019290925283518085018552600f8082528184018190528486019190915284518086018652600280825281850152606085015284518086018652600c808252818501819052608086019190915285518087018752600d8082528186015260a08601528551808701875283815280850184905260c08601528551808701875260038082528186015260e0860152855180870187528281528085018390526101008601528551808701875282815280850192909252610120850191909152845180860186526014808252818501819052610140860191909152855180870187526005808252818601526101608601528551808701875281815280850191909152610180850152845180860186526015808252818501526101a085015284518086018652601e808252818501526101c085015284518086018652828152808401929092526101e084019190915283518085019094528084529083015261020081019190915260005b601181101561072f578181601181106106e857fe5b602090810291909101516000838152600683526040902081518154929093015160ff1990921660ff9384161761ff00191661010093909216929092021790556001016106d3565b5050565b6008546001600160a01b031690565b60125490565b6009546001600160a01b031690565b60009081526006602052604090205460ff808216926101009092041690565b600080600b83601481111561078757fe5b141561079a5750506014546015546107f7565b600d8360148111156107a857fe5b14156107bb5750506016546017546107f7565b600f8360148111156107c957fe5b14156107da575050601854806107f7565b60138360148111156107e857fe5b14156107f7575050601a54601b545b915091565b600b546001600160a01b031690565b610813610f09565b506001600160a01b03166000908152600560209081526040918290208251608081018452815460ff8082168352610100820481169483019490945262010000900490921692820192909252600190910154606082015290565b600080600583601481111561087d57fe5b14156108b757601c5460ff8082169161010090041661089c8282610e74565b93506108ae8260ff168260ff16610e74565b925050506107f7565b60038360148111156108c557fe5b14156108e457601d5460ff8082169161010090041661089c8282610e74565b60018360148111156108f257fe5b14156107f757601f5460ff808216916101009004166109118282610e74565b93506109238260ff168260ff16610e74565b92505050915091565b610934610f09565b5060408051608081018252600d5460ff8082168352610100820481166020840152620100009091041691810191909152600e54606082015290565b610977610ed7565b6020546001600160a01b039081169116146109a45760405162461bcd60e51b8152600401610409906112ea565b6020546040516000916001600160a01b0316907f8be0079c531659141344cd1fd0a4f28419497f9722a3daafe3b4186f6b6457e0908390a3602080546001600160a01b0319169055565b6001600160a01b0316600090815260036020526040902055565b600a546001600160a01b031690565b60115490565b815160ff90811660009081526007602090815260408083208187015185168452825280832082870151909416835292815282822060608601518352905220805482919060ff19166001836014811115610a7257fe5b02179055505050565b6020546001600160a01b031690565b805160ff908116600090815260076020908152604080832081860151851684528252808320828601518516845282528083206060860151845290915290205416919050565b610ad7610ed7565b6020546001600160a01b03908116911614610b045760405162461bcd60e51b8152600401610409906112ea565b6001600160a01b03166000908152602160205260409020805460ff19166001179055565b6001600160a01b031660009081526003602052604090205490565b6001600160a01b0390911660009081526005602090815260409182902083518154928501519385015160ff908116620100000262ff0000199582166101000261ff00199290931660ff1990951694909417161792909216178155606090910151600190910155565b600055565b600880546001600160a01b03199081166001600160a01b0389811691909117909255600b80548216888416179055600a80548216878416179055600c8054821686841617905560098054909116918416919091179055610c0e610421565b610c1781610acf565b505050505050565b610c27610f09565b5060408051608081018252600f5460ff8082168352610100820481166020840152620100009091041691810191909152601054606082015290565b600c546001600160a01b031690565b606080825167ffffffffffffffff81118015610c8c57600080fd5b50604051908082528060200260200182016040528015610cb6578160200160208202803683370190505b509150825167ffffffffffffffff81118015610cd157600080fd5b50604051908082528060200260200182016040528015610cfb578160200160208202803683370190505b50905060005b8351811015610d6857600080610d29868481518110610d1c57fe5b6020026020010151610757565b9150915081858481518110610d3a57fe5b60200260200101818152505080848481518110610d5357fe5b60209081029190910101525050600101610d01565b50915091565b60135490565b610d7c610ed7565b6020546001600160a01b03908116911614610da95760405162461bcd60e51b8152600401610409906112ea565b6001600160a01b038116610dcf5760405162461bcd60e51b8152600401610409906112a4565b6020546040516001600160a01b038084169216907f8be0079c531659141344cd1fd0a4f28419497f9722a3daafe3b4186f6b6457e090600090a3602080546001600160a01b0319166001600160a01b0392909216919091179055565b60009182526004602052604090912080546001600160a01b0319166001600160a01b03909216919091179055565b6000908152600460205260409020546001600160a01b031690565b6000814233600054600154604051602001610e929493929190611221565b6040516020818303038152906040528051906020012060001c81610eb257fe5b069050828110610ec25780610ec6565b8281015b600180548101905590505b92915050565b3390565b6040518061022001604052806011905b610ef3610f30565b815260200190600190039081610eeb5790505090565b60408051608081018252600080825260208201819052918101829052606081019190915290565b604080518082019091526000808252602082015290565b80356001600160a01b0381168114610ed157600080fd5b600060808284031215610f6f578081fd5b610f796080611396565b9050610f858383610fbb565b8152610f948360208401610fbb565b6020820152610fa68360408401610fbb565b60408201526060820135606082015292915050565b803560ff81168114610ed157600080fd5b600060208284031215610fdd578081fd5b610fe78383610f47565b9392505050565b60008060008060008060c08789031215611006578182fd5b8635611011816113dd565b95506020870135611021816113dd565b94506040870135611031816113dd565b93506060870135611041816113dd565b92506080870135611051816113dd565b915060a0870135611061816113dd565b809150509295509295509295565b60008060a08385031215611081578182fd5b61108b8484610f47565b915061109a8460208501610f5e565b90509250929050565b600060208083850312156110b5578182fd5b823567ffffffffffffffff8111156110cb578283fd5b8301601f810185136110db578283fd5b80356110ee6110e9826113bd565b611396565b818152838101908385018584028501860189101561110a578687fd5b8694505b8385101561112c57803583526001949094019391850191850161110e565b50979650505050505050565b600060208284031215611149578081fd5b813560158110610fe7578182fd5b600060808284031215611168578081fd5b610fe78383610f5e565b60008060a08385031215611184578182fd5b61118e8484610f5e565b91506080830135601581106111a1578182fd5b809150509250929050565b6000602082840312156111bd578081fd5b5035919050565b600080604083850312156111d6578182fd5b8235915061109a8460208501610f47565b6000815180845260208085019450808401835b83811015611216578151875295820195908201906001016111fa565b509495945050505050565b93845260609290921b6bffffffffffffffffffffffff191660208401526034830152605482015260740190565b6001600160a01b0391909116815260200190565b60006040825261127560408301856111e7565b828103602084015261128781856111e7565b95945050505050565b602081016015831061129e57fe5b91905290565b60208082526026908201527f4f776e61626c653a206e6577206f776e657220697320746865207a65726f206160408201526564647265737360d01b606082015260800190565b6020808252818101527f4f776e61626c653a2063616c6c6572206973206e6f7420746865206f776e6572604082015260600190565b6020808252600d908201526c27b7363c9027b832b930ba37b960991b604082015260600190565b600060808201905060ff835116825260ff602084015116602083015260ff60408401511660408301526060830151606083015292915050565b90815260200190565b918252602082015260400190565b60405181810167ffffffffffffffff811182821017156113b557600080fd5b604052919050565b600067ffffffffffffffff8211156113d3578081fd5b5060209081020190565b6001600160a01b03811681146113f257600080fd5b5056fea2646970667358221220423bb34857d7e9524a3fc2108170950e761890243b0116a29450d07e8d6a19d864736f6c634300060c0033",
  "immutableReferences": {},
  "source": "pragma solidity 0.6.12;\npragma experimental ABIEncoderV2;\n\nimport {SafeMath} from '@openzeppelin/contracts/math/SafeMath.sol';\nimport {Random} from './Random.sol';\nimport {Types} from './lib/Types.sol';\nimport {Initializable} from '@openzeppelin/upgrades-core/contracts/Initializable.sol';\nimport {Constants} from './Constants.sol';\nimport {Ownable} from '@openzeppelin/contracts/access/Ownable.sol';\n\ncontract GameStorage is Random, Constants, Ownable {\n    using SafeMath for uint256;\n    mapping(address => bool) operators;\n\n    function initialize(\n        address _solar,\n        address _sat,\n        address _fhr,\n        address _treasury,\n        address _planetManager,\n        address _gameOperations\n    ) public {\n        solar = _solar;\n        sat = _sat;\n        fhr = _fhr;\n        treasury = _treasury;\n        planetManager = _planetManager;\n        resetConstants();\n        addOperator(_gameOperations);\n    }\n\n    function addOperator(address _operator) public onlyOwner {\n        operators[_operator] = true;\n    }\n\n    modifier onlyOperator() {\n        // Make sure the access is permitted to only contracts in our Dapp\n        require(operators[msg.sender], 'Only Operator');\n        _;\n    }\n\n    function getSolarAddress() public view returns (address) {\n        return solar;\n    }\n\n    function getPlanetManagerAddress() public view returns (address) {\n        return planetManager;\n    }\n\n    function getFhrAddress() public view returns (address) {\n        return fhr;\n    }\n\n    function getSatAddress() public view returns (address) {\n        return sat;\n    }\n\n    function getTreasuryAddress() public view returns (address) {\n        return treasury;\n    }\n\n    function getProxyAddressToTokenId(address _address) public view returns (uint256) {\n        return proxyAddressToTokenId[_address];\n    }\n\n    function setProxyAddressToTokenId(uint256 token, address _address) public {\n        proxyAddressToTokenId[_address] = token;\n    }\n\n    function getTokenIdToProxyAddress(uint256 _token) public view returns (address) {\n        return tokenIdToProxyAddress[_token];\n    }\n\n    function setTokenIdToProxyAddress(uint256 token, address _address) public {\n        tokenIdToProxyAddress[token] = _address;\n    }\n\n    function getStartPosition() public view returns (Types.Position memory) {\n        return startPosition;\n    }\n\n    function getBoundaries() public view returns (Types.Position memory) {\n        return boundaries;\n    }\n\n    function getMaxRoll() public view returns (uint256) {\n        return maxRoll;\n    }\n\n    function incrementTotalFhr() public onlyOperator returns (uint256) {\n        totalFhr += 1;\n        return totalFhr;\n    }\n\n    function getTotalFhr() public view returns (uint256) {\n        return totalFhr;\n    }\n\n    function getStarSystemYieldRange(Types.SystemType systemType)\n        public\n        returns (uint256 low, uint256 high)\n    {\n        if (systemType == Types.SystemType.LowYieldSystem) {\n            low = lowYieldRange.low;\n            high = lowYieldRange.high;\n        } else if (systemType == Types.SystemType.MediumYieldSystem) {\n            low = mediumYieldRange.low;\n            high = mediumYieldRange.high;\n        } else if (systemType == Types.SystemType.HighYieldSystem) {\n            low = highYieldRange.low;\n            high = highYieldRange.low;\n        } else if (systemType == Types.SystemType.InsaneYieldSystem) {\n            low = insaneYieldRange.low;\n            high = insaneYieldRange.high;\n        }\n    }\n\n    function setStarSystemType(Types.Position memory pos, Types.SystemType systemType) public {\n        positionToSystemType[pos.quadrant][pos.district][pos.sector][pos.star] = systemType;\n    }\n\n    function getStarSystemType(Types.Position memory pos) public view returns (Types.SystemType) {\n        return positionToSystemType[pos.quadrant][pos.district][pos.sector][pos.star];\n    }\n\n    function setMasterFleetPosition(address fleet, Types.Position memory pos) public {\n        fleetToPosition[fleet] = pos;\n    }\n\n    function getMasterFleetPosition(address fleet) public view returns (Types.Position memory) {\n        return fleetToPosition[fleet];\n    }\n\n    function getAiFleetInfo(Types.SystemType systemType)\n        public\n        returns (uint256 offense, uint256 defense)\n    {\n        if (systemType == Types.SystemType.AlienFleetAggressive) {\n            uint8 min = easyAiRange.low;\n            uint8 max = easyAiRange.high;\n            offense = randomrange(min, max);\n            defense = randomrange(min, max);\n        } else if (systemType == Types.SystemType.AdvancedAlienFleetAggressive) {\n            uint8 min = mediumAiRange.low;\n            uint8 max = mediumAiRange.high;\n            offense = randomrange(min, max);\n            defense = randomrange(min, max);\n        } else if (systemType == Types.SystemType.AncientFleetAggressive) {\n            uint8 min = insaneAiRange.low;\n            uint8 max = insaneAiRange.high;\n            offense = randomrange(min, max);\n            defense = randomrange(min, max);\n        }\n    }\n\n    function getTotalSats() public view returns (uint256) {\n        return totalSats;\n    }\n\n    function getSatInfo(uint256 satType) public view returns (uint256 offense, uint256 defense) {\n        offense = idToSatStats[satType].offense;\n        defense = idToSatStats[satType].defense;\n    }\n\n    function batchGetSatInfo(uint256[] memory ids)\n        public\n        view\n        returns (uint256[] memory offenses, uint256[] memory defenses)\n    {\n        offenses = new uint256[](ids.length);\n        defenses = new uint256[](ids.length);\n        for (uint256 i = 0; i < ids.length; i++) {\n            (uint256 o, uint256 d) = getSatInfo(ids[i]);\n            offenses[i] = o;\n            defenses[i] = d;\n        }\n    }\n}\n",
  "sourcePath": "C:\\Users\\James\\projects\\tsuno-fe\\contracts\\GameStorage.sol",
  "compiler": {
    "name": "solc",
    "version": "0.6.12+commit.27d51765.Emscripten.clang"
  },
  "schemaVersion": "3.2.5",
  "updatedAt": "2020-10-20T18:48:17.453Z",
  "networkType": "ethereum",
  "devdoc": {
    "kind": "dev",
    "methods": {
      "owner()": {
        "details": "Returns the address of the current owner."
      },
      "renounceOwnership()": {
        "details": "Leaves the contract without owner. It will not be possible to call `onlyOwner` functions anymore. Can only be called by the current owner. NOTE: Renouncing ownership will leave the contract without an owner, thereby removing any functionality that is only available to the owner."
      },
      "transferOwnership(address)": {
        "details": "Transfers ownership of the contract to a new account (`newOwner`). Can only be called by the current owner."
      }
    },
    "version": 1
  },
  "userdoc": {
    "kind": "user",
    "methods": {},
    "version": 1
  }
}