{
  "contractName": "GameOperations",
  "abi": [
    {
      "anonymous": false,
      "inputs": [
        {
          "indexed": false,
          "internalType": "uint8",
          "name": "quadrant",
          "type": "uint8"
        },
        {
          "indexed": false,
          "internalType": "uint8",
          "name": "district",
          "type": "uint8"
        },
        {
          "indexed": false,
          "internalType": "uint8",
          "name": "sector",
          "type": "uint8"
        },
        {
          "indexed": false,
          "internalType": "uint256",
          "name": "star",
          "type": "uint256"
        }
      ],
      "name": "LogMove",
      "type": "event"
    },
    {
      "anonymous": false,
      "inputs": [
        {
          "indexed": true,
          "internalType": "address",
          "name": "to",
          "type": "address"
        },
        {
          "indexed": false,
          "internalType": "uint8",
          "name": "systemType",
          "type": "uint8"
        }
      ],
      "name": "LogStarSystemDiscovery",
      "type": "event"
    },
    {
      "anonymous": false,
      "inputs": [
        {
          "indexed": false,
          "internalType": "uint256",
          "name": "random",
          "type": "uint256"
        }
      ],
      "name": "Random",
      "type": "event"
    },
    {
      "inputs": [
        {
          "internalType": "address",
          "name": "_gameStorage",
          "type": "address"
        }
      ],
      "name": "initialize",
      "outputs": [],
      "stateMutability": "nonpayable",
      "type": "function"
    },
    {
      "inputs": [
        {
          "components": [
            {
              "internalType": "uint8",
              "name": "quadrant",
              "type": "uint8"
            },
            {
              "internalType": "uint8",
              "name": "sector",
              "type": "uint8"
            },
            {
              "internalType": "uint8",
              "name": "district",
              "type": "uint8"
            },
            {
              "internalType": "uint256",
              "name": "star",
              "type": "uint256"
            }
          ],
          "internalType": "struct Types.Position",
          "name": "to",
          "type": "tuple"
        }
      ],
      "name": "move",
      "outputs": [],
      "stateMutability": "nonpayable",
      "type": "function"
    }
  ],
  "bytecode": "0x608060405234801561001057600080fd5b506109d3806100206000396000f3fe608060405234801561001057600080fd5b50600436106100365760003560e01c80638e905cfd1461003b578063c4d66de814610050575b600080fd5b61004e61004936600461071c565b610063565b005b61004e61005e3660046106e4565b610316565b6100f281603660009054906101000a90046001600160a01b03166001600160a01b031663cf677f576040518163ffffffff1660e01b815260040160806040518083038186803b1580156100b557600080fd5b505afa1580156100c9573d6000803e3d6000fd5b505050506040513d601f19601f820116820180604052508101906100ed919061077d565b610570565b6101175760405162461bcd60e51b815260040161010e90610838565b60405180910390fd5b61011f6106bd565b603654604051633495a7e360e11b81526001600160a01b039091169063692b4fc69061014f9033906004016107de565b608060405180830381600087803b15801561016957600080fd5b505af115801561017d573d6000803e3d6000fd5b505050506040513d601f19601f820116820180604052508101906101a1919061077d565b90506101ac81610624565b1561023a57603660009054906101000a90046001600160a01b03166001600160a01b0316636d18c9706040518163ffffffff1660e01b815260040160806040518083038186803b1580156101ff57600080fd5b505afa158015610213573d6000803e3d6000fd5b505050506040513d601f19601f82011682018060405250810190610237919061077d565b90505b610244828261065c565b156102615760405162461bcd60e51b815260040161010e906108e3565b6036546040516397e36f6160e01b81526001600160a01b03909116906397e36f619061029390339086906004016107f2565b600060405180830381600087803b1580156102ad57600080fd5b505af11580156102c1573d6000803e3d6000fd5b505050507f067ed149b8be43d30a47ed69bc882367f66239804079b28dd002d36fc3f46ed4826000015183604001518460200151856060015160405161030a949392919061092b565b60405180910390a15050565b600054610100900460ff168061032f575061032f6106b7565b8061033d575060005460ff16155b6103595760405162461bcd60e51b815260040161010e90610895565b600054610100900460ff16158015610384576000805460ff1961ff0019909116610100171660011790555b603680546001600160a01b0319166001600160a01b03848116919091179182905560408051637d3b7d2360e01b815290519290911691637d3b7d2391600480820192602092909190829003018186803b1580156103e057600080fd5b505afa1580156103f4573d6000803e3d6000fd5b505050506040513d601f19601f820116820180604052508101906104189190610700565b603380546001600160a01b0319166001600160a01b039283161790556036546040805163123cfce160e01b81529051919092169163123cfce1916004808301926020929190829003018186803b15801561047157600080fd5b505afa158015610485573d6000803e3d6000fd5b505050506040513d601f19601f820116820180604052508101906104a99190610700565b603480546001600160a01b0319166001600160a01b0392831617905560365460408051635beec2bb60e01b815290519190921691635beec2bb916004808301926020929190829003018186803b15801561050257600080fd5b505afa158015610516573d6000803e3d6000fd5b505050506040513d601f19601f8201168201806040525081019061053a9190610700565b603580546001600160a01b0319166001600160a01b0392909216919091179055801561056c576000805461ff00191690555b5050565b815160009060ff16158061058c57508151835160ff9182169116115b156105995750600061061e565b604083015160ff1615806105ba5750816040015160ff16836040015160ff16115b156105c75750600061061e565b602083015160ff1615806105e85750816020015160ff16836020015160ff16115b156105f55750600061061e565b6060830151158061060d575081606001518360600151115b1561061a5750600061061e565b5060015b92915050565b805160009060ff16158061063d5750604082015160ff16155b8061064d5750602082015160ff16155b8061061e575050606001511590565b8051825160009160ff91821691161480156106845750816040015160ff16836040015160ff16145b801561069d5750816020015160ff16836020015160ff16145b80156106b0575081606001518360600151145b9392505050565b303b1590565b60408051608081018252600080825260208201819052918101829052606081019190915290565b6000602082840312156106f5578081fd5b81356106b081610976565b600060208284031215610711578081fd5b81516106b081610976565b60006080828403121561072d578081fd5b610737608061094f565b82356107428161098e565b815260208301356107528161098e565b602082015260408301356107658161098e565b60408201526060928301359281019290925250919050565b60006080828403121561078e578081fd5b610798608061094f565b82516107a38161098e565b815260208301516107b38161098e565b602082015260408301516107c68161098e565b60408201526060928301519281019290925250919050565b6001600160a01b0391909116815260200190565b6001600160a01b03929092168252805160ff9081166020808501919091528201518116604080850191909152820151166060808401919091520151608082015260a00190565b60208082526038908201527f506f736974696f6e206d7573742062652077697468696e20736574206c696d6960408201527f7473206f6620746865206b6e6f776e20756e6976657273650000000000000000606082015260800190565b6020808252602e908201527f436f6e747261637420696e7374616e63652068617320616c726561647920626560408201526d195b881a5b9a5d1a585b1a5e995960921b606082015260800190565b60208082526028908201527f596f752063616e6e6f74206d6f766520746f20796f75722063757272656e74206040820152673637b1b0ba34b7b760c11b606082015260800190565b60ff9485168152928416602084015292166040820152606081019190915260800190565b60405181810167ffffffffffffffff8111828210171561096e57600080fd5b604052919050565b6001600160a01b038116811461098b57600080fd5b50565b60ff8116811461098b57600080fdfea2646970667358221220fc6b7be76f0f8c8f4cba19cfde2490c6219bbe7cbfe919f670e3f452852fd6eb64736f6c634300060c0033",
  "immutableReferences": {},
  "source": "// SPDX-License-Identifier: MIT\n\npragma solidity 0.6.12;\npragma experimental ABIEncoderV2;\n\nimport {GameStorage} from './GameStorage.sol';\nimport {IFHR} from './interfaces/IFHR.sol';\nimport {ISolar} from './interfaces/ISolar.sol';\nimport {ISat} from './interfaces/ISat.sol';\nimport {EternalStorage} from './EternalStorage.sol';\nimport {\n    Initializable\n} from '@openzeppelin/upgrades-core/contracts/Initializable.sol';\nimport {Types} from './lib/Types.sol';\n\n/**\n * @title Operation\n * @author Big Beluga\n *\n * Primary public function for entering into the protocol\n */\ncontract GameOperations is Initializable {\n    // ============ Constants ============\n    event LogMove(uint8 quadrant, uint8 district, uint8 sector, uint256 star);\n    event LogStarSystemDiscovery(address indexed to, uint8 systemType);\n    event Random(uint256 random);\n\n    IFHR fhr;\n    ISolar solar;\n    ISat sats;\n    GameStorage GS;\n\n    function initialize(address _gameStorage) public initializer {\n        GS = GameStorage(_gameStorage);\n\n        fhr = IFHR(GS.getFHRAddress());\n        solar = ISolar(GS.getSolarAddress());\n        sats = ISat(GS.getSatAddress());\n    }\n\n    function move(Types.Position memory to) public {\n        require(\n            Types.positionWithinBoundaries(to, GS.getBoundaries()),\n            'Position must be within set limits of the known universe'\n        );\n        Types.Position memory from = GS.getMasterFleetPosition(msg.sender);\n\n        if (Types.positionNotSet(from)) {\n            from = GS.getStartPosition();\n        }\n\n        require(\n            !Types.positionIsEqual(to, from),\n            'You cannot move to your current location'\n        );\n\n        GS.moveMasterFleet(msg.sender, to);\n        emit LogMove(to.quadrant, to.district, to.sector, to.star);\n\n        // if (state.getStarSystemType(to) == StarSystem.SystemType.Undiscovered) {\n        //     explore(state, to);\n        // } else if (state.getStarSystemHasFleet(to)) {\n        //     Fleet.Info memory starFleet = state.getStarSystemFleet(to);\n        //     Fleet.Info memory masterFleet = state.getMasterFleet(msg.sender);\n        //     // if defenders are set to attack on sight, defenders go first\n        //     if (starFleet.orders == Fleet.Orders.Attack) {\n        //         // battle(starFleet, masterFleet);\n        //     } else if (masterFleet.orders == Fleet.Orders.Attack) {\n        //         // battle(masterFleet, starFleet);\n        //     } else {\n        //         // both sides are passive\n        //         return;\n        //     }\n        // }\n        // check if mover is owner of starSystem\n        // if (state.getStarSystemOwner(state, to) == msg.sender) {\n        //     Fleet.Info memory masterFleet = state.getMasterFleet(\n        //         state,\n        //         msg.sender\n        //     );\n        // }\n        // check if star has fleet\n\n        // I think we end here and we move a lot of this battle logic into seperate functions,\n        // we can allow people to stack actions e.g [Move, Attack, Move, Defend] in one transaction\n    }\n\n    // function attack(\n    //     Storage.State storage state,\n    //     address attacker,\n    //     address defender\n    // ) public {\n    //     // Get the armies\n    //     // Army.Info memory attackerArmy = Storage.getArmy(state, attacker);\n    //     // Army.Info memory defenderArmy = Storage.getArmy(state, defender);\n    //     // // TODO: convert string array to bytes32 array\n    //     // // true = attackers, false = defenders\n    //     // (bool result, bytes memory log) = Battle.attack(\n    //     //     attackerArmy,\n    //     //     defenderArmy\n    //     // );\n    //     // if (result) {\n    //     //     uint256 reward = Storage.getBalance(state, defender).div(100).mul(\n    //     //         80\n    //     //     );\n    //     //     Storage.addBalance(state, attacker, reward);\n    //     //     Storage.subBalance(state, defender, reward);\n    //     // } else {\n    //     //     uint256 reward = Storage.getBalance(state, attacker).div(100).mul(\n    //     //         40\n    //     //     );\n    //     //     Storage.addBalance(state, defender, reward);\n    //     //     Storage.subBalance(state, attacker, reward);\n    //     // }\n    //     // Events.logBattle(attacker, defender, result, string(log));\n    // }\n\n    // function attackSolarSystem(\n    //     Storage.State storage state,\n    //     address attacker,\n    //     uint256 solarSystem\n    // ) public {}\n\n    // function assignShipsToSolarSystem(\n    //     Storage.State storage state,\n    //     address attacker,\n    //     uint256 solarSystem\n    // ) public {}\n\n    // function explore(Storage.State storage state, Types.StarPosition memory star) private {\n    //     (StarSystem.SystemType systemType, uint256 rand) = StarSystem.randomSystemType();\n    //     state.setStarSystemType(star, systemType);\n    //     Events.logStarSystemDiscovery(msg.sender, systemType);\n\n    //     address sat = state.getSATsAddress();\n\n    //     // AncientFleetAggressive,\n    //     // SuperComputerEvent,\n    //     // AdvancedAlienFleetAggressive,\n    //     // AiFleetAggressive,\n    //     // AlienFleetAggressive,\n    //     // PiratesEvent,\n    //     // SolarWinds,\n    //     // Asteroids,\n    //     // Empty,\n    //     // GovermentOwned,\n    //     // LowYieldSystem,\n    //     // RandomEvent,\n    //     // MediumYieldSystem,\n    //     // ShipWreck,\n    //     // HighYieldSystem,\n    //     // AncientMiningSystem,\n    //     // AncientWeaponSystem,\n    //     // AncientShipWreck,\n    //     // InsaneYieldSystem,\n    //     // AncientRacePassive\n    //     if (systemType == StarSystem.SystemType.Empty) {\n    //         // There is nothing here.\n    //         return;\n    //     } else if (\n    //         systemType == StarSystem.SystemType.AncientFleetAggressive ||\n    //         systemType == StarSystem.SystemType.AdvancedAlienFleetAggressive ||\n    //         systemType == StarSystem.SystemType.AiFleetAggressive ||\n    //         systemType == StarSystem.SystemType.AlienFleetAggressive\n    //     ) {\n    //         // generate fleet and technology with ancient being the strongest and alien being the weakest\n    //     } else if (\n    //         systemType == StarSystem.SystemType.LowYieldSystem ||\n    //         systemType == StarSystem.SystemType.MediumYieldSystem ||\n    //         systemType == StarSystem.SystemType.HighYieldSystem ||\n    //         systemType == StarSystem.SystemType.InsaneYieldSystem\n    //     ) {\n    //         uint16 yield = StarSystem.randomYield(systemType);\n    //         state.setStarSystemYield(star, yield);\n    //         address fhr = state.getFhrAddress();\n    //         uint256 _id = state.getTotalFhrTokens() + 1;\n    //         IFHR(fhr).mint(msg.sender, _id);\n    //         Events.logRandom(state.incrementTotalFhrTokens());\n    //     } else if (systemType == StarSystem.SystemType.SuperComputerEvent) {\n    //         // do event by pushing the event type to a mapping of the senders address and event type\n    //         // which will contain the criteria of the event\n    //     } else if (systemType == StarSystem.SystemType.ShipWreck) {\n    //         uint256 multiplier = rand % 2 == 0 ? 2 : 1;\n    //         SATs.Info memory ship = Discover.singleAllNonAncientShips();\n\n    //         ISat(sat).safeTransferFrom(address(this), msg.sender, ship.id, ship.amount * multiplier, '');\n    //     } else if (systemType == StarSystem.SystemType.AncientMiningSystem) {\n    //         SATs.Info memory ship = Discover.singleAncientMiningShip();\n\n    //         ISat(sat).safeTransferFrom(address(this), msg.sender, ship.id, ship.amount, '');\n    //     }\n    // }\n}\n",
  "sourcePath": "C:/Users/James/projects/tsuno-fe/contracts/GameOperations.sol",
  "compiler": {
    "name": "solc",
    "version": "0.6.12+commit.27d51765.Emscripten.clang"
  },
  "schemaVersion": "3.2.5",
  "updatedAt": "2020-10-04T21:25:02.619Z",
  "networkType": "ethereum",
  "devdoc": {
    "author": "Big Beluga Primary public function for entering into the protocol",
    "kind": "dev",
    "methods": {},
    "title": "Operation",
    "version": 1
  },
  "userdoc": {
    "kind": "user",
    "methods": {},
    "version": 1
  }
}