{
  "contractName": "GameOperations",
  "abi": [
    {
      "anonymous": false,
      "inputs": [
        {
          "indexed": false,
          "internalType": "address",
          "name": "attacker",
          "type": "address"
        },
        {
          "indexed": false,
          "internalType": "uint256",
          "name": "attackerOffense",
          "type": "uint256"
        },
        {
          "indexed": false,
          "internalType": "uint256",
          "name": "attackerDefense",
          "type": "uint256"
        },
        {
          "indexed": false,
          "internalType": "address",
          "name": "defender",
          "type": "address"
        },
        {
          "indexed": false,
          "internalType": "uint256",
          "name": "defenderOffense",
          "type": "uint256"
        },
        {
          "indexed": false,
          "internalType": "uint256",
          "name": "defenderDefense",
          "type": "uint256"
        }
      ],
      "name": "BattleStarted",
      "type": "event"
    },
    {
      "anonymous": false,
      "inputs": [
        {
          "indexed": false,
          "internalType": "bool",
          "name": "result",
          "type": "bool"
        },
        {
          "indexed": false,
          "internalType": "uint256",
          "name": "attackersHealth",
          "type": "uint256"
        },
        {
          "indexed": false,
          "internalType": "uint256",
          "name": "defendersHealth",
          "type": "uint256"
        }
      ],
      "name": "LogBattle",
      "type": "event"
    },
    {
      "anonymous": false,
      "inputs": [
        {
          "indexed": false,
          "internalType": "uint8",
          "name": "quadrant",
          "type": "uint8"
        },
        {
          "indexed": false,
          "internalType": "uint8",
          "name": "district",
          "type": "uint8"
        },
        {
          "indexed": false,
          "internalType": "uint8",
          "name": "sector",
          "type": "uint8"
        },
        {
          "indexed": false,
          "internalType": "uint256",
          "name": "star",
          "type": "uint256"
        }
      ],
      "name": "LogMove",
      "type": "event"
    },
    {
      "anonymous": false,
      "inputs": [
        {
          "indexed": false,
          "internalType": "uint256",
          "name": "aDamage",
          "type": "uint256"
        },
        {
          "indexed": false,
          "internalType": "uint256",
          "name": "dDamage",
          "type": "uint256"
        },
        {
          "indexed": false,
          "internalType": "uint256",
          "name": "aHealth",
          "type": "uint256"
        },
        {
          "indexed": false,
          "internalType": "uint256",
          "name": "dHealth",
          "type": "uint256"
        }
      ],
      "name": "LogRound",
      "type": "event"
    },
    {
      "anonymous": false,
      "inputs": [
        {
          "indexed": true,
          "internalType": "address",
          "name": "to",
          "type": "address"
        },
        {
          "indexed": false,
          "internalType": "uint8",
          "name": "systemType",
          "type": "uint8"
        }
      ],
      "name": "LogStarSystemDiscovery",
      "type": "event"
    },
    {
      "anonymous": false,
      "inputs": [
        {
          "indexed": false,
          "internalType": "uint256",
          "name": "random",
          "type": "uint256"
        }
      ],
      "name": "Random",
      "type": "event"
    },
    {
      "inputs": [
        {
          "internalType": "enum Types.SystemType",
          "name": "systemType",
          "type": "uint8"
        }
      ],
      "name": "getRandomYield",
      "outputs": [
        {
          "internalType": "uint16",
          "name": "rand",
          "type": "uint16"
        }
      ],
      "stateMutability": "view",
      "type": "function"
    },
    {
      "inputs": [
        {
          "internalType": "uint256",
          "name": "_seed",
          "type": "uint256"
        }
      ],
      "name": "setSeed",
      "outputs": [],
      "stateMutability": "nonpayable",
      "type": "function"
    },
    {
      "inputs": [
        {
          "internalType": "address",
          "name": "_gameStorage",
          "type": "address"
        }
      ],
      "name": "initialize",
      "outputs": [],
      "stateMutability": "nonpayable",
      "type": "function"
    },
    {
      "inputs": [
        {
          "components": [
            {
              "internalType": "uint8",
              "name": "quadrant",
              "type": "uint8"
            },
            {
              "internalType": "uint8",
              "name": "sector",
              "type": "uint8"
            },
            {
              "internalType": "uint8",
              "name": "district",
              "type": "uint8"
            },
            {
              "internalType": "uint256",
              "name": "star",
              "type": "uint256"
            }
          ],
          "internalType": "struct Types.Position",
          "name": "to",
          "type": "tuple"
        }
      ],
      "name": "move",
      "outputs": [],
      "stateMutability": "nonpayable",
      "type": "function"
    },
    {
      "inputs": [
        {
          "internalType": "address",
          "name": "defender",
          "type": "address"
        },
        {
          "internalType": "uint8",
          "name": "turns",
          "type": "uint8"
        }
      ],
      "name": "attack",
      "outputs": [],
      "stateMutability": "nonpayable",
      "type": "function"
    },
    {
      "inputs": [
        {
          "internalType": "uint256",
          "name": "tokenId",
          "type": "uint256"
        }
      ],
      "name": "deployPlanet",
      "outputs": [],
      "stateMutability": "nonpayable",
      "type": "function"
    }
  ],
  "bytecode": "0x6080604052600160345534801561001557600080fd5b506131d9806100256000396000f3fe608060405234801561001057600080fd5b50600436106100615760003560e01c80626c2f3a146100665780636ebb6d801461008f57806383954f16146100a45780638e905cfd146100b7578063c32a50f9146100ca578063c4d66de8146100dd575b600080fd5b610079610074366004612a4f565b6100f0565b604051610086919061309e565b60405180910390f35b6100a261009d3660046128ad565b6100f6565b005b6100a26100b2366004612b49565b610a4e565b6100a26100c5366004612a87565b610cf2565b6100a26100d8366004612b49565b611035565b6100a26100eb366004612875565b61103a565b50600090565b6001600160a01b0382163314156101285760405162461bcd60e51b815260040161011f90612f90565b60405180910390fd5b6001600160a01b0382161580159061013f57503315155b61015b5760405162461bcd60e51b815260040161011f90612eca565b610163612711565b603954604051633495a7e360e11b81526001600160a01b039091169063692b4fc690610193903390600401612c7a565b60806040518083038186803b1580156101ab57600080fd5b505afa1580156101bf573d6000803e3d6000fd5b505050506040513d601f19601f820116820180604052508101906101e39190612ae8565b8152603954604051633495a7e360e11b81526001600160a01b039091169063692b4fc690610215908690600401612c7a565b60806040518083038186803b15801561022d57600080fd5b505afa158015610241573d6000803e3d6000fd5b505050506040513d601f19601f820116820180604052508101906102659190612ae8565b60a082018190528151610277916113b5565b6102935760405162461bcd60e51b815260040161011f90612fc7565b61029c33611412565b60808501526060840152604083015260208201526102b983611412565b61012085015261010084015260e0830181905260c08301829052602083015160408085015190517f39c31677b1650d5b983fb38bf1ee25e9ca25658b8bdfb9263e59651183b483689461031394339493928a929190612d04565b60405180910390a1600061033c826020015183604001518460c001518560e00151600188611733565b905080156107d45760005b8260600151518110156103d35760008360600151828151811061036657fe5b60200260200101511161037a5760006103b0565b6103b060646103aa60148660600151858151811061039457fe5b60200260200101516118e590919063ffffffff16565b9061191f565b836060015182815181106103c057fe5b6020908102919091010152600101610347565b50603a546080830151606084015160405163feba2dd560e01b81526001600160a01b039093169263feba2dd59261040e923392600401612c8e565b600060405180830381600087803b15801561042857600080fd5b505af115801561043c573d6000803e3d6000fd5b505050508161010001515167ffffffffffffffff8111801561045d57600080fd5b50604051908082528060200260200182016040528015610487578160200160208202803683370190505b5061014083015260005b8261010001515181101561057a5760006104bc60646103aa6046876101000151868151811061039457fe5b9050600084610100015183815181106104d157fe5b6020026020010151116104e55760006104e7565b805b84610100015183815181106104f857fe5b60200260200101818152505080846101000151838151811061051657fe5b60200260200101511161052a576000610555565b61055581856101000151848151811061053f57fe5b602002602001015161196190919063ffffffff16565b846101400151838151811061056657fe5b602090810291909101015250600101610491565b50603954604051634ec7272b60e11b81526000916001600160a01b031690639d8e4e56906105ac908890600401612c7a565b60206040518083038186803b1580156105c457600080fd5b505afa1580156105d8573d6000803e3d6000fd5b505050506040513d601f19601f820116820180604052508101906105fc9190612b61565b90508015610760576035546040516331a9108f60e11b81526000916001600160a01b031690636352211e906106359085906004016130ad565b60206040518083038186803b15801561064d57600080fd5b505afa158015610661573d6000803e3d6000fd5b505050506040513d601f19601f820116820180604052508101906106859190612891565b603a5461012086015161014087015160405163ba1edf1760e01b81529394506001600160a01b039092169263ba1edf17926106c7928692909190600401612c8e565b600060405180830381600087803b1580156106e157600080fd5b505af11580156106f5573d6000803e3d6000fd5b5050603a54604051624f9d7360e21b81526001600160a01b03909116925063013e75cc915061072c90849033908790600401612d3e565b600060405180830381600087803b15801561074657600080fd5b505af115801561075a573d6000803e3d6000fd5b50505050505b603a5461012084015161010085015160405163feba2dd560e01b81526001600160a01b039093169263feba2dd59261079c928a92600401612c8e565b600060405180830381600087803b1580156107b657600080fd5b505af11580156107ca573d6000803e3d6000fd5b5050505050610a48565b60005b826060015151811015610847576000836060015182815181106107f657fe5b60200260200101511161080a576000610824565b61082460646103aa605a8660600151858151811061039457fe5b8360600151828151811061083457fe5b60209081029190910101526001016107d7565b50603a546080830151606084015160405163feba2dd560e01b81526001600160a01b039093169263feba2dd592610882923392600401612c8e565b600060405180830381600087803b15801561089c57600080fd5b505af11580156108b0573d6000803e3d6000fd5b505050508161010001515167ffffffffffffffff811180156108d157600080fd5b506040519080825280602002602001820160405280156108fb578160200160208202803683370190505b5061014083015260005b826101000151518110156109d857600061093060646103aa600a876101000151868151811061039457fe5b90506000846101000151838151811061094557fe5b60200260200101511161095957600061095b565b805b846101000151838151811061096c57fe5b60200260200101818152505080846101000151838151811061098a57fe5b60200260200101511161099e5760006109b3565b6109b381856101000151848151811061053f57fe5b84610140015183815181106109c457fe5b602090810291909101015250600101610905565b50603a5461012083015161010084015160405163feba2dd560e01b81526001600160a01b039093169263feba2dd592610a15928992600401612c8e565b600060405180830381600087803b158015610a2f57600080fd5b505af1158015610a43573d6000803e3d6000fd5b505050505b50505050565b6035546040516331a9108f60e11b8152829133916001600160a01b0390911690636352211e90610a829085906004016130ad565b60206040518083038186803b158015610a9a57600080fd5b505afa158015610aae573d6000803e3d6000fd5b505050506040513d601f19601f82011682018060405250810190610ad29190612891565b6001600160a01b031614610af85760405162461bcd60e51b815260040161011f90612ea0565b6039546040516305f941bf60e51b81526000916001600160a01b03169063bf2837e090610b299086906004016130ad565b60206040518083038186803b158015610b4157600080fd5b505afa158015610b55573d6000803e3d6000fd5b505050506040513d601f19601f82011682018060405250810190610b799190612b61565b6038546036546035546037546040519495506000946001600160a01b03948516946320515251948a94610bbf948894928416939182169291169086908b90602401612d62565b60408051601f198184030181529181526020820180516001600160e01b031663d7c41c7960e01b1790525160e084901b6001600160e01b0319168152610c099291906004016130cd565b602060405180830381600087803b158015610c2357600080fd5b505af1158015610c37573d6000803e3d6000fd5b505050506040513d601f19601f82011682018060405250810190610c5b9190612891565b60395460405163f52084e960e01b81529192506001600160a01b03169063f52084e990610c8e90879085906004016130b6565b600060405180830381600087803b158015610ca857600080fd5b505af1158015610cbc573d6000803e3d6000fd5b50506039546040516375997ce960e01b81526001600160a01b0390911692506375997ce99150610a1590879085906004016130b6565b610d8181603960009054906101000a90046001600160a01b03166001600160a01b031663cf677f576040518163ffffffff1660e01b815260040160806040518083038186803b158015610d4457600080fd5b505afa158015610d58573d6000803e3d6000fd5b505050506040513d601f19601f82011682018060405250810190610d7c9190612ae8565b6119a3565b610d9d5760405162461bcd60e51b815260040161011f90612e43565b610da5612777565b603954604051633495a7e360e11b81526001600160a01b039091169063692b4fc690610dd5903390600401612c7a565b60806040518083038186803b158015610ded57600080fd5b505afa158015610e01573d6000803e3d6000fd5b505050506040513d601f19601f82011682018060405250810190610e259190612ae8565b9050610e3081611a56565b15610ebe57603960009054906101000a90046001600160a01b03166001600160a01b0316636d18c9706040518163ffffffff1660e01b815260040160806040518083038186803b158015610e8357600080fd5b505afa158015610e97573d6000803e3d6000fd5b505050506040513d601f19601f82011682018060405250810190610ebb9190612ae8565b90505b610ec882826113b5565b15610ee55760405162461bcd60e51b815260040161011f90613024565b60395460405163bedc6d2760e01b81526001600160a01b039091169063bedc6d2790610f179033908690600401612cce565b600060405180830381600087803b158015610f3157600080fd5b505af1158015610f45573d6000803e3d6000fd5b505050507f067ed149b8be43d30a47ed69bc882367f66239804079b28dd002d36fc3f46ed48260000151836040015184602001518560600151604051610f8e949392919061311d565b60405180910390a16039546040516348bed1c960e11b81526000916001600160a01b03169063917da39290610fc790869060040161306c565b60206040518083038186803b158015610fdf57600080fd5b505afa158015610ff3573d6000803e3d6000fd5b505050506040513d601f19601f820116820180604052508101906110179190612a6b565b601481111561102257fe5b14156110315761103182611a8e565b5050565b603355565b600054610100900460ff16806110535750611053612144565b80611061575060005460ff16155b61107d5760405162461bcd60e51b815260040161011f90612f42565b600054610100900460ff161580156110a8576000805460ff1961ff0019909116610100171660011790555b603980546001600160a01b0319166001600160a01b03848116919091179182905560408051633800918160e21b81529051929091169163e002460491600480820192602092909190829003018186803b15801561110457600080fd5b505afa158015611118573d6000803e3d6000fd5b505050506040513d601f19601f8201168201806040525081019061113c9190612891565b603a80546001600160a01b0319166001600160a01b0392831617905560395460408051637718403560e01b8152905191909216916377184035916004808301926020929190829003018186803b15801561119557600080fd5b505afa1580156111a9573d6000803e3d6000fd5b505050506040513d601f19601f820116820180604052508101906111cd9190612891565b603580546001600160a01b0319166001600160a01b039283161790556039546040805163123cfce160e01b81529051919092169163123cfce1916004808301926020929190829003018186803b15801561122657600080fd5b505afa15801561123a573d6000803e3d6000fd5b505050506040513d601f19601f8201168201806040525081019061125e9190612891565b603680546001600160a01b0319166001600160a01b0392831617905560395460408051635beec2bb60e01b815290519190921691635beec2bb916004808301926020929190829003018186803b1580156112b757600080fd5b505afa1580156112cb573d6000803e3d6000fd5b505050506040513d601f19601f820116820180604052508101906112ef9190612891565b603780546001600160a01b0319166001600160a01b0392831617905560395460408051633dd742c960e01b815290519190921691633dd742c9916004808301926020929190829003018186803b15801561134857600080fd5b505afa15801561135c573d6000803e3d6000fd5b505050506040513d601f19601f820116820180604052508101906113809190612891565b603880546001600160a01b0319166001600160a01b03929092169190911790558015611031576000805461ff00191690555050565b8051825160009160ff91821691161480156113dd5750816040015160ff16836040015160ff16145b80156113f65750816020015160ff16836020015160ff16145b8015611409575081606001518360600151145b90505b92915050565b600080606080603960009054906101000a90046001600160a01b03166001600160a01b031663e2cd08626040518163ffffffff1660e01b815260040160206040518083038186803b15801561146657600080fd5b505afa15801561147a573d6000803e3d6000fd5b505050506040513d601f19601f8201168201806040525081019061149e9190612b61565b67ffffffffffffffff811180156114b457600080fd5b506040519080825280602002602001820160405280156114de578160200160208202803683370190505b5090506060815167ffffffffffffffff811180156114fb57600080fd5b50604051908082528060200260200182016040528015611525578160200160208202803683370190505b50905060005b825181101561157a578083828151811061154157fe5b6020026020010181815250508682828151811061155a57fe5b6001600160a01b039092166020928302919091019091015260010161152b565b506037546040516313849cfd60e21b81526001600160a01b0390911690634e1273f4906115ad9084908690600401612d9c565b60006040518083038186803b1580156115c557600080fd5b505afa1580156115d9573d6000803e3d6000fd5b505050506040513d6000823e601f3d908101601f1916820160405261160191908101906129b3565b603954604051637008ec1b60e11b815291945060609182916001600160a01b03169063e011d83690611637908790600401612df2565b60006040518083038186803b15801561164f57600080fd5b505afa158015611663573d6000803e3d6000fd5b505050506040513d6000823e601f3d908101601f1916820160405261168b91908101906129ee565b9150915060005b8551811015611728576000808483815181106116aa57fe5b60200260200101518484815181106116be57fe5b6020026020010151915091506116f08884815181106116d957fe5b6020026020010151836118e590919063ffffffff16565b8a01995061171a88848151811061170357fe5b6020026020010151826118e590919063ffffffff16565b909801975050600101611692565b505050509193509193565b6000600a81611742898361191f565b61174d576001611757565b611757898361191f565b90506000611765888461191f565b61177057600161177a565b61177a888461191f565b9050818102600080805b8860ff168160ff161015611894578915611828576117a360018661214a565b92506117b060018761214a565b91507f3ab8d16fa0445f4581f0e35996348d2507338000fb353856d56f5db15618e39482848f8e6040516117e794939291906130f4565b60405180910390a1828d116117fd576000611807565b6118078d84611961565b9c50818b11611817576000611821565b6118218b83611961565b9a50611877565b61183360018661214a565b925061184060018761214a565b9150818b1161185057600061185a565b61185a8b83611961565b9a50828d1161186a576000611874565b6118748d84611961565b9c505b8c158061188257508a155b1561188c57611894565b600101611784565b50898c1196507fa09af1f69f0376e675eb9a774ff51b588670dda43c3dd6805069596312e3bca5878d8c6040516118cd93929190612e05565b60405180910390a15050505050509695505050505050565b6000826118f45750600061140c565b8282028284828161190157fe5b04146114095760405162461bcd60e51b815260040161011f90612f01565b600061140983836040518060400160405280601a81526020017f536166654d6174683a206469766973696f6e206279207a65726f0000000000008152506121e4565b600061140983836040518060400160405280601e81526020017f536166654d6174683a207375627472616374696f6e206f766572666c6f77000081525061221d565b815160009060ff1615806119bf57508151835160ff9182169116115b156119cc5750600061140c565b604083015160ff1615806119ed5750816040015160ff16836040015160ff16115b156119fa5750600061140c565b602083015160ff161580611a1b5750816020015160ff16836020015160ff16115b15611a285750600061140c565b60608301511580611a40575081606001518360600151115b15611a4d5750600061140c565b50600192915050565b805160009060ff161580611a6f5750604082015160ff16155b80611a7f5750602082015160ff16155b8061140c575050606001511590565b600080611a99612249565b60395460405163083b214d60e41b81529294509092506001600160a01b0316906383b214d090611acf908690869060040161307a565b600060405180830381600087803b158015611ae957600080fd5b505af1158015611afd573d6000803e3d6000fd5b50505050336001600160a01b03167f119eeac2475e395d798da3c40d9f901a3131b79a826c604a60d078764e8ce408836014811115611b3857fe5b604051611b45919061310f565b60405180910390a26009826014811115611b5b57fe5b1415611b68575050612141565b6001826014811115611b7657fe5b1480611b8d57506003826014811115611b8b57fe5b145b80611ba357506005826014811115611ba157fe5b145b15611caa57603954604051636a2a747360e01b815260009182916001600160a01b0390911690636a2a747390611bdd908790600401612e1d565b6040805180830381600087803b158015611bf657600080fd5b505af1158015611c0a573d6000803e3d6000fd5b505050506040513d601f19601f82011682018060405250810190611c2e9190612b79565b91509150600080606080611c4133611412565b93509350935093507f39c31677b1650d5b983fb38bf1ee25e9ca25658b8bdfb9263e59651183b48368338787308888604051611c8296959493929190612d04565b60405180910390a16000611c9c878787876001600a611733565b90505050505050505061213e565b600b826014811115611cb857fe5b1480611ccf5750600d826014811115611ccd57fe5b145b80611ce55750600f826014811115611ce357fe5b145b80611cfb57506013826014811115611cf957fe5b145b15611eee57603954604051634f4815d760e01b815260009182916001600160a01b0390911690634f4815d790611d35908790600401612e1d565b6040805180830381600087803b158015611d4e57600080fd5b505af1158015611d62573d6000803e3d6000fd5b505050506040513d601f19601f82011682018060405250810190611d869190612b79565b915091506000603960009054906101000a90046001600160a01b03166001600160a01b03166304d5aae16040518163ffffffff1660e01b8152600401602060405180830381600087803b158015611ddc57600080fd5b505af1158015611df0573d6000803e3d6000fd5b505050506040513d601f19601f82011682018060405250810190611e149190612b61565b6039549091506001600160a01b0316634b087b2282611e33868661214a565b6040518363ffffffff1660e01b8152600401611e509291906130e6565b600060405180830381600087803b158015611e6a57600080fd5b505af1158015611e7e573d6000803e3d6000fd5b5050603a5460405163a080ee1560e01b81526001600160a01b03909116925063a080ee159150611eb49033908590600401612ceb565b600060405180830381600087803b158015611ece57600080fd5b505af1158015611ee2573d6000803e3d6000fd5b5050505050505061213e565b600e826014811115611efc57fe5b141561202c576000611f0f82600261251d565b15611f1b576001611f1e565b60025b60ff169050611f2b61279e565b611f3361255f565b60408051600180825281830190925291925060609190602080830190803683375050604080516001808252818301909252929350606092915060208083019080368337019050509050826020015182600081518110611f8e57fe5b60209081029190910101528251611fa590856118e5565b81600081518110611fb257fe5b6020908102919091010152603a5460405163ba1edf1760e01b81526001600160a01b039091169063ba1edf1790611ff190339086908690600401612c8e565b600060405180830381600087803b15801561200b57600080fd5b505af115801561201f573d6000803e3d6000fd5b505050505050505061213e565b601082601481111561203a57fe5b141561213e5761204861279e565b612050612631565b604080516001808252818301909252919250606091906020808301908036833750506040805160018082528183019092529293506060929150602080830190803683370190505090508260200151826000815181106120ab57fe5b6020026020010181815250508260000151816000815181106120c957fe5b6020908102919091010152603a5460405163ba1edf1760e01b81526001600160a01b039091169063ba1edf179061210890339086908690600401612c8e565b600060405180830381600087803b15801561212257600080fd5b505af1158015612136573d6000803e3d6000fd5b505050505050505b50505b50565b303b1590565b6000813360335460345460405160200161216693929190612c50565b6040516020818303038152906040528051906020012060001c8161218657fe5b069050828110612196578061219a565b8281015b6034805460010190556040519091507fbcf69e7223438137d9099bb71b1772c3eb2a5a8840750b247913cd6fd4d249d5906121d69083906130ad565b60405180910390a192915050565b600081836122055760405162461bcd60e51b815260040161011f9190612e30565b50600083858161221157fe5b049150505b9392505050565b600081848411156122415760405162461bcd60e51b815260040161011f9190612e30565b505050900390565b600080612710606461225c60018361214a565b925082600161ffff821614156122755760019450612516565b8061ffff16602a141561228b5760029450612516565b816005028161ffff16116122a25760039450612516565b816005028161ffff161180156122bf575081600a028161ffff1611155b156122cd5760049450612516565b81600a028161ffff161180156122ea5750816014028161ffff1611155b156122f85760059450612516565b816014028161ffff16118015612315575081601e028161ffff1611155b156123235760069450612516565b81601e028161ffff161180156123405750816023028161ffff1611155b1561234e5760079450612516565b816023028161ffff1611801561236b5750816028028161ffff1611155b156123795760089450612516565b816028028161ffff161180156123965750816041028161ffff1611155b156123a457600b9450612516565b816041028161ffff161180156123c15750816046028161ffff1611155b156123cf57600c9450612516565b816046028161ffff161180156123ec575081604b168161ffff1611155b156123fa57600d9450612516565b816046028161ffff161180156124175750816050168161ffff1611155b1561242557600e9450612516565b816050028161ffff161180156124425750816055168161ffff1611155b1561245057600f9450612516565b816055028161ffff1611801561246d575081605a168161ffff1611155b1561247b5760109450612516565b81605a028161ffff16118015612498575081605f168161ffff1611155b156124a65760119450612516565b81605f028161ffff161180156124c35750816063168161ffff1611155b156124d15760129450612516565b816063028161ffff161180156124ee5750600183038161ffff1611155b156124fc5760139450612516565b828161ffff1614156125115760149450612516565b600994505b5050509091565b600061140983836040518060400160405280601881526020017f536166654d6174683a206d6f64756c6f206279207a65726f00000000000000008152506126dd565b61256761279e565b61256f6127b8565b73__Types_________________________________63c0e6aff16040518163ffffffff1660e01b81526004016103006040518083038186803b1580156125b457600080fd5b505af41580156125c8573d6000803e3d6000fd5b505050506040513d601f19601f820116820180604052508101906125ec91906128e5565b905060006125fc6000601861214a565b9050600082826018811061260c57fe5b6020020151905060405180604001604052806001815260200182815250935050505090565b61263961279e565b6126416127d7565b73__Types_________________________________63075587706040518163ffffffff1660e01b815260040160606040518083038186803b15801561268557600080fd5b505af4158015612699573d6000803e3d6000fd5b505050506040513d601f19601f820116820180604052508101906126bd919061294d565b905060006126cd6000600361214a565b9050600082826003811061260c57fe5b600081836126fe5760405162461bcd60e51b815260040161011f9190612e30565b5082848161270857fe5b06949350505050565b604051806101600160405280612725612777565b81526020016000815260200160008152602001606081526020016060815260200161274e612777565b815260200160008152602001600081526020016060815260200160608152602001606081525090565b60408051608081018252600080825260208201819052918101829052606081019190915290565b604051806040016040528060008152602001600081525090565b6040518061030001604052806018906020820280368337509192915050565b60405180606001604052806003906020820280368337509192915050565b600082601f830112612805578081fd5b815167ffffffffffffffff81111561281b578182fd5b602080820261282b828201613141565b8381529350818401858301828701840188101561284757600080fd5b600092505b8483101561286a57805182526001929092019190830190830161284c565b505050505092915050565b600060208284031215612886578081fd5b813561140981613172565b6000602082840312156128a2578081fd5b815161140981613172565b600080604083850312156128bf578081fd5b82356128ca81613172565b915060208301356128da81613194565b809150509250929050565b60006103008083850312156128f8578182fd5b83601f840112612906578182fd5b61290f81613141565b808486848701111561291f578485fd5b8493505b601884101561294357805183526001939093019260209283019201612923565b5095945050505050565b60006060828403121561295e578081fd5b82601f83011261296c578081fd5b6129766060613141565b808385606086011115612987578384fd5b835b60038110156129a8578151845260209384019390910190600101612989565b509095945050505050565b6000602082840312156129c4578081fd5b815167ffffffffffffffff8111156129da578182fd5b6129e6848285016127f5565b949350505050565b60008060408385031215612a00578182fd5b825167ffffffffffffffff80821115612a17578384fd5b612a23868387016127f5565b93506020850151915080821115612a38578283fd5b50612a45858286016127f5565b9150509250929050565b600060208284031215612a60578081fd5b813561140981613187565b600060208284031215612a7c578081fd5b815161140981613187565b600060808284031215612a98578081fd5b612aa26080613141565b8235612aad81613194565b81526020830135612abd81613194565b60208201526040830135612ad081613194565b60408201526060928301359281019290925250919050565b600060808284031215612af9578081fd5b612b036080613141565b8251612b0e81613194565b81526020830151612b1e81613194565b60208201526040830151612b3181613194565b60408201526060928301519281019290925250919050565b600060208284031215612b5a578081fd5b5035919050565b600060208284031215612b72578081fd5b5051919050565b60008060408385031215612b8b578182fd5b505080516020909101519092909150565b6000815180845260208085019450808401835b83811015612bcb57815187529582019590820190600101612baf565b509495945050505050565b60008151808452815b81811015612bfb57602081850181015186830182015201612bdf565b81811115612c0c5782602083870101525b50601f01601f19169290920160200192915050565b60ff815116825260ff602082015116602083015260ff6040820151166040830152606081015160608301525050565b60609390931b6bffffffffffffffffffffffff191683526014830191909152603482015260540190565b6001600160a01b0391909116815260200190565b6001600160a01b0384168152606060208201819052600090612cb290830185612b9c565b8281036040840152612cc48185612b9c565b9695505050505050565b6001600160a01b038316815260a081016122166020830184612c21565b6001600160a01b03929092168252602082015260400190565b6001600160a01b0396871681526020810195909552604085019390935293166060830152608082019290925260a081019190915260c00190565b6001600160a01b039384168152919092166020820152604081019190915260600190565b6001600160a01b0396871681529486166020860152928516604085015293166060830152608082019290925260a081019190915260c00190565b604080825283519082018190526000906020906060840190828701845b82811015612dde5781516001600160a01b031684529284019290840190600101612db9565b50505083810382850152612cc48186612b9c565b6000602082526114096020830184612b9c565b92151583526020830191909152604082015260600190565b60208101612e2a83613168565b91905290565b6000602082526114096020830184612bd6565b60208082526038908201527f506f736974696f6e206d7573742062652077697468696e20736574206c696d6960408201527f7473206f6620746865206b6e6f776e20756e6976657273650000000000000000606082015260800190565b60208082526010908201526f29b2b73232b9103737ba1037bbb732b960811b604082015260600190565b6020808252601f908201527f416464726573736573206d757374206578697374206d75737420657869737400604082015260600190565b60208082526021908201527f536166654d6174683a206d756c7469706c69636174696f6e206f766572666c6f6040820152607760f81b606082015260800190565b6020808252602e908201527f436f6e747261637420696e7374616e63652068617320616c726561647920626560408201526d195b881a5b9a5d1a585b1a5e995960921b606082015260800190565b6020808252601a908201527f596f752063616e6e6f742061747461636b20796f757273656c66000000000000604082015260600190565b60208082526038908201527f596f752063616e206f6e6c792061747461636b2070656f706c6520617420796f60408201527f75722063757272656e742073746172206c6f636174696f6e0000000000000000606082015260800190565b60208082526028908201527f596f752063616e6e6f74206d6f766520746f20796f75722063757272656e74206040820152673637b1b0ba34b7b760c11b606082015260800190565b6080810161140c8284612c21565b60a081016130888285612c21565b61309183613168565b8260808301529392505050565b61ffff91909116815260200190565b90815260200190565b9182526001600160a01b0316602082015260400190565b6000838252604060208301526129e66040830184612bd6565b918252602082015260400190565b93845260208401929092526040830152606082015260800190565b60ff91909116815260200190565b60ff9485168152928416602084015292166040820152606081019190915260800190565b60405181810167ffffffffffffffff8111828210171561316057600080fd5b604052919050565b6015811061214157fe5b6001600160a01b038116811461214157600080fd5b6015811061214157600080fd5b60ff8116811461214157600080fdfea2646970667358221220d291c23729775c1100500ae016cb636cbeab9e1786593903e678e383fa3a186764736f6c634300060c0033",
  "immutableReferences": {},
  "source": "// SPDX-License-Identifier: MIT\n\npragma solidity 0.6.12;\npragma experimental ABIEncoderV2;\n\nimport {GameStorage} from './GameStorage.sol';\nimport {SafeMath} from '@openzeppelin/contracts/math/SafeMath.sol';\nimport {Initializable} from '@openzeppelin/upgrades-core/contracts/Initializable.sol';\nimport {Types} from './lib/Types.sol';\nimport {Discovery} from './Discovery.sol';\nimport {ITreasury} from './interfaces/ITreasury.sol';\nimport {IFHR} from './interfaces/IFHR.sol';\nimport {ISolar} from './interfaces/ISolar.sol';\nimport {ISat} from './interfaces/ISat.sol';\nimport {PlanetManager} from './PlanetManager.sol';\nimport {GameStorage} from './GameStorage.sol';\n\n/**\n * @title Operation\n * @author Big Beluga\n *\n * Primary public function for entering into the protocol\n */\ncontract GameOperations is Initializable, Discovery {\n    using SafeMath for uint256;\n    IFHR fhr;\n    ISolar solar;\n    ISat sats;\n    PlanetManager pm;\n    // ============ Constants ============\n    event LogMove(uint8 quadrant, uint8 district, uint8 sector, uint256 star);\n    event LogStarSystemDiscovery(address indexed to, uint8 systemType);\n    event LogBattle(bool result, uint256 attackersHealth, uint256 defendersHealth);\n    event Random(uint256 random);\n    event LogRound(uint256 aDamage, uint256 dDamage, uint256 aHealth, uint256 dHealth);\n    event BattleStarted(\n        address attacker,\n        uint256 attackerOffense,\n        uint256 attackerDefense,\n        address defender,\n        uint256 defenderOffense,\n        uint256 defenderDefense\n    );\n\n    struct AttackInfo {\n        Types.Position attackerPos;\n        uint256 a_offense;\n        uint256 a_defense;\n        uint256[] a_balances;\n        uint256[] a_ids;\n        Types.Position defenderPos;\n        uint256 d_offense;\n        uint256 d_defense;\n        uint256[] d_balances;\n        uint256[] d_ids;\n        uint256[] d_retreated;\n    }\n\n    GameStorage GS;\n    ITreasury TS;\n\n    modifier onlyTokenHolder(uint256 tokenId) {\n        require(fhr.ownerOf(tokenId) == msg.sender, 'Sender not owner');\n        _;\n    }\n\n    function initialize(address _gameStorage) public initializer {\n        GS = GameStorage(_gameStorage);\n        TS = ITreasury(GS.getTreasuryAddress());\n        fhr = IFHR(GS.getFhrAddress());\n        solar = ISolar(GS.getSolarAddress());\n        sats = ISat(GS.getSatAddress());\n        pm = PlanetManager(GS.getPlanetManagerAddress());\n    }\n\n    function move(Types.Position memory to) public {\n        require(\n            Types.positionWithinBoundaries(to, GS.getBoundaries()),\n            'Position must be within set limits of the known universe'\n        );\n        Types.Position memory from = GS.getMasterFleetPosition(msg.sender);\n\n        if (Types.positionNotSet(from)) {\n            from = GS.getStartPosition();\n        }\n\n        require(!Types.positionIsEqual(to, from), 'You cannot move to your current location');\n\n        GS.setMasterFleetPosition(msg.sender, to);\n        emit LogMove(to.quadrant, to.district, to.sector, to.star);\n\n        if (GS.getStarSystemType(to) == Types.SystemType.Undiscovered) {\n            explore(to);\n        }\n    }\n\n    function battle(\n        uint256 a_offense,\n        uint256 a_health,\n        uint256 d_offense,\n        uint256 d_health,\n        bool defenderGoesFirst,\n        uint8 turns\n    ) internal returns (bool result) {\n        uint256 turnThreshold = 10;\n        uint256 attackerAttack = uint256(\n            a_offense.div(turnThreshold) != 0 ? a_offense.div(turnThreshold) : 1\n        );\n        uint256 defenderAttack = uint256(\n            d_offense.div(turnThreshold) != 0 ? d_offense.div(turnThreshold) : 1\n        );\n\n        uint256 nonce = attackerAttack * defenderAttack;\n        uint256 damageD;\n        uint256 damageA;\n        for (uint8 i = 0; i < turns; i++) {\n            if (defenderGoesFirst) {\n                damageD = randomrange(1, defenderAttack);\n                damageA = randomrange(1, attackerAttack);\n                emit LogRound(damageA, damageD, a_health, d_health);\n                a_health = a_health > damageD ? a_health.sub(damageD) : 0;\n                d_health = d_health > damageA ? d_health.sub(damageA) : 0;\n            } else {\n                damageD = randomrange(1, defenderAttack);\n                damageA = randomrange(1, attackerAttack);\n                d_health = d_health > damageA ? d_health.sub(damageA) : 0;\n                a_health = a_health > damageD ? a_health.sub(damageD) : 0;\n            }\n            if (a_health == 0 || d_health == 0) break;\n        }\n\n        // the result is true if the attacker wins and false if the defender wins\n        result = a_health > d_health;\n\n        emit LogBattle(result, a_health, d_health);\n    }\n\n    function calculateStats(address fleet)\n        internal\n        returns (\n            uint256 offense,\n            uint256 defense,\n            uint256[] memory balances,\n            uint256[] memory ids\n        )\n    {\n        ids = new uint256[](GS.getTotalSats());\n        address[] memory accounts = new address[](ids.length);\n        for (uint256 i = 0; i < ids.length; i++) {\n            ids[i] = i;\n            accounts[i] = fleet;\n        }\n        balances = sats.balanceOfBatch(accounts, ids);\n        (uint256[] memory offenses, uint256[] memory defenses) = GS.batchGetSatInfo(ids);\n        for (uint256 i = 0; i < balances.length; i++) {\n            (uint256 o, uint256 d) = (offenses[i], defenses[i]);\n            offense += o.mul(balances[i]);\n            defense += d.mul(balances[i]);\n        }\n    }\n\n    function attack(address defender, uint8 turns) public {\n        require(defender != msg.sender, 'You cannot attack yourself');\n        require(defender != address(0) && msg.sender != address(0), 'Addresses must exist must exist');\n        AttackInfo memory info;\n\n        info.attackerPos = GS.getMasterFleetPosition(msg.sender);\n        info.defenderPos = GS.getMasterFleetPosition(defender);\n\n        require(\n            Types.positionIsEqual(info.attackerPos, info.defenderPos),\n            'You can only attack people at your current star location'\n        );\n\n        (info.a_offense, info.a_defense, info.a_balances, info.a_ids) = calculateStats(msg.sender);\n        (info.d_offense, info.d_defense, info.d_balances, info.d_ids) = calculateStats(defender);\n\n        emit BattleStarted(\n            msg.sender,\n            info.a_offense,\n            info.a_defense,\n            defender,\n            info.d_offense,\n            info.d_defense\n        );\n        bool result = battle(info.a_offense, info.a_defense, info.d_offense, info.d_defense, true, turns);\n\n        if (result) {\n            for (uint256 i = 0; i < info.a_balances.length; i++) {\n                info.a_balances[i] = info.a_balances[i] > 0 ? info.a_balances[i].mul(20).div(100) : 0; // 20% of attackers fleet is lost in a successful attack\n            }\n            TS.recieveSats(msg.sender, info.a_ids, info.a_balances);\n\n            info.d_retreated = new uint256[](info.d_balances.length);\n            for (uint256 i = 0; i < info.d_balances.length; i++) {\n                // 70% of defenders fleet is lost in a successful attack\n                uint256 losses = info.d_balances[i].mul(70).div(100);\n                info.d_balances[i] = info.d_balances[i] > 0 ? losses : 0;\n                info.d_retreated[i] = info.d_balances[i] > losses ? info.d_balances[i].sub(losses) : 0;\n            }\n\n            uint256 _tokenId = GS.getProxyAddressToTokenId(defender);\n            if (_tokenId > 0) {\n                // the remaining fleet managed to escape back to command\n                // while destroying the mining equipment\n                address owner = fhr.ownerOf(_tokenId);\n                TS.sendSats(owner, info.d_ids, info.d_retreated);\n                TS.transferFhr(owner, msg.sender, _tokenId);\n            }\n            TS.recieveSats(defender, info.d_ids, info.d_balances);\n        } else {\n            for (uint256 i = 0; i < info.a_balances.length; i++) {\n                info.a_balances[i] = info.a_balances[i] > 0 ? info.a_balances[i].mul(90).div(100) : 0; // 20% of attackers fleet is lost in a successful attack\n            }\n            TS.recieveSats(msg.sender, info.a_ids, info.a_balances);\n\n            info.d_retreated = new uint256[](info.d_balances.length);\n            for (uint256 i = 0; i < info.d_balances.length; i++) {\n                // 70% of defenders fleet is lost in a successful attack\n                uint256 losses = info.d_balances[i].mul(10).div(100);\n                info.d_balances[i] = info.d_balances[i] > 0 ? losses : 0;\n                info.d_retreated[i] = info.d_balances[i] > losses ? info.d_balances[i].sub(losses) : 0;\n            }\n\n            TS.recieveSats(defender, info.d_ids, info.d_balances);\n        }\n    }\n\n    function deployPlanet(uint256 tokenId) public onlyTokenHolder(tokenId) {\n        uint256 yield = GS.getTokenIdToYield(tokenId);\n        address _address = pm.createPlanet(\n            tokenId,\n            abi.encodeWithSignature(\n                'initialize(address,address,address,address,uint256,uint256)',\n                address(pm),\n                address(solar),\n                address(fhr),\n                address(sats),\n                tokenId,\n                yield\n            )\n        );\n        GS.setTokenIdToProxyAddress(tokenId, _address);\n        GS.setProxyAddressToTokenId(tokenId, _address);\n    }\n\n    function explore(Types.Position memory star) internal {\n        (Types.SystemType systemType, uint256 rand) = Discovery.randomSystemType();\n        GS.setStarSystemType(star, systemType);\n        emit LogStarSystemDiscovery(msg.sender, uint8(systemType));\n\n        if (systemType == Types.SystemType.Empty) {\n            // There is nothing here.\n            return;\n        } else if (\n            systemType == Types.SystemType.AncientFleetAggressive ||\n            systemType == Types.SystemType.AdvancedAlienFleetAggressive ||\n            systemType == Types.SystemType.AlienFleetAggressive\n        ) {\n            (uint256 a_offense, uint256 a_defense) = GS.getAiFleetInfo(systemType);\n            (\n                uint256 d_offense,\n                uint256 d_defense,\n                uint256[] memory d_balances,\n                uint256[] memory d_ids\n            ) = calculateStats(msg.sender);\n\n            emit BattleStarted(msg.sender, a_offense, a_defense, address(this), d_offense, d_defense);\n            bool result = battle(a_offense, a_defense, d_offense, d_defense, true, 10);\n        } else if (\n            systemType == Types.SystemType.LowYieldSystem ||\n            systemType == Types.SystemType.MediumYieldSystem ||\n            systemType == Types.SystemType.HighYieldSystem ||\n            systemType == Types.SystemType.InsaneYieldSystem\n        ) {\n            (uint256 low, uint256 high) = GS.getStarSystemYieldRange(systemType);\n            uint256 _id = GS.incrementTotalFhr();\n            GS.setTokenIdToYield(_id, randomrange(low, high));\n            TS.mintFhr(msg.sender, _id);\n        } else if (systemType == Types.SystemType.ShipWreck) {\n            uint256 multiplier = rand.mod(2) == 0 ? 2 : 1;\n            Types.SatInfo memory ship = Discovery.singleAllNonAncientShips();\n            uint256[] memory ships = new uint256[](1);\n            uint256[] memory amounts = new uint256[](1);\n            ships[0] = ship.id;\n            amounts[0] = ship.amount.mul(multiplier);\n            TS.sendSats(msg.sender, ships, amounts);\n        } else if (systemType == Types.SystemType.AncientMiningSystem) {\n            Types.SatInfo memory ship = Discovery.singleAncientMiningShip();\n            uint256[] memory ships = new uint256[](1);\n            uint256[] memory amounts = new uint256[](1);\n            ships[0] = ship.id;\n            amounts[0] = ship.amount;\n            TS.sendSats(msg.sender, ships, amounts);\n        }\n    }\n}\n",
  "sourcePath": "C:\\Users\\James\\projects\\tsuno-fe\\contracts\\GameOperations.sol",
  "compiler": {
    "name": "solc",
    "version": "0.6.12+commit.27d51765.Emscripten.clang"
  },
  "schemaVersion": "3.2.5",
  "updatedAt": "2020-10-22T10:03:09.640Z",
  "networkType": "ethereum",
  "devdoc": {
    "author": "Big Beluga Primary public function for entering into the protocol",
    "kind": "dev",
    "methods": {},
    "title": "Operation",
    "version": 1
  },
  "userdoc": {
    "kind": "user",
    "methods": {},
    "version": 1
  }
}