{
  "contractName": "GameStorage",
  "abi": [
    {
      "inputs": [
        {
          "internalType": "address",
          "name": "_es",
          "type": "address"
        }
      ],
      "name": "initialize",
      "outputs": [],
      "stateMutability": "nonpayable",
      "type": "function"
    },
    {
      "inputs": [],
      "name": "getSolarAddress",
      "outputs": [
        {
          "internalType": "address",
          "name": "",
          "type": "address"
        }
      ],
      "stateMutability": "view",
      "type": "function",
      "constant": true
    },
    {
      "inputs": [],
      "name": "getFHRAddress",
      "outputs": [
        {
          "internalType": "address",
          "name": "",
          "type": "address"
        }
      ],
      "stateMutability": "view",
      "type": "function",
      "constant": true
    },
    {
      "inputs": [],
      "name": "getSatAddress",
      "outputs": [
        {
          "internalType": "address",
          "name": "",
          "type": "address"
        }
      ],
      "stateMutability": "view",
      "type": "function",
      "constant": true
    },
    {
      "inputs": [],
      "name": "getTreasuryAddress",
      "outputs": [
        {
          "internalType": "address",
          "name": "",
          "type": "address"
        }
      ],
      "stateMutability": "view",
      "type": "function",
      "constant": true
    },
    {
      "inputs": [
        {
          "internalType": "address",
          "name": "user",
          "type": "address"
        }
      ],
      "name": "getBalance",
      "outputs": [
        {
          "internalType": "uint256",
          "name": "",
          "type": "uint256"
        }
      ],
      "stateMutability": "view",
      "type": "function",
      "constant": true
    },
    {
      "inputs": [],
      "name": "getStartPosition",
      "outputs": [
        {
          "components": [
            {
              "internalType": "uint8",
              "name": "quadrant",
              "type": "uint8"
            },
            {
              "internalType": "uint8",
              "name": "sector",
              "type": "uint8"
            },
            {
              "internalType": "uint8",
              "name": "district",
              "type": "uint8"
            },
            {
              "internalType": "uint256",
              "name": "star",
              "type": "uint256"
            }
          ],
          "internalType": "struct Types.Position",
          "name": "",
          "type": "tuple"
        }
      ],
      "stateMutability": "view",
      "type": "function",
      "constant": true
    },
    {
      "inputs": [],
      "name": "getBoundaries",
      "outputs": [
        {
          "components": [
            {
              "internalType": "uint8",
              "name": "quadrant",
              "type": "uint8"
            },
            {
              "internalType": "uint8",
              "name": "sector",
              "type": "uint8"
            },
            {
              "internalType": "uint8",
              "name": "district",
              "type": "uint8"
            },
            {
              "internalType": "uint256",
              "name": "star",
              "type": "uint256"
            }
          ],
          "internalType": "struct Types.Position",
          "name": "",
          "type": "tuple"
        }
      ],
      "stateMutability": "view",
      "type": "function",
      "constant": true
    },
    {
      "inputs": [],
      "name": "incrementTotalFhr",
      "outputs": [
        {
          "internalType": "uint256",
          "name": "",
          "type": "uint256"
        }
      ],
      "stateMutability": "nonpayable",
      "type": "function"
    },
    {
      "inputs": [
        {
          "components": [
            {
              "internalType": "uint8",
              "name": "quadrant",
              "type": "uint8"
            },
            {
              "internalType": "uint8",
              "name": "sector",
              "type": "uint8"
            },
            {
              "internalType": "uint8",
              "name": "district",
              "type": "uint8"
            },
            {
              "internalType": "uint256",
              "name": "star",
              "type": "uint256"
            }
          ],
          "internalType": "struct Types.Position",
          "name": "pos",
          "type": "tuple"
        }
      ],
      "name": "getStarSystemType",
      "outputs": [
        {
          "internalType": "enum Types.SystemType",
          "name": "",
          "type": "uint8"
        }
      ],
      "stateMutability": "view",
      "type": "function",
      "constant": true
    },
    {
      "inputs": [],
      "name": "getRandomSystemType",
      "outputs": [
        {
          "internalType": "enum Types.SystemType",
          "name": "systemType",
          "type": "uint8"
        },
        {
          "internalType": "uint256",
          "name": "rand",
          "type": "uint256"
        }
      ],
      "stateMutability": "view",
      "type": "function",
      "constant": true
    },
    {
      "inputs": [
        {
          "internalType": "enum Types.SystemType",
          "name": "systemType",
          "type": "uint8"
        }
      ],
      "name": "getRandomYield",
      "outputs": [
        {
          "internalType": "uint16",
          "name": "rand",
          "type": "uint16"
        }
      ],
      "stateMutability": "view",
      "type": "function",
      "constant": true
    },
    {
      "inputs": [
        {
          "components": [
            {
              "internalType": "uint8",
              "name": "quadrant",
              "type": "uint8"
            },
            {
              "internalType": "uint8",
              "name": "sector",
              "type": "uint8"
            },
            {
              "internalType": "uint8",
              "name": "district",
              "type": "uint8"
            },
            {
              "internalType": "uint256",
              "name": "star",
              "type": "uint256"
            }
          ],
          "internalType": "struct Types.Position",
          "name": "pos",
          "type": "tuple"
        },
        {
          "internalType": "enum Types.SystemType",
          "name": "systemType",
          "type": "uint8"
        }
      ],
      "name": "setStarSystemType",
      "outputs": [],
      "stateMutability": "nonpayable",
      "type": "function"
    },
    {
      "inputs": [
        {
          "components": [
            {
              "internalType": "uint8",
              "name": "quadrant",
              "type": "uint8"
            },
            {
              "internalType": "uint8",
              "name": "sector",
              "type": "uint8"
            },
            {
              "internalType": "uint8",
              "name": "district",
              "type": "uint8"
            },
            {
              "internalType": "uint256",
              "name": "star",
              "type": "uint256"
            }
          ],
          "internalType": "struct Types.Position",
          "name": "pos",
          "type": "tuple"
        }
      ],
      "name": "getStarSystemYield",
      "outputs": [
        {
          "internalType": "uint16",
          "name": "",
          "type": "uint16"
        }
      ],
      "stateMutability": "view",
      "type": "function",
      "constant": true
    },
    {
      "inputs": [
        {
          "components": [
            {
              "internalType": "uint8",
              "name": "quadrant",
              "type": "uint8"
            },
            {
              "internalType": "uint8",
              "name": "sector",
              "type": "uint8"
            },
            {
              "internalType": "uint8",
              "name": "district",
              "type": "uint8"
            },
            {
              "internalType": "uint256",
              "name": "star",
              "type": "uint256"
            }
          ],
          "internalType": "struct Types.Position",
          "name": "pos",
          "type": "tuple"
        },
        {
          "internalType": "uint16",
          "name": "yield",
          "type": "uint16"
        }
      ],
      "name": "setStarSystemYield",
      "outputs": [],
      "stateMutability": "nonpayable",
      "type": "function"
    },
    {
      "inputs": [
        {
          "internalType": "address",
          "name": "master",
          "type": "address"
        },
        {
          "components": [
            {
              "internalType": "uint8",
              "name": "quadrant",
              "type": "uint8"
            },
            {
              "internalType": "uint8",
              "name": "sector",
              "type": "uint8"
            },
            {
              "internalType": "uint8",
              "name": "district",
              "type": "uint8"
            },
            {
              "internalType": "uint256",
              "name": "star",
              "type": "uint256"
            }
          ],
          "internalType": "struct Types.Position",
          "name": "pos",
          "type": "tuple"
        }
      ],
      "name": "setMasterFleetPosition",
      "outputs": [],
      "stateMutability": "nonpayable",
      "type": "function"
    },
    {
      "inputs": [
        {
          "internalType": "address",
          "name": "master",
          "type": "address"
        }
      ],
      "name": "getMasterFleetPosition",
      "outputs": [
        {
          "components": [
            {
              "internalType": "uint8",
              "name": "quadrant",
              "type": "uint8"
            },
            {
              "internalType": "uint8",
              "name": "sector",
              "type": "uint8"
            },
            {
              "internalType": "uint8",
              "name": "district",
              "type": "uint8"
            },
            {
              "internalType": "uint256",
              "name": "star",
              "type": "uint256"
            }
          ],
          "internalType": "struct Types.Position",
          "name": "",
          "type": "tuple"
        }
      ],
      "stateMutability": "view",
      "type": "function",
      "constant": true
    },
    {
      "inputs": [
        {
          "internalType": "uint256",
          "name": "id",
          "type": "uint256"
        }
      ],
      "name": "getSatInfo",
      "outputs": [
        {
          "internalType": "uint256",
          "name": "offense",
          "type": "uint256"
        },
        {
          "internalType": "uint256",
          "name": "defense",
          "type": "uint256"
        }
      ],
      "stateMutability": "view",
      "type": "function",
      "constant": true
    },
    {
      "inputs": [
        {
          "internalType": "address",
          "name": "master",
          "type": "address"
        }
      ],
      "name": "getMasterFleetOffense",
      "outputs": [
        {
          "internalType": "uint256",
          "name": "",
          "type": "uint256"
        }
      ],
      "stateMutability": "view",
      "type": "function",
      "constant": true
    },
    {
      "inputs": [
        {
          "internalType": "address",
          "name": "master",
          "type": "address"
        },
        {
          "internalType": "uint256",
          "name": "offense",
          "type": "uint256"
        }
      ],
      "name": "setMasterFleetOffense",
      "outputs": [],
      "stateMutability": "nonpayable",
      "type": "function"
    },
    {
      "inputs": [
        {
          "internalType": "address",
          "name": "master",
          "type": "address"
        }
      ],
      "name": "getMasterFleetDefense",
      "outputs": [
        {
          "internalType": "uint256",
          "name": "",
          "type": "uint256"
        }
      ],
      "stateMutability": "view",
      "type": "function",
      "constant": true
    },
    {
      "inputs": [
        {
          "internalType": "address",
          "name": "master",
          "type": "address"
        },
        {
          "internalType": "uint256",
          "name": "defense",
          "type": "uint256"
        }
      ],
      "name": "setMasterFleetDefense",
      "outputs": [],
      "stateMutability": "nonpayable",
      "type": "function"
    },
    {
      "inputs": [
        {
          "internalType": "address",
          "name": "master",
          "type": "address"
        },
        {
          "internalType": "uint256",
          "name": "id",
          "type": "uint256"
        },
        {
          "internalType": "uint256",
          "name": "amount",
          "type": "uint256"
        }
      ],
      "name": "setMasterLockedInShipInfo",
      "outputs": [],
      "stateMutability": "nonpayable",
      "type": "function"
    },
    {
      "inputs": [
        {
          "internalType": "address",
          "name": "master",
          "type": "address"
        },
        {
          "internalType": "uint256",
          "name": "id",
          "type": "uint256"
        }
      ],
      "name": "getMasterLockedInShipInfo",
      "outputs": [
        {
          "internalType": "uint256",
          "name": "",
          "type": "uint256"
        }
      ],
      "stateMutability": "view",
      "type": "function",
      "constant": true
    },
    {
      "inputs": [
        {
          "internalType": "address",
          "name": "master",
          "type": "address"
        }
      ],
      "name": "getMasterFleetInfo",
      "outputs": [
        {
          "internalType": "uint256",
          "name": "offense",
          "type": "uint256"
        },
        {
          "internalType": "uint256",
          "name": "defense",
          "type": "uint256"
        }
      ],
      "stateMutability": "view",
      "type": "function",
      "constant": true
    },
    {
      "inputs": [
        {
          "internalType": "enum Types.SystemType",
          "name": "systemType",
          "type": "uint8"
        }
      ],
      "name": "getAiFleetInfo",
      "outputs": [
        {
          "internalType": "uint256",
          "name": "offense",
          "type": "uint256"
        },
        {
          "internalType": "uint256",
          "name": "defense",
          "type": "uint256"
        }
      ],
      "stateMutability": "view",
      "type": "function",
      "constant": true
    }
  ],
  "bytecode": "0x608060405234801561001057600080fd5b50612c23806100206000396000f3fe608060405234801561001057600080fd5b506004361061018d5760003560e01c80636d18c970116100de578063bedc6d2711610097578063d3bf2b7e11610071578063d3bf2b7e1461034f578063d835477314610362578063e002460414610375578063f8b2cb4f1461037d5761018d565b8063bedc6d2714610321578063c4d66de814610334578063cf677f57146103475761018d565b80636d18c970146102b85780637d3b7d23146102c057806383b214d0146102c8578063917da392146102db578063a97dfa46146102fb578063aa00ad671461030e5761018d565b8063372fa3f61161014b5780635bd1bac2116101255780635bd1bac21461026a5780635beec2bb1461027d578063692b4fc6146102855780636a2a7473146102a55761018d565b8063372fa3f6146102235780633ea2692714610236578063426d3f08146102495761018d565b80626c2f3a14610192578063010d218f146101bb57806304d5aae1146101d0578063123cfce1146101e557806313083510146101fa57806329087bcc1461020d575b600080fd5b6101a56101a03660046126df565b610390565b6040516101b29190612b9c565b60405180910390f35b6101ce6101c9366004612680565b61080e565b005b6101d861089e565b6040516101b29190612aaa565b6101ed6109d3565b6040516101b29190612a96565b6101d8610208366004612613565b610a79565b610215610b22565b6040516101b2929190612af9565b6101ce610231366004612740565b610eef565b6101ce6102443660046126ab565b610f5b565b61025c610257366004612793565b610fee565b6040516101b2929190612ac5565b6101ce610278366004612680565b611153565b6101ed611179565b610298610293366004612613565b6111ca565b6040516101b29190612b63565b61025c6102b33660046126df565b61149a565b6102986118b9565b6101ed611b71565b6101ce6102d6366004612715565b611bc2565b6102ee6102e93660046126fa565b611c39565b6040516101b29190612ae4565b6101a56103093660046126fa565b611d10565b61025c61031c366004612613565b611dd2565b6101ce61032f36600461264b565b611df0565b6101ce610342366004612613565b611fff565b6102986120a7565b6101d861035d366004612680565b612308565b6101d8610370366004612613565b6123bc565b6101ed6123e3565b6101d861038b366004612613565b612434565b6000600b8260148111156103a057fe5b14156104f45760335460405163bd02d0f560e01b81526104ed916001600160a01b03169063bd02d0f5906103f8907f448463b38dabbe300f394c2039b985abab69981d6ed40862d610325e81ab575390600401612aaa565b60206040518083038186803b15801561041057600080fd5b505afa158015610424573d6000803e3d6000fd5b505050506040513d601f19601f8201168201806040525081019061044891906127ab565b60335460405163bd02d0f560e01b81526001600160a01b039091169063bd02d0f590610498907f72fdf2c0991a78df3f5c5c9ddeaaf6bc8560006305c54d014a953eecc723186990600401612aaa565b60206040518083038186803b1580156104b057600080fd5b505afa1580156104c4573d6000803e3d6000fd5b505050506040513d601f19601f820116820180604052508101906104e891906127ab565b61245b565b9050610809565b600d82601481111561050257fe5b14156105fa5760335460405163bd02d0f560e01b81526104ed916001600160a01b03169063bd02d0f59061055a907fdb7cce32c36ebbf33010d0a69fb49414335985911db59affa9e94d7357368bae90600401612aaa565b60206040518083038186803b15801561057257600080fd5b505afa158015610586573d6000803e3d6000fd5b505050506040513d601f19601f820116820180604052508101906105aa91906127ab565b60335460405163bd02d0f560e01b81526001600160a01b039091169063bd02d0f590610498907f7bf01cb15a59e063f3eac62eff1493ac6f4e839875e61cfcb654e335ab6e7c2590600401612aaa565b600b82601481111561060857fe5b14156107005760335460405163bd02d0f560e01b81526104ed916001600160a01b03169063bd02d0f590610660907f388c7bc6753770118791c108588b5ba0410e03bdd02b5e38dc151051b0b39a1290600401612aaa565b60206040518083038186803b15801561067857600080fd5b505afa15801561068c573d6000803e3d6000fd5b505050506040513d601f19601f820116820180604052508101906106b091906127ab565b60335460405163bd02d0f560e01b81526001600160a01b039091169063bd02d0f590610498907f37f2e32d4052beef4867a79d9cd15f1d7ed4b7e51d115152e8f908ab0851187490600401612aaa565b600b82601481111561070e57fe5b14156108095760335460405163bd02d0f560e01b8152610806916001600160a01b03169063bd02d0f590610766907f4597b5a2a9bfa48c892467f16be44b1e6b66d00ca454c2142805a9d55634eadf90600401612aaa565b60206040518083038186803b15801561077e57600080fd5b505afa158015610792573d6000803e3d6000fd5b505050506040513d601f19601f820116820180604052508101906107b691906127ab565b60335460405163bd02d0f560e01b81526001600160a01b039091169063bd02d0f590610498907fd0485672ccf51f188e45c54510fcfdf8e00bbfc4b1460ada4cce1823520709b390600401612aaa565b90505b919050565b6033546040516001600160a01b039091169063e2a4853a9061083490859060200161297d565b60405160208183030381529060405280519060200120836040518363ffffffff1660e01b8152600401610868929190612ac5565b600060405180830381600087803b15801561088257600080fd5b505af1158015610896573d6000803e3d6000fd5b505050505050565b60335460405163bd02d0f560e01b815260009182916001600160a01b039091169063bd02d0f5906108f3907f485af4b7688e15e2a5be9ed38b1ff9bf33ea9186734fdb0f12aa357a4877b60790600401612aaa565b60206040518083038186803b15801561090b57600080fd5b505afa15801561091f573d6000803e3d6000fd5b505050506040513d601f19601f8201168201806040525081019061094391906127ab565b603354604051637152429d60e11b815260019290920192506001600160a01b03169063e2a4853a9061099b907f485af4b7688e15e2a5be9ed38b1ff9bf33ea9186734fdb0f12aa357a4877b607908590600401612ac5565b600060405180830381600087803b1580156109b557600080fd5b505af11580156109c9573d6000803e3d6000fd5b5092935050505090565b6033546040516321f8a72160e01b81526000916001600160a01b0316906321f8a72190610a24907f74ae7744c39f2e96c3aa82438ce5957a2a5a73fd6a10be3d8ee9f1f5013557bb90600401612aaa565b60206040518083038186803b158015610a3c57600080fd5b505afa158015610a50573d6000803e3d6000fd5b505050506040513d601f19601f82011682018060405250810190610a74919061262f565b905090565b6033546040516000916001600160a01b03169063bd02d0f590610aa0908590602001612809565b604051602081830303815290604052805190602001206040518263ffffffff1660e01b8152600401610ad29190612aaa565b60206040518083038186803b158015610aea57600080fd5b505afa158015610afe573d6000803e3d6000fd5b505050506040513d601f19601f8201168201806040525081019061080691906127ab565b60335460405163bd02d0f560e01b8152600091829182916001600160a01b03169063bd02d0f590610b77907f325945f9eb0ae14817d5b4b77e428d516f4890b2b22f01af7dc18eae966590f290600401612aaa565b60206040518083038186803b158015610b8f57600080fd5b505afa158015610ba3573d6000803e3d6000fd5b505050506040513d601f19601f82011682018060405250810190610bc791906127ab565b905060648104610bd860018361245b565b925082600161ffff82161415610bf15760019450610ee8565b8061ffff16602a1415610c075760029450610ee8565b816005028161ffff1611610c1e5760039450610ee8565b816005028161ffff16118015610c3b575081600a028161ffff1611155b15610c495760049450610ee8565b81600a028161ffff16118015610c665750816014028161ffff1611155b15610c745760059450610ee8565b816014028161ffff16118015610c91575081601e028161ffff1611155b15610c9f5760069450610ee8565b81601e028161ffff16118015610cbc5750816023028161ffff1611155b15610cca5760079450610ee8565b816023028161ffff16118015610ce75750816028028161ffff1611155b15610cf55760089450610ee8565b816028028161ffff16118015610d12575081602f028161ffff1611155b15610d205760099450610ee8565b81602f028161ffff16118015610d3d575081603c028161ffff1611155b15610d4b57600a9450610ee8565b81603c028161ffff16118015610d685750816041028161ffff1611155b15610d7657600b9450610ee8565b816041028161ffff16118015610d935750816046028161ffff1611155b15610da157600c9450610ee8565b816046028161ffff16118015610dbe575081604b168161ffff1611155b15610dcc57600d9450610ee8565b816046028161ffff16118015610de95750816050168161ffff1611155b15610df757600e9450610ee8565b816050028161ffff16118015610e145750816055168161ffff1611155b15610e2257600f9450610ee8565b816055028161ffff16118015610e3f575081605a168161ffff1611155b15610e4d5760109450610ee8565b81605a028161ffff16118015610e6a575081605f168161ffff1611155b15610e785760119450610ee8565b81605f028161ffff16118015610e955750816063168161ffff1611155b15610ea35760129450610ee8565b816063028161ffff16118015610ec05750600183038161ffff1611155b15610ece5760139450610ee8565b828161ffff161415610ee35760149450610ee8565b600994505b5050509091565b6033548251602080850151604080870151606088015191516001600160a01b0390961695631d77667b95610f27959094939101612868565b60405160208183030381529060405280519060200120836040518363ffffffff1660e01b8152600401610868929190612ab3565b6033546040516001600160a01b039091169063e2a4853a90610f839086908690602001612a5b565b60405160208183030381529060405280519060200120836040518363ffffffff1660e01b8152600401610fb7929190612ac5565b600060405180830381600087803b158015610fd157600080fd5b505af1158015610fe5573d6000803e3d6000fd5b50505050505050565b60335460405160009182916001600160a01b0390911690638b23b40b906110199086906020016127df565b604051602081830303815290604052805190602001206040518263ffffffff1660e01b815260040161104b9190612aaa565b60206040518083038186803b15801561106357600080fd5b505afa158015611077573d6000803e3d6000fd5b505050506040513d601f19601f8201168201806040525081019061109b91906127c3565b60335460405160ff9290921693506001600160a01b031690638b23b40b906110c790869060200161283e565b604051602081830303815290604052805190602001206040518263ffffffff1660e01b81526004016110f99190612aaa565b60206040518083038186803b15801561111157600080fd5b505afa158015611125573d6000803e3d6000fd5b505050506040513d601f19601f8201168201806040525081019061114991906127c3565b60ff169050915091565b6033546040516001600160a01b039091169063e2a4853a90610834908590602001612809565b6033546040516321f8a72160e01b81526000916001600160a01b0316906321f8a72190610a24907fc76dc8007b3273275fd04e9508bdc23d5db4f4556b27a48f37d606a72595b99990600401612aaa565b6111d2612563565b604080516080810190915260335481906001600160a01b0316638b23b40b6111fd8660a0850161293f565b604051602081830303815290604052805190602001206040518263ffffffff1660e01b815260040161122f9190612aaa565b60206040518083038186803b15801561124757600080fd5b505afa15801561125b573d6000803e3d6000fd5b505050506040513d601f19601f8201168201806040525081019061127f91906127c3565b60ff1681526033546040516020928301926001600160a01b0390921691638b23b40b916112ae918891016129b2565b604051602081830303815290604052805190602001206040518263ffffffff1660e01b81526004016112e09190612aaa565b60206040518083038186803b1580156112f857600080fd5b505afa15801561130c573d6000803e3d6000fd5b505050506040513d601f19601f8201168201806040525081019061133091906127c3565b60ff1681526033546040516020928301926001600160a01b0390921691638b23b40b9161135f91889101612901565b604051602081830303815290604052805190602001206040518263ffffffff1660e01b81526004016113919190612aaa565b60206040518083038186803b1580156113a957600080fd5b505afa1580156113bd573d6000803e3d6000fd5b505050506040513d601f19601f820116820180604052508101906113e191906127c3565b60ff1681526033546040516020928301926001600160a01b039092169163bd02d0f591611410918891016129f0565b604051602081830303815290604052805190602001206040518263ffffffff1660e01b81526004016114429190612aaa565b60206040518083038186803b15801561145a57600080fd5b505afa15801561146e573d6000803e3d6000fd5b505050506040513d601f19601f8201168201806040525081019061149291906127ab565b905292915050565b60008060058360148111156114ab57fe5b141561162557603354604051638b23b40b60e01b81526000916001600160a01b031690638b23b40b90611502907f7b86252690681efe89b431996e79392d5af84400c6966b6d5173c451bd4616d990600401612aaa565b60206040518083038186803b15801561151a57600080fd5b505afa15801561152e573d6000803e3d6000fd5b505050506040513d601f19601f8201168201806040525081019061155291906127c3565b603354604051638b23b40b60e01b81529192506000916001600160a01b0390911690638b23b40b906115a8907fefa7226dbcf3af8b810d5223f0581ce826d49091a7ec59ddd790ecdbde5e0c0190600401612aaa565b60206040518083038186803b1580156115c057600080fd5b505afa1580156115d4573d6000803e3d6000fd5b505050506040513d601f19601f820116820180604052508101906115f891906127c3565b905061160a8260ff168260ff1661245b565b935061161c8260ff168260ff1661245b565b925050506118b4565b600383601481111561163357fe5b141561173057603354604051638b23b40b60e01b81526000916001600160a01b031690638b23b40b9061168a907fd81115f168202feb60d85d8cd51f91e52d67ce3a4221042cf3007296f60ca90790600401612aaa565b60206040518083038186803b1580156116a257600080fd5b505afa1580156116b6573d6000803e3d6000fd5b505050506040513d601f19601f820116820180604052508101906116da91906127c3565b603354604051638b23b40b60e01b81529192506000916001600160a01b0390911690638b23b40b906115a8907f917431c85f375bc628d514176213361a33acffbc34674cdb44ea551b6be963a490600401612aaa565b600183601481111561173e57fe5b14156118b457603354604051638b23b40b60e01b81526000916001600160a01b031690638b23b40b90611795907f2ab197a22ad13e6dc2d4254a03a835189989ff8dc9a38e2f2e265676e2329e3390600401612aaa565b60206040518083038186803b1580156117ad57600080fd5b505afa1580156117c1573d6000803e3d6000fd5b505050506040513d601f19601f820116820180604052508101906117e591906127c3565b603354604051638b23b40b60e01b81529192506000916001600160a01b0390911690638b23b40b9061183b907fc8e691d9c03fdad9d131fa658bf2b16a7c61d1aed086995bb7ef4c476bee2c3390600401612aaa565b60206040518083038186803b15801561185357600080fd5b505afa158015611867573d6000803e3d6000fd5b505050506040513d601f19601f8201168201806040525081019061188b91906127c3565b905061189d8260ff168260ff1661245b565b93506118af8260ff168260ff1661245b565b925050505b915091565b6118c1612563565b604080516080810191829052603354638b23b40b60e01b9092529081906001600160a01b0316638b23b40b6119197f7b7d103438c107d32fcce1aa1f42631aff83333d813cb27d5208e2ddbfcc6ff560848501612aaa565b60206040518083038186803b15801561193157600080fd5b505afa158015611945573d6000803e3d6000fd5b505050506040513d601f19601f8201168201806040525081019061196991906127c3565b60ff168152603354604051638b23b40b60e01b81526020909201916001600160a01b0390911690638b23b40b906119c4907f9dc62754f894cfaffb1f85e932d98591d9eb0265940f047426856701d413a18e90600401612aaa565b60206040518083038186803b1580156119dc57600080fd5b505afa1580156119f0573d6000803e3d6000fd5b505050506040513d601f19601f82011682018060405250810190611a1491906127c3565b60ff168152603354604051638b23b40b60e01b81526020909201916001600160a01b0390911690638b23b40b90611a6f907f6cb92777a70ecc58a97ff96966e61de7e3e0f9789f5c3532c90cbe9ed0b5444290600401612aaa565b60206040518083038186803b158015611a8757600080fd5b505afa158015611a9b573d6000803e3d6000fd5b505050506040513d601f19601f82011682018060405250810190611abf91906127c3565b60ff16815260335460405163bd02d0f560e01b81526020909201916001600160a01b039091169063bd02d0f590611b1a907f25223b82574d4b98b8148758cc271b44bffc984bf0c92aa93a30fde69aab092a90600401612aaa565b60206040518083038186803b158015611b3257600080fd5b505afa158015611b46573d6000803e3d6000fd5b505050506040513d601f19601f82011682018060405250810190611b6a91906127ab565b9052905090565b6033546040516321f8a72160e01b81526000916001600160a01b0316906321f8a72190610a24907f644c173f435dc625f877f010ca80c2977e3857cc49b01119584fd99a3dd4974190600401612aaa565b6033548251602080850151604080870151606088015191516001600160a01b039096169563e2a4853a95611bfa9590949391016128b2565b60405160208183030381529060405280519060200120836014811115611c1c57fe5b6040518363ffffffff1660e01b8152600401610868929190612ac5565b60335481516020808401516040808601516060870151915160009687966001600160a01b039091169563bd02d0f595611c799592949093909291016128b2565b604051602081830303815290604052805190602001206040518263ffffffff1660e01b8152600401611cab9190612aaa565b60206040518083038186803b158015611cc357600080fd5b505afa158015611cd7573d6000803e3d6000fd5b505050506040513d601f19601f82011682018060405250810190611cfb91906127ab565b9050806014811115611d0957fe5b9392505050565b6033548151602080840151604080860151606087015191516000966001600160a01b0316956365f4f49895611d4a95919491939201612868565b604051602081830303815290604052805190602001206040518263ffffffff1660e01b8152600401611d7c9190612aaa565b60206040518083038186803b158015611d9457600080fd5b505afa158015611da8573d6000803e3d6000fd5b505050506040513d601f19601f82011682018060405250810190611dcc9190612777565b50919050565b600080611dde83610a79565b9150611de9836123bc565b9050915091565b6033546040516001600160a01b039091169063e74730a190611e1690859060200161293f565b60408051601f1981840301815290829052805160209091012084516001600160e01b031960e085901b168352611e4e92600401612ad3565b600060405180830381600087803b158015611e6857600080fd5b505af1158015611e7c573d6000803e3d6000fd5b50506033546040516001600160a01b03909116925063e74730a19150611ea69085906020016129b2565b6040516020818303038152906040528051906020012083602001516040518363ffffffff1660e01b8152600401611ede929190612ad3565b600060405180830381600087803b158015611ef857600080fd5b505af1158015611f0c573d6000803e3d6000fd5b50506033546040516001600160a01b03909116925063e74730a19150611f36908590602001612901565b60408051601f198184030181528282528051602090910120908501516001600160e01b031960e085901b168352611f6f92600401612ad3565b600060405180830381600087803b158015611f8957600080fd5b505af1158015611f9d573d6000803e3d6000fd5b50506033546040516001600160a01b03909116925063e2a4853a9150611fc79085906020016129f0565b6040516020818303038152906040528051906020012083606001516040518363ffffffff1660e01b8152600401610868929190612ac5565b600054610100900460ff16806120185750612018612478565b80612026575060005460ff16155b61204b5760405162461bcd60e51b815260040161204290612b15565b60405180910390fd5b600054610100900460ff16158015612076576000805460ff1961ff0019909116610100171660011790555b603380546001600160a01b0319166001600160a01b03841617905580156120a3576000805461ff00191690555b5050565b6120af612563565b604080516080810191829052603354638b23b40b60e01b9092529081906001600160a01b0316638b23b40b6121077f4175a586b1fa8cdac8da5fab8f99d482d2ecfc625ee9fbc857d4553f5bf44c0b60848501612aaa565b60206040518083038186803b15801561211f57600080fd5b505afa158015612133573d6000803e3d6000fd5b505050506040513d601f19601f8201168201806040525081019061215791906127c3565b60ff168152603354604051638b23b40b60e01b81526020909201916001600160a01b0390911690638b23b40b906121b2907f8d2fc980de9768b7cd79768c0b3a4d75aa58c665c84514555b6363074ea6222090600401612aaa565b60206040518083038186803b1580156121ca57600080fd5b505afa1580156121de573d6000803e3d6000fd5b505050506040513d601f19601f8201168201806040525081019061220291906127c3565b60ff168152603354604051638b23b40b60e01b81526020909201916001600160a01b0390911690638b23b40b9061225d907f14c0a373bd35608e71a9c0509f6206be411544d146ff38c0c5efdc8f8ad3cfc290600401612aaa565b60206040518083038186803b15801561227557600080fd5b505afa158015612289573d6000803e3d6000fd5b505050506040513d601f19601f820116820180604052508101906122ad91906127c3565b60ff16815260335460405163bd02d0f560e01b81526020909201916001600160a01b039091169063bd02d0f590611b1a907fd1eb6e753d94694a2876ac3d785523e6a3e176b977dd574ef44c37dcea8588b890600401612aaa565b6033546040516000916001600160a01b03169063bd02d0f5906123319086908690602001612a5b565b604051602081830303815290604052805190602001206040518263ffffffff1660e01b81526004016123639190612aaa565b60206040518083038186803b15801561237b57600080fd5b505afa15801561238f573d6000803e3d6000fd5b505050506040513d601f19601f820116820180604052508101906123b391906127ab565b90505b92915050565b6033546040516000916001600160a01b03169063bd02d0f590610aa090859060200161297d565b6033546040516321f8a72160e01b81526000916001600160a01b0316906321f8a72190610a24907f882ddf6476cb7e5d7a7d7d76514cc92fe827a14b4c6799b0e804acf36dac7a7190600401612aaa565b6033546040516000916001600160a01b03169063bd02d0f590610aa0908590602001612a2e565b60008161246661247e565b8161246d57fe5b068301905092915050565b303b1590565b6000610a74434202600080600283066124bf576040516124a2908490602001612aaa565b60405160208183030381529060405280519060200120905061250f565b6040516124d0908490602001612aaa565b604051602081830303815290604052805190602001206040516020016124f69190612aaa565b6040516020818303038152906040528051906020012090505b6000805b60208110156125365782816020811061252857fe5b1a9190910190600101612513565b5081602060028301066020811061254957fe5b1a82602083066020811061255957fe5b1a02949350505050565b60408051608081018252600080825260208201819052918101829052606081019190915290565b8035601581106123b657600080fd5b6000608082840312156125aa578081fd5b6040516080810181811067ffffffffffffffff821117156125c9578283fd5b60405290508082356125da81612bde565b815260208301356125ea81612bde565b602082015260408301356125fd81612bde565b6040820152606092830135920191909152919050565b600060208284031215612624578081fd5b8135611d0981612bb6565b600060208284031215612640578081fd5b8151611d0981612bb6565b60008060a0838503121561265d578081fd5b823561266881612bb6565b91506126778460208501612599565b90509250929050565b60008060408385031215612692578182fd5b823561269d81612bb6565b946020939093013593505050565b6000806000606084860312156126bf578081fd5b83356126ca81612bb6565b95602085013595506040909401359392505050565b6000602082840312156126f0578081fd5b6123b3838361258a565b60006080828403121561270b578081fd5b6123b38383612599565b60008060a08385031215612727578182fd5b6127318484612599565b9150612677846080850161258a565b60008060a08385031215612752578182fd5b61275c8484612599565b9150608083013561276c81612bce565b809150509250929050565b600060208284031215612788578081fd5b8151611d0981612bce565b6000602082840312156127a4578081fd5b5035919050565b6000602082840312156127bc578081fd5b5051919050565b6000602082840312156127d4578081fd5b8151611d0981612bde565b75636f6e7374616e74732e736174732e6f6666656e736560501b8152601681019190915260360190565b736d61737465722e666c6565742e6f6666656e736560601b815260609190911b6001600160601b031916601482015260280190565b75636f6e7374616e74732e736174732e646566656e736560501b8152601681019190915260360190565b6a1cdd185c9ccb9e5a595b1960aa1b81526001600160f81b031960f895861b8116600b83015293851b8416600c8201529190931b909116600d820152600e810191909152602e0190565b6f73746172732e73797374656d5479706560801b81526001600160f81b031960f895861b8116601083015293851b841660118201529190931b9091166012820152601381019190915260330190565b7f6d61737465722e666c6565742e706f736974696f6e2e64697374726963740000815260609190911b6001600160601b031916601e82015260320190565b7f6d61737465722e666c6565742e706f736974696f6e2e7175616472616e740000815260609190911b6001600160601b031916601e82015260320190565b736d61737465722e666c6565742e646566656e736560601b815260609190911b6001600160601b031916601482015260280190565b7f6d61737465722e666c6565742e706f736974696f6e2e736563746f7200000000815260609190911b6001600160601b031916601c82015260300190565b7f6d61737465722e666c6565742e706f736974696f6e2e73746172000000000000815260609190911b6001600160601b031916601a820152602e0190565b6b757365722e62616c616e636560a01b815260609190911b6001600160601b031916600c82015260200190565b7436b0b9ba32b917333632b2ba173637b1b5b2b234b760591b815260609290921b6001600160601b0319166015830152602982015260490190565b6001600160a01b0391909116815260200190565b90815260200190565b91825261ffff16602082015260400190565b918252602082015260400190565b91825260ff16602082015260400190565b60208101612af183612bab565b825292915050565b60408101612b0684612bab565b82528260208301529392505050565b6020808252602e908201527f436f6e747261637420696e7374616e63652068617320616c726561647920626560408201526d195b881a5b9a5d1a585b1a5e995960921b606082015260800190565b600060808201905060ff835116825260ff602084015116602083015260ff60408401511660408301526060830151606083015292915050565b61ffff91909116815260200190565b806015811061080957fe5b6001600160a01b0381168114612bcb57600080fd5b50565b61ffff81168114612bcb57600080fd5b60ff81168114612bcb57600080fdfea264697066735822122025555d531f61471ca7d0c12b795cee18d7ea18da88ed52aff489da650508c7fa64736f6c634300060c0033",
  "immutableReferences": {},
  "source": "pragma solidity 0.6.12;\npragma experimental ABIEncoderV2;\n\nimport {SafeMath} from '@openzeppelin/contracts/math/SafeMath.sol';\n// import {Require} from './Require.sol';\nimport {Random} from './Random.sol';\nimport {Types} from './lib/Types.sol';\nimport {Utils} from './Utils.sol';\n// import {Fleet} from './Fleet.sol';\n// import {Constants} from './Constants.sol';\n// import {Governance} from './Governance.sol';\nimport {EternalStorage} from './EternalStorage.sol';\nimport {Initializable} from '@openzeppelin/upgrades-core/contracts/Initializable.sol';\n\ncontract GameStorage is Utils, Initializable, Random {\n    using SafeMath for uint256;\n    EternalStorage es;\n\n    function initialize(address _es) public initializer {\n        es = EternalStorage(_es);\n    }\n\n    function getSolarAddress() public view returns (address) {\n        return es.getAddress(keccak256('contract.address.solar'));\n    }\n\n    function getFHRAddress() public view returns (address) {\n        return es.getAddress(keccak256('contract.address.fhr'));\n    }\n\n    function getSatAddress() public view returns (address) {\n        return es.getAddress(keccak256('contract.address.sats'));\n    }\n\n    function getTreasuryAddress() public view returns (address) {\n        return es.getAddress(keccak256('contract.address.treasury'));\n    }\n\n    function getBalance(address user) public view returns (uint256) {\n        return es.getUint(keccak256(abi.encodePacked('user.balance', user)));\n    }\n\n    function getStartPosition() public view returns (Types.Position memory) {\n        return\n            Types.Position({\n                quadrant: es.getUint8(keccak256('constants.startPosition.quadrant')),\n                sector: es.getUint8(keccak256('constants.startPosition.sector')),\n                district: es.getUint8(keccak256('constants.startPosition.district')),\n                star: es.getUint(keccak256('constants.startPosition.star'))\n            });\n    }\n\n    function getBoundaries() public view returns (Types.Position memory) {\n        return\n            Types.Position({\n                quadrant: es.getUint8(keccak256('constants.boundaries.quadrant')),\n                district: es.getUint8(keccak256('constants.boundaries.district')),\n                sector: es.getUint8(keccak256('constants.boundaries.sector')),\n                star: es.getUint(keccak256('constants.boundaries.star'))\n            });\n    }\n\n    function incrementTotalFhr() public returns (uint256) {\n        uint256 _id = es.getUint(keccak256('fhr.total')) + 1;\n        es.setUint(keccak256('fhr.total'), _id);\n        return _id;\n    }\n\n    function getStarSystemType(Types.Position memory pos) public view returns (Types.SystemType) {\n        uint256 systemType = es.getUint(\n            keccak256(\n                abi.encodePacked(\n                    'stars.systemType',\n                    pos.quadrant,\n                    pos.sector,\n                    pos.district,\n                    pos.star\n                )\n            )\n        );\n        return Types.SystemType(systemType);\n    }\n\n    function getRandomSystemType() public view returns (Types.SystemType systemType, uint256 rand) {\n        uint256 MAX_ROLL = es.getUint(keccak256('constants.rolling.maxRoll'));\n        uint256 ONE_PERCENT = MAX_ROLL / 100;\n        rand = Random.randrange(1, MAX_ROLL);\n        uint16 roll = uint16(rand);\n        if (roll == 1) {\n            systemType = Types.SystemType.AncientFleetAggressive;\n        } else if (roll == 42) {\n            systemType = Types.SystemType.SuperComputerEvent;\n        } else if (roll <= ONE_PERCENT * 5) {\n            systemType = Types.SystemType.AdvancedAlienFleetAggressive;\n        } else if (roll > ONE_PERCENT * 5 && roll <= ONE_PERCENT * 10) {\n            systemType = Types.SystemType.AiFleetAggressive;\n        } else if (roll > ONE_PERCENT * 10 && roll <= ONE_PERCENT * 20) {\n            systemType = Types.SystemType.AlienFleetAggressive;\n        } else if (roll > ONE_PERCENT * 20 && roll <= ONE_PERCENT * 30) {\n            systemType = Types.SystemType.PiratesEvent;\n        } else if (roll > ONE_PERCENT * 30 && roll <= ONE_PERCENT * 35) {\n            systemType = Types.SystemType.SolarWinds;\n        } else if (roll > ONE_PERCENT * 35 && roll <= ONE_PERCENT * 40) {\n            systemType = Types.SystemType.Asteroids;\n        } else if (roll > ONE_PERCENT * 40 && roll <= ONE_PERCENT * 47) {\n            systemType = Types.SystemType.Empty;\n        } else if (roll > ONE_PERCENT * 47 && roll <= ONE_PERCENT * 60) {\n            systemType = Types.SystemType.GovermentOwned;\n        } else if (roll > ONE_PERCENT * 60 && roll <= ONE_PERCENT * 65) {\n            systemType = Types.SystemType.LowYieldSystem;\n        } else if (roll > ONE_PERCENT * 65 && roll <= ONE_PERCENT * 70) {\n            systemType = Types.SystemType.RandomEvent;\n        } else if (roll > ONE_PERCENT * 70 && roll <= ONE_PERCENT & 75) {\n            systemType = Types.SystemType.MediumYieldSystem;\n        } else if (roll > ONE_PERCENT * 70 && roll <= ONE_PERCENT & 80) {\n            systemType = Types.SystemType.ShipWreck;\n        } else if (roll > ONE_PERCENT * 80 && roll <= ONE_PERCENT & 85) {\n            systemType = Types.SystemType.HighYieldSystem;\n        } else if (roll > ONE_PERCENT * 85 && roll <= ONE_PERCENT & 90) {\n            systemType = Types.SystemType.AncientMiningSystem;\n        } else if (roll > ONE_PERCENT * 90 && roll <= ONE_PERCENT & 95) {\n            systemType = Types.SystemType.AncientWeaponSystem;\n        } else if (roll > ONE_PERCENT * 95 && roll <= ONE_PERCENT & 99) {\n            systemType = Types.SystemType.AncientShipWreck;\n        } else if (roll > ONE_PERCENT * 99 && roll <= MAX_ROLL - 1) {\n            systemType = Types.SystemType.InsaneYieldSystem;\n        } else if (roll == MAX_ROLL) {\n            systemType = Types.SystemType.AncientRacePassive;\n        } else {\n            systemType = Types.SystemType.Empty;\n        }\n    }\n\n    function getRandomYield(Types.SystemType systemType) public view returns (uint16 rand) {\n        if (systemType == Types.SystemType.LowYieldSystem) {\n            rand = uint16(\n                Random.randrange(\n                    es.getUint(keccak256('constants.yield.low_yield_low')),\n                    es.getUint(keccak256('constants.yield.low_yield_high'))\n                )\n            );\n        } else if (systemType == Types.SystemType.MediumYieldSystem) {\n            rand = uint16(\n                Random.randrange(\n                    es.getUint(keccak256('constants.yield.medium_yield_low')),\n                    es.getUint(keccak256('constants.yield.medium_yield_high'))\n                )\n            );\n        } else if (systemType == Types.SystemType.LowYieldSystem) {\n            rand = uint16(\n                Random.randrange(\n                    es.getUint(keccak256('constants.yield.high_yield_low')),\n                    es.getUint(keccak256('constants.yield.high_yield_high'))\n                )\n            );\n        } else if (systemType == Types.SystemType.LowYieldSystem) {\n            rand = uint16(\n                Random.randrange(\n                    es.getUint(keccak256('constants.yield.insane_yield_low')),\n                    es.getUint(keccak256('constants.yield.insane_yield_high'))\n                )\n            );\n        }\n    }\n\n    function setStarSystemType(Types.Position memory pos, Types.SystemType systemType) public {\n        es.setUint(\n            keccak256(\n                abi.encodePacked(\n                    'stars.systemType',\n                    pos.quadrant,\n                    pos.sector,\n                    pos.district,\n                    pos.star\n                )\n            ),\n            uint256(systemType)\n        );\n    }\n\n    function getStarSystemYield(Types.Position memory pos) public view returns (uint16) {\n        es.getUint16(\n            keccak256(\n                abi.encodePacked('stars.yield', pos.quadrant, pos.sector, pos.district, pos.star)\n            )\n        );\n    }\n\n    function setStarSystemYield(Types.Position memory pos, uint16 yield) public {\n        es.setUint16(\n            keccak256(\n                abi.encodePacked('stars.yield', pos.quadrant, pos.sector, pos.district, pos.star)\n            ),\n            yield\n        );\n    }\n\n    function setMasterFleetPosition(address master, Types.Position memory pos) public {\n        es.setUint8(\n            keccak256(abi.encodePacked('master.fleet.position.quadrant', master)),\n            pos.quadrant\n        );\n        es.setUint8(\n            keccak256(abi.encodePacked('master.fleet.position.sector', master)),\n            pos.sector\n        );\n        es.setUint8(\n            keccak256(abi.encodePacked('master.fleet.position.district', master)),\n            pos.district\n        );\n        es.setUint(keccak256(abi.encodePacked('master.fleet.position.star', master)), pos.star);\n    }\n\n    function getMasterFleetPosition(address master) public view returns (Types.Position memory) {\n        return\n            Types.Position({\n                quadrant: es.getUint8(\n                    keccak256(abi.encodePacked('master.fleet.position.quadrant', master))\n                ),\n                sector: es.getUint8(\n                    keccak256(abi.encodePacked('master.fleet.position.sector', master))\n                ),\n                district: es.getUint8(\n                    keccak256(abi.encodePacked('master.fleet.position.district', master))\n                ),\n                star: es.getUint(keccak256(abi.encodePacked('master.fleet.position.star', master)))\n            });\n    }\n\n    function getSatInfo(uint256 id) public view returns (uint256 offense, uint256 defense) {\n        offense = es.getUint8(keccak256(abi.encodePacked('constants.sats.offense', id)));\n        defense = es.getUint8(keccak256(abi.encodePacked('constants.sats.defense', id)));\n    }\n\n    function getMasterFleetOffense(address master) public view returns (uint256) {\n        return es.getUint(keccak256(abi.encodePacked('master.fleet.offense', master)));\n    }\n\n    function setMasterFleetOffense(address master, uint256 offense) public {\n        es.setUint(keccak256(abi.encodePacked('master.fleet.offense', master)), offense);\n    }\n\n    function getMasterFleetDefense(address master) public view returns (uint256) {\n        return es.getUint(keccak256(abi.encodePacked('master.fleet.defense', master)));\n    }\n\n    function setMasterFleetDefense(address master, uint256 defense) public {\n        es.setUint(keccak256(abi.encodePacked('master.fleet.defense', master)), defense);\n    }\n\n    function setMasterLockedInShipInfo(\n        address master,\n        uint256 id,\n        uint256 amount\n    ) public {\n        es.setUint(keccak256(abi.encodePacked('master.fleet.lockedin', master, id)), amount);\n    }\n\n    function getMasterLockedInShipInfo(address master, uint256 id) public view returns (uint256) {\n        return es.getUint(keccak256(abi.encodePacked('master.fleet.lockedin', master, id)));\n    }\n\n    function getMasterFleetInfo(address master)\n        public\n        view\n        returns (uint256 offense, uint256 defense)\n    {\n        offense = getMasterFleetOffense(master);\n        defense = getMasterFleetDefense(master);\n    }\n\n    function getAiFleetInfo(Types.SystemType systemType)\n        public\n        view\n        returns (uint256 offense, uint256 defense)\n    {\n        if (systemType == Types.SystemType.AlienFleetAggressive) {\n            uint8 min = es.getUint8(keccak256('constants.rolling.alienfleet.min'));\n            uint8 max = es.getUint8(keccak256('constants.rolling.alienfleet.max'));\n            offense = Random.randrange(min, max);\n            defense = Random.randrange(min, max);\n        } else if (systemType == Types.SystemType.AdvancedAlienFleetAggressive) {\n            uint8 min = es.getUint8(keccak256('constants.rolling.advancedalienfleet.min'));\n            uint8 max = es.getUint8(keccak256('constants.rolling.advancedalienfleet.max'));\n            offense = Random.randrange(min, max);\n            defense = Random.randrange(min, max);\n        } else if (systemType == Types.SystemType.AncientFleetAggressive) {\n            uint8 min = es.getUint8(keccak256('constants.rolling.ancientfleet.min'));\n            uint8 max = es.getUint8(keccak256('constants.rolling.ancientfleet.max'));\n            offense = Random.randrange(min, max);\n            defense = Random.randrange(min, max);\n        }\n    }\n}\n",
  "sourcePath": "C:\\Users\\James\\projects\\tsuno-fe\\contracts\\GameStorage.sol",
  "compiler": {
    "name": "solc",
    "version": "0.6.12+commit.27d51765.Emscripten.clang"
  },
  "schemaVersion": "3.2.5",
  "updatedAt": "2020-10-09T10:38:50.268Z",
  "networkType": "ethereum",
  "devdoc": {
    "kind": "dev",
    "methods": {},
    "version": 1
  },
  "userdoc": {
    "kind": "user",
    "methods": {},
    "version": 1
  }
}