{
  "contractName": "GameStorage",
  "abi": [
    {
      "anonymous": false,
      "inputs": [
        {
          "indexed": true,
          "internalType": "address",
          "name": "previousOwner",
          "type": "address"
        },
        {
          "indexed": true,
          "internalType": "address",
          "name": "newOwner",
          "type": "address"
        }
      ],
      "name": "OwnershipTransferred",
      "type": "event"
    },
    {
      "anonymous": false,
      "inputs": [
        {
          "indexed": false,
          "internalType": "uint256",
          "name": "random",
          "type": "uint256"
        }
      ],
      "name": "Random",
      "type": "event"
    },
    {
      "inputs": [],
      "name": "owner",
      "outputs": [
        {
          "internalType": "address",
          "name": "",
          "type": "address"
        }
      ],
      "stateMutability": "view",
      "type": "function",
      "constant": true
    },
    {
      "inputs": [],
      "name": "renounceOwnership",
      "outputs": [],
      "stateMutability": "nonpayable",
      "type": "function"
    },
    {
      "inputs": [],
      "name": "resetConstants",
      "outputs": [],
      "stateMutability": "nonpayable",
      "type": "function"
    },
    {
      "inputs": [
        {
          "internalType": "uint256",
          "name": "_seed",
          "type": "uint256"
        }
      ],
      "name": "setSeed",
      "outputs": [],
      "stateMutability": "nonpayable",
      "type": "function"
    },
    {
      "inputs": [
        {
          "internalType": "address",
          "name": "newOwner",
          "type": "address"
        }
      ],
      "name": "transferOwnership",
      "outputs": [],
      "stateMutability": "nonpayable",
      "type": "function"
    },
    {
      "inputs": [
        {
          "internalType": "address",
          "name": "_solar",
          "type": "address"
        },
        {
          "internalType": "address",
          "name": "_sat",
          "type": "address"
        },
        {
          "internalType": "address",
          "name": "_fhr",
          "type": "address"
        },
        {
          "internalType": "address",
          "name": "_treasury",
          "type": "address"
        },
        {
          "internalType": "address",
          "name": "_planetManager",
          "type": "address"
        },
        {
          "internalType": "address",
          "name": "_gameOperations",
          "type": "address"
        }
      ],
      "name": "initialize",
      "outputs": [],
      "stateMutability": "nonpayable",
      "type": "function"
    },
    {
      "inputs": [
        {
          "internalType": "address",
          "name": "_operator",
          "type": "address"
        }
      ],
      "name": "addOperator",
      "outputs": [],
      "stateMutability": "nonpayable",
      "type": "function"
    },
    {
      "inputs": [],
      "name": "getSolarAddress",
      "outputs": [
        {
          "internalType": "address",
          "name": "",
          "type": "address"
        }
      ],
      "stateMutability": "view",
      "type": "function",
      "constant": true
    },
    {
      "inputs": [],
      "name": "getPlanetManagerAddress",
      "outputs": [
        {
          "internalType": "address",
          "name": "",
          "type": "address"
        }
      ],
      "stateMutability": "view",
      "type": "function",
      "constant": true
    },
    {
      "inputs": [],
      "name": "getFhrAddress",
      "outputs": [
        {
          "internalType": "address",
          "name": "",
          "type": "address"
        }
      ],
      "stateMutability": "view",
      "type": "function",
      "constant": true
    },
    {
      "inputs": [],
      "name": "getSatAddress",
      "outputs": [
        {
          "internalType": "address",
          "name": "",
          "type": "address"
        }
      ],
      "stateMutability": "view",
      "type": "function",
      "constant": true
    },
    {
      "inputs": [],
      "name": "getTreasuryAddress",
      "outputs": [
        {
          "internalType": "address",
          "name": "",
          "type": "address"
        }
      ],
      "stateMutability": "view",
      "type": "function",
      "constant": true
    },
    {
      "inputs": [
        {
          "internalType": "address",
          "name": "_address",
          "type": "address"
        }
      ],
      "name": "getProxyAddressToTokenId",
      "outputs": [
        {
          "internalType": "uint256",
          "name": "",
          "type": "uint256"
        }
      ],
      "stateMutability": "view",
      "type": "function",
      "constant": true
    },
    {
      "inputs": [
        {
          "internalType": "uint256",
          "name": "token",
          "type": "uint256"
        },
        {
          "internalType": "address",
          "name": "_address",
          "type": "address"
        }
      ],
      "name": "setProxyAddressToTokenId",
      "outputs": [],
      "stateMutability": "nonpayable",
      "type": "function"
    },
    {
      "inputs": [
        {
          "internalType": "uint256",
          "name": "_token",
          "type": "uint256"
        }
      ],
      "name": "getTokenIdToProxyAddress",
      "outputs": [
        {
          "internalType": "address",
          "name": "",
          "type": "address"
        }
      ],
      "stateMutability": "view",
      "type": "function",
      "constant": true
    },
    {
      "inputs": [
        {
          "internalType": "uint256",
          "name": "token",
          "type": "uint256"
        },
        {
          "internalType": "address",
          "name": "_address",
          "type": "address"
        }
      ],
      "name": "setTokenIdToProxyAddress",
      "outputs": [],
      "stateMutability": "nonpayable",
      "type": "function"
    },
    {
      "inputs": [],
      "name": "getStartPosition",
      "outputs": [
        {
          "components": [
            {
              "internalType": "uint8",
              "name": "quadrant",
              "type": "uint8"
            },
            {
              "internalType": "uint8",
              "name": "sector",
              "type": "uint8"
            },
            {
              "internalType": "uint8",
              "name": "district",
              "type": "uint8"
            },
            {
              "internalType": "uint256",
              "name": "star",
              "type": "uint256"
            }
          ],
          "internalType": "struct Types.Position",
          "name": "",
          "type": "tuple"
        }
      ],
      "stateMutability": "view",
      "type": "function",
      "constant": true
    },
    {
      "inputs": [],
      "name": "getBoundaries",
      "outputs": [
        {
          "components": [
            {
              "internalType": "uint8",
              "name": "quadrant",
              "type": "uint8"
            },
            {
              "internalType": "uint8",
              "name": "sector",
              "type": "uint8"
            },
            {
              "internalType": "uint8",
              "name": "district",
              "type": "uint8"
            },
            {
              "internalType": "uint256",
              "name": "star",
              "type": "uint256"
            }
          ],
          "internalType": "struct Types.Position",
          "name": "",
          "type": "tuple"
        }
      ],
      "stateMutability": "view",
      "type": "function",
      "constant": true
    },
    {
      "inputs": [],
      "name": "getMaxRoll",
      "outputs": [
        {
          "internalType": "uint256",
          "name": "",
          "type": "uint256"
        }
      ],
      "stateMutability": "view",
      "type": "function",
      "constant": true
    },
    {
      "inputs": [],
      "name": "incrementTotalFhr",
      "outputs": [
        {
          "internalType": "uint256",
          "name": "",
          "type": "uint256"
        }
      ],
      "stateMutability": "nonpayable",
      "type": "function"
    },
    {
      "inputs": [],
      "name": "getTotalFhr",
      "outputs": [
        {
          "internalType": "uint256",
          "name": "",
          "type": "uint256"
        }
      ],
      "stateMutability": "view",
      "type": "function",
      "constant": true
    },
    {
      "inputs": [
        {
          "internalType": "enum Types.SystemType",
          "name": "systemType",
          "type": "uint8"
        }
      ],
      "name": "getStarSystemYieldRange",
      "outputs": [
        {
          "internalType": "uint256",
          "name": "low",
          "type": "uint256"
        },
        {
          "internalType": "uint256",
          "name": "high",
          "type": "uint256"
        }
      ],
      "stateMutability": "nonpayable",
      "type": "function"
    },
    {
      "inputs": [
        {
          "internalType": "uint256",
          "name": "tokenId",
          "type": "uint256"
        },
        {
          "internalType": "uint256",
          "name": "yield",
          "type": "uint256"
        }
      ],
      "name": "setTokenIdToYield",
      "outputs": [],
      "stateMutability": "nonpayable",
      "type": "function"
    },
    {
      "inputs": [
        {
          "internalType": "uint256",
          "name": "tokenId",
          "type": "uint256"
        }
      ],
      "name": "getTokenIdToYield",
      "outputs": [
        {
          "internalType": "uint256",
          "name": "",
          "type": "uint256"
        }
      ],
      "stateMutability": "view",
      "type": "function",
      "constant": true
    },
    {
      "inputs": [
        {
          "components": [
            {
              "internalType": "uint8",
              "name": "quadrant",
              "type": "uint8"
            },
            {
              "internalType": "uint8",
              "name": "sector",
              "type": "uint8"
            },
            {
              "internalType": "uint8",
              "name": "district",
              "type": "uint8"
            },
            {
              "internalType": "uint256",
              "name": "star",
              "type": "uint256"
            }
          ],
          "internalType": "struct Types.Position",
          "name": "pos",
          "type": "tuple"
        },
        {
          "internalType": "enum Types.SystemType",
          "name": "systemType",
          "type": "uint8"
        }
      ],
      "name": "setStarSystemType",
      "outputs": [],
      "stateMutability": "nonpayable",
      "type": "function"
    },
    {
      "inputs": [
        {
          "components": [
            {
              "internalType": "uint8",
              "name": "quadrant",
              "type": "uint8"
            },
            {
              "internalType": "uint8",
              "name": "sector",
              "type": "uint8"
            },
            {
              "internalType": "uint8",
              "name": "district",
              "type": "uint8"
            },
            {
              "internalType": "uint256",
              "name": "star",
              "type": "uint256"
            }
          ],
          "internalType": "struct Types.Position",
          "name": "pos",
          "type": "tuple"
        }
      ],
      "name": "getStarSystemType",
      "outputs": [
        {
          "internalType": "enum Types.SystemType",
          "name": "",
          "type": "uint8"
        }
      ],
      "stateMutability": "view",
      "type": "function",
      "constant": true
    },
    {
      "inputs": [
        {
          "internalType": "address",
          "name": "fleet",
          "type": "address"
        },
        {
          "components": [
            {
              "internalType": "uint8",
              "name": "quadrant",
              "type": "uint8"
            },
            {
              "internalType": "uint8",
              "name": "sector",
              "type": "uint8"
            },
            {
              "internalType": "uint8",
              "name": "district",
              "type": "uint8"
            },
            {
              "internalType": "uint256",
              "name": "star",
              "type": "uint256"
            }
          ],
          "internalType": "struct Types.Position",
          "name": "pos",
          "type": "tuple"
        }
      ],
      "name": "setMasterFleetPosition",
      "outputs": [],
      "stateMutability": "nonpayable",
      "type": "function"
    },
    {
      "inputs": [
        {
          "internalType": "address",
          "name": "fleet",
          "type": "address"
        }
      ],
      "name": "getMasterFleetPosition",
      "outputs": [
        {
          "components": [
            {
              "internalType": "uint8",
              "name": "quadrant",
              "type": "uint8"
            },
            {
              "internalType": "uint8",
              "name": "sector",
              "type": "uint8"
            },
            {
              "internalType": "uint8",
              "name": "district",
              "type": "uint8"
            },
            {
              "internalType": "uint256",
              "name": "star",
              "type": "uint256"
            }
          ],
          "internalType": "struct Types.Position",
          "name": "",
          "type": "tuple"
        }
      ],
      "stateMutability": "view",
      "type": "function",
      "constant": true
    },
    {
      "inputs": [
        {
          "internalType": "enum Types.SystemType",
          "name": "systemType",
          "type": "uint8"
        }
      ],
      "name": "getAiFleetInfo",
      "outputs": [
        {
          "internalType": "uint256",
          "name": "offense",
          "type": "uint256"
        },
        {
          "internalType": "uint256",
          "name": "defense",
          "type": "uint256"
        }
      ],
      "stateMutability": "nonpayable",
      "type": "function"
    },
    {
      "inputs": [],
      "name": "getTotalSats",
      "outputs": [
        {
          "internalType": "uint256",
          "name": "",
          "type": "uint256"
        }
      ],
      "stateMutability": "view",
      "type": "function",
      "constant": true
    },
    {
      "inputs": [
        {
          "internalType": "uint256",
          "name": "satType",
          "type": "uint256"
        }
      ],
      "name": "getSatInfo",
      "outputs": [
        {
          "internalType": "uint256",
          "name": "offense",
          "type": "uint256"
        },
        {
          "internalType": "uint256",
          "name": "defense",
          "type": "uint256"
        }
      ],
      "stateMutability": "view",
      "type": "function",
      "constant": true
    },
    {
      "inputs": [
        {
          "internalType": "uint256[]",
          "name": "ids",
          "type": "uint256[]"
        }
      ],
      "name": "batchGetSatInfo",
      "outputs": [
        {
          "internalType": "uint256[]",
          "name": "offenses",
          "type": "uint256[]"
        },
        {
          "internalType": "uint256[]",
          "name": "defenses",
          "type": "uint256[]"
        }
      ],
      "stateMutability": "view",
      "type": "function",
      "constant": true
    }
  ],
  "bytecode": "0x60806040526001805534801561001457600080fd5b50600061001f610072565b602180546001600160a01b0319166001600160a01b038316908117909155604051919250906000907f8be0079c531659141344cd1fd0a4f28419497f9722a3daafe3b4186f6b6457e0908290a350610076565b3390565b6114d6806100856000396000f3fe608060405234801561001057600080fd5b50600436106101f05760003560e01c806383b214d01161010f578063cc2a9a5b116100a2578063e2cd086211610071578063e2cd0862146103d5578063f2fde38b146103dd578063f52084e9146103f0578063f9a64b4c14610403576101f0565b8063cc2a9a5b14610391578063cf677f57146103a4578063e0024604146103ac578063e011d836146103b4576101f0565b80639d8e4e56116100de5780639d8e4e5614610345578063bedc6d2714610358578063bf2837e01461036b578063c32a50f91461037e576101f0565b806383b214d0146102f75780638da5cb5b1461030a578063917da392146103125780639870d7fe14610332576101f0565b80635beec2bb11610187578063715018a611610156578063715018a6146102cc57806375997ce9146102d457806377184035146102e757806377285f49146102ef576101f0565b80635beec2bb14610289578063692b4fc6146102915780636a2a7473146102b15780636d18c970146102c4576101f0565b80633dd742c9116101c35780633dd742c91461023a578063426d3f08146102425780634b087b22146102635780634f4815d714610276576101f0565b806304d5aae1146101f557806311217c5e14610213578063123cfce11461021d5780631c4af56014610232575b600080fd5b6101fd610416565b60405161020a919061142a565b60405180910390f35b61021b61045d565b005b61022561076b565b60405161020a91906112f9565b6101fd61077a565b610225610780565b610255610250366004611239565b61078f565b60405161020a929190611433565b61021b610271366004611274565b6107ae565b6102556102843660046111d8565b6107c0565b610225610846565b6102a461029f36600461106c565b610855565b60405161020a91906113f1565b6102556102bf3660046111d8565b6108b6565b6102a4610976565b61021b6109b9565b61021b6102e2366004611251565b610a38565b610225610a52565b6101fd610a61565b61021b61030536600461120e565b610a67565b610225610ac5565b6103256103203660046111f3565b610ad4565b60405161020a919061133b565b61021b61034036600461106c565b610b19565b6101fd61035336600461106c565b610b72565b61021b61036636600461110f565b610b8d565b6101fd610379366004611239565b610bf5565b61021b61038c366004611239565b610c07565b61021b61039f36600461108e565b610c0c565b6102a4610c7b565b610225610cbe565b6103c76103c2366004611143565b610ccd565b60405161020a92919061130d565b6101fd610dca565b61021b6103eb36600461106c565b610dd0565b61021b6103fe366004611251565b610e87565b610225610411366004611239565b610eb5565b3360009081526022602052604081205460ff1661044e5760405162461bcd60e51b8152600401610445906113ca565b60405180910390fd5b50601380546001019081905590565b60016015818155604b6016819055604c601755609660188190556097601955610190601a55610191601b556103e8601c81905560408051608080820183528782526007602080840191909152828401899052602a6060938401819052600e80546201000060ff19918216909c1761ff00199081166107001762ff0000199081169d909d17909255600f9290925585519384018652600480855292840199909952600894830194909452910183905260108054831690911786166115001790961662080000179095556011556127106012908155601d8054861682178516613200179055601e805486169093178416614b0017909255601f8054909416179091166196001790915560145561056f610f6c565b50604080516102608101825260096102208201818152610240830191909152815281518083018352600a80825260208281018290528084019290925283518085018552600f8082528184018190528486019190915284518086018652600280825281850152606085015284518086018652600c808252818501819052608086019190915285518087018752600d8082528186015260a08601528551808701875283815280850184905260c08601528551808701875260038082528186015260e0860152855180870187528281528085018390526101008601528551808701875282815280850192909252610120850191909152845180860186526014808252818501819052610140860191909152855180870187526005808252818601526101608601528551808701875281815280850191909152610180850152845180860186526015808252818501526101a085015284518086018652601e808252818501526101c085015284518086018652828152808401929092526101e084019190915283518085019094528084529083015261020081019190915260005b60118110156107675781816011811061072057fe5b602090810291909101516000838152600783526040902081518154929093015160ff1990921660ff9384161761ff001916610100939092169290920217905560010161070b565b5050565b6009546001600160a01b031690565b60135490565b600a546001600160a01b031690565b60009081526007602052604090205460ff808216926101009092041690565b60009182526005602052604090912055565b600080600b8360148111156107d157fe5b14156107e4575050601554601654610841565b600d8360148111156107f257fe5b1415610805575050601754601854610841565b600f83601481111561081357fe5b141561082457505060195480610841565b601383601481111561083257fe5b1415610841575050601b54601c545b915091565b600c546001600160a01b031690565b61085d610f9a565b506001600160a01b03166000908152600660209081526040918290208251608081018452815460ff8082168352610100820481169483019490945262010000900490921692820192909252600190910154606082015290565b60008060058360148111156108c757fe5b141561090157601d5460ff808216916101009004166108e68282610ed0565b93506108f88260ff168260ff16610ed0565b92505050610841565b600383601481111561090f57fe5b141561092e57601e5460ff808216916101009004166108e68282610ed0565b600183601481111561093c57fe5b14156108415760205460ff8082169161010090041661095b8282610ed0565b935061096d8260ff168260ff16610ed0565b92505050915091565b61097e610f9a565b5060408051608081018252600e5460ff8082168352610100820481166020840152620100009091041691810191909152600f54606082015290565b6109c1610f68565b6021546001600160a01b039081169116146109ee5760405162461bcd60e51b815260040161044590611395565b6021546040516000916001600160a01b0316907f8be0079c531659141344cd1fd0a4f28419497f9722a3daafe3b4186f6b6457e0908390a3602180546001600160a01b0319169055565b6001600160a01b0316600090815260036020526040902055565b600b546001600160a01b031690565b60125490565b815160ff90811660009081526008602090815260408083208187015185168452825280832082870151909416835292815282822060608601518352905220805482919060ff19166001836014811115610abc57fe5b02179055505050565b6021546001600160a01b031690565b805160ff908116600090815260086020908152604080832081860151851684528252808320828601518516845282528083206060860151845290915290205416919050565b610b21610f68565b6021546001600160a01b03908116911614610b4e5760405162461bcd60e51b815260040161044590611395565b6001600160a01b03166000908152602260205260409020805460ff19166001179055565b6001600160a01b031660009081526003602052604090205490565b6001600160a01b0390911660009081526006602090815260409182902083518154928501519385015160ff908116620100000262ff0000199582166101000261ff00199290931660ff1990951694909417161792909216178155606090910151600190910155565b60009081526005602052604090205490565b600055565b600980546001600160a01b03199081166001600160a01b0389811691909117909255600c80548216888416179055600b80548216878416179055600d80548216868416179055600a8054909116918416919091179055610c6a61045d565b610c7381610b19565b505050505050565b610c83610f9a565b506040805160808101825260105460ff8082168352610100820481166020840152620100009091041691810191909152601154606082015290565b600d546001600160a01b031690565b606080825167ffffffffffffffff81118015610ce857600080fd5b50604051908082528060200260200182016040528015610d12578160200160208202803683370190505b509150825167ffffffffffffffff81118015610d2d57600080fd5b50604051908082528060200260200182016040528015610d57578160200160208202803683370190505b50905060005b8351811015610dc457600080610d85868481518110610d7857fe5b602002602001015161078f565b9150915081858481518110610d9657fe5b60200260200101818152505080848481518110610daf57fe5b60209081029190910101525050600101610d5d565b50915091565b60145490565b610dd8610f68565b6021546001600160a01b03908116911614610e055760405162461bcd60e51b815260040161044590611395565b6001600160a01b038116610e2b5760405162461bcd60e51b81526004016104459061134f565b6021546040516001600160a01b038084169216907f8be0079c531659141344cd1fd0a4f28419497f9722a3daafe3b4186f6b6457e090600090a3602180546001600160a01b0319166001600160a01b0392909216919091179055565b60009182526004602052604090912080546001600160a01b0319166001600160a01b03909216919091179055565b6000908152600460205260409020546001600160a01b031690565b600080546001546040518492610eea9233926020016112cf565b6040516020818303038152906040528051906020012060001c81610f0a57fe5b069050828110610f1a5780610f1e565b8281015b60018054810190556040519091507fbcf69e7223438137d9099bb71b1772c3eb2a5a8840750b247913cd6fd4d249d590610f5990839061142a565b60405180910390a15b92915050565b3390565b6040518061022001604052806011905b610f84610fc1565b815260200190600190039081610f7c5790505090565b60408051608081018252600080825260208201819052918101829052606081019190915290565b604080518082019091526000808252602082015290565b80356001600160a01b0381168114610f6257600080fd5b803560158110610f6257600080fd5b60006080828403121561100f578081fd5b6110196080611441565b9050611025838361105b565b8152611034836020840161105b565b6020820152611046836040840161105b565b60408201526060820135606082015292915050565b803560ff81168114610f6257600080fd5b60006020828403121561107d578081fd5b6110878383610fd8565b9392505050565b60008060008060008060c087890312156110a6578182fd5b86356110b181611488565b955060208701356110c181611488565b945060408701356110d181611488565b935060608701356110e181611488565b925060808701356110f181611488565b915060a087013561110181611488565b809150509295509295509295565b60008060a08385031215611121578182fd5b61112b8484610fd8565b915061113a8460208501610ffe565b90509250929050565b60006020808385031215611155578182fd5b823567ffffffffffffffff81111561116b578283fd5b8301601f8101851361117b578283fd5b803561118e61118982611468565b611441565b81815283810190838501858402850186018910156111aa578687fd5b8694505b838510156111cc5780358352600194909401939185019185016111ae565b50979650505050505050565b6000602082840312156111e9578081fd5b6110878383610fef565b600060808284031215611204578081fd5b6110878383610ffe565b60008060a08385031215611220578182fd5b61122a8484610ffe565b915061113a8460808501610fef565b60006020828403121561124a578081fd5b5035919050565b60008060408385031215611263578182fd5b8235915061113a8460208501610fd8565b60008060408385031215611286578182fd5b50508035926020909101359150565b6000815180845260208085019450808401835b838110156112c4578151875295820195908201906001016112a8565b509495945050505050565b60609390931b6bffffffffffffffffffffffff191683526014830191909152603482015260540190565b6001600160a01b0391909116815260200190565b6000604082526113206040830185611295565b82810360208401526113328185611295565b95945050505050565b602081016015831061134957fe5b91905290565b60208082526026908201527f4f776e61626c653a206e6577206f776e657220697320746865207a65726f206160408201526564647265737360d01b606082015260800190565b6020808252818101527f4f776e61626c653a2063616c6c6572206973206e6f7420746865206f776e6572604082015260600190565b6020808252600d908201526c27b7363c9027b832b930ba37b960991b604082015260600190565b600060808201905060ff835116825260ff602084015116602083015260ff60408401511660408301526060830151606083015292915050565b90815260200190565b918252602082015260400190565b60405181810167ffffffffffffffff8111828210171561146057600080fd5b604052919050565b600067ffffffffffffffff82111561147e578081fd5b5060209081020190565b6001600160a01b038116811461149d57600080fd5b5056fea26469706673582212204136b64d8d3e0a7e41bb3d52aa39c10832a3ed957a2ecc221a3dfafb4e5a065864736f6c634300060c0033",
  "immutableReferences": {},
  "source": "pragma solidity 0.6.12;\npragma experimental ABIEncoderV2;\n\nimport {SafeMath} from '@openzeppelin/contracts/math/SafeMath.sol';\nimport {Random} from './Random.sol';\nimport {Types} from './lib/Types.sol';\nimport {Initializable} from '@openzeppelin/upgrades-core/contracts/Initializable.sol';\nimport {Constants} from './Constants.sol';\nimport {Ownable} from '@openzeppelin/contracts/access/Ownable.sol';\n\ncontract GameStorage is Random, Constants, Ownable {\n    using SafeMath for uint256;\n    mapping(address => bool) operators;\n\n    function initialize(\n        address _solar,\n        address _sat,\n        address _fhr,\n        address _treasury,\n        address _planetManager,\n        address _gameOperations\n    ) public {\n        solar = _solar;\n        sat = _sat;\n        fhr = _fhr;\n        treasury = _treasury;\n        planetManager = _planetManager;\n        resetConstants();\n        addOperator(_gameOperations);\n    }\n\n    function addOperator(address _operator) public onlyOwner {\n        operators[_operator] = true;\n    }\n\n    modifier onlyOperator() {\n        // Make sure the access is permitted to only contracts in our Dapp\n        require(operators[msg.sender], 'Only Operator');\n        _;\n    }\n\n    function getSolarAddress() public view returns (address) {\n        return solar;\n    }\n\n    function getPlanetManagerAddress() public view returns (address) {\n        return planetManager;\n    }\n\n    function getFhrAddress() public view returns (address) {\n        return fhr;\n    }\n\n    function getSatAddress() public view returns (address) {\n        return sat;\n    }\n\n    function getTreasuryAddress() public view returns (address) {\n        return treasury;\n    }\n\n    function getProxyAddressToTokenId(address _address) public view returns (uint256) {\n        return proxyAddressToTokenId[_address];\n    }\n\n    function setProxyAddressToTokenId(uint256 token, address _address) public {\n        proxyAddressToTokenId[_address] = token;\n    }\n\n    function getTokenIdToProxyAddress(uint256 _token) public view returns (address) {\n        return tokenIdToProxyAddress[_token];\n    }\n\n    function setTokenIdToProxyAddress(uint256 token, address _address) public {\n        tokenIdToProxyAddress[token] = _address;\n    }\n\n    function getStartPosition() public view returns (Types.Position memory) {\n        return startPosition;\n    }\n\n    function getBoundaries() public view returns (Types.Position memory) {\n        return boundaries;\n    }\n\n    function getMaxRoll() public view returns (uint256) {\n        return maxRoll;\n    }\n\n    function incrementTotalFhr() public onlyOperator returns (uint256) {\n        totalFhr += 1;\n        return totalFhr;\n    }\n\n    function getTotalFhr() public view returns (uint256) {\n        return totalFhr;\n    }\n\n    function getStarSystemYieldRange(Types.SystemType systemType) public returns (uint256 low, uint256 high) {\n        if (systemType == Types.SystemType.LowYieldSystem) {\n            low = lowYieldRange.low;\n            high = lowYieldRange.high;\n        } else if (systemType == Types.SystemType.MediumYieldSystem) {\n            low = mediumYieldRange.low;\n            high = mediumYieldRange.high;\n        } else if (systemType == Types.SystemType.HighYieldSystem) {\n            low = highYieldRange.low;\n            high = highYieldRange.low;\n        } else if (systemType == Types.SystemType.InsaneYieldSystem) {\n            low = insaneYieldRange.low;\n            high = insaneYieldRange.high;\n        }\n    }\n\n    function setTokenIdToYield(uint256 tokenId, uint256 yield) public {\n        tokenIdToYield[tokenId] = yield;\n    }\n\n    function getTokenIdToYield(uint256 tokenId) public view returns (uint256) {\n        return tokenIdToYield[tokenId];\n    }\n\n    function setStarSystemType(Types.Position memory pos, Types.SystemType systemType) public {\n        positionToSystemType[pos.quadrant][pos.district][pos.sector][pos.star] = systemType;\n    }\n\n    function getStarSystemType(Types.Position memory pos) public view returns (Types.SystemType) {\n        return positionToSystemType[pos.quadrant][pos.district][pos.sector][pos.star];\n    }\n\n    function setMasterFleetPosition(address fleet, Types.Position memory pos) public {\n        fleetToPosition[fleet] = pos;\n    }\n\n    function getMasterFleetPosition(address fleet) public view returns (Types.Position memory) {\n        return fleetToPosition[fleet];\n    }\n\n    function getAiFleetInfo(Types.SystemType systemType) public returns (uint256 offense, uint256 defense) {\n        if (systemType == Types.SystemType.AlienFleetAggressive) {\n            uint8 min = easyAiRange.low;\n            uint8 max = easyAiRange.high;\n            offense = randomrange(min, max);\n            defense = randomrange(min, max);\n        } else if (systemType == Types.SystemType.AdvancedAlienFleetAggressive) {\n            uint8 min = mediumAiRange.low;\n            uint8 max = mediumAiRange.high;\n            offense = randomrange(min, max);\n            defense = randomrange(min, max);\n        } else if (systemType == Types.SystemType.AncientFleetAggressive) {\n            uint8 min = insaneAiRange.low;\n            uint8 max = insaneAiRange.high;\n            offense = randomrange(min, max);\n            defense = randomrange(min, max);\n        }\n    }\n\n    function getTotalSats() public view returns (uint256) {\n        return totalSats;\n    }\n\n    function getSatInfo(uint256 satType) public view returns (uint256 offense, uint256 defense) {\n        offense = idToSatStats[satType].offense;\n        defense = idToSatStats[satType].defense;\n    }\n\n    function batchGetSatInfo(uint256[] memory ids)\n        public\n        view\n        returns (uint256[] memory offenses, uint256[] memory defenses)\n    {\n        offenses = new uint256[](ids.length);\n        defenses = new uint256[](ids.length);\n        for (uint256 i = 0; i < ids.length; i++) {\n            (uint256 o, uint256 d) = getSatInfo(ids[i]);\n            offenses[i] = o;\n            defenses[i] = d;\n        }\n    }\n}\n",
  "sourcePath": "C:\\Users\\James\\projects\\tsuno-fe\\contracts\\GameStorage.sol",
  "compiler": {
    "name": "solc",
    "version": "0.6.12+commit.27d51765.Emscripten.clang"
  },
  "schemaVersion": "3.2.5",
  "updatedAt": "2020-11-02T11:26:00.821Z",
  "networkType": "ethereum",
  "devdoc": {
    "kind": "dev",
    "methods": {
      "owner()": {
        "details": "Returns the address of the current owner."
      },
      "renounceOwnership()": {
        "details": "Leaves the contract without owner. It will not be possible to call `onlyOwner` functions anymore. Can only be called by the current owner. NOTE: Renouncing ownership will leave the contract without an owner, thereby removing any functionality that is only available to the owner."
      },
      "transferOwnership(address)": {
        "details": "Transfers ownership of the contract to a new account (`newOwner`). Can only be called by the current owner."
      }
    },
    "version": 1
  },
  "userdoc": {
    "kind": "user",
    "methods": {},
    "version": 1
  }
}