{
  "contractName": "GameStorage",
  "abi": [
    {
      "inputs": [
        {
          "internalType": "address",
          "name": "_es",
          "type": "address"
        }
      ],
      "name": "initialize",
      "outputs": [],
      "stateMutability": "nonpayable",
      "type": "function"
    },
    {
      "inputs": [],
      "name": "getSolarAddress",
      "outputs": [
        {
          "internalType": "address",
          "name": "",
          "type": "address"
        }
      ],
      "stateMutability": "view",
      "type": "function",
      "constant": true
    },
    {
      "inputs": [],
      "name": "getFHRAddress",
      "outputs": [
        {
          "internalType": "address",
          "name": "",
          "type": "address"
        }
      ],
      "stateMutability": "view",
      "type": "function",
      "constant": true
    },
    {
      "inputs": [],
      "name": "getSatAddress",
      "outputs": [
        {
          "internalType": "address",
          "name": "",
          "type": "address"
        }
      ],
      "stateMutability": "view",
      "type": "function",
      "constant": true
    },
    {
      "inputs": [
        {
          "internalType": "address",
          "name": "user",
          "type": "address"
        }
      ],
      "name": "getBalance",
      "outputs": [
        {
          "internalType": "uint256",
          "name": "",
          "type": "uint256"
        }
      ],
      "stateMutability": "view",
      "type": "function",
      "constant": true
    },
    {
      "inputs": [],
      "name": "getStartPosition",
      "outputs": [
        {
          "components": [
            {
              "internalType": "uint8",
              "name": "quadrant",
              "type": "uint8"
            },
            {
              "internalType": "uint8",
              "name": "sector",
              "type": "uint8"
            },
            {
              "internalType": "uint8",
              "name": "district",
              "type": "uint8"
            },
            {
              "internalType": "uint256",
              "name": "star",
              "type": "uint256"
            }
          ],
          "internalType": "struct Types.Position",
          "name": "",
          "type": "tuple"
        }
      ],
      "stateMutability": "view",
      "type": "function",
      "constant": true
    },
    {
      "inputs": [],
      "name": "getBoundaries",
      "outputs": [
        {
          "components": [
            {
              "internalType": "uint8",
              "name": "quadrant",
              "type": "uint8"
            },
            {
              "internalType": "uint8",
              "name": "sector",
              "type": "uint8"
            },
            {
              "internalType": "uint8",
              "name": "district",
              "type": "uint8"
            },
            {
              "internalType": "uint256",
              "name": "star",
              "type": "uint256"
            }
          ],
          "internalType": "struct Types.Position",
          "name": "",
          "type": "tuple"
        }
      ],
      "stateMutability": "view",
      "type": "function",
      "constant": true
    },
    {
      "inputs": [
        {
          "components": [
            {
              "internalType": "uint8",
              "name": "quadrant",
              "type": "uint8"
            },
            {
              "internalType": "uint8",
              "name": "sector",
              "type": "uint8"
            },
            {
              "internalType": "uint8",
              "name": "district",
              "type": "uint8"
            },
            {
              "internalType": "uint256",
              "name": "star",
              "type": "uint256"
            }
          ],
          "internalType": "struct Types.Position",
          "name": "pos",
          "type": "tuple"
        }
      ],
      "name": "getStarSystemType",
      "outputs": [
        {
          "internalType": "enum Types.SystemType",
          "name": "",
          "type": "uint8"
        }
      ],
      "stateMutability": "nonpayable",
      "type": "function"
    },
    {
      "inputs": [
        {
          "internalType": "address",
          "name": "master",
          "type": "address"
        }
      ],
      "name": "getMasterFleetPosition",
      "outputs": [
        {
          "components": [
            {
              "internalType": "uint8",
              "name": "quadrant",
              "type": "uint8"
            },
            {
              "internalType": "uint8",
              "name": "sector",
              "type": "uint8"
            },
            {
              "internalType": "uint8",
              "name": "district",
              "type": "uint8"
            },
            {
              "internalType": "uint256",
              "name": "star",
              "type": "uint256"
            }
          ],
          "internalType": "struct Types.Position",
          "name": "",
          "type": "tuple"
        }
      ],
      "stateMutability": "nonpayable",
      "type": "function"
    },
    {
      "inputs": [],
      "name": "getRandomSystemType",
      "outputs": [
        {
          "internalType": "enum Types.SystemType",
          "name": "systemType",
          "type": "uint8"
        },
        {
          "internalType": "uint256",
          "name": "rand",
          "type": "uint256"
        }
      ],
      "stateMutability": "nonpayable",
      "type": "function"
    },
    {
      "inputs": [
        {
          "internalType": "enum Types.SystemType",
          "name": "systemType",
          "type": "uint8"
        }
      ],
      "name": "getRandomYield",
      "outputs": [
        {
          "internalType": "uint16",
          "name": "rand",
          "type": "uint16"
        }
      ],
      "stateMutability": "nonpayable",
      "type": "function"
    },
    {
      "inputs": [
        {
          "internalType": "address",
          "name": "master",
          "type": "address"
        },
        {
          "components": [
            {
              "internalType": "uint8",
              "name": "quadrant",
              "type": "uint8"
            },
            {
              "internalType": "uint8",
              "name": "sector",
              "type": "uint8"
            },
            {
              "internalType": "uint8",
              "name": "district",
              "type": "uint8"
            },
            {
              "internalType": "uint256",
              "name": "star",
              "type": "uint256"
            }
          ],
          "internalType": "struct Types.Position",
          "name": "pos",
          "type": "tuple"
        }
      ],
      "name": "setMasterFleetPosition",
      "outputs": [],
      "stateMutability": "nonpayable",
      "type": "function"
    },
    {
      "inputs": [
        {
          "components": [
            {
              "internalType": "uint8",
              "name": "quadrant",
              "type": "uint8"
            },
            {
              "internalType": "uint8",
              "name": "sector",
              "type": "uint8"
            },
            {
              "internalType": "uint8",
              "name": "district",
              "type": "uint8"
            },
            {
              "internalType": "uint256",
              "name": "star",
              "type": "uint256"
            }
          ],
          "internalType": "struct Types.Position",
          "name": "pos",
          "type": "tuple"
        },
        {
          "internalType": "enum Types.SystemType",
          "name": "systemType",
          "type": "uint8"
        }
      ],
      "name": "setStarSystemType",
      "outputs": [],
      "stateMutability": "nonpayable",
      "type": "function"
    },
    {
      "inputs": [
        {
          "internalType": "address",
          "name": "master",
          "type": "address"
        },
        {
          "components": [
            {
              "internalType": "uint8",
              "name": "quadrant",
              "type": "uint8"
            },
            {
              "internalType": "uint8",
              "name": "sector",
              "type": "uint8"
            },
            {
              "internalType": "uint8",
              "name": "district",
              "type": "uint8"
            },
            {
              "internalType": "uint256",
              "name": "star",
              "type": "uint256"
            }
          ],
          "internalType": "struct Types.Position",
          "name": "pos",
          "type": "tuple"
        }
      ],
      "name": "moveMasterFleet",
      "outputs": [],
      "stateMutability": "nonpayable",
      "type": "function"
    }
  ],
  "bytecode": "0x608060405234801561001057600080fd5b50611c48806100206000396000f3fe608060405234801561001057600080fd5b50600436106100e95760003560e01c806383b214d01161008c578063bedc6d2711610066578063bedc6d27146101af578063c4d66de8146101c2578063cf677f57146101d5578063f8b2cb4f146101dd576100e9565b806383b214d01461017a578063917da3921461018f57806397e36f61146101af576100e9565b80635beec2bb116100c85780635beec2bb14610142578063692b4fc61461014a5780636d18c9701461016a5780637d3b7d2314610172576100e9565b80626c2f3a146100ee578063123cfce11461011757806329087bcc1461012c575b600080fd5b6101016100fc3660046118ba565b6101fd565b60405161010e9190611b85565b60405180910390f35b61011f61067b565b60405161010e9190611a3f565b610134610721565b60405161010e929190611ab8565b61011f610b90565b61015d6101583660046117c1565b610be1565b60405161010e9190611b4c565b61015d610cf4565b61011f610fac565b61018d6101883660046118f0565b610ffd565b005b6101a261019d3660046118d5565b6110aa565b60405161010e9190611aa4565b61018d6101bd3660046117f9565b611181565b61018d6101d03660046117c1565b611210565b61015d6112b8565b6101f06101eb3660046117c1565b611519565b60405161010e9190611a53565b6000600b82601481111561020d57fe5b14156103615760335460405163bd02d0f560e01b815261035a916001600160a01b03169063bd02d0f590610265907f448463b38dabbe300f394c2039b985abab69981d6ed40862d610325e81ab575390600401611a53565b60206040518083038186803b15801561027d57600080fd5b505afa158015610291573d6000803e3d6000fd5b505050506040513d601f19601f820116820180604052508101906102b5919061191b565b60335460405163bd02d0f560e01b81526001600160a01b039091169063bd02d0f590610305907f72fdf2c0991a78df3f5c5c9ddeaaf6bc8560006305c54d014a953eecc723186990600401611a53565b60206040518083038186803b15801561031d57600080fd5b505afa158015610331573d6000803e3d6000fd5b505050506040513d601f19601f82011682018060405250810190610355919061191b565b6115c2565b9050610676565b600d82601481111561036f57fe5b14156104675760335460405163bd02d0f560e01b815261035a916001600160a01b03169063bd02d0f5906103c7907fdb7cce32c36ebbf33010d0a69fb49414335985911db59affa9e94d7357368bae90600401611a53565b60206040518083038186803b1580156103df57600080fd5b505afa1580156103f3573d6000803e3d6000fd5b505050506040513d601f19601f82011682018060405250810190610417919061191b565b60335460405163bd02d0f560e01b81526001600160a01b039091169063bd02d0f590610305907f7bf01cb15a59e063f3eac62eff1493ac6f4e839875e61cfcb654e335ab6e7c2590600401611a53565b600b82601481111561047557fe5b141561056d5760335460405163bd02d0f560e01b815261035a916001600160a01b03169063bd02d0f5906104cd907f388c7bc6753770118791c108588b5ba0410e03bdd02b5e38dc151051b0b39a1290600401611a53565b60206040518083038186803b1580156104e557600080fd5b505afa1580156104f9573d6000803e3d6000fd5b505050506040513d601f19601f8201168201806040525081019061051d919061191b565b60335460405163bd02d0f560e01b81526001600160a01b039091169063bd02d0f590610305907f37f2e32d4052beef4867a79d9cd15f1d7ed4b7e51d115152e8f908ab0851187490600401611a53565b600b82601481111561057b57fe5b14156106765760335460405163bd02d0f560e01b8152610673916001600160a01b03169063bd02d0f5906105d3907f4597b5a2a9bfa48c892467f16be44b1e6b66d00ca454c2142805a9d55634eadf90600401611a53565b60206040518083038186803b1580156105eb57600080fd5b505afa1580156105ff573d6000803e3d6000fd5b505050506040513d601f19601f82011682018060405250810190610623919061191b565b60335460405163bd02d0f560e01b81526001600160a01b039091169063bd02d0f590610305907fd0485672ccf51f188e45c54510fcfdf8e00bbfc4b1460ada4cce1823520709b390600401611a53565b90505b919050565b6033546040516321f8a72160e01b81526000916001600160a01b0316906321f8a721906106cc907f74ae7744c39f2e96c3aa82438ce5957a2a5a73fd6a10be3d8ee9f1f5013557bb90600401611a53565b60206040518083038186803b1580156106e457600080fd5b505afa1580156106f8573d6000803e3d6000fd5b505050506040513d601f19601f8201168201806040525081019061071c91906117dd565b905090565b60335460405163bd02d0f560e01b8152600091829182916001600160a01b03169063bd02d0f590610776907f325945f9eb0ae14817d5b4b77e428d516f4890b2b22f01af7dc18eae966590f290600401611a53565b60206040518083038186803b15801561078e57600080fd5b505afa1580156107a2573d6000803e3d6000fd5b505050506040513d601f19601f820116820180604052508101906107c6919061191b565b60335460405163bd02d0f560e01b81529192506000916001600160a01b039091169063bd02d0f59061081c907f55c540f7ef0b9b4b1e70c01b6995b9c2c79b90300e32cbc47b8a9302e7b6f69990600401611a53565b60206040518083038186803b15801561083457600080fd5b505afa158015610848573d6000803e3d6000fd5b505050506040513d601f19601f8201168201806040525081019061086c919061191b565b90506108796001836115c2565b925082600161ffff821614156108925760019450610b89565b8061ffff16602a14156108a85760029450610b89565b816005028161ffff16116108bf5760039450610b89565b816005028161ffff161180156108dc575081600a028161ffff1611155b156108ea5760049450610b89565b81600a028161ffff161180156109075750816014028161ffff1611155b156109155760059450610b89565b816014028161ffff16118015610932575081601e028161ffff1611155b156109405760069450610b89565b81601e028161ffff1611801561095d5750816023028161ffff1611155b1561096b5760079450610b89565b816023028161ffff161180156109885750816028028161ffff1611155b156109965760089450610b89565b816028028161ffff161180156109b3575081602f028161ffff1611155b156109c15760099450610b89565b81602f028161ffff161180156109de575081603c028161ffff1611155b156109ec57600a9450610b89565b81603c028161ffff16118015610a095750816041028161ffff1611155b15610a1757600b9450610b89565b816041028161ffff16118015610a345750816046028161ffff1611155b15610a4257600c9450610b89565b816046028161ffff16118015610a5f575081604b168161ffff1611155b15610a6d57600d9450610b89565b816046028161ffff16118015610a8a5750816050168161ffff1611155b15610a9857600e9450610b89565b816050028161ffff16118015610ab55750816055168161ffff1611155b15610ac357600f9450610b89565b816055028161ffff16118015610ae0575081605a168161ffff1611155b15610aee5760109450610b89565b81605a028161ffff16118015610b0b575081605f168161ffff1611155b15610b195760119450610b89565b81605f028161ffff16118015610b365750816063168161ffff1611155b15610b445760129450610b89565b816063028161ffff16118015610b615750600183038161ffff1611155b15610b6f5760139450610b89565b828161ffff161415610b845760149450610b89565b600994505b5050509091565b6033546040516321f8a72160e01b81526000916001600160a01b0316906321f8a721906106cc907fc76dc8007b3273275fd04e9508bdc23d5db4f4556b27a48f37d606a72595b99990600401611a53565b610be9611729565b6033546040516060916001600160a01b03169063c031a18090610c1090869060200161194f565b604051602081830303815290604052805190602001206040518263ffffffff1660e01b8152600401610c429190611a53565b60006040518083038186803b158015610c5a57600080fd5b505afa158015610c6e573d6000803e3d6000fd5b505050506040513d6000823e601f3d908101601f19168201604052610c96919081019061182e565b90506040518060800160405280610cae8360006115e0565b60ff168152602001610cc18360016115e0565b60ff168152602001610cd48360026115e0565b60ff168152602001610ce783600361160f565b61ffff1690529392505050565b610cfc611729565b604080516080810191829052603354638b23b40b60e01b9092529081906001600160a01b0316638b23b40b610d547f7b7d103438c107d32fcce1aa1f42631aff83333d813cb27d5208e2ddbfcc6ff560848501611a53565b60206040518083038186803b158015610d6c57600080fd5b505afa158015610d80573d6000803e3d6000fd5b505050506040513d601f19601f82011682018060405250810190610da49190611933565b60ff168152603354604051638b23b40b60e01b81526020909201916001600160a01b0390911690638b23b40b90610dff907f9dc62754f894cfaffb1f85e932d98591d9eb0265940f047426856701d413a18e90600401611a53565b60206040518083038186803b158015610e1757600080fd5b505afa158015610e2b573d6000803e3d6000fd5b505050506040513d601f19601f82011682018060405250810190610e4f9190611933565b60ff168152603354604051638b23b40b60e01b81526020909201916001600160a01b0390911690638b23b40b90610eaa907f6cb92777a70ecc58a97ff96966e61de7e3e0f9789f5c3532c90cbe9ed0b5444290600401611a53565b60206040518083038186803b158015610ec257600080fd5b505afa158015610ed6573d6000803e3d6000fd5b505050506040513d601f19601f82011682018060405250810190610efa9190611933565b60ff16815260335460405163bd02d0f560e01b81526020909201916001600160a01b039091169063bd02d0f590610f55907f25223b82574d4b98b8148758cc271b44bffc984bf0c92aa93a30fde69aab092a90600401611a53565b60206040518083038186803b158015610f6d57600080fd5b505afa158015610f81573d6000803e3d6000fd5b505050506040513d601f19601f82011682018060405250810190610fa5919061191b565b9052905090565b6033546040516321f8a72160e01b81526000916001600160a01b0316906321f8a721906106cc907f644c173f435dc625f877f010ca80c2977e3857cc49b01119584fd99a3dd4974190600401611a53565b6033548251602080850151604080870151606088015191516001600160a01b039096169563e2a4853a95611035959094939101611988565b6040516020818303038152906040528051906020012083601481111561105757fe5b6040518363ffffffff1660e01b8152600401611074929190611a96565b600060405180830381600087803b15801561108e57600080fd5b505af11580156110a2573d6000803e3d6000fd5b505050505050565b60335481516020808401516040808601516060870151915160009687966001600160a01b039091169563bd02d0f5956110ea959294909390929101611988565b604051602081830303815290604052805190602001206040518263ffffffff1660e01b815260040161111c9190611a53565b60206040518083038186803b15801561113457600080fd5b505afa158015611148573d6000803e3d6000fd5b505050506040513d601f19601f8201168201806040525081019061116c919061191b565b905080601481111561117a57fe5b9392505050565b6033546040516001600160a01b0390911690632e28d084906111a790859060200161194f565b6040516020818303038152906040528051906020012083600001518460200151856040015186606001516040516020016111e49493929190611a09565b6040516020818303038152906040526040518363ffffffff1660e01b8152600401611074929190611a5c565b600054610100900460ff1680611229575061122961163e565b80611237575060005460ff16155b61125c5760405162461bcd60e51b815260040161125390611afe565b60405180910390fd5b600054610100900460ff16158015611287576000805460ff1961ff0019909116610100171660011790555b603380546001600160a01b0319166001600160a01b03841617905580156112b4576000805461ff00191690555b5050565b6112c0611729565b604080516080810191829052603354638b23b40b60e01b9092529081906001600160a01b0316638b23b40b6113187f4175a586b1fa8cdac8da5fab8f99d482d2ecfc625ee9fbc857d4553f5bf44c0b60848501611a53565b60206040518083038186803b15801561133057600080fd5b505afa158015611344573d6000803e3d6000fd5b505050506040513d601f19601f820116820180604052508101906113689190611933565b60ff168152603354604051638b23b40b60e01b81526020909201916001600160a01b0390911690638b23b40b906113c3907f8d2fc980de9768b7cd79768c0b3a4d75aa58c665c84514555b6363074ea6222090600401611a53565b60206040518083038186803b1580156113db57600080fd5b505afa1580156113ef573d6000803e3d6000fd5b505050506040513d601f19601f820116820180604052508101906114139190611933565b60ff168152603354604051638b23b40b60e01b81526020909201916001600160a01b0390911690638b23b40b9061146e907f14c0a373bd35608e71a9c0509f6206be411544d146ff38c0c5efdc8f8ad3cfc290600401611a53565b60206040518083038186803b15801561148657600080fd5b505afa15801561149a573d6000803e3d6000fd5b505050506040513d601f19601f820116820180604052508101906114be9190611933565b60ff16815260335460405163bd02d0f560e01b81526020909201916001600160a01b039091169063bd02d0f590610f55907fd1eb6e753d94694a2876ac3d785523e6a3e176b977dd574ef44c37dcea8588b890600401611a53565b6033546040516000916001600160a01b03169063bd02d0f5906115409085906020016119d7565b604051602081830303815290604052805190602001206040518263ffffffff1660e01b81526004016115729190611a53565b60206040518083038186803b15801561158a57600080fd5b505afa15801561159e573d6000803e3d6000fd5b505050506040513d601f19601f82011682018060405250810190610673919061191b565b6000816115cd611644565b816115d457fe5b06830190505b92915050565b600081600101835110156116065760405162461bcd60e51b815260040161125390611ad0565b50016001015190565b600081600201835110156116355760405162461bcd60e51b815260040161125390611ad0565b50016002015190565b303b1590565b600061071c4342026000806002830661168557604051611668908490602001611a53565b6040516020818303038152906040528051906020012090506116d5565b604051611696908490602001611a53565b604051602081830303815290604052805190602001206040516020016116bc9190611a53565b6040516020818303038152906040528051906020012090505b6000805b60208110156116fc578281602081106116ee57fe5b1a91909101906001016116d9565b5081602060028301066020811061170f57fe5b1a82602083066020811061171f57fe5b1a02949350505050565b60408051608081018252600080825260208201819052918101829052606081019190915290565b8035601581106115da57600080fd5b600060808284031215611770578081fd5b61177a6080611b94565b9050813561178781611c03565b8152602082013561179781611c03565b602082015260408201356117aa81611c03565b806040830152506060820135606082015292915050565b6000602082840312156117d2578081fd5b813561117a81611beb565b6000602082840312156117ee578081fd5b815161117a81611beb565b60008060a0838503121561180b578081fd5b823561181681611beb565b9150611825846020850161175f565b90509250929050565b60006020828403121561183f578081fd5b815167ffffffffffffffff80821115611856578283fd5b818401915084601f830112611869578283fd5b815181811115611877578384fd5b61188a601f8201601f1916602001611b94565b91508082528560208285010111156118a0578384fd5b6118b1816020840160208601611bbb565b50949350505050565b6000602082840312156118cb578081fd5b61117a8383611750565b6000608082840312156118e6578081fd5b61117a838361175f565b60008060a08385031215611902578182fd5b61190c848461175f565b91506118258460808501611750565b60006020828403121561192c578081fd5b5051919050565b600060208284031215611944578081fd5b815161117a81611c03565b723ab9b2b917333632b2ba173837b9b4ba34b7b760691b815260609190911b6bffffffffffffffffffffffff1916601382015260270190565b6f73746172732e73797374656d5479706560801b81526001600160f81b031960f895861b8116601083015293851b841660118201529190931b9091166012820152601381019190915260330190565b6b757365722e62616c616e636560a01b815260609190911b6bffffffffffffffffffffffff1916600c82015260200190565b6001600160f81b031960f895861b8116825293851b841660018201529190931b9091166002820152600381019190915260230190565b6001600160a01b0391909116815260200190565b90815260200190565b6000838252604060208301528251806040840152611a81816060850160208701611bbb565b601f01601f1916919091016060019392505050565b918252602082015260400190565b6020810160158310611ab257fe5b91905290565b6040810160158410611ac657fe5b9281526020015290565b602080825260149082015273736c6963696e67206f7574206f662072616e676560601b604082015260600190565b6020808252602e908201527f436f6e747261637420696e7374616e63652068617320616c726561647920626560408201526d195b881a5b9a5d1a585b1a5e995960921b606082015260800190565b600060808201905060ff835116825260ff602084015116602083015260ff60408401511660408301526060830151606083015292915050565b61ffff91909116815260200190565b60405181810167ffffffffffffffff81118282101715611bb357600080fd5b604052919050565b60005b83811015611bd6578181015183820152602001611bbe565b83811115611be5576000848401525b50505050565b6001600160a01b0381168114611c0057600080fd5b50565b60ff81168114611c0057600080fdfea2646970667358221220df17424156f362af07c059231470c2b694f9ed31640d49cedc3525d388d9bd0964736f6c634300060c0033",
  "immutableReferences": {},
  "source": "pragma solidity 0.6.12;\npragma experimental ABIEncoderV2;\n\nimport {SafeMath} from '@openzeppelin/contracts/math/SafeMath.sol';\n// import {Require} from './Require.sol';\nimport {Random} from './Random.sol';\nimport {Types} from './lib/Types.sol';\nimport {Utils} from './Utils.sol';\n// import {Fleet} from './Fleet.sol';\n// import {Constants} from './Constants.sol';\n// import {Governance} from './Governance.sol';\nimport {EternalStorage} from './EternalStorage.sol';\nimport {\n    Initializable\n} from '@openzeppelin/upgrades-core/contracts/Initializable.sol';\n\ncontract GameStorage is Utils, Initializable, Random {\n    using SafeMath for uint256;\n    EternalStorage es;\n\n    function initialize(address _es) public initializer {\n        es = EternalStorage(_es);\n    }\n\n    function getSolarAddress() public view returns (address) {\n        return es.getAddress(keccak256('contract.address.solar'));\n    }\n\n    function getFHRAddress() public view returns (address) {\n        return es.getAddress(keccak256('contract.address.fhr'));\n    }\n\n    function getSatAddress() public view returns (address) {\n        return es.getAddress(keccak256('contract.address.sats'));\n    }\n\n    function getBalance(address user) public view returns (uint256) {\n        return es.getUint(keccak256(abi.encodePacked('user.balance', user)));\n    }\n\n    function getStartPosition() public view returns (Types.Position memory) {\n        return\n            Types.Position({\n                quadrant: es.getUint8(\n                    keccak256('constants.startPosition.quadrant')\n                ),\n                sector: es.getUint8(\n                    keccak256('constants.startPosition.sector')\n                ),\n                district: es.getUint8(\n                    keccak256('constants.startPosition.district')\n                ),\n                star: es.getUint(keccak256('constants.startPosition.star'))\n            });\n    }\n\n    function getBoundaries() public view returns (Types.Position memory) {\n        return\n            Types.Position({\n                quadrant: es.getUint8(\n                    keccak256('constants.boundaries.quadrant')\n                ),\n                district: es.getUint8(\n                    keccak256('constants.boundaries.district')\n                ),\n                sector: es.getUint8(keccak256('constants.boundaries.sector')),\n                star: es.getUint(keccak256('constants.boundaries.star'))\n            });\n    }\n\n    function getStarSystemType(Types.Position memory pos)\n        public\n        returns (Types.SystemType)\n    {\n        uint256 systemType = es.getUint(\n            keccak256(\n                abi.encodePacked(\n                    'stars.systemType',\n                    pos.quadrant,\n                    pos.sector,\n                    pos.district,\n                    pos.star\n                )\n            )\n        );\n        return Types.SystemType(systemType);\n    }\n\n    function getMasterFleetPosition(address master)\n        public\n        returns (Types.Position memory)\n    {\n        bytes memory pos = es.getBytes(\n            keccak256(abi.encodePacked('user.fleet.position', master))\n        );\n        return\n            Types.Position({\n                quadrant: sliceUint8(pos, 0),\n                sector: sliceUint8(pos, 1),\n                district: sliceUint8(pos, 2),\n                star: sliceUint16(pos, 3)\n            });\n    }\n\n    function getRandomSystemType()\n        public\n        returns (Types.SystemType systemType, uint256 rand)\n    {\n        uint256 MAX_ROLL = es.getUint(keccak256('constants.rolling.maxRoll'));\n        uint256 ONE_PERCENT = es.getUint(\n            keccak256('constants.rolling.onePercent')\n        );\n        rand = Random.randrange(1, MAX_ROLL);\n        uint16 roll = uint16(rand);\n        if (roll == 1) {\n            systemType = Types.SystemType.AncientFleetAggressive;\n        } else if (roll == 42) {\n            systemType = Types.SystemType.SuperComputerEvent;\n        } else if (roll <= ONE_PERCENT * 5) {\n            systemType = Types.SystemType.AdvancedAlienFleetAggressive;\n        } else if (roll > ONE_PERCENT * 5 && roll <= ONE_PERCENT * 10) {\n            systemType = Types.SystemType.AiFleetAggressive;\n        } else if (roll > ONE_PERCENT * 10 && roll <= ONE_PERCENT * 20) {\n            systemType = Types.SystemType.AlienFleetAggressive;\n        } else if (roll > ONE_PERCENT * 20 && roll <= ONE_PERCENT * 30) {\n            systemType = Types.SystemType.PiratesEvent;\n        } else if (roll > ONE_PERCENT * 30 && roll <= ONE_PERCENT * 35) {\n            systemType = Types.SystemType.SolarWinds;\n        } else if (roll > ONE_PERCENT * 35 && roll <= ONE_PERCENT * 40) {\n            systemType = Types.SystemType.Asteroids;\n        } else if (roll > ONE_PERCENT * 40 && roll <= ONE_PERCENT * 47) {\n            systemType = Types.SystemType.Empty;\n        } else if (roll > ONE_PERCENT * 47 && roll <= ONE_PERCENT * 60) {\n            systemType = Types.SystemType.GovermentOwned;\n        } else if (roll > ONE_PERCENT * 60 && roll <= ONE_PERCENT * 65) {\n            systemType = Types.SystemType.LowYieldSystem;\n        } else if (roll > ONE_PERCENT * 65 && roll <= ONE_PERCENT * 70) {\n            systemType = Types.SystemType.RandomEvent;\n        } else if (roll > ONE_PERCENT * 70 && roll <= ONE_PERCENT & 75) {\n            systemType = Types.SystemType.MediumYieldSystem;\n        } else if (roll > ONE_PERCENT * 70 && roll <= ONE_PERCENT & 80) {\n            systemType = Types.SystemType.ShipWreck;\n        } else if (roll > ONE_PERCENT * 80 && roll <= ONE_PERCENT & 85) {\n            systemType = Types.SystemType.HighYieldSystem;\n        } else if (roll > ONE_PERCENT * 85 && roll <= ONE_PERCENT & 90) {\n            systemType = Types.SystemType.AncientMiningSystem;\n        } else if (roll > ONE_PERCENT * 90 && roll <= ONE_PERCENT & 95) {\n            systemType = Types.SystemType.AncientWeaponSystem;\n        } else if (roll > ONE_PERCENT * 95 && roll <= ONE_PERCENT & 99) {\n            systemType = Types.SystemType.AncientShipWreck;\n        } else if (roll > ONE_PERCENT * 99 && roll <= MAX_ROLL - 1) {\n            systemType = Types.SystemType.InsaneYieldSystem;\n        } else if (roll == MAX_ROLL) {\n            systemType = Types.SystemType.AncientRacePassive;\n        } else {\n            systemType = Types.SystemType.Empty;\n        }\n    }\n\n    function getRandomYield(Types.SystemType systemType)\n        public\n        returns (uint16 rand)\n    {\n        if (systemType == Types.SystemType.LowYieldSystem) {\n            rand = uint16(\n                Random.randrange(\n                    es.getUint(keccak256('constants.yield.low_yield_low')),\n                    es.getUint(keccak256('constants.yield.low_yield_high'))\n                )\n            );\n        } else if (systemType == Types.SystemType.MediumYieldSystem) {\n            rand = uint16(\n                Random.randrange(\n                    es.getUint(keccak256('constants.yield.medium_yield_low')),\n                    es.getUint(keccak256('constants.yield.medium_yield_high'))\n                )\n            );\n        } else if (systemType == Types.SystemType.LowYieldSystem) {\n            rand = uint16(\n                Random.randrange(\n                    es.getUint(keccak256('constants.yield.high_yield_low')),\n                    es.getUint(keccak256('constants.yield.high_yield_high'))\n                )\n            );\n        } else if (systemType == Types.SystemType.LowYieldSystem) {\n            rand = uint16(\n                Random.randrange(\n                    es.getUint(keccak256('constants.yield.insane_yield_low')),\n                    es.getUint(keccak256('constants.yield.insane_yield_high'))\n                )\n            );\n        }\n    }\n\n    function setMasterFleetPosition(address master, Types.Position memory pos)\n        public\n    {\n        es.setBytes(\n            keccak256(abi.encodePacked('user.fleet.position', master)),\n            abi.encodePacked(pos.quadrant, pos.sector, pos.district, pos.star)\n        );\n    }\n\n    function setStarSystemType(\n        Types.Position memory pos,\n        Types.SystemType systemType\n    ) public {\n        es.setUint(\n            keccak256(\n                abi.encodePacked(\n                    'stars.systemType',\n                    pos.quadrant,\n                    pos.sector,\n                    pos.district,\n                    pos.star\n                )\n            ),\n            uint256(systemType)\n        );\n    }\n\n    function moveMasterFleet(address master, Types.Position memory pos) public {\n        es.setBytes(\n            keccak256(abi.encodePacked('user.fleet.position', master)),\n            abi.encodePacked(pos.quadrant, pos.sector, pos.district, pos.star)\n        );\n    }\n}\n",
  "sourcePath": "C:\\Users\\James\\projects\\tsuno-fe\\contracts\\GameStorage.sol",
  "compiler": {
    "name": "solc",
    "version": "0.6.12+commit.27d51765.Emscripten.clang"
  },
  "schemaVersion": "3.2.5",
  "updatedAt": "2020-10-04T21:25:02.652Z",
  "networkType": "ethereum",
  "devdoc": {
    "kind": "dev",
    "methods": {},
    "version": 1
  },
  "userdoc": {
    "kind": "user",
    "methods": {},
    "version": 1
  }
}