{
  "contractName": "Getters",
  "abi": [
    {
      "inputs": [],
      "name": "getBalance",
      "outputs": [
        {
          "internalType": "uint256",
          "name": "",
          "type": "uint256"
        }
      ],
      "stateMutability": "view",
      "type": "function"
    },
    {
      "inputs": [],
      "name": "getReward",
      "outputs": [
        {
          "internalType": "uint256",
          "name": "",
          "type": "uint256"
        }
      ],
      "stateMutability": "view",
      "type": "function"
    },
    {
      "inputs": [
        {
          "internalType": "uint256",
          "name": "stakeTsuno",
          "type": "uint256"
        },
        {
          "internalType": "uint256",
          "name": "stakedDays",
          "type": "uint256"
        }
      ],
      "name": "getPotentialReward",
      "outputs": [
        {
          "internalType": "uint256",
          "name": "",
          "type": "uint256"
        }
      ],
      "stateMutability": "nonpayable",
      "type": "function"
    },
    {
      "inputs": [],
      "name": "getDateUnlocked",
      "outputs": [
        {
          "internalType": "uint256",
          "name": "",
          "type": "uint256"
        }
      ],
      "stateMutability": "view",
      "type": "function"
    }
  ],
  "bytecode": "0x608060405234801561001057600080fd5b506101e0806100206000396000f3fe608060405234801561001057600080fd5b506004361061004c5760003560e01c806312065fe0146100515780633d18b9121461006b57806382c7d5571461007357806399d7d17f14610096575b600080fd5b61005961009e565b60408051918252519081900360200190f35b6100596100b0565b6100596004803603604081101561008957600080fd5b50803590602001356100bd565b6100596100d0565b60006100ab6000336100dd565b905090565b60006100ab6000336100f9565b60006100c98383610118565b9392505050565b60006100ab60003361018b565b6001600160a01b03166000908152602091909152604090205490565b6001600160a01b03166000908152602091909152604090206003015490565b600080600183111561013e5761071c8311156101365761071c61013b565b600183035b90505b60006308f0d180841115610156576308f0d180610158565b845b90506b04d8c55aefb8c05b5c000000820261038e8202016c113a8d894022bbc4c108000000868202049695505050505050565b6001600160a01b0316600090815260209190915260409020600201549056fea264697066735822122068c716810c8eddd3341cc45bdcf3c9bfcac8e0f4ad08f3b06aeebc881d72205164736f6c634300060c0033",
  "immutableReferences": {},
  "source": "// SPDX-License-Identifier: MIT\n\n// code to deploy DyDx solo protocol locally\npragma solidity 0.6.12;\nimport {State} from './State.sol';\nimport {Storage} from './lib/Storage.sol';\nimport {Rewards} from './lib/Rewards.sol';\n\ncontract Getters is State {\n    function getBalance() public view returns (uint256) {\n        return Storage.getBalance(g_state, msg.sender);\n    }\n\n    function getReward() public view returns (uint256) {\n        return Storage.getReward(g_state, msg.sender);\n    }\n\n    function getPotentialReward(uint256 stakeTsuno, uint256 stakedDays)\n        public\n        returns (uint256)\n    {\n        return Rewards.calculateReward(stakeTsuno, stakedDays);\n    }\n\n    function getDateUnlocked() public view returns (uint256) {\n        return Storage.getDateUnlocked(g_state, msg.sender);\n    }\n}\n",
  "sourcePath": "C:\\Users\\James\\projects\\tsuno-fe\\contracts\\protocol\\Getters.sol",
  "compiler": {
    "name": "solc",
    "version": "0.6.12+commit.27d51765.Emscripten.clang"
  },
  "schemaVersion": "3.2.5",
  "updatedAt": "2020-09-23T19:25:48.050Z",
  "devdoc": {
    "kind": "dev",
    "methods": {},
    "version": 1
  },
  "userdoc": {
    "kind": "user",
    "methods": {},
    "version": 1
  }
}