{
  "contractName": "Getters",
  "abi": [
    {
      "inputs": [],
      "name": "getBalance",
      "outputs": [
        {
          "internalType": "uint256",
          "name": "",
          "type": "uint256"
        }
      ],
      "stateMutability": "view",
      "type": "function"
    },
    {
      "inputs": [],
      "name": "getReward",
      "outputs": [
        {
          "internalType": "uint256",
          "name": "",
          "type": "uint256"
        }
      ],
      "stateMutability": "view",
      "type": "function"
    },
    {
      "inputs": [
        {
          "internalType": "uint256",
          "name": "stakeTsuno",
          "type": "uint256"
        },
        {
          "internalType": "uint256",
          "name": "stakedDays",
          "type": "uint256"
        }
      ],
      "name": "getPotentialReward",
      "outputs": [
        {
          "internalType": "uint256",
          "name": "",
          "type": "uint256"
        }
      ],
      "stateMutability": "nonpayable",
      "type": "function"
    }
  ],
  "bytecode": "0x608060405234801561001057600080fd5b50610192806100206000396000f3fe608060405234801561001057600080fd5b50600436106100415760003560e01c806312065fe0146100465780633d18b9121461006057806382c7d55714610068575b600080fd5b61004e61008b565b60408051918252519081900360200190f35b61004e61009d565b61004e6004803603604081101561007e57600080fd5b50803590602001356100aa565b60006100986000336100bd565b905090565b60006100986000336100d9565b60006100b683836100f8565b9392505050565b6001600160a01b03166000908152602091909152604090205490565b6001600160a01b03166000908152602091909152604090206003015490565b600080600183111561011e5761071c8311156101165761071c61011b565b600183035b90505b60006308f0d180841115610136576308f0d180610138565b845b90506359682f00820261038e82020165013dd057120086820204969550505050505056fea264697066735822122020ee3cd7af550ab0b492dbe05742ec2c3b413130fb925a2de9aab67257f345a764736f6c634300060c0033",
  "immutableReferences": {},
  "source": "// SPDX-License-Identifier: MIT\n\n// code to deploy DyDx solo protocol locally\npragma solidity 0.6.12;\nimport {State} from \"./State.sol\";\nimport {Storage} from \"./lib/Storage.sol\";\nimport {Rewards} from \"./lib/Rewards.sol\";\n\ncontract Getters is State {\n    function getBalance() public view returns (uint256) {\n        return Storage.getBalance(g_state, msg.sender);\n    }\n\n    function getReward() public view returns (uint256) {\n        return Storage.getReward(g_state, msg.sender);\n    }\n\n    function getPotentialReward(uint256 stakeTsuno, uint256 stakedDays)\n        public\n        returns (uint256)\n    {\n        return Rewards.calculateReward(stakeTsuno, stakedDays);\n    }\n}\n",
  "sourcePath": "C:\\Users\\James\\projects\\tsuno-fe\\contracts\\protocol\\Getters.sol",
  "compiler": {
    "name": "solc",
    "version": "0.6.12+commit.27d51765.Emscripten.clang"
  },
  "schemaVersion": "3.2.5",
  "updatedAt": "2020-09-20T19:32:51.648Z",
  "devdoc": {
    "kind": "dev",
    "methods": {},
    "version": 1
  },
  "userdoc": {
    "kind": "user",
    "methods": {},
    "version": 1
  }
}