{
  "contractName": "Master",
  "abi": [
    {
      "inputs": [
        {
          "internalType": "address",
          "name": "_es",
          "type": "address"
        }
      ],
      "stateMutability": "nonpayable",
      "type": "constructor"
    },
    {
      "inputs": [],
      "name": "initialize",
      "outputs": [],
      "stateMutability": "nonpayable",
      "type": "function"
    },
    {
      "inputs": [
        {
          "internalType": "address",
          "name": "",
          "type": "address"
        },
        {
          "internalType": "address",
          "name": "",
          "type": "address"
        },
        {
          "internalType": "uint256[]",
          "name": "",
          "type": "uint256[]"
        },
        {
          "internalType": "uint256[]",
          "name": "",
          "type": "uint256[]"
        },
        {
          "internalType": "bytes",
          "name": "",
          "type": "bytes"
        }
      ],
      "name": "onERC1155BatchReceived",
      "outputs": [
        {
          "internalType": "bytes4",
          "name": "",
          "type": "bytes4"
        }
      ],
      "stateMutability": "nonpayable",
      "type": "function"
    },
    {
      "inputs": [
        {
          "internalType": "address",
          "name": "",
          "type": "address"
        },
        {
          "internalType": "address",
          "name": "",
          "type": "address"
        },
        {
          "internalType": "uint256",
          "name": "",
          "type": "uint256"
        },
        {
          "internalType": "uint256",
          "name": "",
          "type": "uint256"
        },
        {
          "internalType": "bytes",
          "name": "",
          "type": "bytes"
        }
      ],
      "name": "onERC1155Received",
      "outputs": [
        {
          "internalType": "bytes4",
          "name": "",
          "type": "bytes4"
        }
      ],
      "stateMutability": "nonpayable",
      "type": "function"
    },
    {
      "inputs": [
        {
          "internalType": "bytes4",
          "name": "interfaceId",
          "type": "bytes4"
        }
      ],
      "name": "supportsInterface",
      "outputs": [
        {
          "internalType": "bool",
          "name": "",
          "type": "bool"
        }
      ],
      "stateMutability": "view",
      "type": "function",
      "constant": true
    }
  ],
  "bytecode": "0x60806040523480156200001157600080fd5b506040516200420a3803806200420a8339810160408190526200003491620000d8565b600080546001600160a01b0319166001600160a01b038316179055620000616301ffc9a760e01b6200007a565b62000073630271189760e51b6200007a565b506200013f565b6001600160e01b03198082161415620000b05760405162461bcd60e51b8152600401620000a79062000108565b60405180910390fd5b6001600160e01b0319166000908152600160208190526040909120805460ff19169091179055565b600060208284031215620000ea578081fd5b81516001600160a01b038116811462000101578182fd5b9392505050565b6020808252601c908201527f4552433136353a20696e76616c696420696e7465726661636520696400000000604082015260600190565b6140bb806200014f6000396000f3fe608060405234801561001057600080fd5b506004361061004c5760003560e01c806301ffc9a7146100515780638129fc1c1461007a578063bc197c8114610084578063f23a6e61146100a4575b600080fd5b61006461005f366004613f54565b6100b7565b6040516100719190613ff3565b60405180910390f35b6100826100d6565b005b610097610092366004613e45565b613d1d565b6040516100719190614031565b6100976100b2366004613eef565b613d2e565b6001600160e01b03191660009081526001602052604090205460ff1690565b600054604051637152429d60e11b81526001600160a01b039091169063e2a4853a9061012c907f39f7b3e8e24b30eab4ee71524c0a6328e3722a6c8322b1fd501c9d94045deed390630103664090600401613ffe565b600060405180830381600087803b15801561014657600080fd5b505af115801561015a573d6000803e3d6000fd5b5050600054604051637152429d60e11b81526001600160a01b03909116925063e2a4853a91506101b3907f761ea616b7893288cc96e845c09a97fada212216f0ee70a372ba855b5bda0b1090620a604090600401613ffe565b600060405180830381600087803b1580156101cd57600080fd5b505af11580156101e1573d6000803e3d6000fd5b5050600054604051637152429d60e11b81526001600160a01b03909116925063e2a4853a915061023a907f830ef092c2d8f8ea2b98a2bd36e7ad3316b4098ab4b2af14a1a4a20aa6829167906202981090600401613ffe565b600060405180830381600087803b15801561025457600080fd5b505af1158015610268573d6000803e3d6000fd5b5050600054604051637152429d60e11b81526001600160a01b03909116925063e2a4853a91506102c0907f10bfcc1c71dd1ec5bbc17ef22dd6c32743d6e74874e9eec3f1fa7e45f9e02c359061438090600401613ffe565b600060405180830381600087803b1580156102da57600080fd5b505af11580156102ee573d6000803e3d6000fd5b5050600054604051637152429d60e11b81526001600160a01b03909116925063e2a4853a9150610345907f2f3cdbd2b13d8e4e0402e4639df1fd10793387f050dbc50d2c175d64763f151e90600190600401613ffe565b600060405180830381600087803b15801561035f57600080fd5b505af1158015610373573d6000803e3d6000fd5b5050600054604051637152429d60e11b81526001600160a01b03909116925063e2a4853a91506103ca907f4fda480c527bda5f9142f209fb8447194b82c1a4c47fc6fd07f2c45bc7f7fd6490600a90600401613ffe565b600060405180830381600087803b1580156103e457600080fd5b505af11580156103f8573d6000803e3d6000fd5b5050600054604051637152429d60e11b81526001600160a01b03909116925063e2a4853a915061044f907f448463b38dabbe300f394c2039b985abab69981d6ed40862d610325e81ab57539060019060040161400c565b600060405180830381600087803b15801561046957600080fd5b505af115801561047d573d6000803e3d6000fd5b5050600054604051637152429d60e11b81526001600160a01b03909116925063e2a4853a91506104d4907f2525592601ae3358ed5bbf5b14ec0d39b8993fac37ba200407ee9fffb79d96e990604b9060040161400c565b600060405180830381600087803b1580156104ee57600080fd5b505af1158015610502573d6000803e3d6000fd5b5050600054604051637152429d60e11b81526001600160a01b03909116925063e2a4853a9150610559907fdb7cce32c36ebbf33010d0a69fb49414335985911db59affa9e94d7357368bae90604c9060040161400c565b600060405180830381600087803b15801561057357600080fd5b505af1158015610587573d6000803e3d6000fd5b5050600054604051637152429d60e11b81526001600160a01b03909116925063e2a4853a91506105de907f7bf01cb15a59e063f3eac62eff1493ac6f4e839875e61cfcb654e335ab6e7c259060969060040161400c565b600060405180830381600087803b1580156105f857600080fd5b505af115801561060c573d6000803e3d6000fd5b5050600054604051637152429d60e11b81526001600160a01b03909116925063e2a4853a9150610663907f388c7bc6753770118791c108588b5ba0410e03bdd02b5e38dc151051b0b39a129060979060040161400c565b600060405180830381600087803b15801561067d57600080fd5b505af1158015610691573d6000803e3d6000fd5b5050600054604051637152429d60e11b81526001600160a01b03909116925063e2a4853a91506106e9907f37f2e32d4052beef4867a79d9cd15f1d7ed4b7e51d115152e8f908ab08511874906101909060040161400c565b600060405180830381600087803b15801561070357600080fd5b505af1158015610717573d6000803e3d6000fd5b5050600054604051637152429d60e11b81526001600160a01b03909116925063e2a4853a915061076f907f4597b5a2a9bfa48c892467f16be44b1e6b66d00ca454c2142805a9d55634eadf906101919060040161400c565b600060405180830381600087803b15801561078957600080fd5b505af115801561079d573d6000803e3d6000fd5b5050600054604051637152429d60e11b81526001600160a01b03909116925063e2a4853a91506107f5907fd0485672ccf51f188e45c54510fcfdf8e00bbfc4b1460ada4cce1823520709b3906103e89060040161400c565b600060405180830381600087803b15801561080f57600080fd5b505af1158015610823573d6000803e3d6000fd5b505060005460405163e74730a160e01b81526001600160a01b03909116925063e74730a1915061087a907f7b7d103438c107d32fcce1aa1f42631aff83333d813cb27d5208e2ddbfcc6ff590600190600401614020565b600060405180830381600087803b15801561089457600080fd5b505af11580156108a8573d6000803e3d6000fd5b505060005460405163e74730a160e01b81526001600160a01b03909116925063e74730a191506108ff907f6cb92777a70ecc58a97ff96966e61de7e3e0f9789f5c3532c90cbe9ed0b5444290600190600401614020565b600060405180830381600087803b15801561091957600080fd5b505af115801561092d573d6000803e3d6000fd5b505060005460405163e74730a160e01b81526001600160a01b03909116925063e74730a19150610984907f9dc62754f894cfaffb1f85e932d98591d9eb0265940f047426856701d413a18e90600790600401614020565b600060405180830381600087803b15801561099e57600080fd5b505af11580156109b2573d6000803e3d6000fd5b5050600054604051637152429d60e11b81526001600160a01b03909116925063e2a4853a9150610a09907f25223b82574d4b98b8148758cc271b44bffc984bf0c92aa93a30fde69aab092a90602a9060040161400c565b600060405180830381600087803b158015610a2357600080fd5b505af1158015610a37573d6000803e3d6000fd5b505060005460405163e74730a160e01b81526001600160a01b03909116925063e74730a19150610a8d907f4175a586b1fa8cdac8da5fab8f99d482d2ecfc625ee9fbc857d4553f5bf44c0b906004908101614020565b600060405180830381600087803b158015610aa757600080fd5b505af1158015610abb573d6000803e3d6000fd5b505060005460405163e74730a160e01b81526001600160a01b03909116925063e74730a19150610b12907f14c0a373bd35608e71a9c0509f6206be411544d146ff38c0c5efdc8f8ad3cfc290600890600401614020565b600060405180830381600087803b158015610b2c57600080fd5b505af1158015610b40573d6000803e3d6000fd5b505060005460405163e74730a160e01b81526001600160a01b03909116925063e74730a19150610b97907f8d2fc980de9768b7cd79768c0b3a4d75aa58c665c84514555b6363074ea6222090601590600401614020565b600060405180830381600087803b158015610bb157600080fd5b505af1158015610bc5573d6000803e3d6000fd5b5050600054604051637152429d60e11b81526001600160a01b03909116925063e2a4853a9150610c1d907fd1eb6e753d94694a2876ac3d785523e6a3e176b977dd574ef44c37dcea8588b89061271090600401613ffe565b600060405180830381600087803b158015610c3757600080fd5b505af1158015610c4b573d6000803e3d6000fd5b50506000546040516001600160a01b03909116925063e74730a19150610c7690600290602001613f94565b6040516020818303038152906040528051906020012060096040518363ffffffff1660e01b8152600401610cab929190614020565b600060405180830381600087803b158015610cc557600080fd5b505af1158015610cd9573d6000803e3d6000fd5b5050600080546040516001600160a01b03909116935063e74730a19250610d039190602001613f94565b60405160208183030381529060405280519060200120600a6040518363ffffffff1660e01b8152600401610d38929190614020565b600060405180830381600087803b158015610d5257600080fd5b505af1158015610d66573d6000803e3d6000fd5b50506000546040516001600160a01b03909116925063e74730a19150610d9190600190602001613f94565b60405160208183030381529060405280519060200120600f6040518363ffffffff1660e01b8152600401610dc6929190614020565b600060405180830381600087803b158015610de057600080fd5b505af1158015610df4573d6000803e3d6000fd5b50506000546040516001600160a01b03909116925063e74730a19150610e1f90600390602001613f94565b6040516020818303038152906040528051906020012060026040518363ffffffff1660e01b8152600401610e54929190614020565b600060405180830381600087803b158015610e6e57600080fd5b505af1158015610e82573d6000803e3d6000fd5b50506000546040516001600160a01b03909116925063e74730a19150610ead90600490602001613f94565b6040516020818303038152906040528051906020012060016040518363ffffffff1660e01b8152600401610ee2929190614020565b600060405180830381600087803b158015610efc57600080fd5b505af1158015610f10573d6000803e3d6000fd5b50506000546040516001600160a01b03909116925063e74730a19150610f3b90600590602001613f94565b6040516020818303038152906040528051906020012060016040518363ffffffff1660e01b8152600401610f70929190614020565b600060405180830381600087803b158015610f8a57600080fd5b505af1158015610f9e573d6000803e3d6000fd5b50506000546040516001600160a01b03909116925063e74730a19150610fc990600690602001613f94565b6040516020818303038152906040528051906020012060016040518363ffffffff1660e01b8152600401610ffe929190614020565b600060405180830381600087803b15801561101857600080fd5b505af115801561102c573d6000803e3d6000fd5b50506000546040516001600160a01b03909116925063e74730a1915061105790600790602001613f94565b6040516020818303038152906040528051906020012060026040518363ffffffff1660e01b815260040161108c929190614020565b600060405180830381600087803b1580156110a657600080fd5b505af11580156110ba573d6000803e3d6000fd5b50506000546040516001600160a01b03909116925063e74730a191506110e590600890602001613f94565b6040516020818303038152906040528051906020012060016040518363ffffffff1660e01b815260040161111a929190614020565b600060405180830381600087803b15801561113457600080fd5b505af1158015611148573d6000803e3d6000fd5b50506000546040516001600160a01b03909116925063e74730a1915061117390600990602001613f94565b6040516020818303038152906040528051906020012060026040518363ffffffff1660e01b81526004016111a8929190614020565b600060405180830381600087803b1580156111c257600080fd5b505af11580156111d6573d6000803e3d6000fd5b50506000546040516001600160a01b03909116925063e74730a1915061120190600a90602001613f94565b6040516020818303038152906040528051906020012060036040518363ffffffff1660e01b8152600401611236929190614020565b600060405180830381600087803b15801561125057600080fd5b505af1158015611264573d6000803e3d6000fd5b50506000546040516001600160a01b03909116925063e74730a1915061128f90600b90602001613f94565b60405160208183030381529060405280519060200120600c6040518363ffffffff1660e01b81526004016112c4929190614020565b600060405180830381600087803b1580156112de57600080fd5b505af11580156112f2573d6000803e3d6000fd5b50506000546040516001600160a01b03909116925063e74730a1915061131d90600c90602001613f94565b60405160208183030381529060405280519060200120600d6040518363ffffffff1660e01b8152600401611352929190614020565b600060405180830381600087803b15801561136c57600080fd5b505af1158015611380573d6000803e3d6000fd5b50506000546040516001600160a01b03909116925063e74730a191506113ab90600d90602001613f94565b60405160208183030381529060405280519060200120600a6040518363ffffffff1660e01b81526004016113e0929190614020565b600060405180830381600087803b1580156113fa57600080fd5b505af115801561140e573d6000803e3d6000fd5b50506000546040516001600160a01b03909116925063e74730a1915061143990600e90602001613f94565b6040516020818303038152906040528051906020012060036040518363ffffffff1660e01b815260040161146e929190614020565b600060405180830381600087803b15801561148857600080fd5b505af115801561149c573d6000803e3d6000fd5b50506000546040516001600160a01b03909116925063e74730a191506114c790600f90602001613f94565b6040516020818303038152906040528051906020012060016040518363ffffffff1660e01b81526004016114fc929190614020565b600060405180830381600087803b15801561151657600080fd5b505af115801561152a573d6000803e3d6000fd5b50506000546040516001600160a01b03909116925063e74730a1915061155590601090602001613f94565b6040516020818303038152906040528051906020012060016040518363ffffffff1660e01b815260040161158a929190614020565b600060405180830381600087803b1580156115a457600080fd5b505af11580156115b8573d6000803e3d6000fd5b50506000546040516001600160a01b03909116925063e74730a191506115e390601190602001613f94565b6040516020818303038152906040528051906020012060026040518363ffffffff1660e01b8152600401611618929190614020565b600060405180830381600087803b15801561163257600080fd5b505af1158015611646573d6000803e3d6000fd5b50506000546040516001600160a01b03909116925063e74730a1915061167190601290602001613f94565b6040516020818303038152906040528051906020012060036040518363ffffffff1660e01b81526004016116a6929190614020565b600060405180830381600087803b1580156116c057600080fd5b505af11580156116d4573d6000803e3d6000fd5b50506000546040516001600160a01b03909116925063e74730a191506116ff90601390602001613f94565b6040516020818303038152906040528051906020012060026040518363ffffffff1660e01b8152600401611734929190614020565b600060405180830381600087803b15801561174e57600080fd5b505af1158015611762573d6000803e3d6000fd5b50506000546040516001600160a01b03909116925063e74730a1915061178d90601490602001613f94565b6040516020818303038152906040528051906020012060036040518363ffffffff1660e01b81526004016117c2929190614020565b600060405180830381600087803b1580156117dc57600080fd5b505af11580156117f0573d6000803e3d6000fd5b50506000546040516001600160a01b03909116925063e74730a1915061181b90601590602001613f94565b6040516020818303038152906040528051906020012060046040518363ffffffff1660e01b8152600401611850929190614020565b600060405180830381600087803b15801561186a57600080fd5b505af115801561187e573d6000803e3d6000fd5b50506000546040516001600160a01b03909116925063e74730a191506118a990600290602001613f94565b6040516020818303038152906040528051906020012060096040518363ffffffff1660e01b81526004016118de929190614020565b600060405180830381600087803b1580156118f857600080fd5b505af115801561190c573d6000803e3d6000fd5b50506000546040516001600160a01b03909116925063e74730a1915061193790601790602001613f94565b60405160208183030381529060405280519060200120600f6040518363ffffffff1660e01b815260040161196c929190614020565b600060405180830381600087803b15801561198657600080fd5b505af115801561199a573d6000803e3d6000fd5b50506000546040516001600160a01b03909116925063e74730a191506119c590601890602001613f94565b6040516020818303038152906040528051906020012060146040518363ffffffff1660e01b81526004016119fa929190614020565b600060405180830381600087803b158015611a1457600080fd5b505af1158015611a28573d6000803e3d6000fd5b50506000546040516001600160a01b03909116925063e74730a19150611a5390601990602001613f94565b6040516020818303038152906040528051906020012060056040518363ffffffff1660e01b8152600401611a88929190614020565b600060405180830381600087803b158015611aa257600080fd5b505af1158015611ab6573d6000803e3d6000fd5b50506000546040516001600160a01b03909116925063e74730a19150611ae190601a90602001613f94565b6040516020818303038152906040528051906020012060026040518363ffffffff1660e01b8152600401611b16929190614020565b600060405180830381600087803b158015611b3057600080fd5b505af1158015611b44573d6000803e3d6000fd5b50506000546040516001600160a01b03909116925063e74730a19150611b6f90601b90602001613f94565b6040516020818303038152906040528051906020012060026040518363ffffffff1660e01b8152600401611ba4929190614020565b600060405180830381600087803b158015611bbe57600080fd5b505af1158015611bd2573d6000803e3d6000fd5b50506000546040516001600160a01b03909116925063e74730a19150611bfd90601c90602001613f94565b6040516020818303038152906040528051906020012060036040518363ffffffff1660e01b8152600401611c32929190614020565b600060405180830381600087803b158015611c4c57600080fd5b505af1158015611c60573d6000803e3d6000fd5b50506000546040516001600160a01b03909116925063e74730a19150611c8b90601d90602001613f94565b6040516020818303038152906040528051906020012060046040518363ffffffff1660e01b8152600401611cc0929190614020565b600060405180830381600087803b158015611cda57600080fd5b505af1158015611cee573d6000803e3d6000fd5b50506000546040516001600160a01b03909116925063e74730a19150611d1990601e90602001613f94565b6040516020818303038152906040528051906020012060056040518363ffffffff1660e01b8152600401611d4e929190614020565b600060405180830381600087803b158015611d6857600080fd5b505af1158015611d7c573d6000803e3d6000fd5b50506000546040516001600160a01b03909116925063e74730a19150611da790601f90602001613f94565b6040516020818303038152906040528051906020012060066040518363ffffffff1660e01b8152600401611ddc929190614020565b600060405180830381600087803b158015611df657600080fd5b505af1158015611e0a573d6000803e3d6000fd5b50506000546040516001600160a01b03909116925063e74730a19150611e34906020908101613f94565b6040516020818303038152906040528051906020012060076040518363ffffffff1660e01b8152600401611e69929190614020565b600060405180830381600087803b158015611e8357600080fd5b505af1158015611e97573d6000803e3d6000fd5b50506000546040516001600160a01b03909116925063e74730a19150611ec290602190602001613f94565b6040516020818303038152906040528051906020012060146040518363ffffffff1660e01b8152600401611ef7929190614020565b600060405180830381600087803b158015611f1157600080fd5b505af1158015611f25573d6000803e3d6000fd5b50506000546040516001600160a01b03909116925063e74730a19150611f5090602290602001613f94565b6040516020818303038152906040528051906020012060156040518363ffffffff1660e01b8152600401611f85929190614020565b600060405180830381600087803b158015611f9f57600080fd5b505af1158015611fb3573d6000803e3d6000fd5b50506000546040516001600160a01b03909116925063e74730a19150611fde90602390602001613f94565b60405160208183030381529060405280519060200120601e6040518363ffffffff1660e01b8152600401612013929190614020565b600060405180830381600087803b15801561202d57600080fd5b505af1158015612041573d6000803e3d6000fd5b50506000546040516001600160a01b03909116925063e74730a1915061206c90602490602001613f94565b60405160208183030381529060405280519060200120600a6040518363ffffffff1660e01b81526004016120a1929190614020565b600060405180830381600087803b1580156120bb57600080fd5b505af11580156120cf573d6000803e3d6000fd5b50506000546040516001600160a01b03909116925063e74730a191506120fa90602590602001613f94565b6040516020818303038152906040528051906020012060056040518363ffffffff1660e01b815260040161212f929190614020565b600060405180830381600087803b15801561214957600080fd5b505af115801561215d573d6000803e3d6000fd5b50506000546040516001600160a01b03909116925063e74730a1915061218890602690602001613f94565b6040516020818303038152906040528051906020012060056040518363ffffffff1660e01b81526004016121bd929190614020565b600060405180830381600087803b1580156121d757600080fd5b505af11580156121eb573d6000803e3d6000fd5b50506000546040516001600160a01b03909116925063e74730a1915061221690602790602001613f94565b6040516020818303038152906040528051906020012060066040518363ffffffff1660e01b815260040161224b929190614020565b600060405180830381600087803b15801561226557600080fd5b505af1158015612279573d6000803e3d6000fd5b50506000546040516001600160a01b03909116925063e74730a191506122a490602890602001613f94565b6040516020818303038152906040528051906020012060076040518363ffffffff1660e01b81526004016122d9929190614020565b600060405180830381600087803b1580156122f357600080fd5b505af1158015612307573d6000803e3d6000fd5b50506000546040516001600160a01b03909116925063e74730a1915061233290602990602001613f94565b6040516020818303038152906040528051906020012060086040518363ffffffff1660e01b8152600401612367929190614020565b600060405180830381600087803b15801561238157600080fd5b505af1158015612395573d6000803e3d6000fd5b50506000546040516001600160a01b03909116925063e74730a191506123c090602a90602001613f94565b6040516020818303038152906040528051906020012060096040518363ffffffff1660e01b81526004016123f5929190614020565b600060405180830381600087803b15801561240f57600080fd5b505af1158015612423573d6000803e3d6000fd5b50506000546040516001600160a01b03909116925063e74730a1915061244e90602b90602001613f94565b60405160208183030381529060405280519060200120600a6040518363ffffffff1660e01b8152600401612483929190614020565b600060405180830381600087803b15801561249d57600080fd5b505af11580156124b1573d6000803e3d6000fd5b50506000546040516001600160a01b03909116925063e74730a191506124dc90600290602001613fc8565b6040516020818303038152906040528051906020012060096040518363ffffffff1660e01b8152600401612511929190614020565b600060405180830381600087803b15801561252b57600080fd5b505af115801561253f573d6000803e3d6000fd5b5050600080546040516001600160a01b03909116935063e74730a192506125699190602001613fc8565b60405160208183030381529060405280519060200120600a6040518363ffffffff1660e01b815260040161259e929190614020565b600060405180830381600087803b1580156125b857600080fd5b505af11580156125cc573d6000803e3d6000fd5b50506000546040516001600160a01b03909116925063e74730a191506125f790600190602001613fc8565b60405160208183030381529060405280519060200120600f6040518363ffffffff1660e01b815260040161262c929190614020565b600060405180830381600087803b15801561264657600080fd5b505af115801561265a573d6000803e3d6000fd5b50506000546040516001600160a01b03909116925063e74730a1915061268590600390602001613fc8565b6040516020818303038152906040528051906020012060026040518363ffffffff1660e01b81526004016126ba929190614020565b600060405180830381600087803b1580156126d457600080fd5b505af11580156126e8573d6000803e3d6000fd5b50506000546040516001600160a01b03909116925063e74730a1915061271390600490602001613fc8565b6040516020818303038152906040528051906020012060016040518363ffffffff1660e01b8152600401612748929190614020565b600060405180830381600087803b15801561276257600080fd5b505af1158015612776573d6000803e3d6000fd5b50506000546040516001600160a01b03909116925063e74730a191506127a190600590602001613fc8565b6040516020818303038152906040528051906020012060016040518363ffffffff1660e01b81526004016127d6929190614020565b600060405180830381600087803b1580156127f057600080fd5b505af1158015612804573d6000803e3d6000fd5b50506000546040516001600160a01b03909116925063e74730a1915061282f90600690602001613fc8565b6040516020818303038152906040528051906020012060016040518363ffffffff1660e01b8152600401612864929190614020565b600060405180830381600087803b15801561287e57600080fd5b505af1158015612892573d6000803e3d6000fd5b50506000546040516001600160a01b03909116925063e74730a191506128bd90600790602001613fc8565b6040516020818303038152906040528051906020012060026040518363ffffffff1660e01b81526004016128f2929190614020565b600060405180830381600087803b15801561290c57600080fd5b505af1158015612920573d6000803e3d6000fd5b50506000546040516001600160a01b03909116925063e74730a1915061294b90600890602001613fc8565b6040516020818303038152906040528051906020012060016040518363ffffffff1660e01b8152600401612980929190614020565b600060405180830381600087803b15801561299a57600080fd5b505af11580156129ae573d6000803e3d6000fd5b50506000546040516001600160a01b03909116925063e74730a191506129d990600990602001613fc8565b6040516020818303038152906040528051906020012060026040518363ffffffff1660e01b8152600401612a0e929190614020565b600060405180830381600087803b158015612a2857600080fd5b505af1158015612a3c573d6000803e3d6000fd5b50506000546040516001600160a01b03909116925063e74730a19150612a6790600a90602001613fc8565b6040516020818303038152906040528051906020012060036040518363ffffffff1660e01b8152600401612a9c929190614020565b600060405180830381600087803b158015612ab657600080fd5b505af1158015612aca573d6000803e3d6000fd5b50506000546040516001600160a01b03909116925063e74730a19150612af590600b90602001613fc8565b60405160208183030381529060405280519060200120600c6040518363ffffffff1660e01b8152600401612b2a929190614020565b600060405180830381600087803b158015612b4457600080fd5b505af1158015612b58573d6000803e3d6000fd5b50506000546040516001600160a01b03909116925063e74730a19150612b8390600c90602001613fc8565b60405160208183030381529060405280519060200120600d6040518363ffffffff1660e01b8152600401612bb8929190614020565b600060405180830381600087803b158015612bd257600080fd5b505af1158015612be6573d6000803e3d6000fd5b50506000546040516001600160a01b03909116925063e74730a19150612c1190600d90602001613fc8565b60405160208183030381529060405280519060200120600a6040518363ffffffff1660e01b8152600401612c46929190614020565b600060405180830381600087803b158015612c6057600080fd5b505af1158015612c74573d6000803e3d6000fd5b50506000546040516001600160a01b03909116925063e74730a19150612c9f90600e90602001613fc8565b6040516020818303038152906040528051906020012060036040518363ffffffff1660e01b8152600401612cd4929190614020565b600060405180830381600087803b158015612cee57600080fd5b505af1158015612d02573d6000803e3d6000fd5b50506000546040516001600160a01b03909116925063e74730a19150612d2d90600f90602001613fc8565b6040516020818303038152906040528051906020012060016040518363ffffffff1660e01b8152600401612d62929190614020565b600060405180830381600087803b158015612d7c57600080fd5b505af1158015612d90573d6000803e3d6000fd5b50506000546040516001600160a01b03909116925063e74730a19150612dbb90601090602001613fc8565b6040516020818303038152906040528051906020012060016040518363ffffffff1660e01b8152600401612df0929190614020565b600060405180830381600087803b158015612e0a57600080fd5b505af1158015612e1e573d6000803e3d6000fd5b50506000546040516001600160a01b03909116925063e74730a19150612e4990601190602001613fc8565b6040516020818303038152906040528051906020012060026040518363ffffffff1660e01b8152600401612e7e929190614020565b600060405180830381600087803b158015612e9857600080fd5b505af1158015612eac573d6000803e3d6000fd5b50506000546040516001600160a01b03909116925063e74730a19150612ed790601290602001613fc8565b6040516020818303038152906040528051906020012060036040518363ffffffff1660e01b8152600401612f0c929190614020565b600060405180830381600087803b158015612f2657600080fd5b505af1158015612f3a573d6000803e3d6000fd5b50506000546040516001600160a01b03909116925063e74730a19150612f6590601390602001613fc8565b6040516020818303038152906040528051906020012060026040518363ffffffff1660e01b8152600401612f9a929190614020565b600060405180830381600087803b158015612fb457600080fd5b505af1158015612fc8573d6000803e3d6000fd5b50506000546040516001600160a01b03909116925063e74730a19150612ff390601490602001613fc8565b6040516020818303038152906040528051906020012060036040518363ffffffff1660e01b8152600401613028929190614020565b600060405180830381600087803b15801561304257600080fd5b505af1158015613056573d6000803e3d6000fd5b50506000546040516001600160a01b03909116925063e74730a1915061308190601590602001613fc8565b6040516020818303038152906040528051906020012060046040518363ffffffff1660e01b81526004016130b6929190614020565b600060405180830381600087803b1580156130d057600080fd5b505af11580156130e4573d6000803e3d6000fd5b50506000546040516001600160a01b03909116925063e74730a1915061310f90600290602001613fc8565b6040516020818303038152906040528051906020012060096040518363ffffffff1660e01b8152600401613144929190614020565b600060405180830381600087803b15801561315e57600080fd5b505af1158015613172573d6000803e3d6000fd5b50506000546040516001600160a01b03909116925063e74730a1915061319d90601790602001613fc8565b60405160208183030381529060405280519060200120600f6040518363ffffffff1660e01b81526004016131d2929190614020565b600060405180830381600087803b1580156131ec57600080fd5b505af1158015613200573d6000803e3d6000fd5b50506000546040516001600160a01b03909116925063e74730a1915061322b90601890602001613fc8565b6040516020818303038152906040528051906020012060146040518363ffffffff1660e01b8152600401613260929190614020565b600060405180830381600087803b15801561327a57600080fd5b505af115801561328e573d6000803e3d6000fd5b50506000546040516001600160a01b03909116925063e74730a191506132b990601990602001613fc8565b6040516020818303038152906040528051906020012060056040518363ffffffff1660e01b81526004016132ee929190614020565b600060405180830381600087803b15801561330857600080fd5b505af115801561331c573d6000803e3d6000fd5b50506000546040516001600160a01b03909116925063e74730a1915061334790601a90602001613fc8565b6040516020818303038152906040528051906020012060026040518363ffffffff1660e01b815260040161337c929190614020565b600060405180830381600087803b15801561339657600080fd5b505af11580156133aa573d6000803e3d6000fd5b50506000546040516001600160a01b03909116925063e74730a191506133d590601b90602001613fc8565b6040516020818303038152906040528051906020012060026040518363ffffffff1660e01b815260040161340a929190614020565b600060405180830381600087803b15801561342457600080fd5b505af1158015613438573d6000803e3d6000fd5b50506000546040516001600160a01b03909116925063e74730a1915061346390601c90602001613fc8565b6040516020818303038152906040528051906020012060036040518363ffffffff1660e01b8152600401613498929190614020565b600060405180830381600087803b1580156134b257600080fd5b505af11580156134c6573d6000803e3d6000fd5b50506000546040516001600160a01b03909116925063e74730a191506134f190601d90602001613fc8565b6040516020818303038152906040528051906020012060046040518363ffffffff1660e01b8152600401613526929190614020565b600060405180830381600087803b15801561354057600080fd5b505af1158015613554573d6000803e3d6000fd5b50506000546040516001600160a01b03909116925063e74730a1915061357f90601e90602001613fc8565b6040516020818303038152906040528051906020012060056040518363ffffffff1660e01b81526004016135b4929190614020565b600060405180830381600087803b1580156135ce57600080fd5b505af11580156135e2573d6000803e3d6000fd5b50506000546040516001600160a01b03909116925063e74730a1915061360d90601f90602001613fc8565b6040516020818303038152906040528051906020012060066040518363ffffffff1660e01b8152600401613642929190614020565b600060405180830381600087803b15801561365c57600080fd5b505af1158015613670573d6000803e3d6000fd5b50506000546040516001600160a01b03909116925063e74730a1915061369a906020908101613fc8565b6040516020818303038152906040528051906020012060076040518363ffffffff1660e01b81526004016136cf929190614020565b600060405180830381600087803b1580156136e957600080fd5b505af11580156136fd573d6000803e3d6000fd5b50506000546040516001600160a01b03909116925063e74730a1915061372890602190602001613fc8565b6040516020818303038152906040528051906020012060146040518363ffffffff1660e01b815260040161375d929190614020565b600060405180830381600087803b15801561377757600080fd5b505af115801561378b573d6000803e3d6000fd5b50506000546040516001600160a01b03909116925063e74730a191506137b690602290602001613fc8565b6040516020818303038152906040528051906020012060156040518363ffffffff1660e01b81526004016137eb929190614020565b600060405180830381600087803b15801561380557600080fd5b505af1158015613819573d6000803e3d6000fd5b50506000546040516001600160a01b03909116925063e74730a1915061384490602390602001613fc8565b60405160208183030381529060405280519060200120601e6040518363ffffffff1660e01b8152600401613879929190614020565b600060405180830381600087803b15801561389357600080fd5b505af11580156138a7573d6000803e3d6000fd5b50506000546040516001600160a01b03909116925063e74730a191506138d290602490602001613fc8565b60405160208183030381529060405280519060200120600a6040518363ffffffff1660e01b8152600401613907929190614020565b600060405180830381600087803b15801561392157600080fd5b505af1158015613935573d6000803e3d6000fd5b50506000546040516001600160a01b03909116925063e74730a1915061396090602590602001613fc8565b6040516020818303038152906040528051906020012060056040518363ffffffff1660e01b8152600401613995929190614020565b600060405180830381600087803b1580156139af57600080fd5b505af11580156139c3573d6000803e3d6000fd5b50506000546040516001600160a01b03909116925063e74730a191506139ee90602690602001613fc8565b6040516020818303038152906040528051906020012060056040518363ffffffff1660e01b8152600401613a23929190614020565b600060405180830381600087803b158015613a3d57600080fd5b505af1158015613a51573d6000803e3d6000fd5b50506000546040516001600160a01b03909116925063e74730a19150613a7c90602790602001613fc8565b6040516020818303038152906040528051906020012060066040518363ffffffff1660e01b8152600401613ab1929190614020565b600060405180830381600087803b158015613acb57600080fd5b505af1158015613adf573d6000803e3d6000fd5b50506000546040516001600160a01b03909116925063e74730a19150613b0a90602890602001613fc8565b6040516020818303038152906040528051906020012060076040518363ffffffff1660e01b8152600401613b3f929190614020565b600060405180830381600087803b158015613b5957600080fd5b505af1158015613b6d573d6000803e3d6000fd5b50506000546040516001600160a01b03909116925063e74730a19150613b9890602990602001613fc8565b6040516020818303038152906040528051906020012060086040518363ffffffff1660e01b8152600401613bcd929190614020565b600060405180830381600087803b158015613be757600080fd5b505af1158015613bfb573d6000803e3d6000fd5b50506000546040516001600160a01b03909116925063e74730a19150613c2690602a90602001613fc8565b6040516020818303038152906040528051906020012060096040518363ffffffff1660e01b8152600401613c5b929190614020565b600060405180830381600087803b158015613c7557600080fd5b505af1158015613c89573d6000803e3d6000fd5b50506000546040516001600160a01b03909116925063e74730a19150613cb490602b90602001613fc8565b60405160208183030381529060405280519060200120600a6040518363ffffffff1660e01b8152600401613ce9929190614020565b600060405180830381600087803b158015613d0357600080fd5b505af1158015613d17573d6000803e3d6000fd5b50505050565b63bc197c8160e01b95945050505050565b63f23a6e6160e01b95945050505050565b80356001600160a01b0381168114613d5657600080fd5b92915050565b600082601f830112613d6c578081fd5b813567ffffffffffffffff811115613d82578182fd5b6020808202613d92828201614046565b83815293508184018583018287018401881015613dae57600080fd5b600092505b84831015613dd1578035825260019290920191908301908301613db3565b505050505092915050565b600082601f830112613dec578081fd5b813567ffffffffffffffff811115613e02578182fd5b613e15601f8201601f1916602001614046565b9150808252836020828501011115613e2c57600080fd5b8060208401602084013760009082016020015292915050565b600080600080600060a08688031215613e5c578081fd5b8535613e678161406d565b94506020860135613e778161406d565b9350604086013567ffffffffffffffff80821115613e93578283fd5b613e9f89838a01613d5c565b94506060880135915080821115613eb4578283fd5b613ec089838a01613d5c565b93506080880135915080821115613ed5578283fd5b50613ee288828901613ddc565b9150509295509295909350565b600080600080600060a08688031215613f06578081fd5b613f108787613d3f565b9450613f1f8760208801613d3f565b93506040860135925060608601359150608086013567ffffffffffffffff811115613f48578182fd5b613ee288828901613ddc565b600060208284031215613f65578081fd5b81356001600160e01b031981168114613f7c578182fd5b9392505050565b602e8110613f8d57fe5b60f81b9052565b600075636f6e7374616e74732e736174732e6f6666656e736560501b8252613fbf6016830184613f83565b50601701919050565b600075636f6e7374616e74732e736174732e646566656e736560501b8252613fbf6016830184613f83565b901515815260200190565b918252602082015260400190565b91825263ffffffff16602082015260400190565b91825260ff16602082015260400190565b6001600160e01b031991909116815260200190565b60405181810167ffffffffffffffff8111828210171561406557600080fd5b604052919050565b6001600160a01b038116811461408257600080fd5b5056fea264697066735822122036c614675c9117855fd177c867ee74acfcc7b89fe7f95fc6e39eea4c97a46c4864736f6c634300060c0033",
  "immutableReferences": {},
  "source": "// SPDX-License-Identifier: MIT\n\npragma solidity 0.6.12;\npragma experimental ABIEncoderV2;\n\nimport {Constants} from './Constants.sol';\nimport {\n    ERC1155Holder\n} from '@openzeppelin/contracts/token/ERC1155/ERC1155Holder.sol';\n\ncontract Master is Constants, ERC1155Holder {\n    constructor(address _es) public Constants(_es) {}\n}\n",
  "sourcePath": "C:/Users/James/projects/tsuno-fe/contracts/Master.sol",
  "compiler": {
    "name": "solc",
    "version": "0.6.12+commit.27d51765.Emscripten.clang"
  },
  "schemaVersion": "3.2.5",
  "updatedAt": "2020-10-04T21:25:02.646Z",
  "networkType": "ethereum",
  "devdoc": {
    "kind": "dev",
    "methods": {
      "supportsInterface(bytes4)": {
        "details": "See {IERC165-supportsInterface}. Time complexity O(1), guaranteed to always use less than 30 000 gas."
      }
    },
    "version": 1
  },
  "userdoc": {
    "kind": "user",
    "methods": {},
    "version": 1
  }
}