{
  "contractName": "Master",
  "abi": [
    {
      "inputs": [
        {
          "internalType": "address",
          "name": "_tsuno",
          "type": "address"
        },
        {
          "internalType": "address",
          "name": "_solar",
          "type": "address"
        },
        {
          "internalType": "address",
          "name": "_sat",
          "type": "address"
        }
      ],
      "stateMutability": "nonpayable",
      "type": "constructor"
    },
    {
      "inputs": [
        {
          "internalType": "uint256",
          "name": "amount",
          "type": "uint256"
        },
        {
          "internalType": "uint256",
          "name": "length",
          "type": "uint256"
        }
      ],
      "name": "deposit",
      "outputs": [],
      "stateMutability": "nonpayable",
      "type": "function"
    },
    {
      "inputs": [],
      "name": "emergencyWithdraw",
      "outputs": [],
      "stateMutability": "nonpayable",
      "type": "function"
    },
    {
      "inputs": [],
      "name": "getBalance",
      "outputs": [
        {
          "internalType": "uint256",
          "name": "",
          "type": "uint256"
        }
      ],
      "stateMutability": "view",
      "type": "function"
    },
    {
      "inputs": [],
      "name": "getDateUnlocked",
      "outputs": [
        {
          "internalType": "uint256",
          "name": "",
          "type": "uint256"
        }
      ],
      "stateMutability": "view",
      "type": "function"
    },
    {
      "inputs": [
        {
          "internalType": "uint256",
          "name": "stakeTsuno",
          "type": "uint256"
        },
        {
          "internalType": "uint256",
          "name": "stakedDays",
          "type": "uint256"
        }
      ],
      "name": "getPotentialReward",
      "outputs": [
        {
          "internalType": "uint256",
          "name": "",
          "type": "uint256"
        }
      ],
      "stateMutability": "nonpayable",
      "type": "function"
    },
    {
      "inputs": [],
      "name": "getReward",
      "outputs": [
        {
          "internalType": "uint256",
          "name": "",
          "type": "uint256"
        }
      ],
      "stateMutability": "view",
      "type": "function"
    },
    {
      "inputs": [
        {
          "components": [
            {
              "internalType": "uint8",
              "name": "quadrant",
              "type": "uint8"
            },
            {
              "internalType": "uint8",
              "name": "distract",
              "type": "uint8"
            },
            {
              "internalType": "uint8",
              "name": "sector",
              "type": "uint8"
            },
            {
              "internalType": "uint32",
              "name": "star",
              "type": "uint32"
            }
          ],
          "internalType": "struct Types.StarPosition",
          "name": "from",
          "type": "tuple"
        },
        {
          "components": [
            {
              "internalType": "uint8",
              "name": "quadrant",
              "type": "uint8"
            },
            {
              "internalType": "uint8",
              "name": "distract",
              "type": "uint8"
            },
            {
              "internalType": "uint8",
              "name": "sector",
              "type": "uint8"
            },
            {
              "internalType": "uint32",
              "name": "star",
              "type": "uint32"
            }
          ],
          "internalType": "struct Types.StarPosition",
          "name": "to",
          "type": "tuple"
        }
      ],
      "name": "move",
      "outputs": [],
      "stateMutability": "nonpayable",
      "type": "function"
    },
    {
      "inputs": [],
      "name": "withdraw",
      "outputs": [],
      "stateMutability": "nonpayable",
      "type": "function"
    }
  ],
  "bytecode": "0x608060405234801561001057600080fd5b506040516105ea3803806105ea83398101604081905261002f91610071565b600480546001600160a01b039485166001600160a01b0319918216179091556005805493851693821693909317909255600680549190931691161790556100d5565b600080600060608486031215610085578283fd5b8351610090816100bd565b60208501519093506100a1816100bd565b60408501519092506100b2816100bd565b809150509250925092565b6001600160a01b03811681146100d257600080fd5b50565b610506806100e46000396000f3fe608060405234801561001057600080fd5b50600436106100885760003560e01c806399d7d17f1161005b57806399d7d17f146100d0578063bd358891146100d8578063db2e21bc146100eb578063e2bbb158146100f357610088565b806312065fe01461008d5780633ccfd60b146100ab5780633d18b912146100b557806382c7d557146100bd575b600080fd5b610095610106565b6040516100a29190610487565b60405180910390f35b6100b3610118565b005b610095610181565b6100956100cb366004610431565b61018e565b6100956101a3565b6100b36100e63660046103fc565b6101b0565b6100b3610220565b6100b3610101366004610431565b610258565b6000610113600033610294565b905090565b604051626fcb7160e41b815273__FundOperations________________________906306fcb7109061014f90600090600401610487565b60006040518083038186803b15801561016757600080fd5b505af415801561017b573d6000803e3d6000fd5b50505050565b60006101136000336102b0565b600061019a83836102cf565b90505b92915050565b6000610113600033610342565b60405163f5a8e92160e01b815273__GameOperations________________________9063f5a8e921906101ec9060009086908690600401610490565b60006040518083038186803b15801561020457600080fd5b505af4158015610218573d6000803e3d6000fd5b505050505050565b6040516315826da360e01b815273__FundOperations________________________906315826da39061014f90600090600401610487565b6040516339d7f36b60e21b815273__FundOperations________________________9063e75fcdac906101ec90600090869086906004016104ba565b6001600160a01b03166000908152602091909152604090205490565b6001600160a01b03166000908152602091909152604090206003015490565b60008060018311156102f55761071c8311156102ed5761071c6102f2565b600183035b90505b60006308f0d18084111561030d576308f0d18061030f565b845b90506b04d8c55aefb8c05b5c000000820261038e8202016c113a8d894022bbc4c108000000868202049695505050505050565b6001600160a01b03166000908152602091909152604090206002015490565b600060808284031215610372578081fd5b6040516080810181811067ffffffffffffffff82111715610391578283fd5b6040529050806103a184846103eb565b81526103b084602085016103eb565b60208201526103c284604085016103eb565b6040820152606083013563ffffffff811681146103de57600080fd5b6060919091015292915050565b803560ff8116811461019d57600080fd5b600080610100838503121561040f578182fd5b6104198484610361565b91506104288460808501610361565b90509250929050565b60008060408385031215610443578182fd5b50508035926020909101359150565b60ff815116825260ff602082015116602083015260ff604082015116604083015263ffffffff60608201511660608301525050565b90815260200190565b83815261012081016104a56020830185610452565b6104b260a0830184610452565b949350505050565b928352602083019190915260408201526060019056fea26469706673582212201e33437176e1d8ee6f02d6233f88b43449e89de44fb6ef1723e371d9a599dbb064736f6c634300060c0033",
  "immutableReferences": {},
  "source": "// SPDX-License-Identifier: MIT\n\npragma solidity 0.6.12;\npragma experimental ABIEncoderV2;\n\nimport {Getters} from './Getters.sol';\nimport {TsunoToken} from './TsunoToken.sol';\nimport {State} from './State.sol';\nimport {Operations} from './Operations.sol';\n\ncontract Master is State, Operations, Getters {\n    constructor(\n        address _tsuno,\n        address _solar,\n        address _sat\n    ) public {\n        g_state.tsuno = _tsuno;\n        g_state.solar = _solar;\n        g_state.sat = _sat;\n    }\n}\n",
  "sourcePath": "C:/Users/James/projects/tsuno-fe/contracts/protocol/Master.sol",
  "compiler": {
    "name": "solc",
    "version": "0.6.12+commit.27d51765.Emscripten.clang"
  },
  "schemaVersion": "3.2.5",
  "updatedAt": "2020-09-23T19:25:48.052Z",
  "devdoc": {
    "kind": "dev",
    "methods": {},
    "version": 1
  },
  "userdoc": {
    "kind": "user",
    "methods": {},
    "version": 1
  }
}