{
  "contractName": "Master",
  "abi": [
    {
      "inputs": [
        {
          "internalType": "address",
          "name": "_tsuno",
          "type": "address"
        }
      ],
      "stateMutability": "nonpayable",
      "type": "constructor"
    },
    {
      "inputs": [
        {
          "internalType": "address",
          "name": "defender",
          "type": "address"
        }
      ],
      "name": "attack",
      "outputs": [],
      "stateMutability": "nonpayable",
      "type": "function"
    },
    {
      "inputs": [
        {
          "internalType": "uint256",
          "name": "amount",
          "type": "uint256"
        },
        {
          "internalType": "uint256",
          "name": "length",
          "type": "uint256"
        }
      ],
      "name": "deposit",
      "outputs": [],
      "stateMutability": "nonpayable",
      "type": "function"
    },
    {
      "inputs": [],
      "name": "getBalance",
      "outputs": [
        {
          "internalType": "uint256",
          "name": "",
          "type": "uint256"
        }
      ],
      "stateMutability": "view",
      "type": "function"
    },
    {
      "inputs": [
        {
          "internalType": "uint256",
          "name": "stakeTsuno",
          "type": "uint256"
        },
        {
          "internalType": "uint256",
          "name": "stakedDays",
          "type": "uint256"
        }
      ],
      "name": "getPotentialReward",
      "outputs": [
        {
          "internalType": "uint256",
          "name": "",
          "type": "uint256"
        }
      ],
      "stateMutability": "nonpayable",
      "type": "function"
    },
    {
      "inputs": [],
      "name": "getReward",
      "outputs": [
        {
          "internalType": "uint256",
          "name": "",
          "type": "uint256"
        }
      ],
      "stateMutability": "view",
      "type": "function"
    },
    {
      "inputs": [],
      "name": "withdraw",
      "outputs": [],
      "stateMutability": "nonpayable",
      "type": "function"
    }
  ],
  "bytecode": "0x608060405234801561001057600080fd5b5060405161043638038061043683398101604081905261002f91610054565b600c80546001600160a01b0319166001600160a01b0392909216919091179055610082565b600060208284031215610065578081fd5b81516001600160a01b038116811461007b578182fd5b9392505050565b6103a5806100916000396000f3fe608060405234801561001057600080fd5b50600436106100625760003560e01c806312065fe0146100675780633ccfd60b146100855780633d18b9121461008f57806382c7d55714610097578063d018db3e146100aa578063e2bbb158146100bd575b600080fd5b61006f6100d0565b60405161007c9190610331565b60405180910390f35b61008d6100e2565b005b61006f61014b565b61006f6100a5366004610310565b610158565b61008d6100b83660046102e9565b61016b565b61008d6100cb366004610310565b6101da565b60006100dd60003361024a565b905090565b604051626fcb7160e41b815273__FundOperations________________________906306fcb7109061011990600090600401610331565b60006040518083038186803b15801561013157600080fd5b505af4158015610145573d6000803e3d6000fd5b50505050565b60006100dd600033610266565b60006101648383610285565b9392505050565b604051638bde9a9f60e01b815273__GameOperations________________________90638bde9a9f906101a7906000903390869060040161033a565b60006040518083038186803b1580156101bf57600080fd5b505af41580156101d3573d6000803e3d6000fd5b5050505050565b6040516339d7f36b60e21b815273__FundOperations________________________9063e75fcdac906102169060009086908690600401610359565b60006040518083038186803b15801561022e57600080fd5b505af4158015610242573d6000803e3d6000fd5b505050505050565b6001600160a01b03166000908152602091909152604090205490565b6001600160a01b03166000908152602091909152604090206003015490565b60008060018311156102ab5761071c8311156102a35761071c6102a8565b600183035b90505b60006308f0d1808411156102c3576308f0d1806102c5565b845b90506359682f00820261038e82020165013dd0571200868202049695505050505050565b6000602082840312156102fa578081fd5b81356001600160a01b0381168114610164578182fd5b60008060408385031215610322578081fd5b50508035926020909101359150565b90815260200190565b9283526001600160a01b03918216602084015216604082015260600190565b928352602083019190915260408201526060019056fea26469706673582212201c05bcd80073ddc9a8b8615f1b72c31addb1c3251ec5a408f345c6f893155d5764736f6c634300060c0033",
  "immutableReferences": {},
  "source": "// SPDX-License-Identifier: MIT\n\npragma solidity 0.6.12;\npragma experimental ABIEncoderV2;\n\nimport {Getters} from \"./Getters.sol\";\nimport {TsunoToken} from \"./TsunoToken.sol\";\nimport {State} from \"./State.sol\";\nimport {Operations} from \"./Operations.sol\";\n\ncontract Master is State, Operations, Getters {\n    constructor(address _tsuno) public {\n        g_state.tsuno = _tsuno;\n    }\n}\n",
  "sourcePath": "C:/Users/James/projects/tsuno-fe/contracts/protocol/Master.sol",
  "compiler": {
    "name": "solc",
    "version": "0.6.12+commit.27d51765.Emscripten.clang"
  },
  "schemaVersion": "3.2.5",
  "updatedAt": "2020-09-20T19:32:55.019Z",
  "networkType": "ethereum",
  "devdoc": {
    "kind": "dev",
    "methods": {},
    "version": 1
  },
  "userdoc": {
    "kind": "user",
    "methods": {},
    "version": 1
  }
}