{
  "contractName": "Operations",
  "abi": [
    {
      "inputs": [
        {
          "internalType": "uint256",
          "name": "amount",
          "type": "uint256"
        },
        {
          "internalType": "uint256",
          "name": "length",
          "type": "uint256"
        }
      ],
      "name": "deposit",
      "outputs": [],
      "stateMutability": "nonpayable",
      "type": "function"
    },
    {
      "inputs": [],
      "name": "withdraw",
      "outputs": [],
      "stateMutability": "nonpayable",
      "type": "function"
    },
    {
      "inputs": [
        {
          "internalType": "address",
          "name": "defender",
          "type": "address"
        }
      ],
      "name": "attack",
      "outputs": [],
      "stateMutability": "nonpayable",
      "type": "function"
    }
  ],
  "bytecode": "0x608060405234801561001057600080fd5b50610281806100206000396000f3fe608060405234801561001057600080fd5b50600436106100415760003560e01c80633ccfd60b14610046578063d018db3e14610050578063e2bbb15814610063575b600080fd5b61004e610076565b005b61004e61005e3660046101be565b6100df565b61004e6100713660046101ec565b61014e565b604051626fcb7160e41b815273__FundOperations________________________906306fcb710906100ad9060009060040161020d565b60006040518083038186803b1580156100c557600080fd5b505af41580156100d9573d6000803e3d6000fd5b50505050565b604051638bde9a9f60e01b815273__GameOperations________________________90638bde9a9f9061011b9060009033908690600401610216565b60006040518083038186803b15801561013357600080fd5b505af4158015610147573d6000803e3d6000fd5b5050505050565b6040516339d7f36b60e21b815273__FundOperations________________________9063e75fcdac9061018a9060009086908690600401610235565b60006040518083038186803b1580156101a257600080fd5b505af41580156101b6573d6000803e3d6000fd5b505050505050565b6000602082840312156101cf578081fd5b81356001600160a01b03811681146101e5578182fd5b9392505050565b600080604083850312156101fe578081fd5b50508035926020909101359150565b90815260200190565b9283526001600160a01b03918216602084015216604082015260600190565b928352602083019190915260408201526060019056fea2646970667358221220517365e896b2645543241161025b6c6aeee337d05b26871cbbd3ffdaf02c3b9864736f6c634300060c0033",
  "immutableReferences": {},
  "source": "// SPDX-License-Identifier: MIT\n\npragma solidity 0.6.12;\npragma experimental ABIEncoderV2;\n\nimport {FundOperations} from \"./impl/FundOperations.sol\";\nimport {GameOperations} from \"./impl/GameOperations.sol\";\nimport {State} from \"./State.sol\";\n\n/**\n * @title Operation\n * @author Big Beluga\n *\n * Primary public function for entering into the protocol\n */\ncontract Operations is State {\n    // ============ Constants ============\n\n    bytes32 constant FILE = \"Operation\";\n\n    function deposit(uint256 amount, uint256 length) public {\n        FundOperations.deposit(g_state, amount, length);\n    }\n\n    function withdraw() public {\n        FundOperations.withdraw(g_state);\n    }\n\n    function attack(address defender) public {\n        GameOperations.attack(g_state, msg.sender, defender);\n    }\n}\n",
  "sourcePath": "C:\\Users\\James\\projects\\tsuno-fe\\contracts\\protocol\\Operations.sol",
  "compiler": {
    "name": "solc",
    "version": "0.6.12+commit.27d51765.Emscripten.clang"
  },
  "schemaVersion": "3.2.5",
  "updatedAt": "2020-09-21T10:49:25.059Z",
  "devdoc": {
    "author": "Big Beluga Primary public function for entering into the protocol",
    "kind": "dev",
    "methods": {},
    "title": "Operation",
    "version": 1
  },
  "userdoc": {
    "kind": "user",
    "methods": {},
    "version": 1
  }
}