{
  "contractName": "Operations",
  "abi": [
    {
      "inputs": [
        {
          "internalType": "uint256",
          "name": "amount",
          "type": "uint256"
        },
        {
          "internalType": "uint256",
          "name": "length",
          "type": "uint256"
        }
      ],
      "name": "deposit",
      "outputs": [],
      "stateMutability": "nonpayable",
      "type": "function"
    },
    {
      "inputs": [],
      "name": "withdraw",
      "outputs": [],
      "stateMutability": "nonpayable",
      "type": "function"
    },
    {
      "inputs": [],
      "name": "emergencyWithdraw",
      "outputs": [],
      "stateMutability": "nonpayable",
      "type": "function"
    },
    {
      "inputs": [
        {
          "components": [
            {
              "internalType": "uint8",
              "name": "quadrant",
              "type": "uint8"
            },
            {
              "internalType": "uint8",
              "name": "distract",
              "type": "uint8"
            },
            {
              "internalType": "uint8",
              "name": "sector",
              "type": "uint8"
            },
            {
              "internalType": "uint32",
              "name": "star",
              "type": "uint32"
            }
          ],
          "internalType": "struct Types.StarPosition",
          "name": "from",
          "type": "tuple"
        },
        {
          "components": [
            {
              "internalType": "uint8",
              "name": "quadrant",
              "type": "uint8"
            },
            {
              "internalType": "uint8",
              "name": "distract",
              "type": "uint8"
            },
            {
              "internalType": "uint8",
              "name": "sector",
              "type": "uint8"
            },
            {
              "internalType": "uint32",
              "name": "star",
              "type": "uint32"
            }
          ],
          "internalType": "struct Types.StarPosition",
          "name": "to",
          "type": "tuple"
        }
      ],
      "name": "move",
      "outputs": [],
      "stateMutability": "nonpayable",
      "type": "function"
    }
  ],
  "bytecode": "0x608060405234801561001057600080fd5b50610381806100206000396000f3fe608060405234801561001057600080fd5b506004361061004c5760003560e01c80633ccfd60b14610051578063bd3588911461005b578063db2e21bc1461006e578063e2bbb15814610076575b600080fd5b610059610089565b005b610059610069366004610277565b6100f2565b610059610162565b6100596100843660046102ac565b61019a565b604051626fcb7160e41b815273__FundOperations________________________906306fcb710906100c090600090600401610302565b60006040518083038186803b1580156100d857600080fd5b505af41580156100ec573d6000803e3d6000fd5b50505050565b60405163f5a8e92160e01b815273__GameOperations________________________9063f5a8e9219061012e906000908690869060040161030b565b60006040518083038186803b15801561014657600080fd5b505af415801561015a573d6000803e3d6000fd5b505050505050565b6040516315826da360e01b815273__FundOperations________________________906315826da3906100c090600090600401610302565b6040516339d7f36b60e21b815273__FundOperations________________________9063e75fcdac9061012e9060009086908690600401610335565b6000608082840312156101e7578081fd5b6040516080810181811067ffffffffffffffff82111715610206578283fd5b6040529050806102168484610260565b81526102258460208501610260565b60208201526102378460408501610260565b6040820152606083013563ffffffff8116811461025357600080fd5b6060919091015292915050565b803560ff8116811461027157600080fd5b92915050565b600080610100838503121561028a578182fd5b61029484846101d6565b91506102a384608085016101d6565b90509250929050565b600080604083850312156102be578182fd5b50508035926020909101359150565b60ff815116825260ff602082015116602083015260ff604082015116604083015263ffffffff60608201511660608301525050565b90815260200190565b838152610120810161032060208301856102cd565b61032d60a08301846102cd565b949350505050565b928352602083019190915260408201526060019056fea2646970667358221220feb74d6366cc0c467f6f0aa3059261a89de0c20bf8588c8490b6e900721f81d664736f6c634300060c0033",
  "immutableReferences": {},
  "source": "// SPDX-License-Identifier: MIT\n\npragma solidity 0.6.12;\npragma experimental ABIEncoderV2;\n\nimport {FundOperations} from './impl/FundOperations.sol';\nimport {GameOperations} from './impl/GameOperations.sol';\nimport {State} from './State.sol';\nimport {Types} from './lib/Types.sol';\n\n/**\n * @title Operation\n * @author Big Beluga\n *\n * Primary public function for entering into the protocol\n */\ncontract Operations is State {\n    // ============ Constants ============\n\n    bytes32 constant FILE = 'Operation';\n\n    function deposit(uint256 amount, uint256 length) public {\n        FundOperations.deposit(g_state, amount, length);\n    }\n\n    function withdraw() public {\n        FundOperations.withdraw(g_state);\n    }\n\n    function emergencyWithdraw() public {\n        FundOperations.emergencyWithdraw(g_state);\n    }\n\n    // function attack(address defender) public {\n    //     GameOperations.attack(g_state, msg.sender, defender);\n    // }\n\n    function move(Types.StarPosition memory from, Types.StarPosition memory to)\n        public\n    {\n        GameOperations.move(g_state, from, to);\n    }\n}\n",
  "sourcePath": "C:\\Users\\James\\projects\\tsuno-fe\\contracts\\protocol\\Operations.sol",
  "compiler": {
    "name": "solc",
    "version": "0.6.12+commit.27d51765.Emscripten.clang"
  },
  "schemaVersion": "3.2.5",
  "updatedAt": "2020-09-23T19:25:48.055Z",
  "devdoc": {
    "author": "Big Beluga Primary public function for entering into the protocol",
    "kind": "dev",
    "methods": {},
    "title": "Operation",
    "version": 1
  },
  "userdoc": {
    "kind": "user",
    "methods": {},
    "version": 1
  }
}