{
  "contractName": "PlanetManager",
  "abi": [
    {
      "inputs": [
        {
          "internalType": "address",
          "name": "_planetImplementation",
          "type": "address"
        },
        {
          "internalType": "address",
          "name": "_gameOperations",
          "type": "address"
        },
        {
          "internalType": "address",
          "name": "_treasury",
          "type": "address"
        }
      ],
      "stateMutability": "nonpayable",
      "type": "constructor"
    },
    {
      "anonymous": false,
      "inputs": [
        {
          "indexed": true,
          "internalType": "address",
          "name": "previousOwner",
          "type": "address"
        },
        {
          "indexed": true,
          "internalType": "address",
          "name": "newOwner",
          "type": "address"
        }
      ],
      "name": "OwnershipTransferred",
      "type": "event"
    },
    {
      "anonymous": false,
      "inputs": [
        {
          "indexed": false,
          "internalType": "address",
          "name": "proxy",
          "type": "address"
        }
      ],
      "name": "ProxyCreated",
      "type": "event"
    },
    {
      "inputs": [],
      "name": "owner",
      "outputs": [
        {
          "internalType": "address",
          "name": "",
          "type": "address"
        }
      ],
      "stateMutability": "view",
      "type": "function",
      "constant": true
    },
    {
      "inputs": [],
      "name": "planetImplementation",
      "outputs": [
        {
          "internalType": "address",
          "name": "",
          "type": "address"
        }
      ],
      "stateMutability": "view",
      "type": "function",
      "constant": true
    },
    {
      "inputs": [],
      "name": "renounceOwnership",
      "outputs": [],
      "stateMutability": "nonpayable",
      "type": "function"
    },
    {
      "inputs": [
        {
          "internalType": "address",
          "name": "newOwner",
          "type": "address"
        }
      ],
      "name": "transferOwnership",
      "outputs": [],
      "stateMutability": "nonpayable",
      "type": "function"
    },
    {
      "inputs": [
        {
          "internalType": "address",
          "name": "_operator",
          "type": "address"
        }
      ],
      "name": "addOperator",
      "outputs": [],
      "stateMutability": "nonpayable",
      "type": "function"
    },
    {
      "inputs": [
        {
          "internalType": "uint256",
          "name": "tokenId",
          "type": "uint256"
        },
        {
          "internalType": "bytes",
          "name": "_data",
          "type": "bytes"
        }
      ],
      "name": "createPlanet",
      "outputs": [
        {
          "internalType": "address",
          "name": "",
          "type": "address"
        }
      ],
      "stateMutability": "nonpayable",
      "type": "function"
    },
    {
      "inputs": [
        {
          "internalType": "address",
          "name": "_to",
          "type": "address"
        },
        {
          "internalType": "uint256",
          "name": "_amount",
          "type": "uint256"
        }
      ],
      "name": "rewardPlanet",
      "outputs": [],
      "stateMutability": "nonpayable",
      "type": "function"
    }
  ],
  "bytecode": "0x608060405234801561001057600080fd5b5060405161093738038061093783398101604081905261002f9161012a565b60006100396100c4565b600080546001600160a01b0319166001600160a01b0383169081178255604051929350917f8be0079c531659141344cd1fd0a4f28419497f9722a3daafe3b4186f6b6457e0908290a350600180546001600160a01b038086166001600160a01b03199283161790925560028054928416929091169190911790556100bc826100c8565b5050506101c3565b3390565b6100d06100c4565b6000546001600160a01b039081169116146101065760405162461bcd60e51b81526004016100fd90610176565b60405180910390fd5b6001600160a01b03166000908152600560205260409020805460ff19166001179055565b60008060006060848603121561013e578283fd5b8351610149816101ab565b602085015190935061015a816101ab565b604085015190925061016b816101ab565b809150509250925092565b6020808252818101527f4f776e61626c653a2063616c6c6572206973206e6f7420746865206f776e6572604082015260600190565b6001600160a01b03811681146101c057600080fd5b50565b610765806101d26000396000f3fe608060405234801561001057600080fd5b506004361061007d5760003560e01c80639870d7fe1161005b5780639870d7fe146100bd578063ae138875146100d0578063b2a7cd24146100d8578063f2fde38b146100eb5761007d565b80632051525114610082578063715018a6146100ab5780638da5cb5b146100b5575b600080fd5b61009561009036600461055c565b6100fe565b6040516100a2919061063a565b60405180910390f35b6100b36101b8565b005b610095610237565b6100b36100cb366004610510565b610246565b61009561029f565b6100b36100e6366004610532565b6102ae565b6100b36100f9366004610510565b610342565b3360009081526005602052604081205460ff166101365760405162461bcd60e51b815260040161012d90610708565b60405180910390fd5b6001546040517efffc2da0b561cae30d9826d37709e9421c4725faebc226cbbb7ef5fc5e734991610172916001600160a01b039091169061063a565b60405180910390a1600154600090610193906001600160a01b0316846103f8565b6001600160a01b03811660009081526006602052604090208590559150505b92915050565b6101c06104f5565b6000546001600160a01b039081169116146101ed5760405162461bcd60e51b815260040161012d906106d3565b600080546040516001600160a01b03909116907f8be0079c531659141344cd1fd0a4f28419497f9722a3daafe3b4186f6b6457e0908390a3600080546001600160a01b0319169055565b6000546001600160a01b031690565b61024e6104f5565b6000546001600160a01b0390811691161461027b5760405162461bcd60e51b815260040161012d906106d3565b6001600160a01b03166000908152600560205260409020805460ff19166001179055565b6001546001600160a01b031681565b336000908152600660205260409020546102da5760405162461bcd60e51b815260040161012d90610667565b600254604051631f999fc960e01b81526001600160a01b0390911690631f999fc99061030c908590859060040161064e565b600060405180830381600087803b15801561032657600080fd5b505af115801561033a573d6000803e3d6000fd5b505050505050565b61034a6104f5565b6000546001600160a01b039081169116146103775760405162461bcd60e51b815260040161012d906106d3565b6001600160a01b03811661039d5760405162461bcd60e51b815260040161012d9061068d565b600080546040516001600160a01b03808516939216917f8be0079c531659141344cd1fd0a4f28419497f9722a3daafe3b4186f6b6457e091a3600080546001600160a01b0319166001600160a01b0392909216919091179055565b6000808360601b9050604051733d602d80600a3d3981f3363d3d373d3d3d363d7360601b81528160148201526e5af43d82803e903d91602b57fd5bf360881b60288201526037816000f09250507efffc2da0b561cae30d9826d37709e9421c4725faebc226cbbb7ef5fc5e734982604051610473919061063a565b60405180910390a18251156104ee576000826001600160a01b03168460405161049c9190610601565b6000604051808303816000865af19150503d80600081146104d9576040519150601f19603f3d011682016040523d82523d6000602084013e6104de565b606091505b50509050806104ec57600080fd5b505b5092915050565b3390565b80356001600160a01b03811681146101b257600080fd5b600060208284031215610521578081fd5b61052b83836104f9565b9392505050565b60008060408385031215610544578081fd5b61054e84846104f9565b946020939093013593505050565b6000806040838503121561056e578182fd5b8235915060208084013567ffffffffffffffff8082111561058d578384fd5b818601915086601f8301126105a0578384fd5b8135818111156105ae578485fd5b604051601f8201601f19168101850183811182821017156105cd578687fd5b60405281815283820185018910156105e3578586fd5b81858501868301378585838301015280955050505050509250929050565b60008251815b818110156106215760208186018101518583015201610607565b8181111561062f5782828501525b509190910192915050565b6001600160a01b0391909116815260200190565b6001600160a01b03929092168252602082015260400190565b6020808252600c908201526b4f6e6c7920706c616e65747360a01b604082015260600190565b60208082526026908201527f4f776e61626c653a206e6577206f776e657220697320746865207a65726f206160408201526564647265737360d01b606082015260800190565b6020808252818101527f4f776e61626c653a2063616c6c6572206973206e6f7420746865206f776e6572604082015260600190565b6020808252600d908201526c27b7363c9027b832b930ba37b960991b60408201526060019056fea264697066735822122047cfdcca1a30882d823316c88f2c02b4655434830be87678b2937078cabee51064736f6c634300060c0033",
  "immutableReferences": {},
  "source": "pragma solidity 0.6.12;\npragma experimental ABIEncoderV2;\nimport {Planet} from './Planet.sol';\nimport {Ownable} from '@openzeppelin/contracts/access/Ownable.sol';\nimport {ITreasury} from './interfaces/ITreasury.sol';\n\ncontract PlanetManager is Ownable {\n    address public planetImplementation;\n    ITreasury ts;\n    address private fhr;\n    address private solar;\n    mapping(address => bool) operators;\n    mapping(address => uint256) addressToTokenId;\n    event ProxyCreated(address proxy);\n\n    constructor(\n        address _planetImplementation,\n        address _gameOperations,\n        address _treasury\n    ) public {\n        planetImplementation = _planetImplementation;\n        ts = ITreasury(_treasury);\n        addOperator(_gameOperations);\n    }\n\n    function addOperator(address _operator) public onlyOwner {\n        operators[_operator] = true;\n    }\n\n    modifier onlyOperator() {\n        // Make sure the access is permitted to only contracts in our Dapp\n        require(operators[msg.sender], 'Only Operator');\n        _;\n    }\n\n    modifier onlyPlanet() {\n        require(addressToTokenId[msg.sender] != 0, 'Only planets');\n        _;\n    }\n\n    function createPlanet(uint256 tokenId, bytes memory _data)\n        public\n        onlyOperator\n        returns (address)\n    {\n        emit ProxyCreated(planetImplementation);\n        address proxy = deployMinimal(planetImplementation, _data);\n        addressToTokenId[proxy] = tokenId;\n        return proxy;\n    }\n\n    function rewardPlanet(address _to, uint256 _amount) public onlyPlanet {\n        //TODO: more security on this\n        ts.mintSolar(_to, _amount);\n    }\n\n    function deployMinimal(address _logic, bytes memory _data) internal returns (address proxy) {\n        bytes20 targetBytes = bytes20(_logic);\n        assembly {\n            let clone := mload(0x40)\n            mstore(clone, 0x3d602d80600a3d3981f3363d3d373d3d3d363d73000000000000000000000000)\n            mstore(add(clone, 0x14), targetBytes)\n            mstore(\n                add(clone, 0x28),\n                0x5af43d82803e903d91602b57fd5bf30000000000000000000000000000000000\n            )\n            proxy := create(0, clone, 0x37)\n        }\n\n        emit ProxyCreated(address(proxy));\n        if (_data.length > 0) {\n            (bool success, ) = proxy.call(_data);\n            require(success);\n        }\n    }\n}\n",
  "sourcePath": "C:\\Users\\James\\projects\\tsuno-fe\\contracts\\PlanetManager.sol",
  "compiler": {
    "name": "solc",
    "version": "0.6.12+commit.27d51765.Emscripten.clang"
  },
  "schemaVersion": "3.2.5",
  "updatedAt": "2020-10-22T10:03:09.700Z",
  "networkType": "ethereum",
  "devdoc": {
    "kind": "dev",
    "methods": {
      "owner()": {
        "details": "Returns the address of the current owner."
      },
      "renounceOwnership()": {
        "details": "Leaves the contract without owner. It will not be possible to call `onlyOwner` functions anymore. Can only be called by the current owner. NOTE: Renouncing ownership will leave the contract without an owner, thereby removing any functionality that is only available to the owner."
      },
      "transferOwnership(address)": {
        "details": "Transfers ownership of the contract to a new account (`newOwner`). Can only be called by the current owner."
      }
    },
    "version": 1
  },
  "userdoc": {
    "kind": "user",
    "methods": {},
    "version": 1
  }
}