{
  "contractName": "Planet",
  "abi": [
    {
      "inputs": [],
      "name": "dateLocked",
      "outputs": [
        {
          "internalType": "uint256",
          "name": "",
          "type": "uint256"
        }
      ],
      "stateMutability": "view",
      "type": "function",
      "constant": true
    },
    {
      "inputs": [],
      "name": "minHold",
      "outputs": [
        {
          "internalType": "uint256",
          "name": "",
          "type": "uint256"
        }
      ],
      "stateMutability": "view",
      "type": "function",
      "constant": true
    },
    {
      "inputs": [
        {
          "internalType": "address",
          "name": "",
          "type": "address"
        },
        {
          "internalType": "address",
          "name": "",
          "type": "address"
        },
        {
          "internalType": "uint256[]",
          "name": "",
          "type": "uint256[]"
        },
        {
          "internalType": "uint256[]",
          "name": "",
          "type": "uint256[]"
        },
        {
          "internalType": "bytes",
          "name": "",
          "type": "bytes"
        }
      ],
      "name": "onERC1155BatchReceived",
      "outputs": [
        {
          "internalType": "bytes4",
          "name": "",
          "type": "bytes4"
        }
      ],
      "stateMutability": "nonpayable",
      "type": "function"
    },
    {
      "inputs": [
        {
          "internalType": "address",
          "name": "",
          "type": "address"
        },
        {
          "internalType": "address",
          "name": "",
          "type": "address"
        },
        {
          "internalType": "uint256",
          "name": "",
          "type": "uint256"
        },
        {
          "internalType": "uint256",
          "name": "",
          "type": "uint256"
        },
        {
          "internalType": "bytes",
          "name": "",
          "type": "bytes"
        }
      ],
      "name": "onERC1155Received",
      "outputs": [
        {
          "internalType": "bytes4",
          "name": "",
          "type": "bytes4"
        }
      ],
      "stateMutability": "nonpayable",
      "type": "function"
    },
    {
      "inputs": [],
      "name": "staked",
      "outputs": [
        {
          "internalType": "uint256",
          "name": "",
          "type": "uint256"
        }
      ],
      "stateMutability": "view",
      "type": "function",
      "constant": true
    },
    {
      "inputs": [
        {
          "internalType": "bytes4",
          "name": "interfaceId",
          "type": "bytes4"
        }
      ],
      "name": "supportsInterface",
      "outputs": [
        {
          "internalType": "bool",
          "name": "",
          "type": "bool"
        }
      ],
      "stateMutability": "view",
      "type": "function",
      "constant": true
    },
    {
      "inputs": [],
      "name": "tokenId",
      "outputs": [
        {
          "internalType": "uint256",
          "name": "",
          "type": "uint256"
        }
      ],
      "stateMutability": "view",
      "type": "function",
      "constant": true
    },
    {
      "inputs": [],
      "name": "yield",
      "outputs": [
        {
          "internalType": "uint256",
          "name": "",
          "type": "uint256"
        }
      ],
      "stateMutability": "view",
      "type": "function",
      "constant": true
    },
    {
      "inputs": [
        {
          "internalType": "address",
          "name": "_planetManager",
          "type": "address"
        },
        {
          "internalType": "address",
          "name": "_solar",
          "type": "address"
        },
        {
          "internalType": "address",
          "name": "_fhr",
          "type": "address"
        },
        {
          "internalType": "address",
          "name": "_sats",
          "type": "address"
        },
        {
          "internalType": "uint256",
          "name": "_yield",
          "type": "uint256"
        },
        {
          "internalType": "uint256",
          "name": "_tokenId",
          "type": "uint256"
        }
      ],
      "name": "initialize",
      "outputs": [],
      "stateMutability": "nonpayable",
      "type": "function"
    },
    {
      "inputs": [
        {
          "internalType": "uint256",
          "name": "amount",
          "type": "uint256"
        }
      ],
      "name": "depositSolar",
      "outputs": [],
      "stateMutability": "nonpayable",
      "type": "function"
    },
    {
      "inputs": [
        {
          "internalType": "uint256",
          "name": "amount",
          "type": "uint256"
        }
      ],
      "name": "withdrawSolar",
      "outputs": [],
      "stateMutability": "nonpayable",
      "type": "function"
    },
    {
      "inputs": [
        {
          "internalType": "uint256[]",
          "name": "_ids",
          "type": "uint256[]"
        },
        {
          "internalType": "uint256[]",
          "name": "_amounts",
          "type": "uint256[]"
        }
      ],
      "name": "depositSats",
      "outputs": [],
      "stateMutability": "nonpayable",
      "type": "function"
    },
    {
      "inputs": [
        {
          "internalType": "uint256[]",
          "name": "_ids",
          "type": "uint256[]"
        },
        {
          "internalType": "uint256[]",
          "name": "_amounts",
          "type": "uint256[]"
        }
      ],
      "name": "withdrawSats",
      "outputs": [],
      "stateMutability": "nonpayable",
      "type": "function"
    }
  ],
  "bytecode": "0x608060405234801561001057600080fd5b506100216301ffc9a760e01b610036565b610031630271189760e51b610036565b6100ba565b6001600160e01b03198082161415610095576040805162461bcd60e51b815260206004820152601c60248201527f4552433136353a20696e76616c696420696e7465726661636520696400000000604482015290519081900360640190fd5b6001600160e01b0319166000908152602081905260409020805460ff19166001179055565b611152806100c96000396000f3fe608060405234801561001057600080fd5b50600436106100cf5760003560e01c80635d42ae4e1161008c578063bc197c8111610066578063bc197c81146103c3578063d471ed75146105a1578063d7c41c79146105a9578063f23a6e61146105f5576100cf565b80635d42ae4e14610160578063a2bae1691461017d578063a89cb1f8146102a0576100cf565b806301ffc9a7146100d45780630b76619b1461010f57806317d70f7c1461012957806328593984146101315780632e2b7c001461013957806346ffb9a814610158575b600080fd5b6100fb600480360360208110156100ea57600080fd5b50356001600160e01b0319166106be565b604080519115158252519081900360200190f35b6101176106dd565b60408051918252519081900360200190f35b6101176106e3565b6101176106e9565b6101566004803603602081101561014f57600080fd5b50356106ef565b005b610117610840565b6101566004803603602081101561017657600080fd5b5035610846565b6101566004803603604081101561019357600080fd5b810190602081018135600160201b8111156101ad57600080fd5b8201836020820111156101bf57600080fd5b803590602001918460208302840111600160201b831117156101e057600080fd5b9190808060200260200160405190810160405280939291908181526020018383602002808284376000920191909152509295949360208101935035915050600160201b81111561022f57600080fd5b82018360208201111561024157600080fd5b803590602001918460208302840111600160201b8311171561026257600080fd5b919080806020026020016040519081016040528093929190818152602001838360200280828437600092019190915250929550610b16945050505050565b610156600480360360408110156102b657600080fd5b810190602081018135600160201b8111156102d057600080fd5b8201836020820111156102e257600080fd5b803590602001918460208302840111600160201b8311171561030357600080fd5b9190808060200260200160405190810160405280939291908181526020018383602002808284376000920191909152509295949360208101935035915050600160201b81111561035257600080fd5b82018360208201111561036457600080fd5b803590602001918460208302840111600160201b8311171561038557600080fd5b919080806020026020016040519081016040528093929190818152602001838360200280828437600092019190915250929550610cf3945050505050565b610584600480360360a08110156103d957600080fd5b6001600160a01b038235811692602081013590911691810190606081016040820135600160201b81111561040c57600080fd5b82018360208201111561041e57600080fd5b803590602001918460208302840111600160201b8311171561043f57600080fd5b9190808060200260200160405190810160405280939291908181526020018383602002808284376000920191909152509295949360208101935035915050600160201b81111561048e57600080fd5b8201836020820111156104a057600080fd5b803590602001918460208302840111600160201b831117156104c157600080fd5b9190808060200260200160405190810160405280939291908181526020018383602002808284376000920191909152509295949360208101935035915050600160201b81111561051057600080fd5b82018360208201111561052257600080fd5b803590602001918460018302840111600160201b8311171561054357600080fd5b91908080601f016020809104026020016040519081016040528093929190818152602001838380828437600092019190915250929550610e39945050505050565b604080516001600160e01b03199092168252519081900360200190f35b610117610e4a565b610156600480360360c08110156105bf57600080fd5b506001600160a01b0381358116916020810135821691604082013581169160608101359091169060808101359060a00135610e50565b610584600480360360a081101561060b57600080fd5b6001600160a01b03823581169260208101359091169160408201359160608101359181019060a081016080820135600160201b81111561064a57600080fd5b82018360208201111561065c57600080fd5b803590602001918460018302840111600160201b8311171561067d57600080fd5b91908080601f016020809104026020016040519081016040528093929190818152602001838380828437600092019190915250929550610eae945050505050565b6001600160e01b03191660009081526020819052604090205460ff1690565b60385481565b60345481565b60355481565b603954603454604080516331a9108f60e11b815260048101929092525133926001600160a01b031691636352211e916024808301926020929190829003018186803b15801561073d57600080fd5b505afa158015610751573d6000803e3d6000fd5b505050506040513d602081101561076757600080fd5b50516001600160a01b0316146107b7576040805162461bcd60e51b815260206004820152601060248201526f29b2b73232b9103737ba1037bbb732b960811b604482015290519081900360640190fd5b603a54604080516323b872dd60e01b81523360048201523060248201526044810184905290516001600160a01b03909216916323b872dd9160648082019260009290919082900301818387803b15801561081057600080fd5b505af1158015610824573d6000803e3d6000fd5b50506038546108369250905082610ebf565b6038555042603655565b60365481565b603954603454604080516331a9108f60e11b815260048101929092525133926001600160a01b031691636352211e916024808301926020929190829003018186803b15801561089457600080fd5b505afa1580156108a8573d6000803e3d6000fd5b505050506040513d60208110156108be57600080fd5b50516001600160a01b03161461090e576040805162461bcd60e51b815260206004820152601060248201526f29b2b73232b9103737ba1037bbb732b960811b604482015290519081900360640190fd5b603854811115610965576040805162461bcd60e51b815260206004820152601b60248201527f416d6f756e742067726561746572207468616e2062616c616e63650000000000604482015290519081900360640190fd5b600061097c60365442610f2290919063ffffffff16565b90506037548110156109d5576040805162461bcd60e51b815260206004820152601960248201527f4d696e696d756d20686f6c64206e6f7420636f6d706c65746500000000000000604482015290519081900360640190fd5b60006109f06301e133806109ea846064610f64565b90610fbd565b90506000610a1f60646109ea610a1660646109ea87603554610f6490919063ffffffff16565b60385490610f64565b603a546040805163a9059cbb60e01b81523360048201526024810188905290519293506001600160a01b039091169163a9059cbb9160448082019260009290919082900301818387803b158015610a7557600080fd5b505af1158015610a89573d6000803e3d6000fd5b5050603b5460408051632ca9f34960e21b81523360048201526024810186905290516001600160a01b03909216935063b2a7cd24925060448082019260009290919082900301818387803b158015610ae057600080fd5b505af1158015610af4573d6000803e3d6000fd5b5050603854610b069250905085610f22565b610b105760006036555b50505050565b603954603454604080516331a9108f60e11b815260048101929092525133926001600160a01b031691636352211e916024808301926020929190829003018186803b158015610b6457600080fd5b505afa158015610b78573d6000803e3d6000fd5b505050506040513d6020811015610b8e57600080fd5b50516001600160a01b031614610bde576040805162461bcd60e51b815260206004820152601060248201526f29b2b73232b9103737ba1037bbb732b960811b604482015290519081900360640190fd5b603c54604051631759616b60e11b81523060048201818152336024840181905260a060448501908152875160a486015287516001600160a01b0390961695632eb2c2d69592938993899391926064820191608481019160c4909101906020808901910280838360005b83811015610c5f578181015183820152602001610c47565b50505050905001848103835285818151815260200191508051906020019060200280838360005b83811015610c9e578181015183820152602001610c86565b50505050905001848103825260008152602001602001975050505050505050600060405180830381600087803b158015610cd757600080fd5b505af1158015610ceb573d6000803e3d6000fd5b505050505050565b603954603454604080516331a9108f60e11b815260048101929092525133926001600160a01b031691636352211e916024808301926020929190829003018186803b158015610d4157600080fd5b505afa158015610d55573d6000803e3d6000fd5b505050506040513d6020811015610d6b57600080fd5b50516001600160a01b031614610dbb576040805162461bcd60e51b815260206004820152601060248201526f29b2b73232b9103737ba1037bbb732b960811b604482015290519081900360640190fd5b603c54604051631759616b60e11b81523360048201818152306024840181905260a060448501908152875160a486015287516001600160a01b0390961695632eb2c2d69592938993899391926064820191608481019160c4909101906020808901910280838360008315610c5f578181015183820152602001610c47565b63bc197c8160e01b95945050505050565b60375481565b60345560355562127500603755603a80546001600160a01b03199081166001600160a01b039586161790915560398054821693851693909317909255603c80548316918416919091179055603b805490911692909116919091179055565b63f23a6e6160e01b95945050505050565b600082820183811015610f19576040805162461bcd60e51b815260206004820152601b60248201527f536166654d6174683a206164646974696f6e206f766572666c6f770000000000604482015290519081900360640190fd5b90505b92915050565b6000610f1983836040518060400160405280601e81526020017f536166654d6174683a207375627472616374696f6e206f766572666c6f770000815250610fff565b600082610f7357506000610f1c565b82820282848281610f8057fe5b0414610f195760405162461bcd60e51b81526004018080602001828103825260218152602001806110fc6021913960400191505060405180910390fd5b6000610f1983836040518060400160405280601a81526020017f536166654d6174683a206469766973696f6e206279207a65726f000000000000815250611096565b6000818484111561108e5760405162461bcd60e51b81526004018080602001828103825283818151815260200191508051906020019080838360005b8381101561105357818101518382015260200161103b565b50505050905090810190601f1680156110805780820380516001836020036101000a031916815260200191505b509250505060405180910390fd5b505050900390565b600081836110e55760405162461bcd60e51b815260206004820181815283516024840152835190928392604490910191908501908083836000831561105357818101518382015260200161103b565b5060008385816110f157fe5b049594505050505056fe536166654d6174683a206d756c7469706c69636174696f6e206f766572666c6f77a264697066735822122037324647479527440bc6dae2e89c375676ee19148b6e5896f405c6e059e9344764736f6c634300060c0033",
  "immutableReferences": {},
  "source": "import {ERC1155Holder} from '@openzeppelin/contracts/token/ERC1155/ERC1155Holder.sol';\nimport {IFHR} from './interfaces/IFHR.sol';\nimport {ISolar} from './interfaces/ISolar.sol';\nimport {ISat} from './interfaces/ISat.sol';\nimport '@openzeppelin/upgrades/contracts/Initializable.sol';\nimport {SafeMath} from '@openzeppelin/contracts/math/SafeMath.sol';\n\ninterface IPlanetManager {\n    function rewardPlanet(address _to, uint256 _amount) external;\n}\n\ncontract Planet is ERC1155Holder, Initializable {\n    using SafeMath for uint256;\n\n    uint256 public tokenId;\n    uint256 public yield;\n    uint256 public dateLocked;\n    uint256 public minHold;\n    uint256 public staked;\n    IFHR fhr;\n    ISolar solar;\n    IPlanetManager pm;\n    ISat sats;\n\n    function initialize(\n        address _planetManager,\n        address _solar,\n        address _fhr,\n        address _sats,\n        uint256 _yield,\n        uint256 _tokenId\n    ) public {\n        tokenId = _tokenId;\n        yield = _yield;\n        minHold = 14 days;\n\n        solar = ISolar(_solar);\n        fhr = IFHR(_fhr);\n        sats = ISat(_sats);\n        pm = IPlanetManager(_planetManager);\n    }\n\n    modifier onlyTokenHolder() {\n        require(fhr.ownerOf(tokenId) == msg.sender, 'Sender not owner');\n        _;\n    }\n\n    function depositSolar(uint256 amount) public onlyTokenHolder() {\n        if (staked > 0) {\n            // calculate and pay interest so far if there is already solar deposited\n        }\n        solar.transferFrom(msg.sender, address(this), amount);\n        staked = staked.add(amount);\n        dateLocked = now;\n    }\n\n    function withdrawSolar(uint256 amount) public onlyTokenHolder() {\n        require(amount <= staked, 'Amount greater than balance');\n\n        uint256 held = now.sub(dateLocked);\n        require(held >= minHold, 'Minimum hold not complete');\n\n        uint256 percentageOfYear = held.mul(100).div(365 days);\n        uint256 reward = staked.mul(yield.mul(percentageOfYear).div(100)).div(100);\n        solar.transfer(msg.sender, amount);\n        pm.rewardPlanet(msg.sender, reward);\n\n        if (staked.sub(amount) == 0) dateLocked = 0;\n    }\n\n    function depositSats(uint256[] memory _ids, uint256[] memory _amounts)\n        public\n        onlyTokenHolder()\n    {\n        sats.safeBatchTransferFrom(msg.sender, address(this), _ids, _amounts, '');\n    }\n\n    function withdrawSats(uint256[] memory _ids, uint256[] memory _amounts)\n        public\n        onlyTokenHolder()\n    {\n        sats.safeBatchTransferFrom(address(this), msg.sender, _ids, _amounts, '');\n    }\n}\n",
  "sourcePath": "C:\\Users\\James\\projects\\tsuno-fe\\contracts\\Planet.sol",
  "compiler": {
    "name": "solc",
    "version": "0.6.12+commit.27d51765.Emscripten.clang"
  },
  "schemaVersion": "3.2.5",
  "updatedAt": "2020-10-20T10:07:07.157Z",
  "networkType": "ethereum",
  "devdoc": {
    "kind": "dev",
    "methods": {
      "supportsInterface(bytes4)": {
        "details": "See {IERC165-supportsInterface}. Time complexity O(1), guaranteed to always use less than 30 000 gas."
      }
    },
    "version": 1
  },
  "userdoc": {
    "kind": "user",
    "methods": {},
    "version": 1
  }
}