{
  "contractName": "ShipsAndTechnology",
  "abi": [
    {
      "inputs": [
        {
          "internalType": "address",
          "name": "_operator",
          "type": "address"
        }
      ],
      "stateMutability": "nonpayable",
      "type": "constructor"
    },
    {
      "anonymous": false,
      "inputs": [
        {
          "indexed": true,
          "internalType": "address",
          "name": "account",
          "type": "address"
        },
        {
          "indexed": true,
          "internalType": "address",
          "name": "operator",
          "type": "address"
        },
        {
          "indexed": false,
          "internalType": "bool",
          "name": "approved",
          "type": "bool"
        }
      ],
      "name": "ApprovalForAll",
      "type": "event"
    },
    {
      "anonymous": false,
      "inputs": [
        {
          "indexed": true,
          "internalType": "address",
          "name": "previousOwner",
          "type": "address"
        },
        {
          "indexed": true,
          "internalType": "address",
          "name": "newOwner",
          "type": "address"
        }
      ],
      "name": "OwnershipTransferred",
      "type": "event"
    },
    {
      "anonymous": false,
      "inputs": [
        {
          "indexed": true,
          "internalType": "address",
          "name": "operator",
          "type": "address"
        },
        {
          "indexed": true,
          "internalType": "address",
          "name": "from",
          "type": "address"
        },
        {
          "indexed": true,
          "internalType": "address",
          "name": "to",
          "type": "address"
        },
        {
          "indexed": false,
          "internalType": "uint256[]",
          "name": "ids",
          "type": "uint256[]"
        },
        {
          "indexed": false,
          "internalType": "uint256[]",
          "name": "values",
          "type": "uint256[]"
        }
      ],
      "name": "TransferBatch",
      "type": "event"
    },
    {
      "anonymous": false,
      "inputs": [
        {
          "indexed": true,
          "internalType": "address",
          "name": "operator",
          "type": "address"
        },
        {
          "indexed": true,
          "internalType": "address",
          "name": "from",
          "type": "address"
        },
        {
          "indexed": true,
          "internalType": "address",
          "name": "to",
          "type": "address"
        },
        {
          "indexed": false,
          "internalType": "uint256",
          "name": "id",
          "type": "uint256"
        },
        {
          "indexed": false,
          "internalType": "uint256",
          "name": "value",
          "type": "uint256"
        }
      ],
      "name": "TransferSingle",
      "type": "event"
    },
    {
      "anonymous": false,
      "inputs": [
        {
          "indexed": false,
          "internalType": "string",
          "name": "value",
          "type": "string"
        },
        {
          "indexed": true,
          "internalType": "uint256",
          "name": "id",
          "type": "uint256"
        }
      ],
      "name": "URI",
      "type": "event"
    },
    {
      "inputs": [],
      "name": "PIRATE_SHIP",
      "outputs": [
        {
          "internalType": "uint256",
          "name": "",
          "type": "uint256"
        }
      ],
      "stateMutability": "view",
      "type": "function"
    },
    {
      "inputs": [],
      "name": "PIRATE_WEAPON_SYSTEM",
      "outputs": [
        {
          "internalType": "uint256",
          "name": "",
          "type": "uint256"
        }
      ],
      "stateMutability": "view",
      "type": "function"
    },
    {
      "inputs": [
        {
          "internalType": "address",
          "name": "account",
          "type": "address"
        },
        {
          "internalType": "uint256",
          "name": "id",
          "type": "uint256"
        }
      ],
      "name": "balanceOf",
      "outputs": [
        {
          "internalType": "uint256",
          "name": "",
          "type": "uint256"
        }
      ],
      "stateMutability": "view",
      "type": "function"
    },
    {
      "inputs": [
        {
          "internalType": "address[]",
          "name": "accounts",
          "type": "address[]"
        },
        {
          "internalType": "uint256[]",
          "name": "ids",
          "type": "uint256[]"
        }
      ],
      "name": "balanceOfBatch",
      "outputs": [
        {
          "internalType": "uint256[]",
          "name": "",
          "type": "uint256[]"
        }
      ],
      "stateMutability": "view",
      "type": "function"
    },
    {
      "inputs": [
        {
          "internalType": "address",
          "name": "account",
          "type": "address"
        },
        {
          "internalType": "address",
          "name": "operator",
          "type": "address"
        }
      ],
      "name": "isApprovedForAll",
      "outputs": [
        {
          "internalType": "bool",
          "name": "",
          "type": "bool"
        }
      ],
      "stateMutability": "view",
      "type": "function"
    },
    {
      "inputs": [],
      "name": "owner",
      "outputs": [
        {
          "internalType": "address",
          "name": "",
          "type": "address"
        }
      ],
      "stateMutability": "view",
      "type": "function"
    },
    {
      "inputs": [],
      "name": "renounceOwnership",
      "outputs": [],
      "stateMutability": "nonpayable",
      "type": "function"
    },
    {
      "inputs": [
        {
          "internalType": "address",
          "name": "from",
          "type": "address"
        },
        {
          "internalType": "address",
          "name": "to",
          "type": "address"
        },
        {
          "internalType": "uint256[]",
          "name": "ids",
          "type": "uint256[]"
        },
        {
          "internalType": "uint256[]",
          "name": "amounts",
          "type": "uint256[]"
        },
        {
          "internalType": "bytes",
          "name": "data",
          "type": "bytes"
        }
      ],
      "name": "safeBatchTransferFrom",
      "outputs": [],
      "stateMutability": "nonpayable",
      "type": "function"
    },
    {
      "inputs": [
        {
          "internalType": "address",
          "name": "from",
          "type": "address"
        },
        {
          "internalType": "address",
          "name": "to",
          "type": "address"
        },
        {
          "internalType": "uint256",
          "name": "id",
          "type": "uint256"
        },
        {
          "internalType": "uint256",
          "name": "amount",
          "type": "uint256"
        },
        {
          "internalType": "bytes",
          "name": "data",
          "type": "bytes"
        }
      ],
      "name": "safeTransferFrom",
      "outputs": [],
      "stateMutability": "nonpayable",
      "type": "function"
    },
    {
      "inputs": [
        {
          "internalType": "address",
          "name": "operator",
          "type": "address"
        },
        {
          "internalType": "bool",
          "name": "approved",
          "type": "bool"
        }
      ],
      "name": "setApprovalForAll",
      "outputs": [],
      "stateMutability": "nonpayable",
      "type": "function"
    },
    {
      "inputs": [
        {
          "internalType": "bytes4",
          "name": "interfaceId",
          "type": "bytes4"
        }
      ],
      "name": "supportsInterface",
      "outputs": [
        {
          "internalType": "bool",
          "name": "",
          "type": "bool"
        }
      ],
      "stateMutability": "view",
      "type": "function"
    },
    {
      "inputs": [
        {
          "internalType": "address",
          "name": "newOwner",
          "type": "address"
        }
      ],
      "name": "transferOwnership",
      "outputs": [],
      "stateMutability": "nonpayable",
      "type": "function"
    },
    {
      "inputs": [
        {
          "internalType": "uint256",
          "name": "",
          "type": "uint256"
        }
      ],
      "name": "uri",
      "outputs": [
        {
          "internalType": "string",
          "name": "",
          "type": "string"
        }
      ],
      "stateMutability": "view",
      "type": "function"
    }
  ],
  "bytecode": "0x60806040523480156200001157600080fd5b506040516200231138038062002311833981810160405260208110156200003757600080fd5b505160408051606081019091526026808252620022a1602083013960006200005e6200013b565b600080546001600160a01b0319166001600160a01b0383169081178255604051929350917f8be0079c531659141344cd1fd0a4f28419497f9722a3daafe3b4186f6b6457e0908290a350620000ba6301ffc9a760e01b62000140565b620000c581620001c8565b620000d7636cdb3d1360e11b62000140565b620000e96303a24d0760e21b62000140565b5060005b602e81101562000126576200011d33826200010881620001e1565b6040805160208101909152600081526200028d565b600101620000ed565b5062000134816001620003bc565b506200091a565b335b90565b6001600160e01b03198082161415620001a0576040805162461bcd60e51b815260206004820152601c60248201527f4552433136353a20696e76616c696420696e7465726661636520696400000000604482015290519081900360640190fd5b6001600160e01b0319166000908152600160208190526040909120805460ff19169091179055565b8051620001dd906004906020840190620007c8565b5050565b60006026821480620001f35750602982145b80620001ff5750602282145b156200020f57506103e862000288565b60278214806200021f5750602982145b806200022b5750602382145b156200023b575061019062000288565b602b8214806200024b5750602882145b156200025a5750606462000288565b60218214156200026d5750600a62000288565b602482141562000281575061271062000288565b50633b9aca005b919050565b6001600160a01b038416620002d45760405162461bcd60e51b8152600401808060200182810382526021815260200180620022f06021913960400191505060405180910390fd5b6000620002e06200013b565b90506200030781600087620002f588620004b3565b6200030088620004b3565b87620004f8565b60008481526002602090815260408083206001600160a01b0389168452825290912054620003409185906200110262000500821b17901c565b60008581526002602090815260408083206001600160a01b03808b16808652918452828520959095558151898152928301889052815190948616927fc3d58168c5ae7397731d063d5bbf3d657854427343f4c083240f7aacaa2d0f6292908290030190a4620003b58160008787878762000562565b5050505050565b6001600160a01b038216620003d06200013b565b6001600160a01b03161415620004185760405162461bcd60e51b8152600401808060200182810382526029815260200180620022c76029913960400191505060405180910390fd5b8060036000620004276200013b565b6001600160a01b03908116825260208083019390935260409182016000908120918716808252919093529120805460ff1916921515929092179091556200046d6200013b565b6001600160a01b03167f17307eab39ab6107e8899845ad3d59bd9653f200f220920489ca2b5937696c318360405180821515815260200191505060405180910390a35050565b604080516001808252818301909252606091829190602080830190803683370190505090508281600081518110620004e757fe5b602090810291909101015292915050565b505050505050565b6000828201838110156200055b576040805162461bcd60e51b815260206004820152601b60248201527f536166654d6174683a206164646974696f6e206f766572666c6f770000000000604482015290519081900360640190fd5b9392505050565b62000581846001600160a01b0316620007c260201b620011631760201c565b15620004f857836001600160a01b031663f23a6e6187878686866040518663ffffffff1660e01b815260040180866001600160a01b03168152602001856001600160a01b0316815260200184815260200183815260200180602001828103825283818151815260200191508051906020019080838360005b8381101562000613578181015183820152602001620005f9565b50505050905090810190601f168015620006415780820380516001836020036101000a031916815260200191505b509650505050505050602060405180830381600087803b1580156200066557600080fd5b505af19250505080156200068c57506040513d60208110156200068757600080fd5b505160015b62000768576200069b6200086a565b80620006a8575062000730565b8060405162461bcd60e51b81526004018080602001828103825283818151815260200191508051906020019080838360005b83811015620006f4578181015183820152602001620006da565b50505050905090810190601f168015620007225780820380516001836020036101000a031916815260200191505b509250505060405180910390fd5b60405162461bcd60e51b8152600401808060200182810382526034815260200180620022456034913960400191505060405180910390fd5b6001600160e01b0319811663f23a6e6160e01b14620007b95760405162461bcd60e51b8152600401808060200182810382526028815260200180620022796028913960400191505060405180910390fd5b50505050505050565b3b151590565b828054600181600116156101000203166002900490600052602060002090601f016020900481019282601f106200080b57805160ff19168380011785556200083b565b828001600101855582156200083b579182015b828111156200083b5782518255916020019190600101906200081e565b50620008499291506200084d565b5090565b5b808211156200084957600081556001016200084e565b60e01c90565b600060443d10156200087c576200013d565b600481823e6308c379a062000892825162000864565b146200089e576200013d565b6040513d600319016004823e80513d6001600160401b038083116024840183101715620008cf57505050506200013d565b82840192508251915080821115620008eb57505050506200013d565b503d8301602082840101111562000905575050506200013d565b601f01601f1916810160200160405291505090565b61191b806200092a6000396000f3fe608060405234801561001057600080fd5b50600436106100ce5760003560e01c80634e1273f41161008c578063a22cb46511610066578063a22cb46514610550578063e985e9c51461057e578063f242432a146105ac578063f2fde38b14610675576100ce565b80634e1273f4146103b1578063715018a6146105245780638da5cb5b1461052c576100ce565b8062fdd58e146100d357806301ffc9a7146101115780630e89341c1461014c5780632eb2c2d6146101de578063322c50fc146103a1578063481e2966146103a9575b600080fd5b6100ff600480360360408110156100e957600080fd5b506001600160a01b03813516906020013561069b565b60408051918252519081900360200190f35b6101386004803603602081101561012757600080fd5b50356001600160e01b03191661070a565b604080519115158252519081900360200190f35b6101696004803603602081101561016257600080fd5b5035610729565b6040805160208082528351818301528351919283929083019185019080838360005b838110156101a357818101518382015260200161018b565b50505050905090810190601f1680156101d05780820380516001836020036101000a031916815260200191505b509250505060405180910390f35b61039f600480360360a08110156101f457600080fd5b6001600160a01b038235811692602081013590911691810190606081016040820135600160201b81111561022757600080fd5b82018360208201111561023957600080fd5b803590602001918460208302840111600160201b8311171561025a57600080fd5b9190808060200260200160405190810160405280939291908181526020018383602002808284376000920191909152509295949360208101935035915050600160201b8111156102a957600080fd5b8201836020820111156102bb57600080fd5b803590602001918460208302840111600160201b831117156102dc57600080fd5b9190808060200260200160405190810160405280939291908181526020018383602002808284376000920191909152509295949360208101935035915050600160201b81111561032b57600080fd5b82018360208201111561033d57600080fd5b803590602001918460018302840111600160201b8311171561035e57600080fd5b91908080601f0160208091040260200160405190810160405280939291908181526020018383808284376000920191909152509295506107c1945050505050565b005b6100ff610ac4565b6100ff610ac9565b6104d4600480360360408110156103c757600080fd5b810190602081018135600160201b8111156103e157600080fd5b8201836020820111156103f357600080fd5b803590602001918460208302840111600160201b8311171561041457600080fd5b9190808060200260200160405190810160405280939291908181526020018383602002808284376000920191909152509295949360208101935035915050600160201b81111561046357600080fd5b82018360208201111561047557600080fd5b803590602001918460208302840111600160201b8311171561049657600080fd5b919080806020026020016040519081016040528093929190818152602001838360200280828437600092019190915250929550610ace945050505050565b60408051602080825283518183015283519192839290830191858101910280838360005b838110156105105781810151838201526020016104f8565b505050509050019250505060405180910390f35b61039f610c4c565b610534610d00565b604080516001600160a01b039092168252519081900360200190f35b61039f6004803603604081101561056657600080fd5b506001600160a01b0381351690602001351515610d10565b6101386004803603604081101561059457600080fd5b506001600160a01b0381358116916020013516610dff565b61039f600480360360a08110156105c257600080fd5b6001600160a01b03823581169260208101359091169160408201359160608101359181019060a081016080820135600160201b81111561060157600080fd5b82018360208201111561061357600080fd5b803590602001918460018302840111600160201b8311171561063457600080fd5b91908080601f016020809104026020016040519081016040528093929190818152602001838380828437600092019190915250929550610e2d945050505050565b61039f6004803603602081101561068b57600080fd5b50356001600160a01b0316610ff8565b60006001600160a01b0383166106e25760405162461bcd60e51b815260040180806020018281038252602b815260200180611740602b913960400191505060405180910390fd5b5060009081526002602090815260408083206001600160a01b03949094168352929052205490565b6001600160e01b03191660009081526001602052604090205460ff1690565b60048054604080516020601f60026000196101006001881615020190951694909404938401819004810282018101909252828152606093909290918301828280156107b55780601f1061078a576101008083540402835291602001916107b5565b820191906000526020600020905b81548152906001019060200180831161079857829003601f168201915b50505050509050919050565b81518351146108015760405162461bcd60e51b81526004018080602001828103825260288152602001806118be6028913960400191505060405180910390fd5b6001600160a01b0384166108465760405162461bcd60e51b81526004018080602001828103825260258152602001806117eb6025913960400191505060405180910390fd5b61084e611169565b6001600160a01b0316856001600160a01b03161480610879575061087985610874611169565b610dff565b6108b45760405162461bcd60e51b81526004018080602001828103825260328152602001806118106032913960400191505060405180910390fd5b60006108be611169565b90506108ce818787878787610abc565b60005b84518110156109d45760008582815181106108e857fe5b60200260200101519050600085838151811061090057fe5b6020026020010151905061096d816040518060600160405280602a8152602001611842602a91396002600086815260200190815260200160002060008d6001600160a01b03166001600160a01b031681526020019081526020016000205461116d9092919063ffffffff16565b60008381526002602090815260408083206001600160a01b038e811685529252808320939093558a16815220546109a49082611102565b60009283526002602090815260408085206001600160a01b038c16865290915290922091909155506001016108d1565b50846001600160a01b0316866001600160a01b0316826001600160a01b03167f4a39dc06d4c0dbc64b70af90fd698a233a518aa5d07e595d983b8c0526c8f7fb8787604051808060200180602001838103835285818151815260200191508051906020019060200280838360005b83811015610a5a578181015183820152602001610a42565b50505050905001838103825284818151815260200191508051906020019060200280838360005b83811015610a99578181015183820152602001610a81565b5050505090500194505050505060405180910390a4610abc818787878787611204565b505050505050565b603181565b603081565b60608151835114610b105760405162461bcd60e51b81526004018080602001828103825260298152602001806118956029913960400191505060405180910390fd5b6060835167ffffffffffffffff81118015610b2a57600080fd5b50604051908082528060200260200182016040528015610b54578160200160208202803683370190505b50905060005b8451811015610c445760006001600160a01b0316858281518110610b7a57fe5b60200260200101516001600160a01b03161415610bc85760405162461bcd60e51b815260040180806020018281038252603181526020018061176b6031913960400191505060405180910390fd5b60026000858381518110610bd857fe5b602002602001015181526020019081526020016000206000868381518110610bfc57fe5b60200260200101516001600160a01b03166001600160a01b0316815260200190815260200160002054828281518110610c3157fe5b6020908102919091010152600101610b5a565b509392505050565b610c54611169565b6000546001600160a01b03908116911614610cb6576040805162461bcd60e51b815260206004820181905260248201527f4f776e61626c653a2063616c6c6572206973206e6f7420746865206f776e6572604482015290519081900360640190fd5b600080546040516001600160a01b03909116907f8be0079c531659141344cd1fd0a4f28419497f9722a3daafe3b4186f6b6457e0908390a3600080546001600160a01b0319169055565b6000546001600160a01b03165b90565b816001600160a01b0316610d22611169565b6001600160a01b03161415610d685760405162461bcd60e51b815260040180806020018281038252602981526020018061186c6029913960400191505060405180910390fd5b8060036000610d75611169565b6001600160a01b03908116825260208083019390935260409182016000908120918716808252919093529120805460ff191692151592909217909155610db9611169565b6001600160a01b03167f17307eab39ab6107e8899845ad3d59bd9653f200f220920489ca2b5937696c318360405180821515815260200191505060405180910390a35050565b6001600160a01b03918216600090815260036020908152604080832093909416825291909152205460ff1690565b6001600160a01b038416610e725760405162461bcd60e51b81526004018080602001828103825260258152602001806117eb6025913960400191505060405180910390fd5b610e7a611169565b6001600160a01b0316856001600160a01b03161480610ea05750610ea085610874611169565b610edb5760405162461bcd60e51b81526004018080602001828103825260298152602001806117c26029913960400191505060405180910390fd5b6000610ee5611169565b9050610f05818787610ef688611483565b610eff88611483565b87610abc565b610f4c836040518060600160405280602a8152602001611842602a913960008781526002602090815260408083206001600160a01b038d168452909152902054919061116d565b60008581526002602090815260408083206001600160a01b038b81168552925280832093909355871681522054610f839084611102565b60008581526002602090815260408083206001600160a01b03808b168086529184529382902094909455805188815291820187905280518a8416938616927fc3d58168c5ae7397731d063d5bbf3d657854427343f4c083240f7aacaa2d0f6292908290030190a4610abc8187878787876114c7565b611000611169565b6000546001600160a01b03908116911614611062576040805162461bcd60e51b815260206004820181905260248201527f4f776e61626c653a2063616c6c6572206973206e6f7420746865206f776e6572604482015290519081900360640190fd5b6001600160a01b0381166110a75760405162461bcd60e51b815260040180806020018281038252602681526020018061179c6026913960400191505060405180910390fd5b600080546040516001600160a01b03808516939216917f8be0079c531659141344cd1fd0a4f28419497f9722a3daafe3b4186f6b6457e091a3600080546001600160a01b0319166001600160a01b0392909216919091179055565b60008282018381101561115c576040805162461bcd60e51b815260206004820152601b60248201527f536166654d6174683a206164646974696f6e206f766572666c6f770000000000604482015290519081900360640190fd5b9392505050565b3b151590565b3390565b600081848411156111fc5760405162461bcd60e51b81526004018080602001828103825283818151815260200191508051906020019080838360005b838110156111c15781810151838201526020016111a9565b50505050905090810190601f1680156111ee5780820380516001836020036101000a031916815260200191505b509250505060405180910390fd5b505050900390565b611216846001600160a01b0316611163565b15610abc57836001600160a01b031663bc197c8187878686866040518663ffffffff1660e01b815260040180866001600160a01b03168152602001856001600160a01b03168152602001806020018060200180602001848103845287818151815260200191508051906020019060200280838360005b838110156112a457818101518382015260200161128c565b50505050905001848103835286818151815260200191508051906020019060200280838360005b838110156112e35781810151838201526020016112cb565b50505050905001848103825285818151815260200191508051906020019080838360005b8381101561131f578181015183820152602001611307565b50505050905090810190601f16801561134c5780820380516001836020036101000a031916815260200191505b5098505050505050505050602060405180830381600087803b15801561137157600080fd5b505af192505050801561139657506040513d602081101561139157600080fd5b505160015b61142b576113a261163e565b806113ad57506113f4565b60405162461bcd60e51b81526020600482018181528351602484015283518493919283926044019190850190808383600083156111c15781810151838201526020016111a9565b60405162461bcd60e51b81526004018080602001828103825260348152602001806116e46034913960400191505060405180910390fd5b6001600160e01b0319811663bc197c8160e01b1461147a5760405162461bcd60e51b81526004018080602001828103825260288152602001806117186028913960400191505060405180910390fd5b50505050505050565b6040805160018082528183019092526060918291906020808301908036833701905050905082816000815181106114b657fe5b602090810291909101015292915050565b6114d9846001600160a01b0316611163565b15610abc57836001600160a01b031663f23a6e6187878686866040518663ffffffff1660e01b815260040180866001600160a01b03168152602001856001600160a01b0316815260200184815260200183815260200180602001828103825283818151815260200191508051906020019080838360005b83811015611568578181015183820152602001611550565b50505050905090810190601f1680156115955780820380516001836020036101000a031916815260200191505b509650505050505050602060405180830381600087803b1580156115b857600080fd5b505af19250505080156115dd57506040513d60208110156115d857600080fd5b505160015b6115e9576113a261163e565b6001600160e01b0319811663f23a6e6160e01b1461147a5760405162461bcd60e51b81526004018080602001828103825260288152602001806117186028913960400191505060405180910390fd5b60e01c90565b600060443d101561164e57610d0d565b600481823e6308c379a06116628251611638565b1461166c57610d0d565b6040513d600319016004823e80513d67ffffffffffffffff816024840111818411171561169c5750505050610d0d565b828401925082519150808211156116b65750505050610d0d565b503d830160208284010111156116ce57505050610d0d565b601f01601f191681016020016040529150509056fe455243313135353a207472616e7366657220746f206e6f6e2045524331313535526563656976657220696d706c656d656e746572455243313135353a204552433131353552656365697665722072656a656374656420746f6b656e73455243313135353a2062616c616e636520717565727920666f7220746865207a65726f2061646472657373455243313135353a2062617463682062616c616e636520717565727920666f7220746865207a65726f20616464726573734f776e61626c653a206e6577206f776e657220697320746865207a65726f2061646472657373455243313135353a2063616c6c6572206973206e6f74206f776e6572206e6f7220617070726f766564455243313135353a207472616e7366657220746f20746865207a65726f2061646472657373455243313135353a207472616e736665722063616c6c6572206973206e6f74206f776e6572206e6f7220617070726f766564455243313135353a20696e73756666696369656e742062616c616e636520666f72207472616e73666572455243313135353a2073657474696e6720617070726f76616c2073746174757320666f722073656c66455243313135353a206163636f756e747320616e6420696473206c656e677468206d69736d61746368455243313135353a2069647320616e6420616d6f756e7473206c656e677468206d69736d61746368a26469706673582212203c3c0505c9e9503b03d007b59498d9b82ba664bcc18df1bf374c3d3b542f513d64736f6c634300060c0033455243313135353a207472616e7366657220746f206e6f6e2045524331313535526563656976657220696d706c656d656e746572455243313135353a204552433131353552656365697665722072656a656374656420746f6b656e7368747470733a2f2f67616d652e6578616d706c652f6170692f6974656d2f7b317d2e6a736f6e455243313135353a2073657474696e6720617070726f76616c2073746174757320666f722073656c66455243313135353a206d696e7420746f20746865207a65726f2061646472657373",
  "immutableReferences": {},
  "source": "// SPDX-License-Identifier: MIT\n\npragma solidity 0.6.12;\nimport {ERC1155} from '@openzeppelin/contracts/token/ERC1155/ERC1155.sol';\nimport {Ownable} from '@openzeppelin/contracts/access/Ownable.sol';\n\ncontract ShipsAndTechnology is Ownable, ERC1155 {\n    uint16 constant TOTAL_STARTING_ITEMS = 46;\n\n    enum ShipAndTechList {\n        FEDERATION_CRUISER,\n        FEDERATION_DESTROYER,\n        FEDERATION_MASTER_VESSEL,\n        FEDERATION_FIGHTER_PLANE,\n        FEDERATION_MARKET_SHIP,\n        FEDERATION_MINING_SHIP_SMALL,\n        FEDERATION_MINING_SHIP_MEDIUM,\n        FEDERATION_MINING_SHIP_LARGE,\n        FEDERATION_WEAPON_SYSTEM_SMALL,\n        FEDERATION_WEAPON_SYSTEM_MEDIUM,\n        FEDERATION_WEAPON_SYSTEM_LARGE,\n        ALIEN_MASTER_VESSEL,\n        ALIEN_CRUISER,\n        ALIEN_DESTROYER,\n        ALIEN_FIGHTER_PLANE,\n        ALIEN_MARKET_SHIP,\n        ALIEN_MINING_SHIP_SMALL,\n        ALIEN_MINING_SHIP_MEDIUM,\n        ALIEN_MINING_SHIP_LARGE,\n        ALIEN_WEAPON_SYSTEM_SMALL,\n        ALIEN_WEAPON_SYSTEM_MEDIUM,\n        ALIEN_WEAPON_SYSTEM_LARGE,\n        ADVANCED_RACE_MASTER_VESSEL,\n        ADVANCED_RACE_CRUISER,\n        ADVANCED_RACE_DESTROYER,\n        ADVANCED_RACE_FIGHTER_PLANE,\n        ADVANCED_RACE_MARKET_SHIP,\n        ADVANCED_RACE_MINING_SHIP_SMALL,\n        ADVANCED_RACE_MINING_SHIP_MEDIUM,\n        ADVANCED_RACE_MINING_SHIP_LARGE,\n        ADVANCED_RACE_WEAPON_SYSTEM_SMALL,\n        ADVANCED_RACE_WEAPON_SYSTEM_MEDIUM,\n        ADVANCED_RACE_WEAPON_SYSTEM_LARGE,\n        ANCIENT_MASTER_VESSEL,\n        ANCIENT_CRUISER,\n        ANCIENT_DESTROYER,\n        ANCIENT_FIGHTER_PLANE,\n        ANCIENT_MARKET_SHIP,\n        ANCIENT_MINING_SHIP_SMALL,\n        ANCIENT_MINING_SHIP_MEDIUM,\n        ANCIENT_MINING_SHIP_LARGE,\n        ANCIENT_WEAPON_SYSTEM_SMALL,\n        ANCIENT_WEAPON_SYSTEM_MEDIUM,\n        ANCIENT_WEAPON_SYSTEM_LARGE,\n        PIRATE_SHIP,\n        PIRATE_WEAPON\n    }\n\n    uint256 public constant PIRATE_SHIP = 48;\n    uint256 public constant PIRATE_WEAPON_SYSTEM = 49;\n\n    constructor(address _operator)\n        public\n        ERC1155('https://game.example/api/item/{1}.json')\n    {\n        for (uint256 i = 0; i < TOTAL_STARTING_ITEMS; i++) {\n            _mint(msg.sender, i, getAmount(i), '');\n        }\n        setApprovalForAll(_operator, true);\n    }\n\n    function getAmount(uint256 i) private returns (uint256 amount) {\n        if (\n            i == uint256(ShipAndTechList.ANCIENT_MINING_SHIP_SMALL) ||\n            i == uint256(ShipAndTechList.ANCIENT_WEAPON_SYSTEM_SMALL) ||\n            i == uint256(ShipAndTechList.ANCIENT_CRUISER)\n        ) {\n            amount = 1000;\n        } else if (\n            i == uint256(ShipAndTechList.ANCIENT_MINING_SHIP_MEDIUM) ||\n            i == uint256(ShipAndTechList.ANCIENT_WEAPON_SYSTEM_SMALL) ||\n            i == uint256(ShipAndTechList.ANCIENT_DESTROYER)\n        ) {\n            amount = 400;\n        } else if (\n            i == uint256(ShipAndTechList.ANCIENT_WEAPON_SYSTEM_LARGE) ||\n            i == uint256(ShipAndTechList.ANCIENT_MINING_SHIP_LARGE)\n        ) {\n            amount = 100;\n        } else if (i == uint256(ShipAndTechList.ANCIENT_MASTER_VESSEL)) {\n            amount = 10;\n        } else if (i == uint256(ShipAndTechList.ANCIENT_FIGHTER_PLANE)) {\n            amount = 10000;\n        } else {\n            amount = 10**9;\n        }\n    }\n}\n",
  "sourcePath": "C:\\Users\\James\\projects\\tsuno-fe\\contracts\\protocol\\ShipsAndTechnology.sol",
  "compiler": {
    "name": "solc",
    "version": "0.6.12+commit.27d51765.Emscripten.clang"
  },
  "schemaVersion": "3.2.5",
  "updatedAt": "2020-09-25T15:32:51.128Z",
  "networkType": "ethereum",
  "devdoc": {
    "kind": "dev",
    "methods": {
      "balanceOf(address,uint256)": {
        "details": "See {IERC1155-balanceOf}. Requirements: - `account` cannot be the zero address."
      },
      "balanceOfBatch(address[],uint256[])": {
        "details": "See {IERC1155-balanceOfBatch}. Requirements: - `accounts` and `ids` must have the same length."
      },
      "isApprovedForAll(address,address)": {
        "details": "See {IERC1155-isApprovedForAll}."
      },
      "owner()": {
        "details": "Returns the address of the current owner."
      },
      "renounceOwnership()": {
        "details": "Leaves the contract without owner. It will not be possible to call `onlyOwner` functions anymore. Can only be called by the current owner. NOTE: Renouncing ownership will leave the contract without an owner, thereby removing any functionality that is only available to the owner."
      },
      "safeBatchTransferFrom(address,address,uint256[],uint256[],bytes)": {
        "details": "See {IERC1155-safeBatchTransferFrom}."
      },
      "safeTransferFrom(address,address,uint256,uint256,bytes)": {
        "details": "See {IERC1155-safeTransferFrom}."
      },
      "setApprovalForAll(address,bool)": {
        "details": "See {IERC1155-setApprovalForAll}."
      },
      "supportsInterface(bytes4)": {
        "details": "See {IERC165-supportsInterface}. Time complexity O(1), guaranteed to always use less than 30 000 gas."
      },
      "transferOwnership(address)": {
        "details": "Transfers ownership of the contract to a new account (`newOwner`). Can only be called by the current owner."
      },
      "uri(uint256)": {
        "details": "See {IERC1155MetadataURI-uri}. This implementation returns the same URI for *all* token types. It relies on the token type ID substitution mechanism https://eips.ethereum.org/EIPS/eip-1155#metadata[defined in the EIP]. Clients calling this function must replace the `\\{id\\}` substring with the actual token type ID."
      }
    },
    "version": 1
  },
  "userdoc": {
    "kind": "user",
    "methods": {},
    "version": 1
  }
}