{
  "contractName": "ShipsAndTechnology",
  "abi": [
    {
      "inputs": [],
      "stateMutability": "nonpayable",
      "type": "constructor"
    },
    {
      "anonymous": false,
      "inputs": [
        {
          "indexed": true,
          "internalType": "address",
          "name": "account",
          "type": "address"
        },
        {
          "indexed": true,
          "internalType": "address",
          "name": "operator",
          "type": "address"
        },
        {
          "indexed": false,
          "internalType": "bool",
          "name": "approved",
          "type": "bool"
        }
      ],
      "name": "ApprovalForAll",
      "type": "event"
    },
    {
      "anonymous": false,
      "inputs": [
        {
          "indexed": true,
          "internalType": "address",
          "name": "previousOwner",
          "type": "address"
        },
        {
          "indexed": true,
          "internalType": "address",
          "name": "newOwner",
          "type": "address"
        }
      ],
      "name": "OwnershipTransferred",
      "type": "event"
    },
    {
      "anonymous": false,
      "inputs": [
        {
          "indexed": true,
          "internalType": "address",
          "name": "operator",
          "type": "address"
        },
        {
          "indexed": true,
          "internalType": "address",
          "name": "from",
          "type": "address"
        },
        {
          "indexed": true,
          "internalType": "address",
          "name": "to",
          "type": "address"
        },
        {
          "indexed": false,
          "internalType": "uint256[]",
          "name": "ids",
          "type": "uint256[]"
        },
        {
          "indexed": false,
          "internalType": "uint256[]",
          "name": "values",
          "type": "uint256[]"
        }
      ],
      "name": "TransferBatch",
      "type": "event"
    },
    {
      "anonymous": false,
      "inputs": [
        {
          "indexed": true,
          "internalType": "address",
          "name": "operator",
          "type": "address"
        },
        {
          "indexed": true,
          "internalType": "address",
          "name": "from",
          "type": "address"
        },
        {
          "indexed": true,
          "internalType": "address",
          "name": "to",
          "type": "address"
        },
        {
          "indexed": false,
          "internalType": "uint256",
          "name": "id",
          "type": "uint256"
        },
        {
          "indexed": false,
          "internalType": "uint256",
          "name": "value",
          "type": "uint256"
        }
      ],
      "name": "TransferSingle",
      "type": "event"
    },
    {
      "anonymous": false,
      "inputs": [
        {
          "indexed": false,
          "internalType": "string",
          "name": "value",
          "type": "string"
        },
        {
          "indexed": true,
          "internalType": "uint256",
          "name": "id",
          "type": "uint256"
        }
      ],
      "name": "URI",
      "type": "event"
    },
    {
      "inputs": [],
      "name": "CRUISER",
      "outputs": [
        {
          "internalType": "uint256",
          "name": "",
          "type": "uint256"
        }
      ],
      "stateMutability": "view",
      "type": "function"
    },
    {
      "inputs": [],
      "name": "DESTROYER",
      "outputs": [
        {
          "internalType": "uint256",
          "name": "",
          "type": "uint256"
        }
      ],
      "stateMutability": "view",
      "type": "function"
    },
    {
      "inputs": [],
      "name": "SHIELD",
      "outputs": [
        {
          "internalType": "uint256",
          "name": "",
          "type": "uint256"
        }
      ],
      "stateMutability": "view",
      "type": "function"
    },
    {
      "inputs": [],
      "name": "SWORD",
      "outputs": [
        {
          "internalType": "uint256",
          "name": "",
          "type": "uint256"
        }
      ],
      "stateMutability": "view",
      "type": "function"
    },
    {
      "inputs": [],
      "name": "THORS_HAMMER",
      "outputs": [
        {
          "internalType": "uint256",
          "name": "",
          "type": "uint256"
        }
      ],
      "stateMutability": "view",
      "type": "function"
    },
    {
      "inputs": [
        {
          "internalType": "address",
          "name": "account",
          "type": "address"
        },
        {
          "internalType": "uint256",
          "name": "id",
          "type": "uint256"
        }
      ],
      "name": "balanceOf",
      "outputs": [
        {
          "internalType": "uint256",
          "name": "",
          "type": "uint256"
        }
      ],
      "stateMutability": "view",
      "type": "function"
    },
    {
      "inputs": [
        {
          "internalType": "address[]",
          "name": "accounts",
          "type": "address[]"
        },
        {
          "internalType": "uint256[]",
          "name": "ids",
          "type": "uint256[]"
        }
      ],
      "name": "balanceOfBatch",
      "outputs": [
        {
          "internalType": "uint256[]",
          "name": "",
          "type": "uint256[]"
        }
      ],
      "stateMutability": "view",
      "type": "function"
    },
    {
      "inputs": [
        {
          "internalType": "address",
          "name": "account",
          "type": "address"
        },
        {
          "internalType": "address",
          "name": "operator",
          "type": "address"
        }
      ],
      "name": "isApprovedForAll",
      "outputs": [
        {
          "internalType": "bool",
          "name": "",
          "type": "bool"
        }
      ],
      "stateMutability": "view",
      "type": "function"
    },
    {
      "inputs": [],
      "name": "owner",
      "outputs": [
        {
          "internalType": "address",
          "name": "",
          "type": "address"
        }
      ],
      "stateMutability": "view",
      "type": "function"
    },
    {
      "inputs": [],
      "name": "renounceOwnership",
      "outputs": [],
      "stateMutability": "nonpayable",
      "type": "function"
    },
    {
      "inputs": [
        {
          "internalType": "address",
          "name": "from",
          "type": "address"
        },
        {
          "internalType": "address",
          "name": "to",
          "type": "address"
        },
        {
          "internalType": "uint256[]",
          "name": "ids",
          "type": "uint256[]"
        },
        {
          "internalType": "uint256[]",
          "name": "amounts",
          "type": "uint256[]"
        },
        {
          "internalType": "bytes",
          "name": "data",
          "type": "bytes"
        }
      ],
      "name": "safeBatchTransferFrom",
      "outputs": [],
      "stateMutability": "nonpayable",
      "type": "function"
    },
    {
      "inputs": [
        {
          "internalType": "address",
          "name": "from",
          "type": "address"
        },
        {
          "internalType": "address",
          "name": "to",
          "type": "address"
        },
        {
          "internalType": "uint256",
          "name": "id",
          "type": "uint256"
        },
        {
          "internalType": "uint256",
          "name": "amount",
          "type": "uint256"
        },
        {
          "internalType": "bytes",
          "name": "data",
          "type": "bytes"
        }
      ],
      "name": "safeTransferFrom",
      "outputs": [],
      "stateMutability": "nonpayable",
      "type": "function"
    },
    {
      "inputs": [
        {
          "internalType": "address",
          "name": "operator",
          "type": "address"
        },
        {
          "internalType": "bool",
          "name": "approved",
          "type": "bool"
        }
      ],
      "name": "setApprovalForAll",
      "outputs": [],
      "stateMutability": "nonpayable",
      "type": "function"
    },
    {
      "inputs": [
        {
          "internalType": "bytes4",
          "name": "interfaceId",
          "type": "bytes4"
        }
      ],
      "name": "supportsInterface",
      "outputs": [
        {
          "internalType": "bool",
          "name": "",
          "type": "bool"
        }
      ],
      "stateMutability": "view",
      "type": "function"
    },
    {
      "inputs": [
        {
          "internalType": "address",
          "name": "newOwner",
          "type": "address"
        }
      ],
      "name": "transferOwnership",
      "outputs": [],
      "stateMutability": "nonpayable",
      "type": "function"
    },
    {
      "inputs": [
        {
          "internalType": "uint256",
          "name": "",
          "type": "uint256"
        }
      ],
      "name": "uri",
      "outputs": [
        {
          "internalType": "string",
          "name": "",
          "type": "string"
        }
      ],
      "stateMutability": "view",
      "type": "function"
    },
    {
      "inputs": [
        {
          "internalType": "address",
          "name": "_operator",
          "type": "address"
        }
      ],
      "name": "setOperator",
      "outputs": [],
      "stateMutability": "nonpayable",
      "type": "function"
    }
  ],
  "bytecode": "0x60806040523480156200001157600080fd5b5060405180606001604052806026815260200162002273602691396000620000386200019b565b600080546001600160a01b0319166001600160a01b0383169081178255604051929350917f8be0079c531659141344cd1fd0a4f28419497f9722a3daafe3b4186f6b6457e0908290a350620000946301ffc9a760e01b620001a0565b6200009f8162000228565b620000b1636cdb3d1360e11b620001a0565b620000c36303a24d0760e21b620001a0565b50620000f0336000670de0b6b3a7640000604051806020016040528060008152506200024160201b60201c565b620001203360016b033b2e3c9fd0803ce8000000604051806020016040528060008152506200024160201b60201c565b620001453360026001604051806020016040528060008152506200024160201b60201c565b6200016d336003633b9aca00604051806020016040528060008152506200024160201b60201c565b62000195336004633b9aca00604051806020016040528060008152506200024160201b60201c565b620007d7565b335b90565b6001600160e01b0319808216141562000200576040805162461bcd60e51b815260206004820152601c60248201527f4552433136353a20696e76616c696420696e7465726661636520696400000000604482015290519081900360640190fd5b6001600160e01b0319166000908152600160208190526040909120805460ff19169091179055565b80516200023d90600490602084019062000685565b5050565b6001600160a01b038416620002885760405162461bcd60e51b8152600401808060200182810382526021815260200180620022996021913960400191505060405180910390fd5b6000620002946200019b565b9050620002bb81600087620002a98862000370565b620002b48862000370565b87620003b5565b60008481526002602090815260408083206001600160a01b0389168452825290912054620002f491859062001217620003bd821b17901c565b60008581526002602090815260408083206001600160a01b03808b16808652918452828520959095558151898152928301889052815190948616927fc3d58168c5ae7397731d063d5bbf3d657854427343f4c083240f7aacaa2d0f6292908290030190a462000369816000878787876200041f565b5050505050565b604080516001808252818301909252606091829190602080830190803683370190505090508281600081518110620003a457fe5b602090810291909101015292915050565b505050505050565b60008282018381101562000418576040805162461bcd60e51b815260206004820152601b60248201527f536166654d6174683a206164646974696f6e206f766572666c6f770000000000604482015290519081900360640190fd5b9392505050565b6200043e846001600160a01b03166200067f60201b620012781760201c565b15620003b557836001600160a01b031663f23a6e6187878686866040518663ffffffff1660e01b815260040180866001600160a01b03168152602001856001600160a01b0316815260200184815260200183815260200180602001828103825283818151815260200191508051906020019080838360005b83811015620004d0578181015183820152602001620004b6565b50505050905090810190601f168015620004fe5780820380516001836020036101000a031916815260200191505b509650505050505050602060405180830381600087803b1580156200052257600080fd5b505af19250505080156200054957506040513d60208110156200054457600080fd5b505160015b62000625576200055862000727565b80620005655750620005ed565b8060405162461bcd60e51b81526004018080602001828103825283818151815260200191508051906020019080838360005b83811015620005b157818101518382015260200162000597565b50505050905090810190601f168015620005df5780820380516001836020036101000a031916815260200191505b509250505060405180910390fd5b60405162461bcd60e51b8152600401808060200182810382526034815260200180620022176034913960400191505060405180910390fd5b6001600160e01b0319811663f23a6e6160e01b14620006765760405162461bcd60e51b81526004018080602001828103825260288152602001806200224b6028913960400191505060405180910390fd5b50505050505050565b3b151590565b828054600181600116156101000203166002900490600052602060002090601f016020900481019282601f10620006c857805160ff1916838001178555620006f8565b82800160010185558215620006f8579182015b82811115620006f8578251825591602001919060010190620006db565b50620007069291506200070a565b5090565b5b808211156200070657600081556001016200070b565b60e01c90565b600060443d101562000739576200019d565b600481823e6308c379a06200074f825162000721565b146200075b576200019d565b6040513d600319016004823e80513d6001600160401b0380831160248401831017156200078c57505050506200019d565b82840192508251915080821115620007a857505050506200019d565b503d83016020828401011115620007c2575050506200019d565b601f01601f1916810160200160405291505090565b611a3080620007e76000396000f3fe608060405234801561001057600080fd5b506004361061010a5760003560e01c8063715018a6116100a2578063d562e20411610071578063d562e204146105e8578063e985e9c5146105f0578063ecdcc2dc1461061e578063f242432a14610626578063f2fde38b146106ef5761010a565b8063715018a6146105685780638da5cb5b14610570578063a22cb46514610594578063b3ab15fb146105c25761010a565b80632eb2c2d6116100de5780632eb2c2d6146102225780634e1273f4146103e55780635b2725ed146105585780635d5cdfa0146105605761010a565b8062fdd58e1461010f57806301ffc9a71461014d5780630e89341c1461018857806313dc989f1461021a575b600080fd5b61013b6004803603604081101561012557600080fd5b506001600160a01b038135169060200135610715565b60408051918252519081900360200190f35b6101746004803603602081101561016357600080fd5b50356001600160e01b031916610784565b604080519115158252519081900360200190f35b6101a56004803603602081101561019e57600080fd5b50356107a3565b6040805160208082528351818301528351919283929083019185019080838360005b838110156101df5781810151838201526020016101c7565b50505050905090810190601f16801561020c5780820380516001836020036101000a031916815260200191505b509250505060405180910390f35b61013b61083b565b6103e3600480360360a081101561023857600080fd5b6001600160a01b038235811692602081013590911691810190606081016040820135600160201b81111561026b57600080fd5b82018360208201111561027d57600080fd5b803590602001918460208302840111600160201b8311171561029e57600080fd5b9190808060200260200160405190810160405280939291908181526020018383602002808284376000920191909152509295949360208101935035915050600160201b8111156102ed57600080fd5b8201836020820111156102ff57600080fd5b803590602001918460208302840111600160201b8311171561032057600080fd5b9190808060200260200160405190810160405280939291908181526020018383602002808284376000920191909152509295949360208101935035915050600160201b81111561036f57600080fd5b82018360208201111561038157600080fd5b803590602001918460018302840111600160201b831117156103a257600080fd5b91908080601f016020809104026020016040519081016040528093929190818152602001838380828437600092019190915250929550610840945050505050565b005b610508600480360360408110156103fb57600080fd5b810190602081018135600160201b81111561041557600080fd5b82018360208201111561042757600080fd5b803590602001918460208302840111600160201b8311171561044857600080fd5b9190808060200260200160405190810160405280939291908181526020018383602002808284376000920191909152509295949360208101935035915050600160201b81111561049757600080fd5b8201836020820111156104a957600080fd5b803590602001918460208302840111600160201b831117156104ca57600080fd5b919080806020026020016040519081016040528093929190818152602001838360200280828437600092019190915250929550610b43945050505050565b60408051602080825283518183015283519192839290830191858101910280838360005b8381101561054457818101518382015260200161052c565b505050509050019250505060405180910390f35b61013b610cc1565b61013b610cc6565b6103e3610ccb565b610578610d7f565b604080516001600160a01b039092168252519081900360200190f35b6103e3600480360360408110156105aa57600080fd5b506001600160a01b0381351690602001351515610d8f565b6103e3600480360360208110156105d857600080fd5b50356001600160a01b0316610e7e565b61013b610f0a565b6101746004803603604081101561060657600080fd5b506001600160a01b0381358116916020013516610f0f565b61013b610f3d565b6103e3600480360360a081101561063c57600080fd5b6001600160a01b03823581169260208101359091169160408201359160608101359181019060a081016080820135600160201b81111561067b57600080fd5b82018360208201111561068d57600080fd5b803590602001918460018302840111600160201b831117156106ae57600080fd5b91908080601f016020809104026020016040519081016040528093929190818152602001838380828437600092019190915250929550610f42945050505050565b6103e36004803603602081101561070557600080fd5b50356001600160a01b031661110d565b60006001600160a01b03831661075c5760405162461bcd60e51b815260040180806020018281038252602b815260200180611855602b913960400191505060405180910390fd5b5060009081526002602090815260408083206001600160a01b03949094168352929052205490565b6001600160e01b03191660009081526001602052604090205460ff1690565b60048054604080516020601f600260001961010060018816150201909516949094049384018190048102820181019092528281526060939092909183018282801561082f5780601f106108045761010080835404028352916020019161082f565b820191906000526020600020905b81548152906001019060200180831161081257829003601f168201915b50505050509050919050565b600381565b81518351146108805760405162461bcd60e51b81526004018080602001828103825260288152602001806119d36028913960400191505060405180910390fd5b6001600160a01b0384166108c55760405162461bcd60e51b81526004018080602001828103825260258152602001806119006025913960400191505060405180910390fd5b6108cd61127e565b6001600160a01b0316856001600160a01b031614806108f857506108f8856108f361127e565b610f0f565b6109335760405162461bcd60e51b81526004018080602001828103825260328152602001806119256032913960400191505060405180910390fd5b600061093d61127e565b905061094d818787878787610b3b565b60005b8451811015610a5357600085828151811061096757fe5b60200260200101519050600085838151811061097f57fe5b602002602001015190506109ec816040518060600160405280602a8152602001611957602a91396002600086815260200190815260200160002060008d6001600160a01b03166001600160a01b03168152602001908152602001600020546112829092919063ffffffff16565b60008381526002602090815260408083206001600160a01b038e811685529252808320939093558a1681522054610a239082611217565b60009283526002602090815260408085206001600160a01b038c1686529091529092209190915550600101610950565b50846001600160a01b0316866001600160a01b0316826001600160a01b03167f4a39dc06d4c0dbc64b70af90fd698a233a518aa5d07e595d983b8c0526c8f7fb8787604051808060200180602001838103835285818151815260200191508051906020019060200280838360005b83811015610ad9578181015183820152602001610ac1565b50505050905001838103825284818151815260200191508051906020019060200280838360005b83811015610b18578181015183820152602001610b00565b5050505090500194505050505060405180910390a4610b3b818787878787611319565b505050505050565b60608151835114610b855760405162461bcd60e51b81526004018080602001828103825260298152602001806119aa6029913960400191505060405180910390fd5b6060835167ffffffffffffffff81118015610b9f57600080fd5b50604051908082528060200260200182016040528015610bc9578160200160208202803683370190505b50905060005b8451811015610cb95760006001600160a01b0316858281518110610bef57fe5b60200260200101516001600160a01b03161415610c3d5760405162461bcd60e51b81526004018080602001828103825260318152602001806118806031913960400191505060405180910390fd5b60026000858381518110610c4d57fe5b602002602001015181526020019081526020016000206000868381518110610c7157fe5b60200260200101516001600160a01b03166001600160a01b0316815260200190815260200160002054828281518110610ca657fe5b6020908102919091010152600101610bcf565b509392505050565b600481565b600081565b610cd361127e565b6000546001600160a01b03908116911614610d35576040805162461bcd60e51b815260206004820181905260248201527f4f776e61626c653a2063616c6c6572206973206e6f7420746865206f776e6572604482015290519081900360640190fd5b600080546040516001600160a01b03909116907f8be0079c531659141344cd1fd0a4f28419497f9722a3daafe3b4186f6b6457e0908390a3600080546001600160a01b0319169055565b6000546001600160a01b03165b90565b816001600160a01b0316610da161127e565b6001600160a01b03161415610de75760405162461bcd60e51b81526004018080602001828103825260298152602001806119816029913960400191505060405180910390fd5b8060036000610df461127e565b6001600160a01b03908116825260208083019390935260409182016000908120918716808252919093529120805460ff191692151592909217909155610e3861127e565b6001600160a01b03167f17307eab39ab6107e8899845ad3d59bd9653f200f220920489ca2b5937696c318360405180821515815260200191505060405180910390a35050565b610e8661127e565b6000546001600160a01b03908116911614610ee8576040805162461bcd60e51b815260206004820181905260248201527f4f776e61626c653a2063616c6c6572206973206e6f7420746865206f776e6572604482015290519081900360640190fd5b600580546001600160a01b0319166001600160a01b0392909216919091179055565b600281565b6001600160a01b03918216600090815260036020908152604080832093909416825291909152205460ff1690565b600181565b6001600160a01b038416610f875760405162461bcd60e51b81526004018080602001828103825260258152602001806119006025913960400191505060405180910390fd5b610f8f61127e565b6001600160a01b0316856001600160a01b03161480610fb55750610fb5856108f361127e565b610ff05760405162461bcd60e51b81526004018080602001828103825260298152602001806118d76029913960400191505060405180910390fd5b6000610ffa61127e565b905061101a81878761100b88611598565b61101488611598565b87610b3b565b611061836040518060600160405280602a8152602001611957602a913960008781526002602090815260408083206001600160a01b038d1684529091529020549190611282565b60008581526002602090815260408083206001600160a01b038b811685529252808320939093558716815220546110989084611217565b60008581526002602090815260408083206001600160a01b03808b168086529184529382902094909455805188815291820187905280518a8416938616927fc3d58168c5ae7397731d063d5bbf3d657854427343f4c083240f7aacaa2d0f6292908290030190a4610b3b8187878787876115dc565b61111561127e565b6000546001600160a01b03908116911614611177576040805162461bcd60e51b815260206004820181905260248201527f4f776e61626c653a2063616c6c6572206973206e6f7420746865206f776e6572604482015290519081900360640190fd5b6001600160a01b0381166111bc5760405162461bcd60e51b81526004018080602001828103825260268152602001806118b16026913960400191505060405180910390fd5b600080546040516001600160a01b03808516939216917f8be0079c531659141344cd1fd0a4f28419497f9722a3daafe3b4186f6b6457e091a3600080546001600160a01b0319166001600160a01b0392909216919091179055565b600082820183811015611271576040805162461bcd60e51b815260206004820152601b60248201527f536166654d6174683a206164646974696f6e206f766572666c6f770000000000604482015290519081900360640190fd5b9392505050565b3b151590565b3390565b600081848411156113115760405162461bcd60e51b81526004018080602001828103825283818151815260200191508051906020019080838360005b838110156112d65781810151838201526020016112be565b50505050905090810190601f1680156113035780820380516001836020036101000a031916815260200191505b509250505060405180910390fd5b505050900390565b61132b846001600160a01b0316611278565b15610b3b57836001600160a01b031663bc197c8187878686866040518663ffffffff1660e01b815260040180866001600160a01b03168152602001856001600160a01b03168152602001806020018060200180602001848103845287818151815260200191508051906020019060200280838360005b838110156113b95781810151838201526020016113a1565b50505050905001848103835286818151815260200191508051906020019060200280838360005b838110156113f85781810151838201526020016113e0565b50505050905001848103825285818151815260200191508051906020019080838360005b8381101561143457818101518382015260200161141c565b50505050905090810190601f1680156114615780820380516001836020036101000a031916815260200191505b5098505050505050505050602060405180830381600087803b15801561148657600080fd5b505af19250505080156114ab57506040513d60208110156114a657600080fd5b505160015b611540576114b7611753565b806114c25750611509565b60405162461bcd60e51b81526020600482018181528351602484015283518493919283926044019190850190808383600083156112d65781810151838201526020016112be565b60405162461bcd60e51b81526004018080602001828103825260348152602001806117f96034913960400191505060405180910390fd5b6001600160e01b0319811663bc197c8160e01b1461158f5760405162461bcd60e51b815260040180806020018281038252602881526020018061182d6028913960400191505060405180910390fd5b50505050505050565b6040805160018082528183019092526060918291906020808301908036833701905050905082816000815181106115cb57fe5b602090810291909101015292915050565b6115ee846001600160a01b0316611278565b15610b3b57836001600160a01b031663f23a6e6187878686866040518663ffffffff1660e01b815260040180866001600160a01b03168152602001856001600160a01b0316815260200184815260200183815260200180602001828103825283818151815260200191508051906020019080838360005b8381101561167d578181015183820152602001611665565b50505050905090810190601f1680156116aa5780820380516001836020036101000a031916815260200191505b509650505050505050602060405180830381600087803b1580156116cd57600080fd5b505af19250505080156116f257506040513d60208110156116ed57600080fd5b505160015b6116fe576114b7611753565b6001600160e01b0319811663f23a6e6160e01b1461158f5760405162461bcd60e51b815260040180806020018281038252602881526020018061182d6028913960400191505060405180910390fd5b60e01c90565b600060443d101561176357610d8c565b600481823e6308c379a0611777825161174d565b1461178157610d8c565b6040513d600319016004823e80513d67ffffffffffffffff81602484011181841117156117b15750505050610d8c565b828401925082519150808211156117cb5750505050610d8c565b503d830160208284010111156117e357505050610d8c565b601f01601f191681016020016040529150509056fe455243313135353a207472616e7366657220746f206e6f6e2045524331313535526563656976657220696d706c656d656e746572455243313135353a204552433131353552656365697665722072656a656374656420746f6b656e73455243313135353a2062616c616e636520717565727920666f7220746865207a65726f2061646472657373455243313135353a2062617463682062616c616e636520717565727920666f7220746865207a65726f20616464726573734f776e61626c653a206e6577206f776e657220697320746865207a65726f2061646472657373455243313135353a2063616c6c6572206973206e6f74206f776e6572206e6f7220617070726f766564455243313135353a207472616e7366657220746f20746865207a65726f2061646472657373455243313135353a207472616e736665722063616c6c6572206973206e6f74206f776e6572206e6f7220617070726f766564455243313135353a20696e73756666696369656e742062616c616e636520666f72207472616e73666572455243313135353a2073657474696e6720617070726f76616c2073746174757320666f722073656c66455243313135353a206163636f756e747320616e6420696473206c656e677468206d69736d61746368455243313135353a2069647320616e6420616d6f756e7473206c656e677468206d69736d61746368a26469706673582212209aed734b38892c14c96035f5b5872edcb132bcd38644c5e1b505af3b1ffbfd9864736f6c634300060c0033455243313135353a207472616e7366657220746f206e6f6e2045524331313535526563656976657220696d706c656d656e746572455243313135353a204552433131353552656365697665722072656a656374656420746f6b656e7368747470733a2f2f67616d652e6578616d706c652f6170692f6974656d2f7b317d2e6a736f6e455243313135353a206d696e7420746f20746865207a65726f2061646472657373",
  "immutableReferences": {},
  "source": "// SPDX-License-Identifier: MIT\n\npragma solidity 0.6.12;\nimport {ERC1155} from '@openzeppelin/contracts/token/ERC1155/ERC1155.sol';\nimport {Ownable} from '@openzeppelin/contracts/access/Ownable.sol';\n\ncontract ShipsAndTechnology is Ownable, ERC1155 {\n    uint256 public constant CRUISER = 0;\n    uint256 public constant DESTROYER = 1;\n    uint256 public constant THORS_HAMMER = 2;\n    uint256 public constant SWORD = 3;\n    uint256 public constant SHIELD = 4;\n    address private operator;\n\n    constructor() public ERC1155('https://game.example/api/item/{1}.json') {\n        _mint(msg.sender, CRUISER, 10**18, '');\n        _mint(msg.sender, DESTROYER, 10**27, '');\n        _mint(msg.sender, THORS_HAMMER, 1, '');\n        _mint(msg.sender, SWORD, 10**9, '');\n        _mint(msg.sender, SHIELD, 10**9, '');\n    }\n\n    function setOperator(address _operator) public onlyOwner {\n        operator = _operator;\n    }\n}\n",
  "sourcePath": "C:\\Users\\James\\projects\\tsuno-fe\\contracts\\protocol\\ShipsAndTechnology.sol",
  "compiler": {
    "name": "solc",
    "version": "0.6.12+commit.27d51765.Emscripten.clang"
  },
  "schemaVersion": "3.2.5",
  "updatedAt": "2020-09-23T19:25:48.059Z",
  "devdoc": {
    "kind": "dev",
    "methods": {
      "balanceOf(address,uint256)": {
        "details": "See {IERC1155-balanceOf}. Requirements: - `account` cannot be the zero address."
      },
      "balanceOfBatch(address[],uint256[])": {
        "details": "See {IERC1155-balanceOfBatch}. Requirements: - `accounts` and `ids` must have the same length."
      },
      "isApprovedForAll(address,address)": {
        "details": "See {IERC1155-isApprovedForAll}."
      },
      "owner()": {
        "details": "Returns the address of the current owner."
      },
      "renounceOwnership()": {
        "details": "Leaves the contract without owner. It will not be possible to call `onlyOwner` functions anymore. Can only be called by the current owner. NOTE: Renouncing ownership will leave the contract without an owner, thereby removing any functionality that is only available to the owner."
      },
      "safeBatchTransferFrom(address,address,uint256[],uint256[],bytes)": {
        "details": "See {IERC1155-safeBatchTransferFrom}."
      },
      "safeTransferFrom(address,address,uint256,uint256,bytes)": {
        "details": "See {IERC1155-safeTransferFrom}."
      },
      "setApprovalForAll(address,bool)": {
        "details": "See {IERC1155-setApprovalForAll}."
      },
      "supportsInterface(bytes4)": {
        "details": "See {IERC165-supportsInterface}. Time complexity O(1), guaranteed to always use less than 30 000 gas."
      },
      "transferOwnership(address)": {
        "details": "Transfers ownership of the contract to a new account (`newOwner`). Can only be called by the current owner."
      },
      "uri(uint256)": {
        "details": "See {IERC1155MetadataURI-uri}. This implementation returns the same URI for *all* token types. It relies on the token type ID substitution mechanism https://eips.ethereum.org/EIPS/eip-1155#metadata[defined in the EIP]. Clients calling this function must replace the `\\{id\\}` substring with the actual token type ID."
      }
    },
    "version": 1
  },
  "userdoc": {
    "kind": "user",
    "methods": {},
    "version": 1
  }
}