{
  "contractName": "ShipsAndTechnology",
  "abi": [
    {
      "inputs": [
        {
          "internalType": "address",
          "name": "_es",
          "type": "address"
        },
        {
          "internalType": "address",
          "name": "_holder",
          "type": "address"
        }
      ],
      "stateMutability": "nonpayable",
      "type": "constructor"
    },
    {
      "anonymous": false,
      "inputs": [
        {
          "indexed": true,
          "internalType": "address",
          "name": "account",
          "type": "address"
        },
        {
          "indexed": true,
          "internalType": "address",
          "name": "operator",
          "type": "address"
        },
        {
          "indexed": false,
          "internalType": "bool",
          "name": "approved",
          "type": "bool"
        }
      ],
      "name": "ApprovalForAll",
      "type": "event"
    },
    {
      "anonymous": false,
      "inputs": [
        {
          "indexed": true,
          "internalType": "address",
          "name": "previousOwner",
          "type": "address"
        },
        {
          "indexed": true,
          "internalType": "address",
          "name": "newOwner",
          "type": "address"
        }
      ],
      "name": "OwnershipTransferred",
      "type": "event"
    },
    {
      "anonymous": false,
      "inputs": [
        {
          "indexed": true,
          "internalType": "address",
          "name": "operator",
          "type": "address"
        },
        {
          "indexed": true,
          "internalType": "address",
          "name": "from",
          "type": "address"
        },
        {
          "indexed": true,
          "internalType": "address",
          "name": "to",
          "type": "address"
        },
        {
          "indexed": false,
          "internalType": "uint256[]",
          "name": "ids",
          "type": "uint256[]"
        },
        {
          "indexed": false,
          "internalType": "uint256[]",
          "name": "values",
          "type": "uint256[]"
        }
      ],
      "name": "TransferBatch",
      "type": "event"
    },
    {
      "anonymous": false,
      "inputs": [
        {
          "indexed": true,
          "internalType": "address",
          "name": "operator",
          "type": "address"
        },
        {
          "indexed": true,
          "internalType": "address",
          "name": "from",
          "type": "address"
        },
        {
          "indexed": true,
          "internalType": "address",
          "name": "to",
          "type": "address"
        },
        {
          "indexed": false,
          "internalType": "uint256",
          "name": "id",
          "type": "uint256"
        },
        {
          "indexed": false,
          "internalType": "uint256",
          "name": "value",
          "type": "uint256"
        }
      ],
      "name": "TransferSingle",
      "type": "event"
    },
    {
      "anonymous": false,
      "inputs": [
        {
          "indexed": false,
          "internalType": "string",
          "name": "value",
          "type": "string"
        },
        {
          "indexed": true,
          "internalType": "uint256",
          "name": "id",
          "type": "uint256"
        }
      ],
      "name": "URI",
      "type": "event"
    },
    {
      "inputs": [
        {
          "internalType": "address",
          "name": "account",
          "type": "address"
        },
        {
          "internalType": "uint256",
          "name": "id",
          "type": "uint256"
        }
      ],
      "name": "balanceOf",
      "outputs": [
        {
          "internalType": "uint256",
          "name": "",
          "type": "uint256"
        }
      ],
      "stateMutability": "view",
      "type": "function"
    },
    {
      "inputs": [
        {
          "internalType": "address[]",
          "name": "accounts",
          "type": "address[]"
        },
        {
          "internalType": "uint256[]",
          "name": "ids",
          "type": "uint256[]"
        }
      ],
      "name": "balanceOfBatch",
      "outputs": [
        {
          "internalType": "uint256[]",
          "name": "",
          "type": "uint256[]"
        }
      ],
      "stateMutability": "view",
      "type": "function"
    },
    {
      "inputs": [
        {
          "internalType": "address",
          "name": "account",
          "type": "address"
        },
        {
          "internalType": "address",
          "name": "operator",
          "type": "address"
        }
      ],
      "name": "isApprovedForAll",
      "outputs": [
        {
          "internalType": "bool",
          "name": "",
          "type": "bool"
        }
      ],
      "stateMutability": "view",
      "type": "function"
    },
    {
      "inputs": [],
      "name": "owner",
      "outputs": [
        {
          "internalType": "address",
          "name": "",
          "type": "address"
        }
      ],
      "stateMutability": "view",
      "type": "function"
    },
    {
      "inputs": [],
      "name": "renounceOwnership",
      "outputs": [],
      "stateMutability": "nonpayable",
      "type": "function"
    },
    {
      "inputs": [
        {
          "internalType": "address",
          "name": "from",
          "type": "address"
        },
        {
          "internalType": "address",
          "name": "to",
          "type": "address"
        },
        {
          "internalType": "uint256[]",
          "name": "ids",
          "type": "uint256[]"
        },
        {
          "internalType": "uint256[]",
          "name": "amounts",
          "type": "uint256[]"
        },
        {
          "internalType": "bytes",
          "name": "data",
          "type": "bytes"
        }
      ],
      "name": "safeBatchTransferFrom",
      "outputs": [],
      "stateMutability": "nonpayable",
      "type": "function"
    },
    {
      "inputs": [
        {
          "internalType": "address",
          "name": "from",
          "type": "address"
        },
        {
          "internalType": "address",
          "name": "to",
          "type": "address"
        },
        {
          "internalType": "uint256",
          "name": "id",
          "type": "uint256"
        },
        {
          "internalType": "uint256",
          "name": "amount",
          "type": "uint256"
        },
        {
          "internalType": "bytes",
          "name": "data",
          "type": "bytes"
        }
      ],
      "name": "safeTransferFrom",
      "outputs": [],
      "stateMutability": "nonpayable",
      "type": "function"
    },
    {
      "inputs": [
        {
          "internalType": "address",
          "name": "operator",
          "type": "address"
        },
        {
          "internalType": "bool",
          "name": "approved",
          "type": "bool"
        }
      ],
      "name": "setApprovalForAll",
      "outputs": [],
      "stateMutability": "nonpayable",
      "type": "function"
    },
    {
      "inputs": [
        {
          "internalType": "bytes4",
          "name": "interfaceId",
          "type": "bytes4"
        }
      ],
      "name": "supportsInterface",
      "outputs": [
        {
          "internalType": "bool",
          "name": "",
          "type": "bool"
        }
      ],
      "stateMutability": "view",
      "type": "function"
    },
    {
      "inputs": [
        {
          "internalType": "address",
          "name": "newOwner",
          "type": "address"
        }
      ],
      "name": "transferOwnership",
      "outputs": [],
      "stateMutability": "nonpayable",
      "type": "function"
    },
    {
      "inputs": [
        {
          "internalType": "uint256",
          "name": "",
          "type": "uint256"
        }
      ],
      "name": "uri",
      "outputs": [
        {
          "internalType": "string",
          "name": "",
          "type": "string"
        }
      ],
      "stateMutability": "view",
      "type": "function"
    }
  ],
  "bytecode": "0x60806040523480156200001157600080fd5b50604051620021cc380380620021cc833981810160405260408110156200003757600080fd5b50805160209182015160408051606081019091526026808252929391929091620021859083013960006200006a62000156565b600080546001600160a01b0319166001600160a01b0383169081178255604051929350917f8be0079c531659141344cd1fd0a4f28419497f9722a3daafe3b4186f6b6457e0908290a350620000c66301ffc9a760e01b6200015b565b620000d181620001e3565b620000e3636cdb3d1360e11b6200015b565b620000f56303a24d0760e21b6200015b565b50600580546001600160a01b0319166001600160a01b03841617905560005b602e8110156200014d576200014482826200012f81620001fc565b604080516020810190915260008152620002a8565b60010162000114565b5050506200083e565b335b90565b6001600160e01b03198082161415620001bb576040805162461bcd60e51b815260206004820152601c60248201527f4552433136353a20696e76616c696420696e7465726661636520696400000000604482015290519081900360640190fd5b6001600160e01b0319166000908152600160208190526040909120805460ff19169091179055565b8051620001f8906004906020840190620006ec565b5050565b600060268214806200020e5750602982145b806200021a5750602282145b156200022a57506103e8620002a3565b60278214806200023a5750602982145b80620002465750602382145b15620002565750610190620002a3565b602b821480620002665750602882145b156200027557506064620002a3565b6021821415620002885750600a620002a3565b60248214156200029c5750612710620002a3565b50633b9aca005b919050565b6001600160a01b038416620002ef5760405162461bcd60e51b8152600401808060200182810382526021815260200180620021ab6021913960400191505060405180910390fd5b6000620002fb62000156565b905062000322816000876200031088620003d7565b6200031b88620003d7565b876200041c565b60008481526002602090815260408083206001600160a01b03891684528252909120546200035b918590620010c262000424821b17901c565b60008581526002602090815260408083206001600160a01b03808b16808652918452828520959095558151898152928301889052815190948616927fc3d58168c5ae7397731d063d5bbf3d657854427343f4c083240f7aacaa2d0f6292908290030190a4620003d08160008787878762000486565b5050505050565b6040805160018082528183019092526060918291906020808301908036833701905050905082816000815181106200040b57fe5b602090810291909101015292915050565b505050505050565b6000828201838110156200047f576040805162461bcd60e51b815260206004820152601b60248201527f536166654d6174683a206164646974696f6e206f766572666c6f770000000000604482015290519081900360640190fd5b9392505050565b620004a5846001600160a01b0316620006e660201b620011231760201c565b156200041c57836001600160a01b031663f23a6e6187878686866040518663ffffffff1660e01b815260040180866001600160a01b03168152602001856001600160a01b0316815260200184815260200183815260200180602001828103825283818151815260200191508051906020019080838360005b83811015620005375781810151838201526020016200051d565b50505050905090810190601f168015620005655780820380516001836020036101000a031916815260200191505b509650505050505050602060405180830381600087803b1580156200058957600080fd5b505af1925050508015620005b057506040513d6020811015620005ab57600080fd5b505160015b6200068c57620005bf6200078e565b80620005cc575062000654565b8060405162461bcd60e51b81526004018080602001828103825283818151815260200191508051906020019080838360005b8381101562000618578181015183820152602001620005fe565b50505050905090810190601f168015620006465780820380516001836020036101000a031916815260200191505b509250505060405180910390fd5b60405162461bcd60e51b8152600401808060200182810382526034815260200180620021296034913960400191505060405180910390fd5b6001600160e01b0319811663f23a6e6160e01b14620006dd5760405162461bcd60e51b81526004018080602001828103825260288152602001806200215d6028913960400191505060405180910390fd5b50505050505050565b3b151590565b828054600181600116156101000203166002900490600052602060002090601f016020900481019282601f106200072f57805160ff19168380011785556200075f565b828001600101855582156200075f579182015b828111156200075f57825182559160200191906001019062000742565b506200076d92915062000771565b5090565b5b808211156200076d576000815560010162000772565b60e01c90565b600060443d1015620007a05762000158565b600481823e6308c379a0620007b6825162000788565b14620007c25762000158565b6040513d600319016004823e80513d6001600160401b038083116024840183101715620007f3575050505062000158565b828401925082519150808211156200080f575050505062000158565b503d83016020828401011115620008295750505062000158565b601f01601f1916810160200160405291505090565b6118db806200084e6000396000f3fe608060405234801561001057600080fd5b50600436106100a85760003560e01c8063715018a611610071578063715018a6146104ee5780638da5cb5b146104f6578063a22cb4651461051a578063e985e9c514610548578063f242432a14610576578063f2fde38b1461063f576100a8565b8062fdd58e146100ad57806301ffc9a7146100eb5780630e89341c146101265780632eb2c2d6146101b85780634e1273f41461037b575b600080fd5b6100d9600480360360408110156100c357600080fd5b506001600160a01b038135169060200135610665565b60408051918252519081900360200190f35b6101126004803603602081101561010157600080fd5b50356001600160e01b0319166106d4565b604080519115158252519081900360200190f35b6101436004803603602081101561013c57600080fd5b50356106f3565b6040805160208082528351818301528351919283929083019185019080838360005b8381101561017d578181015183820152602001610165565b50505050905090810190601f1680156101aa5780820380516001836020036101000a031916815260200191505b509250505060405180910390f35b610379600480360360a08110156101ce57600080fd5b6001600160a01b038235811692602081013590911691810190606081016040820135600160201b81111561020157600080fd5b82018360208201111561021357600080fd5b803590602001918460208302840111600160201b8311171561023457600080fd5b9190808060200260200160405190810160405280939291908181526020018383602002808284376000920191909152509295949360208101935035915050600160201b81111561028357600080fd5b82018360208201111561029557600080fd5b803590602001918460208302840111600160201b831117156102b657600080fd5b9190808060200260200160405190810160405280939291908181526020018383602002808284376000920191909152509295949360208101935035915050600160201b81111561030557600080fd5b82018360208201111561031757600080fd5b803590602001918460018302840111600160201b8311171561033857600080fd5b91908080601f01602080910402602001604051908101604052809392919081815260200183838082843760009201919091525092955061078b945050505050565b005b61049e6004803603604081101561039157600080fd5b810190602081018135600160201b8111156103ab57600080fd5b8201836020820111156103bd57600080fd5b803590602001918460208302840111600160201b831117156103de57600080fd5b9190808060200260200160405190810160405280939291908181526020018383602002808284376000920191909152509295949360208101935035915050600160201b81111561042d57600080fd5b82018360208201111561043f57600080fd5b803590602001918460208302840111600160201b8311171561046057600080fd5b919080806020026020016040519081016040528093929190818152602001838360200280828437600092019190915250929550610a8e945050505050565b60408051602080825283518183015283519192839290830191858101910280838360005b838110156104da5781810151838201526020016104c2565b505050509050019250505060405180910390f35b610379610c0c565b6104fe610cc0565b604080516001600160a01b039092168252519081900360200190f35b6103796004803603604081101561053057600080fd5b506001600160a01b0381351690602001351515610cd0565b6101126004803603604081101561055e57600080fd5b506001600160a01b0381358116916020013516610dbf565b610379600480360360a081101561058c57600080fd5b6001600160a01b03823581169260208101359091169160408201359160608101359181019060a081016080820135600160201b8111156105cb57600080fd5b8201836020820111156105dd57600080fd5b803590602001918460018302840111600160201b831117156105fe57600080fd5b91908080601f016020809104026020016040519081016040528093929190818152602001838380828437600092019190915250929550610ded945050505050565b6103796004803603602081101561065557600080fd5b50356001600160a01b0316610fb8565b60006001600160a01b0383166106ac5760405162461bcd60e51b815260040180806020018281038252602b815260200180611700602b913960400191505060405180910390fd5b5060009081526002602090815260408083206001600160a01b03949094168352929052205490565b6001600160e01b03191660009081526001602052604090205460ff1690565b60048054604080516020601f600260001961010060018816150201909516949094049384018190048102820181019092528281526060939092909183018282801561077f5780601f106107545761010080835404028352916020019161077f565b820191906000526020600020905b81548152906001019060200180831161076257829003601f168201915b50505050509050919050565b81518351146107cb5760405162461bcd60e51b815260040180806020018281038252602881526020018061187e6028913960400191505060405180910390fd5b6001600160a01b0384166108105760405162461bcd60e51b81526004018080602001828103825260258152602001806117ab6025913960400191505060405180910390fd5b610818611129565b6001600160a01b0316856001600160a01b0316148061084357506108438561083e611129565b610dbf565b61087e5760405162461bcd60e51b81526004018080602001828103825260328152602001806117d06032913960400191505060405180910390fd5b6000610888611129565b9050610898818787878787610a86565b60005b845181101561099e5760008582815181106108b257fe5b6020026020010151905060008583815181106108ca57fe5b60200260200101519050610937816040518060600160405280602a8152602001611802602a91396002600086815260200190815260200160002060008d6001600160a01b03166001600160a01b031681526020019081526020016000205461112d9092919063ffffffff16565b60008381526002602090815260408083206001600160a01b038e811685529252808320939093558a168152205461096e90826110c2565b60009283526002602090815260408085206001600160a01b038c168652909152909220919091555060010161089b565b50846001600160a01b0316866001600160a01b0316826001600160a01b03167f4a39dc06d4c0dbc64b70af90fd698a233a518aa5d07e595d983b8c0526c8f7fb8787604051808060200180602001838103835285818151815260200191508051906020019060200280838360005b83811015610a24578181015183820152602001610a0c565b50505050905001838103825284818151815260200191508051906020019060200280838360005b83811015610a63578181015183820152602001610a4b565b5050505090500194505050505060405180910390a4610a868187878787876111c4565b505050505050565b60608151835114610ad05760405162461bcd60e51b81526004018080602001828103825260298152602001806118556029913960400191505060405180910390fd5b6060835167ffffffffffffffff81118015610aea57600080fd5b50604051908082528060200260200182016040528015610b14578160200160208202803683370190505b50905060005b8451811015610c045760006001600160a01b0316858281518110610b3a57fe5b60200260200101516001600160a01b03161415610b885760405162461bcd60e51b815260040180806020018281038252603181526020018061172b6031913960400191505060405180910390fd5b60026000858381518110610b9857fe5b602002602001015181526020019081526020016000206000868381518110610bbc57fe5b60200260200101516001600160a01b03166001600160a01b0316815260200190815260200160002054828281518110610bf157fe5b6020908102919091010152600101610b1a565b509392505050565b610c14611129565b6000546001600160a01b03908116911614610c76576040805162461bcd60e51b815260206004820181905260248201527f4f776e61626c653a2063616c6c6572206973206e6f7420746865206f776e6572604482015290519081900360640190fd5b600080546040516001600160a01b03909116907f8be0079c531659141344cd1fd0a4f28419497f9722a3daafe3b4186f6b6457e0908390a3600080546001600160a01b0319169055565b6000546001600160a01b03165b90565b816001600160a01b0316610ce2611129565b6001600160a01b03161415610d285760405162461bcd60e51b815260040180806020018281038252602981526020018061182c6029913960400191505060405180910390fd5b8060036000610d35611129565b6001600160a01b03908116825260208083019390935260409182016000908120918716808252919093529120805460ff191692151592909217909155610d79611129565b6001600160a01b03167f17307eab39ab6107e8899845ad3d59bd9653f200f220920489ca2b5937696c318360405180821515815260200191505060405180910390a35050565b6001600160a01b03918216600090815260036020908152604080832093909416825291909152205460ff1690565b6001600160a01b038416610e325760405162461bcd60e51b81526004018080602001828103825260258152602001806117ab6025913960400191505060405180910390fd5b610e3a611129565b6001600160a01b0316856001600160a01b03161480610e605750610e608561083e611129565b610e9b5760405162461bcd60e51b81526004018080602001828103825260298152602001806117826029913960400191505060405180910390fd5b6000610ea5611129565b9050610ec5818787610eb688611443565b610ebf88611443565b87610a86565b610f0c836040518060600160405280602a8152602001611802602a913960008781526002602090815260408083206001600160a01b038d168452909152902054919061112d565b60008581526002602090815260408083206001600160a01b038b81168552925280832093909355871681522054610f4390846110c2565b60008581526002602090815260408083206001600160a01b03808b168086529184529382902094909455805188815291820187905280518a8416938616927fc3d58168c5ae7397731d063d5bbf3d657854427343f4c083240f7aacaa2d0f6292908290030190a4610a86818787878787611487565b610fc0611129565b6000546001600160a01b03908116911614611022576040805162461bcd60e51b815260206004820181905260248201527f4f776e61626c653a2063616c6c6572206973206e6f7420746865206f776e6572604482015290519081900360640190fd5b6001600160a01b0381166110675760405162461bcd60e51b815260040180806020018281038252602681526020018061175c6026913960400191505060405180910390fd5b600080546040516001600160a01b03808516939216917f8be0079c531659141344cd1fd0a4f28419497f9722a3daafe3b4186f6b6457e091a3600080546001600160a01b0319166001600160a01b0392909216919091179055565b60008282018381101561111c576040805162461bcd60e51b815260206004820152601b60248201527f536166654d6174683a206164646974696f6e206f766572666c6f770000000000604482015290519081900360640190fd5b9392505050565b3b151590565b3390565b600081848411156111bc5760405162461bcd60e51b81526004018080602001828103825283818151815260200191508051906020019080838360005b83811015611181578181015183820152602001611169565b50505050905090810190601f1680156111ae5780820380516001836020036101000a031916815260200191505b509250505060405180910390fd5b505050900390565b6111d6846001600160a01b0316611123565b15610a8657836001600160a01b031663bc197c8187878686866040518663ffffffff1660e01b815260040180866001600160a01b03168152602001856001600160a01b03168152602001806020018060200180602001848103845287818151815260200191508051906020019060200280838360005b8381101561126457818101518382015260200161124c565b50505050905001848103835286818151815260200191508051906020019060200280838360005b838110156112a357818101518382015260200161128b565b50505050905001848103825285818151815260200191508051906020019080838360005b838110156112df5781810151838201526020016112c7565b50505050905090810190601f16801561130c5780820380516001836020036101000a031916815260200191505b5098505050505050505050602060405180830381600087803b15801561133157600080fd5b505af192505050801561135657506040513d602081101561135157600080fd5b505160015b6113eb576113626115fe565b8061136d57506113b4565b60405162461bcd60e51b8152602060048201818152835160248401528351849391928392604401919085019080838360008315611181578181015183820152602001611169565b60405162461bcd60e51b81526004018080602001828103825260348152602001806116a46034913960400191505060405180910390fd5b6001600160e01b0319811663bc197c8160e01b1461143a5760405162461bcd60e51b81526004018080602001828103825260288152602001806116d86028913960400191505060405180910390fd5b50505050505050565b60408051600180825281830190925260609182919060208083019080368337019050509050828160008151811061147657fe5b602090810291909101015292915050565b611499846001600160a01b0316611123565b15610a8657836001600160a01b031663f23a6e6187878686866040518663ffffffff1660e01b815260040180866001600160a01b03168152602001856001600160a01b0316815260200184815260200183815260200180602001828103825283818151815260200191508051906020019080838360005b83811015611528578181015183820152602001611510565b50505050905090810190601f1680156115555780820380516001836020036101000a031916815260200191505b509650505050505050602060405180830381600087803b15801561157857600080fd5b505af192505050801561159d57506040513d602081101561159857600080fd5b505160015b6115a9576113626115fe565b6001600160e01b0319811663f23a6e6160e01b1461143a5760405162461bcd60e51b81526004018080602001828103825260288152602001806116d86028913960400191505060405180910390fd5b60e01c90565b600060443d101561160e57610ccd565b600481823e6308c379a061162282516115f8565b1461162c57610ccd565b6040513d600319016004823e80513d67ffffffffffffffff816024840111818411171561165c5750505050610ccd565b828401925082519150808211156116765750505050610ccd565b503d8301602082840101111561168e57505050610ccd565b601f01601f191681016020016040529150509056fe455243313135353a207472616e7366657220746f206e6f6e2045524331313535526563656976657220696d706c656d656e746572455243313135353a204552433131353552656365697665722072656a656374656420746f6b656e73455243313135353a2062616c616e636520717565727920666f7220746865207a65726f2061646472657373455243313135353a2062617463682062616c616e636520717565727920666f7220746865207a65726f20616464726573734f776e61626c653a206e6577206f776e657220697320746865207a65726f2061646472657373455243313135353a2063616c6c6572206973206e6f74206f776e6572206e6f7220617070726f766564455243313135353a207472616e7366657220746f20746865207a65726f2061646472657373455243313135353a207472616e736665722063616c6c6572206973206e6f74206f776e6572206e6f7220617070726f766564455243313135353a20696e73756666696369656e742062616c616e636520666f72207472616e73666572455243313135353a2073657474696e6720617070726f76616c2073746174757320666f722073656c66455243313135353a206163636f756e747320616e6420696473206c656e677468206d69736d61746368455243313135353a2069647320616e6420616d6f756e7473206c656e677468206d69736d61746368a2646970667358221220f6057f5dc918e6b0581e0f8f54bd7d39164a1e078d362e7013c0af84a3264f0a64736f6c634300060c0033455243313135353a207472616e7366657220746f206e6f6e2045524331313535526563656976657220696d706c656d656e746572455243313135353a204552433131353552656365697665722072656a656374656420746f6b656e7368747470733a2f2f67616d652e6578616d706c652f6170692f6974656d2f7b317d2e6a736f6e455243313135353a206d696e7420746f20746865207a65726f2061646472657373",
  "immutableReferences": {},
  "source": "// SPDX-License-Identifier: MIT\n\npragma solidity 0.6.12;\nimport {ERC1155} from '@openzeppelin/contracts/token/ERC1155/ERC1155.sol';\nimport {Ownable} from '@openzeppelin/contracts/access/Ownable.sol';\nimport {EternalStorage} from './EternalStorage.sol';\n\ncontract ShipsAndTechnology is Ownable, ERC1155 {\n    EternalStorage es;\n    uint16 constant TOTAL_STARTING_ITEMS = 46;\n\n    enum ShipAndTechList {\n        FEDERATION_CRUISER,\n        FEDERATION_DESTROYER,\n        FEDERATION_MASTER_VESSEL,\n        FEDERATION_FIGHTER_PLANE,\n        FEDERATION_MARKET_SHIP,\n        FEDERATION_MINING_SHIP_SMALL,\n        FEDERATION_MINING_SHIP_MEDIUM,\n        FEDERATION_MINING_SHIP_LARGE,\n        FEDERATION_WEAPON_SYSTEM_SMALL,\n        FEDERATION_WEAPON_SYSTEM_MEDIUM,\n        FEDERATION_WEAPON_SYSTEM_LARGE,\n        ALIEN_MASTER_VESSEL,\n        ALIEN_CRUISER,\n        ALIEN_DESTROYER,\n        ALIEN_FIGHTER_PLANE,\n        ALIEN_MARKET_SHIP,\n        ALIEN_MINING_SHIP_SMALL,\n        ALIEN_MINING_SHIP_MEDIUM,\n        ALIEN_MINING_SHIP_LARGE,\n        ALIEN_WEAPON_SYSTEM_SMALL,\n        ALIEN_WEAPON_SYSTEM_MEDIUM,\n        ALIEN_WEAPON_SYSTEM_LARGE,\n        ADVANCED_RACE_MASTER_VESSEL,\n        ADVANCED_RACE_CRUISER,\n        ADVANCED_RACE_DESTROYER,\n        ADVANCED_RACE_FIGHTER_PLANE,\n        ADVANCED_RACE_MARKET_SHIP,\n        ADVANCED_RACE_MINING_SHIP_SMALL,\n        ADVANCED_RACE_MINING_SHIP_MEDIUM,\n        ADVANCED_RACE_MINING_SHIP_LARGE,\n        ADVANCED_RACE_WEAPON_SYSTEM_SMALL,\n        ADVANCED_RACE_WEAPON_SYSTEM_MEDIUM,\n        ADVANCED_RACE_WEAPON_SYSTEM_LARGE,\n        ANCIENT_MASTER_VESSEL,\n        ANCIENT_CRUISER,\n        ANCIENT_DESTROYER,\n        ANCIENT_FIGHTER_PLANE,\n        ANCIENT_MARKET_SHIP,\n        ANCIENT_MINING_SHIP_SMALL,\n        ANCIENT_MINING_SHIP_MEDIUM,\n        ANCIENT_MINING_SHIP_LARGE,\n        ANCIENT_WEAPON_SYSTEM_SMALL,\n        ANCIENT_WEAPON_SYSTEM_MEDIUM,\n        ANCIENT_WEAPON_SYSTEM_LARGE,\n        PIRATE_SHIP,\n        PIRATE_WEAPON\n    }\n\n    constructor(address _es, address _holder)\n        public\n        ERC1155('https://game.example/api/item/{1}.json')\n    {\n        es = EternalStorage(_es);\n        for (uint256 i = 0; i < TOTAL_STARTING_ITEMS; i++) {\n            _mint(_holder, i, getAmount(i), '');\n        }\n    }\n\n    modifier onlyOperator() {\n        // Make sure the access is permitted to only contracts in our Dapp\n        require(\n            es.getAddress(keccak256(abi.encodePacked('sats.access', msg.sender))) != address(0x0)\n        );\n        _;\n    }\n\n    function getAmount(uint256 i) private returns (uint256 amount) {\n        if (\n            i == uint256(ShipAndTechList.ANCIENT_MINING_SHIP_SMALL) ||\n            i == uint256(ShipAndTechList.ANCIENT_WEAPON_SYSTEM_SMALL) ||\n            i == uint256(ShipAndTechList.ANCIENT_CRUISER)\n        ) {\n            amount = 1000;\n        } else if (\n            i == uint256(ShipAndTechList.ANCIENT_MINING_SHIP_MEDIUM) ||\n            i == uint256(ShipAndTechList.ANCIENT_WEAPON_SYSTEM_SMALL) ||\n            i == uint256(ShipAndTechList.ANCIENT_DESTROYER)\n        ) {\n            amount = 400;\n        } else if (\n            i == uint256(ShipAndTechList.ANCIENT_WEAPON_SYSTEM_LARGE) ||\n            i == uint256(ShipAndTechList.ANCIENT_MINING_SHIP_LARGE)\n        ) {\n            amount = 100;\n        } else if (i == uint256(ShipAndTechList.ANCIENT_MASTER_VESSEL)) {\n            amount = 10;\n        } else if (i == uint256(ShipAndTechList.ANCIENT_FIGHTER_PLANE)) {\n            amount = 10000;\n        } else {\n            amount = 10**9;\n        }\n    }\n}\n",
  "sourcePath": "C:\\Users\\James\\projects\\tsuno-fe\\contracts\\ShipsAndTechnology.sol",
  "compiler": {
    "name": "solc",
    "version": "0.6.12+commit.27d51765.Emscripten.clang"
  },
  "schemaVersion": "3.2.5",
  "updatedAt": "2020-10-04T21:25:02.642Z",
  "networkType": "ethereum",
  "devdoc": {
    "kind": "dev",
    "methods": {
      "balanceOf(address,uint256)": {
        "details": "See {IERC1155-balanceOf}. Requirements: - `account` cannot be the zero address."
      },
      "balanceOfBatch(address[],uint256[])": {
        "details": "See {IERC1155-balanceOfBatch}. Requirements: - `accounts` and `ids` must have the same length."
      },
      "isApprovedForAll(address,address)": {
        "details": "See {IERC1155-isApprovedForAll}."
      },
      "owner()": {
        "details": "Returns the address of the current owner."
      },
      "renounceOwnership()": {
        "details": "Leaves the contract without owner. It will not be possible to call `onlyOwner` functions anymore. Can only be called by the current owner. NOTE: Renouncing ownership will leave the contract without an owner, thereby removing any functionality that is only available to the owner."
      },
      "safeBatchTransferFrom(address,address,uint256[],uint256[],bytes)": {
        "details": "See {IERC1155-safeBatchTransferFrom}."
      },
      "safeTransferFrom(address,address,uint256,uint256,bytes)": {
        "details": "See {IERC1155-safeTransferFrom}."
      },
      "setApprovalForAll(address,bool)": {
        "details": "See {IERC1155-setApprovalForAll}."
      },
      "supportsInterface(bytes4)": {
        "details": "See {IERC165-supportsInterface}. Time complexity O(1), guaranteed to always use less than 30 000 gas."
      },
      "transferOwnership(address)": {
        "details": "Transfers ownership of the contract to a new account (`newOwner`). Can only be called by the current owner."
      },
      "uri(uint256)": {
        "details": "See {IERC1155MetadataURI-uri}. This implementation returns the same URI for *all* token types. It relies on the token type ID substitution mechanism https://eips.ethereum.org/EIPS/eip-1155#metadata[defined in the EIP]. Clients calling this function must replace the `\\{id\\}` substring with the actual token type ID."
      }
    },
    "version": 1
  },
  "userdoc": {
    "kind": "user",
    "methods": {},
    "version": 1
  }
}