{
  "contractName": "SolarToken",
  "abi": [
    {
      "anonymous": false,
      "inputs": [
        {
          "indexed": true,
          "internalType": "address",
          "name": "owner",
          "type": "address"
        },
        {
          "indexed": true,
          "internalType": "address",
          "name": "approved",
          "type": "address"
        },
        {
          "indexed": true,
          "internalType": "uint256",
          "name": "tokenId",
          "type": "uint256"
        }
      ],
      "name": "Approval",
      "type": "event"
    },
    {
      "anonymous": false,
      "inputs": [
        {
          "indexed": true,
          "internalType": "address",
          "name": "owner",
          "type": "address"
        },
        {
          "indexed": true,
          "internalType": "address",
          "name": "operator",
          "type": "address"
        },
        {
          "indexed": false,
          "internalType": "bool",
          "name": "approved",
          "type": "bool"
        }
      ],
      "name": "ApprovalForAll",
      "type": "event"
    },
    {
      "anonymous": false,
      "inputs": [
        {
          "indexed": true,
          "internalType": "address",
          "name": "previousOwner",
          "type": "address"
        },
        {
          "indexed": true,
          "internalType": "address",
          "name": "newOwner",
          "type": "address"
        }
      ],
      "name": "OwnershipTransferred",
      "type": "event"
    },
    {
      "anonymous": false,
      "inputs": [
        {
          "indexed": true,
          "internalType": "address",
          "name": "from",
          "type": "address"
        },
        {
          "indexed": true,
          "internalType": "address",
          "name": "to",
          "type": "address"
        },
        {
          "indexed": true,
          "internalType": "uint256",
          "name": "tokenId",
          "type": "uint256"
        }
      ],
      "name": "Transfer",
      "type": "event"
    },
    {
      "inputs": [
        {
          "internalType": "address",
          "name": "to",
          "type": "address"
        },
        {
          "internalType": "uint256",
          "name": "tokenId",
          "type": "uint256"
        }
      ],
      "name": "approve",
      "outputs": [],
      "stateMutability": "nonpayable",
      "type": "function"
    },
    {
      "inputs": [
        {
          "internalType": "address",
          "name": "owner",
          "type": "address"
        }
      ],
      "name": "balanceOf",
      "outputs": [
        {
          "internalType": "uint256",
          "name": "",
          "type": "uint256"
        }
      ],
      "stateMutability": "view",
      "type": "function"
    },
    {
      "inputs": [],
      "name": "baseURI",
      "outputs": [
        {
          "internalType": "string",
          "name": "",
          "type": "string"
        }
      ],
      "stateMutability": "view",
      "type": "function"
    },
    {
      "inputs": [
        {
          "internalType": "uint256",
          "name": "tokenId",
          "type": "uint256"
        }
      ],
      "name": "getApproved",
      "outputs": [
        {
          "internalType": "address",
          "name": "",
          "type": "address"
        }
      ],
      "stateMutability": "view",
      "type": "function"
    },
    {
      "inputs": [
        {
          "internalType": "address",
          "name": "owner",
          "type": "address"
        },
        {
          "internalType": "address",
          "name": "operator",
          "type": "address"
        }
      ],
      "name": "isApprovedForAll",
      "outputs": [
        {
          "internalType": "bool",
          "name": "",
          "type": "bool"
        }
      ],
      "stateMutability": "view",
      "type": "function"
    },
    {
      "inputs": [],
      "name": "name",
      "outputs": [
        {
          "internalType": "string",
          "name": "",
          "type": "string"
        }
      ],
      "stateMutability": "view",
      "type": "function"
    },
    {
      "inputs": [],
      "name": "owner",
      "outputs": [
        {
          "internalType": "address",
          "name": "",
          "type": "address"
        }
      ],
      "stateMutability": "view",
      "type": "function"
    },
    {
      "inputs": [
        {
          "internalType": "uint256",
          "name": "tokenId",
          "type": "uint256"
        }
      ],
      "name": "ownerOf",
      "outputs": [
        {
          "internalType": "address",
          "name": "",
          "type": "address"
        }
      ],
      "stateMutability": "view",
      "type": "function"
    },
    {
      "inputs": [],
      "name": "renounceOwnership",
      "outputs": [],
      "stateMutability": "nonpayable",
      "type": "function"
    },
    {
      "inputs": [
        {
          "internalType": "address",
          "name": "from",
          "type": "address"
        },
        {
          "internalType": "address",
          "name": "to",
          "type": "address"
        },
        {
          "internalType": "uint256",
          "name": "tokenId",
          "type": "uint256"
        }
      ],
      "name": "safeTransferFrom",
      "outputs": [],
      "stateMutability": "nonpayable",
      "type": "function"
    },
    {
      "inputs": [
        {
          "internalType": "address",
          "name": "from",
          "type": "address"
        },
        {
          "internalType": "address",
          "name": "to",
          "type": "address"
        },
        {
          "internalType": "uint256",
          "name": "tokenId",
          "type": "uint256"
        },
        {
          "internalType": "bytes",
          "name": "_data",
          "type": "bytes"
        }
      ],
      "name": "safeTransferFrom",
      "outputs": [],
      "stateMutability": "nonpayable",
      "type": "function"
    },
    {
      "inputs": [
        {
          "internalType": "address",
          "name": "operator",
          "type": "address"
        },
        {
          "internalType": "bool",
          "name": "approved",
          "type": "bool"
        }
      ],
      "name": "setApprovalForAll",
      "outputs": [],
      "stateMutability": "nonpayable",
      "type": "function"
    },
    {
      "inputs": [
        {
          "internalType": "bytes4",
          "name": "interfaceId",
          "type": "bytes4"
        }
      ],
      "name": "supportsInterface",
      "outputs": [
        {
          "internalType": "bool",
          "name": "",
          "type": "bool"
        }
      ],
      "stateMutability": "view",
      "type": "function"
    },
    {
      "inputs": [],
      "name": "symbol",
      "outputs": [
        {
          "internalType": "string",
          "name": "",
          "type": "string"
        }
      ],
      "stateMutability": "view",
      "type": "function"
    },
    {
      "inputs": [
        {
          "internalType": "uint256",
          "name": "index",
          "type": "uint256"
        }
      ],
      "name": "tokenByIndex",
      "outputs": [
        {
          "internalType": "uint256",
          "name": "",
          "type": "uint256"
        }
      ],
      "stateMutability": "view",
      "type": "function"
    },
    {
      "inputs": [
        {
          "internalType": "address",
          "name": "owner",
          "type": "address"
        },
        {
          "internalType": "uint256",
          "name": "index",
          "type": "uint256"
        }
      ],
      "name": "tokenOfOwnerByIndex",
      "outputs": [
        {
          "internalType": "uint256",
          "name": "",
          "type": "uint256"
        }
      ],
      "stateMutability": "view",
      "type": "function"
    },
    {
      "inputs": [
        {
          "internalType": "uint256",
          "name": "tokenId",
          "type": "uint256"
        }
      ],
      "name": "tokenURI",
      "outputs": [
        {
          "internalType": "string",
          "name": "",
          "type": "string"
        }
      ],
      "stateMutability": "view",
      "type": "function"
    },
    {
      "inputs": [],
      "name": "totalSupply",
      "outputs": [
        {
          "internalType": "uint256",
          "name": "",
          "type": "uint256"
        }
      ],
      "stateMutability": "view",
      "type": "function"
    },
    {
      "inputs": [
        {
          "internalType": "address",
          "name": "from",
          "type": "address"
        },
        {
          "internalType": "address",
          "name": "to",
          "type": "address"
        },
        {
          "internalType": "uint256",
          "name": "tokenId",
          "type": "uint256"
        }
      ],
      "name": "transferFrom",
      "outputs": [],
      "stateMutability": "nonpayable",
      "type": "function"
    },
    {
      "inputs": [
        {
          "internalType": "address",
          "name": "newOwner",
          "type": "address"
        }
      ],
      "name": "transferOwnership",
      "outputs": [],
      "stateMutability": "nonpayable",
      "type": "function"
    },
    {
      "inputs": [
        {
          "internalType": "address",
          "name": "_to",
          "type": "address"
        },
        {
          "internalType": "uint256",
          "name": "_tokenId",
          "type": "uint256"
        }
      ],
      "name": "mint",
      "outputs": [],
      "stateMutability": "nonpayable",
      "type": "function"
    },
    {
      "inputs": [
        {
          "internalType": "address",
          "name": "_operator",
          "type": "address"
        }
      ],
      "name": "setOperator",
      "outputs": [],
      "stateMutability": "nonpayable",
      "type": "function"
    }
  ],
  "bytecode": "0x60806040523480156200001157600080fd5b50604080518082018252600a81526929b7b630b92a37b5b2b760b11b6020808301919091528251808401909352600583526429a7a620a960d91b9083015290620000626301ffc9a760e01b62000127565b815162000077906006906020850190620001b0565b5080516200008d906007906020840190620001b0565b50620000a06380ac58cd60e01b62000127565b620000b2635b5e139f60e01b62000127565b620000c463780e9d6360e01b62000127565b5060009050620000d3620001ac565b600a80546001600160a01b0319166001600160a01b038316908117909155604051919250906000907f8be0079c531659141344cd1fd0a4f28419497f9722a3daafe3b4186f6b6457e0908290a3506200024c565b6001600160e01b0319808216141562000187576040805162461bcd60e51b815260206004820152601c60248201527f4552433136353a20696e76616c696420696e7465726661636520696400000000604482015290519081900360640190fd5b6001600160e01b0319166000908152602081905260409020805460ff19166001179055565b3390565b828054600181600116156101000203166002900490600052602060002090601f016020900481019282601f10620001f357805160ff191683800117855562000223565b8280016001018555821562000223579182015b828111156200022357825182559160200191906001019062000206565b506200023192915062000235565b5090565b5b8082111562000231576000815560010162000236565b611ea0806200025c6000396000f3fe608060405234801561001057600080fd5b50600436106101425760003560e01c80636c0360eb116100b8578063a22cb4651161007c578063a22cb465146103c4578063b3ab15fb146103f2578063b88d4fde14610418578063c87b56dd146104de578063e985e9c5146104fb578063f2fde38b1461052957610142565b80636c0360eb1461037e57806370a0823114610386578063715018a6146103ac5780638da5cb5b146103b457806395d89b41146103bc57610142565b806323b872dd1161010a57806323b872dd146102805780632f745c59146102b657806340c10f19146102e257806342842e0e1461030e5780634f6ccce7146103445780636352211e1461036157610142565b806301ffc9a71461014757806306fdde0314610182578063081812fc146101ff578063095ea7b31461023857806318160ddd14610266575b600080fd5b61016e6004803603602081101561015d57600080fd5b50356001600160e01b03191661054f565b604080519115158252519081900360200190f35b61018a610572565b6040805160208082528351818301528351919283929083019185019080838360005b838110156101c45781810151838201526020016101ac565b50505050905090810190601f1680156101f15780820380516001836020036101000a031916815260200191505b509250505060405180910390f35b61021c6004803603602081101561021557600080fd5b5035610608565b604080516001600160a01b039092168252519081900360200190f35b6102646004803603604081101561024e57600080fd5b506001600160a01b03813516906020013561066a565b005b61026e610745565b60408051918252519081900360200190f35b6102646004803603606081101561029657600080fd5b506001600160a01b03813581169160208101359091169060400135610756565b61026e600480360360408110156102cc57600080fd5b506001600160a01b0381351690602001356107ad565b610264600480360360408110156102f857600080fd5b506001600160a01b0381351690602001356107d8565b6102646004803603606081101561032457600080fd5b506001600160a01b038135811691602081013590911690604001356107fd565b61026e6004803603602081101561035a57600080fd5b5035610818565b61021c6004803603602081101561037757600080fd5b503561082e565b61018a610856565b61026e6004803603602081101561039c57600080fd5b50356001600160a01b03166108b7565b61026461091f565b61021c6109d3565b61018a6109e2565b610264600480360360408110156103da57600080fd5b506001600160a01b0381351690602001351515610a43565b6102646004803603602081101561040857600080fd5b50356001600160a01b0316610b48565b6102646004803603608081101561042e57600080fd5b6001600160a01b0382358116926020810135909116916040820135919081019060808101606082013564010000000081111561046957600080fd5b82018360208201111561047b57600080fd5b8035906020019184600183028401116401000000008311171561049d57600080fd5b91908080601f016020809104026020016040519081016040528093929190818152602001838380828437600092019190915250929550610bd4945050505050565b61018a600480360360208110156104f457600080fd5b5035610c32565b61016e6004803603604081101561051157600080fd5b506001600160a01b0381358116916020013516610ed9565b6102646004803603602081101561053f57600080fd5b50356001600160a01b0316610f07565b6001600160e01b0319811660009081526020819052604090205460ff165b919050565b60068054604080516020601f60026000196101006001881615020190951694909404938401819004810282018101909252828152606093909290918301828280156105fe5780601f106105d3576101008083540402835291602001916105fe565b820191906000526020600020905b8154815290600101906020018083116105e157829003601f168201915b5050505050905090565b600061061382611012565b61064e5760405162461bcd60e51b815260040180806020018281038252602c815260200180611d95602c913960400191505060405180910390fd5b506000908152600460205260409020546001600160a01b031690565b60006106758261082e565b9050806001600160a01b0316836001600160a01b031614156106c85760405162461bcd60e51b8152600401808060200182810382526021815260200180611e196021913960400191505060405180910390fd5b806001600160a01b03166106da61101f565b6001600160a01b031614806106fb57506106fb816106f661101f565b610ed9565b6107365760405162461bcd60e51b8152600401808060200182810382526038815260200180611ce86038913960400191505060405180910390fd5b6107408383611023565b505050565b60006107516002611091565b905090565b61076761076161101f565b8261109c565b6107a25760405162461bcd60e51b8152600401808060200182810382526031815260200180611e3a6031913960400191505060405180910390fd5b610740838383611140565b6001600160a01b03821660009081526001602052604081206107cf908361128c565b90505b92915050565b600b546001600160a01b031633146107ef57600080fd5b6107f98282611298565b5050565b61074083838360405180602001604052806000815250610bd4565b6000806108266002846112b2565b509392505050565b60006107d282604051806060016040528060298152602001611d4a60299139600291906112ce565b60098054604080516020601f60026000196101006001881615020190951694909404938401819004810282018101909252828152606093909290918301828280156105fe5780601f106105d3576101008083540402835291602001916105fe565b60006001600160a01b0382166108fe5760405162461bcd60e51b815260040180806020018281038252602a815260200180611d20602a913960400191505060405180910390fd5b6001600160a01b03821660009081526001602052604090206107d290611091565b61092761101f565b600a546001600160a01b03908116911614610989576040805162461bcd60e51b815260206004820181905260248201527f4f776e61626c653a2063616c6c6572206973206e6f7420746865206f776e6572604482015290519081900360640190fd5b600a546040516000916001600160a01b0316907f8be0079c531659141344cd1fd0a4f28419497f9722a3daafe3b4186f6b6457e0908390a3600a80546001600160a01b0319169055565b600a546001600160a01b031690565b60078054604080516020601f60026000196101006001881615020190951694909404938401819004810282018101909252828152606093909290918301828280156105fe5780601f106105d3576101008083540402835291602001916105fe565b610a4b61101f565b6001600160a01b0316826001600160a01b03161415610ab1576040805162461bcd60e51b815260206004820152601960248201527f4552433732313a20617070726f766520746f2063616c6c657200000000000000604482015290519081900360640190fd5b8060056000610abe61101f565b6001600160a01b03908116825260208083019390935260409182016000908120918716808252919093529120805460ff191692151592909217909155610b0261101f565b6001600160a01b03167f17307eab39ab6107e8899845ad3d59bd9653f200f220920489ca2b5937696c318360405180821515815260200191505060405180910390a35050565b610b5061101f565b600a546001600160a01b03908116911614610bb2576040805162461bcd60e51b815260206004820181905260248201527f4f776e61626c653a2063616c6c6572206973206e6f7420746865206f776e6572604482015290519081900360640190fd5b600b80546001600160a01b0319166001600160a01b0392909216919091179055565b610be5610bdf61101f565b8361109c565b610c205760405162461bcd60e51b8152600401808060200182810382526031815260200180611e3a6031913960400191505060405180910390fd5b610c2c848484846112e5565b50505050565b6060610c3d82611012565b610c785760405162461bcd60e51b815260040180806020018281038252602f815260200180611dea602f913960400191505060405180910390fd5b60008281526008602090815260409182902080548351601f6002600019610100600186161502019093169290920491820184900484028101840190945280845260609392830182828015610d0d5780601f10610ce257610100808354040283529160200191610d0d565b820191906000526020600020905b815481529060010190602001808311610cf057829003601f168201915b505060095493945050505060026000196101006001841615020190911604610d3657905061056d565b805115610e07576009816040516020018083805460018160011615610100020316600290048015610d9e5780601f10610d7c576101008083540402835291820191610d9e565b820191906000526020600020905b815481529060010190602001808311610d8a575b5050825160208401908083835b60208310610dca5780518252601f199092019160209182019101610dab565b6001836020036101000a0380198251168184511680821785525050505050509050019250505060405160208183030381529060405291505061056d565b6009610e1284611337565b6040516020018083805460018160011615610100020316600290048015610e705780601f10610e4e576101008083540402835291820191610e70565b820191906000526020600020905b815481529060010190602001808311610e5c575b5050825160208401908083835b60208310610e9c5780518252601f199092019160209182019101610e7d565b6001836020036101000a03801982511681845116808217855250505050505090500192505050604051602081830303815290604052915050919050565b6001600160a01b03918216600090815260056020908152604080832093909416825291909152205460ff1690565b610f0f61101f565b600a546001600160a01b03908116911614610f71576040805162461bcd60e51b815260206004820181905260248201527f4f776e61626c653a2063616c6c6572206973206e6f7420746865206f776e6572604482015290519081900360640190fd5b6001600160a01b038116610fb65760405162461bcd60e51b8152600401808060200182810382526026815260200180611c726026913960400191505060405180910390fd5b600a546040516001600160a01b038084169216907f8be0079c531659141344cd1fd0a4f28419497f9722a3daafe3b4186f6b6457e090600090a3600a80546001600160a01b0319166001600160a01b0392909216919091179055565b60006107d2600283611412565b3390565b600081815260046020526040902080546001600160a01b0319166001600160a01b03841690811790915581906110588261082e565b6001600160a01b03167f8c5be1e5ebec7d5bd14f71427d1e84f3dd0314c0f7b2291e5b200ac8c7c3b92560405160405180910390a45050565b60006107d28261141e565b60006110a782611012565b6110e25760405162461bcd60e51b815260040180806020018281038252602c815260200180611cbc602c913960400191505060405180910390fd5b60006110ed8361082e565b9050806001600160a01b0316846001600160a01b031614806111285750836001600160a01b031661111d84610608565b6001600160a01b0316145b8061113857506111388185610ed9565b949350505050565b826001600160a01b03166111538261082e565b6001600160a01b0316146111985760405162461bcd60e51b8152600401808060200182810382526029815260200180611dc16029913960400191505060405180910390fd5b6001600160a01b0382166111dd5760405162461bcd60e51b8152600401808060200182810382526024815260200180611c986024913960400191505060405180910390fd5b6111e8838383610740565b6111f3600082611023565b6001600160a01b03831660009081526001602052604090206112159082611422565b506001600160a01b0382166000908152600160205260409020611238908261142e565b506112456002828461143a565b5080826001600160a01b0316846001600160a01b03167fddf252ad1be2c89b69c2b068fc378daa952ba7f163c4a11628f55a4df523b3ef60405160405180910390a4505050565b60006107cf8383611450565b6107f98282604051806020016040528060008152506114b4565b60008080806112c18686611506565b9097909650945050505050565b60006112db848484611581565b90505b9392505050565b6112f0848484611140565b6112fc8484848461164b565b610c2c5760405162461bcd60e51b8152600401808060200182810382526032815260200180611c406032913960400191505060405180910390fd5b60608161135c57506040805180820190915260018152600360fc1b602082015261056d565b8160005b811561137457600101600a82049150611360565b60608167ffffffffffffffff8111801561138d57600080fd5b506040519080825280601f01601f1916602001820160405280156113b8576020820181803683370190505b50859350905060001982015b831561140957600a840660300160f81b828280600190039350815181106113e757fe5b60200101906001600160f81b031916908160001a905350600a840493506113c4565b50949350505050565b60006107cf83836117b3565b5490565b60006107cf83836117cb565b60006107cf8383611891565b60006112db84846001600160a01b0385166118db565b815460009082106114925760405162461bcd60e51b8152600401808060200182810382526022815260200180611c1e6022913960400191505060405180910390fd5b8260000182815481106114a157fe5b9060005260206000200154905092915050565b6114be8383611972565b6114cb600084848461164b565b6107405760405162461bcd60e51b8152600401808060200182810382526032815260200180611c406032913960400191505060405180910390fd5b81546000908190831061154a5760405162461bcd60e51b8152600401808060200182810382526022815260200180611d736022913960400191505060405180910390fd5b600084600001848154811061155b57fe5b906000526020600020906002020190508060000154816001015492509250509250929050565b6000828152600184016020526040812054828161161c5760405162461bcd60e51b81526004018080602001828103825283818151815260200191508051906020019080838360005b838110156115e15781810151838201526020016115c9565b50505050905090810190601f16801561160e5780820380516001836020036101000a031916815260200191505b509250505060405180910390fd5b5084600001600182038154811061162f57fe5b9060005260206000209060020201600101549150509392505050565b600061165f846001600160a01b0316611aa0565b61166b57506001611138565b6060611779630a85bd0160e11b61168061101f565b88878760405160240180856001600160a01b03168152602001846001600160a01b0316815260200183815260200180602001828103825283818151815260200191508051906020019080838360005b838110156116e75781810151838201526020016116cf565b50505050905090810190601f1680156117145780820380516001836020036101000a031916815260200191505b5095505050505050604051602081830303815290604052906001600160e01b0319166020820180516001600160e01b038381831617835250505050604051806060016040528060328152602001611c40603291396001600160a01b0388169190611aa6565b9050600081806020019051602081101561179257600080fd5b50516001600160e01b031916630a85bd0160e11b1492505050949350505050565b60009081526001919091016020526040902054151590565b6000818152600183016020526040812054801561188757835460001980830191908101906000908790839081106117fe57fe5b906000526020600020015490508087600001848154811061181b57fe5b60009182526020808320909101929092558281526001898101909252604090209084019055865487908061184b57fe5b600190038181906000526020600020016000905590558660010160008781526020019081526020016000206000905560019450505050506107d2565b60009150506107d2565b600061189d83836117b3565b6118d3575081546001818101845560008481526020808220909301849055845484825282860190935260409020919091556107d2565b5060006107d2565b6000828152600184016020526040812054806119405750506040805180820182528381526020808201848152865460018181018955600089815284812095516002909302909501918255915190820155865486845281880190925292909120556112de565b8285600001600183038154811061195357fe5b90600052602060002090600202016001018190555060009150506112de565b6001600160a01b0382166119cd576040805162461bcd60e51b815260206004820181905260248201527f4552433732313a206d696e7420746f20746865207a65726f2061646472657373604482015290519081900360640190fd5b6119d681611012565b15611a28576040805162461bcd60e51b815260206004820152601c60248201527f4552433732313a20746f6b656e20616c7265616479206d696e74656400000000604482015290519081900360640190fd5b611a3460008383610740565b6001600160a01b0382166000908152600160205260409020611a56908261142e565b50611a636002828461143a565b5060405181906001600160a01b038416906000907fddf252ad1be2c89b69c2b068fc378daa952ba7f163c4a11628f55a4df523b3ef908290a45050565b3b151590565b60606112db84846000856060611abb85611aa0565b611b0c576040805162461bcd60e51b815260206004820152601d60248201527f416464726573733a2063616c6c20746f206e6f6e2d636f6e7472616374000000604482015290519081900360640190fd5b60006060866001600160a01b031685876040518082805190602001908083835b60208310611b4b5780518252601f199092019160209182019101611b2c565b6001836020036101000a03801982511681845116808217855250505050505090500191505060006040518083038185875af1925050503d8060008114611bad576040519150601f19603f3d011682016040523d82523d6000602084013e611bb2565b606091505b50915091508115611bc65791506111389050565b805115611bd65780518082602001fd5b60405162461bcd60e51b81526020600482018181528651602484015286518793919283926044019190850190808383600083156115e15781810151838201526020016115c956fe456e756d657261626c655365743a20696e646578206f7574206f6620626f756e64734552433732313a207472616e7366657220746f206e6f6e20455243373231526563656976657220696d706c656d656e7465724f776e61626c653a206e6577206f776e657220697320746865207a65726f20616464726573734552433732313a207472616e7366657220746f20746865207a65726f20616464726573734552433732313a206f70657261746f7220717565727920666f72206e6f6e6578697374656e7420746f6b656e4552433732313a20617070726f76652063616c6c6572206973206e6f74206f776e6572206e6f7220617070726f76656420666f7220616c6c4552433732313a2062616c616e636520717565727920666f7220746865207a65726f20616464726573734552433732313a206f776e657220717565727920666f72206e6f6e6578697374656e7420746f6b656e456e756d657261626c654d61703a20696e646578206f7574206f6620626f756e64734552433732313a20617070726f76656420717565727920666f72206e6f6e6578697374656e7420746f6b656e4552433732313a207472616e73666572206f6620746f6b656e2074686174206973206e6f74206f776e4552433732314d657461646174613a2055524920717565727920666f72206e6f6e6578697374656e7420746f6b656e4552433732313a20617070726f76616c20746f2063757272656e74206f776e65724552433732313a207472616e736665722063616c6c6572206973206e6f74206f776e6572206e6f7220617070726f766564a2646970667358221220b4d1c2799dff4bf9b7073f143bcc03a2103da9fafba2543962a190cff6ecb6cd64736f6c634300060c0033",
  "immutableReferences": {},
  "source": "// SPDX-License-Identifier: MIT\n\npragma solidity 0.6.12;\nimport {ERC721} from '@openzeppelin/contracts/token/ERC721/ERC721.sol';\nimport {Ownable} from '@openzeppelin/contracts/access/Ownable.sol';\n\ncontract SolarToken is ERC721('SolarToken', 'SOLAR'), Ownable {\n    address private operator;\n\n    modifier onlyOperator() {\n        require(msg.sender == operator);\n        _;\n    }\n\n    function mint(address _to, uint256 _tokenId) public onlyOperator {\n        _safeMint(_to, _tokenId);\n    }\n\n    function setOperator(address _operator) public onlyOwner {\n        operator = _operator;\n    }\n}\n",
  "sourcePath": "C:\\Users\\James\\projects\\tsuno-fe\\contracts\\protocol\\SolarToken.sol",
  "compiler": {
    "name": "solc",
    "version": "0.6.12+commit.27d51765.Emscripten.clang"
  },
  "schemaVersion": "3.2.5",
  "updatedAt": "2020-09-23T19:25:48.063Z",
  "devdoc": {
    "kind": "dev",
    "methods": {
      "approve(address,uint256)": {
        "details": "See {IERC721-approve}."
      },
      "balanceOf(address)": {
        "details": "See {IERC721-balanceOf}."
      },
      "baseURI()": {
        "details": "Returns the base URI set via {_setBaseURI}. This will be automatically added as a prefix in {tokenURI} to each token's URI, or to the token ID if no specific URI is set for that token ID."
      },
      "getApproved(uint256)": {
        "details": "See {IERC721-getApproved}."
      },
      "isApprovedForAll(address,address)": {
        "details": "See {IERC721-isApprovedForAll}."
      },
      "name()": {
        "details": "See {IERC721Metadata-name}."
      },
      "owner()": {
        "details": "Returns the address of the current owner."
      },
      "ownerOf(uint256)": {
        "details": "See {IERC721-ownerOf}."
      },
      "renounceOwnership()": {
        "details": "Leaves the contract without owner. It will not be possible to call `onlyOwner` functions anymore. Can only be called by the current owner. NOTE: Renouncing ownership will leave the contract without an owner, thereby removing any functionality that is only available to the owner."
      },
      "safeTransferFrom(address,address,uint256)": {
        "details": "See {IERC721-safeTransferFrom}."
      },
      "safeTransferFrom(address,address,uint256,bytes)": {
        "details": "See {IERC721-safeTransferFrom}."
      },
      "setApprovalForAll(address,bool)": {
        "details": "See {IERC721-setApprovalForAll}."
      },
      "supportsInterface(bytes4)": {
        "details": "See {IERC165-supportsInterface}. Time complexity O(1), guaranteed to always use less than 30 000 gas."
      },
      "symbol()": {
        "details": "See {IERC721Metadata-symbol}."
      },
      "tokenByIndex(uint256)": {
        "details": "See {IERC721Enumerable-tokenByIndex}."
      },
      "tokenOfOwnerByIndex(address,uint256)": {
        "details": "See {IERC721Enumerable-tokenOfOwnerByIndex}."
      },
      "tokenURI(uint256)": {
        "details": "See {IERC721Metadata-tokenURI}."
      },
      "totalSupply()": {
        "details": "See {IERC721Enumerable-totalSupply}."
      },
      "transferFrom(address,address,uint256)": {
        "details": "See {IERC721-transferFrom}."
      },
      "transferOwnership(address)": {
        "details": "Transfers ownership of the contract to a new account (`newOwner`). Can only be called by the current owner."
      }
    },
    "version": 1
  },
  "userdoc": {
    "kind": "user",
    "methods": {},
    "version": 1
  }
}