{
  "contractName": "TestGameOperations",
  "abi": [
    {
      "anonymous": false,
      "inputs": [
        {
          "indexed": false,
          "internalType": "address",
          "name": "attacker",
          "type": "address"
        },
        {
          "indexed": false,
          "internalType": "uint256",
          "name": "attackerOffense",
          "type": "uint256"
        },
        {
          "indexed": false,
          "internalType": "uint256",
          "name": "attackerDefense",
          "type": "uint256"
        },
        {
          "indexed": false,
          "internalType": "address",
          "name": "defender",
          "type": "address"
        },
        {
          "indexed": false,
          "internalType": "uint256",
          "name": "defenderOffense",
          "type": "uint256"
        },
        {
          "indexed": false,
          "internalType": "uint256",
          "name": "defenderDefense",
          "type": "uint256"
        }
      ],
      "name": "BattleStarted",
      "type": "event"
    },
    {
      "anonymous": false,
      "inputs": [
        {
          "indexed": false,
          "internalType": "bool",
          "name": "result",
          "type": "bool"
        },
        {
          "indexed": false,
          "internalType": "uint256",
          "name": "attackersHealth",
          "type": "uint256"
        },
        {
          "indexed": false,
          "internalType": "uint256",
          "name": "defendersHealth",
          "type": "uint256"
        }
      ],
      "name": "LogBattle",
      "type": "event"
    },
    {
      "anonymous": false,
      "inputs": [
        {
          "indexed": false,
          "internalType": "uint8",
          "name": "quadrant",
          "type": "uint8"
        },
        {
          "indexed": false,
          "internalType": "uint8",
          "name": "district",
          "type": "uint8"
        },
        {
          "indexed": false,
          "internalType": "uint8",
          "name": "sector",
          "type": "uint8"
        },
        {
          "indexed": false,
          "internalType": "uint256",
          "name": "star",
          "type": "uint256"
        }
      ],
      "name": "LogMove",
      "type": "event"
    },
    {
      "anonymous": false,
      "inputs": [
        {
          "indexed": false,
          "internalType": "uint256",
          "name": "aDamage",
          "type": "uint256"
        },
        {
          "indexed": false,
          "internalType": "uint256",
          "name": "dDamage",
          "type": "uint256"
        },
        {
          "indexed": false,
          "internalType": "uint256",
          "name": "aHealth",
          "type": "uint256"
        },
        {
          "indexed": false,
          "internalType": "uint256",
          "name": "dHealth",
          "type": "uint256"
        }
      ],
      "name": "LogRound",
      "type": "event"
    },
    {
      "anonymous": false,
      "inputs": [
        {
          "indexed": true,
          "internalType": "address",
          "name": "to",
          "type": "address"
        },
        {
          "indexed": false,
          "internalType": "uint8",
          "name": "systemType",
          "type": "uint8"
        }
      ],
      "name": "LogStarSystemDiscovery",
      "type": "event"
    },
    {
      "anonymous": false,
      "inputs": [
        {
          "indexed": false,
          "internalType": "uint256",
          "name": "random",
          "type": "uint256"
        }
      ],
      "name": "Random",
      "type": "event"
    },
    {
      "anonymous": false,
      "inputs": [
        {
          "indexed": false,
          "internalType": "address",
          "name": "a",
          "type": "address"
        },
        {
          "indexed": false,
          "internalType": "address",
          "name": "b",
          "type": "address"
        },
        {
          "indexed": false,
          "internalType": "address",
          "name": "c",
          "type": "address"
        },
        {
          "indexed": false,
          "internalType": "address",
          "name": "d",
          "type": "address"
        }
      ],
      "name": "TestAddress",
      "type": "event"
    },
    {
      "anonymous": false,
      "inputs": [
        {
          "indexed": false,
          "internalType": "uint256",
          "name": "a",
          "type": "uint256"
        },
        {
          "indexed": false,
          "internalType": "uint256",
          "name": "b",
          "type": "uint256"
        }
      ],
      "name": "TestUint",
      "type": "event"
    },
    {
      "inputs": [
        {
          "internalType": "address",
          "name": "defender",
          "type": "address"
        },
        {
          "internalType": "uint8",
          "name": "turns",
          "type": "uint8"
        }
      ],
      "name": "attack",
      "outputs": [],
      "stateMutability": "nonpayable",
      "type": "function"
    },
    {
      "inputs": [
        {
          "internalType": "enum Types.SystemType",
          "name": "systemType",
          "type": "uint8"
        }
      ],
      "name": "getRandomYield",
      "outputs": [
        {
          "internalType": "uint16",
          "name": "rand",
          "type": "uint16"
        }
      ],
      "stateMutability": "view",
      "type": "function",
      "constant": true
    },
    {
      "inputs": [
        {
          "internalType": "address",
          "name": "_gameStorage",
          "type": "address"
        }
      ],
      "name": "initialize",
      "outputs": [],
      "stateMutability": "nonpayable",
      "type": "function"
    },
    {
      "inputs": [
        {
          "components": [
            {
              "internalType": "uint8",
              "name": "quadrant",
              "type": "uint8"
            },
            {
              "internalType": "uint8",
              "name": "sector",
              "type": "uint8"
            },
            {
              "internalType": "uint8",
              "name": "district",
              "type": "uint8"
            },
            {
              "internalType": "uint256",
              "name": "star",
              "type": "uint256"
            }
          ],
          "internalType": "struct Types.Position",
          "name": "to",
          "type": "tuple"
        }
      ],
      "name": "move",
      "outputs": [],
      "stateMutability": "nonpayable",
      "type": "function"
    },
    {
      "inputs": [
        {
          "internalType": "uint256",
          "name": "_seed",
          "type": "uint256"
        }
      ],
      "name": "setSeed",
      "outputs": [],
      "stateMutability": "nonpayable",
      "type": "function"
    },
    {
      "inputs": [
        {
          "internalType": "enum Types.SystemType",
          "name": "starSystem",
          "type": "uint8"
        }
      ],
      "name": "testAiFleetAttack",
      "outputs": [],
      "stateMutability": "nonpayable",
      "type": "function"
    },
    {
      "inputs": [
        {
          "internalType": "enum Types.SystemType",
          "name": "systemType",
          "type": "uint8"
        }
      ],
      "name": "testFhrDiscovery",
      "outputs": [],
      "stateMutability": "nonpayable",
      "type": "function"
    },
    {
      "inputs": [
        {
          "internalType": "uint256",
          "name": "rand",
          "type": "uint256"
        },
        {
          "internalType": "uint256[]",
          "name": "ships",
          "type": "uint256[]"
        },
        {
          "internalType": "uint256[]",
          "name": "amounts",
          "type": "uint256[]"
        }
      ],
      "name": "testSatDiscovery",
      "outputs": [],
      "stateMutability": "nonpayable",
      "type": "function"
    },
    {
      "inputs": [
        {
          "internalType": "address",
          "name": "master",
          "type": "address"
        },
        {
          "internalType": "uint256[]",
          "name": "ids",
          "type": "uint256[]"
        },
        {
          "internalType": "uint256[]",
          "name": "amounts",
          "type": "uint256[]"
        }
      ],
      "name": "testUpdateMasterFleet",
      "outputs": [],
      "stateMutability": "nonpayable",
      "type": "function"
    }
  ],
  "bytecode": "0x6080604052600160345534801561001557600080fd5b50613784806100256000396000f3fe608060405234801561001057600080fd5b50600436106100925760003560e01c80638c896042116100665780638c896042146100fb5780638e905cfd1461010e578063c32a50f914610121578063c4d66de814610134578063e439e8631461014757610092565b80626c2f3a146100975780630484b441146100c057806369145a24146100d55780636ebb6d80146100e8575b600080fd5b6100aa6100a5366004612fa4565b61015a565b6040516100b79190613629565b60405180910390f35b6100d36100ce366004612d8f565b610160565b005b6100d36100e3366004612fa4565b610165565b6100d36100f6366004612e02565b610264565b6100d3610109366004612fa4565b610bbc565b6100d361011c366004612fdc565b610f88565b6100d361012f36600461309e565b6112cb565b6100d3610142366004612d57565b6112d0565b6100d36101553660046130ce565b61164b565b50600090565b505050565b603954604051636a2a747360e01b815260009182916001600160a01b0390911690636a2a74739061019a9086906004016133d2565b6040805180830381600087803b1580156101b357600080fd5b505af11580156101c7573d6000803e3d6000fd5b505050506040513d601f19601f820116820180604052508101906101eb9190613100565b915091506000806060806101fe336116b6565b93509350935093507f39c31677b1650d5b983fb38bf1ee25e9ca25658b8bdfb9263e59651183b4836833878730888860405161023f9695949392919061328e565b60405180910390a16000610259878787876001600a6119d7565b505050505050505050565b6001600160a01b0382163314156102965760405162461bcd60e51b815260040161028d9061351b565b60405180910390fd5b6001600160a01b038216158015906102ad57503315155b6102c95760405162461bcd60e51b815260040161028d90613455565b6102d1612ba7565b603954604051633495a7e360e11b81526001600160a01b039091169063692b4fc690610301903390600401613204565b60806040518083038186803b15801561031957600080fd5b505afa15801561032d573d6000803e3d6000fd5b505050506040513d601f19601f82011682018060405250810190610351919061303d565b8152603954604051633495a7e360e11b81526001600160a01b039091169063692b4fc690610383908690600401613204565b60806040518083038186803b15801561039b57600080fd5b505afa1580156103af573d6000803e3d6000fd5b505050506040513d601f19601f820116820180604052508101906103d3919061303d565b60a0820181905281516103e591611b89565b6104015760405162461bcd60e51b815260040161028d90613552565b61040a336116b6565b6080850152606084015260408301526020820152610427836116b6565b61012085015261010084015260e0830181905260c08301829052602083015160408085015190517f39c31677b1650d5b983fb38bf1ee25e9ca25658b8bdfb9263e59651183b483689461048194339493928a92919061328e565b60405180910390a160006104aa826020015183604001518460c001518560e001516001886119d7565b905080156109425760005b826060015151811015610541576000836060015182815181106104d457fe5b6020026020010151116104e857600061051e565b61051e606461051860148660600151858151811061050257fe5b6020026020010151611be690919063ffffffff16565b90611c20565b8360600151828151811061052e57fe5b60209081029190910101526001016104b5565b50603a546080830151606084015160405163feba2dd560e01b81526001600160a01b039093169263feba2dd59261057c923392600401613218565b600060405180830381600087803b15801561059657600080fd5b505af11580156105aa573d6000803e3d6000fd5b505050508161010001515167ffffffffffffffff811180156105cb57600080fd5b506040519080825280602002602001820160405280156105f5578160200160208202803683370190505b5061014083015260005b826101000151518110156106e857600061062a60646105186046876101000151868151811061050257fe5b90506000846101000151838151811061063f57fe5b602002602001015111610653576000610655565b805b846101000151838151811061066657fe5b60200260200101818152505080846101000151838151811061068457fe5b6020026020010151116106985760006106c3565b6106c38185610100015184815181106106ad57fe5b6020026020010151611c6290919063ffffffff16565b84610140015183815181106106d457fe5b6020908102919091010152506001016105ff565b50603954604051634ec7272b60e11b81526000916001600160a01b031690639d8e4e569061071a908890600401613204565b60206040518083038186803b15801561073257600080fd5b505afa158015610746573d6000803e3d6000fd5b505050506040513d601f19601f8201168201806040525081019061076a91906130b6565b905080156108ce576035546040516331a9108f60e11b81526000916001600160a01b031690636352211e906107a3908590600401613638565b60206040518083038186803b1580156107bb57600080fd5b505afa1580156107cf573d6000803e3d6000fd5b505050506040513d601f19601f820116820180604052508101906107f39190612d73565b603a5461012086015161014087015160405163ba1edf1760e01b81529394506001600160a01b039092169263ba1edf1792610835928692909190600401613218565b600060405180830381600087803b15801561084f57600080fd5b505af1158015610863573d6000803e3d6000fd5b5050603a54604051624f9d7360e21b81526001600160a01b03909116925063013e75cc915061089a908490339087906004016132c8565b600060405180830381600087803b1580156108b457600080fd5b505af11580156108c8573d6000803e3d6000fd5b50505050505b603a5461012084015161010085015160405163feba2dd560e01b81526001600160a01b039093169263feba2dd59261090a928a92600401613218565b600060405180830381600087803b15801561092457600080fd5b505af1158015610938573d6000803e3d6000fd5b5050505050610bb6565b60005b8260600151518110156109b55760008360600151828151811061096457fe5b602002602001015111610978576000610992565b6109926064610518605a8660600151858151811061050257fe5b836060015182815181106109a257fe5b6020908102919091010152600101610945565b50603a546080830151606084015160405163feba2dd560e01b81526001600160a01b039093169263feba2dd5926109f0923392600401613218565b600060405180830381600087803b158015610a0a57600080fd5b505af1158015610a1e573d6000803e3d6000fd5b505050508161010001515167ffffffffffffffff81118015610a3f57600080fd5b50604051908082528060200260200182016040528015610a69578160200160208202803683370190505b5061014083015260005b82610100015151811015610b46576000610a9e6064610518600a876101000151868151811061050257fe5b905060008461010001518381518110610ab357fe5b602002602001015111610ac7576000610ac9565b805b8461010001518381518110610ada57fe5b602002602001018181525050808461010001518381518110610af857fe5b602002602001015111610b0c576000610b21565b610b218185610100015184815181106106ad57fe5b8461014001518381518110610b3257fe5b602090810291909101015250600101610a73565b50603a5461012083015161010084015160405163feba2dd560e01b81526001600160a01b039093169263feba2dd592610b83928992600401613218565b600060405180830381600087803b158015610b9d57600080fd5b505af1158015610bb1573d6000803e3d6000fd5b505050505b50505050565b603954604051634f4815d760e01b815260009182916001600160a01b0390911690634f4815d790610bf19086906004016133d2565b6040805180830381600087803b158015610c0a57600080fd5b505af1158015610c1e573d6000803e3d6000fd5b505050506040513d601f19601f82011682018060405250810190610c429190613100565b915091506000610c528383611ca4565b90506000603960009054906101000a90046001600160a01b03166001600160a01b03166304d5aae16040518163ffffffff1660e01b8152600401602060405180830381600087803b158015610ca657600080fd5b505af1158015610cba573d6000803e3d6000fd5b505050506040513d601f19601f82011682018060405250810190610cde91906130b6565b90507f4a365bf35c0ae660ba79119f99f0fd297f42d3621f9f584e393f23ca68df210e8282604051610d11929190613671565b60405180910390a1603a5460405163a080ee1560e01b81526001600160a01b039091169063a080ee1590610d4b9033908590600401613275565b600060405180830381600087803b158015610d6557600080fd5b505af1158015610d79573d6000803e3d6000fd5b50506038546036546035546037546040517f881c3ecc41e1e3d937a18bd3f1fc3af87a52f725119402eb778cd5592c861efc9650610dcf95506001600160a01b03948516949384169392831692909116906132ec565b60405180910390a16038546036546035546037546040516000946001600160a01b03908116946320515251948894610e1b9488949384169392831692909116908b908790602401613317565b60408051601f198184030181529181526020820180516001600160e01b031663d7c41c7960e01b1790525160e084901b6001600160e01b0319168152610e65929190600401613658565b602060405180830381600087803b158015610e7f57600080fd5b505af1158015610e93573d6000803e3d6000fd5b505050506040513d601f19601f82011682018060405250810190610eb79190612d73565b60395460405163f52084e960e01b81529192506001600160a01b03169063f52084e990610eea9085908590600401613641565b600060405180830381600087803b158015610f0457600080fd5b505af1158015610f18573d6000803e3d6000fd5b50506039546040516375997ce960e01b81526001600160a01b0390911692506375997ce99150610f4e9085908590600401613641565b600060405180830381600087803b158015610f6857600080fd5b505af1158015610f7c573d6000803e3d6000fd5b50505050505050505050565b61101781603960009054906101000a90046001600160a01b03166001600160a01b031663cf677f576040518163ffffffff1660e01b815260040160806040518083038186803b158015610fda57600080fd5b505afa158015610fee573d6000803e3d6000fd5b505050506040513d601f19601f82011682018060405250810190611012919061303d565b611d06565b6110335760405162461bcd60e51b815260040161028d906133f8565b61103b612c0d565b603954604051633495a7e360e11b81526001600160a01b039091169063692b4fc69061106b903390600401613204565b60806040518083038186803b15801561108357600080fd5b505afa158015611097573d6000803e3d6000fd5b505050506040513d601f19601f820116820180604052508101906110bb919061303d565b90506110c681611db9565b1561115457603960009054906101000a90046001600160a01b03166001600160a01b0316636d18c9706040518163ffffffff1660e01b815260040160806040518083038186803b15801561111957600080fd5b505afa15801561112d573d6000803e3d6000fd5b505050506040513d601f19601f82011682018060405250810190611151919061303d565b90505b61115e8282611b89565b1561117b5760405162461bcd60e51b815260040161028d906135af565b60395460405163bedc6d2760e01b81526001600160a01b039091169063bedc6d27906111ad9033908690600401613258565b600060405180830381600087803b1580156111c757600080fd5b505af11580156111db573d6000803e3d6000fd5b505050507f067ed149b8be43d30a47ed69bc882367f66239804079b28dd002d36fc3f46ed4826000015183604001518460200151856060015160405161122494939291906136a8565b60405180910390a16039546040516348bed1c960e11b81526000916001600160a01b03169063917da3929061125d9086906004016135f7565b60206040518083038186803b15801561127557600080fd5b505afa158015611289573d6000803e3d6000fd5b505050506040513d601f19601f820116820180604052508101906112ad9190612fc0565b60148111156112b857fe5b14156112c7576112c782611df1565b5050565b603355565b600054610100900460ff16806112e957506112e961261e565b806112f7575060005460ff16155b6113135760405162461bcd60e51b815260040161028d906134cd565b600054610100900460ff1615801561133e576000805460ff1961ff0019909116610100171660011790555b603980546001600160a01b0319166001600160a01b03848116919091179182905560408051633800918160e21b81529051929091169163e002460491600480820192602092909190829003018186803b15801561139a57600080fd5b505afa1580156113ae573d6000803e3d6000fd5b505050506040513d601f19601f820116820180604052508101906113d29190612d73565b603a80546001600160a01b0319166001600160a01b0392831617905560395460408051637718403560e01b8152905191909216916377184035916004808301926020929190829003018186803b15801561142b57600080fd5b505afa15801561143f573d6000803e3d6000fd5b505050506040513d601f19601f820116820180604052508101906114639190612d73565b603580546001600160a01b0319166001600160a01b039283161790556039546040805163123cfce160e01b81529051919092169163123cfce1916004808301926020929190829003018186803b1580156114bc57600080fd5b505afa1580156114d0573d6000803e3d6000fd5b505050506040513d601f19601f820116820180604052508101906114f49190612d73565b603680546001600160a01b0319166001600160a01b0392831617905560395460408051635beec2bb60e01b815290519190921691635beec2bb916004808301926020929190829003018186803b15801561154d57600080fd5b505afa158015611561573d6000803e3d6000fd5b505050506040513d601f19601f820116820180604052508101906115859190612d73565b603780546001600160a01b0319166001600160a01b0392831617905560395460408051633dd742c960e01b815290519190921691633dd742c9916004808301926020929190829003018186803b1580156115de57600080fd5b505afa1580156115f2573d6000803e3d6000fd5b505050506040513d601f19601f820116820180604052508101906116169190612d73565b603880546001600160a01b0319166001600160a01b039290921691909117905580156112c7576000805461ff00191690555050565b603a5460405163ba1edf1760e01b81526001600160a01b039091169063ba1edf179061167f90339086908690600401613218565b600060405180830381600087803b15801561169957600080fd5b505af11580156116ad573d6000803e3d6000fd5b50505050505050565b600080606080603960009054906101000a90046001600160a01b03166001600160a01b031663e2cd08626040518163ffffffff1660e01b815260040160206040518083038186803b15801561170a57600080fd5b505afa15801561171e573d6000803e3d6000fd5b505050506040513d601f19601f8201168201806040525081019061174291906130b6565b67ffffffffffffffff8111801561175857600080fd5b50604051908082528060200260200182016040528015611782578160200160208202803683370190505b5090506060815167ffffffffffffffff8111801561179f57600080fd5b506040519080825280602002602001820160405280156117c9578160200160208202803683370190505b50905060005b825181101561181e57808382815181106117e557fe5b602002602001018181525050868282815181106117fe57fe5b6001600160a01b03909216602092830291909101909101526001016117cf565b506037546040516313849cfd60e21b81526001600160a01b0390911690634e1273f4906118519084908690600401613351565b60006040518083038186803b15801561186957600080fd5b505afa15801561187d573d6000803e3d6000fd5b505050506040513d6000823e601f3d908101601f191682016040526118a59190810190612f08565b603954604051637008ec1b60e11b815291945060609182916001600160a01b03169063e011d836906118db9087906004016133a7565b60006040518083038186803b1580156118f357600080fd5b505afa158015611907573d6000803e3d6000fd5b505050506040513d6000823e601f3d908101601f1916820160405261192f9190810190612f43565b9150915060005b85518110156119cc5760008084838151811061194e57fe5b602002602001015184848151811061196257fe5b60200260200101519150915061199488848151811061197d57fe5b602002602001015183611be690919063ffffffff16565b8a0199506119be8884815181106119a757fe5b602002602001015182611be690919063ffffffff16565b909801975050600101611936565b505050509193509193565b6000600a816119e68983611c20565b6119f15760016119fb565b6119fb8983611c20565b90506000611a098884611c20565b611a14576001611a1e565b611a1e8884611c20565b9050818102600080805b8860ff168160ff161015611b38578915611acc57611a47600186611ca4565b9250611a54600187611ca4565b91507f3ab8d16fa0445f4581f0e35996348d2507338000fb353856d56f5db15618e39482848f8e604051611a8b949392919061367f565b60405180910390a1828d11611aa1576000611aab565b611aab8d84611c62565b9c50818b11611abb576000611ac5565b611ac58b83611c62565b9a50611b1b565b611ad7600186611ca4565b9250611ae4600187611ca4565b9150818b11611af4576000611afe565b611afe8b83611c62565b9a50828d11611b0e576000611b18565b611b188d84611c62565b9c505b8c1580611b2657508a155b15611b3057611b38565b600101611a28565b50898c1196507fa09af1f69f0376e675eb9a774ff51b588670dda43c3dd6805069596312e3bca5878d8c604051611b71939291906133ba565b60405180910390a15050505050509695505050505050565b8051825160009160ff9182169116148015611bb15750816040015160ff16836040015160ff16145b8015611bca5750816020015160ff16836020015160ff16145b8015611bdd575081606001518360600151145b90505b92915050565b600082611bf557506000611be0565b82820282848281611c0257fe5b0414611bdd5760405162461bcd60e51b815260040161028d9061348c565b6000611bdd83836040518060400160405280601a81526020017f536166654d6174683a206469766973696f6e206279207a65726f000000000000815250612624565b6000611bdd83836040518060400160405280601e81526020017f536166654d6174683a207375627472616374696f6e206f766572666c6f77000081525061265d565b6000814233603354603454604051602001611cc294939291906131d7565b6040516020818303038152906040528051906020012060001c81611ce257fe5b069050828110611cf25780611cf6565b8281015b6034805460010190559392505050565b815160009060ff161580611d2257508151835160ff9182169116115b15611d2f57506000611be0565b604083015160ff161580611d505750816040015160ff16836040015160ff16115b15611d5d57506000611be0565b602083015160ff161580611d7e5750816020015160ff16836020015160ff16115b15611d8b57506000611be0565b60608301511580611da3575081606001518360600151115b15611db057506000611be0565b50600192915050565b805160009060ff161580611dd25750604082015160ff16155b80611de25750602082015160ff16155b80611be0575050606001511590565b600080611dfc612689565b60395460405163083b214d60e41b81529294509092506001600160a01b0316906383b214d090611e329086908690600401613605565b600060405180830381600087803b158015611e4c57600080fd5b505af1158015611e60573d6000803e3d6000fd5b50505050336001600160a01b03167f119eeac2475e395d798da3c40d9f901a3131b79a826c604a60d078764e8ce408836014811115611e9b57fe5b604051611ea8919061369a565b60405180910390a26009826014811115611ebe57fe5b1415611ecb57505061261b565b6001826014811115611ed957fe5b1480611ef057506003826014811115611eee57fe5b145b80611f0657506005826014811115611f0457fe5b145b1561200d57603954604051636a2a747360e01b815260009182916001600160a01b0390911690636a2a747390611f409087906004016133d2565b6040805180830381600087803b158015611f5957600080fd5b505af1158015611f6d573d6000803e3d6000fd5b505050506040513d601f19601f82011682018060405250810190611f919190613100565b91509150600080606080611fa4336116b6565b93509350935093507f39c31677b1650d5b983fb38bf1ee25e9ca25658b8bdfb9263e59651183b48368338787308888604051611fe59695949392919061328e565b60405180910390a16000611fff878787876001600a6119d7565b905050505050505050610160565b600b82601481111561201b57fe5b14806120325750600d82601481111561203057fe5b145b806120485750600f82601481111561204657fe5b145b8061205e5750601382601481111561205c57fe5b145b1561240157603954604051634f4815d760e01b815260009182916001600160a01b0390911690634f4815d7906120989087906004016133d2565b6040805180830381600087803b1580156120b157600080fd5b505af11580156120c5573d6000803e3d6000fd5b505050506040513d601f19601f820116820180604052508101906120e99190613100565b9150915060006120f98383611ca4565b90506000603960009054906101000a90046001600160a01b03166001600160a01b03166304d5aae16040518163ffffffff1660e01b8152600401602060405180830381600087803b15801561214d57600080fd5b505af1158015612161573d6000803e3d6000fd5b505050506040513d601f19601f8201168201806040525081019061218591906130b6565b603a5460405163a080ee1560e01b81529192506001600160a01b03169063a080ee15906121b89033908590600401613275565b600060405180830381600087803b1580156121d257600080fd5b505af11580156121e6573d6000803e3d6000fd5b5050603854603654603554603754604051600096506001600160a01b039485169550632051525194889461222e9488949183169390831692909116908b908790602401613317565b60408051601f198184030181529181526020820180516001600160e01b031663d7c41c7960e01b1790525160e084901b6001600160e01b0319168152612278929190600401613658565b602060405180830381600087803b15801561229257600080fd5b505af11580156122a6573d6000803e3d6000fd5b505050506040513d601f19601f820116820180604052508101906122ca9190612d73565b60395460405163bedc6d2760e01b81529192506001600160a01b03169063bedc6d27906122fd9084908c90600401613258565b600060405180830381600087803b15801561231757600080fd5b505af115801561232b573d6000803e3d6000fd5b505060395460405163f52084e960e01b81526001600160a01b03909116925063f52084e991506123619085908590600401613641565b600060405180830381600087803b15801561237b57600080fd5b505af115801561238f573d6000803e3d6000fd5b50506039546040516375997ce960e01b81526001600160a01b0390911692506375997ce991506123c59085908590600401613641565b600060405180830381600087803b1580156123df57600080fd5b505af11580156123f3573d6000803e3d6000fd5b505050505050505050610160565b600e82601481111561240f57fe5b141561253f5760006124228260026129b3565b1561242e576001612431565b60025b60ff16905061243e612c34565b6124466129f5565b604080516001808252818301909252919250606091906020808301908036833750506040805160018082528183019092529293506060929150602080830190803683370190505090508260200151826000815181106124a157fe5b602090810291909101015282516124b89085611be6565b816000815181106124c557fe5b6020908102919091010152603a5460405163ba1edf1760e01b81526001600160a01b039091169063ba1edf179061250490339086908690600401613218565b600060405180830381600087803b15801561251e57600080fd5b505af1158015612532573d6000803e3d6000fd5b5050505050505050610160565b601082601481111561254d57fe5b14156101605761255b612c34565b612563612ac7565b604080516001808252818301909252919250606091906020808301908036833750506040805160018082528183019092529293506060929150602080830190803683370190505090508260200151826000815181106125be57fe5b6020026020010181815250508260000151816000815181106125dc57fe5b6020908102919091010152603a5460405163ba1edf1760e01b81526001600160a01b039091169063ba1edf1790610f4e90339086908690600401613218565b50565b303b1590565b600081836126455760405162461bcd60e51b815260040161028d91906133e5565b50600083858161265157fe5b049150505b9392505050565b600081848411156126815760405162461bcd60e51b815260040161028d91906133e5565b505050900390565b600080612710606461269c600183611ca4565b925082600161ffff821614156126b557600194506129ac565b8061ffff16602a14156126cb57600294506129ac565b816005028161ffff16116126e257600394506129ac565b816005028161ffff161180156126ff575081600a028161ffff1611155b1561270d57600494506129ac565b81600a028161ffff1611801561272a5750816014028161ffff1611155b1561273857600594506129ac565b816014028161ffff16118015612755575081601e028161ffff1611155b1561276357600694506129ac565b81601e028161ffff161180156127805750816023028161ffff1611155b1561278e57600794506129ac565b816023028161ffff161180156127ab5750816028028161ffff1611155b156127b957600894506129ac565b816028028161ffff161180156127d6575081602f028161ffff1611155b156127e457600994506129ac565b81602f028161ffff16118015612801575081603c028161ffff1611155b1561280f57600a94506129ac565b81603c028161ffff1611801561282c5750816041028161ffff1611155b1561283a57600b94506129ac565b816041028161ffff161180156128575750816046028161ffff1611155b1561286557600c94506129ac565b816046028161ffff16118015612882575081604b168161ffff1611155b1561289057600d94506129ac565b816046028161ffff161180156128ad5750816050168161ffff1611155b156128bb57600e94506129ac565b816050028161ffff161180156128d85750816055168161ffff1611155b156128e657600f94506129ac565b816055028161ffff16118015612903575081605a168161ffff1611155b1561291157601094506129ac565b81605a028161ffff1611801561292e575081605f168161ffff1611155b1561293c57601194506129ac565b81605f028161ffff161180156129595750816063168161ffff1611155b1561296757601294506129ac565b816063028161ffff161180156129845750600183038161ffff1611155b1561299257601394506129ac565b828161ffff1614156129a757601494506129ac565b600994505b5050509091565b6000611bdd83836040518060400160405280601881526020017f536166654d6174683a206d6f64756c6f206279207a65726f0000000000000000815250612b73565b6129fd612c34565b612a05612c4e565b73__Types_________________________________63c0e6aff16040518163ffffffff1660e01b81526004016103006040518083038186803b158015612a4a57600080fd5b505af4158015612a5e573d6000803e3d6000fd5b505050506040513d601f19601f82011682018060405250810190612a829190612e3a565b90506000612a9260006018611ca4565b90506000828260188110612aa257fe5b6020020151905060405180604001604052806001815260200182815250935050505090565b612acf612c34565b612ad7612c6d565b73__Types_________________________________63075587706040518163ffffffff1660e01b815260040160606040518083038186803b158015612b1b57600080fd5b505af4158015612b2f573d6000803e3d6000fd5b505050506040513d601f19601f82011682018060405250810190612b539190612ea2565b90506000612b6360006003611ca4565b90506000828260038110612aa257fe5b60008183612b945760405162461bcd60e51b815260040161028d91906133e5565b50828481612b9e57fe5b06949350505050565b604051806101600160405280612bbb612c0d565b815260200160008152602001600081526020016060815260200160608152602001612be4612c0d565b815260200160008152602001600081526020016060815260200160608152602001606081525090565b60408051608081018252600080825260208201819052918101829052606081019190915290565b604051806040016040528060008152602001600081525090565b6040518061030001604052806018906020820280368337509192915050565b60405180606001604052806003906020820280368337509192915050565b600082601f830112612c9b578081fd5b8135612cae612ca9826136f3565b6136cc565b818152915060208083019084810181840286018201871015612ccf57600080fd5b60005b84811015612cee57813584529282019290820190600101612cd2565b505050505092915050565b600082601f830112612d09578081fd5b8151612d17612ca9826136f3565b818152915060208083019084810181840286018201871015612d3857600080fd5b60005b84811015612cee57815184529282019290820190600101612d3b565b600060208284031215612d68578081fd5b8135611bdd8161371d565b600060208284031215612d84578081fd5b8151611bdd8161371d565b600080600060608486031215612da3578182fd5b8335612dae8161371d565b9250602084013567ffffffffffffffff80821115612dca578384fd5b612dd687838801612c8b565b93506040860135915080821115612deb578283fd5b50612df886828701612c8b565b9150509250925092565b60008060408385031215612e14578182fd5b8235612e1f8161371d565b91506020830135612e2f8161373f565b809150509250929050565b6000610300808385031215612e4d578182fd5b83601f840112612e5b578182fd5b612e64816136cc565b8084868487011115612e74578485fd5b8493505b6018841015612e9857805183526001939093019260209283019201612e78565b5095945050505050565b600060608284031215612eb3578081fd5b82601f830112612ec1578081fd5b612ecb60606136cc565b808385606086011115612edc578384fd5b835b6003811015612efd578151845260209384019390910190600101612ede565b509095945050505050565b600060208284031215612f19578081fd5b815167ffffffffffffffff811115612f2f578182fd5b612f3b84828501612cf9565b949350505050565b60008060408385031215612f55578182fd5b825167ffffffffffffffff80821115612f6c578384fd5b612f7886838701612cf9565b93506020850151915080821115612f8d578283fd5b50612f9a85828601612cf9565b9150509250929050565b600060208284031215612fb5578081fd5b8135611bdd81613732565b600060208284031215612fd1578081fd5b8151611bdd81613732565b600060808284031215612fed578081fd5b612ff760806136cc565b82356130028161373f565b815260208301356130128161373f565b602082015260408301356130258161373f565b60408201526060928301359281019290925250919050565b60006080828403121561304e578081fd5b61305860806136cc565b82516130638161373f565b815260208301516130738161373f565b602082015260408301516130868161373f565b60408201526060928301519281019290925250919050565b6000602082840312156130af578081fd5b5035919050565b6000602082840312156130c7578081fd5b5051919050565b6000806000606084860312156130e2578081fd5b83359250602084013567ffffffffffffffff80821115612dca578283fd5b60008060408385031215613112578182fd5b505080516020909101519092909150565b6000815180845260208085019450808401835b8381101561315257815187529582019590820190600101613136565b509495945050505050565b60008151808452815b8181101561318257602081850181015186830182015201613166565b818111156131935782602083870101525b50601f01601f19169290920160200192915050565b60ff815116825260ff602082015116602083015260ff6040820151166040830152606081015160608301525050565b93845260609290921b6bffffffffffffffffffffffff191660208401526034830152605482015260740190565b6001600160a01b0391909116815260200190565b6001600160a01b038416815260606020820181905260009061323c90830185613123565b828103604084015261324e8185613123565b9695505050505050565b6001600160a01b038316815260a0810161265660208301846131a8565b6001600160a01b03929092168252602082015260400190565b6001600160a01b0396871681526020810195909552604085019390935293166060830152608082019290925260a081019190915260c00190565b6001600160a01b039384168152919092166020820152604081019190915260600190565b6001600160a01b03948516815292841660208401529083166040830152909116606082015260800190565b6001600160a01b0396871681529486166020860152928516604085015293166060830152608082019290925260a081019190915260c00190565b604080825283519082018190526000906020906060840190828701845b828110156133935781516001600160a01b03168452928401929084019060010161336e565b5050508381038285015261324e8186613123565b600060208252611bdd6020830184613123565b92151583526020830191909152604082015260600190565b602081016133df83613713565b91905290565b600060208252611bdd602083018461315d565b60208082526038908201527f506f736974696f6e206d7573742062652077697468696e20736574206c696d6960408201527f7473206f6620746865206b6e6f776e20756e6976657273650000000000000000606082015260800190565b6020808252601f908201527f416464726573736573206d757374206578697374206d75737420657869737400604082015260600190565b60208082526021908201527f536166654d6174683a206d756c7469706c69636174696f6e206f766572666c6f6040820152607760f81b606082015260800190565b6020808252602e908201527f436f6e747261637420696e7374616e63652068617320616c726561647920626560408201526d195b881a5b9a5d1a585b1a5e995960921b606082015260800190565b6020808252601a908201527f596f752063616e6e6f742061747461636b20796f757273656c66000000000000604082015260600190565b60208082526038908201527f596f752063616e206f6e6c792061747461636b2070656f706c6520617420796f60408201527f75722063757272656e742073746172206c6f636174696f6e0000000000000000606082015260800190565b60208082526028908201527f596f752063616e6e6f74206d6f766520746f20796f75722063757272656e74206040820152673637b1b0ba34b7b760c11b606082015260800190565b60808101611be082846131a8565b60a0810161361382856131a8565b61361c83613713565b8260808301529392505050565b61ffff91909116815260200190565b90815260200190565b9182526001600160a01b0316602082015260400190565b600083825260406020830152612f3b604083018461315d565b918252602082015260400190565b93845260208401929092526040830152606082015260800190565b60ff91909116815260200190565b60ff9485168152928416602084015292166040820152606081019190915260800190565b60405181810167ffffffffffffffff811182821017156136eb57600080fd5b604052919050565b600067ffffffffffffffff821115613709578081fd5b5060209081020190565b6015811061261b57fe5b6001600160a01b038116811461261b57600080fd5b6015811061261b57600080fd5b60ff8116811461261b57600080fdfea2646970667358221220bd0299852b8720b16d39f1cea6e66db203b132bf585350d95f482b545fb9fa3e64736f6c634300060c0033",
  "immutableReferences": {},
  "source": "pragma solidity 0.6.12;\npragma experimental ABIEncoderV2;\n\nimport {GameOperations} from '../GameOperations.sol';\nimport {Types} from '../lib/Types.sol';\n\n/* solium-disable-next-line */\ncontract TestGameOperations is GameOperations {\n    // create test functions\n    event TestAddress(address a, address b, address c, address d);\n    event TestUint(uint256 a, uint256 b);\n\n    function testAiFleetAttack(Types.SystemType starSystem) public {\n        (uint256 a_offense, uint256 a_defense) = GS.getAiFleetInfo(starSystem);\n        (\n            uint256 d_offense,\n            uint256 d_defense,\n            uint256[] memory d_balances,\n            uint256[] memory d_ids\n        ) = calculateStats(msg.sender);\n        emit BattleStarted(msg.sender, a_offense, a_defense, address(this), d_offense, d_defense);\n\n        bool result = battle(a_offense, a_defense, d_offense, d_defense, true, 10);\n    }\n\n    function testFhrDiscovery(Types.SystemType systemType) public {\n        (uint256 low, uint256 high) = GS.getStarSystemYieldRange(systemType);\n        uint256 yield = randomrange(low, high);\n        uint256 _id = GS.incrementTotalFhr();\n        emit TestUint(yield, _id);\n        TS.mintFhr(msg.sender, _id);\n        emit TestAddress(address(pm), address(solar), address(fhr), address(sats));\n        address _address = pm.createPlanet(\n            _id,\n            abi.encodeWithSignature(\n                'initialize(address,address,address,address,uint256,uint256)',\n                address(pm),\n                address(solar),\n                address(fhr),\n                address(sats),\n                yield,\n                _id\n            )\n        );\n        GS.setTokenIdToProxyAddress(_id, _address);\n        GS.setProxyAddressToTokenId(_id, _address);\n    }\n\n    function testSatDiscovery(\n        uint256 rand,\n        uint256[] memory ships,\n        uint256[] memory amounts\n    ) public {\n        TS.sendSats(msg.sender, ships, amounts);\n        // updateMasterFleet(msg.sender, ships, amounts);\n    }\n\n    function testUpdateMasterFleet(\n        address master,\n        uint256[] memory ids,\n        uint256[] memory amounts\n    ) public {\n        // updateMasterFleet(master, ids, amounts);\n    }\n}\n",
  "sourcePath": "C:/Users/James/projects/tsuno-fe/contracts/testing/TestGameOperations.sol",
  "compiler": {
    "name": "solc",
    "version": "0.6.12+commit.27d51765.Emscripten.clang"
  },
  "schemaVersion": "3.2.5",
  "updatedAt": "2020-10-20T18:48:17.483Z",
  "networkType": "ethereum",
  "devdoc": {
    "kind": "dev",
    "methods": {},
    "version": 1
  },
  "userdoc": {
    "kind": "user",
    "methods": {},
    "version": 1
  }
}