{
  "contractName": "TestMaster",
  "abi": [
    {
      "inputs": [],
      "stateMutability": "nonpayable",
      "type": "constructor"
    },
    {
      "anonymous": false,
      "inputs": [
        {
          "indexed": true,
          "internalType": "address",
          "name": "previousOwner",
          "type": "address"
        },
        {
          "indexed": true,
          "internalType": "address",
          "name": "newOwner",
          "type": "address"
        }
      ],
      "name": "OwnershipTransferred",
      "type": "event"
    },
    {
      "inputs": [
        {
          "internalType": "uint256",
          "name": "amount",
          "type": "uint256"
        },
        {
          "internalType": "uint256",
          "name": "length",
          "type": "uint256"
        }
      ],
      "name": "deposit",
      "outputs": [],
      "stateMutability": "nonpayable",
      "type": "function"
    },
    {
      "inputs": [],
      "name": "emergencyWithdraw",
      "outputs": [],
      "stateMutability": "nonpayable",
      "type": "function"
    },
    {
      "inputs": [],
      "name": "getBalance",
      "outputs": [
        {
          "internalType": "uint256",
          "name": "",
          "type": "uint256"
        }
      ],
      "stateMutability": "view",
      "type": "function",
      "constant": true
    },
    {
      "inputs": [],
      "name": "getDateUnlocked",
      "outputs": [
        {
          "internalType": "uint256",
          "name": "",
          "type": "uint256"
        }
      ],
      "stateMutability": "view",
      "type": "function",
      "constant": true
    },
    {
      "inputs": [
        {
          "internalType": "uint256",
          "name": "stakeTsuno",
          "type": "uint256"
        },
        {
          "internalType": "uint256",
          "name": "stakedDays",
          "type": "uint256"
        }
      ],
      "name": "getPotentialReward",
      "outputs": [
        {
          "internalType": "uint256",
          "name": "",
          "type": "uint256"
        }
      ],
      "stateMutability": "nonpayable",
      "type": "function"
    },
    {
      "inputs": [],
      "name": "getReward",
      "outputs": [
        {
          "internalType": "uint256",
          "name": "",
          "type": "uint256"
        }
      ],
      "stateMutability": "view",
      "type": "function",
      "constant": true
    },
    {
      "inputs": [
        {
          "components": [
            {
              "internalType": "uint8",
              "name": "quadrant",
              "type": "uint8"
            },
            {
              "internalType": "uint8",
              "name": "distract",
              "type": "uint8"
            },
            {
              "internalType": "uint8",
              "name": "sector",
              "type": "uint8"
            },
            {
              "internalType": "uint32",
              "name": "star",
              "type": "uint32"
            }
          ],
          "internalType": "struct Types.StarPosition",
          "name": "from",
          "type": "tuple"
        },
        {
          "components": [
            {
              "internalType": "uint8",
              "name": "quadrant",
              "type": "uint8"
            },
            {
              "internalType": "uint8",
              "name": "distract",
              "type": "uint8"
            },
            {
              "internalType": "uint8",
              "name": "sector",
              "type": "uint8"
            },
            {
              "internalType": "uint32",
              "name": "star",
              "type": "uint32"
            }
          ],
          "internalType": "struct Types.StarPosition",
          "name": "to",
          "type": "tuple"
        }
      ],
      "name": "move",
      "outputs": [],
      "stateMutability": "nonpayable",
      "type": "function"
    },
    {
      "inputs": [],
      "name": "owner",
      "outputs": [
        {
          "internalType": "address",
          "name": "",
          "type": "address"
        }
      ],
      "stateMutability": "view",
      "type": "function",
      "constant": true
    },
    {
      "inputs": [],
      "name": "renounceOwnership",
      "outputs": [],
      "stateMutability": "nonpayable",
      "type": "function"
    },
    {
      "inputs": [
        {
          "internalType": "address",
          "name": "_sat",
          "type": "address"
        }
      ],
      "name": "setSatAddress",
      "outputs": [],
      "stateMutability": "nonpayable",
      "type": "function"
    },
    {
      "inputs": [
        {
          "internalType": "address",
          "name": "_solar",
          "type": "address"
        }
      ],
      "name": "setSolarAddress",
      "outputs": [],
      "stateMutability": "nonpayable",
      "type": "function"
    },
    {
      "inputs": [
        {
          "internalType": "address",
          "name": "_tsuno",
          "type": "address"
        }
      ],
      "name": "setTsunoAddress",
      "outputs": [],
      "stateMutability": "nonpayable",
      "type": "function"
    },
    {
      "inputs": [
        {
          "internalType": "address",
          "name": "newOwner",
          "type": "address"
        }
      ],
      "name": "transferOwnership",
      "outputs": [],
      "stateMutability": "nonpayable",
      "type": "function"
    },
    {
      "inputs": [],
      "name": "withdraw",
      "outputs": [],
      "stateMutability": "nonpayable",
      "type": "function"
    }
  ],
  "bytecode": "0x608060405234801561001057600080fd5b50600061001b61006e565b600780546001600160a01b0319166001600160a01b038316908117909155604051919250906000907f8be0079c531659141344cd1fd0a4f28419497f9722a3daafe3b4186f6b6457e0908290a350610072565b3390565b6108e5806100816000396000f3fe608060405234801561001057600080fd5b50600436106100ea5760003560e01c80638da5cb5b1161008c578063bd35889111610066578063bd35889114610190578063db2e21bc146101a3578063e2bbb158146101ab578063f2fde38b146101be576100ea565b80638da5cb5b1461016057806399d7d17f14610175578063bc562ba91461017d576100ea565b80633e49cc9b116100c85780633e49cc9b1461011f578063715018a61461013257806382c7d5571461013a5780638aaf4bfc1461014d576100ea565b806312065fe0146100ef5780633ccfd60b1461010d5780633d18b91214610117575b600080fd5b6100f76101d1565b6040516101049190610866565b60405180910390f35b6101156101e3565b005b6100f761024c565b61011561012d36600461071e565b610259565b6101156102b9565b6100f7610148366004610781565b610338565b61011561015b36600461071e565b61034d565b6101686103a4565b60405161010491906107d7565b6100f76103b3565b61011561018b36600461071e565b6103c0565b61011561019e36600461074c565b610417565b610115610487565b6101156101b9366004610781565b6104bf565b6101156101cc36600461071e565b6104fb565b60006101de6000336105b2565b905090565b604051626fcb7160e41b815273__FundOperations________________________906306fcb7109061021a90600090600401610866565b60006040518083038186803b15801561023257600080fd5b505af4158015610246573d6000803e3d6000fd5b50505050565b60006101de6000336105ce565b6102616105ed565b6007546001600160a01b039081169116146102975760405162461bcd60e51b815260040161028e90610831565b60405180910390fd5b600580546001600160a01b0319166001600160a01b0392909216919091179055565b6102c16105ed565b6007546001600160a01b039081169116146102ee5760405162461bcd60e51b815260040161028e90610831565b6007546040516000916001600160a01b0316907f8be0079c531659141344cd1fd0a4f28419497f9722a3daafe3b4186f6b6457e0908390a3600780546001600160a01b0319169055565b600061034483836105f1565b90505b92915050565b6103556105ed565b6007546001600160a01b039081169116146103825760405162461bcd60e51b815260040161028e90610831565b600680546001600160a01b0319166001600160a01b0392909216919091179055565b6007546001600160a01b031690565b60006101de600033610664565b6103c86105ed565b6007546001600160a01b039081169116146103f55760405162461bcd60e51b815260040161028e90610831565b600480546001600160a01b0319166001600160a01b0392909216919091179055565b60405163f5a8e92160e01b815273__GameOperations________________________9063f5a8e92190610453906000908690869060040161086f565b60006040518083038186803b15801561046b57600080fd5b505af415801561047f573d6000803e3d6000fd5b505050505050565b6040516315826da360e01b815273__FundOperations________________________906315826da39061021a90600090600401610866565b6040516339d7f36b60e21b815273__FundOperations________________________9063e75fcdac906104539060009086908690600401610899565b6105036105ed565b6007546001600160a01b039081169116146105305760405162461bcd60e51b815260040161028e90610831565b6001600160a01b0381166105565760405162461bcd60e51b815260040161028e906107eb565b6007546040516001600160a01b038084169216907f8be0079c531659141344cd1fd0a4f28419497f9722a3daafe3b4186f6b6457e090600090a3600780546001600160a01b0319166001600160a01b0392909216919091179055565b6001600160a01b03166000908152602091909152604090205490565b6001600160a01b03166000908152602091909152604090206003015490565b3390565b60008060018311156106175761071c83111561060f5761071c610614565b600183035b90505b60006308f0d18084111561062f576308f0d180610631565b845b90506b04d8c55aefb8c05b5c000000820261038e8202016c113a8d894022bbc4c108000000868202049695505050505050565b6001600160a01b03166000908152602091909152604090206002015490565b600060808284031215610694578081fd5b6040516080810181811067ffffffffffffffff821117156106b3578283fd5b6040529050806106c3848461070d565b81526106d2846020850161070d565b60208201526106e4846040850161070d565b6040820152606083013563ffffffff8116811461070057600080fd5b6060919091015292915050565b803560ff8116811461034757600080fd5b60006020828403121561072f578081fd5b81356001600160a01b0381168114610745578182fd5b9392505050565b600080610100838503121561075f578081fd5b6107698484610683565b91506107788460808501610683565b90509250929050565b60008060408385031215610793578182fd5b50508035926020909101359150565b60ff815116825260ff602082015116602083015260ff604082015116604083015263ffffffff60608201511660608301525050565b6001600160a01b0391909116815260200190565b60208082526026908201527f4f776e61626c653a206e6577206f776e657220697320746865207a65726f206160408201526564647265737360d01b606082015260800190565b6020808252818101527f4f776e61626c653a2063616c6c6572206973206e6f7420746865206f776e6572604082015260600190565b90815260200190565b838152610120810161088460208301856107a2565b61089160a08301846107a2565b949350505050565b928352602083019190915260408201526060019056fea2646970667358221220dcb642a27ad14c1113cc7e076b04ad50adce57bfb63a1bc59aaf8c5820f7b68c64736f6c634300060c0033",
  "immutableReferences": {},
  "source": "// SPDX-License-Identifier: MIT\npragma solidity 0.6.12;\npragma experimental ABIEncoderV2;\n\nimport {SafeMath} from '@openzeppelin/contracts/math/SafeMath.sol';\nimport {Master} from '../protocol/master.sol';\n\ncontract TestMaster is Master {\n    constructor() public Master() {}\n\n    // function giveArmyA() public {\n    //     g_state.masters[msg.sender].army.soldiers = 1000;\n    //     g_state.masters[msg.sender].army.cavalry = 1000;\n    //     g_state.masters[msg.sender].army.archers = 1000;\n    //     g_state.masters[msg.sender].army.siegeWeapons = 0;\n    //     g_state.masters[msg.sender].army.defenceStructures = 1000;\n    // }\n\n    // function giveArmyB() public {\n    //     g_state.masters[msg.sender].army.soldiers = 1000;\n    //     g_state.masters[msg.sender].army.cavalry = 1000;\n    //     g_state.masters[msg.sender].army.archers = 1000;\n    //     g_state.masters[msg.sender].army.siegeWeapons = 500;\n    //     g_state.masters[msg.sender].army.defenceStructures = 750;\n    // }\n}\n",
  "sourcePath": "C:/Users/James/projects/tsuno-fe/contracts/testing/TestMaster.sol",
  "compiler": {
    "name": "solc",
    "version": "0.6.12+commit.27d51765.Emscripten.clang"
  },
  "schemaVersion": "3.2.5",
  "updatedAt": "2020-09-25T15:32:51.131Z",
  "networkType": "ethereum",
  "devdoc": {
    "kind": "dev",
    "methods": {
      "owner()": {
        "details": "Returns the address of the current owner."
      },
      "renounceOwnership()": {
        "details": "Leaves the contract without owner. It will not be possible to call `onlyOwner` functions anymore. Can only be called by the current owner. NOTE: Renouncing ownership will leave the contract without an owner, thereby removing any functionality that is only available to the owner."
      },
      "transferOwnership(address)": {
        "details": "Transfers ownership of the contract to a new account (`newOwner`). Can only be called by the current owner."
      }
    },
    "version": 1
  },
  "userdoc": {
    "kind": "user",
    "methods": {},
    "version": 1
  }
}