{
  "contractName": "TestMaster",
  "abi": [
    {
      "inputs": [
        {
          "internalType": "address",
          "name": "tsuno",
          "type": "address"
        }
      ],
      "stateMutability": "nonpayable",
      "type": "constructor"
    },
    {
      "inputs": [
        {
          "internalType": "address",
          "name": "defender",
          "type": "address"
        }
      ],
      "name": "attack",
      "outputs": [],
      "stateMutability": "nonpayable",
      "type": "function"
    },
    {
      "inputs": [
        {
          "internalType": "uint256",
          "name": "amount",
          "type": "uint256"
        },
        {
          "internalType": "uint256",
          "name": "length",
          "type": "uint256"
        }
      ],
      "name": "deposit",
      "outputs": [],
      "stateMutability": "nonpayable",
      "type": "function"
    },
    {
      "inputs": [],
      "name": "getBalance",
      "outputs": [
        {
          "internalType": "uint256",
          "name": "",
          "type": "uint256"
        }
      ],
      "stateMutability": "view",
      "type": "function",
      "constant": true
    },
    {
      "inputs": [
        {
          "internalType": "uint256",
          "name": "stakeTsuno",
          "type": "uint256"
        },
        {
          "internalType": "uint256",
          "name": "stakedDays",
          "type": "uint256"
        }
      ],
      "name": "getPotentialReward",
      "outputs": [
        {
          "internalType": "uint256",
          "name": "",
          "type": "uint256"
        }
      ],
      "stateMutability": "nonpayable",
      "type": "function"
    },
    {
      "inputs": [],
      "name": "getReward",
      "outputs": [
        {
          "internalType": "uint256",
          "name": "",
          "type": "uint256"
        }
      ],
      "stateMutability": "view",
      "type": "function",
      "constant": true
    },
    {
      "inputs": [],
      "name": "withdraw",
      "outputs": [],
      "stateMutability": "nonpayable",
      "type": "function"
    },
    {
      "inputs": [],
      "name": "giveArmyA",
      "outputs": [],
      "stateMutability": "nonpayable",
      "type": "function"
    },
    {
      "inputs": [],
      "name": "get1",
      "outputs": [
        {
          "internalType": "uint256",
          "name": "",
          "type": "uint256"
        }
      ],
      "stateMutability": "pure",
      "type": "function",
      "constant": true
    },
    {
      "inputs": [],
      "name": "giveArmyB",
      "outputs": [],
      "stateMutability": "nonpayable",
      "type": "function"
    }
  ],
  "bytecode": "0x608060405234801561001057600080fd5b506040516104f13803806104f183398101604081905261002f91610054565b600c80546001600160a01b0319166001600160a01b0392909216919091179055610082565b600060208284031215610065578081fd5b81516001600160a01b038116811461007b578182fd5b9392505050565b610460806100916000396000f3fe608060405234801561001057600080fd5b50600436106100935760003560e01c806382c7d5571161006657806382c7d557146100d0578063ae7edb44146100e3578063d018db3e146100eb578063d0ab419d146100fe578063e2bbb1581461010657610093565b8063054c1a751461009857806312065fe0146100b65780633ccfd60b146100be5780633d18b912146100c8575b600080fd5b6100a0610119565b6040516100ad91906103ec565b60405180910390f35b6100a061011e565b6100c6610130565b005b6100a0610199565b6100a06100de3660046103cb565b6101a6565b6100c66101b9565b6100c66100f93660046103a4565b6101ee565b6100c661025d565b6100c66101143660046103cb565b610295565b600190565b600061012b600033610305565b905090565b604051626fcb7160e41b815273__FundOperations________________________906306fcb71090610167906000906004016103ec565b60006040518083038186803b15801561017f57600080fd5b505af4158015610193573d6000803e3d6000fd5b50505050565b600061012b600033610321565b60006101b28383610340565b9392505050565b3360009081526020819052604081206103e8600682018190556008820181905560078201819055600482019290925560050155565b604051638bde9a9f60e01b815273__GameOperations________________________90638bde9a9f9061022a90600090339086906004016103f5565b60006040518083038186803b15801561024257600080fd5b505af4158015610256573d6000803e3d6000fd5b5050505050565b3360009081526020819052604090206103e8600682018190556008820181905560078201556101f460048201556102ee600590910155565b6040516339d7f36b60e21b815273__FundOperations________________________9063e75fcdac906102d19060009086908690600401610414565b60006040518083038186803b1580156102e957600080fd5b505af41580156102fd573d6000803e3d6000fd5b505050505050565b6001600160a01b03166000908152602091909152604090205490565b6001600160a01b03166000908152602091909152604090206003015490565b60008060018311156103665761071c83111561035e5761071c610363565b600183035b90505b60006308f0d18084111561037e576308f0d180610380565b845b90506359682f00820261038e82020165013dd0571200868202049695505050505050565b6000602082840312156103b5578081fd5b81356001600160a01b03811681146101b2578182fd5b600080604083850312156103dd578081fd5b50508035926020909101359150565b90815260200190565b9283526001600160a01b03918216602084015216604082015260600190565b928352602083019190915260408201526060019056fea2646970667358221220429a0787ca29aa3a938b84a9e3af255e8faed9d4bce9d84410d5895658560c7264736f6c634300060c0033",
  "immutableReferences": {},
  "source": "// SPDX-License-Identifier: MIT\npragma solidity 0.6.12;\npragma experimental ABIEncoderV2;\n\nimport {SafeMath} from '@openzeppelin/contracts/math/SafeMath.sol';\nimport {Master} from '../protocol/master.sol';\n\ncontract TestMaster is Master {\n    constructor(address tsuno) public Master(tsuno) {}\n\n    function giveArmyA() public {\n        g_state.masters[msg.sender].army.soldiers = 1000;\n        g_state.masters[msg.sender].army.cavalry = 1000;\n        g_state.masters[msg.sender].army.archers = 1000;\n        g_state.masters[msg.sender].army.siegeWeapons = 0;\n        g_state.masters[msg.sender].army.defenceStructures = 1000;\n    }\n\n    function get1() public pure returns (uint256) {\n        return 1;\n    }\n\n    function giveArmyB() public {\n        g_state.masters[msg.sender].army.soldiers = 1000;\n        g_state.masters[msg.sender].army.cavalry = 1000;\n        g_state.masters[msg.sender].army.archers = 1000;\n        g_state.masters[msg.sender].army.siegeWeapons = 500;\n        g_state.masters[msg.sender].army.defenceStructures = 750;\n    }\n}\n",
  "sourcePath": "C:/Users/James/projects/tsuno-fe/contracts/testing/TestMaster.sol",
  "compiler": {
    "name": "solc",
    "version": "0.6.12+commit.27d51765.Emscripten.clang"
  },
  "schemaVersion": "3.2.5",
  "updatedAt": "2020-09-20T19:32:55.030Z",
  "networkType": "ethereum",
  "devdoc": {
    "kind": "dev",
    "methods": {},
    "version": 1
  },
  "userdoc": {
    "kind": "user",
    "methods": {},
    "version": 1
  }
}