{
  "contractName": "TestSolar",
  "abi": [
    {
      "inputs": [
        {
          "internalType": "address",
          "name": "eternalStorage",
          "type": "address"
        }
      ],
      "stateMutability": "nonpayable",
      "type": "constructor"
    },
    {
      "anonymous": false,
      "inputs": [
        {
          "indexed": true,
          "internalType": "address",
          "name": "owner",
          "type": "address"
        },
        {
          "indexed": true,
          "internalType": "address",
          "name": "spender",
          "type": "address"
        },
        {
          "indexed": false,
          "internalType": "uint256",
          "name": "value",
          "type": "uint256"
        }
      ],
      "name": "Approval",
      "type": "event"
    },
    {
      "anonymous": false,
      "inputs": [
        {
          "indexed": true,
          "internalType": "address",
          "name": "delegator",
          "type": "address"
        },
        {
          "indexed": true,
          "internalType": "address",
          "name": "fromDelegate",
          "type": "address"
        },
        {
          "indexed": true,
          "internalType": "address",
          "name": "toDelegate",
          "type": "address"
        }
      ],
      "name": "DelegateChanged",
      "type": "event"
    },
    {
      "anonymous": false,
      "inputs": [
        {
          "indexed": true,
          "internalType": "address",
          "name": "delegate",
          "type": "address"
        },
        {
          "indexed": false,
          "internalType": "uint256",
          "name": "previousBalance",
          "type": "uint256"
        },
        {
          "indexed": false,
          "internalType": "uint256",
          "name": "newBalance",
          "type": "uint256"
        }
      ],
      "name": "DelegateVotesChanged",
      "type": "event"
    },
    {
      "anonymous": false,
      "inputs": [
        {
          "indexed": true,
          "internalType": "address",
          "name": "previousOwner",
          "type": "address"
        },
        {
          "indexed": true,
          "internalType": "address",
          "name": "newOwner",
          "type": "address"
        }
      ],
      "name": "OwnershipTransferred",
      "type": "event"
    },
    {
      "anonymous": false,
      "inputs": [
        {
          "indexed": true,
          "internalType": "address",
          "name": "from",
          "type": "address"
        },
        {
          "indexed": true,
          "internalType": "address",
          "name": "to",
          "type": "address"
        },
        {
          "indexed": false,
          "internalType": "uint256",
          "name": "value",
          "type": "uint256"
        }
      ],
      "name": "Transfer",
      "type": "event"
    },
    {
      "inputs": [],
      "name": "DELEGATION_TYPEHASH",
      "outputs": [
        {
          "internalType": "bytes32",
          "name": "",
          "type": "bytes32"
        }
      ],
      "stateMutability": "view",
      "type": "function",
      "constant": true
    },
    {
      "inputs": [],
      "name": "DOMAIN_TYPEHASH",
      "outputs": [
        {
          "internalType": "bytes32",
          "name": "",
          "type": "bytes32"
        }
      ],
      "stateMutability": "view",
      "type": "function",
      "constant": true
    },
    {
      "inputs": [
        {
          "internalType": "address",
          "name": "owner",
          "type": "address"
        },
        {
          "internalType": "address",
          "name": "spender",
          "type": "address"
        }
      ],
      "name": "allowance",
      "outputs": [
        {
          "internalType": "uint256",
          "name": "",
          "type": "uint256"
        }
      ],
      "stateMutability": "view",
      "type": "function",
      "constant": true
    },
    {
      "inputs": [
        {
          "internalType": "address",
          "name": "spender",
          "type": "address"
        },
        {
          "internalType": "uint256",
          "name": "amount",
          "type": "uint256"
        }
      ],
      "name": "approve",
      "outputs": [
        {
          "internalType": "bool",
          "name": "",
          "type": "bool"
        }
      ],
      "stateMutability": "nonpayable",
      "type": "function"
    },
    {
      "inputs": [
        {
          "internalType": "address",
          "name": "account",
          "type": "address"
        }
      ],
      "name": "balanceOf",
      "outputs": [
        {
          "internalType": "uint256",
          "name": "",
          "type": "uint256"
        }
      ],
      "stateMutability": "view",
      "type": "function",
      "constant": true
    },
    {
      "inputs": [
        {
          "internalType": "address",
          "name": "",
          "type": "address"
        },
        {
          "internalType": "uint32",
          "name": "",
          "type": "uint32"
        }
      ],
      "name": "checkpoints",
      "outputs": [
        {
          "internalType": "uint32",
          "name": "fromBlock",
          "type": "uint32"
        },
        {
          "internalType": "uint256",
          "name": "votes",
          "type": "uint256"
        }
      ],
      "stateMutability": "view",
      "type": "function",
      "constant": true
    },
    {
      "inputs": [],
      "name": "decimals",
      "outputs": [
        {
          "internalType": "uint8",
          "name": "",
          "type": "uint8"
        }
      ],
      "stateMutability": "view",
      "type": "function",
      "constant": true
    },
    {
      "inputs": [
        {
          "internalType": "address",
          "name": "spender",
          "type": "address"
        },
        {
          "internalType": "uint256",
          "name": "subtractedValue",
          "type": "uint256"
        }
      ],
      "name": "decreaseAllowance",
      "outputs": [
        {
          "internalType": "bool",
          "name": "",
          "type": "bool"
        }
      ],
      "stateMutability": "nonpayable",
      "type": "function"
    },
    {
      "inputs": [
        {
          "internalType": "address",
          "name": "delegatee",
          "type": "address"
        }
      ],
      "name": "delegate",
      "outputs": [],
      "stateMutability": "nonpayable",
      "type": "function"
    },
    {
      "inputs": [
        {
          "internalType": "address",
          "name": "delegatee",
          "type": "address"
        },
        {
          "internalType": "uint256",
          "name": "nonce",
          "type": "uint256"
        },
        {
          "internalType": "uint256",
          "name": "expiry",
          "type": "uint256"
        },
        {
          "internalType": "uint8",
          "name": "v",
          "type": "uint8"
        },
        {
          "internalType": "bytes32",
          "name": "r",
          "type": "bytes32"
        },
        {
          "internalType": "bytes32",
          "name": "s",
          "type": "bytes32"
        }
      ],
      "name": "delegateBySig",
      "outputs": [],
      "stateMutability": "nonpayable",
      "type": "function"
    },
    {
      "inputs": [
        {
          "internalType": "address",
          "name": "delegator",
          "type": "address"
        }
      ],
      "name": "delegates",
      "outputs": [
        {
          "internalType": "address",
          "name": "",
          "type": "address"
        }
      ],
      "stateMutability": "view",
      "type": "function",
      "constant": true
    },
    {
      "inputs": [
        {
          "internalType": "address",
          "name": "account",
          "type": "address"
        }
      ],
      "name": "getCurrentVotes",
      "outputs": [
        {
          "internalType": "uint256",
          "name": "",
          "type": "uint256"
        }
      ],
      "stateMutability": "view",
      "type": "function",
      "constant": true
    },
    {
      "inputs": [
        {
          "internalType": "address",
          "name": "account",
          "type": "address"
        },
        {
          "internalType": "uint256",
          "name": "blockNumber",
          "type": "uint256"
        }
      ],
      "name": "getPriorVotes",
      "outputs": [
        {
          "internalType": "uint256",
          "name": "",
          "type": "uint256"
        }
      ],
      "stateMutability": "view",
      "type": "function",
      "constant": true
    },
    {
      "inputs": [
        {
          "internalType": "address",
          "name": "spender",
          "type": "address"
        },
        {
          "internalType": "uint256",
          "name": "addedValue",
          "type": "uint256"
        }
      ],
      "name": "increaseAllowance",
      "outputs": [
        {
          "internalType": "bool",
          "name": "",
          "type": "bool"
        }
      ],
      "stateMutability": "nonpayable",
      "type": "function"
    },
    {
      "inputs": [
        {
          "internalType": "address",
          "name": "_to",
          "type": "address"
        },
        {
          "internalType": "uint256",
          "name": "_amount",
          "type": "uint256"
        }
      ],
      "name": "mint",
      "outputs": [],
      "stateMutability": "nonpayable",
      "type": "function"
    },
    {
      "inputs": [],
      "name": "name",
      "outputs": [
        {
          "internalType": "string",
          "name": "",
          "type": "string"
        }
      ],
      "stateMutability": "view",
      "type": "function",
      "constant": true
    },
    {
      "inputs": [
        {
          "internalType": "address",
          "name": "",
          "type": "address"
        }
      ],
      "name": "nonces",
      "outputs": [
        {
          "internalType": "uint256",
          "name": "",
          "type": "uint256"
        }
      ],
      "stateMutability": "view",
      "type": "function",
      "constant": true
    },
    {
      "inputs": [
        {
          "internalType": "address",
          "name": "",
          "type": "address"
        }
      ],
      "name": "numCheckpoints",
      "outputs": [
        {
          "internalType": "uint32",
          "name": "",
          "type": "uint32"
        }
      ],
      "stateMutability": "view",
      "type": "function",
      "constant": true
    },
    {
      "inputs": [],
      "name": "owner",
      "outputs": [
        {
          "internalType": "address",
          "name": "",
          "type": "address"
        }
      ],
      "stateMutability": "view",
      "type": "function",
      "constant": true
    },
    {
      "inputs": [],
      "name": "renounceOwnership",
      "outputs": [],
      "stateMutability": "nonpayable",
      "type": "function"
    },
    {
      "inputs": [],
      "name": "symbol",
      "outputs": [
        {
          "internalType": "string",
          "name": "",
          "type": "string"
        }
      ],
      "stateMutability": "view",
      "type": "function",
      "constant": true
    },
    {
      "inputs": [],
      "name": "totalSupply",
      "outputs": [
        {
          "internalType": "uint256",
          "name": "",
          "type": "uint256"
        }
      ],
      "stateMutability": "view",
      "type": "function",
      "constant": true
    },
    {
      "inputs": [
        {
          "internalType": "address",
          "name": "recipient",
          "type": "address"
        },
        {
          "internalType": "uint256",
          "name": "amount",
          "type": "uint256"
        }
      ],
      "name": "transfer",
      "outputs": [
        {
          "internalType": "bool",
          "name": "",
          "type": "bool"
        }
      ],
      "stateMutability": "nonpayable",
      "type": "function"
    },
    {
      "inputs": [
        {
          "internalType": "address",
          "name": "sender",
          "type": "address"
        },
        {
          "internalType": "address",
          "name": "recipient",
          "type": "address"
        },
        {
          "internalType": "uint256",
          "name": "amount",
          "type": "uint256"
        }
      ],
      "name": "transferFrom",
      "outputs": [
        {
          "internalType": "bool",
          "name": "",
          "type": "bool"
        }
      ],
      "stateMutability": "nonpayable",
      "type": "function"
    },
    {
      "inputs": [
        {
          "internalType": "address",
          "name": "newOwner",
          "type": "address"
        }
      ],
      "name": "transferOwnership",
      "outputs": [],
      "stateMutability": "nonpayable",
      "type": "function"
    },
    {
      "inputs": [
        {
          "internalType": "address",
          "name": "_to",
          "type": "address"
        },
        {
          "internalType": "uint256",
          "name": "_amount",
          "type": "uint256"
        }
      ],
      "name": "testMint",
      "outputs": [],
      "stateMutability": "nonpayable",
      "type": "function"
    }
  ],
  "bytecode": "0x60806040523480156200001157600080fd5b5060405162001d3a38038062001d3a8339810160408190526200003491620001d1565b604080518082018252600a81526929b7b630b92a37b5b2b760b11b60208083019182528351808501909452600584526429a7a620a960d91b90840152815184939162000084916003919062000135565b5080516200009a90600490602084019062000135565b50506005805460ff19166012179055506000620000b662000131565b60058054610100600160a81b0319166101006001600160a01b03841690810291909117909155604051919250906000907f8be0079c531659141344cd1fd0a4f28419497f9722a3daafe3b4186f6b6457e0908290a35050600780546001600160a01b031981166001600160a01b039091161790555062000201565b3390565b828054600181600116156101000203166002900490600052602060002090601f016020900481019282601f106200017857805160ff1916838001178555620001a8565b82800160010185558215620001a8579182015b82811115620001a85782518255916020019190600101906200018b565b50620001b6929150620001ba565b5090565b5b80821115620001b65760008155600101620001bb565b600060208284031215620001e3578081fd5b81516001600160a01b0381168114620001fa578182fd5b9392505050565b611b2980620002116000396000f3fe608060405234801561001057600080fd5b506004361061018e5760003560e01c8063782d6fe1116100de578063b4b5ea5711610097578063e7a324dc11610071578063e7a324dc14610341578063f1127ed814610349578063f28e093d1461036a578063f2fde38b1461037d5761018e565b8063b4b5ea5714610308578063c3cda5201461031b578063dd62ed3e1461032e5761018e565b8063782d6fe1146102ac5780637ecebe00146102bf5780638da5cb5b146102d257806395d89b41146102da578063a457c2d7146102e2578063a9059cbb146102f55761018e565b8063395093511161014b5780635c19a95c116101255780635c19a95c1461025e5780636fcfff451461027157806370a0823114610291578063715018a6146102a45761018e565b8063395093511461021657806340c10f1914610229578063587cde1e1461023e5761018e565b806306fdde0314610193578063095ea7b3146101b157806318160ddd146101d157806320606b70146101e657806323b872dd146101ee578063313ce56714610201575b600080fd5b61019b610390565b6040516101a89190611690565b60405180910390f35b6101c46101bf3660046114f5565b610426565b6040516101a89190611616565b6101d9610444565b6040516101a89190611621565b6101d961044a565b6101c46101fc3660046114b5565b61046e565b6102096104f5565b6040516101a89190611a28565b6101c46102243660046114f5565b6104fe565b61023c6102373660046114f5565b61054c565b005b61025161024c366004611445565b61063c565b6040516101a89190611602565b61023c61026c366004611445565b61065a565b61028461027f366004611445565b610667565b6040516101a89190611a01565b6101d961029f366004611445565b61067f565b61023c61069a565b6101d96102ba3660046114f5565b61072d565b6101d96102cd366004611445565b610916565b610251610928565b61019b61093c565b6101c46102f03660046114f5565b61099d565b6101c46103033660046114f5565b610a05565b6101d9610316366004611445565b610a19565b61023c610329366004611520565b610a7d565b6101d961033c36600461147d565b610c51565b6101d9610c7c565b61035c610357366004611580565b610ca0565b6040516101a8929190611a12565b61023c6103783660046114f5565b610ccd565b61023c61038b366004611445565b610cd7565b60038054604080516020601f600260001961010060018816150201909516949094049384018190048102820181019092528281526060939092909183018282801561041c5780601f106103f15761010080835404028352916020019161041c565b820191906000526020600020905b8154815290600101906020018083116103ff57829003601f168201915b5050505050905090565b600061043a610433610d9e565b8484610da2565b5060015b92915050565b60025490565b7f8cad95687ba82c2ce50e74f7b754645e5117c3a5bec8151c0726d5857980a86681565b600061047b848484610e56565b6104eb84610487610d9e565b6104e685604051806060016040528060288152602001611a72602891396001600160a01b038a166000908152600160205260408120906104c5610d9e565b6001600160a01b031681526020810191909152604001600020549190610f6b565b610da2565b5060019392505050565b60055460ff1690565b600061043a61050b610d9e565b846104e6856001600061051c610d9e565b6001600160a01b03908116825260208083019390935260409182016000908120918c168152925290205490610f97565b6007546040516000916001600160a01b0316906321f8a721906105739033906020016115d0565b604051602081830303815290604052805190602001206040518263ffffffff1660e01b81526004016105a59190611621565b60206040518083038186803b1580156105bd57600080fd5b505afa1580156105d1573d6000803e3d6000fd5b505050506040513d601f19601f820116820180604052508101906105f59190611461565b6001600160a01b0316141561060957600080fd5b6106138282610fbc565b6001600160a01b0380831660009081526008602052604081205461063892168361107c565b5050565b6001600160a01b039081166000908152600860205260409020541690565b61066433826111be565b50565b600a6020526000908152604090205463ffffffff1681565b6001600160a01b031660009081526020819052604090205490565b6106a2610d9e565b60055461010090046001600160a01b039081169116146106dd5760405162461bcd60e51b81526004016106d490611828565b60405180910390fd5b60055460405160009161010090046001600160a01b0316907f8be0079c531659141344cd1fd0a4f28419497f9722a3daafe3b4186f6b6457e0908390a360058054610100600160a81b0319169055565b600043821061074e5760405162461bcd60e51b81526004016106d49061185d565b6001600160a01b0383166000908152600a602052604090205463ffffffff168061077c57600091505061043e565b6001600160a01b038416600090815260096020908152604080832063ffffffff6000198601811685529252909120541683106107eb576001600160a01b03841660009081526009602090815260408083206000199490940163ffffffff1683529290522060010154905061043e565b6001600160a01b038416600090815260096020908152604080832083805290915290205463ffffffff1683101561082657600091505061043e565b600060001982015b8163ffffffff168163ffffffff1611156108df57600282820363ffffffff1604810361085861142e565b506001600160a01b038716600090815260096020908152604080832063ffffffff8086168552908352928190208151808301909252805490931680825260019093015491810191909152908714156108ba5760200151945061043e9350505050565b805163ffffffff168711156108d1578193506108d8565b6001820392505b505061082e565b506001600160a01b038516600090815260096020908152604080832063ffffffff9094168352929052206001015491505092915050565b600b6020526000908152604090205481565b60055461010090046001600160a01b031690565b60048054604080516020601f600260001961010060018816150201909516949094049384018190048102820181019092528281526060939092909183018282801561041c5780601f106103f15761010080835404028352916020019161041c565b600061043a6109aa610d9e565b846104e685604051806060016040528060258152602001611acf60259139600160006109d4610d9e565b6001600160a01b03908116825260208083019390935260409182016000908120918d16815292529020549190610f6b565b600061043a610a12610d9e565b8484610e56565b6001600160a01b0381166000908152600a602052604081205463ffffffff1680610a44576000610a76565b6001600160a01b038316600090815260096020908152604080832063ffffffff60001986011684529091529020600101545b9392505050565b60007f8cad95687ba82c2ce50e74f7b754645e5117c3a5bec8151c0726d5857980a866610aa8610390565b80519060200120610ab7611253565b30604051602001610acb949392919061164e565b60405160208183030381529060405280519060200120905060007fe48329057bfd03d55e49b547132e39cffd9c1820ad7b9d4c5307691425d15adf888888604051602001610b1c949392919061162a565b60405160208183030381529060405280519060200120905060008282604051602001610b499291906115b5565b604051602081830303815290604052805190602001209050600060018288888860405160008152602001604052604051610b869493929190611672565b6020604051602081039080840390855afa158015610ba8573d6000803e3d6000fd5b5050604051601f1901519150506001600160a01b038116610bdb5760405162461bcd60e51b81526004016106d49061192e565b6001600160a01b0381166000908152600b602052604090208054600181019091558914610c1a5760405162461bcd60e51b81526004016106d4906117e5565b87421115610c3a5760405162461bcd60e51b81526004016106d490611975565b610c44818b6111be565b505050505b505050505050565b6001600160a01b03918216600090815260016020908152604080832093909416825291909152205490565b7fe48329057bfd03d55e49b547132e39cffd9c1820ad7b9d4c5307691425d15adf81565b60096020908152600092835260408084209091529082529020805460019091015463ffffffff9091169082565b6106388282610fbc565b610cdf610d9e565b60055461010090046001600160a01b03908116911614610d115760405162461bcd60e51b81526004016106d490611828565b6001600160a01b038116610d375760405162461bcd60e51b81526004016106d490611726565b6005546040516001600160a01b0380841692610100900416907f8be0079c531659141344cd1fd0a4f28419497f9722a3daafe3b4186f6b6457e090600090a3600580546001600160a01b0390921661010002610100600160a81b0319909216919091179055565b3390565b6001600160a01b038316610dc85760405162461bcd60e51b81526004016106d4906118ea565b6001600160a01b038216610dee5760405162461bcd60e51b81526004016106d49061176c565b6001600160a01b0380841660008181526001602090815260408083209487168084529490915290819020849055517f8c5be1e5ebec7d5bd14f71427d1e84f3dd0314c0f7b2291e5b200ac8c7c3b92590610e49908590611621565b60405180910390a3505050565b6001600160a01b038316610e7c5760405162461bcd60e51b81526004016106d4906118a5565b6001600160a01b038216610ea25760405162461bcd60e51b81526004016106d4906116e3565b610ead8383836111b9565b610eea81604051806060016040528060268152602001611a4c602691396001600160a01b0386166000908152602081905260409020549190610f6b565b6001600160a01b038085166000908152602081905260408082209390935590841681522054610f199082610f97565b6001600160a01b0380841660008181526020819052604090819020939093559151908516907fddf252ad1be2c89b69c2b068fc378daa952ba7f163c4a11628f55a4df523b3ef90610e49908590611621565b60008184841115610f8f5760405162461bcd60e51b81526004016106d49190611690565b505050900390565b600082820183811015610a765760405162461bcd60e51b81526004016106d4906117ae565b6001600160a01b038216610fe25760405162461bcd60e51b81526004016106d4906119bc565b610fee600083836111b9565b600254610ffb9082610f97565b6002556001600160a01b0382166000908152602081905260409020546110219082610f97565b6001600160a01b0383166000818152602081905260408082209390935591519091907fddf252ad1be2c89b69c2b068fc378daa952ba7f163c4a11628f55a4df523b3ef90611070908590611621565b60405180910390a35050565b816001600160a01b0316836001600160a01b03161415801561109e5750600081115b156111b9576001600160a01b03831615611130576001600160a01b0383166000908152600a602052604081205463ffffffff1690816110de576000611110565b6001600160a01b038516600090815260096020908152604080832063ffffffff60001987011684529091529020600101545b9050600061111e8285611257565b905061112c86848484611299565b5050505b6001600160a01b038216156111b9576001600160a01b0382166000908152600a602052604081205463ffffffff16908161116b57600061119d565b6001600160a01b038416600090815260096020908152604080832063ffffffff60001987011684529091529020600101545b905060006111ab8285610f97565b9050610c4985848484611299565b505050565b6001600160a01b03808316600090815260086020526040812054909116906111e58461067f565b6001600160a01b0385811660008181526008602052604080822080546001600160a01b031916898616908117909155905194955093928616927f3134e8a2e6d97e929a7e54011ea5485d7d196dd5f0ba4d4ef95803e8e3fc257f9190a461124d82848361107c565b50505050565b4690565b6000610a7683836040518060400160405280601e81526020017f536166654d6174683a207375627472616374696f6e206f766572666c6f770000815250610f6b565b60006112bd43604051806060016040528060358152602001611a9a603591396113fe565b905060008463ffffffff1611801561130657506001600160a01b038516600090815260096020908152604080832063ffffffff6000198901811685529252909120548282169116145b15611343576001600160a01b038516600090815260096020908152604080832063ffffffff600019890116845290915290206001018290556113b4565b60408051808201825263ffffffff808416825260208083018681526001600160a01b038a166000818152600984528681208b8616825284528681209551865490861663ffffffff199182161787559251600196870155908152600a9092529390208054928801909116919092161790555b846001600160a01b03167fdec2bacdd2f05b59de34da9b523dff8be42e5e38e818c82fdb0bae774387a72484846040516113ef9291906119f3565b60405180910390a25050505050565b60008164010000000084106114265760405162461bcd60e51b81526004016106d49190611690565b509192915050565b604080518082019091526000808252602082015290565b600060208284031215611456578081fd5b8135610a7681611a36565b600060208284031215611472578081fd5b8151610a7681611a36565b6000806040838503121561148f578081fd5b823561149a81611a36565b915060208301356114aa81611a36565b809150509250929050565b6000806000606084860312156114c9578081fd5b83356114d481611a36565b925060208401356114e481611a36565b929592945050506040919091013590565b60008060408385031215611507578182fd5b823561151281611a36565b946020939093013593505050565b60008060008060008060c08789031215611538578182fd5b863561154381611a36565b95506020870135945060408701359350606087013560ff81168114611566578283fd5b9598949750929560808101359460a0909101359350915050565b60008060408385031215611592578182fd5b823561159d81611a36565b9150602083013563ffffffff811681146114aa578182fd5b61190160f01b81526002810192909252602282015260420190565b6b736f6c61722e61636365737360a01b815260609190911b6bffffffffffffffffffffffff1916600c82015260200190565b6001600160a01b0391909116815260200190565b901515815260200190565b90815260200190565b9384526001600160a01b039290921660208401526040830152606082015260800190565b938452602084019290925260408301526001600160a01b0316606082015260800190565b93845260ff9290921660208401526040830152606082015260800190565b6000602080835283518082850152825b818110156116bc578581018301518582016040015282016116a0565b818111156116cd5783604083870101525b50601f01601f1916929092016040019392505050565b60208082526023908201527f45524332303a207472616e7366657220746f20746865207a65726f206164647260408201526265737360e81b606082015260800190565b60208082526026908201527f4f776e61626c653a206e6577206f776e657220697320746865207a65726f206160408201526564647265737360d01b606082015260800190565b60208082526022908201527f45524332303a20617070726f766520746f20746865207a65726f206164647265604082015261737360f01b606082015260800190565b6020808252601b908201527f536166654d6174683a206164646974696f6e206f766572666c6f770000000000604082015260600190565b60208082526023908201527f534f4c41523a3a64656c656761746542795369673a20696e76616c6964206e6f6040820152626e636560e81b606082015260800190565b6020808252818101527f4f776e61626c653a2063616c6c6572206973206e6f7420746865206f776e6572604082015260600190565b60208082526028908201527f534f4c41523a3a6765745072696f72566f7465733a206e6f74207965742064656040820152671d195c9b5a5b995960c21b606082015260800190565b60208082526025908201527f45524332303a207472616e736665722066726f6d20746865207a65726f206164604082015264647265737360d81b606082015260800190565b60208082526024908201527f45524332303a20617070726f76652066726f6d20746865207a65726f206164646040820152637265737360e01b606082015260800190565b60208082526027908201527f534f4c41523a3a64656c656761746542795369673a20696e76616c6964207369604082015266676e617475726560c81b606082015260800190565b60208082526027908201527f534f4c41523a3a64656c656761746542795369673a207369676e617475726520604082015266195e1c1a5c995960ca1b606082015260800190565b6020808252601f908201527f45524332303a206d696e7420746f20746865207a65726f206164647265737300604082015260600190565b918252602082015260400190565b63ffffffff91909116815260200190565b63ffffffff929092168252602082015260400190565b60ff91909116815260200190565b6001600160a01b038116811461066457600080fdfe45524332303a207472616e7366657220616d6f756e7420657863656564732062616c616e636545524332303a207472616e7366657220616d6f756e74206578636565647320616c6c6f77616e6365534f4c41523a3a5f7772697465436865636b706f696e743a20626c6f636b206e756d6265722065786365656473203332206269747345524332303a2064656372656173656420616c6c6f77616e63652062656c6f77207a65726fa26469706673582212209417ed2733319f5a316f888975aa4a495eb999b9aa50d6f1cbf2b622a504a3a964736f6c634300060c0033",
  "immutableReferences": {},
  "source": "pragma solidity 0.6.12;\npragma experimental ABIEncoderV2;\n\nimport {SolarToken} from '../SolarToken.sol';\n\n/* solium-disable-next-line */\ncontract TestSolar is SolarToken {\n    constructor(address eternalStorage) public SolarToken(eternalStorage) {}\n\n    function testMint(address _to, uint256 _amount) public {\n        _mint(_to, _amount);\n    }\n}\n",
  "sourcePath": "C:/Users/James/projects/tsuno-fe/contracts/testing/TestSolar.sol",
  "compiler": {
    "name": "solc",
    "version": "0.6.12+commit.27d51765.Emscripten.clang"
  },
  "schemaVersion": "3.2.5",
  "updatedAt": "2020-10-09T10:38:50.331Z",
  "networkType": "ethereum",
  "devdoc": {
    "kind": "dev",
    "methods": {
      "allowance(address,address)": {
        "details": "See {IERC20-allowance}."
      },
      "approve(address,uint256)": {
        "details": "See {IERC20-approve}. Requirements: - `spender` cannot be the zero address."
      },
      "balanceOf(address)": {
        "details": "See {IERC20-balanceOf}."
      },
      "decimals()": {
        "details": "Returns the number of decimals used to get its user representation. For example, if `decimals` equals `2`, a balance of `505` tokens should be displayed to a user as `5,05` (`505 / 10 ** 2`). Tokens usually opt for a value of 18, imitating the relationship between Ether and Wei. This is the value {ERC20} uses, unless {_setupDecimals} is called. NOTE: This information is only used for _display_ purposes: it in no way affects any of the arithmetic of the contract, including {IERC20-balanceOf} and {IERC20-transfer}."
      },
      "decreaseAllowance(address,uint256)": {
        "details": "Atomically decreases the allowance granted to `spender` by the caller. This is an alternative to {approve} that can be used as a mitigation for problems described in {IERC20-approve}. Emits an {Approval} event indicating the updated allowance. Requirements: - `spender` cannot be the zero address. - `spender` must have allowance for the caller of at least `subtractedValue`."
      },
      "delegate(address)": {
        "params": {
          "delegatee": "The address to delegate votes to"
        }
      },
      "delegateBySig(address,uint256,uint256,uint8,bytes32,bytes32)": {
        "params": {
          "delegatee": "The address to delegate votes to",
          "expiry": "The time at which to expire the signature",
          "nonce": "The contract state required to match the signature",
          "r": "Half of the ECDSA signature pair",
          "s": "Half of the ECDSA signature pair",
          "v": "The recovery byte of the signature"
        }
      },
      "delegates(address)": {
        "params": {
          "delegator": "The address to get delegatee for"
        }
      },
      "getCurrentVotes(address)": {
        "params": {
          "account": "The address to get votes balance"
        },
        "returns": {
          "_0": "The number of current votes for `account`"
        }
      },
      "getPriorVotes(address,uint256)": {
        "details": "Block number must be a finalized block or else this function will revert to prevent misinformation.",
        "params": {
          "account": "The address of the account to check",
          "blockNumber": "The block number to get the vote balance at"
        },
        "returns": {
          "_0": "The number of votes the account had as of the given block"
        }
      },
      "increaseAllowance(address,uint256)": {
        "details": "Atomically increases the allowance granted to `spender` by the caller. This is an alternative to {approve} that can be used as a mitigation for problems described in {IERC20-approve}. Emits an {Approval} event indicating the updated allowance. Requirements: - `spender` cannot be the zero address."
      },
      "name()": {
        "details": "Returns the name of the token."
      },
      "owner()": {
        "details": "Returns the address of the current owner."
      },
      "renounceOwnership()": {
        "details": "Leaves the contract without owner. It will not be possible to call `onlyOwner` functions anymore. Can only be called by the current owner. NOTE: Renouncing ownership will leave the contract without an owner, thereby removing any functionality that is only available to the owner."
      },
      "symbol()": {
        "details": "Returns the symbol of the token, usually a shorter version of the name."
      },
      "totalSupply()": {
        "details": "See {IERC20-totalSupply}."
      },
      "transfer(address,uint256)": {
        "details": "See {IERC20-transfer}. Requirements: - `recipient` cannot be the zero address. - the caller must have a balance of at least `amount`."
      },
      "transferFrom(address,address,uint256)": {
        "details": "See {IERC20-transferFrom}. Emits an {Approval} event indicating the updated allowance. This is not required by the EIP. See the note at the beginning of {ERC20}; Requirements: - `sender` and `recipient` cannot be the zero address. - `sender` must have a balance of at least `amount`. - the caller must have allowance for ``sender``'s tokens of at least `amount`."
      },
      "transferOwnership(address)": {
        "details": "Transfers ownership of the contract to a new account (`newOwner`). Can only be called by the current owner."
      }
    },
    "version": 1
  },
  "userdoc": {
    "events": {
      "DelegateChanged(address,address,address)": {
        "notice": "An event thats emitted when an account changes its delegate"
      },
      "DelegateVotesChanged(address,uint256,uint256)": {
        "notice": "An event thats emitted when a delegate account's vote balance changes"
      }
    },
    "kind": "user",
    "methods": {
      "DELEGATION_TYPEHASH()": {
        "notice": "The EIP-712 typehash for the delegation struct used by the contract"
      },
      "DOMAIN_TYPEHASH()": {
        "notice": "The EIP-712 typehash for the contract's domain"
      },
      "checkpoints(address,uint32)": {
        "notice": "A record of votes checkpoints for each account, by index"
      },
      "delegate(address)": {
        "notice": "Delegate votes from `msg.sender` to `delegatee`"
      },
      "delegateBySig(address,uint256,uint256,uint8,bytes32,bytes32)": {
        "notice": "Delegates votes from signatory to `delegatee`"
      },
      "delegates(address)": {
        "notice": "Delegate votes from `msg.sender` to `delegatee`"
      },
      "getCurrentVotes(address)": {
        "notice": "Gets the current votes balance for `account`"
      },
      "getPriorVotes(address,uint256)": {
        "notice": "Determine the prior number of votes for an account as of a block number"
      },
      "nonces(address)": {
        "notice": "A record of states for signing / validating signatures"
      },
      "numCheckpoints(address)": {
        "notice": "The number of checkpoints for each account"
      }
    },
    "version": 1
  }
}