{
  "contractName": "TestFederalHarvestingRights",
  "abi": [
    {
      "inputs": [
        {
          "internalType": "address",
          "name": "master",
          "type": "address"
        }
      ],
      "stateMutability": "nonpayable",
      "type": "constructor"
    },
    {
      "anonymous": false,
      "inputs": [
        {
          "indexed": true,
          "internalType": "address",
          "name": "owner",
          "type": "address"
        },
        {
          "indexed": true,
          "internalType": "address",
          "name": "approved",
          "type": "address"
        },
        {
          "indexed": true,
          "internalType": "uint256",
          "name": "tokenId",
          "type": "uint256"
        }
      ],
      "name": "Approval",
      "type": "event"
    },
    {
      "anonymous": false,
      "inputs": [
        {
          "indexed": true,
          "internalType": "address",
          "name": "owner",
          "type": "address"
        },
        {
          "indexed": true,
          "internalType": "address",
          "name": "operator",
          "type": "address"
        },
        {
          "indexed": false,
          "internalType": "bool",
          "name": "approved",
          "type": "bool"
        }
      ],
      "name": "ApprovalForAll",
      "type": "event"
    },
    {
      "anonymous": false,
      "inputs": [
        {
          "indexed": true,
          "internalType": "address",
          "name": "previousOwner",
          "type": "address"
        },
        {
          "indexed": true,
          "internalType": "address",
          "name": "newOwner",
          "type": "address"
        }
      ],
      "name": "OwnershipTransferred",
      "type": "event"
    },
    {
      "anonymous": false,
      "inputs": [
        {
          "indexed": true,
          "internalType": "address",
          "name": "from",
          "type": "address"
        },
        {
          "indexed": true,
          "internalType": "address",
          "name": "to",
          "type": "address"
        },
        {
          "indexed": true,
          "internalType": "uint256",
          "name": "tokenId",
          "type": "uint256"
        }
      ],
      "name": "Transfer",
      "type": "event"
    },
    {
      "inputs": [
        {
          "internalType": "address",
          "name": "to",
          "type": "address"
        },
        {
          "internalType": "uint256",
          "name": "tokenId",
          "type": "uint256"
        }
      ],
      "name": "approve",
      "outputs": [],
      "stateMutability": "nonpayable",
      "type": "function"
    },
    {
      "inputs": [
        {
          "internalType": "address",
          "name": "owner",
          "type": "address"
        }
      ],
      "name": "balanceOf",
      "outputs": [
        {
          "internalType": "uint256",
          "name": "",
          "type": "uint256"
        }
      ],
      "stateMutability": "view",
      "type": "function",
      "constant": true
    },
    {
      "inputs": [],
      "name": "baseURI",
      "outputs": [
        {
          "internalType": "string",
          "name": "",
          "type": "string"
        }
      ],
      "stateMutability": "view",
      "type": "function",
      "constant": true
    },
    {
      "inputs": [
        {
          "internalType": "uint256",
          "name": "tokenId",
          "type": "uint256"
        }
      ],
      "name": "getApproved",
      "outputs": [
        {
          "internalType": "address",
          "name": "",
          "type": "address"
        }
      ],
      "stateMutability": "view",
      "type": "function",
      "constant": true
    },
    {
      "inputs": [
        {
          "internalType": "address",
          "name": "owner",
          "type": "address"
        },
        {
          "internalType": "address",
          "name": "operator",
          "type": "address"
        }
      ],
      "name": "isApprovedForAll",
      "outputs": [
        {
          "internalType": "bool",
          "name": "",
          "type": "bool"
        }
      ],
      "stateMutability": "view",
      "type": "function",
      "constant": true
    },
    {
      "inputs": [
        {
          "internalType": "address",
          "name": "_to",
          "type": "address"
        },
        {
          "internalType": "uint256",
          "name": "_tokenId",
          "type": "uint256"
        }
      ],
      "name": "mint",
      "outputs": [],
      "stateMutability": "nonpayable",
      "type": "function"
    },
    {
      "inputs": [],
      "name": "name",
      "outputs": [
        {
          "internalType": "string",
          "name": "",
          "type": "string"
        }
      ],
      "stateMutability": "view",
      "type": "function",
      "constant": true
    },
    {
      "inputs": [],
      "name": "owner",
      "outputs": [
        {
          "internalType": "address",
          "name": "",
          "type": "address"
        }
      ],
      "stateMutability": "view",
      "type": "function",
      "constant": true
    },
    {
      "inputs": [
        {
          "internalType": "uint256",
          "name": "tokenId",
          "type": "uint256"
        }
      ],
      "name": "ownerOf",
      "outputs": [
        {
          "internalType": "address",
          "name": "",
          "type": "address"
        }
      ],
      "stateMutability": "view",
      "type": "function",
      "constant": true
    },
    {
      "inputs": [],
      "name": "renounceOwnership",
      "outputs": [],
      "stateMutability": "nonpayable",
      "type": "function"
    },
    {
      "inputs": [
        {
          "internalType": "address",
          "name": "from",
          "type": "address"
        },
        {
          "internalType": "address",
          "name": "to",
          "type": "address"
        },
        {
          "internalType": "uint256",
          "name": "tokenId",
          "type": "uint256"
        }
      ],
      "name": "safeTransferFrom",
      "outputs": [],
      "stateMutability": "nonpayable",
      "type": "function"
    },
    {
      "inputs": [
        {
          "internalType": "address",
          "name": "from",
          "type": "address"
        },
        {
          "internalType": "address",
          "name": "to",
          "type": "address"
        },
        {
          "internalType": "uint256",
          "name": "tokenId",
          "type": "uint256"
        },
        {
          "internalType": "bytes",
          "name": "_data",
          "type": "bytes"
        }
      ],
      "name": "safeTransferFrom",
      "outputs": [],
      "stateMutability": "nonpayable",
      "type": "function"
    },
    {
      "inputs": [
        {
          "internalType": "address",
          "name": "operator",
          "type": "address"
        },
        {
          "internalType": "bool",
          "name": "approved",
          "type": "bool"
        }
      ],
      "name": "setApprovalForAll",
      "outputs": [],
      "stateMutability": "nonpayable",
      "type": "function"
    },
    {
      "inputs": [
        {
          "internalType": "bytes4",
          "name": "interfaceId",
          "type": "bytes4"
        }
      ],
      "name": "supportsInterface",
      "outputs": [
        {
          "internalType": "bool",
          "name": "",
          "type": "bool"
        }
      ],
      "stateMutability": "view",
      "type": "function",
      "constant": true
    },
    {
      "inputs": [],
      "name": "symbol",
      "outputs": [
        {
          "internalType": "string",
          "name": "",
          "type": "string"
        }
      ],
      "stateMutability": "view",
      "type": "function",
      "constant": true
    },
    {
      "inputs": [
        {
          "internalType": "uint256",
          "name": "index",
          "type": "uint256"
        }
      ],
      "name": "tokenByIndex",
      "outputs": [
        {
          "internalType": "uint256",
          "name": "",
          "type": "uint256"
        }
      ],
      "stateMutability": "view",
      "type": "function",
      "constant": true
    },
    {
      "inputs": [
        {
          "internalType": "address",
          "name": "owner",
          "type": "address"
        },
        {
          "internalType": "uint256",
          "name": "index",
          "type": "uint256"
        }
      ],
      "name": "tokenOfOwnerByIndex",
      "outputs": [
        {
          "internalType": "uint256",
          "name": "",
          "type": "uint256"
        }
      ],
      "stateMutability": "view",
      "type": "function",
      "constant": true
    },
    {
      "inputs": [
        {
          "internalType": "uint256",
          "name": "tokenId",
          "type": "uint256"
        }
      ],
      "name": "tokenURI",
      "outputs": [
        {
          "internalType": "string",
          "name": "",
          "type": "string"
        }
      ],
      "stateMutability": "view",
      "type": "function",
      "constant": true
    },
    {
      "inputs": [],
      "name": "totalSupply",
      "outputs": [
        {
          "internalType": "uint256",
          "name": "",
          "type": "uint256"
        }
      ],
      "stateMutability": "view",
      "type": "function",
      "constant": true
    },
    {
      "inputs": [
        {
          "internalType": "address",
          "name": "from",
          "type": "address"
        },
        {
          "internalType": "address",
          "name": "to",
          "type": "address"
        },
        {
          "internalType": "uint256",
          "name": "tokenId",
          "type": "uint256"
        }
      ],
      "name": "transferFrom",
      "outputs": [],
      "stateMutability": "nonpayable",
      "type": "function"
    },
    {
      "inputs": [
        {
          "internalType": "address",
          "name": "newOwner",
          "type": "address"
        }
      ],
      "name": "transferOwnership",
      "outputs": [],
      "stateMutability": "nonpayable",
      "type": "function"
    },
    {
      "inputs": [
        {
          "internalType": "address",
          "name": "_to",
          "type": "address"
        },
        {
          "internalType": "uint256",
          "name": "_amount",
          "type": "uint256"
        }
      ],
      "name": "testMint",
      "outputs": [],
      "stateMutability": "nonpayable",
      "type": "function"
    }
  ],
  "bytecode": "0x60806040523480156200001157600080fd5b50604051620020d7380380620020d7833981016040819052620000349162000277565b604080518082018252601781527f4665646572616c48617276657374696e675269676874730000000000000000006020808301919091528251808401909352600383526223242960e91b908301528291620000966301ffc9a760e01b6200017c565b8151620000ab906006906020850190620001db565b508051620000c1906007906020840190620001db565b50620000d46380ac58cd60e01b6200017c565b620000e6635b5e139f60e01b6200017c565b620000f863780e9d6360e01b6200017c565b506000905062000107620001d7565b600a80546001600160a01b0319166001600160a01b038316908117909155604051919250906000907f8be0079c531659141344cd1fd0a4f28419497f9722a3daafe3b4186f6b6457e0908290a350600b80546001600160a01b0319166001600160a01b039290921691909117905550620002de565b6001600160e01b03198082161415620001b25760405162461bcd60e51b8152600401620001a990620002a7565b60405180910390fd5b6001600160e01b0319166000908152602081905260409020805460ff19166001179055565b3390565b828054600181600116156101000203166002900490600052602060002090601f016020900481019282601f106200021e57805160ff19168380011785556200024e565b828001600101855582156200024e579182015b828111156200024e57825182559160200191906001019062000231565b506200025c92915062000260565b5090565b5b808211156200025c576000815560010162000261565b60006020828403121562000289578081fd5b81516001600160a01b0381168114620002a0578182fd5b9392505050565b6020808252601c908201527f4552433136353a20696e76616c696420696e7465726661636520696400000000604082015260600190565b611de980620002ee6000396000f3fe608060405234801561001057600080fd5b50600436106101425760003560e01c80636c0360eb116100b8578063a22cb4651161007c578063a22cb46514610274578063b88d4fde14610287578063c87b56dd1461029a578063e985e9c5146102ad578063f28e093d146102c0578063f2fde38b146102d357610142565b80636c0360eb1461024157806370a0823114610249578063715018a61461025c5780638da5cb5b1461026457806395d89b411461026c57610142565b806323b872dd1161010a57806323b872dd146101cf5780632f745c59146101e257806340c10f19146101f557806342842e0e146102085780634f6ccce71461021b5780636352211e1461022e57610142565b806301ffc9a71461014757806306fdde0314610170578063081812fc14610185578063095ea7b3146101a557806318160ddd146101ba575b600080fd5b61015a610155366004611615565b6102e6565b60405161016791906117af565b60405180910390f35b610178610309565b60405161016791906117c3565b61019861019336600461164d565b61039f565b604051610167919061175e565b6101b86101b33660046115cf565b6103eb565b005b6101c2610483565b60405161016791906117ba565b6101b86101dd366004611492565b610494565b6101c26101f03660046115cf565b6104cc565b6101b86102033660046115cf565b6104f7565b6101b8610216366004611492565b6105c9565b6101c261022936600461164d565b6105e4565b61019861023c36600461164d565b6105fa565b610178610622565b6101c2610257366004611443565b610683565b6101b86106cc565b61019861074b565b61017861075a565b6101b8610282366004611598565b6107bb565b6101b86102953660046114d2565b610889565b6101786102a836600461164d565b6108c8565b61015a6102bb36600461145e565b610a12565b6101b86102ce3660046115cf565b610a40565b6101b86102e1366004611443565b610a4a565b6001600160e01b0319811660009081526020819052604090205460ff165b919050565b60068054604080516020601f60026000196101006001881615020190951694909404938401819004810282018101909252828152606093909290918301828280156103955780601f1061036a57610100808354040283529160200191610395565b820191906000526020600020905b81548152906001019060200180831161037857829003601f168201915b5050505050905090565b60006103aa82610b01565b6103cf5760405162461bcd60e51b81526004016103c690611acc565b60405180910390fd5b506000908152600460205260409020546001600160a01b031690565b60006103f6826105fa565b9050806001600160a01b0316836001600160a01b0316141561042a5760405162461bcd60e51b81526004016103c690611be5565b806001600160a01b031661043c610b0e565b6001600160a01b031614806104585750610458816102bb610b0e565b6104745760405162461bcd60e51b81526004016103c6906119ae565b61047e8383610b12565b505050565b600061048f6002610b80565b905090565b6104a561049f610b0e565b82610b8b565b6104c15760405162461bcd60e51b81526004016103c690611c26565b61047e838383610c10565b6001600160a01b03821660009081526001602052604081206104ee9083610d1e565b90505b92915050565b600b546040516001600160a01b0390911690637ae1cfca9061051d90339060200161172e565b604051602081830303815290604052805190602001206040518263ffffffff1660e01b815260040161054f91906117ba565b60206040518083038186803b15801561056757600080fd5b505afa15801561057b573d6000803e3d6000fd5b505050506040513d601f19601f8201168201806040525081019061059f91906115f9565b6105bb5760405162461bcd60e51b81526004016103c690611cae565b6105c58282610d2a565b5050565b61047e83838360405180602001604052806000815250610889565b6000806105f2600284610d44565b509392505050565b60006104f182604051806060016040528060298152602001611d8b6029913960029190610d60565b60098054604080516020601f60026000196101006001881615020190951694909404938401819004810282018101909252828152606093909290918301828280156103955780601f1061036a57610100808354040283529160200191610395565b60006001600160a01b0382166106ab5760405162461bcd60e51b81526004016103c690611a0b565b6001600160a01b03821660009081526001602052604090206104f190610b80565b6106d4610b0e565b600a546001600160a01b039081169116146107015760405162461bcd60e51b81526004016103c690611b18565b600a546040516000916001600160a01b0316907f8be0079c531659141344cd1fd0a4f28419497f9722a3daafe3b4186f6b6457e0908390a3600a80546001600160a01b0319169055565b600a546001600160a01b031690565b60078054604080516020601f60026000196101006001881615020190951694909404938401819004810282018101909252828152606093909290918301828280156103955780601f1061036a57610100808354040283529160200191610395565b6107c3610b0e565b6001600160a01b0316826001600160a01b031614156107f45760405162461bcd60e51b81526004016103c69061192b565b8060056000610801610b0e565b6001600160a01b03908116825260208083019390935260409182016000908120918716808252919093529120805460ff191692151592909217909155610845610b0e565b6001600160a01b03167f17307eab39ab6107e8899845ad3d59bd9653f200f220920489ca2b5937696c318360405161087d91906117af565b60405180910390a35050565b61089a610894610b0e565b83610b8b565b6108b65760405162461bcd60e51b81526004016103c690611c26565b6108c284848484610d77565b50505050565b60606108d382610b01565b6108ef5760405162461bcd60e51b81526004016103c690611b96565b60008281526008602090815260409182902080548351601f60026000196101006001861615020190931692909204918201849004840281018401909452808452606093928301828280156109845780601f1061095957610100808354040283529160200191610984565b820191906000526020600020905b81548152906001019060200180831161096757829003601f168201915b5050600954939450505050600260001961010060018416150201909116046109ad579050610304565b8051156109df576009816040516020016109c89291906116ad565b604051602081830303815290604052915050610304565b60096109ea84610daa565b6040516020016109fb9291906116ad565b604051602081830303815290604052915050919050565b6001600160a01b03918216600090815260056020908152604080832093909416825291909152205460ff1690565b6105c58282610e85565b610a52610b0e565b600a546001600160a01b03908116911614610a7f5760405162461bcd60e51b81526004016103c690611b18565b6001600160a01b038116610aa55760405162461bcd60e51b81526004016103c69061186a565b600a546040516001600160a01b038084169216907f8be0079c531659141344cd1fd0a4f28419497f9722a3daafe3b4186f6b6457e090600090a3600a80546001600160a01b0319166001600160a01b0392909216919091179055565b60006104f1600283610f49565b3390565b600081815260046020526040902080546001600160a01b0319166001600160a01b0384169081179091558190610b47826105fa565b6001600160a01b03167f8c5be1e5ebec7d5bd14f71427d1e84f3dd0314c0f7b2291e5b200ac8c7c3b92560405160405180910390a45050565b60006104f182610f55565b6000610b9682610b01565b610bb25760405162461bcd60e51b81526004016103c690611962565b6000610bbd836105fa565b9050806001600160a01b0316846001600160a01b03161480610bf85750836001600160a01b0316610bed8461039f565b6001600160a01b0316145b80610c085750610c088185610a12565b949350505050565b826001600160a01b0316610c23826105fa565b6001600160a01b031614610c495760405162461bcd60e51b81526004016103c690611b4d565b6001600160a01b038216610c6f5760405162461bcd60e51b81526004016103c6906118e7565b610c7a83838361047e565b610c85600082610b12565b6001600160a01b0383166000908152600160205260409020610ca79082610f59565b506001600160a01b0382166000908152600160205260409020610cca9082610f65565b50610cd760028284610f71565b5080826001600160a01b0316846001600160a01b03167fddf252ad1be2c89b69c2b068fc378daa952ba7f163c4a11628f55a4df523b3ef60405160405180910390a4505050565b60006104ee8383610f87565b6105c5828260405180602001604052806000815250610fcc565b6000808080610d538686610fff565b9097909650945050505050565b6000610d6d84848461105b565b90505b9392505050565b610d82848484610c10565b610d8e848484846110ba565b6108c25760405162461bcd60e51b81526004016103c690611818565b606081610dcf57506040805180820190915260018152600360fc1b6020820152610304565b8160005b8115610de757600101600a82049150610dd3565b60608167ffffffffffffffff81118015610e0057600080fd5b506040519080825280601f01601f191660200182016040528015610e2b576020820181803683370190505b50859350905060001982015b8315610e7c57600a840660300160f81b82828060019003935081518110610e5a57fe5b60200101906001600160f81b031916908160001a905350600a84049350610e37565b50949350505050565b6001600160a01b038216610eab5760405162461bcd60e51b81526004016103c690611a97565b610eb481610b01565b15610ed15760405162461bcd60e51b81526004016103c6906118b0565b610edd6000838361047e565b6001600160a01b0382166000908152600160205260409020610eff9082610f65565b50610f0c60028284610f71565b5060405181906001600160a01b038416906000907fddf252ad1be2c89b69c2b068fc378daa952ba7f163c4a11628f55a4df523b3ef908290a45050565b60006104ee8383611199565b5490565b60006104ee83836111b1565b60006104ee8383611277565b6000610d6d84846001600160a01b0385166112c1565b81546000908210610faa5760405162461bcd60e51b81526004016103c6906117d6565b826000018281548110610fb957fe5b9060005260206000200154905092915050565b610fd68383610e85565b610fe360008484846110ba565b61047e5760405162461bcd60e51b81526004016103c690611818565b8154600090819083106110245760405162461bcd60e51b81526004016103c690611a55565b600084600001848154811061103557fe5b906000526020600020906002020190508060000154816001015492509250509250929050565b6000828152600184016020526040812054828161108b5760405162461bcd60e51b81526004016103c691906117c3565b5084600001600182038154811061109e57fe5b9060005260206000209060020201600101549150509392505050565b60006110ce846001600160a01b0316611358565b6110da57506001610c08565b6060611162630a85bd0160e11b6110ef610b0e565b8887876040516024016111059493929190611772565b604051602081830303815290604052906001600160e01b0319166020820180516001600160e01b038381831617835250505050604051806060016040528060328152602001611d59603291396001600160a01b038816919061135e565b905060008180602001905181019061117a9190611631565b6001600160e01b031916630a85bd0160e11b1492505050949350505050565b60009081526001919091016020526040902054151590565b6000818152600183016020526040812054801561126d57835460001980830191908101906000908790839081106111e457fe5b906000526020600020015490508087600001848154811061120157fe5b60009182526020808320909101929092558281526001898101909252604090209084019055865487908061123157fe5b600190038181906000526020600020016000905590558660010160008781526020019081526020016000206000905560019450505050506104f1565b60009150506104f1565b60006112838383611199565b6112b9575081546001818101845560008481526020808220909301849055845484825282860190935260409020919091556104f1565b5060006104f1565b600082815260018401602052604081205480611326575050604080518082018252838152602080820184815286546001818101895560008981528481209551600290930290950191825591519082015586548684528188019092529290912055610d70565b8285600001600183038154811061133957fe5b9060005260206000209060020201600101819055506000915050610d70565b3b151590565b6060610d6d8484600085606061137385611358565b61138f5760405162461bcd60e51b81526004016103c690611c77565b60006060866001600160a01b031685876040516113ac9190611691565b60006040518083038185875af1925050503d80600081146113e9576040519150601f19603f3d011682016040523d82523d6000602084013e6113ee565b606091505b50915091508115611402579150610c089050565b8051156114125780518082602001fd5b8360405162461bcd60e51b81526004016103c691906117c3565b80356001600160a01b03811681146104f157600080fd5b600060208284031215611454578081fd5b6104ee838361142c565b60008060408385031215611470578081fd5b61147a848461142c565b9150611489846020850161142c565b90509250929050565b6000806000606084860312156114a6578081fd5b83356114b181611d1c565b925060208401356114c181611d1c565b929592945050506040919091013590565b600080600080608085870312156114e7578081fd5b6114f1868661142c565b935060206115018782880161142c565b935060408601359250606086013567ffffffffffffffff80821115611524578384fd5b818801915088601f830112611537578384fd5b813581811115611545578485fd5b604051601f8201601f1916810185018381118282101715611564578687fd5b60405281815283820185018b101561157a578586fd5b81858501868301379081019093019390935250939692955090935050565b600080604083850312156115aa578182fd5b6115b4848461142c565b915060208301356115c481611d34565b809150509250929050565b600080604083850312156115e1578182fd5b6115eb848461142c565b946020939093013593505050565b60006020828403121561160a578081fd5b8151610d7081611d34565b600060208284031215611626578081fd5b8135610d7081611d42565b600060208284031215611642578081fd5b8151610d7081611d42565b60006020828403121561165e578081fd5b5035919050565b6000815180845261167d816020860160208601611cf0565b601f01601f19169290920160200192915050565b600082516116a3818460208701611cf0565b9190910192915050565b60008084546001808216600081146116cc57600181146116e357611712565b60ff198316865260028304607f1686019350611712565b600283048886526020808720875b8381101561170a5781548a8201529085019082016116f1565b505050860193505b5050508351611725818360208801611cf0565b01949350505050565b696668722e61636365737360b01b815260609190911b6bffffffffffffffffffffffff1916600a820152601e0190565b6001600160a01b0391909116815260200190565b6001600160a01b03858116825284166020820152604081018390526080606082018190526000906117a590830184611665565b9695505050505050565b901515815260200190565b90815260200190565b6000602082526104ee6020830184611665565b60208082526022908201527f456e756d657261626c655365743a20696e646578206f7574206f6620626f756e604082015261647360f01b606082015260800190565b60208082526032908201527f4552433732313a207472616e7366657220746f206e6f6e20455243373231526560408201527131b2b4bb32b91034b6b83632b6b2b73a32b960711b606082015260800190565b60208082526026908201527f4f776e61626c653a206e6577206f776e657220697320746865207a65726f206160408201526564647265737360d01b606082015260800190565b6020808252601c908201527f4552433732313a20746f6b656e20616c7265616479206d696e74656400000000604082015260600190565b60208082526024908201527f4552433732313a207472616e7366657220746f20746865207a65726f206164646040820152637265737360e01b606082015260800190565b60208082526019908201527f4552433732313a20617070726f766520746f2063616c6c657200000000000000604082015260600190565b6020808252602c908201527f4552433732313a206f70657261746f7220717565727920666f72206e6f6e657860408201526b34b9ba32b73a103a37b5b2b760a11b606082015260800190565b60208082526038908201527f4552433732313a20617070726f76652063616c6c6572206973206e6f74206f7760408201527f6e6572206e6f7220617070726f76656420666f7220616c6c0000000000000000606082015260800190565b6020808252602a908201527f4552433732313a2062616c616e636520717565727920666f7220746865207a65604082015269726f206164647265737360b01b606082015260800190565b60208082526022908201527f456e756d657261626c654d61703a20696e646578206f7574206f6620626f756e604082015261647360f01b606082015260800190565b6020808252818101527f4552433732313a206d696e7420746f20746865207a65726f2061646472657373604082015260600190565b6020808252602c908201527f4552433732313a20617070726f76656420717565727920666f72206e6f6e657860408201526b34b9ba32b73a103a37b5b2b760a11b606082015260800190565b6020808252818101527f4f776e61626c653a2063616c6c6572206973206e6f7420746865206f776e6572604082015260600190565b60208082526029908201527f4552433732313a207472616e73666572206f6620746f6b656e2074686174206960408201526839903737ba1037bbb760b91b606082015260800190565b6020808252602f908201527f4552433732314d657461646174613a2055524920717565727920666f72206e6f60408201526e3732bc34b9ba32b73a103a37b5b2b760891b606082015260800190565b60208082526021908201527f4552433732313a20617070726f76616c20746f2063757272656e74206f776e656040820152603960f91b606082015260800190565b60208082526031908201527f4552433732313a207472616e736665722063616c6c6572206973206e6f74206f6040820152701ddb995c881b9bdc88185c1c1c9bdd9959607a1b606082015260800190565b6020808252601d908201527f416464726573733a2063616c6c20746f206e6f6e2d636f6e7472616374000000604082015260600190565b60208082526022908201527f53656e64657220646f6573206e6f7420686176652061636365737320746f2046604082015261242960f11b606082015260800190565b60005b83811015611d0b578181015183820152602001611cf3565b838111156108c25750506000910152565b6001600160a01b0381168114611d3157600080fd5b50565b8015158114611d3157600080fd5b6001600160e01b031981168114611d3157600080fdfe4552433732313a207472616e7366657220746f206e6f6e20455243373231526563656976657220696d706c656d656e7465724552433732313a206f776e657220717565727920666f72206e6f6e6578697374656e7420746f6b656ea26469706673582212204a6635624d0cab93cae5b1624c96fb330186fd497f2895b8a290e3e6eacc58de64736f6c634300060c0033",
  "immutableReferences": {},
  "source": "pragma solidity 0.6.12;\npragma experimental ABIEncoderV2;\n\nimport {FederalHarvestingRights} from '../FederalHarvestingRights.sol';\n\n/* solium-disable-next-line */\ncontract TestFederalHarvestingRights is FederalHarvestingRights {\n    function testMint(address _to, uint256 _amount) public {\n        _mint(_to, _amount);\n    }\n\n    constructor(address master) public FederalHarvestingRights(master) {}\n}\n",
  "sourcePath": "C:/Users/James/projects/tsuno-fe/contracts/testing/TestFederalHarvestingRights.sol",
  "compiler": {
    "name": "solc",
    "version": "0.6.12+commit.27d51765.Emscripten.clang"
  },
  "schemaVersion": "3.2.5",
  "updatedAt": "2020-10-09T10:38:50.329Z",
  "networkType": "ethereum",
  "devdoc": {
    "kind": "dev",
    "methods": {
      "approve(address,uint256)": {
        "details": "See {IERC721-approve}."
      },
      "balanceOf(address)": {
        "details": "See {IERC721-balanceOf}."
      },
      "baseURI()": {
        "details": "Returns the base URI set via {_setBaseURI}. This will be automatically added as a prefix in {tokenURI} to each token's URI, or to the token ID if no specific URI is set for that token ID."
      },
      "getApproved(uint256)": {
        "details": "See {IERC721-getApproved}."
      },
      "isApprovedForAll(address,address)": {
        "details": "See {IERC721-isApprovedForAll}."
      },
      "name()": {
        "details": "See {IERC721Metadata-name}."
      },
      "owner()": {
        "details": "Returns the address of the current owner."
      },
      "ownerOf(uint256)": {
        "details": "See {IERC721-ownerOf}."
      },
      "renounceOwnership()": {
        "details": "Leaves the contract without owner. It will not be possible to call `onlyOwner` functions anymore. Can only be called by the current owner. NOTE: Renouncing ownership will leave the contract without an owner, thereby removing any functionality that is only available to the owner."
      },
      "safeTransferFrom(address,address,uint256)": {
        "details": "See {IERC721-safeTransferFrom}."
      },
      "safeTransferFrom(address,address,uint256,bytes)": {
        "details": "See {IERC721-safeTransferFrom}."
      },
      "setApprovalForAll(address,bool)": {
        "details": "See {IERC721-setApprovalForAll}."
      },
      "supportsInterface(bytes4)": {
        "details": "See {IERC165-supportsInterface}. Time complexity O(1), guaranteed to always use less than 30 000 gas."
      },
      "symbol()": {
        "details": "See {IERC721Metadata-symbol}."
      },
      "tokenByIndex(uint256)": {
        "details": "See {IERC721Enumerable-tokenByIndex}."
      },
      "tokenOfOwnerByIndex(address,uint256)": {
        "details": "See {IERC721Enumerable-tokenOfOwnerByIndex}."
      },
      "tokenURI(uint256)": {
        "details": "See {IERC721Metadata-tokenURI}."
      },
      "totalSupply()": {
        "details": "See {IERC721Enumerable-totalSupply}."
      },
      "transferFrom(address,address,uint256)": {
        "details": "See {IERC721-transferFrom}."
      },
      "transferOwnership(address)": {
        "details": "Transfers ownership of the contract to a new account (`newOwner`). Can only be called by the current owner."
      }
    },
    "version": 1
  },
  "userdoc": {
    "kind": "user",
    "methods": {},
    "version": 1
  }
}