{
  "contractName": "TestFederalHarvestingRights",
  "abi": [
    {
      "inputs": [
        {
          "internalType": "address",
          "name": "master",
          "type": "address"
        }
      ],
      "stateMutability": "nonpayable",
      "type": "constructor"
    },
    {
      "anonymous": false,
      "inputs": [
        {
          "indexed": true,
          "internalType": "address",
          "name": "owner",
          "type": "address"
        },
        {
          "indexed": true,
          "internalType": "address",
          "name": "approved",
          "type": "address"
        },
        {
          "indexed": true,
          "internalType": "uint256",
          "name": "tokenId",
          "type": "uint256"
        }
      ],
      "name": "Approval",
      "type": "event"
    },
    {
      "anonymous": false,
      "inputs": [
        {
          "indexed": true,
          "internalType": "address",
          "name": "owner",
          "type": "address"
        },
        {
          "indexed": true,
          "internalType": "address",
          "name": "operator",
          "type": "address"
        },
        {
          "indexed": false,
          "internalType": "bool",
          "name": "approved",
          "type": "bool"
        }
      ],
      "name": "ApprovalForAll",
      "type": "event"
    },
    {
      "anonymous": false,
      "inputs": [
        {
          "indexed": true,
          "internalType": "address",
          "name": "previousOwner",
          "type": "address"
        },
        {
          "indexed": true,
          "internalType": "address",
          "name": "newOwner",
          "type": "address"
        }
      ],
      "name": "OwnershipTransferred",
      "type": "event"
    },
    {
      "anonymous": false,
      "inputs": [
        {
          "indexed": true,
          "internalType": "address",
          "name": "from",
          "type": "address"
        },
        {
          "indexed": true,
          "internalType": "address",
          "name": "to",
          "type": "address"
        },
        {
          "indexed": true,
          "internalType": "uint256",
          "name": "tokenId",
          "type": "uint256"
        }
      ],
      "name": "Transfer",
      "type": "event"
    },
    {
      "inputs": [
        {
          "internalType": "address",
          "name": "to",
          "type": "address"
        },
        {
          "internalType": "uint256",
          "name": "tokenId",
          "type": "uint256"
        }
      ],
      "name": "approve",
      "outputs": [],
      "stateMutability": "nonpayable",
      "type": "function"
    },
    {
      "inputs": [
        {
          "internalType": "address",
          "name": "owner",
          "type": "address"
        }
      ],
      "name": "balanceOf",
      "outputs": [
        {
          "internalType": "uint256",
          "name": "",
          "type": "uint256"
        }
      ],
      "stateMutability": "view",
      "type": "function",
      "constant": true
    },
    {
      "inputs": [],
      "name": "baseURI",
      "outputs": [
        {
          "internalType": "string",
          "name": "",
          "type": "string"
        }
      ],
      "stateMutability": "view",
      "type": "function",
      "constant": true
    },
    {
      "inputs": [
        {
          "internalType": "uint256",
          "name": "tokenId",
          "type": "uint256"
        }
      ],
      "name": "getApproved",
      "outputs": [
        {
          "internalType": "address",
          "name": "",
          "type": "address"
        }
      ],
      "stateMutability": "view",
      "type": "function",
      "constant": true
    },
    {
      "inputs": [
        {
          "internalType": "address",
          "name": "owner",
          "type": "address"
        },
        {
          "internalType": "address",
          "name": "operator",
          "type": "address"
        }
      ],
      "name": "isApprovedForAll",
      "outputs": [
        {
          "internalType": "bool",
          "name": "",
          "type": "bool"
        }
      ],
      "stateMutability": "view",
      "type": "function",
      "constant": true
    },
    {
      "inputs": [
        {
          "internalType": "address",
          "name": "_to",
          "type": "address"
        },
        {
          "internalType": "uint256",
          "name": "_tokenId",
          "type": "uint256"
        }
      ],
      "name": "mint",
      "outputs": [],
      "stateMutability": "nonpayable",
      "type": "function"
    },
    {
      "inputs": [],
      "name": "name",
      "outputs": [
        {
          "internalType": "string",
          "name": "",
          "type": "string"
        }
      ],
      "stateMutability": "view",
      "type": "function",
      "constant": true
    },
    {
      "inputs": [],
      "name": "owner",
      "outputs": [
        {
          "internalType": "address",
          "name": "",
          "type": "address"
        }
      ],
      "stateMutability": "view",
      "type": "function",
      "constant": true
    },
    {
      "inputs": [
        {
          "internalType": "uint256",
          "name": "tokenId",
          "type": "uint256"
        }
      ],
      "name": "ownerOf",
      "outputs": [
        {
          "internalType": "address",
          "name": "",
          "type": "address"
        }
      ],
      "stateMutability": "view",
      "type": "function",
      "constant": true
    },
    {
      "inputs": [],
      "name": "renounceOwnership",
      "outputs": [],
      "stateMutability": "nonpayable",
      "type": "function"
    },
    {
      "inputs": [
        {
          "internalType": "address",
          "name": "from",
          "type": "address"
        },
        {
          "internalType": "address",
          "name": "to",
          "type": "address"
        },
        {
          "internalType": "uint256",
          "name": "tokenId",
          "type": "uint256"
        }
      ],
      "name": "safeTransferFrom",
      "outputs": [],
      "stateMutability": "nonpayable",
      "type": "function"
    },
    {
      "inputs": [
        {
          "internalType": "address",
          "name": "from",
          "type": "address"
        },
        {
          "internalType": "address",
          "name": "to",
          "type": "address"
        },
        {
          "internalType": "uint256",
          "name": "tokenId",
          "type": "uint256"
        },
        {
          "internalType": "bytes",
          "name": "_data",
          "type": "bytes"
        }
      ],
      "name": "safeTransferFrom",
      "outputs": [],
      "stateMutability": "nonpayable",
      "type": "function"
    },
    {
      "inputs": [
        {
          "internalType": "address",
          "name": "operator",
          "type": "address"
        },
        {
          "internalType": "bool",
          "name": "approved",
          "type": "bool"
        }
      ],
      "name": "setApprovalForAll",
      "outputs": [],
      "stateMutability": "nonpayable",
      "type": "function"
    },
    {
      "inputs": [
        {
          "internalType": "address",
          "name": "_operator",
          "type": "address"
        }
      ],
      "name": "setOperator",
      "outputs": [],
      "stateMutability": "nonpayable",
      "type": "function"
    },
    {
      "inputs": [
        {
          "internalType": "bytes4",
          "name": "interfaceId",
          "type": "bytes4"
        }
      ],
      "name": "supportsInterface",
      "outputs": [
        {
          "internalType": "bool",
          "name": "",
          "type": "bool"
        }
      ],
      "stateMutability": "view",
      "type": "function",
      "constant": true
    },
    {
      "inputs": [],
      "name": "symbol",
      "outputs": [
        {
          "internalType": "string",
          "name": "",
          "type": "string"
        }
      ],
      "stateMutability": "view",
      "type": "function",
      "constant": true
    },
    {
      "inputs": [
        {
          "internalType": "uint256",
          "name": "index",
          "type": "uint256"
        }
      ],
      "name": "tokenByIndex",
      "outputs": [
        {
          "internalType": "uint256",
          "name": "",
          "type": "uint256"
        }
      ],
      "stateMutability": "view",
      "type": "function",
      "constant": true
    },
    {
      "inputs": [
        {
          "internalType": "address",
          "name": "owner",
          "type": "address"
        },
        {
          "internalType": "uint256",
          "name": "index",
          "type": "uint256"
        }
      ],
      "name": "tokenOfOwnerByIndex",
      "outputs": [
        {
          "internalType": "uint256",
          "name": "",
          "type": "uint256"
        }
      ],
      "stateMutability": "view",
      "type": "function",
      "constant": true
    },
    {
      "inputs": [
        {
          "internalType": "uint256",
          "name": "tokenId",
          "type": "uint256"
        }
      ],
      "name": "tokenURI",
      "outputs": [
        {
          "internalType": "string",
          "name": "",
          "type": "string"
        }
      ],
      "stateMutability": "view",
      "type": "function",
      "constant": true
    },
    {
      "inputs": [],
      "name": "totalSupply",
      "outputs": [
        {
          "internalType": "uint256",
          "name": "",
          "type": "uint256"
        }
      ],
      "stateMutability": "view",
      "type": "function",
      "constant": true
    },
    {
      "inputs": [
        {
          "internalType": "address",
          "name": "from",
          "type": "address"
        },
        {
          "internalType": "address",
          "name": "to",
          "type": "address"
        },
        {
          "internalType": "uint256",
          "name": "tokenId",
          "type": "uint256"
        }
      ],
      "name": "transferFrom",
      "outputs": [],
      "stateMutability": "nonpayable",
      "type": "function"
    },
    {
      "inputs": [
        {
          "internalType": "address",
          "name": "newOwner",
          "type": "address"
        }
      ],
      "name": "transferOwnership",
      "outputs": [],
      "stateMutability": "nonpayable",
      "type": "function"
    },
    {
      "inputs": [
        {
          "internalType": "address",
          "name": "_to",
          "type": "address"
        },
        {
          "internalType": "uint256",
          "name": "_amount",
          "type": "uint256"
        }
      ],
      "name": "testMint",
      "outputs": [],
      "stateMutability": "nonpayable",
      "type": "function"
    }
  ],
  "bytecode": "0x60806040523480156200001157600080fd5b50604051620020be380380620020be833981016040819052620000349162000277565b604080518082018252601781527f4665646572616c48617276657374696e675269676874730000000000000000006020808301919091528251808401909352600383526223242960e91b908301528291620000966301ffc9a760e01b6200017c565b8151620000ab906006906020850190620001db565b508051620000c1906007906020840190620001db565b50620000d46380ac58cd60e01b6200017c565b620000e6635b5e139f60e01b6200017c565b620000f863780e9d6360e01b6200017c565b506000905062000107620001d7565b600a80546001600160a01b0319166001600160a01b038316908117909155604051919250906000907f8be0079c531659141344cd1fd0a4f28419497f9722a3daafe3b4186f6b6457e0908290a350600b80546001600160a01b0319166001600160a01b039290921691909117905550620002de565b6001600160e01b03198082161415620001b25760405162461bcd60e51b8152600401620001a990620002a7565b60405180910390fd5b6001600160e01b0319166000908152602081905260409020805460ff19166001179055565b3390565b828054600181600116156101000203166002900490600052602060002090601f016020900481019282601f106200021e57805160ff19168380011785556200024e565b828001600101855582156200024e579182015b828111156200024e57825182559160200191906001019062000231565b506200025c92915062000260565b5090565b5b808211156200025c576000815560010162000261565b60006020828403121562000289578081fd5b81516001600160a01b0381168114620002a0578182fd5b9392505050565b6020808252601c908201527f4552433136353a20696e76616c696420696e7465726661636520696400000000604082015260600190565b611dd080620002ee6000396000f3fe608060405234801561001057600080fd5b506004361061014d5760003560e01c80636c0360eb116100c3578063b3ab15fb1161007c578063b3ab15fb14610292578063b88d4fde146102a5578063c87b56dd146102b8578063e985e9c5146102cb578063f28e093d146102de578063f2fde38b146102f15761014d565b80636c0360eb1461024c57806370a0823114610254578063715018a6146102675780638da5cb5b1461026f57806395d89b4114610277578063a22cb4651461027f5761014d565b806323b872dd1161011557806323b872dd146101da5780632f745c59146101ed57806340c10f191461020057806342842e0e146102135780634f6ccce7146102265780636352211e146102395761014d565b806301ffc9a71461015257806306fdde031461017b578063081812fc14610190578063095ea7b3146101b057806318160ddd146101c5575b600080fd5b61016561016036600461164f565b610304565b60405161017291906117e9565b60405180910390f35b610183610327565b60405161017291906117fd565b6101a361019e366004611687565b6103bd565b6040516101729190611798565b6101c36101be366004611624565b610409565b005b6101cd6104a1565b60405161017291906117f4565b6101c36101e83660046114eb565b6104b2565b6101cd6101fb366004611624565b6104ea565b6101c361020e366004611624565b610515565b6101c36102213660046114eb565b6105e0565b6101cd610234366004611687565b6105fb565b6101a3610247366004611687565b610611565b610183610639565b6101cd61026236600461147b565b61069a565b6101c36106e3565b6101a3610762565b610183610771565b6101c361028d3660046115f3565b6107d2565b6101c36102a036600461147b565b6108a0565b6101c36102b336600461152b565b6108d8565b6101836102c6366004611687565b610917565b6101656102d93660046114b3565b610a61565b6101c36102ec366004611624565b610a8f565b6101c36102ff36600461147b565b610a99565b6001600160e01b0319811660009081526020819052604090205460ff165b919050565b60068054604080516020601f60026000196101006001881615020190951694909404938401819004810282018101909252828152606093909290918301828280156103b35780601f10610388576101008083540402835291602001916103b3565b820191906000526020600020905b81548152906001019060200180831161039657829003601f168201915b5050505050905090565b60006103c882610b50565b6103ed5760405162461bcd60e51b81526004016103e490611b06565b60405180910390fd5b506000908152600460205260409020546001600160a01b031690565b600061041482610611565b9050806001600160a01b0316836001600160a01b031614156104485760405162461bcd60e51b81526004016103e490611c1f565b806001600160a01b031661045a610b5d565b6001600160a01b031614806104765750610476816102d9610b5d565b6104925760405162461bcd60e51b81526004016103e4906119e8565b61049c8383610b61565b505050565b60006104ad6002610bcf565b905090565b6104c36104bd610b5d565b82610bda565b6104df5760405162461bcd60e51b81526004016103e490611c60565b61049c838383610c5f565b6001600160a01b038216600090815260016020526040812061050c9083610d6d565b90505b92915050565b600b546040516000916001600160a01b0316906321f8a7219061053c903390602001611768565b604051602081830303815290604052805190602001206040518263ffffffff1660e01b815260040161056e91906117f4565b60206040518083038186803b15801561058657600080fd5b505afa15801561059a573d6000803e3d6000fd5b505050506040513d601f19601f820116820180604052508101906105be9190611497565b6001600160a01b031614156105d257600080fd5b6105dc8282610d79565b5050565b61049c838383604051806020016040528060008152506108d8565b600080610609600284610d93565b509392505050565b600061050f82604051806060016040528060298152602001611d726029913960029190610daf565b60098054604080516020601f60026000196101006001881615020190951694909404938401819004810282018101909252828152606093909290918301828280156103b35780601f10610388576101008083540402835291602001916103b3565b60006001600160a01b0382166106c25760405162461bcd60e51b81526004016103e490611a45565b6001600160a01b038216600090815260016020526040902061050f90610bcf565b6106eb610b5d565b600a546001600160a01b039081169116146107185760405162461bcd60e51b81526004016103e490611b52565b600a546040516000916001600160a01b0316907f8be0079c531659141344cd1fd0a4f28419497f9722a3daafe3b4186f6b6457e0908390a3600a80546001600160a01b0319169055565b600a546001600160a01b031690565b60078054604080516020601f60026000196101006001881615020190951694909404938401819004810282018101909252828152606093909290918301828280156103b35780601f10610388576101008083540402835291602001916103b3565b6107da610b5d565b6001600160a01b0316826001600160a01b0316141561080b5760405162461bcd60e51b81526004016103e490611965565b8060056000610818610b5d565b6001600160a01b03908116825260208083019390935260409182016000908120918716808252919093529120805460ff19169215159290921790915561085c610b5d565b6001600160a01b03167f17307eab39ab6107e8899845ad3d59bd9653f200f220920489ca2b5937696c318360405161089491906117e9565b60405180910390a35050565b6108a8610b5d565b600a546001600160a01b039081169116146108d55760405162461bcd60e51b81526004016103e490611b52565b50565b6108e96108e3610b5d565b83610bda565b6109055760405162461bcd60e51b81526004016103e490611c60565b61091184848484610dc6565b50505050565b606061092282610b50565b61093e5760405162461bcd60e51b81526004016103e490611bd0565b60008281526008602090815260409182902080548351601f60026000196101006001861615020190931692909204918201849004840281018401909452808452606093928301828280156109d35780601f106109a8576101008083540402835291602001916109d3565b820191906000526020600020905b8154815290600101906020018083116109b657829003601f168201915b5050600954939450505050600260001961010060018416150201909116046109fc579050610322565b805115610a2e57600981604051602001610a179291906116e7565b604051602081830303815290604052915050610322565b6009610a3984610df9565b604051602001610a4a9291906116e7565b604051602081830303815290604052915050919050565b6001600160a01b03918216600090815260056020908152604080832093909416825291909152205460ff1690565b6105dc8282610ed4565b610aa1610b5d565b600a546001600160a01b03908116911614610ace5760405162461bcd60e51b81526004016103e490611b52565b6001600160a01b038116610af45760405162461bcd60e51b81526004016103e4906118a4565b600a546040516001600160a01b038084169216907f8be0079c531659141344cd1fd0a4f28419497f9722a3daafe3b4186f6b6457e090600090a3600a80546001600160a01b0319166001600160a01b0392909216919091179055565b600061050f600283610f98565b3390565b600081815260046020526040902080546001600160a01b0319166001600160a01b0384169081179091558190610b9682610611565b6001600160a01b03167f8c5be1e5ebec7d5bd14f71427d1e84f3dd0314c0f7b2291e5b200ac8c7c3b92560405160405180910390a45050565b600061050f82610fa4565b6000610be582610b50565b610c015760405162461bcd60e51b81526004016103e49061199c565b6000610c0c83610611565b9050806001600160a01b0316846001600160a01b03161480610c475750836001600160a01b0316610c3c846103bd565b6001600160a01b0316145b80610c575750610c578185610a61565b949350505050565b826001600160a01b0316610c7282610611565b6001600160a01b031614610c985760405162461bcd60e51b81526004016103e490611b87565b6001600160a01b038216610cbe5760405162461bcd60e51b81526004016103e490611921565b610cc983838361049c565b610cd4600082610b61565b6001600160a01b0383166000908152600160205260409020610cf69082610fa8565b506001600160a01b0382166000908152600160205260409020610d199082610fb4565b50610d2660028284610fc0565b5080826001600160a01b0316846001600160a01b03167fddf252ad1be2c89b69c2b068fc378daa952ba7f163c4a11628f55a4df523b3ef60405160405180910390a4505050565b600061050c8383610fd6565b6105dc82826040518060200160405280600081525061101b565b6000808080610da2868661104e565b9097909650945050505050565b6000610dbc8484846110aa565b90505b9392505050565b610dd1848484610c5f565b610ddd84848484611109565b6109115760405162461bcd60e51b81526004016103e490611852565b606081610e1e57506040805180820190915260018152600360fc1b6020820152610322565b8160005b8115610e3657600101600a82049150610e22565b60608167ffffffffffffffff81118015610e4f57600080fd5b506040519080825280601f01601f191660200182016040528015610e7a576020820181803683370190505b50859350905060001982015b8315610ecb57600a840660300160f81b82828060019003935081518110610ea957fe5b60200101906001600160f81b031916908160001a905350600a84049350610e86565b50949350505050565b6001600160a01b038216610efa5760405162461bcd60e51b81526004016103e490611ad1565b610f0381610b50565b15610f205760405162461bcd60e51b81526004016103e4906118ea565b610f2c6000838361049c565b6001600160a01b0382166000908152600160205260409020610f4e9082610fb4565b50610f5b60028284610fc0565b5060405181906001600160a01b038416906000907fddf252ad1be2c89b69c2b068fc378daa952ba7f163c4a11628f55a4df523b3ef908290a45050565b600061050c83836111e8565b5490565b600061050c8383611200565b600061050c83836112c6565b6000610dbc84846001600160a01b038516611310565b81546000908210610ff95760405162461bcd60e51b81526004016103e490611810565b82600001828154811061100857fe5b9060005260206000200154905092915050565b6110258383610ed4565b6110326000848484611109565b61049c5760405162461bcd60e51b81526004016103e490611852565b8154600090819083106110735760405162461bcd60e51b81526004016103e490611a8f565b600084600001848154811061108457fe5b906000526020600020906002020190508060000154816001015492509250509250929050565b600082815260018401602052604081205482816110da5760405162461bcd60e51b81526004016103e491906117fd565b508460000160018203815481106110ed57fe5b9060005260206000209060020201600101549150509392505050565b600061111d846001600160a01b03166113a7565b61112957506001610c57565b60606111b1630a85bd0160e11b61113e610b5d565b88878760405160240161115494939291906117ac565b604051602081830303815290604052906001600160e01b0319166020820180516001600160e01b038381831617835250505050604051806060016040528060328152602001611d40603291396001600160a01b03881691906113ad565b90506000818060200190518101906111c9919061166b565b6001600160e01b031916630a85bd0160e11b1492505050949350505050565b60009081526001919091016020526040902054151590565b600081815260018301602052604081205480156112bc578354600019808301919081019060009087908390811061123357fe5b906000526020600020015490508087600001848154811061125057fe5b60009182526020808320909101929092558281526001898101909252604090209084019055865487908061128057fe5b6001900381819060005260206000200160009055905586600101600087815260200190815260200160002060009055600194505050505061050f565b600091505061050f565b60006112d283836111e8565b6113085750815460018181018455600084815260208082209093018490558454848252828601909352604090209190915561050f565b50600061050f565b600082815260018401602052604081205480611375575050604080518082018252838152602080820184815286546001818101895560008981528481209551600290930290950191825591519082015586548684528188019092529290912055610dbf565b8285600001600183038154811061138857fe5b9060005260206000209060020201600101819055506000915050610dbf565b3b151590565b6060610dbc848460008560606113c2856113a7565b6113de5760405162461bcd60e51b81526004016103e490611cb1565b60006060866001600160a01b031685876040516113fb91906116cb565b60006040518083038185875af1925050503d8060008114611438576040519150601f19603f3d011682016040523d82523d6000602084013e61143d565b606091505b50915091508115611451579150610c579050565b8051156114615780518082602001fd5b8360405162461bcd60e51b81526004016103e491906117fd565b60006020828403121561148c578081fd5b8135610dbf81611d14565b6000602082840312156114a8578081fd5b8151610dbf81611d14565b600080604083850312156114c5578081fd5b82356114d081611d14565b915060208301356114e081611d14565b809150509250929050565b6000806000606084860312156114ff578081fd5b833561150a81611d14565b9250602084013561151a81611d14565b929592945050506040919091013590565b60008060008060808587031215611540578081fd5b843561154b81611d14565b935060208581013561155c81611d14565b935060408601359250606086013567ffffffffffffffff8082111561157f578384fd5b818801915088601f830112611592578384fd5b8135818111156115a0578485fd5b604051601f8201601f19168101850183811182821017156115bf578687fd5b60405281815283820185018b10156115d5578586fd5b81858501868301379081019093019390935250939692955090935050565b60008060408385031215611605578182fd5b823561161081611d14565b9150602083013580151581146114e0578182fd5b60008060408385031215611636578182fd5b823561164181611d14565b946020939093013593505050565b600060208284031215611660578081fd5b8135610dbf81611d29565b60006020828403121561167c578081fd5b8151610dbf81611d29565b600060208284031215611698578081fd5b5035919050565b600081518084526116b7816020860160208601611ce8565b601f01601f19169290920160200192915050565b600082516116dd818460208701611ce8565b9190910192915050565b6000808454600180821660008114611706576001811461171d5761174c565b60ff198316865260028304607f168601935061174c565b600283048886526020808720875b838110156117445781548a82015290850190820161172b565b505050860193505b505050835161175f818360208801611ce8565b01949350505050565b696668722e61636365737360b01b815260609190911b6bffffffffffffffffffffffff1916600a820152601e0190565b6001600160a01b0391909116815260200190565b6001600160a01b03858116825284166020820152604081018390526080606082018190526000906117df9083018461169f565b9695505050505050565b901515815260200190565b90815260200190565b60006020825261050c602083018461169f565b60208082526022908201527f456e756d657261626c655365743a20696e646578206f7574206f6620626f756e604082015261647360f01b606082015260800190565b60208082526032908201527f4552433732313a207472616e7366657220746f206e6f6e20455243373231526560408201527131b2b4bb32b91034b6b83632b6b2b73a32b960711b606082015260800190565b60208082526026908201527f4f776e61626c653a206e6577206f776e657220697320746865207a65726f206160408201526564647265737360d01b606082015260800190565b6020808252601c908201527f4552433732313a20746f6b656e20616c7265616479206d696e74656400000000604082015260600190565b60208082526024908201527f4552433732313a207472616e7366657220746f20746865207a65726f206164646040820152637265737360e01b606082015260800190565b60208082526019908201527f4552433732313a20617070726f766520746f2063616c6c657200000000000000604082015260600190565b6020808252602c908201527f4552433732313a206f70657261746f7220717565727920666f72206e6f6e657860408201526b34b9ba32b73a103a37b5b2b760a11b606082015260800190565b60208082526038908201527f4552433732313a20617070726f76652063616c6c6572206973206e6f74206f7760408201527f6e6572206e6f7220617070726f76656420666f7220616c6c0000000000000000606082015260800190565b6020808252602a908201527f4552433732313a2062616c616e636520717565727920666f7220746865207a65604082015269726f206164647265737360b01b606082015260800190565b60208082526022908201527f456e756d657261626c654d61703a20696e646578206f7574206f6620626f756e604082015261647360f01b606082015260800190565b6020808252818101527f4552433732313a206d696e7420746f20746865207a65726f2061646472657373604082015260600190565b6020808252602c908201527f4552433732313a20617070726f76656420717565727920666f72206e6f6e657860408201526b34b9ba32b73a103a37b5b2b760a11b606082015260800190565b6020808252818101527f4f776e61626c653a2063616c6c6572206973206e6f7420746865206f776e6572604082015260600190565b60208082526029908201527f4552433732313a207472616e73666572206f6620746f6b656e2074686174206960408201526839903737ba1037bbb760b91b606082015260800190565b6020808252602f908201527f4552433732314d657461646174613a2055524920717565727920666f72206e6f60408201526e3732bc34b9ba32b73a103a37b5b2b760891b606082015260800190565b60208082526021908201527f4552433732313a20617070726f76616c20746f2063757272656e74206f776e656040820152603960f91b606082015260800190565b60208082526031908201527f4552433732313a207472616e736665722063616c6c6572206973206e6f74206f6040820152701ddb995c881b9bdc88185c1c1c9bdd9959607a1b606082015260800190565b6020808252601d908201527f416464726573733a2063616c6c20746f206e6f6e2d636f6e7472616374000000604082015260600190565b60005b83811015611d03578181015183820152602001611ceb565b838111156109115750506000910152565b6001600160a01b03811681146108d557600080fd5b6001600160e01b0319811681146108d557600080fdfe4552433732313a207472616e7366657220746f206e6f6e20455243373231526563656976657220696d706c656d656e7465724552433732313a206f776e657220717565727920666f72206e6f6e6578697374656e7420746f6b656ea26469706673582212206f67a89b0ce682b30392745ac3eff49d2ffdea4f6e51c11d32c7ea15e608410a64736f6c634300060c0033",
  "immutableReferences": {},
  "source": "pragma solidity 0.6.12;\npragma experimental ABIEncoderV2;\n\nimport {FederalHarvestingRights} from '../FederalHarvestingRights.sol';\n\n/* solium-disable-next-line */\ncontract TestFederalHarvestingRights is FederalHarvestingRights {\n    function testMint(address _to, uint256 _amount) public {\n        _mint(_to, _amount);\n    }\n\n    constructor(address master) public FederalHarvestingRights(master) {}\n}\n",
  "sourcePath": "C:/Users/James/projects/tsuno-fe/contracts/testing/TestFederalHarvestingRights.sol",
  "compiler": {
    "name": "solc",
    "version": "0.6.12+commit.27d51765.Emscripten.clang"
  },
  "schemaVersion": "3.2.5",
  "updatedAt": "2020-10-04T21:25:02.665Z",
  "networkType": "ethereum",
  "devdoc": {
    "kind": "dev",
    "methods": {
      "approve(address,uint256)": {
        "details": "See {IERC721-approve}."
      },
      "balanceOf(address)": {
        "details": "See {IERC721-balanceOf}."
      },
      "baseURI()": {
        "details": "Returns the base URI set via {_setBaseURI}. This will be automatically added as a prefix in {tokenURI} to each token's URI, or to the token ID if no specific URI is set for that token ID."
      },
      "getApproved(uint256)": {
        "details": "See {IERC721-getApproved}."
      },
      "isApprovedForAll(address,address)": {
        "details": "See {IERC721-isApprovedForAll}."
      },
      "name()": {
        "details": "See {IERC721Metadata-name}."
      },
      "owner()": {
        "details": "Returns the address of the current owner."
      },
      "ownerOf(uint256)": {
        "details": "See {IERC721-ownerOf}."
      },
      "renounceOwnership()": {
        "details": "Leaves the contract without owner. It will not be possible to call `onlyOwner` functions anymore. Can only be called by the current owner. NOTE: Renouncing ownership will leave the contract without an owner, thereby removing any functionality that is only available to the owner."
      },
      "safeTransferFrom(address,address,uint256)": {
        "details": "See {IERC721-safeTransferFrom}."
      },
      "safeTransferFrom(address,address,uint256,bytes)": {
        "details": "See {IERC721-safeTransferFrom}."
      },
      "setApprovalForAll(address,bool)": {
        "details": "See {IERC721-setApprovalForAll}."
      },
      "supportsInterface(bytes4)": {
        "details": "See {IERC165-supportsInterface}. Time complexity O(1), guaranteed to always use less than 30 000 gas."
      },
      "symbol()": {
        "details": "See {IERC721Metadata-symbol}."
      },
      "tokenByIndex(uint256)": {
        "details": "See {IERC721Enumerable-tokenByIndex}."
      },
      "tokenOfOwnerByIndex(address,uint256)": {
        "details": "See {IERC721Enumerable-tokenOfOwnerByIndex}."
      },
      "tokenURI(uint256)": {
        "details": "See {IERC721Metadata-tokenURI}."
      },
      "totalSupply()": {
        "details": "See {IERC721Enumerable-totalSupply}."
      },
      "transferFrom(address,address,uint256)": {
        "details": "See {IERC721-transferFrom}."
      },
      "transferOwnership(address)": {
        "details": "Transfers ownership of the contract to a new account (`newOwner`). Can only be called by the current owner."
      }
    },
    "version": 1
  },
  "userdoc": {
    "kind": "user",
    "methods": {},
    "version": 1
  }
}