{
  "contractName": "TestShipsAndTechnology",
  "abi": [
    {
      "inputs": [
        {
          "internalType": "address",
          "name": "eternalStorage",
          "type": "address"
        },
        {
          "internalType": "address",
          "name": "holder",
          "type": "address"
        }
      ],
      "stateMutability": "nonpayable",
      "type": "constructor"
    },
    {
      "anonymous": false,
      "inputs": [
        {
          "indexed": true,
          "internalType": "address",
          "name": "account",
          "type": "address"
        },
        {
          "indexed": true,
          "internalType": "address",
          "name": "operator",
          "type": "address"
        },
        {
          "indexed": false,
          "internalType": "bool",
          "name": "approved",
          "type": "bool"
        }
      ],
      "name": "ApprovalForAll",
      "type": "event"
    },
    {
      "anonymous": false,
      "inputs": [
        {
          "indexed": true,
          "internalType": "address",
          "name": "previousOwner",
          "type": "address"
        },
        {
          "indexed": true,
          "internalType": "address",
          "name": "newOwner",
          "type": "address"
        }
      ],
      "name": "OwnershipTransferred",
      "type": "event"
    },
    {
      "anonymous": false,
      "inputs": [
        {
          "indexed": true,
          "internalType": "address",
          "name": "operator",
          "type": "address"
        },
        {
          "indexed": true,
          "internalType": "address",
          "name": "from",
          "type": "address"
        },
        {
          "indexed": true,
          "internalType": "address",
          "name": "to",
          "type": "address"
        },
        {
          "indexed": false,
          "internalType": "uint256[]",
          "name": "ids",
          "type": "uint256[]"
        },
        {
          "indexed": false,
          "internalType": "uint256[]",
          "name": "values",
          "type": "uint256[]"
        }
      ],
      "name": "TransferBatch",
      "type": "event"
    },
    {
      "anonymous": false,
      "inputs": [
        {
          "indexed": true,
          "internalType": "address",
          "name": "operator",
          "type": "address"
        },
        {
          "indexed": true,
          "internalType": "address",
          "name": "from",
          "type": "address"
        },
        {
          "indexed": true,
          "internalType": "address",
          "name": "to",
          "type": "address"
        },
        {
          "indexed": false,
          "internalType": "uint256",
          "name": "id",
          "type": "uint256"
        },
        {
          "indexed": false,
          "internalType": "uint256",
          "name": "value",
          "type": "uint256"
        }
      ],
      "name": "TransferSingle",
      "type": "event"
    },
    {
      "anonymous": false,
      "inputs": [
        {
          "indexed": false,
          "internalType": "string",
          "name": "value",
          "type": "string"
        },
        {
          "indexed": true,
          "internalType": "uint256",
          "name": "id",
          "type": "uint256"
        }
      ],
      "name": "URI",
      "type": "event"
    },
    {
      "inputs": [
        {
          "internalType": "address",
          "name": "account",
          "type": "address"
        },
        {
          "internalType": "uint256",
          "name": "id",
          "type": "uint256"
        }
      ],
      "name": "balanceOf",
      "outputs": [
        {
          "internalType": "uint256",
          "name": "",
          "type": "uint256"
        }
      ],
      "stateMutability": "view",
      "type": "function",
      "constant": true
    },
    {
      "inputs": [
        {
          "internalType": "address[]",
          "name": "accounts",
          "type": "address[]"
        },
        {
          "internalType": "uint256[]",
          "name": "ids",
          "type": "uint256[]"
        }
      ],
      "name": "balanceOfBatch",
      "outputs": [
        {
          "internalType": "uint256[]",
          "name": "",
          "type": "uint256[]"
        }
      ],
      "stateMutability": "view",
      "type": "function",
      "constant": true
    },
    {
      "inputs": [
        {
          "internalType": "address",
          "name": "account",
          "type": "address"
        },
        {
          "internalType": "address",
          "name": "operator",
          "type": "address"
        }
      ],
      "name": "isApprovedForAll",
      "outputs": [
        {
          "internalType": "bool",
          "name": "",
          "type": "bool"
        }
      ],
      "stateMutability": "view",
      "type": "function",
      "constant": true
    },
    {
      "inputs": [],
      "name": "owner",
      "outputs": [
        {
          "internalType": "address",
          "name": "",
          "type": "address"
        }
      ],
      "stateMutability": "view",
      "type": "function",
      "constant": true
    },
    {
      "inputs": [],
      "name": "renounceOwnership",
      "outputs": [],
      "stateMutability": "nonpayable",
      "type": "function"
    },
    {
      "inputs": [
        {
          "internalType": "address",
          "name": "from",
          "type": "address"
        },
        {
          "internalType": "address",
          "name": "to",
          "type": "address"
        },
        {
          "internalType": "uint256[]",
          "name": "ids",
          "type": "uint256[]"
        },
        {
          "internalType": "uint256[]",
          "name": "amounts",
          "type": "uint256[]"
        },
        {
          "internalType": "bytes",
          "name": "data",
          "type": "bytes"
        }
      ],
      "name": "safeBatchTransferFrom",
      "outputs": [],
      "stateMutability": "nonpayable",
      "type": "function"
    },
    {
      "inputs": [
        {
          "internalType": "address",
          "name": "from",
          "type": "address"
        },
        {
          "internalType": "address",
          "name": "to",
          "type": "address"
        },
        {
          "internalType": "uint256",
          "name": "id",
          "type": "uint256"
        },
        {
          "internalType": "uint256",
          "name": "amount",
          "type": "uint256"
        },
        {
          "internalType": "bytes",
          "name": "data",
          "type": "bytes"
        }
      ],
      "name": "safeTransferFrom",
      "outputs": [],
      "stateMutability": "nonpayable",
      "type": "function"
    },
    {
      "inputs": [
        {
          "internalType": "address",
          "name": "operator",
          "type": "address"
        },
        {
          "internalType": "bool",
          "name": "approved",
          "type": "bool"
        }
      ],
      "name": "setApprovalForAll",
      "outputs": [],
      "stateMutability": "nonpayable",
      "type": "function"
    },
    {
      "inputs": [
        {
          "internalType": "bytes4",
          "name": "interfaceId",
          "type": "bytes4"
        }
      ],
      "name": "supportsInterface",
      "outputs": [
        {
          "internalType": "bool",
          "name": "",
          "type": "bool"
        }
      ],
      "stateMutability": "view",
      "type": "function",
      "constant": true
    },
    {
      "inputs": [
        {
          "internalType": "address",
          "name": "newOwner",
          "type": "address"
        }
      ],
      "name": "transferOwnership",
      "outputs": [],
      "stateMutability": "nonpayable",
      "type": "function"
    },
    {
      "inputs": [
        {
          "internalType": "uint256",
          "name": "",
          "type": "uint256"
        }
      ],
      "name": "uri",
      "outputs": [
        {
          "internalType": "string",
          "name": "",
          "type": "string"
        }
      ],
      "stateMutability": "view",
      "type": "function",
      "constant": true
    }
  ],
  "bytecode": "0x60806040523480156200001157600080fd5b5060405162002077380380620020778339810160408190526200003491620005dc565b8181604051806060016040528060268152602001620020516026913960006200005c6200014a565b600080546001600160a01b0319166001600160a01b0383169081178255604051929350917f8be0079c531659141344cd1fd0a4f28419497f9722a3daafe3b4186f6b6457e0908290a350620000b86301ffc9a760e01b6200014f565b620000c381620001ad565b620000d5636cdb3d1360e11b6200014f565b620000e76303a24d0760e21b6200014f565b50600580546001600160a01b0319166001600160a01b03841617905560005b602e8110156200013f576200013682826200012181620001c6565b60408051602081019091526000815262000272565b60010162000106565b50505050506200091f565b335b90565b6001600160e01b03198082161415620001855760405162461bcd60e51b81526004016200017c9062000793565b60405180910390fd5b6001600160e01b0319166000908152600160208190526040909120805460ff19169091179055565b8051620001c290600490602084019062000540565b5050565b60006026821480620001d85750602982145b80620001e45750602282145b15620001f457506103e86200026d565b6027821480620002045750602982145b80620002105750602382145b156200022057506101906200026d565b602b821480620002305750602882145b156200023f575060646200026d565b6021821415620002525750600a6200026d565b60248214156200026657506127106200026d565b50633b9aca005b919050565b6001600160a01b0384166200029b5760405162461bcd60e51b81526004016200017c9062000801565b6000620002a76200014a565b9050620002ce81600087620002bc8862000387565b620002c78862000387565b87620003cc565b60008481526002602090815260408083206001600160a01b038916845282529091205462000307918590620009fb620003d4821b17901c565b60008581526002602090815260408083206001600160a01b03808b16808652919093528184209490945551908416907fc3d58168c5ae7397731d063d5bbf3d657854427343f4c083240f7aacaa2d0f629062000367908990899062000842565b60405180910390a4620003808160008787878762000403565b5050505050565b604080516001808252818301909252606091829190602080830190803683370190505090508281600081518110620003bb57fe5b602090810291909101015292915050565b505050505050565b600082820183811015620003fc5760405162461bcd60e51b81526004016200017c90620007ca565b9392505050565b62000422846001600160a01b03166200053a60201b62000a271760201c565b15620003cc5760405163f23a6e6160e01b81526001600160a01b0385169063f23a6e61906200045e908990899088908890889060040162000692565b602060405180830381600087803b1580156200047957600080fd5b505af1925050508015620004ac575060408051601f3d908101601f19168201909252620004a9918101906200061a565b60015b620004fe57620004bb62000856565b80620004c85750620004e4565b8060405162461bcd60e51b81526004016200017c9190620006d9565b60405162461bcd60e51b81526004016200017c90620006ee565b6001600160e01b0319811663f23a6e6160e01b14620005315760405162461bcd60e51b81526004016200017c906200074b565b50505050505050565b3b151590565b828054600181600116156101000203166002900490600052602060002090601f016020900481019282601f106200058357805160ff1916838001178555620005b3565b82800160010185558215620005b3579182015b82811115620005b357825182559160200191906001019062000596565b50620005c1929150620005c5565b5090565b5b80821115620005c15760008155600101620005c6565b60008060408385031215620005ef578182fd5b8251620005fc8162000906565b60208401519092506200060f8162000906565b809150509250929050565b6000602082840312156200062c578081fd5b81516001600160e01b031981168114620003fc578182fd5b60008151808452815b818110156200066b576020818501810151868301820152016200064d565b818111156200067d5782602083870101525b50601f01601f19169290920160200192915050565b6001600160a01b03868116825285166020820152604081018490526060810183905260a060808201819052600090620006ce9083018462000644565b979650505050505050565b600060208252620003fc602083018462000644565b60208082526034908201527f455243313135353a207472616e7366657220746f206e6f6e204552433131353560408201527f526563656976657220696d706c656d656e746572000000000000000000000000606082015260800190565b60208082526028908201527f455243313135353a204552433131353552656365697665722072656a656374656040820152676420746f6b656e7360c01b606082015260800190565b6020808252601c908201527f4552433136353a20696e76616c696420696e7465726661636520696400000000604082015260600190565b6020808252601b908201527f536166654d6174683a206164646974696f6e206f766572666c6f770000000000604082015260600190565b60208082526021908201527f455243313135353a206d696e7420746f20746865207a65726f206164647265736040820152607360f81b606082015260800190565b918252602082015260400190565b60e01c90565b600060443d101562000868576200014c565b600481823e6308c379a06200087e825162000850565b146200088a576200014c565b6040513d600319016004823e80513d6001600160401b038083116024840183101715620008bb57505050506200014c565b82840192508251915080821115620008d757505050506200014c565b503d83016020828401011115620008f1575050506200014c565b601f01601f1916810160200160405291505090565b6001600160a01b03811681146200091c57600080fd5b50565b611722806200092f6000396000f3fe608060405234801561001057600080fd5b50600436106100a85760003560e01c8063715018a611610071578063715018a61461014b5780638da5cb5b14610153578063a22cb46514610168578063e985e9c51461017b578063f242432a1461018e578063f2fde38b146101a1576100a8565b8062fdd58e146100ad57806301ffc9a7146100d65780630e89341c146100f65780632eb2c2d6146101165780634e1273f41461012b575b600080fd5b6100c06100bb366004610f10565b6101b4565b6040516100cd919061158b565b60405180910390f35b6100e96100e4366004610ffc565b610210565b6040516100cd91906111c9565b610109610104366004611034565b61022f565b6040516100cd91906111d4565b610129610124366004610dc6565b6102c7565b005b61013e610139366004610f3a565b6104e6565b6040516100cd9190611188565b610129610626565b61015b6106a5565b6040516100cd91906110d1565b610129610176366004610ed5565b6106b5565b6100e9610189366004610d92565b610783565b61012961019c366004610e70565b6107b1565b6101296101af366004610d77565b610945565b60006001600160a01b0383166101e55760405162461bcd60e51b81526004016101dc90611283565b60405180910390fd5b5060008181526002602090815260408083206001600160a01b03861684529091529020545b92915050565b6001600160e01b03191660009081526001602052604090205460ff1690565b60048054604080516020601f60026000196101006001881615020190951694909404938401819004810282018101909252828152606093909290918301828280156102bb5780601f10610290576101008083540402835291602001916102bb565b820191906000526020600020905b81548152906001019060200180831161029e57829003601f168201915b50505050509050919050565b81518351146102e85760405162461bcd60e51b81526004016101dc90611543565b6001600160a01b03841661030e5760405162461bcd60e51b81526004016101dc906113e5565b610316610a2d565b6001600160a01b0316856001600160a01b0316148061033c575061033c85610189610a2d565b6103585760405162461bcd60e51b81526004016101dc9061142a565b6000610362610a2d565b90506103728187878787876104de565b60005b845181101561047857600085828151811061038c57fe5b6020026020010151905060008583815181106103a457fe5b60200260200101519050610411816040518060600160405280602a81526020016116c3602a91396002600086815260200190815260200160002060008d6001600160a01b03166001600160a01b0316815260200190815260200160002054610a319092919063ffffffff16565b60008381526002602090815260408083206001600160a01b038e811685529252808320939093558a168152205461044890826109fb565b60009283526002602090815260408085206001600160a01b038c1686529091529092209190915550600101610375565b50846001600160a01b0316866001600160a01b0316826001600160a01b03167f4a39dc06d4c0dbc64b70af90fd698a233a518aa5d07e595d983b8c0526c8f7fb87876040516104c892919061119b565b60405180910390a46104de818787878787610a5d565b505050505050565b606081518351146105095760405162461bcd60e51b81526004016101dc906114fa565b6060835167ffffffffffffffff8111801561052357600080fd5b5060405190808252806020026020018201604052801561054d578160200160208202803683370190505b50905060005b845181101561061e5760006001600160a01b031685828151811061057357fe5b60200260200101516001600160a01b031614156105a25760405162461bcd60e51b81526004016101dc906112ce565b600260008583815181106105b257fe5b6020026020010151815260200190815260200160002060008683815181106105d657fe5b60200260200101516001600160a01b03166001600160a01b031681526020019081526020016000205482828151811061060b57fe5b6020908102919091010152600101610553565b509392505050565b61062e610a2d565b6000546001600160a01b0390811691161461065b5760405162461bcd60e51b81526004016101dc9061147c565b600080546040516001600160a01b03909116907f8be0079c531659141344cd1fd0a4f28419497f9722a3daafe3b4186f6b6457e0908390a3600080546001600160a01b0319169055565b6000546001600160a01b03165b90565b816001600160a01b03166106c7610a2d565b6001600160a01b031614156106ee5760405162461bcd60e51b81526004016101dc906114b1565b80600360006106fb610a2d565b6001600160a01b03908116825260208083019390935260409182016000908120918716808252919093529120805460ff19169215159290921790915561073f610a2d565b6001600160a01b03167f17307eab39ab6107e8899845ad3d59bd9653f200f220920489ca2b5937696c318360405161077791906111c9565b60405180910390a35050565b6001600160a01b03918216600090815260036020908152604080832093909416825291909152205460ff1690565b6001600160a01b0384166107d75760405162461bcd60e51b81526004016101dc906113e5565b6107df610a2d565b6001600160a01b0316856001600160a01b03161480610805575061080585610189610a2d565b6108215760405162461bcd60e51b81526004016101dc9061139c565b600061082b610a2d565b905061084b81878761083c88610b74565b61084588610b74565b876104de565b610892836040518060600160405280602a81526020016116c3602a913960008781526002602090815260408083206001600160a01b038d1684529091529020549190610a31565b60008581526002602090815260408083206001600160a01b038b811685529252808320939093558716815220546108c990846109fb565b60008581526002602090815260408083206001600160a01b03808b168086529190935292819020939093559151909188811691908416907fc3d58168c5ae7397731d063d5bbf3d657854427343f4c083240f7aacaa2d0f629061092f9089908990611594565b60405180910390a46104de818787878787610bb8565b61094d610a2d565b6000546001600160a01b0390811691161461097a5760405162461bcd60e51b81526004016101dc9061147c565b6001600160a01b0381166109a05760405162461bcd60e51b81526004016101dc9061131f565b600080546040516001600160a01b03808516939216917f8be0079c531659141344cd1fd0a4f28419497f9722a3daafe3b4186f6b6457e091a3600080546001600160a01b0319166001600160a01b0392909216919091179055565b600082820183811015610a205760405162461bcd60e51b81526004016101dc90611365565b9392505050565b3b151590565b3390565b60008184841115610a555760405162461bcd60e51b81526004016101dc91906111d4565b505050900390565b610a6f846001600160a01b0316610a27565b156104de5760405163bc197c8160e01b81526001600160a01b0385169063bc197c8190610aa890899089908890889088906004016110e5565b602060405180830381600087803b158015610ac257600080fd5b505af1925050508015610af2575060408051601f3d908101601f19168201909252610aef91810190611018565b60015b610b3b57610afe6115ef565b80610b095750610b23565b8060405162461bcd60e51b81526004016101dc91906111d4565b60405162461bcd60e51b81526004016101dc906111e7565b6001600160e01b0319811663bc197c8160e01b14610b6b5760405162461bcd60e51b81526004016101dc9061123b565b50505050505050565b604080516001808252818301909252606091829190602080830190803683370190505090508281600081518110610ba757fe5b602090810291909101015292915050565b610bca846001600160a01b0316610a27565b156104de5760405163f23a6e6160e01b81526001600160a01b0385169063f23a6e6190610c039089908990889088908890600401611143565b602060405180830381600087803b158015610c1d57600080fd5b505af1925050508015610c4d575060408051601f3d908101601f19168201909252610c4a91810190611018565b60015b610c5957610afe6115ef565b6001600160e01b0319811663f23a6e6160e01b14610b6b5760405162461bcd60e51b81526004016101dc9061123b565b80356001600160a01b038116811461020a57600080fd5b600082601f830112610cb0578081fd5b8135610cc3610cbe826115c9565b6115a2565b818152915060208083019084810181840286018201871015610ce457600080fd5b60005b84811015610d0357813584529282019290820190600101610ce7565b505050505092915050565b600082601f830112610d1e578081fd5b813567ffffffffffffffff811115610d34578182fd5b610d47601f8201601f19166020016115a2565b9150808252836020828501011115610d5e57600080fd5b8060208401602084013760009082016020015292915050565b600060208284031215610d88578081fd5b610a208383610c89565b60008060408385031215610da4578081fd5b610dae8484610c89565b9150610dbd8460208501610c89565b90509250929050565b600080600080600060a08688031215610ddd578081fd5b8535610de881611694565b94506020860135610df881611694565b9350604086013567ffffffffffffffff80821115610e14578283fd5b610e2089838a01610ca0565b94506060880135915080821115610e35578283fd5b610e4189838a01610ca0565b93506080880135915080821115610e56578283fd5b50610e6388828901610d0e565b9150509295509295909350565b600080600080600060a08688031215610e87578081fd5b610e918787610c89565b9450610ea08760208801610c89565b93506040860135925060608601359150608086013567ffffffffffffffff811115610ec9578182fd5b610e6388828901610d0e565b60008060408385031215610ee7578182fd5b610ef18484610c89565b915060208301358015158114610f05578182fd5b809150509250929050565b60008060408385031215610f22578182fd5b610f2c8484610c89565b946020939093013593505050565b60008060408385031215610f4c578182fd5b823567ffffffffffffffff80821115610f63578384fd5b818501915085601f830112610f76578384fd5b8135610f84610cbe826115c9565b80828252602080830192508086018a828387028901011115610fa4578889fd5b8896505b84871015610fce57610fba8b82610c89565b845260019690960195928101928101610fa8565b509096508701359350505080821115610fe5578283fd5b50610ff285828601610ca0565b9150509250929050565b60006020828403121561100d578081fd5b8135610a20816116ac565b600060208284031215611029578081fd5b8151610a20816116ac565b600060208284031215611045578081fd5b5035919050565b6000815180845260208085019450808401835b8381101561107b5781518752958201959082019060010161105f565b509495945050505050565b60008151808452815b818110156110ab5760208185018101518683018201520161108f565b818111156110bc5782602083870101525b50601f01601f19169290920160200192915050565b6001600160a01b0391909116815260200190565b6001600160a01b0386811682528516602082015260a0604082018190526000906111119083018661104c565b8281036060840152611123818661104c565b905082810360808401526111378185611086565b98975050505050505050565b6001600160a01b03868116825285166020820152604081018490526060810183905260a06080820181905260009061117d90830184611086565b979650505050505050565b600060208252610a20602083018461104c565b6000604082526111ae604083018561104c565b82810360208401526111c0818561104c565b95945050505050565b901515815260200190565b600060208252610a206020830184611086565b60208082526034908201527f455243313135353a207472616e7366657220746f206e6f6e20455243313135356040820152732932b1b2b4bb32b91034b6b83632b6b2b73a32b960611b606082015260800190565b60208082526028908201527f455243313135353a204552433131353552656365697665722072656a656374656040820152676420746f6b656e7360c01b606082015260800190565b6020808252602b908201527f455243313135353a2062616c616e636520717565727920666f7220746865207a60408201526a65726f206164647265737360a81b606082015260800190565b60208082526031908201527f455243313135353a2062617463682062616c616e636520717565727920666f7260408201527020746865207a65726f206164647265737360781b606082015260800190565b60208082526026908201527f4f776e61626c653a206e6577206f776e657220697320746865207a65726f206160408201526564647265737360d01b606082015260800190565b6020808252601b908201527f536166654d6174683a206164646974696f6e206f766572666c6f770000000000604082015260600190565b60208082526029908201527f455243313135353a2063616c6c6572206973206e6f74206f776e6572206e6f7260408201526808185c1c1c9bdd995960ba1b606082015260800190565b60208082526025908201527f455243313135353a207472616e7366657220746f20746865207a65726f206164604082015264647265737360d81b606082015260800190565b60208082526032908201527f455243313135353a207472616e736665722063616c6c6572206973206e6f74206040820152711bdddb995c881b9bdc88185c1c1c9bdd995960721b606082015260800190565b6020808252818101527f4f776e61626c653a2063616c6c6572206973206e6f7420746865206f776e6572604082015260600190565b60208082526029908201527f455243313135353a2073657474696e6720617070726f76616c20737461747573604082015268103337b91039b2b63360b91b606082015260800190565b60208082526029908201527f455243313135353a206163636f756e747320616e6420696473206c656e677468604082015268040dad2e6dac2e8c6d60bb1b606082015260800190565b60208082526028908201527f455243313135353a2069647320616e6420616d6f756e7473206c656e677468206040820152670dad2e6dac2e8c6d60c31b606082015260800190565b90815260200190565b918252602082015260400190565b60405181810167ffffffffffffffff811182821017156115c157600080fd5b604052919050565b600067ffffffffffffffff8211156115df578081fd5b5060209081020190565b60e01c90565b600060443d10156115ff576106b2565b600481823e6308c379a061161382516115e9565b1461161d576106b2565b6040513d600319016004823e80513d67ffffffffffffffff816024840111818411171561164d57505050506106b2565b8284019250825191508082111561166757505050506106b2565b503d8301602082840101111561167f575050506106b2565b601f01601f1916810160200160405291505090565b6001600160a01b03811681146116a957600080fd5b50565b6001600160e01b0319811681146116a957600080fdfe455243313135353a20696e73756666696369656e742062616c616e636520666f72207472616e73666572a2646970667358221220db0a20628ef85400659796b4a0e3296625dbc3168e8f7132cde48422364a475d64736f6c634300060c003368747470733a2f2f67616d652e6578616d706c652f6170692f6974656d2f7b317d2e6a736f6e",
  "immutableReferences": {},
  "source": "pragma solidity 0.6.12;\npragma experimental ABIEncoderV2;\n\nimport {ShipsAndTechnology} from '../ShipsAndTechnology.sol';\n\n/* solium-disable-next-line */\ncontract TestShipsAndTechnology is ShipsAndTechnology {\n    constructor(address eternalStorage, address holder)\n        public\n        ShipsAndTechnology(eternalStorage, holder)\n    {}\n}\n",
  "sourcePath": "C:/Users/James/projects/tsuno-fe/contracts/testing/TestShipsAndTechnology.sol",
  "compiler": {
    "name": "solc",
    "version": "0.6.12+commit.27d51765.Emscripten.clang"
  },
  "schemaVersion": "3.2.5",
  "updatedAt": "2020-10-09T10:38:50.333Z",
  "networkType": "ethereum",
  "devdoc": {
    "kind": "dev",
    "methods": {
      "balanceOf(address,uint256)": {
        "details": "See {IERC1155-balanceOf}. Requirements: - `account` cannot be the zero address."
      },
      "balanceOfBatch(address[],uint256[])": {
        "details": "See {IERC1155-balanceOfBatch}. Requirements: - `accounts` and `ids` must have the same length."
      },
      "isApprovedForAll(address,address)": {
        "details": "See {IERC1155-isApprovedForAll}."
      },
      "owner()": {
        "details": "Returns the address of the current owner."
      },
      "renounceOwnership()": {
        "details": "Leaves the contract without owner. It will not be possible to call `onlyOwner` functions anymore. Can only be called by the current owner. NOTE: Renouncing ownership will leave the contract without an owner, thereby removing any functionality that is only available to the owner."
      },
      "safeBatchTransferFrom(address,address,uint256[],uint256[],bytes)": {
        "details": "See {IERC1155-safeBatchTransferFrom}."
      },
      "safeTransferFrom(address,address,uint256,uint256,bytes)": {
        "details": "See {IERC1155-safeTransferFrom}."
      },
      "setApprovalForAll(address,bool)": {
        "details": "See {IERC1155-setApprovalForAll}."
      },
      "supportsInterface(bytes4)": {
        "details": "See {IERC165-supportsInterface}. Time complexity O(1), guaranteed to always use less than 30 000 gas."
      },
      "transferOwnership(address)": {
        "details": "Transfers ownership of the contract to a new account (`newOwner`). Can only be called by the current owner."
      },
      "uri(uint256)": {
        "details": "See {IERC1155MetadataURI-uri}. This implementation returns the same URI for *all* token types. It relies on the token type ID substitution mechanism https://eips.ethereum.org/EIPS/eip-1155#metadata[defined in the EIP]. Clients calling this function must replace the `\\{id\\}` substring with the actual token type ID."
      }
    },
    "version": 1
  },
  "userdoc": {
    "kind": "user",
    "methods": {},
    "version": 1
  }
}