{
  "contractName": "TestSolar",
  "abi": [
    {
      "anonymous": false,
      "inputs": [
        {
          "indexed": true,
          "internalType": "address",
          "name": "owner",
          "type": "address"
        },
        {
          "indexed": true,
          "internalType": "address",
          "name": "approved",
          "type": "address"
        },
        {
          "indexed": true,
          "internalType": "uint256",
          "name": "tokenId",
          "type": "uint256"
        }
      ],
      "name": "Approval",
      "type": "event"
    },
    {
      "anonymous": false,
      "inputs": [
        {
          "indexed": true,
          "internalType": "address",
          "name": "owner",
          "type": "address"
        },
        {
          "indexed": true,
          "internalType": "address",
          "name": "operator",
          "type": "address"
        },
        {
          "indexed": false,
          "internalType": "bool",
          "name": "approved",
          "type": "bool"
        }
      ],
      "name": "ApprovalForAll",
      "type": "event"
    },
    {
      "anonymous": false,
      "inputs": [
        {
          "indexed": true,
          "internalType": "address",
          "name": "previousOwner",
          "type": "address"
        },
        {
          "indexed": true,
          "internalType": "address",
          "name": "newOwner",
          "type": "address"
        }
      ],
      "name": "OwnershipTransferred",
      "type": "event"
    },
    {
      "anonymous": false,
      "inputs": [
        {
          "indexed": true,
          "internalType": "address",
          "name": "from",
          "type": "address"
        },
        {
          "indexed": true,
          "internalType": "address",
          "name": "to",
          "type": "address"
        },
        {
          "indexed": true,
          "internalType": "uint256",
          "name": "tokenId",
          "type": "uint256"
        }
      ],
      "name": "Transfer",
      "type": "event"
    },
    {
      "inputs": [
        {
          "internalType": "address",
          "name": "to",
          "type": "address"
        },
        {
          "internalType": "uint256",
          "name": "tokenId",
          "type": "uint256"
        }
      ],
      "name": "approve",
      "outputs": [],
      "stateMutability": "nonpayable",
      "type": "function"
    },
    {
      "inputs": [
        {
          "internalType": "address",
          "name": "owner",
          "type": "address"
        }
      ],
      "name": "balanceOf",
      "outputs": [
        {
          "internalType": "uint256",
          "name": "",
          "type": "uint256"
        }
      ],
      "stateMutability": "view",
      "type": "function",
      "constant": true
    },
    {
      "inputs": [],
      "name": "baseURI",
      "outputs": [
        {
          "internalType": "string",
          "name": "",
          "type": "string"
        }
      ],
      "stateMutability": "view",
      "type": "function",
      "constant": true
    },
    {
      "inputs": [
        {
          "internalType": "uint256",
          "name": "tokenId",
          "type": "uint256"
        }
      ],
      "name": "getApproved",
      "outputs": [
        {
          "internalType": "address",
          "name": "",
          "type": "address"
        }
      ],
      "stateMutability": "view",
      "type": "function",
      "constant": true
    },
    {
      "inputs": [
        {
          "internalType": "address",
          "name": "owner",
          "type": "address"
        },
        {
          "internalType": "address",
          "name": "operator",
          "type": "address"
        }
      ],
      "name": "isApprovedForAll",
      "outputs": [
        {
          "internalType": "bool",
          "name": "",
          "type": "bool"
        }
      ],
      "stateMutability": "view",
      "type": "function",
      "constant": true
    },
    {
      "inputs": [
        {
          "internalType": "address",
          "name": "_to",
          "type": "address"
        },
        {
          "internalType": "uint256",
          "name": "_tokenId",
          "type": "uint256"
        }
      ],
      "name": "mint",
      "outputs": [],
      "stateMutability": "nonpayable",
      "type": "function"
    },
    {
      "inputs": [],
      "name": "name",
      "outputs": [
        {
          "internalType": "string",
          "name": "",
          "type": "string"
        }
      ],
      "stateMutability": "view",
      "type": "function",
      "constant": true
    },
    {
      "inputs": [],
      "name": "owner",
      "outputs": [
        {
          "internalType": "address",
          "name": "",
          "type": "address"
        }
      ],
      "stateMutability": "view",
      "type": "function",
      "constant": true
    },
    {
      "inputs": [
        {
          "internalType": "uint256",
          "name": "tokenId",
          "type": "uint256"
        }
      ],
      "name": "ownerOf",
      "outputs": [
        {
          "internalType": "address",
          "name": "",
          "type": "address"
        }
      ],
      "stateMutability": "view",
      "type": "function",
      "constant": true
    },
    {
      "inputs": [],
      "name": "renounceOwnership",
      "outputs": [],
      "stateMutability": "nonpayable",
      "type": "function"
    },
    {
      "inputs": [
        {
          "internalType": "address",
          "name": "from",
          "type": "address"
        },
        {
          "internalType": "address",
          "name": "to",
          "type": "address"
        },
        {
          "internalType": "uint256",
          "name": "tokenId",
          "type": "uint256"
        }
      ],
      "name": "safeTransferFrom",
      "outputs": [],
      "stateMutability": "nonpayable",
      "type": "function"
    },
    {
      "inputs": [
        {
          "internalType": "address",
          "name": "from",
          "type": "address"
        },
        {
          "internalType": "address",
          "name": "to",
          "type": "address"
        },
        {
          "internalType": "uint256",
          "name": "tokenId",
          "type": "uint256"
        },
        {
          "internalType": "bytes",
          "name": "_data",
          "type": "bytes"
        }
      ],
      "name": "safeTransferFrom",
      "outputs": [],
      "stateMutability": "nonpayable",
      "type": "function"
    },
    {
      "inputs": [
        {
          "internalType": "address",
          "name": "operator",
          "type": "address"
        },
        {
          "internalType": "bool",
          "name": "approved",
          "type": "bool"
        }
      ],
      "name": "setApprovalForAll",
      "outputs": [],
      "stateMutability": "nonpayable",
      "type": "function"
    },
    {
      "inputs": [
        {
          "internalType": "address",
          "name": "_operator",
          "type": "address"
        }
      ],
      "name": "setOperator",
      "outputs": [],
      "stateMutability": "nonpayable",
      "type": "function"
    },
    {
      "inputs": [
        {
          "internalType": "bytes4",
          "name": "interfaceId",
          "type": "bytes4"
        }
      ],
      "name": "supportsInterface",
      "outputs": [
        {
          "internalType": "bool",
          "name": "",
          "type": "bool"
        }
      ],
      "stateMutability": "view",
      "type": "function",
      "constant": true
    },
    {
      "inputs": [],
      "name": "symbol",
      "outputs": [
        {
          "internalType": "string",
          "name": "",
          "type": "string"
        }
      ],
      "stateMutability": "view",
      "type": "function",
      "constant": true
    },
    {
      "inputs": [
        {
          "internalType": "uint256",
          "name": "index",
          "type": "uint256"
        }
      ],
      "name": "tokenByIndex",
      "outputs": [
        {
          "internalType": "uint256",
          "name": "",
          "type": "uint256"
        }
      ],
      "stateMutability": "view",
      "type": "function",
      "constant": true
    },
    {
      "inputs": [
        {
          "internalType": "address",
          "name": "owner",
          "type": "address"
        },
        {
          "internalType": "uint256",
          "name": "index",
          "type": "uint256"
        }
      ],
      "name": "tokenOfOwnerByIndex",
      "outputs": [
        {
          "internalType": "uint256",
          "name": "",
          "type": "uint256"
        }
      ],
      "stateMutability": "view",
      "type": "function",
      "constant": true
    },
    {
      "inputs": [
        {
          "internalType": "uint256",
          "name": "tokenId",
          "type": "uint256"
        }
      ],
      "name": "tokenURI",
      "outputs": [
        {
          "internalType": "string",
          "name": "",
          "type": "string"
        }
      ],
      "stateMutability": "view",
      "type": "function",
      "constant": true
    },
    {
      "inputs": [],
      "name": "totalSupply",
      "outputs": [
        {
          "internalType": "uint256",
          "name": "",
          "type": "uint256"
        }
      ],
      "stateMutability": "view",
      "type": "function",
      "constant": true
    },
    {
      "inputs": [
        {
          "internalType": "address",
          "name": "from",
          "type": "address"
        },
        {
          "internalType": "address",
          "name": "to",
          "type": "address"
        },
        {
          "internalType": "uint256",
          "name": "tokenId",
          "type": "uint256"
        }
      ],
      "name": "transferFrom",
      "outputs": [],
      "stateMutability": "nonpayable",
      "type": "function"
    },
    {
      "inputs": [
        {
          "internalType": "address",
          "name": "newOwner",
          "type": "address"
        }
      ],
      "name": "transferOwnership",
      "outputs": [],
      "stateMutability": "nonpayable",
      "type": "function"
    },
    {
      "inputs": [
        {
          "internalType": "address",
          "name": "_to",
          "type": "address"
        },
        {
          "internalType": "uint256",
          "name": "_amount",
          "type": "uint256"
        }
      ],
      "name": "testMint",
      "outputs": [],
      "stateMutability": "nonpayable",
      "type": "function"
    }
  ],
  "bytecode": "0x60806040523480156200001157600080fd5b50604080518082018252600a81526929b7b630b92a37b5b2b760b11b6020808301919091528251808401909352600583526429a7a620a960d91b9083015290620000626301ffc9a760e01b62000127565b81516200007790600690602085019062000186565b5080516200008d90600790602084019062000186565b50620000a06380ac58cd60e01b62000127565b620000b2635b5e139f60e01b62000127565b620000c463780e9d6360e01b62000127565b5060009050620000d362000182565b600a80546001600160a01b0319166001600160a01b038316908117909155604051919250906000907f8be0079c531659141344cd1fd0a4f28419497f9722a3daafe3b4186f6b6457e0908290a35062000259565b6001600160e01b031980821614156200015d5760405162461bcd60e51b8152600401620001549062000222565b60405180910390fd5b6001600160e01b0319166000908152602081905260409020805460ff19166001179055565b3390565b828054600181600116156101000203166002900490600052602060002090601f016020900481019282601f10620001c957805160ff1916838001178555620001f9565b82800160010185558215620001f9579182015b82811115620001f9578251825591602001919060010190620001dc565b50620002079291506200020b565b5090565b5b808211156200020757600081556001016200020c565b6020808252601c908201527f4552433136353a20696e76616c696420696e7465726661636520696400000000604082015260600190565b611d1980620002696000396000f3fe608060405234801561001057600080fd5b506004361061014d5760003560e01c80636c0360eb116100c3578063b3ab15fb1161007c578063b3ab15fb14610292578063b88d4fde146102a5578063c87b56dd146102b8578063e985e9c5146102cb578063f28e093d146102de578063f2fde38b146102f15761014d565b80636c0360eb1461024c57806370a0823114610254578063715018a6146102675780638da5cb5b1461026f57806395d89b4114610277578063a22cb4651461027f5761014d565b806323b872dd1161011557806323b872dd146101da5780632f745c59146101ed57806340c10f191461020057806342842e0e146102135780634f6ccce7146102265780636352211e146102395761014d565b806301ffc9a71461015257806306fdde031461017b578063081812fc14610190578063095ea7b3146101b057806318160ddd146101c5575b600080fd5b6101656101603660046115c5565b610304565b604051610172919061172f565b60405180910390f35b610183610327565b604051610172919061173a565b6101a361019e3660046115fd565b6103bd565b60405161017291906116de565b6101c36101be36600461159b565b610409565b005b6101cd6104a1565b6040516101729190611c25565b6101c36101e836600461145a565b6104b2565b6101cd6101fb36600461159b565b6104ea565b6101c361020e36600461159b565b610515565b6101c361022136600461145a565b61053a565b6101cd6102343660046115fd565b610555565b6101a36102473660046115fd565b61056b565b610183610593565b6101cd61026236600461140b565b6105f4565b6101c361063d565b6101a36106bc565b6101836106cb565b6101c361028d366004611560565b61072c565b6101c36102a036600461140b565b6107fa565b6101c36102b336600461149a565b610851565b6101836102c63660046115fd565b610890565b6101656102d9366004611426565b6109da565b6101c36102ec36600461159b565b610a08565b6101c36102ff36600461140b565b610a12565b6001600160e01b0319811660009081526020819052604090205460ff165b919050565b60068054604080516020601f60026000196101006001881615020190951694909404938401819004810282018101909252828152606093909290918301828280156103b35780601f10610388576101008083540402835291602001916103b3565b820191906000526020600020905b81548152906001019060200180831161039657829003601f168201915b5050505050905090565b60006103c882610ac9565b6103ed5760405162461bcd60e51b81526004016103e490611a43565b60405180910390fd5b506000908152600460205260409020546001600160a01b031690565b60006104148261056b565b9050806001600160a01b0316836001600160a01b031614156104485760405162461bcd60e51b81526004016103e490611b5c565b806001600160a01b031661045a610ad6565b6001600160a01b031614806104765750610476816102d9610ad6565b6104925760405162461bcd60e51b81526004016103e490611925565b61049c8383610ada565b505050565b60006104ad6002610b48565b905090565b6104c36104bd610ad6565b82610b53565b6104df5760405162461bcd60e51b81526004016103e490611b9d565b61049c838383610bd8565b6001600160a01b038216600090815260016020526040812061050c9083610ce6565b90505b92915050565b600b546001600160a01b0316331461052c57600080fd5b6105368282610cf2565b5050565b61049c83838360405180602001604052806000815250610851565b600080610563600284610d0c565b509392505050565b600061050f82604051806060016040528060298152602001611cbb6029913960029190610d28565b60098054604080516020601f60026000196101006001881615020190951694909404938401819004810282018101909252828152606093909290918301828280156103b35780601f10610388576101008083540402835291602001916103b3565b60006001600160a01b03821661061c5760405162461bcd60e51b81526004016103e490611982565b6001600160a01b038216600090815260016020526040902061050f90610b48565b610645610ad6565b600a546001600160a01b039081169116146106725760405162461bcd60e51b81526004016103e490611a8f565b600a546040516000916001600160a01b0316907f8be0079c531659141344cd1fd0a4f28419497f9722a3daafe3b4186f6b6457e0908390a3600a80546001600160a01b0319169055565b600a546001600160a01b031690565b60078054604080516020601f60026000196101006001881615020190951694909404938401819004810282018101909252828152606093909290918301828280156103b35780601f10610388576101008083540402835291602001916103b3565b610734610ad6565b6001600160a01b0316826001600160a01b031614156107655760405162461bcd60e51b81526004016103e4906118a2565b8060056000610772610ad6565b6001600160a01b03908116825260208083019390935260409182016000908120918716808252919093529120805460ff1916921515929092179091556107b6610ad6565b6001600160a01b03167f17307eab39ab6107e8899845ad3d59bd9653f200f220920489ca2b5937696c31836040516107ee919061172f565b60405180910390a35050565b610802610ad6565b600a546001600160a01b0390811691161461082f5760405162461bcd60e51b81526004016103e490611a8f565b600b80546001600160a01b0319166001600160a01b0392909216919091179055565b61086261085c610ad6565b83610b53565b61087e5760405162461bcd60e51b81526004016103e490611b9d565b61088a84848484610d3f565b50505050565b606061089b82610ac9565b6108b75760405162461bcd60e51b81526004016103e490611b0d565b60008281526008602090815260409182902080548351601f600260001961010060018616150201909316929092049182018490048402810184019094528084526060939283018282801561094c5780601f106109215761010080835404028352916020019161094c565b820191906000526020600020905b81548152906001019060200180831161092f57829003601f168201915b505060095493945050505060026000196101006001841615020190911604610975579050610322565b8051156109a75760098160405160200161099092919061165d565b604051602081830303815290604052915050610322565b60096109b284610d72565b6040516020016109c392919061165d565b604051602081830303815290604052915050919050565b6001600160a01b03918216600090815260056020908152604080832093909416825291909152205460ff1690565b6105368282610e4d565b610a1a610ad6565b600a546001600160a01b03908116911614610a475760405162461bcd60e51b81526004016103e490611a8f565b6001600160a01b038116610a6d5760405162461bcd60e51b81526004016103e4906117e1565b600a546040516001600160a01b038084169216907f8be0079c531659141344cd1fd0a4f28419497f9722a3daafe3b4186f6b6457e090600090a3600a80546001600160a01b0319166001600160a01b0392909216919091179055565b600061050f600283610f11565b3390565b600081815260046020526040902080546001600160a01b0319166001600160a01b0384169081179091558190610b0f8261056b565b6001600160a01b03167f8c5be1e5ebec7d5bd14f71427d1e84f3dd0314c0f7b2291e5b200ac8c7c3b92560405160405180910390a45050565b600061050f82610f1d565b6000610b5e82610ac9565b610b7a5760405162461bcd60e51b81526004016103e4906118d9565b6000610b858361056b565b9050806001600160a01b0316846001600160a01b03161480610bc05750836001600160a01b0316610bb5846103bd565b6001600160a01b0316145b80610bd05750610bd081856109da565b949350505050565b826001600160a01b0316610beb8261056b565b6001600160a01b031614610c115760405162461bcd60e51b81526004016103e490611ac4565b6001600160a01b038216610c375760405162461bcd60e51b81526004016103e49061185e565b610c4283838361049c565b610c4d600082610ada565b6001600160a01b0383166000908152600160205260409020610c6f9082610f21565b506001600160a01b0382166000908152600160205260409020610c929082610f2d565b50610c9f60028284610f39565b5080826001600160a01b0316846001600160a01b03167fddf252ad1be2c89b69c2b068fc378daa952ba7f163c4a11628f55a4df523b3ef60405160405180910390a4505050565b600061050c8383610f4f565b610536828260405180602001604052806000815250610f94565b6000808080610d1b8686610fc7565b9097909650945050505050565b6000610d35848484611023565b90505b9392505050565b610d4a848484610bd8565b610d5684848484611082565b61088a5760405162461bcd60e51b81526004016103e49061178f565b606081610d9757506040805180820190915260018152600360fc1b6020820152610322565b8160005b8115610daf57600101600a82049150610d9b565b60608167ffffffffffffffff81118015610dc857600080fd5b506040519080825280601f01601f191660200182016040528015610df3576020820181803683370190505b50859350905060001982015b8315610e4457600a840660300160f81b82828060019003935081518110610e2257fe5b60200101906001600160f81b031916908160001a905350600a84049350610dff565b50949350505050565b6001600160a01b038216610e735760405162461bcd60e51b81526004016103e490611a0e565b610e7c81610ac9565b15610e995760405162461bcd60e51b81526004016103e490611827565b610ea56000838361049c565b6001600160a01b0382166000908152600160205260409020610ec79082610f2d565b50610ed460028284610f39565b5060405181906001600160a01b038416906000907fddf252ad1be2c89b69c2b068fc378daa952ba7f163c4a11628f55a4df523b3ef908290a45050565b600061050c8383611161565b5490565b600061050c8383611179565b600061050c838361123f565b6000610d3584846001600160a01b038516611289565b81546000908210610f725760405162461bcd60e51b81526004016103e49061174d565b826000018281548110610f8157fe5b9060005260206000200154905092915050565b610f9e8383610e4d565b610fab6000848484611082565b61049c5760405162461bcd60e51b81526004016103e49061178f565b815460009081908310610fec5760405162461bcd60e51b81526004016103e4906119cc565b6000846000018481548110610ffd57fe5b906000526020600020906002020190508060000154816001015492509250509250929050565b600082815260018401602052604081205482816110535760405162461bcd60e51b81526004016103e4919061173a565b5084600001600182038154811061106657fe5b9060005260206000209060020201600101549150509392505050565b6000611096846001600160a01b0316611320565b6110a257506001610bd0565b606061112a630a85bd0160e11b6110b7610ad6565b8887876040516024016110cd94939291906116f2565b604051602081830303815290604052906001600160e01b0319166020820180516001600160e01b038381831617835250505050604051806060016040528060328152602001611c89603291396001600160a01b0388169190611326565b905060008180602001905181019061114291906115e1565b6001600160e01b031916630a85bd0160e11b1492505050949350505050565b60009081526001919091016020526040902054151590565b6000818152600183016020526040812054801561123557835460001980830191908101906000908790839081106111ac57fe5b90600052602060002001549050808760000184815481106111c957fe5b6000918252602080832090910192909255828152600189810190925260409020908401905586548790806111f957fe5b6001900381819060005260206000200160009055905586600101600087815260200190815260200160002060009055600194505050505061050f565b600091505061050f565b600061124b8383611161565b6112815750815460018181018455600084815260208082209093018490558454848252828601909352604090209190915561050f565b50600061050f565b6000828152600184016020526040812054806112ee575050604080518082018252838152602080820184815286546001818101895560008981528481209551600290930290950191825591519082015586548684528188019092529290912055610d38565b8285600001600183038154811061130157fe5b9060005260206000209060020201600101819055506000915050610d38565b3b151590565b6060610d358484600085606061133b85611320565b6113575760405162461bcd60e51b81526004016103e490611bee565b60006060866001600160a01b031685876040516113749190611641565b60006040518083038185875af1925050503d80600081146113b1576040519150601f19603f3d011682016040523d82523d6000602084013e6113b6565b606091505b509150915081156113ca579150610bd09050565b8051156113da5780518082602001fd5b8360405162461bcd60e51b81526004016103e4919061173a565b80356001600160a01b038116811461050f57600080fd5b60006020828403121561141c578081fd5b61050c83836113f4565b60008060408385031215611438578081fd5b61144284846113f4565b915061145184602085016113f4565b90509250929050565b60008060006060848603121561146e578081fd5b833561147981611c5a565b9250602084013561148981611c5a565b929592945050506040919091013590565b600080600080608085870312156114af578081fd5b6114b986866113f4565b935060206114c9878288016113f4565b935060408601359250606086013567ffffffffffffffff808211156114ec578384fd5b818801915088601f8301126114ff578384fd5b81358181111561150d578485fd5b604051601f8201601f191681018501838111828210171561152c578687fd5b60405281815283820185018b1015611542578586fd5b81858501868301379081019093019390935250939692955090935050565b60008060408385031215611572578182fd5b61157c84846113f4565b915060208301358015158114611590578182fd5b809150509250929050565b600080604083850312156115ad578182fd5b6115b784846113f4565b946020939093013593505050565b6000602082840312156115d6578081fd5b8135610d3881611c72565b6000602082840312156115f2578081fd5b8151610d3881611c72565b60006020828403121561160e578081fd5b5035919050565b6000815180845261162d816020860160208601611c2e565b601f01601f19169290920160200192915050565b60008251611653818460208701611c2e565b9190910192915050565b600080845460018082166000811461167c5760018114611693576116c2565b60ff198316865260028304607f16860193506116c2565b600283048886526020808720875b838110156116ba5781548a8201529085019082016116a1565b505050860193505b50505083516116d5818360208801611c2e565b01949350505050565b6001600160a01b0391909116815260200190565b6001600160a01b038581168252841660208201526040810183905260806060820181905260009061172590830184611615565b9695505050505050565b901515815260200190565b60006020825261050c6020830184611615565b60208082526022908201527f456e756d657261626c655365743a20696e646578206f7574206f6620626f756e604082015261647360f01b606082015260800190565b60208082526032908201527f4552433732313a207472616e7366657220746f206e6f6e20455243373231526560408201527131b2b4bb32b91034b6b83632b6b2b73a32b960711b606082015260800190565b60208082526026908201527f4f776e61626c653a206e6577206f776e657220697320746865207a65726f206160408201526564647265737360d01b606082015260800190565b6020808252601c908201527f4552433732313a20746f6b656e20616c7265616479206d696e74656400000000604082015260600190565b60208082526024908201527f4552433732313a207472616e7366657220746f20746865207a65726f206164646040820152637265737360e01b606082015260800190565b60208082526019908201527f4552433732313a20617070726f766520746f2063616c6c657200000000000000604082015260600190565b6020808252602c908201527f4552433732313a206f70657261746f7220717565727920666f72206e6f6e657860408201526b34b9ba32b73a103a37b5b2b760a11b606082015260800190565b60208082526038908201527f4552433732313a20617070726f76652063616c6c6572206973206e6f74206f7760408201527f6e6572206e6f7220617070726f76656420666f7220616c6c0000000000000000606082015260800190565b6020808252602a908201527f4552433732313a2062616c616e636520717565727920666f7220746865207a65604082015269726f206164647265737360b01b606082015260800190565b60208082526022908201527f456e756d657261626c654d61703a20696e646578206f7574206f6620626f756e604082015261647360f01b606082015260800190565b6020808252818101527f4552433732313a206d696e7420746f20746865207a65726f2061646472657373604082015260600190565b6020808252602c908201527f4552433732313a20617070726f76656420717565727920666f72206e6f6e657860408201526b34b9ba32b73a103a37b5b2b760a11b606082015260800190565b6020808252818101527f4f776e61626c653a2063616c6c6572206973206e6f7420746865206f776e6572604082015260600190565b60208082526029908201527f4552433732313a207472616e73666572206f6620746f6b656e2074686174206960408201526839903737ba1037bbb760b91b606082015260800190565b6020808252602f908201527f4552433732314d657461646174613a2055524920717565727920666f72206e6f60408201526e3732bc34b9ba32b73a103a37b5b2b760891b606082015260800190565b60208082526021908201527f4552433732313a20617070726f76616c20746f2063757272656e74206f776e656040820152603960f91b606082015260800190565b60208082526031908201527f4552433732313a207472616e736665722063616c6c6572206973206e6f74206f6040820152701ddb995c881b9bdc88185c1c1c9bdd9959607a1b606082015260800190565b6020808252601d908201527f416464726573733a2063616c6c20746f206e6f6e2d636f6e7472616374000000604082015260600190565b90815260200190565b60005b83811015611c49578181015183820152602001611c31565b8381111561088a5750506000910152565b6001600160a01b0381168114611c6f57600080fd5b50565b6001600160e01b031981168114611c6f57600080fdfe4552433732313a207472616e7366657220746f206e6f6e20455243373231526563656976657220696d706c656d656e7465724552433732313a206f776e657220717565727920666f72206e6f6e6578697374656e7420746f6b656ea2646970667358221220decc3b1ff6ed47d8748b9275a3c851c4cac0d8f7ea566d8f988920fed186366364736f6c634300060c0033",
  "immutableReferences": {},
  "source": "pragma solidity 0.6.12;\npragma experimental ABIEncoderV2;\n\nimport {SolarToken} from '../protocol/SolarToken.sol';\n\n/* solium-disable-next-line */\ncontract TestSolar is SolarToken {\n    function testMint(address _to, uint256 _amount) public {\n        _mint(_to, _amount);\n    }\n}\n",
  "sourcePath": "C:/Users/James/projects/tsuno-fe/contracts/testing/TestSolar.sol",
  "compiler": {
    "name": "solc",
    "version": "0.6.12+commit.27d51765.Emscripten.clang"
  },
  "schemaVersion": "3.2.5",
  "updatedAt": "2020-09-22T13:54:32.219Z",
  "networkType": "ethereum",
  "devdoc": {
    "kind": "dev",
    "methods": {
      "approve(address,uint256)": {
        "details": "See {IERC721-approve}."
      },
      "balanceOf(address)": {
        "details": "See {IERC721-balanceOf}."
      },
      "baseURI()": {
        "details": "Returns the base URI set via {_setBaseURI}. This will be automatically added as a prefix in {tokenURI} to each token's URI, or to the token ID if no specific URI is set for that token ID."
      },
      "getApproved(uint256)": {
        "details": "See {IERC721-getApproved}."
      },
      "isApprovedForAll(address,address)": {
        "details": "See {IERC721-isApprovedForAll}."
      },
      "name()": {
        "details": "See {IERC721Metadata-name}."
      },
      "owner()": {
        "details": "Returns the address of the current owner."
      },
      "ownerOf(uint256)": {
        "details": "See {IERC721-ownerOf}."
      },
      "renounceOwnership()": {
        "details": "Leaves the contract without owner. It will not be possible to call `onlyOwner` functions anymore. Can only be called by the current owner. NOTE: Renouncing ownership will leave the contract without an owner, thereby removing any functionality that is only available to the owner."
      },
      "safeTransferFrom(address,address,uint256)": {
        "details": "See {IERC721-safeTransferFrom}."
      },
      "safeTransferFrom(address,address,uint256,bytes)": {
        "details": "See {IERC721-safeTransferFrom}."
      },
      "setApprovalForAll(address,bool)": {
        "details": "See {IERC721-setApprovalForAll}."
      },
      "supportsInterface(bytes4)": {
        "details": "See {IERC165-supportsInterface}. Time complexity O(1), guaranteed to always use less than 30 000 gas."
      },
      "symbol()": {
        "details": "See {IERC721Metadata-symbol}."
      },
      "tokenByIndex(uint256)": {
        "details": "See {IERC721Enumerable-tokenByIndex}."
      },
      "tokenOfOwnerByIndex(address,uint256)": {
        "details": "See {IERC721Enumerable-tokenOfOwnerByIndex}."
      },
      "tokenURI(uint256)": {
        "details": "See {IERC721Metadata-tokenURI}."
      },
      "totalSupply()": {
        "details": "See {IERC721Enumerable-totalSupply}."
      },
      "transferFrom(address,address,uint256)": {
        "details": "See {IERC721-transferFrom}."
      },
      "transferOwnership(address)": {
        "details": "Transfers ownership of the contract to a new account (`newOwner`). Can only be called by the current owner."
      }
    },
    "version": 1
  },
  "userdoc": {
    "kind": "user",
    "methods": {},
    "version": 1
  }
}