{
  "contractName": "TestGameOperations",
  "abi": [
    {
      "anonymous": false,
      "inputs": [
        {
          "indexed": false,
          "internalType": "address",
          "name": "attacker",
          "type": "address"
        },
        {
          "indexed": false,
          "internalType": "uint256",
          "name": "attackerOffense",
          "type": "uint256"
        },
        {
          "indexed": false,
          "internalType": "uint256",
          "name": "attackerDefense",
          "type": "uint256"
        },
        {
          "indexed": false,
          "internalType": "address",
          "name": "defender",
          "type": "address"
        },
        {
          "indexed": false,
          "internalType": "uint256",
          "name": "defenderOffense",
          "type": "uint256"
        },
        {
          "indexed": false,
          "internalType": "uint256",
          "name": "defenderDefense",
          "type": "uint256"
        }
      ],
      "name": "BattleStarted",
      "type": "event"
    },
    {
      "anonymous": false,
      "inputs": [
        {
          "indexed": false,
          "internalType": "bool",
          "name": "result",
          "type": "bool"
        },
        {
          "indexed": false,
          "internalType": "uint256",
          "name": "attackersHealth",
          "type": "uint256"
        },
        {
          "indexed": false,
          "internalType": "uint256",
          "name": "defendersHealth",
          "type": "uint256"
        }
      ],
      "name": "LogBattle",
      "type": "event"
    },
    {
      "anonymous": false,
      "inputs": [
        {
          "indexed": false,
          "internalType": "uint8",
          "name": "quadrant",
          "type": "uint8"
        },
        {
          "indexed": false,
          "internalType": "uint8",
          "name": "district",
          "type": "uint8"
        },
        {
          "indexed": false,
          "internalType": "uint8",
          "name": "sector",
          "type": "uint8"
        },
        {
          "indexed": false,
          "internalType": "uint256",
          "name": "star",
          "type": "uint256"
        }
      ],
      "name": "LogMove",
      "type": "event"
    },
    {
      "anonymous": false,
      "inputs": [
        {
          "indexed": false,
          "internalType": "address",
          "name": "proxy",
          "type": "address"
        },
        {
          "indexed": false,
          "internalType": "uint256",
          "name": "tokenId",
          "type": "uint256"
        }
      ],
      "name": "LogPlanetProxyCreated",
      "type": "event"
    },
    {
      "anonymous": false,
      "inputs": [
        {
          "indexed": false,
          "internalType": "uint256",
          "name": "aDamage",
          "type": "uint256"
        },
        {
          "indexed": false,
          "internalType": "uint256",
          "name": "dDamage",
          "type": "uint256"
        },
        {
          "indexed": false,
          "internalType": "uint256",
          "name": "aHealth",
          "type": "uint256"
        },
        {
          "indexed": false,
          "internalType": "uint256",
          "name": "dHealth",
          "type": "uint256"
        }
      ],
      "name": "LogRound",
      "type": "event"
    },
    {
      "anonymous": false,
      "inputs": [
        {
          "indexed": true,
          "internalType": "address",
          "name": "to",
          "type": "address"
        },
        {
          "indexed": false,
          "internalType": "uint8",
          "name": "systemType",
          "type": "uint8"
        }
      ],
      "name": "LogStarSystemDiscovery",
      "type": "event"
    },
    {
      "anonymous": false,
      "inputs": [
        {
          "indexed": false,
          "internalType": "uint256",
          "name": "random",
          "type": "uint256"
        }
      ],
      "name": "Random",
      "type": "event"
    },
    {
      "anonymous": false,
      "inputs": [
        {
          "indexed": false,
          "internalType": "address",
          "name": "a",
          "type": "address"
        },
        {
          "indexed": false,
          "internalType": "address",
          "name": "b",
          "type": "address"
        },
        {
          "indexed": false,
          "internalType": "address",
          "name": "c",
          "type": "address"
        },
        {
          "indexed": false,
          "internalType": "address",
          "name": "d",
          "type": "address"
        }
      ],
      "name": "TestAddress",
      "type": "event"
    },
    {
      "anonymous": false,
      "inputs": [
        {
          "indexed": false,
          "internalType": "uint256",
          "name": "a",
          "type": "uint256"
        },
        {
          "indexed": false,
          "internalType": "uint256",
          "name": "b",
          "type": "uint256"
        }
      ],
      "name": "TestUint",
      "type": "event"
    },
    {
      "inputs": [
        {
          "internalType": "address",
          "name": "defender",
          "type": "address"
        },
        {
          "internalType": "uint8",
          "name": "turns",
          "type": "uint8"
        }
      ],
      "name": "attack",
      "outputs": [],
      "stateMutability": "nonpayable",
      "type": "function"
    },
    {
      "inputs": [
        {
          "internalType": "uint256",
          "name": "tokenId",
          "type": "uint256"
        }
      ],
      "name": "deployPlanet",
      "outputs": [],
      "stateMutability": "nonpayable",
      "type": "function"
    },
    {
      "inputs": [
        {
          "internalType": "enum Types.SystemType",
          "name": "systemType",
          "type": "uint8"
        }
      ],
      "name": "getRandomYield",
      "outputs": [
        {
          "internalType": "uint16",
          "name": "rand",
          "type": "uint16"
        }
      ],
      "stateMutability": "view",
      "type": "function",
      "constant": true
    },
    {
      "inputs": [
        {
          "internalType": "address",
          "name": "_gameStorage",
          "type": "address"
        }
      ],
      "name": "initialize",
      "outputs": [],
      "stateMutability": "nonpayable",
      "type": "function"
    },
    {
      "inputs": [
        {
          "components": [
            {
              "internalType": "uint8",
              "name": "quadrant",
              "type": "uint8"
            },
            {
              "internalType": "uint8",
              "name": "sector",
              "type": "uint8"
            },
            {
              "internalType": "uint8",
              "name": "district",
              "type": "uint8"
            },
            {
              "internalType": "uint256",
              "name": "star",
              "type": "uint256"
            }
          ],
          "internalType": "struct Types.Position",
          "name": "to",
          "type": "tuple"
        }
      ],
      "name": "move",
      "outputs": [],
      "stateMutability": "nonpayable",
      "type": "function"
    },
    {
      "inputs": [
        {
          "internalType": "uint256",
          "name": "_seed",
          "type": "uint256"
        }
      ],
      "name": "setSeed",
      "outputs": [],
      "stateMutability": "nonpayable",
      "type": "function"
    },
    {
      "inputs": [
        {
          "internalType": "enum Types.SystemType",
          "name": "starSystem",
          "type": "uint8"
        }
      ],
      "name": "testAiFleetAttack",
      "outputs": [],
      "stateMutability": "nonpayable",
      "type": "function"
    },
    {
      "inputs": [
        {
          "internalType": "enum Types.SystemType",
          "name": "systemType",
          "type": "uint8"
        }
      ],
      "name": "testFhrDiscovery",
      "outputs": [],
      "stateMutability": "nonpayable",
      "type": "function"
    },
    {
      "inputs": [
        {
          "internalType": "uint256",
          "name": "rand",
          "type": "uint256"
        },
        {
          "internalType": "uint256[]",
          "name": "ships",
          "type": "uint256[]"
        },
        {
          "internalType": "uint256[]",
          "name": "amounts",
          "type": "uint256[]"
        }
      ],
      "name": "testSatDiscovery",
      "outputs": [],
      "stateMutability": "nonpayable",
      "type": "function"
    },
    {
      "inputs": [
        {
          "internalType": "address",
          "name": "master",
          "type": "address"
        },
        {
          "internalType": "uint256[]",
          "name": "ids",
          "type": "uint256[]"
        },
        {
          "internalType": "uint256[]",
          "name": "amounts",
          "type": "uint256[]"
        }
      ],
      "name": "testUpdateMasterFleet",
      "outputs": [],
      "stateMutability": "nonpayable",
      "type": "function"
    }
  ],
  "bytecode": "0x6080604052600160345534801561001557600080fd5b50613120806100256000396000f3fe608060405234801561001057600080fd5b506004361061009d5760003560e01c80638c896042116100665780638c896042146101195780638e905cfd1461012c578063c32a50f91461013f578063c4d66de814610152578063e439e863146101655761009d565b80626c2f3a146100a25780630484b441146100cb57806369145a24146100e05780636ebb6d80146100f357806383954f1614610106575b600080fd5b6100b56100b0366004612942565b610178565b6040516100c29190612fc4565b60405180910390f35b6100de6100d93660046127fb565b61017e565b005b6100de6100ee366004612942565b610183565b6100de61010136600461286e565b610282565b6100de610114366004612a3c565b610bda565b6100de610127366004612942565b610eef565b6100de61013a36600461297a565b6110a3565b6100de61014d366004612a3c565b6113e6565b6100de6101603660046127c3565b6113eb565b6100de610173366004612a6c565b611766565b50600090565b505050565b603954604051636a2a747360e01b815260009182916001600160a01b0390911690636a2a7473906101b8908690600401612d42565b6040805180830381600087803b1580156101d157600080fd5b505af11580156101e5573d6000803e3d6000fd5b505050506040513d601f19601f820116820180604052508101906102099190612a9e565b9150915060008060608061021c336117d1565b93509350935093507f39c31677b1650d5b983fb38bf1ee25e9ca25658b8bdfb9263e59651183b4836833878730888860405161025d96959493929190612c29565b60405180910390a16000610277878787876001600a611af2565b505050505050505050565b6001600160a01b0382163314156102b45760405162461bcd60e51b81526004016102ab90612eb7565b60405180910390fd5b6001600160a01b038216158015906102cb57503315155b6102e75760405162461bcd60e51b81526004016102ab90612df1565b6102ef61266a565b603954604051633495a7e360e11b81526001600160a01b039091169063692b4fc69061031f903390600401612b9f565b60806040518083038186803b15801561033757600080fd5b505afa15801561034b573d6000803e3d6000fd5b505050506040513d601f19601f8201168201806040525081019061036f91906129db565b8152603954604051633495a7e360e11b81526001600160a01b039091169063692b4fc6906103a1908690600401612b9f565b60806040518083038186803b1580156103b957600080fd5b505afa1580156103cd573d6000803e3d6000fd5b505050506040513d601f19601f820116820180604052508101906103f191906129db565b60a08201819052815161040391611ca4565b61041f5760405162461bcd60e51b81526004016102ab90612eee565b610428336117d1565b6080850152606084015260408301526020820152610445836117d1565b61012085015261010084015260e0830181905260c08301829052602083015160408085015190517f39c31677b1650d5b983fb38bf1ee25e9ca25658b8bdfb9263e59651183b483689461049f94339493928a929190612c29565b60405180910390a160006104c8826020015183604001518460c001518560e00151600188611af2565b905080156109605760005b82606001515181101561055f576000836060015182815181106104f257fe5b60200260200101511161050657600061053c565b61053c606461053660148660600151858151811061052057fe5b6020026020010151611d0190919063ffffffff16565b90611d3b565b8360600151828151811061054c57fe5b60209081029190910101526001016104d3565b50603a546080830151606084015160405163feba2dd560e01b81526001600160a01b039093169263feba2dd59261059a923392600401612bb3565b600060405180830381600087803b1580156105b457600080fd5b505af11580156105c8573d6000803e3d6000fd5b505050508161010001515167ffffffffffffffff811180156105e957600080fd5b50604051908082528060200260200182016040528015610613578160200160208202803683370190505b5061014083015260005b8261010001515181101561070657600061064860646105366046876101000151868151811061052057fe5b90506000846101000151838151811061065d57fe5b602002602001015111610671576000610673565b805b846101000151838151811061068457fe5b6020026020010181815250508084610100015183815181106106a257fe5b6020026020010151116106b65760006106e1565b6106e18185610100015184815181106106cb57fe5b6020026020010151611d7d90919063ffffffff16565b84610140015183815181106106f257fe5b60209081029190910101525060010161061d565b50603954604051634ec7272b60e11b81526000916001600160a01b031690639d8e4e5690610738908890600401612b9f565b60206040518083038186803b15801561075057600080fd5b505afa158015610764573d6000803e3d6000fd5b505050506040513d601f19601f820116820180604052508101906107889190612a54565b905080156108ec576035546040516331a9108f60e11b81526000916001600160a01b031690636352211e906107c1908590600401612fd3565b60206040518083038186803b1580156107d957600080fd5b505afa1580156107ed573d6000803e3d6000fd5b505050506040513d601f19601f8201168201806040525081019061081191906127df565b603a5461012086015161014087015160405163ba1edf1760e01b81529394506001600160a01b039092169263ba1edf1792610853928692909190600401612bb3565b600060405180830381600087803b15801561086d57600080fd5b505af1158015610881573d6000803e3d6000fd5b5050603a54604051624f9d7360e21b81526001600160a01b03909116925063013e75cc91506108b890849033908790600401612c63565b600060405180830381600087803b1580156108d257600080fd5b505af11580156108e6573d6000803e3d6000fd5b50505050505b603a5461012084015161010085015160405163feba2dd560e01b81526001600160a01b039093169263feba2dd592610928928a92600401612bb3565b600060405180830381600087803b15801561094257600080fd5b505af1158015610956573d6000803e3d6000fd5b5050505050610bd4565b60005b8260600151518110156109d35760008360600151828151811061098257fe5b6020026020010151116109965760006109b0565b6109b06064610536605a8660600151858151811061052057fe5b836060015182815181106109c057fe5b6020908102919091010152600101610963565b50603a546080830151606084015160405163feba2dd560e01b81526001600160a01b039093169263feba2dd592610a0e923392600401612bb3565b600060405180830381600087803b158015610a2857600080fd5b505af1158015610a3c573d6000803e3d6000fd5b505050508161010001515167ffffffffffffffff81118015610a5d57600080fd5b50604051908082528060200260200182016040528015610a87578160200160208202803683370190505b5061014083015260005b82610100015151811015610b64576000610abc6064610536600a876101000151868151811061052057fe5b905060008461010001518381518110610ad157fe5b602002602001015111610ae5576000610ae7565b805b8461010001518381518110610af857fe5b602002602001018181525050808461010001518381518110610b1657fe5b602002602001015111610b2a576000610b3f565b610b3f8185610100015184815181106106cb57fe5b8461014001518381518110610b5057fe5b602090810291909101015250600101610a91565b50603a5461012083015161010084015160405163feba2dd560e01b81526001600160a01b039093169263feba2dd592610ba1928992600401612bb3565b600060405180830381600087803b158015610bbb57600080fd5b505af1158015610bcf573d6000803e3d6000fd5b505050505b50505050565b6035546040516331a9108f60e11b8152829133916001600160a01b0390911690636352211e90610c0e908590600401612fd3565b60206040518083038186803b158015610c2657600080fd5b505afa158015610c3a573d6000803e3d6000fd5b505050506040513d601f19601f82011682018060405250810190610c5e91906127df565b6001600160a01b031614610c845760405162461bcd60e51b81526004016102ab90612dc7565b6039546040516305f941bf60e51b81526000916001600160a01b03169063bf2837e090610cb5908690600401612fd3565b60206040518083038186803b158015610ccd57600080fd5b505afa158015610ce1573d6000803e3d6000fd5b505050506040513d601f19601f82011682018060405250810190610d059190612a54565b6038546036546035546037546040519495506000946001600160a01b03948516946320515251948a94610d4b948894928416939182169291169086908b90602401612c87565b60408051601f198184030181529181526020820180516001600160e01b031663d7c41c7960e01b1790525160e084901b6001600160e01b0319168152610d95929190600401612ff3565b602060405180830381600087803b158015610daf57600080fd5b505af1158015610dc3573d6000803e3d6000fd5b505050506040513d601f19601f82011682018060405250810190610de791906127df565b60395460405163f52084e960e01b81529192506001600160a01b03169063f52084e990610e1a9087908590600401612fdc565b600060405180830381600087803b158015610e3457600080fd5b505af1158015610e48573d6000803e3d6000fd5b50506039546040516375997ce960e01b81526001600160a01b0390911692506375997ce99150610e7e9087908590600401612fdc565b600060405180830381600087803b158015610e9857600080fd5b505af1158015610eac573d6000803e3d6000fd5b505050507fdb89c7408779c905195fcba466a0677b3c6cf1d715f798cea48a9aab5163e1428185604051610ee1929190612c10565b60405180910390a150505050565b603954604051634f4815d760e01b815260009182916001600160a01b0390911690634f4815d790610f24908690600401612d42565b6040805180830381600087803b158015610f3d57600080fd5b505af1158015610f51573d6000803e3d6000fd5b505050506040513d601f19601f82011682018060405250810190610f759190612a9e565b915091506000603960009054906101000a90046001600160a01b03166001600160a01b03166304d5aae16040518163ffffffff1660e01b8152600401602060405180830381600087803b158015610fcb57600080fd5b505af1158015610fdf573d6000803e3d6000fd5b505050506040513d601f19601f820116820180604052508101906110039190612a54565b6039549091506001600160a01b0316634b087b22826110228686611dbf565b6040518363ffffffff1660e01b815260040161103f92919061300c565b600060405180830381600087803b15801561105957600080fd5b505af115801561106d573d6000803e3d6000fd5b5050603a5460405163a080ee1560e01b81526001600160a01b03909116925063a080ee159150610ba19033908590600401612c10565b61113281603960009054906101000a90046001600160a01b03166001600160a01b031663cf677f576040518163ffffffff1660e01b815260040160806040518083038186803b1580156110f557600080fd5b505afa158015611109573d6000803e3d6000fd5b505050506040513d601f19601f8201168201806040525081019061112d91906129db565b611e59565b61114e5760405162461bcd60e51b81526004016102ab90612d6a565b6111566126d0565b603954604051633495a7e360e11b81526001600160a01b039091169063692b4fc690611186903390600401612b9f565b60806040518083038186803b15801561119e57600080fd5b505afa1580156111b2573d6000803e3d6000fd5b505050506040513d601f19601f820116820180604052508101906111d691906129db565b90506111e181611f0c565b1561126f57603960009054906101000a90046001600160a01b03166001600160a01b0316636d18c9706040518163ffffffff1660e01b815260040160806040518083038186803b15801561123457600080fd5b505afa158015611248573d6000803e3d6000fd5b505050506040513d601f19601f8201168201806040525081019061126c91906129db565b90505b6112798282611ca4565b156112965760405162461bcd60e51b81526004016102ab90612f4b565b60395460405163bedc6d2760e01b81526001600160a01b039091169063bedc6d27906112c89033908690600401612bf3565b600060405180830381600087803b1580156112e257600080fd5b505af11580156112f6573d6000803e3d6000fd5b505050507f067ed149b8be43d30a47ed69bc882367f66239804079b28dd002d36fc3f46ed4826000015183604001518460200151856060015160405161133f9493929190613043565b60405180910390a16039546040516348bed1c960e11b81526000916001600160a01b03169063917da39290611378908690600401612f93565b60206040518083038186803b15801561139057600080fd5b505afa1580156113a4573d6000803e3d6000fd5b505050506040513d601f19601f820116820180604052508101906113c8919061295e565b60148111156113d357fe5b14156113e2576113e282611f4a565b5050565b603355565b600054610100900460ff168061140457506114046123ab565b80611412575060005460ff16155b61142e5760405162461bcd60e51b81526004016102ab90612e69565b600054610100900460ff16158015611459576000805460ff1961ff0019909116610100171660011790555b603980546001600160a01b0319166001600160a01b03848116919091179182905560408051633800918160e21b81529051929091169163e002460491600480820192602092909190829003018186803b1580156114b557600080fd5b505afa1580156114c9573d6000803e3d6000fd5b505050506040513d601f19601f820116820180604052508101906114ed91906127df565b603a80546001600160a01b0319166001600160a01b0392831617905560395460408051637718403560e01b8152905191909216916377184035916004808301926020929190829003018186803b15801561154657600080fd5b505afa15801561155a573d6000803e3d6000fd5b505050506040513d601f19601f8201168201806040525081019061157e91906127df565b603580546001600160a01b0319166001600160a01b039283161790556039546040805163123cfce160e01b81529051919092169163123cfce1916004808301926020929190829003018186803b1580156115d757600080fd5b505afa1580156115eb573d6000803e3d6000fd5b505050506040513d601f19601f8201168201806040525081019061160f91906127df565b603680546001600160a01b0319166001600160a01b0392831617905560395460408051635beec2bb60e01b815290519190921691635beec2bb916004808301926020929190829003018186803b15801561166857600080fd5b505afa15801561167c573d6000803e3d6000fd5b505050506040513d601f19601f820116820180604052508101906116a091906127df565b603780546001600160a01b0319166001600160a01b0392831617905560395460408051633dd742c960e01b815290519190921691633dd742c9916004808301926020929190829003018186803b1580156116f957600080fd5b505afa15801561170d573d6000803e3d6000fd5b505050506040513d601f19601f8201168201806040525081019061173191906127df565b603880546001600160a01b0319166001600160a01b039290921691909117905580156113e2576000805461ff00191690555050565b603a5460405163ba1edf1760e01b81526001600160a01b039091169063ba1edf179061179a90339086908690600401612bb3565b600060405180830381600087803b1580156117b457600080fd5b505af11580156117c8573d6000803e3d6000fd5b50505050505050565b600080606080603960009054906101000a90046001600160a01b03166001600160a01b031663e2cd08626040518163ffffffff1660e01b815260040160206040518083038186803b15801561182557600080fd5b505afa158015611839573d6000803e3d6000fd5b505050506040513d601f19601f8201168201806040525081019061185d9190612a54565b67ffffffffffffffff8111801561187357600080fd5b5060405190808252806020026020018201604052801561189d578160200160208202803683370190505b5090506060815167ffffffffffffffff811180156118ba57600080fd5b506040519080825280602002602001820160405280156118e4578160200160208202803683370190505b50905060005b8251811015611939578083828151811061190057fe5b6020026020010181815250508682828151811061191957fe5b6001600160a01b03909216602092830291909101909101526001016118ea565b506037546040516313849cfd60e21b81526001600160a01b0390911690634e1273f49061196c9084908690600401612cc1565b60006040518083038186803b15801561198457600080fd5b505afa158015611998573d6000803e3d6000fd5b505050506040513d6000823e601f3d908101601f191682016040526119c091908101906128a6565b603954604051637008ec1b60e11b815291945060609182916001600160a01b03169063e011d836906119f6908790600401612d17565b60006040518083038186803b158015611a0e57600080fd5b505afa158015611a22573d6000803e3d6000fd5b505050506040513d6000823e601f3d908101601f19168201604052611a4a91908101906128e1565b9150915060005b8551811015611ae757600080848381518110611a6957fe5b6020026020010151848481518110611a7d57fe5b602002602001015191509150611aaf888481518110611a9857fe5b602002602001015183611d0190919063ffffffff16565b8a019950611ad9888481518110611ac257fe5b602002602001015182611d0190919063ffffffff16565b909801975050600101611a51565b505050509193509193565b6000600a81611b018983611d3b565b611b0c576001611b16565b611b168983611d3b565b90506000611b248884611d3b565b611b2f576001611b39565b611b398884611d3b565b9050818102600080805b8860ff168160ff161015611c53578915611be757611b62600186611dbf565b9250611b6f600187611dbf565b91507f3ab8d16fa0445f4581f0e35996348d2507338000fb353856d56f5db15618e39482848f8e604051611ba6949392919061301a565b60405180910390a1828d11611bbc576000611bc6565b611bc68d84611d7d565b9c50818b11611bd6576000611be0565b611be08b83611d7d565b9a50611c36565b611bf2600186611dbf565b9250611bff600187611dbf565b9150818b11611c0f576000611c19565b611c198b83611d7d565b9a50828d11611c29576000611c33565b611c338d84611d7d565b9c505b8c1580611c4157508a155b15611c4b57611c53565b600101611b43565b50898c1196507fa09af1f69f0376e675eb9a774ff51b588670dda43c3dd6805069596312e3bca5878d8c604051611c8c93929190612d2a565b60405180910390a15050505050509695505050505050565b8051825160009160ff9182169116148015611ccc5750816040015160ff16836040015160ff16145b8015611ce55750816020015160ff16836020015160ff16145b8015611cf8575081606001518360600151145b90505b92915050565b600082611d1057506000611cfb565b82820282848281611d1d57fe5b0414611cf85760405162461bcd60e51b81526004016102ab90612e28565b6000611cf883836040518060400160405280601a81526020017f536166654d6174683a206469766973696f6e206279207a65726f0000000000008152506123b1565b6000611cf883836040518060400160405280601e81526020017f536166654d6174683a207375627472616374696f6e206f766572666c6f7700008152506123ea565b60008133603354603454604051602001611ddb93929190612b75565b6040516020818303038152906040528051906020012060001c81611dfb57fe5b069050828110611e0b5780611e0f565b8281015b6034805460010190556040519091507fbcf69e7223438137d9099bb71b1772c3eb2a5a8840750b247913cd6fd4d249d590611e4b908390612fd3565b60405180910390a192915050565b815160009060ff161580611e7557508151835160ff9182169116115b15611e8257506000611cfb565b604083015160ff161580611ea35750816040015160ff16836040015160ff16115b15611eb057506000611cfb565b602083015160ff161580611ed15750816020015160ff16836020015160ff16115b15611ede57506000611cfb565b60608301511580611ef6575081606001518360600151115b15611f0357506000611cfb565b50600192915050565b805160009060ff161580611f255750604082015160ff16155b80611f355750602082015160ff16155b80611f4257506060820151155b90505b919050565b600080611f55612416565b60395460405163083b214d60e41b81529294509092506001600160a01b0316906383b214d090611f8b9086908690600401612fa1565b600060405180830381600087803b158015611fa557600080fd5b505af1158015611fb9573d6000803e3d6000fd5b50505050336001600160a01b03167f119eeac2475e395d798da3c40d9f901a3131b79a826c604a60d078764e8ce408836014811115611ff457fe5b6040516120019190613035565b60405180910390a2600982601481111561201757fe5b14156120245750506123a8565b600182601481111561203257fe5b14806120495750600382601481111561204757fe5b145b8061205f5750600582601481111561205d57fe5b145b1561216657603954604051636a2a747360e01b815260009182916001600160a01b0390911690636a2a747390612099908790600401612d42565b6040805180830381600087803b1580156120b257600080fd5b505af11580156120c6573d6000803e3d6000fd5b505050506040513d601f19601f820116820180604052508101906120ea9190612a9e565b915091506000806060806120fd336117d1565b93509350935093507f39c31677b1650d5b983fb38bf1ee25e9ca25658b8bdfb9263e59651183b4836833878730888860405161213e96959493929190612c29565b60405180910390a16000612158878787876001600a611af2565b90505050505050505061017e565b600b82601481111561217457fe5b148061218b5750600d82601481111561218957fe5b145b806121a15750600f82601481111561219f57fe5b145b806121b7575060138260148111156121b557fe5b145b1561017e57603954604051634f4815d760e01b815260009182916001600160a01b0390911690634f4815d7906121f1908790600401612d42565b6040805180830381600087803b15801561220a57600080fd5b505af115801561221e573d6000803e3d6000fd5b505050506040513d601f19601f820116820180604052508101906122429190612a9e565b915091506000603960009054906101000a90046001600160a01b03166001600160a01b03166304d5aae16040518163ffffffff1660e01b8152600401602060405180830381600087803b15801561229857600080fd5b505af11580156122ac573d6000803e3d6000fd5b505050506040513d601f19601f820116820180604052508101906122d09190612a54565b6039549091506001600160a01b0316634b087b22826122ef8686611dbf565b6040518363ffffffff1660e01b815260040161230c92919061300c565b600060405180830381600087803b15801561232657600080fd5b505af115801561233a573d6000803e3d6000fd5b5050603a5460405163a080ee1560e01b81526001600160a01b03909116925063a080ee1591506123709033908590600401612c10565b600060405180830381600087803b15801561238a57600080fd5b505af115801561239e573d6000803e3d6000fd5b5050505050505050505b50565b303b1590565b600081836123d25760405162461bcd60e51b81526004016102ab9190612d57565b5060008385816123de57fe5b049150505b9392505050565b6000818484111561240e5760405162461bcd60e51b81526004016102ab9190612d57565b505050900390565b60008061271060648261242a600184611dbf565b9050806001141561243e5760019450612663565b80602a14156124505760029450612663565b8160050281116124635760039450612663565b8160050281118015612478575081600a028111155b156124865760049450612663565b81600a028111801561249b5750816014028111155b156124a95760059450612663565b81601402811180156124be575081601e028111155b156124cc5760069450612663565b81601e02811180156124e15750816023028111155b156124ef5760079450612663565b81602302811180156125045750816028028111155b156125125760089450612663565b81602802811180156125275750816041028111155b1561253557600b9450612663565b816041028111801561254a5750816046028111155b1561255857600c9450612663565b816046028111801561256d575081604b168111155b1561257b57600d9450612663565b81604602811180156125905750816050168111155b1561259e57600e9450612663565b81605002811180156125b35750816055168111155b156125c157600f9450612663565b81605502811180156125d6575081605a168111155b156125e45760109450612663565b81605a02811180156125f9575081605f168111155b156126075760119450612663565b81605f028111801561261c5750816063168111155b1561262a5760129450612663565b816063028111801561263f5750600183038111155b1561264d5760139450612663565b8281141561265e5760149450612663565b600994505b5050509091565b60405180610160016040528061267e6126d0565b8152602001600081526020016000815260200160608152602001606081526020016126a76126d0565b815260200160008152602001600081526020016060815260200160608152602001606081525090565b60408051608081018252600080825260208201819052918101829052606081019190915290565b600082601f830112612707578081fd5b813561271a6127158261308e565b613067565b81815291506020808301908481018184028601820187101561273b57600080fd5b60005b8481101561275a5781358452928201929082019060010161273e565b505050505092915050565b600082601f830112612775578081fd5b81516127836127158261308e565b8181529150602080830190848101818402860182018710156127a457600080fd5b60005b8481101561275a578151845292820192908201906001016127a7565b6000602082840312156127d4578081fd5b8135611cf8816130b9565b6000602082840312156127f0578081fd5b8151611cf8816130b9565b60008060006060848603121561280f578182fd5b833561281a816130b9565b9250602084013567ffffffffffffffff80821115612836578384fd5b612842878388016126f7565b93506040860135915080821115612857578283fd5b50612864868287016126f7565b9150509250925092565b60008060408385031215612880578182fd5b823561288b816130b9565b9150602083013561289b816130db565b809150509250929050565b6000602082840312156128b7578081fd5b815167ffffffffffffffff8111156128cd578182fd5b6128d984828501612765565b949350505050565b600080604083850312156128f3578182fd5b825167ffffffffffffffff8082111561290a578384fd5b61291686838701612765565b9350602085015191508082111561292b578283fd5b5061293885828601612765565b9150509250929050565b600060208284031215612953578081fd5b8135611cf8816130ce565b60006020828403121561296f578081fd5b8151611cf8816130ce565b60006080828403121561298b578081fd5b6129956080613067565b82356129a0816130db565b815260208301356129b0816130db565b602082015260408301356129c3816130db565b60408201526060928301359281019290925250919050565b6000608082840312156129ec578081fd5b6129f66080613067565b8251612a01816130db565b81526020830151612a11816130db565b60208201526040830151612a24816130db565b60408201526060928301519281019290925250919050565b600060208284031215612a4d578081fd5b5035919050565b600060208284031215612a65578081fd5b5051919050565b600080600060608486031215612a80578081fd5b83359250602084013567ffffffffffffffff80821115612836578283fd5b60008060408385031215612ab0578182fd5b505080516020909101519092909150565b6000815180845260208085019450808401835b83811015612af057815187529582019590820190600101612ad4565b509495945050505050565b60008151808452815b81811015612b2057602081850181015186830182015201612b04565b81811115612b315782602083870101525b50601f01601f19169290920160200192915050565b60ff815116825260ff602082015116602083015260ff6040820151166040830152606081015160608301525050565b60609390931b6bffffffffffffffffffffffff191683526014830191909152603482015260540190565b6001600160a01b0391909116815260200190565b6001600160a01b0384168152606060208201819052600090612bd790830185612ac1565b8281036040840152612be98185612ac1565b9695505050505050565b6001600160a01b038316815260a081016123e36020830184612b46565b6001600160a01b03929092168252602082015260400190565b6001600160a01b0396871681526020810195909552604085019390935293166060830152608082019290925260a081019190915260c00190565b6001600160a01b039384168152919092166020820152604081019190915260600190565b6001600160a01b0396871681529486166020860152928516604085015293166060830152608082019290925260a081019190915260c00190565b604080825283519082018190526000906020906060840190828701845b82811015612d035781516001600160a01b031684529284019290840190600101612cde565b50505083810382850152612be98186612ac1565b600060208252611cf86020830184612ac1565b92151583526020830191909152604082015260600190565b60208101612d4f836130ae565b825292915050565b600060208252611cf86020830184612afb565b60208082526038908201527f506f736974696f6e206d7573742062652077697468696e20736574206c696d6960408201527f7473206f6620746865206b6e6f776e20756e6976657273650000000000000000606082015260800190565b60208082526010908201526f29b2b73232b9103737ba1037bbb732b960811b604082015260600190565b6020808252601f908201527f416464726573736573206d757374206578697374206d75737420657869737400604082015260600190565b60208082526021908201527f536166654d6174683a206d756c7469706c69636174696f6e206f766572666c6f6040820152607760f81b606082015260800190565b6020808252602e908201527f436f6e747261637420696e7374616e63652068617320616c726561647920626560408201526d195b881a5b9a5d1a585b1a5e995960921b606082015260800190565b6020808252601a908201527f596f752063616e6e6f742061747461636b20796f757273656c66000000000000604082015260600190565b60208082526038908201527f596f752063616e206f6e6c792061747461636b2070656f706c6520617420796f60408201527f75722063757272656e742073746172206c6f636174696f6e0000000000000000606082015260800190565b60208082526028908201527f596f752063616e6e6f74206d6f766520746f20796f75722063757272656e74206040820152673637b1b0ba34b7b760c11b606082015260800190565b60808101611cfb8284612b46565b60a08101612faf8285612b46565b612fb8836130ae565b60808301529392505050565b61ffff91909116815260200190565b90815260200190565b9182526001600160a01b0316602082015260400190565b6000838252604060208301526128d96040830184612afb565b918252602082015260400190565b93845260208401929092526040830152606082015260800190565b60ff91909116815260200190565b60ff9485168152928416602084015292166040820152606081019190915260800190565b60405181810167ffffffffffffffff8111828210171561308657600080fd5b604052919050565b600067ffffffffffffffff8211156130a4578081fd5b5060209081020190565b8060158110611f4557fe5b6001600160a01b03811681146123a857600080fd5b601581106123a857600080fd5b60ff811681146123a857600080fdfea2646970667358221220541ca11bc18cc812604b73180753974deb9536d46862d3404b0cf22387babacb64736f6c634300060c0033",
  "immutableReferences": {},
  "source": "pragma solidity 0.6.12;\npragma experimental ABIEncoderV2;\n\nimport {GameOperations} from '../GameOperations.sol';\nimport {Types} from '../lib/Types.sol';\n\n/* solium-disable-next-line */\ncontract TestGameOperations is GameOperations {\n    // create test functions\n    event TestAddress(address a, address b, address c, address d);\n    event TestUint(uint256 a, uint256 b);\n\n    function testAiFleetAttack(Types.SystemType starSystem) public {\n        (uint256 a_offense, uint256 a_defense) = GS.getAiFleetInfo(starSystem);\n        (\n            uint256 d_offense,\n            uint256 d_defense,\n            uint256[] memory d_balances,\n            uint256[] memory d_ids\n        ) = calculateStats(msg.sender);\n        emit BattleStarted(msg.sender, a_offense, a_defense, address(this), d_offense, d_defense);\n\n        bool result = battle(a_offense, a_defense, d_offense, d_defense, true, 10);\n    }\n\n    function testFhrDiscovery(Types.SystemType systemType) public {\n        (uint256 low, uint256 high) = GS.getStarSystemYieldRange(systemType);\n        uint256 _id = GS.incrementTotalFhr();\n        GS.setTokenIdToYield(_id, randomrange(low, high));\n        TS.mintFhr(msg.sender, _id);\n    }\n\n    function testSatDiscovery(\n        uint256 rand,\n        uint256[] memory ships,\n        uint256[] memory amounts\n    ) public {\n        TS.sendSats(msg.sender, ships, amounts);\n        // updateMasterFleet(msg.sender, ships, amounts);\n    }\n\n    function testUpdateMasterFleet(\n        address master,\n        uint256[] memory ids,\n        uint256[] memory amounts\n    ) public {\n        // updateMasterFleet(master, ids, amounts);\n    }\n}\n",
  "sourcePath": "C:/Users/James/projects/tsuno-fe/contracts/testing/TestGameOperations.sol",
  "compiler": {
    "name": "solc",
    "version": "0.6.12+commit.27d51765.Emscripten.clang"
  },
  "schemaVersion": "3.2.5",
  "updatedAt": "2020-11-02T11:26:00.842Z",
  "networkType": "ethereum",
  "devdoc": {
    "kind": "dev",
    "methods": {},
    "version": 1
  },
  "userdoc": {
    "kind": "user",
    "methods": {},
    "version": 1
  }
}