{
  "contractName": "TestShipsAndTechnology",
  "abi": [
    {
      "inputs": [
        {
          "internalType": "address",
          "name": "master",
          "type": "address"
        }
      ],
      "stateMutability": "nonpayable",
      "type": "constructor"
    },
    {
      "anonymous": false,
      "inputs": [
        {
          "indexed": true,
          "internalType": "address",
          "name": "account",
          "type": "address"
        },
        {
          "indexed": true,
          "internalType": "address",
          "name": "operator",
          "type": "address"
        },
        {
          "indexed": false,
          "internalType": "bool",
          "name": "approved",
          "type": "bool"
        }
      ],
      "name": "ApprovalForAll",
      "type": "event"
    },
    {
      "anonymous": false,
      "inputs": [
        {
          "indexed": true,
          "internalType": "address",
          "name": "previousOwner",
          "type": "address"
        },
        {
          "indexed": true,
          "internalType": "address",
          "name": "newOwner",
          "type": "address"
        }
      ],
      "name": "OwnershipTransferred",
      "type": "event"
    },
    {
      "anonymous": false,
      "inputs": [
        {
          "indexed": true,
          "internalType": "address",
          "name": "operator",
          "type": "address"
        },
        {
          "indexed": true,
          "internalType": "address",
          "name": "from",
          "type": "address"
        },
        {
          "indexed": true,
          "internalType": "address",
          "name": "to",
          "type": "address"
        },
        {
          "indexed": false,
          "internalType": "uint256[]",
          "name": "ids",
          "type": "uint256[]"
        },
        {
          "indexed": false,
          "internalType": "uint256[]",
          "name": "values",
          "type": "uint256[]"
        }
      ],
      "name": "TransferBatch",
      "type": "event"
    },
    {
      "anonymous": false,
      "inputs": [
        {
          "indexed": true,
          "internalType": "address",
          "name": "operator",
          "type": "address"
        },
        {
          "indexed": true,
          "internalType": "address",
          "name": "from",
          "type": "address"
        },
        {
          "indexed": true,
          "internalType": "address",
          "name": "to",
          "type": "address"
        },
        {
          "indexed": false,
          "internalType": "uint256",
          "name": "id",
          "type": "uint256"
        },
        {
          "indexed": false,
          "internalType": "uint256",
          "name": "value",
          "type": "uint256"
        }
      ],
      "name": "TransferSingle",
      "type": "event"
    },
    {
      "anonymous": false,
      "inputs": [
        {
          "indexed": false,
          "internalType": "string",
          "name": "value",
          "type": "string"
        },
        {
          "indexed": true,
          "internalType": "uint256",
          "name": "id",
          "type": "uint256"
        }
      ],
      "name": "URI",
      "type": "event"
    },
    {
      "inputs": [],
      "name": "PIRATE_SHIP",
      "outputs": [
        {
          "internalType": "uint256",
          "name": "",
          "type": "uint256"
        }
      ],
      "stateMutability": "view",
      "type": "function"
    },
    {
      "inputs": [],
      "name": "PIRATE_WEAPON_SYSTEM",
      "outputs": [
        {
          "internalType": "uint256",
          "name": "",
          "type": "uint256"
        }
      ],
      "stateMutability": "view",
      "type": "function"
    },
    {
      "inputs": [
        {
          "internalType": "address",
          "name": "account",
          "type": "address"
        },
        {
          "internalType": "uint256",
          "name": "id",
          "type": "uint256"
        }
      ],
      "name": "balanceOf",
      "outputs": [
        {
          "internalType": "uint256",
          "name": "",
          "type": "uint256"
        }
      ],
      "stateMutability": "view",
      "type": "function"
    },
    {
      "inputs": [
        {
          "internalType": "address[]",
          "name": "accounts",
          "type": "address[]"
        },
        {
          "internalType": "uint256[]",
          "name": "ids",
          "type": "uint256[]"
        }
      ],
      "name": "balanceOfBatch",
      "outputs": [
        {
          "internalType": "uint256[]",
          "name": "",
          "type": "uint256[]"
        }
      ],
      "stateMutability": "view",
      "type": "function"
    },
    {
      "inputs": [
        {
          "internalType": "address",
          "name": "account",
          "type": "address"
        },
        {
          "internalType": "address",
          "name": "operator",
          "type": "address"
        }
      ],
      "name": "isApprovedForAll",
      "outputs": [
        {
          "internalType": "bool",
          "name": "",
          "type": "bool"
        }
      ],
      "stateMutability": "view",
      "type": "function"
    },
    {
      "inputs": [],
      "name": "owner",
      "outputs": [
        {
          "internalType": "address",
          "name": "",
          "type": "address"
        }
      ],
      "stateMutability": "view",
      "type": "function"
    },
    {
      "inputs": [],
      "name": "renounceOwnership",
      "outputs": [],
      "stateMutability": "nonpayable",
      "type": "function"
    },
    {
      "inputs": [
        {
          "internalType": "address",
          "name": "from",
          "type": "address"
        },
        {
          "internalType": "address",
          "name": "to",
          "type": "address"
        },
        {
          "internalType": "uint256[]",
          "name": "ids",
          "type": "uint256[]"
        },
        {
          "internalType": "uint256[]",
          "name": "amounts",
          "type": "uint256[]"
        },
        {
          "internalType": "bytes",
          "name": "data",
          "type": "bytes"
        }
      ],
      "name": "safeBatchTransferFrom",
      "outputs": [],
      "stateMutability": "nonpayable",
      "type": "function"
    },
    {
      "inputs": [
        {
          "internalType": "address",
          "name": "from",
          "type": "address"
        },
        {
          "internalType": "address",
          "name": "to",
          "type": "address"
        },
        {
          "internalType": "uint256",
          "name": "id",
          "type": "uint256"
        },
        {
          "internalType": "uint256",
          "name": "amount",
          "type": "uint256"
        },
        {
          "internalType": "bytes",
          "name": "data",
          "type": "bytes"
        }
      ],
      "name": "safeTransferFrom",
      "outputs": [],
      "stateMutability": "nonpayable",
      "type": "function"
    },
    {
      "inputs": [
        {
          "internalType": "address",
          "name": "operator",
          "type": "address"
        },
        {
          "internalType": "bool",
          "name": "approved",
          "type": "bool"
        }
      ],
      "name": "setApprovalForAll",
      "outputs": [],
      "stateMutability": "nonpayable",
      "type": "function"
    },
    {
      "inputs": [
        {
          "internalType": "bytes4",
          "name": "interfaceId",
          "type": "bytes4"
        }
      ],
      "name": "supportsInterface",
      "outputs": [
        {
          "internalType": "bool",
          "name": "",
          "type": "bool"
        }
      ],
      "stateMutability": "view",
      "type": "function"
    },
    {
      "inputs": [
        {
          "internalType": "address",
          "name": "newOwner",
          "type": "address"
        }
      ],
      "name": "transferOwnership",
      "outputs": [],
      "stateMutability": "nonpayable",
      "type": "function"
    },
    {
      "inputs": [
        {
          "internalType": "uint256",
          "name": "",
          "type": "uint256"
        }
      ],
      "name": "uri",
      "outputs": [
        {
          "internalType": "string",
          "name": "",
          "type": "string"
        }
      ],
      "stateMutability": "view",
      "type": "function"
    }
  ],
  "bytecode": "0x60806040523480156200001157600080fd5b50604051620021a5380380620021a58339810160408190526200003491620006a4565b806040518060600160405280602681526020016200217f6026913960006200005b62000139565b600080546001600160a01b0319166001600160a01b0383169081178255604051929350917f8be0079c531659141344cd1fd0a4f28419497f9722a3daafe3b4186f6b6457e0908290a350620000b76301ffc9a760e01b6200013e565b620000c2816200019c565b620000d4636cdb3d1360e11b6200013e565b620000e66303a24d0760e21b6200013e565b5060005b602e81101562000123576200011a33826200010581620001b5565b60408051602081019091526000815262000261565b600101620000ea565b506200013181600162000376565b505062000a0d565b335b90565b6001600160e01b03198082161415620001745760405162461bcd60e51b81526004016200016b9062000851565b60405180910390fd5b6001600160e01b0319166000908152600160208190526040909120805460ff19169091179055565b8051620001b190600490602084019062000608565b5050565b60006026821480620001c75750602982145b80620001d35750602282145b15620001e357506103e86200025c565b6027821480620001f35750602982145b80620001ff5750602382145b156200020f57506101906200025c565b602b8214806200021f5750602882145b156200022e575060646200025c565b6021821415620002415750600a6200025c565b60248214156200025557506127106200025c565b50633b9aca005b919050565b6001600160a01b0384166200028a5760405162461bcd60e51b81526004016200016b9062000908565b60006200029662000139565b9050620002bd81600087620002ab886200044f565b620002b6886200044f565b8762000494565b60008481526002602090815260408083206001600160a01b0389168452825290912054620002f691859062000a3b6200049c821b17901c565b60008581526002602090815260408083206001600160a01b03808b16808652919093528184209490945551908416907fc3d58168c5ae7397731d063d5bbf3d657854427343f4c083240f7aacaa2d0f629062000356908990899062000949565b60405180910390a46200036f81600087878787620004cb565b5050505050565b6001600160a01b0382166200038a62000139565b6001600160a01b03161415620003b45760405162461bcd60e51b81526004016200016b90620008bf565b8060036000620003c362000139565b6001600160a01b03908116825260208083019390935260409182016000908120918716808252919093529120805460ff1916921515929092179091556200040962000139565b6001600160a01b03167f17307eab39ab6107e8899845ad3d59bd9653f200f220920489ca2b5937696c31836040516200044391906200078c565b60405180910390a35050565b6040805160018082528183019092526060918291906020808301908036833701905050905082816000815181106200048357fe5b602090810291909101015292915050565b505050505050565b600082820183811015620004c45760405162461bcd60e51b81526004016200016b9062000888565b9392505050565b620004ea846001600160a01b03166200060260201b62000a671760201c565b15620004945760405163f23a6e6160e01b81526001600160a01b0385169063f23a6e619062000526908990899088908890889060040162000745565b602060405180830381600087803b1580156200054157600080fd5b505af192505050801562000574575060408051601f3d908101601f191682019092526200057191810190620006cd565b60015b620005c657620005836200095d565b80620005905750620005ac565b8060405162461bcd60e51b81526004016200016b919062000797565b60405162461bcd60e51b81526004016200016b90620007ac565b6001600160e01b0319811663f23a6e6160e01b14620005f95760405162461bcd60e51b81526004016200016b9062000809565b50505050505050565b3b151590565b828054600181600116156101000203166002900490600052602060002090601f016020900481019282601f106200064b57805160ff19168380011785556200067b565b828001600101855582156200067b579182015b828111156200067b5782518255916020019190600101906200065e565b50620006899291506200068d565b5090565b5b808211156200068957600081556001016200068e565b600060208284031215620006b6578081fd5b81516001600160a01b0381168114620004c4578182fd5b600060208284031215620006df578081fd5b81516001600160e01b031981168114620004c4578182fd5b60008151808452815b818110156200071e5760208185018101518683018201520162000700565b81811115620007305782602083870101525b50601f01601f19169290920160200192915050565b6001600160a01b03868116825285166020820152604081018490526060810183905260a0608082018190526000906200078190830184620006f7565b979650505050505050565b901515815260200190565b600060208252620004c46020830184620006f7565b60208082526034908201527f455243313135353a207472616e7366657220746f206e6f6e204552433131353560408201527f526563656976657220696d706c656d656e746572000000000000000000000000606082015260800190565b60208082526028908201527f455243313135353a204552433131353552656365697665722072656a656374656040820152676420746f6b656e7360c01b606082015260800190565b6020808252601c908201527f4552433136353a20696e76616c696420696e7465726661636520696400000000604082015260600190565b6020808252601b908201527f536166654d6174683a206164646974696f6e206f766572666c6f770000000000604082015260600190565b60208082526029908201527f455243313135353a2073657474696e6720617070726f76616c20737461747573604082015268103337b91039b2b63360b91b606082015260800190565b60208082526021908201527f455243313135353a206d696e7420746f20746865207a65726f206164647265736040820152607360f81b606082015260800190565b918252602082015260400190565b60e01c90565b600060443d10156200096f576200013b565b600481823e6308c379a062000985825162000957565b1462000991576200013b565b6040513d600319016004823e80513d6001600160401b038083116024840183101715620009c257505050506200013b565b82840192508251915080821115620009de57505050506200013b565b503d83016020828401011115620009f8575050506200013b565b601f01601f1916810160200160405291505090565b6117628062000a1d6000396000f3fe608060405234801561001057600080fd5b50600436106100ce5760003560e01c80634e1273f41161008c578063a22cb46511610066578063a22cb4651461019e578063e985e9c5146101b1578063f242432a146101c4578063f2fde38b146101d7576100ce565b80634e1273f414610161578063715018a6146101815780638da5cb5b14610189576100ce565b8062fdd58e146100d357806301ffc9a7146100fc5780630e89341c1461011c5780632eb2c2d61461013c578063322c50fc14610151578063481e296614610159575b600080fd5b6100e66100e1366004610f50565b6101ea565b6040516100f391906115cb565b60405180910390f35b61010f61010a36600461103c565b610246565b6040516100f39190611209565b61012f61012a366004611074565b610265565b6040516100f39190611214565b61014f61014a366004610e06565b6102fd565b005b6100e661051c565b6100e6610521565b61017461016f366004610f7a565b610526565b6040516100f391906111c8565b61014f610666565b6101916106e5565b6040516100f39190611111565b61014f6101ac366004610f15565b6106f5565b61010f6101bf366004610dd2565b6107c3565b61014f6101d2366004610eb0565b6107f1565b61014f6101e5366004610db7565b610985565b60006001600160a01b03831661021b5760405162461bcd60e51b8152600401610212906112c3565b60405180910390fd5b5060008181526002602090815260408083206001600160a01b03861684529091529020545b92915050565b6001600160e01b03191660009081526001602052604090205460ff1690565b60048054604080516020601f60026000196101006001881615020190951694909404938401819004810282018101909252828152606093909290918301828280156102f15780601f106102c6576101008083540402835291602001916102f1565b820191906000526020600020905b8154815290600101906020018083116102d457829003601f168201915b50505050509050919050565b815183511461031e5760405162461bcd60e51b815260040161021290611583565b6001600160a01b0384166103445760405162461bcd60e51b815260040161021290611425565b61034c610a6d565b6001600160a01b0316856001600160a01b031614806103725750610372856101bf610a6d565b61038e5760405162461bcd60e51b81526004016102129061146a565b6000610398610a6d565b90506103a8818787878787610514565b60005b84518110156104ae5760008582815181106103c257fe5b6020026020010151905060008583815181106103da57fe5b60200260200101519050610447816040518060600160405280602a8152602001611703602a91396002600086815260200190815260200160002060008d6001600160a01b03166001600160a01b0316815260200190815260200160002054610a719092919063ffffffff16565b60008381526002602090815260408083206001600160a01b038e811685529252808320939093558a168152205461047e9082610a3b565b60009283526002602090815260408085206001600160a01b038c16865290915290922091909155506001016103ab565b50846001600160a01b0316866001600160a01b0316826001600160a01b03167f4a39dc06d4c0dbc64b70af90fd698a233a518aa5d07e595d983b8c0526c8f7fb87876040516104fe9291906111db565b60405180910390a4610514818787878787610a9d565b505050505050565b603181565b603081565b606081518351146105495760405162461bcd60e51b81526004016102129061153a565b6060835167ffffffffffffffff8111801561056357600080fd5b5060405190808252806020026020018201604052801561058d578160200160208202803683370190505b50905060005b845181101561065e5760006001600160a01b03168582815181106105b357fe5b60200260200101516001600160a01b031614156105e25760405162461bcd60e51b81526004016102129061130e565b600260008583815181106105f257fe5b60200260200101518152602001908152602001600020600086838151811061061657fe5b60200260200101516001600160a01b03166001600160a01b031681526020019081526020016000205482828151811061064b57fe5b6020908102919091010152600101610593565b509392505050565b61066e610a6d565b6000546001600160a01b0390811691161461069b5760405162461bcd60e51b8152600401610212906114bc565b600080546040516001600160a01b03909116907f8be0079c531659141344cd1fd0a4f28419497f9722a3daafe3b4186f6b6457e0908390a3600080546001600160a01b0319169055565b6000546001600160a01b03165b90565b816001600160a01b0316610707610a6d565b6001600160a01b0316141561072e5760405162461bcd60e51b8152600401610212906114f1565b806003600061073b610a6d565b6001600160a01b03908116825260208083019390935260409182016000908120918716808252919093529120805460ff19169215159290921790915561077f610a6d565b6001600160a01b03167f17307eab39ab6107e8899845ad3d59bd9653f200f220920489ca2b5937696c31836040516107b79190611209565b60405180910390a35050565b6001600160a01b03918216600090815260036020908152604080832093909416825291909152205460ff1690565b6001600160a01b0384166108175760405162461bcd60e51b815260040161021290611425565b61081f610a6d565b6001600160a01b0316856001600160a01b031614806108455750610845856101bf610a6d565b6108615760405162461bcd60e51b8152600401610212906113dc565b600061086b610a6d565b905061088b81878761087c88610bb4565b61088588610bb4565b87610514565b6108d2836040518060600160405280602a8152602001611703602a913960008781526002602090815260408083206001600160a01b038d1684529091529020549190610a71565b60008581526002602090815260408083206001600160a01b038b811685529252808320939093558716815220546109099084610a3b565b60008581526002602090815260408083206001600160a01b03808b168086529190935292819020939093559151909188811691908416907fc3d58168c5ae7397731d063d5bbf3d657854427343f4c083240f7aacaa2d0f629061096f90899089906115d4565b60405180910390a4610514818787878787610bf8565b61098d610a6d565b6000546001600160a01b039081169116146109ba5760405162461bcd60e51b8152600401610212906114bc565b6001600160a01b0381166109e05760405162461bcd60e51b81526004016102129061135f565b600080546040516001600160a01b03808516939216917f8be0079c531659141344cd1fd0a4f28419497f9722a3daafe3b4186f6b6457e091a3600080546001600160a01b0319166001600160a01b0392909216919091179055565b600082820183811015610a605760405162461bcd60e51b8152600401610212906113a5565b9392505050565b3b151590565b3390565b60008184841115610a955760405162461bcd60e51b81526004016102129190611214565b505050900390565b610aaf846001600160a01b0316610a67565b156105145760405163bc197c8160e01b81526001600160a01b0385169063bc197c8190610ae89089908990889088908890600401611125565b602060405180830381600087803b158015610b0257600080fd5b505af1925050508015610b32575060408051601f3d908101601f19168201909252610b2f91810190611058565b60015b610b7b57610b3e61162f565b80610b495750610b63565b8060405162461bcd60e51b81526004016102129190611214565b60405162461bcd60e51b815260040161021290611227565b6001600160e01b0319811663bc197c8160e01b14610bab5760405162461bcd60e51b81526004016102129061127b565b50505050505050565b604080516001808252818301909252606091829190602080830190803683370190505090508281600081518110610be757fe5b602090810291909101015292915050565b610c0a846001600160a01b0316610a67565b156105145760405163f23a6e6160e01b81526001600160a01b0385169063f23a6e6190610c439089908990889088908890600401611183565b602060405180830381600087803b158015610c5d57600080fd5b505af1925050508015610c8d575060408051601f3d908101601f19168201909252610c8a91810190611058565b60015b610c9957610b3e61162f565b6001600160e01b0319811663f23a6e6160e01b14610bab5760405162461bcd60e51b81526004016102129061127b565b80356001600160a01b038116811461024057600080fd5b600082601f830112610cf0578081fd5b8135610d03610cfe82611609565b6115e2565b818152915060208083019084810181840286018201871015610d2457600080fd5b60005b84811015610d4357813584529282019290820190600101610d27565b505050505092915050565b600082601f830112610d5e578081fd5b813567ffffffffffffffff811115610d74578182fd5b610d87601f8201601f19166020016115e2565b9150808252836020828501011115610d9e57600080fd5b8060208401602084013760009082016020015292915050565b600060208284031215610dc8578081fd5b610a608383610cc9565b60008060408385031215610de4578081fd5b610dee8484610cc9565b9150610dfd8460208501610cc9565b90509250929050565b600080600080600060a08688031215610e1d578081fd5b8535610e28816116d4565b94506020860135610e38816116d4565b9350604086013567ffffffffffffffff80821115610e54578283fd5b610e6089838a01610ce0565b94506060880135915080821115610e75578283fd5b610e8189838a01610ce0565b93506080880135915080821115610e96578283fd5b50610ea388828901610d4e565b9150509295509295909350565b600080600080600060a08688031215610ec7578081fd5b610ed18787610cc9565b9450610ee08760208801610cc9565b93506040860135925060608601359150608086013567ffffffffffffffff811115610f09578182fd5b610ea388828901610d4e565b60008060408385031215610f27578182fd5b610f318484610cc9565b915060208301358015158114610f45578182fd5b809150509250929050565b60008060408385031215610f62578182fd5b610f6c8484610cc9565b946020939093013593505050565b60008060408385031215610f8c578182fd5b823567ffffffffffffffff80821115610fa3578384fd5b818501915085601f830112610fb6578384fd5b8135610fc4610cfe82611609565b80828252602080830192508086018a828387028901011115610fe4578889fd5b8896505b8487101561100e57610ffa8b82610cc9565b845260019690960195928101928101610fe8565b509096508701359350505080821115611025578283fd5b5061103285828601610ce0565b9150509250929050565b60006020828403121561104d578081fd5b8135610a60816116ec565b600060208284031215611069578081fd5b8151610a60816116ec565b600060208284031215611085578081fd5b5035919050565b6000815180845260208085019450808401835b838110156110bb5781518752958201959082019060010161109f565b509495945050505050565b60008151808452815b818110156110eb576020818501810151868301820152016110cf565b818111156110fc5782602083870101525b50601f01601f19169290920160200192915050565b6001600160a01b0391909116815260200190565b6001600160a01b0386811682528516602082015260a0604082018190526000906111519083018661108c565b8281036060840152611163818661108c565b9050828103608084015261117781856110c6565b98975050505050505050565b6001600160a01b03868116825285166020820152604081018490526060810183905260a0608082018190526000906111bd908301846110c6565b979650505050505050565b600060208252610a60602083018461108c565b6000604082526111ee604083018561108c565b8281036020840152611200818561108c565b95945050505050565b901515815260200190565b600060208252610a6060208301846110c6565b60208082526034908201527f455243313135353a207472616e7366657220746f206e6f6e20455243313135356040820152732932b1b2b4bb32b91034b6b83632b6b2b73a32b960611b606082015260800190565b60208082526028908201527f455243313135353a204552433131353552656365697665722072656a656374656040820152676420746f6b656e7360c01b606082015260800190565b6020808252602b908201527f455243313135353a2062616c616e636520717565727920666f7220746865207a60408201526a65726f206164647265737360a81b606082015260800190565b60208082526031908201527f455243313135353a2062617463682062616c616e636520717565727920666f7260408201527020746865207a65726f206164647265737360781b606082015260800190565b60208082526026908201527f4f776e61626c653a206e6577206f776e657220697320746865207a65726f206160408201526564647265737360d01b606082015260800190565b6020808252601b908201527f536166654d6174683a206164646974696f6e206f766572666c6f770000000000604082015260600190565b60208082526029908201527f455243313135353a2063616c6c6572206973206e6f74206f776e6572206e6f7260408201526808185c1c1c9bdd995960ba1b606082015260800190565b60208082526025908201527f455243313135353a207472616e7366657220746f20746865207a65726f206164604082015264647265737360d81b606082015260800190565b60208082526032908201527f455243313135353a207472616e736665722063616c6c6572206973206e6f74206040820152711bdddb995c881b9bdc88185c1c1c9bdd995960721b606082015260800190565b6020808252818101527f4f776e61626c653a2063616c6c6572206973206e6f7420746865206f776e6572604082015260600190565b60208082526029908201527f455243313135353a2073657474696e6720617070726f76616c20737461747573604082015268103337b91039b2b63360b91b606082015260800190565b60208082526029908201527f455243313135353a206163636f756e747320616e6420696473206c656e677468604082015268040dad2e6dac2e8c6d60bb1b606082015260800190565b60208082526028908201527f455243313135353a2069647320616e6420616d6f756e7473206c656e677468206040820152670dad2e6dac2e8c6d60c31b606082015260800190565b90815260200190565b918252602082015260400190565b60405181810167ffffffffffffffff8111828210171561160157600080fd5b604052919050565b600067ffffffffffffffff82111561161f578081fd5b5060209081020190565b60e01c90565b600060443d101561163f576106f2565b600481823e6308c379a06116538251611629565b1461165d576106f2565b6040513d600319016004823e80513d67ffffffffffffffff816024840111818411171561168d57505050506106f2565b828401925082519150808211156116a757505050506106f2565b503d830160208284010111156116bf575050506106f2565b601f01601f1916810160200160405291505090565b6001600160a01b03811681146116e957600080fd5b50565b6001600160e01b0319811681146116e957600080fdfe455243313135353a20696e73756666696369656e742062616c616e636520666f72207472616e73666572a26469706673582212208c6cce7862a8372065929d197f2a546d454ede57847f9e924679d0132fbf8fd564736f6c634300060c003368747470733a2f2f67616d652e6578616d706c652f6170692f6974656d2f7b317d2e6a736f6e",
  "immutableReferences": {},
  "source": "pragma solidity 0.6.12;\npragma experimental ABIEncoderV2;\n\nimport {ShipsAndTechnology} from '../protocol/ShipsAndTechnology.sol';\n\n/* solium-disable-next-line */\ncontract TestShipsAndTechnology is ShipsAndTechnology {\n    constructor(address master) public ShipsAndTechnology(master) {}\n}\n",
  "sourcePath": "C:/Users/James/projects/tsuno-fe/contracts/testing/TestShipsAndTechnology.sol",
  "compiler": {
    "name": "solc",
    "version": "0.6.12+commit.27d51765.Emscripten.clang"
  },
  "schemaVersion": "3.2.5",
  "updatedAt": "2020-09-25T15:32:51.136Z",
  "networkType": "ethereum",
  "devdoc": {
    "kind": "dev",
    "methods": {
      "balanceOf(address,uint256)": {
        "details": "See {IERC1155-balanceOf}. Requirements: - `account` cannot be the zero address."
      },
      "balanceOfBatch(address[],uint256[])": {
        "details": "See {IERC1155-balanceOfBatch}. Requirements: - `accounts` and `ids` must have the same length."
      },
      "isApprovedForAll(address,address)": {
        "details": "See {IERC1155-isApprovedForAll}."
      },
      "owner()": {
        "details": "Returns the address of the current owner."
      },
      "renounceOwnership()": {
        "details": "Leaves the contract without owner. It will not be possible to call `onlyOwner` functions anymore. Can only be called by the current owner. NOTE: Renouncing ownership will leave the contract without an owner, thereby removing any functionality that is only available to the owner."
      },
      "safeBatchTransferFrom(address,address,uint256[],uint256[],bytes)": {
        "details": "See {IERC1155-safeBatchTransferFrom}."
      },
      "safeTransferFrom(address,address,uint256,uint256,bytes)": {
        "details": "See {IERC1155-safeTransferFrom}."
      },
      "setApprovalForAll(address,bool)": {
        "details": "See {IERC1155-setApprovalForAll}."
      },
      "supportsInterface(bytes4)": {
        "details": "See {IERC165-supportsInterface}. Time complexity O(1), guaranteed to always use less than 30 000 gas."
      },
      "transferOwnership(address)": {
        "details": "Transfers ownership of the contract to a new account (`newOwner`). Can only be called by the current owner."
      },
      "uri(uint256)": {
        "details": "See {IERC1155MetadataURI-uri}. This implementation returns the same URI for *all* token types. It relies on the token type ID substitution mechanism https://eips.ethereum.org/EIPS/eip-1155#metadata[defined in the EIP]. Clients calling this function must replace the `\\{id\\}` substring with the actual token type ID."
      }
    },
    "version": 1
  },
  "userdoc": {
    "kind": "user",
    "methods": {},
    "version": 1
  }
}