{
  "contractName": "TestSolar",
  "abi": [
    {
      "inputs": [
        {
          "internalType": "address",
          "name": "master",
          "type": "address"
        }
      ],
      "stateMutability": "nonpayable",
      "type": "constructor"
    },
    {
      "anonymous": false,
      "inputs": [
        {
          "indexed": true,
          "internalType": "address",
          "name": "owner",
          "type": "address"
        },
        {
          "indexed": true,
          "internalType": "address",
          "name": "approved",
          "type": "address"
        },
        {
          "indexed": true,
          "internalType": "uint256",
          "name": "tokenId",
          "type": "uint256"
        }
      ],
      "name": "Approval",
      "type": "event"
    },
    {
      "anonymous": false,
      "inputs": [
        {
          "indexed": true,
          "internalType": "address",
          "name": "owner",
          "type": "address"
        },
        {
          "indexed": true,
          "internalType": "address",
          "name": "operator",
          "type": "address"
        },
        {
          "indexed": false,
          "internalType": "bool",
          "name": "approved",
          "type": "bool"
        }
      ],
      "name": "ApprovalForAll",
      "type": "event"
    },
    {
      "anonymous": false,
      "inputs": [
        {
          "indexed": true,
          "internalType": "address",
          "name": "previousOwner",
          "type": "address"
        },
        {
          "indexed": true,
          "internalType": "address",
          "name": "newOwner",
          "type": "address"
        }
      ],
      "name": "OwnershipTransferred",
      "type": "event"
    },
    {
      "anonymous": false,
      "inputs": [
        {
          "indexed": true,
          "internalType": "address",
          "name": "from",
          "type": "address"
        },
        {
          "indexed": true,
          "internalType": "address",
          "name": "to",
          "type": "address"
        },
        {
          "indexed": true,
          "internalType": "uint256",
          "name": "tokenId",
          "type": "uint256"
        }
      ],
      "name": "Transfer",
      "type": "event"
    },
    {
      "inputs": [
        {
          "internalType": "address",
          "name": "to",
          "type": "address"
        },
        {
          "internalType": "uint256",
          "name": "tokenId",
          "type": "uint256"
        }
      ],
      "name": "approve",
      "outputs": [],
      "stateMutability": "nonpayable",
      "type": "function"
    },
    {
      "inputs": [
        {
          "internalType": "address",
          "name": "owner",
          "type": "address"
        }
      ],
      "name": "balanceOf",
      "outputs": [
        {
          "internalType": "uint256",
          "name": "",
          "type": "uint256"
        }
      ],
      "stateMutability": "view",
      "type": "function"
    },
    {
      "inputs": [],
      "name": "baseURI",
      "outputs": [
        {
          "internalType": "string",
          "name": "",
          "type": "string"
        }
      ],
      "stateMutability": "view",
      "type": "function"
    },
    {
      "inputs": [
        {
          "internalType": "uint256",
          "name": "tokenId",
          "type": "uint256"
        }
      ],
      "name": "getApproved",
      "outputs": [
        {
          "internalType": "address",
          "name": "",
          "type": "address"
        }
      ],
      "stateMutability": "view",
      "type": "function"
    },
    {
      "inputs": [
        {
          "internalType": "address",
          "name": "owner",
          "type": "address"
        },
        {
          "internalType": "address",
          "name": "operator",
          "type": "address"
        }
      ],
      "name": "isApprovedForAll",
      "outputs": [
        {
          "internalType": "bool",
          "name": "",
          "type": "bool"
        }
      ],
      "stateMutability": "view",
      "type": "function"
    },
    {
      "inputs": [
        {
          "internalType": "address",
          "name": "_to",
          "type": "address"
        },
        {
          "internalType": "uint256",
          "name": "_tokenId",
          "type": "uint256"
        }
      ],
      "name": "mint",
      "outputs": [],
      "stateMutability": "nonpayable",
      "type": "function"
    },
    {
      "inputs": [],
      "name": "name",
      "outputs": [
        {
          "internalType": "string",
          "name": "",
          "type": "string"
        }
      ],
      "stateMutability": "view",
      "type": "function"
    },
    {
      "inputs": [],
      "name": "owner",
      "outputs": [
        {
          "internalType": "address",
          "name": "",
          "type": "address"
        }
      ],
      "stateMutability": "view",
      "type": "function"
    },
    {
      "inputs": [
        {
          "internalType": "uint256",
          "name": "tokenId",
          "type": "uint256"
        }
      ],
      "name": "ownerOf",
      "outputs": [
        {
          "internalType": "address",
          "name": "",
          "type": "address"
        }
      ],
      "stateMutability": "view",
      "type": "function"
    },
    {
      "inputs": [],
      "name": "renounceOwnership",
      "outputs": [],
      "stateMutability": "nonpayable",
      "type": "function"
    },
    {
      "inputs": [
        {
          "internalType": "address",
          "name": "from",
          "type": "address"
        },
        {
          "internalType": "address",
          "name": "to",
          "type": "address"
        },
        {
          "internalType": "uint256",
          "name": "tokenId",
          "type": "uint256"
        }
      ],
      "name": "safeTransferFrom",
      "outputs": [],
      "stateMutability": "nonpayable",
      "type": "function"
    },
    {
      "inputs": [
        {
          "internalType": "address",
          "name": "from",
          "type": "address"
        },
        {
          "internalType": "address",
          "name": "to",
          "type": "address"
        },
        {
          "internalType": "uint256",
          "name": "tokenId",
          "type": "uint256"
        },
        {
          "internalType": "bytes",
          "name": "_data",
          "type": "bytes"
        }
      ],
      "name": "safeTransferFrom",
      "outputs": [],
      "stateMutability": "nonpayable",
      "type": "function"
    },
    {
      "inputs": [
        {
          "internalType": "address",
          "name": "operator",
          "type": "address"
        },
        {
          "internalType": "bool",
          "name": "approved",
          "type": "bool"
        }
      ],
      "name": "setApprovalForAll",
      "outputs": [],
      "stateMutability": "nonpayable",
      "type": "function"
    },
    {
      "inputs": [
        {
          "internalType": "address",
          "name": "_operator",
          "type": "address"
        }
      ],
      "name": "setOperator",
      "outputs": [],
      "stateMutability": "nonpayable",
      "type": "function"
    },
    {
      "inputs": [
        {
          "internalType": "bytes4",
          "name": "interfaceId",
          "type": "bytes4"
        }
      ],
      "name": "supportsInterface",
      "outputs": [
        {
          "internalType": "bool",
          "name": "",
          "type": "bool"
        }
      ],
      "stateMutability": "view",
      "type": "function"
    },
    {
      "inputs": [],
      "name": "symbol",
      "outputs": [
        {
          "internalType": "string",
          "name": "",
          "type": "string"
        }
      ],
      "stateMutability": "view",
      "type": "function"
    },
    {
      "inputs": [
        {
          "internalType": "uint256",
          "name": "index",
          "type": "uint256"
        }
      ],
      "name": "tokenByIndex",
      "outputs": [
        {
          "internalType": "uint256",
          "name": "",
          "type": "uint256"
        }
      ],
      "stateMutability": "view",
      "type": "function"
    },
    {
      "inputs": [
        {
          "internalType": "address",
          "name": "owner",
          "type": "address"
        },
        {
          "internalType": "uint256",
          "name": "index",
          "type": "uint256"
        }
      ],
      "name": "tokenOfOwnerByIndex",
      "outputs": [
        {
          "internalType": "uint256",
          "name": "",
          "type": "uint256"
        }
      ],
      "stateMutability": "view",
      "type": "function"
    },
    {
      "inputs": [
        {
          "internalType": "uint256",
          "name": "tokenId",
          "type": "uint256"
        }
      ],
      "name": "tokenURI",
      "outputs": [
        {
          "internalType": "string",
          "name": "",
          "type": "string"
        }
      ],
      "stateMutability": "view",
      "type": "function"
    },
    {
      "inputs": [],
      "name": "totalSupply",
      "outputs": [
        {
          "internalType": "uint256",
          "name": "",
          "type": "uint256"
        }
      ],
      "stateMutability": "view",
      "type": "function"
    },
    {
      "inputs": [
        {
          "internalType": "address",
          "name": "from",
          "type": "address"
        },
        {
          "internalType": "address",
          "name": "to",
          "type": "address"
        },
        {
          "internalType": "uint256",
          "name": "tokenId",
          "type": "uint256"
        }
      ],
      "name": "transferFrom",
      "outputs": [],
      "stateMutability": "nonpayable",
      "type": "function"
    },
    {
      "inputs": [
        {
          "internalType": "address",
          "name": "newOwner",
          "type": "address"
        }
      ],
      "name": "transferOwnership",
      "outputs": [],
      "stateMutability": "nonpayable",
      "type": "function"
    },
    {
      "inputs": [
        {
          "internalType": "address",
          "name": "_to",
          "type": "address"
        },
        {
          "internalType": "uint256",
          "name": "_amount",
          "type": "uint256"
        }
      ],
      "name": "testMint",
      "outputs": [],
      "stateMutability": "nonpayable",
      "type": "function"
    },
    {
      "inputs": [],
      "name": "getOperator",
      "outputs": [
        {
          "internalType": "address",
          "name": "",
          "type": "address"
        }
      ],
      "stateMutability": "view",
      "type": "function"
    }
  ],
  "bytecode": "0x60806040523480156200001157600080fd5b5060405162001ff638038062001ff6833981016040819052620000349162000266565b604080518082018252600a81526929b7b630b92a37b5b2b760b11b6020808301919091528251808401909352600583526429a7a620a960d91b908301528291620000856301ffc9a760e01b6200016b565b81516200009a906006906020850190620001ca565b508051620000b0906007906020840190620001ca565b50620000c36380ac58cd60e01b6200016b565b620000d5635b5e139f60e01b6200016b565b620000e763780e9d6360e01b6200016b565b5060009050620000f6620001c6565b600a80546001600160a01b0319166001600160a01b038316908117909155604051919250906000907f8be0079c531659141344cd1fd0a4f28419497f9722a3daafe3b4186f6b6457e0908290a350600b80546001600160a01b0319166001600160a01b039290921691909117905550620002cd565b6001600160e01b03198082161415620001a15760405162461bcd60e51b8152600401620001989062000296565b60405180910390fd5b6001600160e01b0319166000908152602081905260409020805460ff19166001179055565b3390565b828054600181600116156101000203166002900490600052602060002090601f016020900481019282601f106200020d57805160ff19168380011785556200023d565b828001600101855582156200023d579182015b828111156200023d57825182559160200191906001019062000220565b506200024b9291506200024f565b5090565b5b808211156200024b576000815560010162000250565b60006020828403121562000278578081fd5b81516001600160a01b03811681146200028f578182fd5b9392505050565b6020808252601c908201527f4552433136353a20696e76616c696420696e7465726661636520696400000000604082015260600190565b611d1980620002dd6000396000f3fe608060405234801561001057600080fd5b50600436106101585760003560e01c806370a08231116100c3578063b88d4fde1161007c578063b88d4fde146102b0578063c87b56dd146102c3578063e7f43c68146102d6578063e985e9c5146102de578063f28e093d146102f1578063f2fde38b1461030457610158565b806370a082311461025f578063715018a6146102725780638da5cb5b1461027a57806395d89b4114610282578063a22cb4651461028a578063b3ab15fb1461029d57610158565b80632f745c59116101155780632f745c59146101f857806340c10f191461020b57806342842e0e1461021e5780634f6ccce7146102315780636352211e146102445780636c0360eb1461025757610158565b806301ffc9a71461015d57806306fdde0314610186578063081812fc1461019b578063095ea7b3146101bb57806318160ddd146101d057806323b872dd146101e5575b600080fd5b61017061016b3660046115c8565b610317565b60405161017d9190611732565b60405180910390f35b61018e61033a565b60405161017d919061173d565b6101ae6101a9366004611600565b6103d0565b60405161017d91906116e1565b6101ce6101c936600461159e565b61041c565b005b6101d86104b4565b60405161017d9190611c28565b6101ce6101f336600461145d565b6104c5565b6101d861020636600461159e565b6104fd565b6101ce61021936600461159e565b610528565b6101ce61022c36600461145d565b61054d565b6101d861023f366004611600565b610568565b6101ae610252366004611600565b61057e565b61018e6105a6565b6101d861026d36600461140e565b610607565b6101ce610650565b6101ae6106cf565b61018e6106de565b6101ce610298366004611563565b61073f565b6101ce6102ab36600461140e565b61080d565b6101ce6102be36600461149d565b610845565b61018e6102d1366004611600565b610884565b6101ae6109ce565b6101706102ec366004611429565b6109dd565b6101ce6102ff36600461159e565b610a0b565b6101ce61031236600461140e565b610a15565b6001600160e01b0319811660009081526020819052604090205460ff165b919050565b60068054604080516020601f60026000196101006001881615020190951694909404938401819004810282018101909252828152606093909290918301828280156103c65780601f1061039b576101008083540402835291602001916103c6565b820191906000526020600020905b8154815290600101906020018083116103a957829003601f168201915b5050505050905090565b60006103db82610acc565b6104005760405162461bcd60e51b81526004016103f790611a46565b60405180910390fd5b506000908152600460205260409020546001600160a01b031690565b60006104278261057e565b9050806001600160a01b0316836001600160a01b0316141561045b5760405162461bcd60e51b81526004016103f790611b5f565b806001600160a01b031661046d610ad9565b6001600160a01b031614806104895750610489816102ec610ad9565b6104a55760405162461bcd60e51b81526004016103f790611928565b6104af8383610add565b505050565b60006104c06002610b4b565b905090565b6104d66104d0610ad9565b82610b56565b6104f25760405162461bcd60e51b81526004016103f790611ba0565b6104af838383610bdb565b6001600160a01b038216600090815260016020526040812061051f9083610ce9565b90505b92915050565b600b546001600160a01b0316331461053f57600080fd5b6105498282610cf5565b5050565b6104af83838360405180602001604052806000815250610845565b600080610576600284610d0f565b509392505050565b600061052282604051806060016040528060298152602001611cbb6029913960029190610d2b565b60098054604080516020601f60026000196101006001881615020190951694909404938401819004810282018101909252828152606093909290918301828280156103c65780601f1061039b576101008083540402835291602001916103c6565b60006001600160a01b03821661062f5760405162461bcd60e51b81526004016103f790611985565b6001600160a01b038216600090815260016020526040902061052290610b4b565b610658610ad9565b600a546001600160a01b039081169116146106855760405162461bcd60e51b81526004016103f790611a92565b600a546040516000916001600160a01b0316907f8be0079c531659141344cd1fd0a4f28419497f9722a3daafe3b4186f6b6457e0908390a3600a80546001600160a01b0319169055565b600a546001600160a01b031690565b60078054604080516020601f60026000196101006001881615020190951694909404938401819004810282018101909252828152606093909290918301828280156103c65780601f1061039b576101008083540402835291602001916103c6565b610747610ad9565b6001600160a01b0316826001600160a01b031614156107785760405162461bcd60e51b81526004016103f7906118a5565b8060056000610785610ad9565b6001600160a01b03908116825260208083019390935260409182016000908120918716808252919093529120805460ff1916921515929092179091556107c9610ad9565b6001600160a01b03167f17307eab39ab6107e8899845ad3d59bd9653f200f220920489ca2b5937696c31836040516108019190611732565b60405180910390a35050565b610815610ad9565b600a546001600160a01b039081169116146108425760405162461bcd60e51b81526004016103f790611a92565b50565b610856610850610ad9565b83610b56565b6108725760405162461bcd60e51b81526004016103f790611ba0565b61087e84848484610d42565b50505050565b606061088f82610acc565b6108ab5760405162461bcd60e51b81526004016103f790611b10565b60008281526008602090815260409182902080548351601f60026000196101006001861615020190931692909204918201849004840281018401909452808452606093928301828280156109405780601f1061091557610100808354040283529160200191610940565b820191906000526020600020905b81548152906001019060200180831161092357829003601f168201915b505060095493945050505060026000196101006001841615020190911604610969579050610335565b80511561099b57600981604051602001610984929190611660565b604051602081830303815290604052915050610335565b60096109a684610d75565b6040516020016109b7929190611660565b604051602081830303815290604052915050919050565b600b546001600160a01b031690565b6001600160a01b03918216600090815260056020908152604080832093909416825291909152205460ff1690565b6105498282610e50565b610a1d610ad9565b600a546001600160a01b03908116911614610a4a5760405162461bcd60e51b81526004016103f790611a92565b6001600160a01b038116610a705760405162461bcd60e51b81526004016103f7906117e4565b600a546040516001600160a01b038084169216907f8be0079c531659141344cd1fd0a4f28419497f9722a3daafe3b4186f6b6457e090600090a3600a80546001600160a01b0319166001600160a01b0392909216919091179055565b6000610522600283610f14565b3390565b600081815260046020526040902080546001600160a01b0319166001600160a01b0384169081179091558190610b128261057e565b6001600160a01b03167f8c5be1e5ebec7d5bd14f71427d1e84f3dd0314c0f7b2291e5b200ac8c7c3b92560405160405180910390a45050565b600061052282610f20565b6000610b6182610acc565b610b7d5760405162461bcd60e51b81526004016103f7906118dc565b6000610b888361057e565b9050806001600160a01b0316846001600160a01b03161480610bc35750836001600160a01b0316610bb8846103d0565b6001600160a01b0316145b80610bd35750610bd381856109dd565b949350505050565b826001600160a01b0316610bee8261057e565b6001600160a01b031614610c145760405162461bcd60e51b81526004016103f790611ac7565b6001600160a01b038216610c3a5760405162461bcd60e51b81526004016103f790611861565b610c458383836104af565b610c50600082610add565b6001600160a01b0383166000908152600160205260409020610c729082610f24565b506001600160a01b0382166000908152600160205260409020610c959082610f30565b50610ca260028284610f3c565b5080826001600160a01b0316846001600160a01b03167fddf252ad1be2c89b69c2b068fc378daa952ba7f163c4a11628f55a4df523b3ef60405160405180910390a4505050565b600061051f8383610f52565b610549828260405180602001604052806000815250610f97565b6000808080610d1e8686610fca565b9097909650945050505050565b6000610d38848484611026565b90505b9392505050565b610d4d848484610bdb565b610d5984848484611085565b61087e5760405162461bcd60e51b81526004016103f790611792565b606081610d9a57506040805180820190915260018152600360fc1b6020820152610335565b8160005b8115610db257600101600a82049150610d9e565b60608167ffffffffffffffff81118015610dcb57600080fd5b506040519080825280601f01601f191660200182016040528015610df6576020820181803683370190505b50859350905060001982015b8315610e4757600a840660300160f81b82828060019003935081518110610e2557fe5b60200101906001600160f81b031916908160001a905350600a84049350610e02565b50949350505050565b6001600160a01b038216610e765760405162461bcd60e51b81526004016103f790611a11565b610e7f81610acc565b15610e9c5760405162461bcd60e51b81526004016103f79061182a565b610ea8600083836104af565b6001600160a01b0382166000908152600160205260409020610eca9082610f30565b50610ed760028284610f3c565b5060405181906001600160a01b038416906000907fddf252ad1be2c89b69c2b068fc378daa952ba7f163c4a11628f55a4df523b3ef908290a45050565b600061051f8383611164565b5490565b600061051f838361117c565b600061051f8383611242565b6000610d3884846001600160a01b03851661128c565b81546000908210610f755760405162461bcd60e51b81526004016103f790611750565b826000018281548110610f8457fe5b9060005260206000200154905092915050565b610fa18383610e50565b610fae6000848484611085565b6104af5760405162461bcd60e51b81526004016103f790611792565b815460009081908310610fef5760405162461bcd60e51b81526004016103f7906119cf565b600084600001848154811061100057fe5b906000526020600020906002020190508060000154816001015492509250509250929050565b600082815260018401602052604081205482816110565760405162461bcd60e51b81526004016103f7919061173d565b5084600001600182038154811061106957fe5b9060005260206000209060020201600101549150509392505050565b6000611099846001600160a01b0316611323565b6110a557506001610bd3565b606061112d630a85bd0160e11b6110ba610ad9565b8887876040516024016110d094939291906116f5565b604051602081830303815290604052906001600160e01b0319166020820180516001600160e01b038381831617835250505050604051806060016040528060328152602001611c89603291396001600160a01b0388169190611329565b905060008180602001905181019061114591906115e4565b6001600160e01b031916630a85bd0160e11b1492505050949350505050565b60009081526001919091016020526040902054151590565b6000818152600183016020526040812054801561123857835460001980830191908101906000908790839081106111af57fe5b90600052602060002001549050808760000184815481106111cc57fe5b6000918252602080832090910192909255828152600189810190925260409020908401905586548790806111fc57fe5b60019003818190600052602060002001600090559055866001016000878152602001908152602001600020600090556001945050505050610522565b6000915050610522565b600061124e8383611164565b61128457508154600181810184556000848152602080822090930184905584548482528286019093526040902091909155610522565b506000610522565b6000828152600184016020526040812054806112f1575050604080518082018252838152602080820184815286546001818101895560008981528481209551600290930290950191825591519082015586548684528188019092529290912055610d3b565b8285600001600183038154811061130457fe5b9060005260206000209060020201600101819055506000915050610d3b565b3b151590565b6060610d388484600085606061133e85611323565b61135a5760405162461bcd60e51b81526004016103f790611bf1565b60006060866001600160a01b031685876040516113779190611644565b60006040518083038185875af1925050503d80600081146113b4576040519150601f19603f3d011682016040523d82523d6000602084013e6113b9565b606091505b509150915081156113cd579150610bd39050565b8051156113dd5780518082602001fd5b8360405162461bcd60e51b81526004016103f7919061173d565b80356001600160a01b038116811461052257600080fd5b60006020828403121561141f578081fd5b61051f83836113f7565b6000806040838503121561143b578081fd5b61144584846113f7565b915061145484602085016113f7565b90509250929050565b600080600060608486031215611471578081fd5b833561147c81611c5d565b9250602084013561148c81611c5d565b929592945050506040919091013590565b600080600080608085870312156114b2578081fd5b6114bc86866113f7565b935060206114cc878288016113f7565b935060408601359250606086013567ffffffffffffffff808211156114ef578384fd5b818801915088601f830112611502578384fd5b813581811115611510578485fd5b604051601f8201601f191681018501838111828210171561152f578687fd5b60405281815283820185018b1015611545578586fd5b81858501868301379081019093019390935250939692955090935050565b60008060408385031215611575578182fd5b61157f84846113f7565b915060208301358015158114611593578182fd5b809150509250929050565b600080604083850312156115b0578182fd5b6115ba84846113f7565b946020939093013593505050565b6000602082840312156115d9578081fd5b8135610d3b81611c72565b6000602082840312156115f5578081fd5b8151610d3b81611c72565b600060208284031215611611578081fd5b5035919050565b60008151808452611630816020860160208601611c31565b601f01601f19169290920160200192915050565b60008251611656818460208701611c31565b9190910192915050565b600080845460018082166000811461167f5760018114611696576116c5565b60ff198316865260028304607f16860193506116c5565b600283048886526020808720875b838110156116bd5781548a8201529085019082016116a4565b505050860193505b50505083516116d8818360208801611c31565b01949350505050565b6001600160a01b0391909116815260200190565b6001600160a01b038581168252841660208201526040810183905260806060820181905260009061172890830184611618565b9695505050505050565b901515815260200190565b60006020825261051f6020830184611618565b60208082526022908201527f456e756d657261626c655365743a20696e646578206f7574206f6620626f756e604082015261647360f01b606082015260800190565b60208082526032908201527f4552433732313a207472616e7366657220746f206e6f6e20455243373231526560408201527131b2b4bb32b91034b6b83632b6b2b73a32b960711b606082015260800190565b60208082526026908201527f4f776e61626c653a206e6577206f776e657220697320746865207a65726f206160408201526564647265737360d01b606082015260800190565b6020808252601c908201527f4552433732313a20746f6b656e20616c7265616479206d696e74656400000000604082015260600190565b60208082526024908201527f4552433732313a207472616e7366657220746f20746865207a65726f206164646040820152637265737360e01b606082015260800190565b60208082526019908201527f4552433732313a20617070726f766520746f2063616c6c657200000000000000604082015260600190565b6020808252602c908201527f4552433732313a206f70657261746f7220717565727920666f72206e6f6e657860408201526b34b9ba32b73a103a37b5b2b760a11b606082015260800190565b60208082526038908201527f4552433732313a20617070726f76652063616c6c6572206973206e6f74206f7760408201527f6e6572206e6f7220617070726f76656420666f7220616c6c0000000000000000606082015260800190565b6020808252602a908201527f4552433732313a2062616c616e636520717565727920666f7220746865207a65604082015269726f206164647265737360b01b606082015260800190565b60208082526022908201527f456e756d657261626c654d61703a20696e646578206f7574206f6620626f756e604082015261647360f01b606082015260800190565b6020808252818101527f4552433732313a206d696e7420746f20746865207a65726f2061646472657373604082015260600190565b6020808252602c908201527f4552433732313a20617070726f76656420717565727920666f72206e6f6e657860408201526b34b9ba32b73a103a37b5b2b760a11b606082015260800190565b6020808252818101527f4f776e61626c653a2063616c6c6572206973206e6f7420746865206f776e6572604082015260600190565b60208082526029908201527f4552433732313a207472616e73666572206f6620746f6b656e2074686174206960408201526839903737ba1037bbb760b91b606082015260800190565b6020808252602f908201527f4552433732314d657461646174613a2055524920717565727920666f72206e6f60408201526e3732bc34b9ba32b73a103a37b5b2b760891b606082015260800190565b60208082526021908201527f4552433732313a20617070726f76616c20746f2063757272656e74206f776e656040820152603960f91b606082015260800190565b60208082526031908201527f4552433732313a207472616e736665722063616c6c6572206973206e6f74206f6040820152701ddb995c881b9bdc88185c1c1c9bdd9959607a1b606082015260800190565b6020808252601d908201527f416464726573733a2063616c6c20746f206e6f6e2d636f6e7472616374000000604082015260600190565b90815260200190565b60005b83811015611c4c578181015183820152602001611c34565b8381111561087e5750506000910152565b6001600160a01b038116811461084257600080fd5b6001600160e01b03198116811461084257600080fdfe4552433732313a207472616e7366657220746f206e6f6e20455243373231526563656976657220696d706c656d656e7465724552433732313a206f776e657220717565727920666f72206e6f6e6578697374656e7420746f6b656ea2646970667358221220867cb385656d08adb8322309dbc65a9457064357ecc1ffcdde3c06931b5273a364736f6c634300060c0033",
  "immutableReferences": {},
  "source": "pragma solidity 0.6.12;\npragma experimental ABIEncoderV2;\n\nimport {SolarToken} from '../protocol/SolarToken.sol';\n\n/* solium-disable-next-line */\ncontract TestSolar is SolarToken {\n    function testMint(address _to, uint256 _amount) public {\n        _mint(_to, _amount);\n    }\n\n    constructor(address master) public SolarToken(master) {}\n\n    function getOperator() public view returns (address) {\n        return operator;\n    }\n}\n",
  "sourcePath": "C:/Users/James/projects/tsuno-fe/contracts/testing/TestSolar.sol",
  "compiler": {
    "name": "solc",
    "version": "0.6.12+commit.27d51765.Emscripten.clang"
  },
  "schemaVersion": "3.2.5",
  "updatedAt": "2020-09-25T15:32:51.134Z",
  "networkType": "ethereum",
  "devdoc": {
    "kind": "dev",
    "methods": {
      "approve(address,uint256)": {
        "details": "See {IERC721-approve}."
      },
      "balanceOf(address)": {
        "details": "See {IERC721-balanceOf}."
      },
      "baseURI()": {
        "details": "Returns the base URI set via {_setBaseURI}. This will be automatically added as a prefix in {tokenURI} to each token's URI, or to the token ID if no specific URI is set for that token ID."
      },
      "getApproved(uint256)": {
        "details": "See {IERC721-getApproved}."
      },
      "isApprovedForAll(address,address)": {
        "details": "See {IERC721-isApprovedForAll}."
      },
      "name()": {
        "details": "See {IERC721Metadata-name}."
      },
      "owner()": {
        "details": "Returns the address of the current owner."
      },
      "ownerOf(uint256)": {
        "details": "See {IERC721-ownerOf}."
      },
      "renounceOwnership()": {
        "details": "Leaves the contract without owner. It will not be possible to call `onlyOwner` functions anymore. Can only be called by the current owner. NOTE: Renouncing ownership will leave the contract without an owner, thereby removing any functionality that is only available to the owner."
      },
      "safeTransferFrom(address,address,uint256)": {
        "details": "See {IERC721-safeTransferFrom}."
      },
      "safeTransferFrom(address,address,uint256,bytes)": {
        "details": "See {IERC721-safeTransferFrom}."
      },
      "setApprovalForAll(address,bool)": {
        "details": "See {IERC721-setApprovalForAll}."
      },
      "supportsInterface(bytes4)": {
        "details": "See {IERC165-supportsInterface}. Time complexity O(1), guaranteed to always use less than 30 000 gas."
      },
      "symbol()": {
        "details": "See {IERC721Metadata-symbol}."
      },
      "tokenByIndex(uint256)": {
        "details": "See {IERC721Enumerable-tokenByIndex}."
      },
      "tokenOfOwnerByIndex(address,uint256)": {
        "details": "See {IERC721Enumerable-tokenOfOwnerByIndex}."
      },
      "tokenURI(uint256)": {
        "details": "See {IERC721Metadata-tokenURI}."
      },
      "totalSupply()": {
        "details": "See {IERC721Enumerable-totalSupply}."
      },
      "transferFrom(address,address,uint256)": {
        "details": "See {IERC721-transferFrom}."
      },
      "transferOwnership(address)": {
        "details": "Transfers ownership of the contract to a new account (`newOwner`). Can only be called by the current owner."
      }
    },
    "version": 1
  },
  "userdoc": {
    "kind": "user",
    "methods": {},
    "version": 1
  }
}