{
  "contractName": "TestGameOperations",
  "abi": [
    {
      "anonymous": false,
      "inputs": [
        {
          "indexed": false,
          "internalType": "address",
          "name": "attacker",
          "type": "address"
        },
        {
          "indexed": false,
          "internalType": "uint256",
          "name": "attackerOffense",
          "type": "uint256"
        },
        {
          "indexed": false,
          "internalType": "uint256",
          "name": "attackerDefense",
          "type": "uint256"
        },
        {
          "indexed": false,
          "internalType": "address",
          "name": "defender",
          "type": "address"
        },
        {
          "indexed": false,
          "internalType": "uint256",
          "name": "defenderOffense",
          "type": "uint256"
        },
        {
          "indexed": false,
          "internalType": "uint256",
          "name": "defenderDefense",
          "type": "uint256"
        }
      ],
      "name": "BattleStarted",
      "type": "event"
    },
    {
      "anonymous": false,
      "inputs": [
        {
          "indexed": false,
          "internalType": "bool",
          "name": "result",
          "type": "bool"
        },
        {
          "indexed": false,
          "internalType": "uint256",
          "name": "attackersHealth",
          "type": "uint256"
        },
        {
          "indexed": false,
          "internalType": "uint256",
          "name": "defendersHealth",
          "type": "uint256"
        }
      ],
      "name": "LogBattle",
      "type": "event"
    },
    {
      "anonymous": false,
      "inputs": [
        {
          "indexed": false,
          "internalType": "uint8",
          "name": "quadrant",
          "type": "uint8"
        },
        {
          "indexed": false,
          "internalType": "uint8",
          "name": "district",
          "type": "uint8"
        },
        {
          "indexed": false,
          "internalType": "uint8",
          "name": "sector",
          "type": "uint8"
        },
        {
          "indexed": false,
          "internalType": "uint256",
          "name": "star",
          "type": "uint256"
        }
      ],
      "name": "LogMove",
      "type": "event"
    },
    {
      "anonymous": false,
      "inputs": [
        {
          "indexed": false,
          "internalType": "uint256",
          "name": "aDamage",
          "type": "uint256"
        },
        {
          "indexed": false,
          "internalType": "uint256",
          "name": "dDamage",
          "type": "uint256"
        },
        {
          "indexed": false,
          "internalType": "uint256",
          "name": "aHealth",
          "type": "uint256"
        },
        {
          "indexed": false,
          "internalType": "uint256",
          "name": "dHealth",
          "type": "uint256"
        }
      ],
      "name": "LogRound",
      "type": "event"
    },
    {
      "anonymous": false,
      "inputs": [
        {
          "indexed": true,
          "internalType": "address",
          "name": "to",
          "type": "address"
        },
        {
          "indexed": false,
          "internalType": "uint8",
          "name": "systemType",
          "type": "uint8"
        }
      ],
      "name": "LogStarSystemDiscovery",
      "type": "event"
    },
    {
      "anonymous": false,
      "inputs": [
        {
          "indexed": false,
          "internalType": "uint256",
          "name": "random",
          "type": "uint256"
        }
      ],
      "name": "Random",
      "type": "event"
    },
    {
      "anonymous": false,
      "inputs": [
        {
          "indexed": false,
          "internalType": "address",
          "name": "a",
          "type": "address"
        },
        {
          "indexed": false,
          "internalType": "address",
          "name": "b",
          "type": "address"
        },
        {
          "indexed": false,
          "internalType": "address",
          "name": "c",
          "type": "address"
        },
        {
          "indexed": false,
          "internalType": "address",
          "name": "d",
          "type": "address"
        }
      ],
      "name": "TestAddress",
      "type": "event"
    },
    {
      "anonymous": false,
      "inputs": [
        {
          "indexed": false,
          "internalType": "uint256",
          "name": "a",
          "type": "uint256"
        },
        {
          "indexed": false,
          "internalType": "uint256",
          "name": "b",
          "type": "uint256"
        }
      ],
      "name": "TestUint",
      "type": "event"
    },
    {
      "inputs": [
        {
          "internalType": "address",
          "name": "defender",
          "type": "address"
        },
        {
          "internalType": "uint8",
          "name": "turns",
          "type": "uint8"
        }
      ],
      "name": "attack",
      "outputs": [],
      "stateMutability": "nonpayable",
      "type": "function"
    },
    {
      "inputs": [
        {
          "internalType": "enum Types.SystemType",
          "name": "systemType",
          "type": "uint8"
        }
      ],
      "name": "getRandomYield",
      "outputs": [
        {
          "internalType": "uint16",
          "name": "rand",
          "type": "uint16"
        }
      ],
      "stateMutability": "view",
      "type": "function",
      "constant": true
    },
    {
      "inputs": [
        {
          "internalType": "address",
          "name": "_gameStorage",
          "type": "address"
        }
      ],
      "name": "initialize",
      "outputs": [],
      "stateMutability": "nonpayable",
      "type": "function"
    },
    {
      "inputs": [
        {
          "internalType": "uint256[]",
          "name": "_ships",
          "type": "uint256[]"
        },
        {
          "internalType": "uint256[]",
          "name": "_amounts",
          "type": "uint256[]"
        }
      ],
      "name": "lockInMasterFleet",
      "outputs": [],
      "stateMutability": "nonpayable",
      "type": "function"
    },
    {
      "inputs": [
        {
          "components": [
            {
              "internalType": "uint8",
              "name": "quadrant",
              "type": "uint8"
            },
            {
              "internalType": "uint8",
              "name": "sector",
              "type": "uint8"
            },
            {
              "internalType": "uint8",
              "name": "district",
              "type": "uint8"
            },
            {
              "internalType": "uint256",
              "name": "star",
              "type": "uint256"
            }
          ],
          "internalType": "struct Types.Position",
          "name": "to",
          "type": "tuple"
        }
      ],
      "name": "move",
      "outputs": [],
      "stateMutability": "nonpayable",
      "type": "function"
    },
    {
      "inputs": [
        {
          "internalType": "uint256",
          "name": "_seed",
          "type": "uint256"
        }
      ],
      "name": "setSeed",
      "outputs": [],
      "stateMutability": "nonpayable",
      "type": "function"
    },
    {
      "inputs": [
        {
          "internalType": "uint256[]",
          "name": "_ships",
          "type": "uint256[]"
        },
        {
          "internalType": "uint256[]",
          "name": "_amounts",
          "type": "uint256[]"
        }
      ],
      "name": "withdrawMasterFleet",
      "outputs": [],
      "stateMutability": "nonpayable",
      "type": "function"
    },
    {
      "inputs": [
        {
          "internalType": "enum Types.SystemType",
          "name": "starSystem",
          "type": "uint8"
        }
      ],
      "name": "testAiFleetAttack",
      "outputs": [],
      "stateMutability": "nonpayable",
      "type": "function"
    },
    {
      "inputs": [
        {
          "internalType": "enum Types.SystemType",
          "name": "systemType",
          "type": "uint8"
        }
      ],
      "name": "testFhrDiscovery",
      "outputs": [],
      "stateMutability": "nonpayable",
      "type": "function"
    },
    {
      "inputs": [
        {
          "internalType": "uint256",
          "name": "rand",
          "type": "uint256"
        },
        {
          "internalType": "uint256[]",
          "name": "ships",
          "type": "uint256[]"
        },
        {
          "internalType": "uint256[]",
          "name": "amounts",
          "type": "uint256[]"
        }
      ],
      "name": "testSatDiscovery",
      "outputs": [],
      "stateMutability": "nonpayable",
      "type": "function"
    },
    {
      "inputs": [
        {
          "internalType": "address",
          "name": "master",
          "type": "address"
        },
        {
          "internalType": "uint256[]",
          "name": "ids",
          "type": "uint256[]"
        },
        {
          "internalType": "uint256[]",
          "name": "amounts",
          "type": "uint256[]"
        }
      ],
      "name": "testUpdateMasterFleet",
      "outputs": [],
      "stateMutability": "nonpayable",
      "type": "function"
    }
  ],
  "bytecode": "0x6080604052600160345534801561001557600080fd5b506138ad806100256000396000f3fe608060405234801561001057600080fd5b50600436106100a85760003560e01c80636ebb6d80116100715780636ebb6d80146101245780638c896042146101375780638e905cfd1461014a578063c32a50f91461015d578063c4d66de814610170578063e439e86314610183576100a8565b80626c2f3a146100ad5780630484b441146100d657806308573840146100eb57806348a2ac7f146100fe57806369145a2414610111575b600080fd5b6100c06100bb3660046130d5565b610196565b6040516100cd919061375c565b60405180910390f35b6100e96100e4366004612e69565b61019c565b005b6100e96100f936600461301d565b6101a1565b6100e961010c36600461301d565b61020b565b6100e961011f3660046130d5565b61023f565b6100e9610132366004612edc565b61033e565b6100e96101453660046130d5565b610c96565b6100e961015836600461310d565b611062565b6100e961016b3660046131cf565b6113a5565b6100e961017e366004612e31565b6113aa565b6100e96101913660046131ff565b611725565b50600090565b505050565b603a5460405163feba2dd560e01b81526001600160a01b039091169063feba2dd5906101d590339086908690600401613349565b600060405180830381600087803b1580156101ef57600080fd5b505af1158015610203573d6000803e3d6000fd5b505050505050565b603a5460405163ba1edf1760e01b81526001600160a01b039091169063ba1edf17906101d590339086908690600401613349565b603954604051636a2a747360e01b815260009182916001600160a01b0390911690636a2a747390610274908690600401613503565b6040805180830381600087803b15801561028d57600080fd5b505af11580156102a1573d6000803e3d6000fd5b505050506040513d601f19601f820116820180604052508101906102c59190613231565b915091506000806060806102d833611790565b93509350935093507f39c31677b1650d5b983fb38bf1ee25e9ca25658b8bdfb9263e59651183b48368338787308888604051610319969594939291906133bf565b60405180910390a16000610333878787876001600a611ab1565b505050505050505050565b6001600160a01b0382163314156103705760405162461bcd60e51b81526004016103679061364d565b60405180910390fd5b6001600160a01b0382161580159061038757503315155b6103a35760405162461bcd60e51b815260040161036790613587565b6103ab612c81565b603954604051633495a7e360e11b81526001600160a01b039091169063692b4fc6906103db903390600401613335565b60806040518083038186803b1580156103f357600080fd5b505afa158015610407573d6000803e3d6000fd5b505050506040513d601f19601f8201168201806040525081019061042b919061316e565b8152603954604051633495a7e360e11b81526001600160a01b039091169063692b4fc69061045d908690600401613335565b60806040518083038186803b15801561047557600080fd5b505afa158015610489573d6000803e3d6000fd5b505050506040513d601f19601f820116820180604052508101906104ad919061316e565b60a0820181905281516104bf91611c63565b6104db5760405162461bcd60e51b815260040161036790613684565b6104e433611790565b608085015260608401526040830152602082015261050183611790565b61012085015261010084015260e0830181905260c08301829052602083015160408085015190517f39c31677b1650d5b983fb38bf1ee25e9ca25658b8bdfb9263e59651183b483689461055b94339493928a9291906133bf565b60405180910390a16000610584826020015183604001518460c001518560e00151600188611ab1565b90508015610a1c5760005b82606001515181101561061b576000836060015182815181106105ae57fe5b6020026020010151116105c25760006105f8565b6105f860646105f26014866060015185815181106105dc57fe5b6020026020010151611cc090919063ffffffff16565b90611cfa565b8360600151828151811061060857fe5b602090810291909101015260010161058f565b50603a546080830151606084015160405163feba2dd560e01b81526001600160a01b039093169263feba2dd592610656923392600401613349565b600060405180830381600087803b15801561067057600080fd5b505af1158015610684573d6000803e3d6000fd5b505050508161010001515167ffffffffffffffff811180156106a557600080fd5b506040519080825280602002602001820160405280156106cf578160200160208202803683370190505b5061014083015260005b826101000151518110156107c257600061070460646105f2604687610100015186815181106105dc57fe5b90506000846101000151838151811061071957fe5b60200260200101511161072d57600061072f565b805b846101000151838151811061074057fe5b60200260200101818152505080846101000151838151811061075e57fe5b60200260200101511161077257600061079d565b61079d81856101000151848151811061078757fe5b6020026020010151611d3c90919063ffffffff16565b84610140015183815181106107ae57fe5b6020908102919091010152506001016106d9565b50603954604051634ec7272b60e11b81526000916001600160a01b031690639d8e4e56906107f4908890600401613335565b60206040518083038186803b15801561080c57600080fd5b505afa158015610820573d6000803e3d6000fd5b505050506040513d601f19601f8201168201806040525081019061084491906131e7565b905080156109a8576035546040516331a9108f60e11b81526000916001600160a01b031690636352211e9061087d90859060040161376b565b60206040518083038186803b15801561089557600080fd5b505afa1580156108a9573d6000803e3d6000fd5b505050506040513d601f19601f820116820180604052508101906108cd9190612e4d565b603a5461012086015161014087015160405163ba1edf1760e01b81529394506001600160a01b039092169263ba1edf179261090f928692909190600401613349565b600060405180830381600087803b15801561092957600080fd5b505af115801561093d573d6000803e3d6000fd5b5050603a54604051624f9d7360e21b81526001600160a01b03909116925063013e75cc9150610974908490339087906004016133f9565b600060405180830381600087803b15801561098e57600080fd5b505af11580156109a2573d6000803e3d6000fd5b50505050505b603a5461012084015161010085015160405163feba2dd560e01b81526001600160a01b039093169263feba2dd5926109e4928a92600401613349565b600060405180830381600087803b1580156109fe57600080fd5b505af1158015610a12573d6000803e3d6000fd5b5050505050610c90565b60005b826060015151811015610a8f57600083606001518281518110610a3e57fe5b602002602001015111610a52576000610a6c565b610a6c60646105f2605a866060015185815181106105dc57fe5b83606001518281518110610a7c57fe5b6020908102919091010152600101610a1f565b50603a546080830151606084015160405163feba2dd560e01b81526001600160a01b039093169263feba2dd592610aca923392600401613349565b600060405180830381600087803b158015610ae457600080fd5b505af1158015610af8573d6000803e3d6000fd5b505050508161010001515167ffffffffffffffff81118015610b1957600080fd5b50604051908082528060200260200182016040528015610b43578160200160208202803683370190505b5061014083015260005b82610100015151811015610c20576000610b7860646105f2600a87610100015186815181106105dc57fe5b905060008461010001518381518110610b8d57fe5b602002602001015111610ba1576000610ba3565b805b8461010001518381518110610bb457fe5b602002602001018181525050808461010001518381518110610bd257fe5b602002602001015111610be6576000610bfb565b610bfb81856101000151848151811061078757fe5b8461014001518381518110610c0c57fe5b602090810291909101015250600101610b4d565b50603a5461012083015161010084015160405163feba2dd560e01b81526001600160a01b039093169263feba2dd592610c5d928992600401613349565b600060405180830381600087803b158015610c7757600080fd5b505af1158015610c8b573d6000803e3d6000fd5b505050505b50505050565b603954604051634f4815d760e01b815260009182916001600160a01b0390911690634f4815d790610ccb908690600401613503565b6040805180830381600087803b158015610ce457600080fd5b505af1158015610cf8573d6000803e3d6000fd5b505050506040513d601f19601f82011682018060405250810190610d1c9190613231565b915091506000610d2c8383611d7e565b90506000603960009054906101000a90046001600160a01b03166001600160a01b03166304d5aae16040518163ffffffff1660e01b8152600401602060405180830381600087803b158015610d8057600080fd5b505af1158015610d94573d6000803e3d6000fd5b505050506040513d601f19601f82011682018060405250810190610db891906131e7565b90507f4a365bf35c0ae660ba79119f99f0fd297f42d3621f9f584e393f23ca68df210e8282604051610deb9291906137a4565b60405180910390a1603a5460405163a080ee1560e01b81526001600160a01b039091169063a080ee1590610e2590339085906004016133a6565b600060405180830381600087803b158015610e3f57600080fd5b505af1158015610e53573d6000803e3d6000fd5b50506038546036546035546037546040517f881c3ecc41e1e3d937a18bd3f1fc3af87a52f725119402eb778cd5592c861efc9650610ea995506001600160a01b039485169493841693928316929091169061341d565b60405180910390a16038546036546035546037546040516000946001600160a01b03908116946320515251948894610ef59488949384169392831692909116908b908790602401613448565b60408051601f198184030181529181526020820180516001600160e01b031663d7c41c7960e01b1790525160e084901b6001600160e01b0319168152610f3f92919060040161378b565b602060405180830381600087803b158015610f5957600080fd5b505af1158015610f6d573d6000803e3d6000fd5b505050506040513d601f19601f82011682018060405250810190610f919190612e4d565b60395460405163f52084e960e01b81529192506001600160a01b03169063f52084e990610fc49085908590600401613774565b600060405180830381600087803b158015610fde57600080fd5b505af1158015610ff2573d6000803e3d6000fd5b50506039546040516375997ce960e01b81526001600160a01b0390911692506375997ce991506110289085908590600401613774565b600060405180830381600087803b15801561104257600080fd5b505af1158015611056573d6000803e3d6000fd5b50505050505050505050565b6110f181603960009054906101000a90046001600160a01b03166001600160a01b031663cf677f576040518163ffffffff1660e01b815260040160806040518083038186803b1580156110b457600080fd5b505afa1580156110c8573d6000803e3d6000fd5b505050506040513d601f19601f820116820180604052508101906110ec919061316e565b611de0565b61110d5760405162461bcd60e51b81526004016103679061352a565b611115612ce7565b603954604051633495a7e360e11b81526001600160a01b039091169063692b4fc690611145903390600401613335565b60806040518083038186803b15801561115d57600080fd5b505afa158015611171573d6000803e3d6000fd5b505050506040513d601f19601f82011682018060405250810190611195919061316e565b90506111a081611e93565b1561122e57603960009054906101000a90046001600160a01b03166001600160a01b0316636d18c9706040518163ffffffff1660e01b815260040160806040518083038186803b1580156111f357600080fd5b505afa158015611207573d6000803e3d6000fd5b505050506040513d601f19601f8201168201806040525081019061122b919061316e565b90505b6112388282611c63565b156112555760405162461bcd60e51b8152600401610367906136e1565b60395460405163bedc6d2760e01b81526001600160a01b039091169063bedc6d27906112879033908690600401613389565b600060405180830381600087803b1580156112a157600080fd5b505af11580156112b5573d6000803e3d6000fd5b505050507f067ed149b8be43d30a47ed69bc882367f66239804079b28dd002d36fc3f46ed482600001518360400151846020015185606001516040516112fe94939291906137db565b60405180910390a16039546040516348bed1c960e11b81526000916001600160a01b03169063917da39290611337908690600401613729565b60206040518083038186803b15801561134f57600080fd5b505afa158015611363573d6000803e3d6000fd5b505050506040513d601f19601f8201168201806040525081019061138791906130f1565b601481111561139257fe5b14156113a1576113a182611ecb565b5050565b603355565b600054610100900460ff16806113c357506113c36126f8565b806113d1575060005460ff16155b6113ed5760405162461bcd60e51b8152600401610367906135ff565b600054610100900460ff16158015611418576000805460ff1961ff0019909116610100171660011790555b603980546001600160a01b0319166001600160a01b03848116919091179182905560408051633800918160e21b81529051929091169163e002460491600480820192602092909190829003018186803b15801561147457600080fd5b505afa158015611488573d6000803e3d6000fd5b505050506040513d601f19601f820116820180604052508101906114ac9190612e4d565b603a80546001600160a01b0319166001600160a01b0392831617905560395460408051637718403560e01b8152905191909216916377184035916004808301926020929190829003018186803b15801561150557600080fd5b505afa158015611519573d6000803e3d6000fd5b505050506040513d601f19601f8201168201806040525081019061153d9190612e4d565b603580546001600160a01b0319166001600160a01b039283161790556039546040805163123cfce160e01b81529051919092169163123cfce1916004808301926020929190829003018186803b15801561159657600080fd5b505afa1580156115aa573d6000803e3d6000fd5b505050506040513d601f19601f820116820180604052508101906115ce9190612e4d565b603680546001600160a01b0319166001600160a01b0392831617905560395460408051635beec2bb60e01b815290519190921691635beec2bb916004808301926020929190829003018186803b15801561162757600080fd5b505afa15801561163b573d6000803e3d6000fd5b505050506040513d601f19601f8201168201806040525081019061165f9190612e4d565b603780546001600160a01b0319166001600160a01b0392831617905560395460408051633dd742c960e01b815290519190921691633dd742c9916004808301926020929190829003018186803b1580156116b857600080fd5b505afa1580156116cc573d6000803e3d6000fd5b505050506040513d601f19601f820116820180604052508101906116f09190612e4d565b603880546001600160a01b0319166001600160a01b039290921691909117905580156113a1576000805461ff00191690555050565b603a5460405163ba1edf1760e01b81526001600160a01b039091169063ba1edf179061175990339086908690600401613349565b600060405180830381600087803b15801561177357600080fd5b505af1158015611787573d6000803e3d6000fd5b50505050505050565b600080606080603960009054906101000a90046001600160a01b03166001600160a01b031663e2cd08626040518163ffffffff1660e01b815260040160206040518083038186803b1580156117e457600080fd5b505afa1580156117f8573d6000803e3d6000fd5b505050506040513d601f19601f8201168201806040525081019061181c91906131e7565b67ffffffffffffffff8111801561183257600080fd5b5060405190808252806020026020018201604052801561185c578160200160208202803683370190505b5090506060815167ffffffffffffffff8111801561187957600080fd5b506040519080825280602002602001820160405280156118a3578160200160208202803683370190505b50905060005b82518110156118f857808382815181106118bf57fe5b602002602001018181525050868282815181106118d857fe5b6001600160a01b03909216602092830291909101909101526001016118a9565b506037546040516313849cfd60e21b81526001600160a01b0390911690634e1273f49061192b9084908690600401613482565b60006040518083038186803b15801561194357600080fd5b505afa158015611957573d6000803e3d6000fd5b505050506040513d6000823e601f3d908101601f1916820160405261197f9190810190612fe2565b603954604051637008ec1b60e11b815291945060609182916001600160a01b03169063e011d836906119b59087906004016134d8565b60006040518083038186803b1580156119cd57600080fd5b505afa1580156119e1573d6000803e3d6000fd5b505050506040513d6000823e601f3d908101601f19168201604052611a09919081019061307e565b9150915060005b8551811015611aa657600080848381518110611a2857fe5b6020026020010151848481518110611a3c57fe5b602002602001015191509150611a6e888481518110611a5757fe5b602002602001015183611cc090919063ffffffff16565b8a019950611a98888481518110611a8157fe5b602002602001015182611cc090919063ffffffff16565b909801975050600101611a10565b505050509193509193565b6000600a81611ac08983611cfa565b611acb576001611ad5565b611ad58983611cfa565b90506000611ae38884611cfa565b611aee576001611af8565b611af88884611cfa565b9050818102600080805b8860ff168160ff161015611c12578915611ba657611b21600186611d7e565b9250611b2e600187611d7e565b91507f3ab8d16fa0445f4581f0e35996348d2507338000fb353856d56f5db15618e39482848f8e604051611b6594939291906137b2565b60405180910390a1828d11611b7b576000611b85565b611b858d84611d3c565b9c50818b11611b95576000611b9f565b611b9f8b83611d3c565b9a50611bf5565b611bb1600186611d7e565b9250611bbe600187611d7e565b9150818b11611bce576000611bd8565b611bd88b83611d3c565b9a50828d11611be8576000611bf2565b611bf28d84611d3c565b9c505b8c1580611c0057508a155b15611c0a57611c12565b600101611b02565b50898c1196507fa09af1f69f0376e675eb9a774ff51b588670dda43c3dd6805069596312e3bca5878d8c604051611c4b939291906134eb565b60405180910390a15050505050509695505050505050565b8051825160009160ff9182169116148015611c8b5750816040015160ff16836040015160ff16145b8015611ca45750816020015160ff16836020015160ff16145b8015611cb7575081606001518360600151145b90505b92915050565b600082611ccf57506000611cba565b82820282848281611cdc57fe5b0414611cb75760405162461bcd60e51b8152600401610367906135be565b6000611cb783836040518060400160405280601a81526020017f536166654d6174683a206469766973696f6e206279207a65726f0000000000008152506126fe565b6000611cb783836040518060400160405280601e81526020017f536166654d6174683a207375627472616374696f6e206f766572666c6f770000815250612737565b6000814233603354603454604051602001611d9c9493929190613308565b6040516020818303038152906040528051906020012060001c81611dbc57fe5b069050828110611dcc5780611dd0565b8281015b6034805460010190559392505050565b815160009060ff161580611dfc57508151835160ff9182169116115b15611e0957506000611cba565b604083015160ff161580611e2a5750816040015160ff16836040015160ff16115b15611e3757506000611cba565b602083015160ff161580611e585750816020015160ff16836020015160ff16115b15611e6557506000611cba565b60608301511580611e7d575081606001518360600151115b15611e8a57506000611cba565b50600192915050565b805160009060ff161580611eac5750604082015160ff16155b80611ebc5750602082015160ff16155b80611cba575050606001511590565b600080611ed6612763565b60395460405163083b214d60e41b81529294509092506001600160a01b0316906383b214d090611f0c9086908690600401613737565b600060405180830381600087803b158015611f2657600080fd5b505af1158015611f3a573d6000803e3d6000fd5b50505050336001600160a01b03167f119eeac2475e395d798da3c40d9f901a3131b79a826c604a60d078764e8ce408836014811115611f7557fe5b604051611f8291906137cd565b60405180910390a26009826014811115611f9857fe5b1415611fa55750506126f5565b6001826014811115611fb357fe5b1480611fca57506003826014811115611fc857fe5b145b80611fe057506005826014811115611fde57fe5b145b156120e757603954604051636a2a747360e01b815260009182916001600160a01b0390911690636a2a74739061201a908790600401613503565b6040805180830381600087803b15801561203357600080fd5b505af1158015612047573d6000803e3d6000fd5b505050506040513d601f19601f8201168201806040525081019061206b9190613231565b9150915060008060608061207e33611790565b93509350935093507f39c31677b1650d5b983fb38bf1ee25e9ca25658b8bdfb9263e59651183b483683387873088886040516120bf969594939291906133bf565b60405180910390a160006120d9878787876001600a611ab1565b90505050505050505061019c565b600b8260148111156120f557fe5b148061210c5750600d82601481111561210a57fe5b145b806121225750600f82601481111561212057fe5b145b806121385750601382601481111561213657fe5b145b156124db57603954604051634f4815d760e01b815260009182916001600160a01b0390911690634f4815d790612172908790600401613503565b6040805180830381600087803b15801561218b57600080fd5b505af115801561219f573d6000803e3d6000fd5b505050506040513d601f19601f820116820180604052508101906121c39190613231565b9150915060006121d38383611d7e565b90506000603960009054906101000a90046001600160a01b03166001600160a01b03166304d5aae16040518163ffffffff1660e01b8152600401602060405180830381600087803b15801561222757600080fd5b505af115801561223b573d6000803e3d6000fd5b505050506040513d601f19601f8201168201806040525081019061225f91906131e7565b603a5460405163a080ee1560e01b81529192506001600160a01b03169063a080ee159061229290339085906004016133a6565b600060405180830381600087803b1580156122ac57600080fd5b505af11580156122c0573d6000803e3d6000fd5b5050603854603654603554603754604051600096506001600160a01b03948516955063205152519488946123089488949183169390831692909116908b908790602401613448565b60408051601f198184030181529181526020820180516001600160e01b031663d7c41c7960e01b1790525160e084901b6001600160e01b031916815261235292919060040161378b565b602060405180830381600087803b15801561236c57600080fd5b505af1158015612380573d6000803e3d6000fd5b505050506040513d601f19601f820116820180604052508101906123a49190612e4d565b60395460405163bedc6d2760e01b81529192506001600160a01b03169063bedc6d27906123d79084908c90600401613389565b600060405180830381600087803b1580156123f157600080fd5b505af1158015612405573d6000803e3d6000fd5b505060395460405163f52084e960e01b81526001600160a01b03909116925063f52084e9915061243b9085908590600401613774565b600060405180830381600087803b15801561245557600080fd5b505af1158015612469573d6000803e3d6000fd5b50506039546040516375997ce960e01b81526001600160a01b0390911692506375997ce9915061249f9085908590600401613774565b600060405180830381600087803b1580156124b957600080fd5b505af11580156124cd573d6000803e3d6000fd5b50505050505050505061019c565b600e8260148111156124e957fe5b14156126195760006124fc826002612a8d565b1561250857600161250b565b60025b60ff169050612518612d0e565b612520612acf565b6040805160018082528183019092529192506060919060208083019080368337505060408051600180825281830190925292935060609291506020808301908036833701905050905082602001518260008151811061257b57fe5b602090810291909101015282516125929085611cc0565b8160008151811061259f57fe5b6020908102919091010152603a5460405163ba1edf1760e01b81526001600160a01b039091169063ba1edf17906125de90339086908690600401613349565b600060405180830381600087803b1580156125f857600080fd5b505af115801561260c573d6000803e3d6000fd5b505050505050505061019c565b601082601481111561262757fe5b141561019c57612635612d0e565b61263d612ba1565b6040805160018082528183019092529192506060919060208083019080368337505060408051600180825281830190925292935060609291506020808301908036833701905050905082602001518260008151811061269857fe5b6020026020010181815250508260000151816000815181106126b657fe5b6020908102919091010152603a5460405163ba1edf1760e01b81526001600160a01b039091169063ba1edf179061102890339086908690600401613349565b50565b303b1590565b6000818361271f5760405162461bcd60e51b81526004016103679190613517565b50600083858161272b57fe5b049150505b9392505050565b6000818484111561275b5760405162461bcd60e51b81526004016103679190613517565b505050900390565b6000806127106064612776600183611d7e565b925082600161ffff8216141561278f5760019450612a86565b8061ffff16602a14156127a55760029450612a86565b816005028161ffff16116127bc5760039450612a86565b816005028161ffff161180156127d9575081600a028161ffff1611155b156127e75760049450612a86565b81600a028161ffff161180156128045750816014028161ffff1611155b156128125760059450612a86565b816014028161ffff1611801561282f575081601e028161ffff1611155b1561283d5760069450612a86565b81601e028161ffff1611801561285a5750816023028161ffff1611155b156128685760079450612a86565b816023028161ffff161180156128855750816028028161ffff1611155b156128935760089450612a86565b816028028161ffff161180156128b0575081602f028161ffff1611155b156128be5760099450612a86565b81602f028161ffff161180156128db575081603c028161ffff1611155b156128e957600a9450612a86565b81603c028161ffff161180156129065750816041028161ffff1611155b1561291457600b9450612a86565b816041028161ffff161180156129315750816046028161ffff1611155b1561293f57600c9450612a86565b816046028161ffff1611801561295c575081604b168161ffff1611155b1561296a57600d9450612a86565b816046028161ffff161180156129875750816050168161ffff1611155b1561299557600e9450612a86565b816050028161ffff161180156129b25750816055168161ffff1611155b156129c057600f9450612a86565b816055028161ffff161180156129dd575081605a168161ffff1611155b156129eb5760109450612a86565b81605a028161ffff16118015612a08575081605f168161ffff1611155b15612a165760119450612a86565b81605f028161ffff16118015612a335750816063168161ffff1611155b15612a415760129450612a86565b816063028161ffff16118015612a5e5750600183038161ffff1611155b15612a6c5760139450612a86565b828161ffff161415612a815760149450612a86565b600994505b5050509091565b6000611cb783836040518060400160405280601881526020017f536166654d6174683a206d6f64756c6f206279207a65726f0000000000000000815250612c4d565b612ad7612d0e565b612adf612d28565b73__Types_________________________________63c0e6aff16040518163ffffffff1660e01b81526004016103006040518083038186803b158015612b2457600080fd5b505af4158015612b38573d6000803e3d6000fd5b505050506040513d601f19601f82011682018060405250810190612b5c9190612f14565b90506000612b6c60006018611d7e565b90506000828260188110612b7c57fe5b6020020151905060405180604001604052806001815260200182815250935050505090565b612ba9612d0e565b612bb1612d47565b73__Types_________________________________63075587706040518163ffffffff1660e01b815260040160606040518083038186803b158015612bf557600080fd5b505af4158015612c09573d6000803e3d6000fd5b505050506040513d601f19601f82011682018060405250810190612c2d9190612f7c565b90506000612c3d60006003611d7e565b90506000828260038110612b7c57fe5b60008183612c6e5760405162461bcd60e51b81526004016103679190613517565b50828481612c7857fe5b06949350505050565b604051806101600160405280612c95612ce7565b815260200160008152602001600081526020016060815260200160608152602001612cbe612ce7565b815260200160008152602001600081526020016060815260200160608152602001606081525090565b60408051608081018252600080825260208201819052918101829052606081019190915290565b604051806040016040528060008152602001600081525090565b6040518061030001604052806018906020820280368337509192915050565b60405180606001604052806003906020820280368337509192915050565b600082601f830112612d75578081fd5b8135612d88612d8382613826565b6137ff565b818152915060208083019084810181840286018201871015612da957600080fd5b60005b84811015612dc857813584529282019290820190600101612dac565b505050505092915050565b600082601f830112612de3578081fd5b8151612df1612d8382613826565b818152915060208083019084810181840286018201871015612e1257600080fd5b60005b84811015612dc857815184529282019290820190600101612e15565b600060208284031215612e42578081fd5b8135611cb781613846565b600060208284031215612e5e578081fd5b8151611cb781613846565b600080600060608486031215612e7d578182fd5b8335612e8881613846565b9250602084013567ffffffffffffffff80821115612ea4578384fd5b612eb087838801612d65565b93506040860135915080821115612ec5578283fd5b50612ed286828701612d65565b9150509250925092565b60008060408385031215612eee578182fd5b8235612ef981613846565b91506020830135612f0981613868565b809150509250929050565b6000610300808385031215612f27578182fd5b83601f840112612f35578182fd5b612f3e816137ff565b8084868487011115612f4e578485fd5b8493505b6018841015612f7257805183526001939093019260209283019201612f52565b5095945050505050565b600060608284031215612f8d578081fd5b82601f830112612f9b578081fd5b612fa560606137ff565b808385606086011115612fb6578384fd5b835b6003811015612fd7578151845260209384019390910190600101612fb8565b509095945050505050565b600060208284031215612ff3578081fd5b815167ffffffffffffffff811115613009578182fd5b61301584828501612dd3565b949350505050565b6000806040838503121561302f578182fd5b823567ffffffffffffffff80821115613046578384fd5b61305286838701612d65565b93506020850135915080821115613067578283fd5b5061307485828601612d65565b9150509250929050565b60008060408385031215613090578081fd5b825167ffffffffffffffff808211156130a7578283fd5b6130b386838701612dd3565b935060208501519150808211156130c8578283fd5b5061307485828601612dd3565b6000602082840312156130e6578081fd5b8135611cb78161385b565b600060208284031215613102578081fd5b8151611cb78161385b565b60006080828403121561311e578081fd5b61312860806137ff565b823561313381613868565b8152602083013561314381613868565b6020820152604083013561315681613868565b60408201526060928301359281019290925250919050565b60006080828403121561317f578081fd5b61318960806137ff565b825161319481613868565b815260208301516131a481613868565b602082015260408301516131b781613868565b60408201526060928301519281019290925250919050565b6000602082840312156131e0578081fd5b5035919050565b6000602082840312156131f8578081fd5b5051919050565b600080600060608486031215613213578081fd5b83359250602084013567ffffffffffffffff80821115612ea4578283fd5b60008060408385031215613243578182fd5b505080516020909101519092909150565b6000815180845260208085019450808401835b8381101561328357815187529582019590820190600101613267565b509495945050505050565b60008151808452815b818110156132b357602081850181015186830182015201613297565b818111156132c45782602083870101525b50601f01601f19169290920160200192915050565b60ff815116825260ff602082015116602083015260ff6040820151166040830152606081015160608301525050565b93845260609290921b6bffffffffffffffffffffffff191660208401526034830152605482015260740190565b6001600160a01b0391909116815260200190565b6001600160a01b038416815260606020820181905260009061336d90830185613254565b828103604084015261337f8185613254565b9695505050505050565b6001600160a01b038316815260a0810161273060208301846132d9565b6001600160a01b03929092168252602082015260400190565b6001600160a01b0396871681526020810195909552604085019390935293166060830152608082019290925260a081019190915260c00190565b6001600160a01b039384168152919092166020820152604081019190915260600190565b6001600160a01b03948516815292841660208401529083166040830152909116606082015260800190565b6001600160a01b0396871681529486166020860152928516604085015293166060830152608082019290925260a081019190915260c00190565b604080825283519082018190526000906020906060840190828701845b828110156134c45781516001600160a01b03168452928401929084019060010161349f565b5050508381038285015261337f8186613254565b600060208252611cb76020830184613254565b92151583526020830191909152604082015260600190565b602081016015831061351157fe5b91905290565b600060208252611cb7602083018461328e565b60208082526038908201527f506f736974696f6e206d7573742062652077697468696e20736574206c696d6960408201527f7473206f6620746865206b6e6f776e20756e6976657273650000000000000000606082015260800190565b6020808252601f908201527f416464726573736573206d757374206578697374206d75737420657869737400604082015260600190565b60208082526021908201527f536166654d6174683a206d756c7469706c69636174696f6e206f766572666c6f6040820152607760f81b606082015260800190565b6020808252602e908201527f436f6e747261637420696e7374616e63652068617320616c726561647920626560408201526d195b881a5b9a5d1a585b1a5e995960921b606082015260800190565b6020808252601a908201527f596f752063616e6e6f742061747461636b20796f757273656c66000000000000604082015260600190565b60208082526038908201527f596f752063616e206f6e6c792061747461636b2070656f706c6520617420796f60408201527f75722063757272656e742073746172206c6f636174696f6e0000000000000000606082015260800190565b60208082526028908201527f596f752063616e6e6f74206d6f766520746f20796f75722063757272656e74206040820152673637b1b0ba34b7b760c11b606082015260800190565b60808101611cba82846132d9565b60a0810161374582856132d9565b6015831061374f57fe5b8260808301529392505050565b61ffff91909116815260200190565b90815260200190565b9182526001600160a01b0316602082015260400190565b600083825260406020830152613015604083018461328e565b918252602082015260400190565b93845260208401929092526040830152606082015260800190565b60ff91909116815260200190565b60ff9485168152928416602084015292166040820152606081019190915260800190565b60405181810167ffffffffffffffff8111828210171561381e57600080fd5b604052919050565b600067ffffffffffffffff82111561383c578081fd5b5060209081020190565b6001600160a01b03811681146126f557600080fd5b601581106126f557600080fd5b60ff811681146126f557600080fdfea2646970667358221220bf0458bb9ce4ff6e9e40eca90c9ccba973653fe4ac59322ff66171c1e5230e2c64736f6c634300060c0033",
  "immutableReferences": {},
  "source": "pragma solidity 0.6.12;\npragma experimental ABIEncoderV2;\n\nimport {GameOperations} from '../GameOperations.sol';\nimport {Types} from '../lib/Types.sol';\n\n/* solium-disable-next-line */\ncontract TestGameOperations is GameOperations {\n    // create test functions\n    event TestAddress(address a, address b, address c, address d);\n    event TestUint(uint256 a, uint256 b);\n\n    function testAiFleetAttack(Types.SystemType starSystem) public {\n        (uint256 a_offense, uint256 a_defense) = GS.getAiFleetInfo(starSystem);\n        (\n            uint256 d_offense,\n            uint256 d_defense,\n            uint256[] memory d_balances,\n            uint256[] memory d_ids\n        ) = calculateStats(msg.sender);\n        emit BattleStarted(msg.sender, a_offense, a_defense, address(this), d_offense, d_defense);\n\n        bool result = battle(a_offense, a_defense, d_offense, d_defense, true, 10);\n    }\n\n    function testFhrDiscovery(Types.SystemType systemType) public {\n        (uint256 low, uint256 high) = GS.getStarSystemYieldRange(systemType);\n        uint256 yield = randomrange(low, high);\n        uint256 _id = GS.incrementTotalFhr();\n        emit TestUint(yield, _id);\n        TS.mintFhr(msg.sender, _id);\n        emit TestAddress(address(pm), address(solar), address(fhr), address(sats));\n        address _address = pm.createPlanet(\n            _id,\n            abi.encodeWithSignature(\n                'initialize(address,address,address,address,uint256,uint256)',\n                address(pm),\n                address(solar),\n                address(fhr),\n                address(sats),\n                yield,\n                _id\n            )\n        );\n        GS.setTokenIdToProxyAddress(_id, _address);\n        GS.setProxyAddressToTokenId(_id, _address);\n    }\n\n    function testSatDiscovery(\n        uint256 rand,\n        uint256[] memory ships,\n        uint256[] memory amounts\n    ) public {\n        TS.sendSats(msg.sender, ships, amounts);\n        // updateMasterFleet(msg.sender, ships, amounts);\n    }\n\n    function testUpdateMasterFleet(\n        address master,\n        uint256[] memory ids,\n        uint256[] memory amounts\n    ) public {\n        // updateMasterFleet(master, ids, amounts);\n    }\n}\n",
  "sourcePath": "C:/Users/James/projects/tsuno-fe/contracts/testing/TestGameOperations.sol",
  "compiler": {
    "name": "solc",
    "version": "0.6.12+commit.27d51765.Emscripten.clang"
  },
  "schemaVersion": "3.2.5",
  "updatedAt": "2020-10-20T10:07:07.163Z",
  "networkType": "ethereum",
  "devdoc": {
    "kind": "dev",
    "methods": {},
    "version": 1
  },
  "userdoc": {
    "kind": "user",
    "methods": {},
    "version": 1
  }
}