{
  "contractName": "TestGameOperations",
  "abi": [
    {
      "anonymous": false,
      "inputs": [
        {
          "indexed": false,
          "internalType": "address",
          "name": "attacker",
          "type": "address"
        },
        {
          "indexed": false,
          "internalType": "uint256",
          "name": "attackerOffense",
          "type": "uint256"
        },
        {
          "indexed": false,
          "internalType": "uint256",
          "name": "attackerDefense",
          "type": "uint256"
        },
        {
          "indexed": false,
          "internalType": "address",
          "name": "defender",
          "type": "address"
        },
        {
          "indexed": false,
          "internalType": "uint256",
          "name": "defenderOffense",
          "type": "uint256"
        },
        {
          "indexed": false,
          "internalType": "uint256",
          "name": "defenderDefense",
          "type": "uint256"
        }
      ],
      "name": "BattleStarted",
      "type": "event"
    },
    {
      "anonymous": false,
      "inputs": [
        {
          "indexed": false,
          "internalType": "bool",
          "name": "result",
          "type": "bool"
        },
        {
          "indexed": false,
          "internalType": "uint256",
          "name": "attackersHealth",
          "type": "uint256"
        },
        {
          "indexed": false,
          "internalType": "uint256",
          "name": "defendersHealth",
          "type": "uint256"
        }
      ],
      "name": "LogBattle",
      "type": "event"
    },
    {
      "anonymous": false,
      "inputs": [
        {
          "indexed": false,
          "internalType": "uint8",
          "name": "quadrant",
          "type": "uint8"
        },
        {
          "indexed": false,
          "internalType": "uint8",
          "name": "district",
          "type": "uint8"
        },
        {
          "indexed": false,
          "internalType": "uint8",
          "name": "sector",
          "type": "uint8"
        },
        {
          "indexed": false,
          "internalType": "uint256",
          "name": "star",
          "type": "uint256"
        }
      ],
      "name": "LogMove",
      "type": "event"
    },
    {
      "anonymous": false,
      "inputs": [
        {
          "indexed": false,
          "internalType": "uint256",
          "name": "aDamage",
          "type": "uint256"
        },
        {
          "indexed": false,
          "internalType": "uint256",
          "name": "dDamage",
          "type": "uint256"
        },
        {
          "indexed": false,
          "internalType": "uint256",
          "name": "aHealth",
          "type": "uint256"
        },
        {
          "indexed": false,
          "internalType": "uint256",
          "name": "dHealth",
          "type": "uint256"
        }
      ],
      "name": "LogRound",
      "type": "event"
    },
    {
      "anonymous": false,
      "inputs": [
        {
          "indexed": true,
          "internalType": "address",
          "name": "to",
          "type": "address"
        },
        {
          "indexed": false,
          "internalType": "uint8",
          "name": "systemType",
          "type": "uint8"
        }
      ],
      "name": "LogStarSystemDiscovery",
      "type": "event"
    },
    {
      "anonymous": false,
      "inputs": [
        {
          "indexed": false,
          "internalType": "uint256",
          "name": "random",
          "type": "uint256"
        }
      ],
      "name": "Random",
      "type": "event"
    },
    {
      "anonymous": false,
      "inputs": [
        {
          "indexed": false,
          "internalType": "address",
          "name": "a",
          "type": "address"
        },
        {
          "indexed": false,
          "internalType": "address",
          "name": "b",
          "type": "address"
        },
        {
          "indexed": false,
          "internalType": "address",
          "name": "c",
          "type": "address"
        },
        {
          "indexed": false,
          "internalType": "address",
          "name": "d",
          "type": "address"
        }
      ],
      "name": "TestAddress",
      "type": "event"
    },
    {
      "anonymous": false,
      "inputs": [
        {
          "indexed": false,
          "internalType": "uint256",
          "name": "a",
          "type": "uint256"
        },
        {
          "indexed": false,
          "internalType": "uint256",
          "name": "b",
          "type": "uint256"
        }
      ],
      "name": "TestUint",
      "type": "event"
    },
    {
      "inputs": [
        {
          "internalType": "address",
          "name": "defender",
          "type": "address"
        },
        {
          "internalType": "uint8",
          "name": "turns",
          "type": "uint8"
        }
      ],
      "name": "attack",
      "outputs": [],
      "stateMutability": "nonpayable",
      "type": "function"
    },
    {
      "inputs": [
        {
          "internalType": "uint256",
          "name": "tokenId",
          "type": "uint256"
        }
      ],
      "name": "deployPlanet",
      "outputs": [],
      "stateMutability": "nonpayable",
      "type": "function"
    },
    {
      "inputs": [
        {
          "internalType": "enum Types.SystemType",
          "name": "systemType",
          "type": "uint8"
        }
      ],
      "name": "getRandomYield",
      "outputs": [
        {
          "internalType": "uint16",
          "name": "rand",
          "type": "uint16"
        }
      ],
      "stateMutability": "view",
      "type": "function",
      "constant": true
    },
    {
      "inputs": [
        {
          "internalType": "address",
          "name": "_gameStorage",
          "type": "address"
        }
      ],
      "name": "initialize",
      "outputs": [],
      "stateMutability": "nonpayable",
      "type": "function"
    },
    {
      "inputs": [
        {
          "components": [
            {
              "internalType": "uint8",
              "name": "quadrant",
              "type": "uint8"
            },
            {
              "internalType": "uint8",
              "name": "sector",
              "type": "uint8"
            },
            {
              "internalType": "uint8",
              "name": "district",
              "type": "uint8"
            },
            {
              "internalType": "uint256",
              "name": "star",
              "type": "uint256"
            }
          ],
          "internalType": "struct Types.Position",
          "name": "to",
          "type": "tuple"
        }
      ],
      "name": "move",
      "outputs": [],
      "stateMutability": "nonpayable",
      "type": "function"
    },
    {
      "inputs": [
        {
          "internalType": "uint256",
          "name": "_seed",
          "type": "uint256"
        }
      ],
      "name": "setSeed",
      "outputs": [],
      "stateMutability": "nonpayable",
      "type": "function"
    },
    {
      "inputs": [
        {
          "internalType": "enum Types.SystemType",
          "name": "starSystem",
          "type": "uint8"
        }
      ],
      "name": "testAiFleetAttack",
      "outputs": [],
      "stateMutability": "nonpayable",
      "type": "function"
    },
    {
      "inputs": [
        {
          "internalType": "enum Types.SystemType",
          "name": "systemType",
          "type": "uint8"
        }
      ],
      "name": "testFhrDiscovery",
      "outputs": [],
      "stateMutability": "nonpayable",
      "type": "function"
    },
    {
      "inputs": [
        {
          "internalType": "uint256",
          "name": "rand",
          "type": "uint256"
        },
        {
          "internalType": "uint256[]",
          "name": "ships",
          "type": "uint256[]"
        },
        {
          "internalType": "uint256[]",
          "name": "amounts",
          "type": "uint256[]"
        }
      ],
      "name": "testSatDiscovery",
      "outputs": [],
      "stateMutability": "nonpayable",
      "type": "function"
    },
    {
      "inputs": [
        {
          "internalType": "address",
          "name": "master",
          "type": "address"
        },
        {
          "internalType": "uint256[]",
          "name": "ids",
          "type": "uint256[]"
        },
        {
          "internalType": "uint256[]",
          "name": "amounts",
          "type": "uint256[]"
        }
      ],
      "name": "testUpdateMasterFleet",
      "outputs": [],
      "stateMutability": "nonpayable",
      "type": "function"
    }
  ],
  "bytecode": "0x6080604052600160345534801561001557600080fd5b50613865806100256000396000f3fe608060405234801561001057600080fd5b506004361061009d5760003560e01c80638c896042116100665780638c896042146101195780638e905cfd1461012c578063c32a50f91461013f578063c4d66de814610152578063e439e863146101655761009d565b80626c2f3a146100a25780630484b441146100cb57806369145a24146100e05780636ebb6d80146100f357806383954f1614610106575b600080fd5b6100b56100b036600461305e565b610178565b6040516100c2919061370a565b60405180910390f35b6100de6100d9366004612e49565b61017e565b005b6100de6100ee36600461305e565b610183565b6100de610101366004612ebc565b610282565b6100de610114366004613158565b610bda565b6100de61012736600461305e565b610e7e565b6100de61013a366004613096565b61124a565b6100de61014d366004613158565b61158d565b6100de610160366004612e11565b611592565b6100de610173366004613188565b61190d565b50600090565b505050565b603954604051636a2a747360e01b815260009182916001600160a01b0390911690636a2a7473906101b8908690600401613489565b6040805180830381600087803b1580156101d157600080fd5b505af11580156101e5573d6000803e3d6000fd5b505050506040513d601f19601f8201168201806040525081019061020991906131ba565b9150915060008060608061021c33611978565b93509350935093507f39c31677b1650d5b983fb38bf1ee25e9ca25658b8bdfb9263e59651183b4836833878730888860405161025d96959493929190613345565b60405180910390a16000610277878787876001600a611c99565b505050505050505050565b6001600160a01b0382163314156102b45760405162461bcd60e51b81526004016102ab906135fc565b60405180910390fd5b6001600160a01b038216158015906102cb57503315155b6102e75760405162461bcd60e51b81526004016102ab90613536565b6102ef612c61565b603954604051633495a7e360e11b81526001600160a01b039091169063692b4fc69061031f9033906004016132bb565b60806040518083038186803b15801561033757600080fd5b505afa15801561034b573d6000803e3d6000fd5b505050506040513d601f19601f8201168201806040525081019061036f91906130f7565b8152603954604051633495a7e360e11b81526001600160a01b039091169063692b4fc6906103a19086906004016132bb565b60806040518083038186803b1580156103b957600080fd5b505afa1580156103cd573d6000803e3d6000fd5b505050506040513d601f19601f820116820180604052508101906103f191906130f7565b60a08201819052815161040391611e4b565b61041f5760405162461bcd60e51b81526004016102ab90613633565b61042833611978565b608085015260608401526040830152602082015261044583611978565b61012085015261010084015260e0830181905260c08301829052602083015160408085015190517f39c31677b1650d5b983fb38bf1ee25e9ca25658b8bdfb9263e59651183b483689461049f94339493928a929190613345565b60405180910390a160006104c8826020015183604001518460c001518560e00151600188611c99565b905080156109605760005b82606001515181101561055f576000836060015182815181106104f257fe5b60200260200101511161050657600061053c565b61053c606461053660148660600151858151811061052057fe5b6020026020010151611ea890919063ffffffff16565b90611ee2565b8360600151828151811061054c57fe5b60209081029190910101526001016104d3565b50603a546080830151606084015160405163feba2dd560e01b81526001600160a01b039093169263feba2dd59261059a9233926004016132cf565b600060405180830381600087803b1580156105b457600080fd5b505af11580156105c8573d6000803e3d6000fd5b505050508161010001515167ffffffffffffffff811180156105e957600080fd5b50604051908082528060200260200182016040528015610613578160200160208202803683370190505b5061014083015260005b8261010001515181101561070657600061064860646105366046876101000151868151811061052057fe5b90506000846101000151838151811061065d57fe5b602002602001015111610671576000610673565b805b846101000151838151811061068457fe5b6020026020010181815250508084610100015183815181106106a257fe5b6020026020010151116106b65760006106e1565b6106e18185610100015184815181106106cb57fe5b6020026020010151611f2490919063ffffffff16565b84610140015183815181106106f257fe5b60209081029190910101525060010161061d565b50603954604051634ec7272b60e11b81526000916001600160a01b031690639d8e4e56906107389088906004016132bb565b60206040518083038186803b15801561075057600080fd5b505afa158015610764573d6000803e3d6000fd5b505050506040513d601f19601f820116820180604052508101906107889190613170565b905080156108ec576035546040516331a9108f60e11b81526000916001600160a01b031690636352211e906107c1908590600401613719565b60206040518083038186803b1580156107d957600080fd5b505afa1580156107ed573d6000803e3d6000fd5b505050506040513d601f19601f820116820180604052508101906108119190612e2d565b603a5461012086015161014087015160405163ba1edf1760e01b81529394506001600160a01b039092169263ba1edf17926108539286929091906004016132cf565b600060405180830381600087803b15801561086d57600080fd5b505af1158015610881573d6000803e3d6000fd5b5050603a54604051624f9d7360e21b81526001600160a01b03909116925063013e75cc91506108b89084903390879060040161337f565b600060405180830381600087803b1580156108d257600080fd5b505af11580156108e6573d6000803e3d6000fd5b50505050505b603a5461012084015161010085015160405163feba2dd560e01b81526001600160a01b039093169263feba2dd592610928928a926004016132cf565b600060405180830381600087803b15801561094257600080fd5b505af1158015610956573d6000803e3d6000fd5b5050505050610bd4565b60005b8260600151518110156109d35760008360600151828151811061098257fe5b6020026020010151116109965760006109b0565b6109b06064610536605a8660600151858151811061052057fe5b836060015182815181106109c057fe5b6020908102919091010152600101610963565b50603a546080830151606084015160405163feba2dd560e01b81526001600160a01b039093169263feba2dd592610a0e9233926004016132cf565b600060405180830381600087803b158015610a2857600080fd5b505af1158015610a3c573d6000803e3d6000fd5b505050508161010001515167ffffffffffffffff81118015610a5d57600080fd5b50604051908082528060200260200182016040528015610a87578160200160208202803683370190505b5061014083015260005b82610100015151811015610b64576000610abc6064610536600a876101000151868151811061052057fe5b905060008461010001518381518110610ad157fe5b602002602001015111610ae5576000610ae7565b805b8461010001518381518110610af857fe5b602002602001018181525050808461010001518381518110610b1657fe5b602002602001015111610b2a576000610b3f565b610b3f8185610100015184815181106106cb57fe5b8461014001518381518110610b5057fe5b602090810291909101015250600101610a91565b50603a5461012083015161010084015160405163feba2dd560e01b81526001600160a01b039093169263feba2dd592610ba19289926004016132cf565b600060405180830381600087803b158015610bbb57600080fd5b505af1158015610bcf573d6000803e3d6000fd5b505050505b50505050565b6035546040516331a9108f60e11b8152829133916001600160a01b0390911690636352211e90610c0e908590600401613719565b60206040518083038186803b158015610c2657600080fd5b505afa158015610c3a573d6000803e3d6000fd5b505050506040513d601f19601f82011682018060405250810190610c5e9190612e2d565b6001600160a01b031614610c845760405162461bcd60e51b81526004016102ab9061350c565b6039546040516305f941bf60e51b81526000916001600160a01b03169063bf2837e090610cb5908690600401613719565b60206040518083038186803b158015610ccd57600080fd5b505afa158015610ce1573d6000803e3d6000fd5b505050506040513d601f19601f82011682018060405250810190610d059190613170565b6038546036546035546037546040519495506000946001600160a01b03948516946320515251948a94610d4b948894928416939182169291169086908b906024016133ce565b60408051601f198184030181529181526020820180516001600160e01b031663d7c41c7960e01b1790525160e084901b6001600160e01b0319168152610d95929190600401613739565b602060405180830381600087803b158015610daf57600080fd5b505af1158015610dc3573d6000803e3d6000fd5b505050506040513d601f19601f82011682018060405250810190610de79190612e2d565b60395460405163f52084e960e01b81529192506001600160a01b03169063f52084e990610e1a9087908590600401613722565b600060405180830381600087803b158015610e3457600080fd5b505af1158015610e48573d6000803e3d6000fd5b50506039546040516375997ce960e01b81526001600160a01b0390911692506375997ce99150610ba19087908590600401613722565b603954604051634f4815d760e01b815260009182916001600160a01b0390911690634f4815d790610eb3908690600401613489565b6040805180830381600087803b158015610ecc57600080fd5b505af1158015610ee0573d6000803e3d6000fd5b505050506040513d601f19601f82011682018060405250810190610f0491906131ba565b915091506000610f148383611f66565b90506000603960009054906101000a90046001600160a01b03166001600160a01b03166304d5aae16040518163ffffffff1660e01b8152600401602060405180830381600087803b158015610f6857600080fd5b505af1158015610f7c573d6000803e3d6000fd5b505050506040513d601f19601f82011682018060405250810190610fa09190613170565b90507f4a365bf35c0ae660ba79119f99f0fd297f42d3621f9f584e393f23ca68df210e8282604051610fd3929190613752565b60405180910390a1603a5460405163a080ee1560e01b81526001600160a01b039091169063a080ee159061100d903390859060040161332c565b600060405180830381600087803b15801561102757600080fd5b505af115801561103b573d6000803e3d6000fd5b50506038546036546035546037546040517f881c3ecc41e1e3d937a18bd3f1fc3af87a52f725119402eb778cd5592c861efc965061109195506001600160a01b03948516949384169392831692909116906133a3565b60405180910390a16038546036546035546037546040516000946001600160a01b039081169463205152519488946110dd9488949384169392831692909116908b9087906024016133ce565b60408051601f198184030181529181526020820180516001600160e01b031663d7c41c7960e01b1790525160e084901b6001600160e01b0319168152611127929190600401613739565b602060405180830381600087803b15801561114157600080fd5b505af1158015611155573d6000803e3d6000fd5b505050506040513d601f19601f820116820180604052508101906111799190612e2d565b60395460405163f52084e960e01b81529192506001600160a01b03169063f52084e9906111ac9085908590600401613722565b600060405180830381600087803b1580156111c657600080fd5b505af11580156111da573d6000803e3d6000fd5b50506039546040516375997ce960e01b81526001600160a01b0390911692506375997ce991506112109085908590600401613722565b600060405180830381600087803b15801561122a57600080fd5b505af115801561123e573d6000803e3d6000fd5b50505050505050505050565b6112d981603960009054906101000a90046001600160a01b03166001600160a01b031663cf677f576040518163ffffffff1660e01b815260040160806040518083038186803b15801561129c57600080fd5b505afa1580156112b0573d6000803e3d6000fd5b505050506040513d601f19601f820116820180604052508101906112d491906130f7565b611fc6565b6112f55760405162461bcd60e51b81526004016102ab906134af565b6112fd612cc7565b603954604051633495a7e360e11b81526001600160a01b039091169063692b4fc69061132d9033906004016132bb565b60806040518083038186803b15801561134557600080fd5b505afa158015611359573d6000803e3d6000fd5b505050506040513d601f19601f8201168201806040525081019061137d91906130f7565b905061138881612079565b1561141657603960009054906101000a90046001600160a01b03166001600160a01b0316636d18c9706040518163ffffffff1660e01b815260040160806040518083038186803b1580156113db57600080fd5b505afa1580156113ef573d6000803e3d6000fd5b505050506040513d601f19601f8201168201806040525081019061141391906130f7565b90505b6114208282611e4b565b1561143d5760405162461bcd60e51b81526004016102ab90613690565b60395460405163bedc6d2760e01b81526001600160a01b039091169063bedc6d279061146f903390869060040161330f565b600060405180830381600087803b15801561148957600080fd5b505af115801561149d573d6000803e3d6000fd5b505050507f067ed149b8be43d30a47ed69bc882367f66239804079b28dd002d36fc3f46ed482600001518360400151846020015185606001516040516114e69493929190613789565b60405180910390a16039546040516348bed1c960e11b81526000916001600160a01b03169063917da3929061151f9086906004016136d8565b60206040518083038186803b15801561153757600080fd5b505afa15801561154b573d6000803e3d6000fd5b505050506040513d601f19601f8201168201806040525081019061156f919061307a565b601481111561157a57fe5b141561158957611589826120b1565b5050565b603355565b600054610100900460ff16806115ab57506115ab61272e565b806115b9575060005460ff16155b6115d55760405162461bcd60e51b81526004016102ab906135ae565b600054610100900460ff16158015611600576000805460ff1961ff0019909116610100171660011790555b603980546001600160a01b0319166001600160a01b03848116919091179182905560408051633800918160e21b81529051929091169163e002460491600480820192602092909190829003018186803b15801561165c57600080fd5b505afa158015611670573d6000803e3d6000fd5b505050506040513d601f19601f820116820180604052508101906116949190612e2d565b603a80546001600160a01b0319166001600160a01b0392831617905560395460408051637718403560e01b8152905191909216916377184035916004808301926020929190829003018186803b1580156116ed57600080fd5b505afa158015611701573d6000803e3d6000fd5b505050506040513d601f19601f820116820180604052508101906117259190612e2d565b603580546001600160a01b0319166001600160a01b039283161790556039546040805163123cfce160e01b81529051919092169163123cfce1916004808301926020929190829003018186803b15801561177e57600080fd5b505afa158015611792573d6000803e3d6000fd5b505050506040513d601f19601f820116820180604052508101906117b69190612e2d565b603680546001600160a01b0319166001600160a01b0392831617905560395460408051635beec2bb60e01b815290519190921691635beec2bb916004808301926020929190829003018186803b15801561180f57600080fd5b505afa158015611823573d6000803e3d6000fd5b505050506040513d601f19601f820116820180604052508101906118479190612e2d565b603780546001600160a01b0319166001600160a01b0392831617905560395460408051633dd742c960e01b815290519190921691633dd742c9916004808301926020929190829003018186803b1580156118a057600080fd5b505afa1580156118b4573d6000803e3d6000fd5b505050506040513d601f19601f820116820180604052508101906118d89190612e2d565b603880546001600160a01b0319166001600160a01b03929092169190911790558015611589576000805461ff00191690555050565b603a5460405163ba1edf1760e01b81526001600160a01b039091169063ba1edf1790611941903390869086906004016132cf565b600060405180830381600087803b15801561195b57600080fd5b505af115801561196f573d6000803e3d6000fd5b50505050505050565b600080606080603960009054906101000a90046001600160a01b03166001600160a01b031663e2cd08626040518163ffffffff1660e01b815260040160206040518083038186803b1580156119cc57600080fd5b505afa1580156119e0573d6000803e3d6000fd5b505050506040513d601f19601f82011682018060405250810190611a049190613170565b67ffffffffffffffff81118015611a1a57600080fd5b50604051908082528060200260200182016040528015611a44578160200160208202803683370190505b5090506060815167ffffffffffffffff81118015611a6157600080fd5b50604051908082528060200260200182016040528015611a8b578160200160208202803683370190505b50905060005b8251811015611ae05780838281518110611aa757fe5b60200260200101818152505086828281518110611ac057fe5b6001600160a01b0390921660209283029190910190910152600101611a91565b506037546040516313849cfd60e21b81526001600160a01b0390911690634e1273f490611b139084908690600401613408565b60006040518083038186803b158015611b2b57600080fd5b505afa158015611b3f573d6000803e3d6000fd5b505050506040513d6000823e601f3d908101601f19168201604052611b679190810190612fc2565b603954604051637008ec1b60e11b815291945060609182916001600160a01b03169063e011d83690611b9d90879060040161345e565b60006040518083038186803b158015611bb557600080fd5b505afa158015611bc9573d6000803e3d6000fd5b505050506040513d6000823e601f3d908101601f19168201604052611bf19190810190612ffd565b9150915060005b8551811015611c8e57600080848381518110611c1057fe5b6020026020010151848481518110611c2457fe5b602002602001015191509150611c56888481518110611c3f57fe5b602002602001015183611ea890919063ffffffff16565b8a019950611c80888481518110611c6957fe5b602002602001015182611ea890919063ffffffff16565b909801975050600101611bf8565b505050509193509193565b6000600a81611ca88983611ee2565b611cb3576001611cbd565b611cbd8983611ee2565b90506000611ccb8884611ee2565b611cd6576001611ce0565b611ce08884611ee2565b9050818102600080805b8860ff168160ff161015611dfa578915611d8e57611d09600186611f66565b9250611d16600187611f66565b91507f3ab8d16fa0445f4581f0e35996348d2507338000fb353856d56f5db15618e39482848f8e604051611d4d9493929190613760565b60405180910390a1828d11611d63576000611d6d565b611d6d8d84611f24565b9c50818b11611d7d576000611d87565b611d878b83611f24565b9a50611ddd565b611d99600186611f66565b9250611da6600187611f66565b9150818b11611db6576000611dc0565b611dc08b83611f24565b9a50828d11611dd0576000611dda565b611dda8d84611f24565b9c505b8c1580611de857508a155b15611df257611dfa565b600101611cea565b50898c1196507fa09af1f69f0376e675eb9a774ff51b588670dda43c3dd6805069596312e3bca5878d8c604051611e3393929190613471565b60405180910390a15050505050509695505050505050565b8051825160009160ff9182169116148015611e735750816040015160ff16836040015160ff16145b8015611e8c5750816020015160ff16836020015160ff16145b8015611e9f575081606001518360600151145b90505b92915050565b600082611eb757506000611ea2565b82820282848281611ec457fe5b0414611e9f5760405162461bcd60e51b81526004016102ab9061356d565b6000611e9f83836040518060400160405280601a81526020017f536166654d6174683a206469766973696f6e206279207a65726f000000000000815250612734565b6000611e9f83836040518060400160405280601e81526020017f536166654d6174683a207375627472616374696f6e206f766572666c6f77000081525061276d565b60008133603354603454604051602001611f8293929190613291565b6040516020818303038152906040528051906020012060001c81611fa257fe5b069050828110611fb25780611fb6565b8281015b6034805460010190559392505050565b815160009060ff161580611fe257508151835160ff9182169116115b15611fef57506000611ea2565b604083015160ff1615806120105750816040015160ff16836040015160ff16115b1561201d57506000611ea2565b602083015160ff16158061203e5750816020015160ff16836020015160ff16115b1561204b57506000611ea2565b60608301511580612063575081606001518360600151115b1561207057506000611ea2565b50600192915050565b805160009060ff1615806120925750604082015160ff16155b806120a25750602082015160ff16155b80611ea2575050606001511590565b6000806120bc612799565b60395460405163083b214d60e41b81529294509092506001600160a01b0316906383b214d0906120f290869086906004016136e6565b600060405180830381600087803b15801561210c57600080fd5b505af1158015612120573d6000803e3d6000fd5b50505050336001600160a01b03167f119eeac2475e395d798da3c40d9f901a3131b79a826c604a60d078764e8ce40883601481111561215b57fe5b604051612168919061377b565b60405180910390a2600982601481111561217e57fe5b141561218b57505061272b565b600182601481111561219957fe5b14806121b0575060038260148111156121ae57fe5b145b806121c6575060058260148111156121c457fe5b145b156122cd57603954604051636a2a747360e01b815260009182916001600160a01b0390911690636a2a747390612200908790600401613489565b6040805180830381600087803b15801561221957600080fd5b505af115801561222d573d6000803e3d6000fd5b505050506040513d601f19601f8201168201806040525081019061225191906131ba565b9150915060008060608061226433611978565b93509350935093507f39c31677b1650d5b983fb38bf1ee25e9ca25658b8bdfb9263e59651183b483683387873088886040516122a596959493929190613345565b60405180910390a160006122bf878787876001600a611c99565b90505050505050505061017e565b600b8260148111156122db57fe5b14806122f25750600d8260148111156122f057fe5b145b806123085750600f82601481111561230657fe5b145b8061231e5750601382601481111561231c57fe5b145b1561251157603954604051634f4815d760e01b815260009182916001600160a01b0390911690634f4815d790612358908790600401613489565b6040805180830381600087803b15801561237157600080fd5b505af1158015612385573d6000803e3d6000fd5b505050506040513d601f19601f820116820180604052508101906123a991906131ba565b915091506000603960009054906101000a90046001600160a01b03166001600160a01b03166304d5aae16040518163ffffffff1660e01b8152600401602060405180830381600087803b1580156123ff57600080fd5b505af1158015612413573d6000803e3d6000fd5b505050506040513d601f19601f820116820180604052508101906124379190613170565b6039549091506001600160a01b0316634b087b22826124568686611f66565b6040518363ffffffff1660e01b8152600401612473929190613752565b600060405180830381600087803b15801561248d57600080fd5b505af11580156124a1573d6000803e3d6000fd5b5050603a5460405163a080ee1560e01b81526001600160a01b03909116925063a080ee1591506124d7903390859060040161332c565b600060405180830381600087803b1580156124f157600080fd5b505af1158015612505573d6000803e3d6000fd5b5050505050505061017e565b600e82601481111561251f57fe5b141561264f576000612532826002612a6d565b1561253e576001612541565b60025b60ff16905061254e612cee565b612556612aaf565b604080516001808252818301909252919250606091906020808301908036833750506040805160018082528183019092529293506060929150602080830190803683370190505090508260200151826000815181106125b157fe5b602090810291909101015282516125c89085611ea8565b816000815181106125d557fe5b6020908102919091010152603a5460405163ba1edf1760e01b81526001600160a01b039091169063ba1edf1790612614903390869086906004016132cf565b600060405180830381600087803b15801561262e57600080fd5b505af1158015612642573d6000803e3d6000fd5b505050505050505061017e565b601082601481111561265d57fe5b141561017e5761266b612cee565b612673612b81565b604080516001808252818301909252919250606091906020808301908036833750506040805160018082528183019092529293506060929150602080830190803683370190505090508260200151826000815181106126ce57fe5b6020026020010181815250508260000151816000815181106126ec57fe5b6020908102919091010152603a5460405163ba1edf1760e01b81526001600160a01b039091169063ba1edf1790611210903390869086906004016132cf565b50565b303b1590565b600081836127555760405162461bcd60e51b81526004016102ab919061349c565b50600083858161276157fe5b049150505b9392505050565b600081848411156127915760405162461bcd60e51b81526004016102ab919061349c565b505050900390565b60008061271060646127ac600183611f66565b925082600161ffff821614156127c55760019450612a66565b8061ffff16602a14156127db5760029450612a66565b816005028161ffff16116127f25760039450612a66565b816005028161ffff1611801561280f575081600a028161ffff1611155b1561281d5760049450612a66565b81600a028161ffff1611801561283a5750816014028161ffff1611155b156128485760059450612a66565b816014028161ffff16118015612865575081601e028161ffff1611155b156128735760069450612a66565b81601e028161ffff161180156128905750816023028161ffff1611155b1561289e5760079450612a66565b816023028161ffff161180156128bb5750816028028161ffff1611155b156128c95760089450612a66565b816028028161ffff161180156128e65750816041028161ffff1611155b156128f457600b9450612a66565b816041028161ffff161180156129115750816046028161ffff1611155b1561291f57600c9450612a66565b816046028161ffff1611801561293c575081604b168161ffff1611155b1561294a57600d9450612a66565b816046028161ffff161180156129675750816050168161ffff1611155b1561297557600e9450612a66565b816050028161ffff161180156129925750816055168161ffff1611155b156129a057600f9450612a66565b816055028161ffff161180156129bd575081605a168161ffff1611155b156129cb5760109450612a66565b81605a028161ffff161180156129e8575081605f168161ffff1611155b156129f65760119450612a66565b81605f028161ffff16118015612a135750816063168161ffff1611155b15612a215760129450612a66565b816063028161ffff16118015612a3e5750600183038161ffff1611155b15612a4c5760139450612a66565b828161ffff161415612a615760149450612a66565b600994505b5050509091565b6000611e9f83836040518060400160405280601881526020017f536166654d6174683a206d6f64756c6f206279207a65726f0000000000000000815250612c2d565b612ab7612cee565b612abf612d08565b73__Types_________________________________63c0e6aff16040518163ffffffff1660e01b81526004016103006040518083038186803b158015612b0457600080fd5b505af4158015612b18573d6000803e3d6000fd5b505050506040513d601f19601f82011682018060405250810190612b3c9190612ef4565b90506000612b4c60006018611f66565b90506000828260188110612b5c57fe5b6020020151905060405180604001604052806001815260200182815250935050505090565b612b89612cee565b612b91612d27565b73__Types_________________________________63075587706040518163ffffffff1660e01b815260040160606040518083038186803b158015612bd557600080fd5b505af4158015612be9573d6000803e3d6000fd5b505050506040513d601f19601f82011682018060405250810190612c0d9190612f5c565b90506000612c1d60006003611f66565b90506000828260038110612b5c57fe5b60008183612c4e5760405162461bcd60e51b81526004016102ab919061349c565b50828481612c5857fe5b06949350505050565b604051806101600160405280612c75612cc7565b815260200160008152602001600081526020016060815260200160608152602001612c9e612cc7565b815260200160008152602001600081526020016060815260200160608152602001606081525090565b60408051608081018252600080825260208201819052918101829052606081019190915290565b604051806040016040528060008152602001600081525090565b6040518061030001604052806018906020820280368337509192915050565b60405180606001604052806003906020820280368337509192915050565b600082601f830112612d55578081fd5b8135612d68612d63826137d4565b6137ad565b818152915060208083019084810181840286018201871015612d8957600080fd5b60005b84811015612da857813584529282019290820190600101612d8c565b505050505092915050565b600082601f830112612dc3578081fd5b8151612dd1612d63826137d4565b818152915060208083019084810181840286018201871015612df257600080fd5b60005b84811015612da857815184529282019290820190600101612df5565b600060208284031215612e22578081fd5b8135611e9f816137fe565b600060208284031215612e3e578081fd5b8151611e9f816137fe565b600080600060608486031215612e5d578182fd5b8335612e68816137fe565b9250602084013567ffffffffffffffff80821115612e84578384fd5b612e9087838801612d45565b93506040860135915080821115612ea5578283fd5b50612eb286828701612d45565b9150509250925092565b60008060408385031215612ece578182fd5b8235612ed9816137fe565b91506020830135612ee981613820565b809150509250929050565b6000610300808385031215612f07578182fd5b83601f840112612f15578182fd5b612f1e816137ad565b8084868487011115612f2e578485fd5b8493505b6018841015612f5257805183526001939093019260209283019201612f32565b5095945050505050565b600060608284031215612f6d578081fd5b82601f830112612f7b578081fd5b612f8560606137ad565b808385606086011115612f96578384fd5b835b6003811015612fb7578151845260209384019390910190600101612f98565b509095945050505050565b600060208284031215612fd3578081fd5b815167ffffffffffffffff811115612fe9578182fd5b612ff584828501612db3565b949350505050565b6000806040838503121561300f578182fd5b825167ffffffffffffffff80821115613026578384fd5b61303286838701612db3565b93506020850151915080821115613047578283fd5b5061305485828601612db3565b9150509250929050565b60006020828403121561306f578081fd5b8135611e9f81613813565b60006020828403121561308b578081fd5b8151611e9f81613813565b6000608082840312156130a7578081fd5b6130b160806137ad565b82356130bc81613820565b815260208301356130cc81613820565b602082015260408301356130df81613820565b60408201526060928301359281019290925250919050565b600060808284031215613108578081fd5b61311260806137ad565b825161311d81613820565b8152602083015161312d81613820565b6020820152604083015161314081613820565b60408201526060928301519281019290925250919050565b600060208284031215613169578081fd5b5035919050565b600060208284031215613181578081fd5b5051919050565b60008060006060848603121561319c578081fd5b83359250602084013567ffffffffffffffff80821115612e84578283fd5b600080604083850312156131cc578182fd5b505080516020909101519092909150565b6000815180845260208085019450808401835b8381101561320c578151875295820195908201906001016131f0565b509495945050505050565b60008151808452815b8181101561323c57602081850181015186830182015201613220565b8181111561324d5782602083870101525b50601f01601f19169290920160200192915050565b60ff815116825260ff602082015116602083015260ff6040820151166040830152606081015160608301525050565b60609390931b6bffffffffffffffffffffffff191683526014830191909152603482015260540190565b6001600160a01b0391909116815260200190565b6001600160a01b03841681526060602082018190526000906132f3908301856131dd565b828103604084015261330581856131dd565b9695505050505050565b6001600160a01b038316815260a081016127666020830184613262565b6001600160a01b03929092168252602082015260400190565b6001600160a01b0396871681526020810195909552604085019390935293166060830152608082019290925260a081019190915260c00190565b6001600160a01b039384168152919092166020820152604081019190915260600190565b6001600160a01b03948516815292841660208401529083166040830152909116606082015260800190565b6001600160a01b0396871681529486166020860152928516604085015293166060830152608082019290925260a081019190915260c00190565b604080825283519082018190526000906020906060840190828701845b8281101561344a5781516001600160a01b031684529284019290840190600101613425565b5050508381038285015261330581866131dd565b600060208252611e9f60208301846131dd565b92151583526020830191909152604082015260600190565b60208101613496836137f4565b91905290565b600060208252611e9f6020830184613217565b60208082526038908201527f506f736974696f6e206d7573742062652077697468696e20736574206c696d6960408201527f7473206f6620746865206b6e6f776e20756e6976657273650000000000000000606082015260800190565b60208082526010908201526f29b2b73232b9103737ba1037bbb732b960811b604082015260600190565b6020808252601f908201527f416464726573736573206d757374206578697374206d75737420657869737400604082015260600190565b60208082526021908201527f536166654d6174683a206d756c7469706c69636174696f6e206f766572666c6f6040820152607760f81b606082015260800190565b6020808252602e908201527f436f6e747261637420696e7374616e63652068617320616c726561647920626560408201526d195b881a5b9a5d1a585b1a5e995960921b606082015260800190565b6020808252601a908201527f596f752063616e6e6f742061747461636b20796f757273656c66000000000000604082015260600190565b60208082526038908201527f596f752063616e206f6e6c792061747461636b2070656f706c6520617420796f60408201527f75722063757272656e742073746172206c6f636174696f6e0000000000000000606082015260800190565b60208082526028908201527f596f752063616e6e6f74206d6f766520746f20796f75722063757272656e74206040820152673637b1b0ba34b7b760c11b606082015260800190565b60808101611ea28284613262565b60a081016136f48285613262565b6136fd836137f4565b8260808301529392505050565b61ffff91909116815260200190565b90815260200190565b9182526001600160a01b0316602082015260400190565b600083825260406020830152612ff56040830184613217565b918252602082015260400190565b93845260208401929092526040830152606082015260800190565b60ff91909116815260200190565b60ff9485168152928416602084015292166040820152606081019190915260800190565b60405181810167ffffffffffffffff811182821017156137cc57600080fd5b604052919050565b600067ffffffffffffffff8211156137ea578081fd5b5060209081020190565b6015811061272b57fe5b6001600160a01b038116811461272b57600080fd5b6015811061272b57600080fd5b60ff8116811461272b57600080fdfea2646970667358221220e868484e11d0acdcd52a0e79d87f8d4e5363594218cd264d109fd3323bc920a064736f6c634300060c0033",
  "immutableReferences": {},
  "source": "pragma solidity 0.6.12;\npragma experimental ABIEncoderV2;\n\nimport {GameOperations} from '../GameOperations.sol';\nimport {Types} from '../lib/Types.sol';\n\n/* solium-disable-next-line */\ncontract TestGameOperations is GameOperations {\n    // create test functions\n    event TestAddress(address a, address b, address c, address d);\n    event TestUint(uint256 a, uint256 b);\n\n    function testAiFleetAttack(Types.SystemType starSystem) public {\n        (uint256 a_offense, uint256 a_defense) = GS.getAiFleetInfo(starSystem);\n        (\n            uint256 d_offense,\n            uint256 d_defense,\n            uint256[] memory d_balances,\n            uint256[] memory d_ids\n        ) = calculateStats(msg.sender);\n        emit BattleStarted(msg.sender, a_offense, a_defense, address(this), d_offense, d_defense);\n\n        bool result = battle(a_offense, a_defense, d_offense, d_defense, true, 10);\n    }\n\n    function testFhrDiscovery(Types.SystemType systemType) public {\n        (uint256 low, uint256 high) = GS.getStarSystemYieldRange(systemType);\n        uint256 yield = randomrange(low, high);\n        uint256 _id = GS.incrementTotalFhr();\n        emit TestUint(yield, _id);\n        TS.mintFhr(msg.sender, _id);\n        emit TestAddress(address(pm), address(solar), address(fhr), address(sats));\n        address _address = pm.createPlanet(\n            _id,\n            abi.encodeWithSignature(\n                'initialize(address,address,address,address,uint256,uint256)',\n                address(pm),\n                address(solar),\n                address(fhr),\n                address(sats),\n                yield,\n                _id\n            )\n        );\n        GS.setTokenIdToProxyAddress(_id, _address);\n        GS.setProxyAddressToTokenId(_id, _address);\n    }\n\n    function testSatDiscovery(\n        uint256 rand,\n        uint256[] memory ships,\n        uint256[] memory amounts\n    ) public {\n        TS.sendSats(msg.sender, ships, amounts);\n        // updateMasterFleet(msg.sender, ships, amounts);\n    }\n\n    function testUpdateMasterFleet(\n        address master,\n        uint256[] memory ids,\n        uint256[] memory amounts\n    ) public {\n        // updateMasterFleet(master, ids, amounts);\n    }\n}\n",
  "sourcePath": "C:/Users/James/projects/tsuno-fe/contracts/testing/TestGameOperations.sol",
  "compiler": {
    "name": "solc",
    "version": "0.6.12+commit.27d51765.Emscripten.clang"
  },
  "schemaVersion": "3.2.5",
  "updatedAt": "2020-10-22T10:03:09.710Z",
  "networkType": "ethereum",
  "devdoc": {
    "kind": "dev",
    "methods": {},
    "version": 1
  },
  "userdoc": {
    "kind": "user",
    "methods": {},
    "version": 1
  }
}