{
  "contractName": "TestMaster",
  "abi": [
    {
      "inputs": [
        {
          "internalType": "address",
          "name": "tsuno",
          "type": "address"
        },
        {
          "internalType": "address",
          "name": "solar",
          "type": "address"
        },
        {
          "internalType": "address",
          "name": "sat",
          "type": "address"
        }
      ],
      "stateMutability": "nonpayable",
      "type": "constructor"
    },
    {
      "inputs": [],
      "name": "getBalance",
      "outputs": [
        {
          "internalType": "uint256",
          "name": "",
          "type": "uint256"
        }
      ],
      "stateMutability": "view",
      "type": "function"
    },
    {
      "inputs": [],
      "name": "getDateUnlocked",
      "outputs": [
        {
          "internalType": "uint256",
          "name": "",
          "type": "uint256"
        }
      ],
      "stateMutability": "view",
      "type": "function"
    },
    {
      "inputs": [
        {
          "internalType": "uint256",
          "name": "stakeTsuno",
          "type": "uint256"
        },
        {
          "internalType": "uint256",
          "name": "stakedDays",
          "type": "uint256"
        }
      ],
      "name": "getPotentialReward",
      "outputs": [
        {
          "internalType": "uint256",
          "name": "",
          "type": "uint256"
        }
      ],
      "stateMutability": "nonpayable",
      "type": "function"
    },
    {
      "inputs": [],
      "name": "getReward",
      "outputs": [
        {
          "internalType": "uint256",
          "name": "",
          "type": "uint256"
        }
      ],
      "stateMutability": "view",
      "type": "function"
    }
  ],
  "bytecode": "0x608060405234801561001057600080fd5b506040516102e23803806102e283398101604081905261002f91610071565b600380546001600160a01b039485166001600160a01b0319918216179091556004805493851693821693909317909255600580549190931691161790556100d5565b600080600060608486031215610085578283fd5b8351610090816100bd565b60208501519093506100a1816100bd565b60408501519092506100b2816100bd565b809150509250925092565b6001600160a01b03811681146100d257600080fd5b50565b6101fe806100e46000396000f3fe608060405234801561001057600080fd5b506004361061004c5760003560e01c806312065fe0146100515780633d18b9121461006f57806382c7d5571461007757806399d7d17f1461008a575b600080fd5b610059610092565b60405161006691906101bf565b60405180910390f35b6100596100a4565b61005961008536600461019e565b6100b1565b6100596100c4565b600061009f6000336100d1565b905090565b600061009f6000336100ed565b60006100bd838361010c565b9392505050565b600061009f60003361017f565b6001600160a01b03166000908152602091909152604090205490565b6001600160a01b03166000908152602091909152604090206003015490565b60008060018311156101325761071c83111561012a5761071c61012f565b600183035b90505b60006308f0d18084111561014a576308f0d18061014c565b845b90506b04d8c55aefb8c05b5c000000820261038e8202016c113a8d894022bbc4c108000000868202049695505050505050565b6001600160a01b03166000908152602091909152604090206002015490565b600080604083850312156101b0578182fd5b50508035926020909101359150565b9081526020019056fea264697066735822122031748309f0fa0d3942ff0ae1da6f65d8afb97cf19e74d93c8baeaedda476ec6d64736f6c634300060c0033",
  "immutableReferences": {},
  "source": "// SPDX-License-Identifier: MIT\npragma solidity 0.6.12;\npragma experimental ABIEncoderV2;\n\nimport {SafeMath} from '@openzeppelin/contracts/math/SafeMath.sol';\nimport {Master} from '../protocol/master.sol';\n\ncontract TestMaster is Master {\n    constructor(\n        address tsuno,\n        address solar,\n        address sat\n    ) public Master(tsuno, solar, sat) {}\n\n    // function giveArmyA() public {\n    //     g_state.masters[msg.sender].army.soldiers = 1000;\n    //     g_state.masters[msg.sender].army.cavalry = 1000;\n    //     g_state.masters[msg.sender].army.archers = 1000;\n    //     g_state.masters[msg.sender].army.siegeWeapons = 0;\n    //     g_state.masters[msg.sender].army.defenceStructures = 1000;\n    // }\n\n    // function giveArmyB() public {\n    //     g_state.masters[msg.sender].army.soldiers = 1000;\n    //     g_state.masters[msg.sender].army.cavalry = 1000;\n    //     g_state.masters[msg.sender].army.archers = 1000;\n    //     g_state.masters[msg.sender].army.siegeWeapons = 500;\n    //     g_state.masters[msg.sender].army.defenceStructures = 750;\n    // }\n}\n",
  "sourcePath": "C:/Users/James/projects/tsuno-fe/contracts/testing/TestMaster.sol",
  "compiler": {
    "name": "solc",
    "version": "0.6.12+commit.27d51765.Emscripten.clang"
  },
  "schemaVersion": "3.2.5",
  "updatedAt": "2020-09-23T17:32:38.991Z",
  "devdoc": {
    "kind": "dev",
    "methods": {},
    "version": 1
  },
  "userdoc": {
    "kind": "user",
    "methods": {},
    "version": 1
  }
}