{
  "contractName": "Treasury",
  "abi": [
    {
      "inputs": [
        {
          "internalType": "address",
          "name": "",
          "type": "address"
        },
        {
          "internalType": "address",
          "name": "",
          "type": "address"
        },
        {
          "internalType": "uint256[]",
          "name": "",
          "type": "uint256[]"
        },
        {
          "internalType": "uint256[]",
          "name": "",
          "type": "uint256[]"
        },
        {
          "internalType": "bytes",
          "name": "",
          "type": "bytes"
        }
      ],
      "name": "onERC1155BatchReceived",
      "outputs": [
        {
          "internalType": "bytes4",
          "name": "",
          "type": "bytes4"
        }
      ],
      "stateMutability": "nonpayable",
      "type": "function"
    },
    {
      "inputs": [
        {
          "internalType": "address",
          "name": "",
          "type": "address"
        },
        {
          "internalType": "address",
          "name": "",
          "type": "address"
        },
        {
          "internalType": "uint256",
          "name": "",
          "type": "uint256"
        },
        {
          "internalType": "uint256",
          "name": "",
          "type": "uint256"
        },
        {
          "internalType": "bytes",
          "name": "",
          "type": "bytes"
        }
      ],
      "name": "onERC1155Received",
      "outputs": [
        {
          "internalType": "bytes4",
          "name": "",
          "type": "bytes4"
        }
      ],
      "stateMutability": "nonpayable",
      "type": "function"
    },
    {
      "inputs": [
        {
          "internalType": "bytes4",
          "name": "interfaceId",
          "type": "bytes4"
        }
      ],
      "name": "supportsInterface",
      "outputs": [
        {
          "internalType": "bool",
          "name": "",
          "type": "bool"
        }
      ],
      "stateMutability": "view",
      "type": "function",
      "constant": true
    },
    {
      "inputs": [
        {
          "internalType": "address",
          "name": "_es",
          "type": "address"
        }
      ],
      "name": "initialize",
      "outputs": [],
      "stateMutability": "nonpayable",
      "type": "function"
    },
    {
      "inputs": [
        {
          "internalType": "address",
          "name": "_to",
          "type": "address"
        },
        {
          "internalType": "uint256[]",
          "name": "_ids",
          "type": "uint256[]"
        },
        {
          "internalType": "uint256[]",
          "name": "_amounts",
          "type": "uint256[]"
        }
      ],
      "name": "sendSats",
      "outputs": [],
      "stateMutability": "nonpayable",
      "type": "function"
    },
    {
      "inputs": [
        {
          "internalType": "address",
          "name": "_from",
          "type": "address"
        },
        {
          "internalType": "uint256[]",
          "name": "_ids",
          "type": "uint256[]"
        },
        {
          "internalType": "uint256[]",
          "name": "_amounts",
          "type": "uint256[]"
        }
      ],
      "name": "recieveSats",
      "outputs": [],
      "stateMutability": "nonpayable",
      "type": "function"
    },
    {
      "inputs": [
        {
          "internalType": "address",
          "name": "_to",
          "type": "address"
        },
        {
          "internalType": "uint256",
          "name": "_tokenId",
          "type": "uint256"
        }
      ],
      "name": "mintFhr",
      "outputs": [],
      "stateMutability": "nonpayable",
      "type": "function"
    }
  ],
  "bytecode": "0x608060405234801561001057600080fd5b506100216301ffc9a760e01b610036565b610031630271189760e51b610036565b6100c5565b6001600160e01b031980821614156100695760405162461bcd60e51b81526004016100609061008e565b60405180910390fd5b6001600160e01b0319166000908152602081905260409020805460ff19166001179055565b6020808252601c908201527f4552433136353a20696e76616c696420696e7465726661636520696400000000604082015260600190565b6108f9806100d46000396000f3fe608060405234801561001057600080fd5b506004361061007d5760003560e01c8063bc197c811161005b578063bc197c81146100d3578063c4d66de8146100f3578063f23a6e6114610106578063feba2dd5146101195761007d565b806301ffc9a714610082578063a080ee15146100ab578063ba1edf17146100c0575b600080fd5b610095610090366004610788565b61012c565b6040516100a2919061085b565b60405180910390f35b6100be6100b936600461075d565b61014b565b005b6100be6100ce3660046106ea565b6101b3565b6100e66100e13660046105d9565b610220565b6040516100a2919061086f565b6100be61010136600461059a565b610231565b6100e6610114366004610683565b61046a565b6100be6101273660046106ea565b61047b565b6001600160e01b03191660009081526020819052604090205460ff1690565b6001546040516340c10f1960e01b81526001600160a01b03909116906340c10f199061017d9085908590600401610842565b600060405180830381600087803b15801561019757600080fd5b505af11580156101ab573d6000803e3d6000fd5b505050505050565b600354604051631759616b60e11b81526001600160a01b0390911690632eb2c2d6906101e99030908790879087906004016107ea565b600060405180830381600087803b15801561020357600080fd5b505af1158015610217573d6000803e3d6000fd5b50505050505050565b63bc197c8160e01b95945050505050565b600480546001600160a01b0319166001600160a01b03838116919091178083556040516321f8a72160e01b81529116916321f8a72191610293917f644c173f435dc625f877f010ca80c2977e3857cc49b01119584fd99a3dd497419101610866565b60206040518083038186803b1580156102ab57600080fd5b505afa1580156102bf573d6000803e3d6000fd5b505050506040513d601f19601f820116820180604052508101906102e391906105bd565b600180546001600160a01b0319166001600160a01b03928316179055600480546040516321f8a72160e01b81529216916321f8a72191610345917f74ae7744c39f2e96c3aa82438ce5957a2a5a73fd6a10be3d8ee9f1f5013557bb9101610866565b60206040518083038186803b15801561035d57600080fd5b505afa158015610371573d6000803e3d6000fd5b505050506040513d601f19601f8201168201806040525081019061039591906105bd565b600280546001600160a01b0319166001600160a01b03928316179055600480546040516321f8a72160e01b81529216916321f8a721916103f7917fc76dc8007b3273275fd04e9508bdc23d5db4f4556b27a48f37d606a72595b9999101610866565b60206040518083038186803b15801561040f57600080fd5b505afa158015610423573d6000803e3d6000fd5b505050506040513d601f19601f8201168201806040525081019061044791906105bd565b600380546001600160a01b0319166001600160a01b039290921691909117905550565b63f23a6e6160e01b95945050505050565b600354604051631759616b60e11b81526001600160a01b0390911690632eb2c2d6906101e99086903090879087906004016107ea565b600082601f8301126104c1578081fd5b813567ffffffffffffffff8111156104d7578182fd5b60208082026104e7828201610884565b8381529350818401858301828701840188101561050357600080fd5b600092505b84831015610526578035825260019290920191908301908301610508565b505050505092915050565b600082601f830112610541578081fd5b813567ffffffffffffffff811115610557578182fd5b61056a601f8201601f1916602001610884565b915080825283602082850101111561058157600080fd5b8060208401602084013760009082016020015292915050565b6000602082840312156105ab578081fd5b81356105b6816108ab565b9392505050565b6000602082840312156105ce578081fd5b81516105b6816108ab565b600080600080600060a086880312156105f0578081fd5b85356105fb816108ab565b9450602086013561060b816108ab565b9350604086013567ffffffffffffffff80821115610627578283fd5b61063389838a016104b1565b94506060880135915080821115610648578283fd5b61065489838a016104b1565b93506080880135915080821115610669578283fd5b5061067688828901610531565b9150509295509295909350565b600080600080600060a0868803121561069a578081fd5b85356106a5816108ab565b945060208601356106b5816108ab565b93506040860135925060608601359150608086013567ffffffffffffffff8111156106de578182fd5b61067688828901610531565b6000806000606084860312156106fe578283fd5b8335610709816108ab565b9250602084013567ffffffffffffffff80821115610725578384fd5b610731878388016104b1565b93506040860135915080821115610746578283fd5b50610753868287016104b1565b9150509250925092565b6000806040838503121561076f578182fd5b823561077a816108ab565b946020939093013593505050565b600060208284031215610799578081fd5b81356001600160e01b0319811681146105b6578182fd5b6000815180845260208085019450808401835b838110156107df578151875295820195908201906001016107c3565b509495945050505050565b6001600160a01b0385811682528416602082015260a060408201819052600090610816908301856107b0565b828103606084015261082881856107b0565b838103608090940193909352508152602001949350505050565b6001600160a01b03929092168252602082015260400190565b901515815260200190565b90815260200190565b6001600160e01b031991909116815260200190565b60405181810167ffffffffffffffff811182821017156108a357600080fd5b604052919050565b6001600160a01b03811681146108c057600080fd5b5056fea26469706673582212203a8ec307ed549238e41add84a4f75184bcdc912c250ac0d5bf0a578446103bed64736f6c634300060c0033",
  "immutableReferences": {},
  "source": "// SPDX-License-Identifier: MIT\n\npragma solidity 0.6.12;\npragma experimental ABIEncoderV2;\nimport {IFHR} from './interfaces/IFHR.sol';\nimport {ISolar} from './interfaces/ISolar.sol';\nimport {ISat} from './interfaces/ISat.sol';\nimport {EternalStorage} from './EternalStorage.sol';\nimport {\n    ERC1155Holder\n} from '@openzeppelin/contracts/token/ERC1155/ERC1155Holder.sol';\n\ncontract Treasury is ERC1155Holder {\n    IFHR fhr;\n    ISolar solar;\n    ISat sats;\n    EternalStorage es;\n\n    function initialize(address _es) public {\n        es = EternalStorage(_es);\n        fhr = IFHR(es.getAddress(keccak256('contract.address.fhr')));\n        solar = ISolar(es.getAddress(keccak256('contract.address.solar')));\n        sats = ISat(es.getAddress(keccak256('contract.address.sats')));\n    }\n\n    function sendSats(\n        address _to,\n        uint256[] memory _ids,\n        uint256[] memory _amounts\n    ) public {\n        sats.safeBatchTransferFrom(address(this), _to, _ids, _amounts, '');\n    }\n\n    function recieveSats(\n        address _from,\n        uint256[] memory _ids,\n        uint256[] memory _amounts\n    ) public {\n        sats.safeBatchTransferFrom(_from, address(this), _ids, _amounts, '');\n    }\n\n    function mintFhr(address _to, uint256 _tokenId) public {\n        fhr.mint(_to, _tokenId);\n    }\n}\n",
  "sourcePath": "C:/Users/James/projects/tsuno-fe/contracts/Treasury.sol",
  "compiler": {
    "name": "solc",
    "version": "0.6.12+commit.27d51765.Emscripten.clang"
  },
  "schemaVersion": "3.2.5",
  "updatedAt": "2020-10-09T10:38:50.258Z",
  "networkType": "ethereum",
  "devdoc": {
    "kind": "dev",
    "methods": {
      "supportsInterface(bytes4)": {
        "details": "See {IERC165-supportsInterface}. Time complexity O(1), guaranteed to always use less than 30 000 gas."
      }
    },
    "version": 1
  },
  "userdoc": {
    "kind": "user",
    "methods": {},
    "version": 1
  }
}