{
  "contractName": "Types",
  "abi": [
    {
      "inputs": [],
      "name": "getFederationShips",
      "outputs": [
        {
          "internalType": "uint256[8]",
          "name": "",
          "type": "uint256[8]"
        }
      ],
      "stateMutability": "pure",
      "type": "function",
      "constant": true
    },
    {
      "inputs": [],
      "name": "getFederationWeapons",
      "outputs": [
        {
          "internalType": "uint256[3]",
          "name": "",
          "type": "uint256[3]"
        }
      ],
      "stateMutability": "pure",
      "type": "function",
      "constant": true
    },
    {
      "inputs": [],
      "name": "getAlienShips",
      "outputs": [
        {
          "internalType": "uint256[8]",
          "name": "",
          "type": "uint256[8]"
        }
      ],
      "stateMutability": "pure",
      "type": "function",
      "constant": true
    },
    {
      "inputs": [],
      "name": "getAlienWeapons",
      "outputs": [
        {
          "internalType": "uint256[3]",
          "name": "",
          "type": "uint256[3]"
        }
      ],
      "stateMutability": "pure",
      "type": "function",
      "constant": true
    },
    {
      "inputs": [],
      "name": "getAdvancedRaceShips",
      "outputs": [
        {
          "internalType": "uint256[8]",
          "name": "",
          "type": "uint256[8]"
        }
      ],
      "stateMutability": "pure",
      "type": "function",
      "constant": true
    },
    {
      "inputs": [],
      "name": "getAdvancedRaceWeapons",
      "outputs": [
        {
          "internalType": "uint256[3]",
          "name": "",
          "type": "uint256[3]"
        }
      ],
      "stateMutability": "pure",
      "type": "function",
      "constant": true
    },
    {
      "inputs": [],
      "name": "getAnecienteShips",
      "outputs": [
        {
          "internalType": "uint256[8]",
          "name": "",
          "type": "uint256[8]"
        }
      ],
      "stateMutability": "pure",
      "type": "function",
      "constant": true
    },
    {
      "inputs": [],
      "name": "getAncientMiningShip",
      "outputs": [
        {
          "internalType": "uint256[3]",
          "name": "",
          "type": "uint256[3]"
        }
      ],
      "stateMutability": "pure",
      "type": "function",
      "constant": true
    },
    {
      "inputs": [],
      "name": "getAncientWeapons",
      "outputs": [
        {
          "internalType": "uint256[3]",
          "name": "",
          "type": "uint256[3]"
        }
      ],
      "stateMutability": "pure",
      "type": "function",
      "constant": true
    },
    {
      "inputs": [],
      "name": "getPirateShips",
      "outputs": [
        {
          "internalType": "uint256[1]",
          "name": "",
          "type": "uint256[1]"
        }
      ],
      "stateMutability": "pure",
      "type": "function",
      "constant": true
    },
    {
      "inputs": [],
      "name": "getAllNonAncientShips",
      "outputs": [
        {
          "internalType": "uint256[24]",
          "name": "",
          "type": "uint256[24]"
        }
      ],
      "stateMutability": "pure",
      "type": "function",
      "constant": true
    },
    {
      "inputs": [],
      "name": "getAllShips",
      "outputs": [
        {
          "internalType": "uint256[33]",
          "name": "",
          "type": "uint256[33]"
        }
      ],
      "stateMutability": "pure",
      "type": "function",
      "constant": true
    },
    {
      "inputs": [],
      "name": "getAllNonAncientWeapons",
      "outputs": [
        {
          "internalType": "uint256[9]",
          "name": "",
          "type": "uint256[9]"
        }
      ],
      "stateMutability": "pure",
      "type": "function",
      "constant": true
    },
    {
      "inputs": [],
      "name": "getAllWeapons",
      "outputs": [
        {
          "internalType": "uint256[12]",
          "name": "",
          "type": "uint256[12]"
        }
      ],
      "stateMutability": "pure",
      "type": "function",
      "constant": true
    }
  ],
  "bytecode": "0x61076c610026600b82828239805160001a60731461001957fe5b30600052607381538281f3fe73000000000000000000000000000000000000000030146080604052600436106100f45760003560e01c806387b4450e11610096578063c0e6aff111610070578063c0e6aff1146101d7578063c2659f98146101f5578063d0ac5c1f146101fd578063f33ba6241461021b576100f4565b806387b4450e146101bf5780638cd25c4e146101c7578063c075a79b146101cf576100f4565b8063414f6a3e116100d2578063414f6a3e146101755780635d781b0f1461017d578063644767a91461019b5780637785001d146101a3576100f4565b806307558770146100f9578063163f0fda146101395780633385d93b14610157575b600080fd5b610101610223565b6040518082606080838360005b8381101561012657818101518382015260200161010e565b5050505090500191505060405180910390f35b610141610250565b604051815181528082610180808383602061010e565b61015f6102bb565b604051815181528082610100808383602061010e565b6101016102fa565b610185610325565b604051815181528082610120808383602061010e565b61015f61036b565b6101ab6103b9565b60405181518152808260208083838261010e565b61015f6103d4565b610101610421565b61015f610448565b6101df610495565b604051815181528082610300808383602061010e565b610101610521565b61020561053c565b604051815181528082610420808383602061010e565b610101610638565b61022b61065f565b60408051606081019091528060265b81526020016027815260200160285b9052905090565b61025861067d565b604080516101808101909152806008815260200160098152602001600a8152602001601381526020016014815260200160158152602001601e8152602001601f8152602090810190815260200160295b8152602001602a8152602001602b610249565b6102c361069c565b604080516101008101909152806022815260200160238152602001602181526020016024815260200160258152602001602661023a565b61030261065f565b604080516060810190915280601e5b8152602001601f8152602090810190610249565b61032d6106bb565b604080516101208101909152806008815260200160098152602001600a8152602001601381526020016014815260200160158152602001601e610311565b61037361069c565b6040805161010081019091528060175b8152602001601881526020016016815260200160198152602001601a8152602001601b8152602001601c8152602001601d610249565b6103c16106da565b604080516020810190915280602c610249565b6103dc61069c565b60408051610100810190915280600081526020016001815260200160028152602001600381526020016004815260200160058152602001600681526020016007610249565b61042961065f565b604080516060810182526008815260096020820152908101600a610249565b61045061069c565b60408051610100810190915280600c8152602001600d8152602001600b8152602001600e8152602001600f815260200160108152602001601181526020016012610249565b61049d6106f8565b604080516103008101909152806000815260200160018152602001600281526020016003815260200160048152602001600581526020016006815260200160078152602001600c8152602001600d8152602001600b8152602001600e8152602001600f81526020016010815260200160118152602001601281526020016017610383565b61052961065f565b60408051606081019091528060296102a8565b610544610717565b604080516104208101909152806000815260200160018152602001600281526020016003815260200160048152602001600581526020016006815260200160078152602001600c8152602001600d8152602001600b8152602001600e8152602001600f815260200160108152602001601181526020016012815260200160178152602001601881526020016016815260200160198152602001601a8152602001601b8152602001601c8152602001601d81526020016022815260200160238152602001602181526020016024815260200160258152602001602681526020016027815260200160288152602001602c610249565b61064061065f565b6040805160608101825260138152601460208201529081016015610249565b60405180606001604052806003906020820280368337509192915050565b604051806101800160405280600c906020820280368337509192915050565b6040518061010001604052806008906020820280368337509192915050565b6040518061012001604052806009906020820280368337509192915050565b60405180602001604052806001906020820280368337509192915050565b6040518061030001604052806018906020820280368337509192915050565b604051806104200160405280602190602082028036833750919291505056fea264697066735822122028e461f0f3e6af2228d33b4ea97bed0b66708d1b79501a2cebf7281c9bdc347264736f6c634300060c0033",
  "immutableReferences": {},
  "source": "pragma solidity 0.6.12;\n\nlibrary Types {\n    // STAR POSITION\n    struct Position {\n        uint8 quadrant;\n        uint8 sector;\n        uint8 district;\n        uint256 star;\n    }\n\n    function positionIsEqual(Position memory a, Position memory b)\n        internal\n        returns (bool)\n    {\n        return (a.quadrant == b.quadrant &&\n            a.district == b.district &&\n            a.sector == b.sector &&\n            a.star == b.star);\n    }\n\n    function positionIsEqualUint(uint256 a, uint256 b) internal returns (bool) {\n        return a == b;\n    }\n\n    function positionNotSet(Position memory a) internal returns (bool) {\n        return (a.quadrant == 0 ||\n            a.district == 0 ||\n            a.sector == 0 ||\n            a.star == 0);\n    }\n\n    function positionWithinBoundaries(\n        Position memory a,\n        Position memory boundaries\n    ) internal returns (bool) {\n        if (a.quadrant <= 0 || a.quadrant > boundaries.quadrant) return false;\n        if (a.district <= 0 || a.district > boundaries.district) return false;\n        if (a.sector <= 0 || a.sector > boundaries.sector) return false;\n        if (a.star <= 0 || a.star > boundaries.star) return false;\n        return true;\n    }\n\n    // STAR SYSTEM\n\n    enum SystemType {\n        Undiscovered,\n        AncientFleetAggressive,\n        SuperComputerEvent,\n        AdvancedAlienFleetAggressive,\n        AiFleetAggressive,\n        AlienFleetAggressive,\n        PiratesEvent,\n        SolarWinds,\n        Asteroids,\n        Empty,\n        GovermentOwned,\n        LowYieldSystem,\n        RandomEvent,\n        MediumYieldSystem,\n        ShipWreck,\n        HighYieldSystem,\n        AncientMiningSystem,\n        AncientWeaponSystem,\n        AncientShipWreck,\n        InsaneYieldSystem,\n        AncientRacePassive\n    }\n    struct StarSystem {\n        SystemType systemType;\n        uint256 investment;\n        uint256 tokenId;\n        uint16 yield;\n        bool hasFleet;\n    }\n\n    enum ShipAndTechList {\n        FEDERATION_CRUISER,\n        FEDERATION_DESTROYER,\n        FEDERATION_MASTER_VESSEL,\n        FEDERATION_FIGHTER_PLANE,\n        FEDERATION_MARKET_SHIP,\n        FEDERATION_MINING_SHIP_SMALL,\n        FEDERATION_MINING_SHIP_MEDIUM,\n        FEDERATION_MINING_SHIP_LARGE,\n        FEDERATION_WEAPON_SYSTEM_SMALL,\n        FEDERATION_WEAPON_SYSTEM_MEDIUM,\n        FEDERATION_WEAPON_SYSTEM_LARGE,\n        ALIEN_MASTER_VESSEL,\n        ALIEN_CRUISER,\n        ALIEN_DESTROYER,\n        ALIEN_FIGHTER_PLANE,\n        ALIEN_MARKET_SHIP,\n        ALIEN_MINING_SHIP_SMALL,\n        ALIEN_MINING_SHIP_MEDIUM,\n        ALIEN_MINING_SHIP_LARGE,\n        ALIEN_WEAPON_SYSTEM_SMALL,\n        ALIEN_WEAPON_SYSTEM_MEDIUM,\n        ALIEN_WEAPON_SYSTEM_LARGE,\n        ADVANCED_RACE_MASTER_VESSEL,\n        ADVANCED_RACE_CRUISER,\n        ADVANCED_RACE_DESTROYER,\n        ADVANCED_RACE_FIGHTER_PLANE,\n        ADVANCED_RACE_MARKET_SHIP,\n        ADVANCED_RACE_MINING_SHIP_SMALL,\n        ADVANCED_RACE_MINING_SHIP_MEDIUM,\n        ADVANCED_RACE_MINING_SHIP_LARGE,\n        ADVANCED_RACE_WEAPON_SYSTEM_SMALL,\n        ADVANCED_RACE_WEAPON_SYSTEM_MEDIUM,\n        ADVANCED_RACE_WEAPON_SYSTEM_LARGE,\n        ANCIENT_MASTER_VESSEL,\n        ANCIENT_CRUISER,\n        ANCIENT_DESTROYER,\n        ANCIENT_FIGHTER_PLANE,\n        ANCIENT_MARKET_SHIP,\n        ANCIENT_MINING_SHIP_SMALL,\n        ANCIENT_MINING_SHIP_MEDIUM,\n        ANCIENT_MINING_SHIP_LARGE,\n        ANCIENT_WEAPON_SYSTEM_SMALL,\n        ANCIENT_WEAPON_SYSTEM_MEDIUM,\n        ANCIENT_WEAPON_SYSTEM_LARGE,\n        PIRATE_SHIP,\n        PIRATE_WEAPON\n    }\n\n    struct SatInfo {\n        uint256 amount;\n        uint256 id;\n    }\n\n    function getFederationShips() public pure returns (uint256[8] memory) {\n        return [\n            uint256(ShipAndTechList.FEDERATION_CRUISER),\n            uint256(ShipAndTechList.FEDERATION_DESTROYER),\n            uint256(ShipAndTechList.FEDERATION_MASTER_VESSEL),\n            uint256(ShipAndTechList.FEDERATION_FIGHTER_PLANE),\n            uint256(ShipAndTechList.FEDERATION_MARKET_SHIP),\n            uint256(ShipAndTechList.FEDERATION_MINING_SHIP_SMALL),\n            uint256(ShipAndTechList.FEDERATION_MINING_SHIP_MEDIUM),\n            uint256(ShipAndTechList.FEDERATION_MINING_SHIP_LARGE)\n        ];\n    }\n\n    function getFederationWeapons() public pure returns (uint256[3] memory) {\n        return [\n            uint256(ShipAndTechList.FEDERATION_WEAPON_SYSTEM_SMALL),\n            uint256(ShipAndTechList.FEDERATION_WEAPON_SYSTEM_MEDIUM),\n            uint256(ShipAndTechList.FEDERATION_WEAPON_SYSTEM_LARGE)\n        ];\n    }\n\n    function getAlienShips() public pure returns (uint256[8] memory) {\n        return [\n            uint256(ShipAndTechList.ALIEN_CRUISER),\n            uint256(ShipAndTechList.ALIEN_DESTROYER),\n            uint256(ShipAndTechList.ALIEN_MASTER_VESSEL),\n            uint256(ShipAndTechList.ALIEN_FIGHTER_PLANE),\n            uint256(ShipAndTechList.ALIEN_MARKET_SHIP),\n            uint256(ShipAndTechList.ALIEN_MINING_SHIP_SMALL),\n            uint256(ShipAndTechList.ALIEN_MINING_SHIP_MEDIUM),\n            uint256(ShipAndTechList.ALIEN_MINING_SHIP_LARGE)\n        ];\n    }\n\n    function getAlienWeapons() public pure returns (uint256[3] memory) {\n        return [\n            uint256(ShipAndTechList.ALIEN_WEAPON_SYSTEM_SMALL),\n            uint256(ShipAndTechList.ALIEN_WEAPON_SYSTEM_MEDIUM),\n            uint256(ShipAndTechList.ALIEN_WEAPON_SYSTEM_LARGE)\n        ];\n    }\n\n    function getAdvancedRaceShips() public pure returns (uint256[8] memory) {\n        return [\n            uint256(ShipAndTechList.ADVANCED_RACE_CRUISER),\n            uint256(ShipAndTechList.ADVANCED_RACE_DESTROYER),\n            uint256(ShipAndTechList.ADVANCED_RACE_MASTER_VESSEL),\n            uint256(ShipAndTechList.ADVANCED_RACE_FIGHTER_PLANE),\n            uint256(ShipAndTechList.ADVANCED_RACE_MARKET_SHIP),\n            uint256(ShipAndTechList.ADVANCED_RACE_MINING_SHIP_SMALL),\n            uint256(ShipAndTechList.ADVANCED_RACE_MINING_SHIP_MEDIUM),\n            uint256(ShipAndTechList.ADVANCED_RACE_MINING_SHIP_LARGE)\n        ];\n    }\n\n    function getAdvancedRaceWeapons() public pure returns (uint256[3] memory) {\n        return [\n            uint256(ShipAndTechList.ADVANCED_RACE_WEAPON_SYSTEM_SMALL),\n            uint256(ShipAndTechList.ADVANCED_RACE_WEAPON_SYSTEM_MEDIUM),\n            uint256(ShipAndTechList.ADVANCED_RACE_WEAPON_SYSTEM_LARGE)\n        ];\n    }\n\n    function getAnecienteShips() public pure returns (uint256[8] memory) {\n        return [\n            uint256(ShipAndTechList.ANCIENT_CRUISER),\n            uint256(ShipAndTechList.ANCIENT_DESTROYER),\n            uint256(ShipAndTechList.ANCIENT_MASTER_VESSEL),\n            uint256(ShipAndTechList.ANCIENT_FIGHTER_PLANE),\n            uint256(ShipAndTechList.ANCIENT_MARKET_SHIP),\n            uint256(ShipAndTechList.ANCIENT_MINING_SHIP_SMALL),\n            uint256(ShipAndTechList.ANCIENT_MINING_SHIP_MEDIUM),\n            uint256(ShipAndTechList.ANCIENT_MINING_SHIP_LARGE)\n        ];\n    }\n\n    function getAncientMiningShip() public pure returns (uint256[3] memory) {\n        return [\n            uint256(ShipAndTechList.ANCIENT_MINING_SHIP_SMALL),\n            uint256(ShipAndTechList.ANCIENT_MINING_SHIP_MEDIUM),\n            uint256(ShipAndTechList.ANCIENT_MINING_SHIP_LARGE)\n        ];\n    }\n\n    function getAncientWeapons() public pure returns (uint256[3] memory) {\n        return [\n            uint256(ShipAndTechList.ANCIENT_WEAPON_SYSTEM_SMALL),\n            uint256(ShipAndTechList.ANCIENT_WEAPON_SYSTEM_MEDIUM),\n            uint256(ShipAndTechList.ANCIENT_WEAPON_SYSTEM_LARGE)\n        ];\n    }\n\n    function getPirateShips() public pure returns (uint256[1] memory) {\n        return [uint256(ShipAndTechList.PIRATE_SHIP)];\n    }\n\n    function getAllNonAncientShips() public pure returns (uint256[24] memory) {\n        return [\n            uint256(ShipAndTechList.FEDERATION_CRUISER),\n            uint256(ShipAndTechList.FEDERATION_DESTROYER),\n            uint256(ShipAndTechList.FEDERATION_MASTER_VESSEL),\n            uint256(ShipAndTechList.FEDERATION_FIGHTER_PLANE),\n            uint256(ShipAndTechList.FEDERATION_MARKET_SHIP),\n            uint256(ShipAndTechList.FEDERATION_MINING_SHIP_SMALL),\n            uint256(ShipAndTechList.FEDERATION_MINING_SHIP_MEDIUM),\n            uint256(ShipAndTechList.FEDERATION_MINING_SHIP_LARGE),\n            uint256(ShipAndTechList.ALIEN_CRUISER),\n            uint256(ShipAndTechList.ALIEN_DESTROYER),\n            uint256(ShipAndTechList.ALIEN_MASTER_VESSEL),\n            uint256(ShipAndTechList.ALIEN_FIGHTER_PLANE),\n            uint256(ShipAndTechList.ALIEN_MARKET_SHIP),\n            uint256(ShipAndTechList.ALIEN_MINING_SHIP_SMALL),\n            uint256(ShipAndTechList.ALIEN_MINING_SHIP_MEDIUM),\n            uint256(ShipAndTechList.ALIEN_MINING_SHIP_LARGE),\n            uint256(ShipAndTechList.ADVANCED_RACE_CRUISER),\n            uint256(ShipAndTechList.ADVANCED_RACE_DESTROYER),\n            uint256(ShipAndTechList.ADVANCED_RACE_MASTER_VESSEL),\n            uint256(ShipAndTechList.ADVANCED_RACE_FIGHTER_PLANE),\n            uint256(ShipAndTechList.ADVANCED_RACE_MARKET_SHIP),\n            uint256(ShipAndTechList.ADVANCED_RACE_MINING_SHIP_SMALL),\n            uint256(ShipAndTechList.ADVANCED_RACE_MINING_SHIP_MEDIUM),\n            uint256(ShipAndTechList.ADVANCED_RACE_MINING_SHIP_LARGE)\n        ];\n    }\n\n    function getAllShips() public pure returns (uint256[33] memory) {\n        return [\n            uint256(ShipAndTechList.FEDERATION_CRUISER),\n            uint256(ShipAndTechList.FEDERATION_DESTROYER),\n            uint256(ShipAndTechList.FEDERATION_MASTER_VESSEL),\n            uint256(ShipAndTechList.FEDERATION_FIGHTER_PLANE),\n            uint256(ShipAndTechList.FEDERATION_MARKET_SHIP),\n            uint256(ShipAndTechList.FEDERATION_MINING_SHIP_SMALL),\n            uint256(ShipAndTechList.FEDERATION_MINING_SHIP_MEDIUM),\n            uint256(ShipAndTechList.FEDERATION_MINING_SHIP_LARGE),\n            uint256(ShipAndTechList.ALIEN_CRUISER),\n            uint256(ShipAndTechList.ALIEN_DESTROYER),\n            uint256(ShipAndTechList.ALIEN_MASTER_VESSEL),\n            uint256(ShipAndTechList.ALIEN_FIGHTER_PLANE),\n            uint256(ShipAndTechList.ALIEN_MARKET_SHIP),\n            uint256(ShipAndTechList.ALIEN_MINING_SHIP_SMALL),\n            uint256(ShipAndTechList.ALIEN_MINING_SHIP_MEDIUM),\n            uint256(ShipAndTechList.ALIEN_MINING_SHIP_LARGE),\n            uint256(ShipAndTechList.ADVANCED_RACE_CRUISER),\n            uint256(ShipAndTechList.ADVANCED_RACE_DESTROYER),\n            uint256(ShipAndTechList.ADVANCED_RACE_MASTER_VESSEL),\n            uint256(ShipAndTechList.ADVANCED_RACE_FIGHTER_PLANE),\n            uint256(ShipAndTechList.ADVANCED_RACE_MARKET_SHIP),\n            uint256(ShipAndTechList.ADVANCED_RACE_MINING_SHIP_SMALL),\n            uint256(ShipAndTechList.ADVANCED_RACE_MINING_SHIP_MEDIUM),\n            uint256(ShipAndTechList.ADVANCED_RACE_MINING_SHIP_LARGE),\n            uint256(ShipAndTechList.ANCIENT_CRUISER),\n            uint256(ShipAndTechList.ANCIENT_DESTROYER),\n            uint256(ShipAndTechList.ANCIENT_MASTER_VESSEL),\n            uint256(ShipAndTechList.ANCIENT_FIGHTER_PLANE),\n            uint256(ShipAndTechList.ANCIENT_MARKET_SHIP),\n            uint256(ShipAndTechList.ANCIENT_MINING_SHIP_SMALL),\n            uint256(ShipAndTechList.ANCIENT_MINING_SHIP_MEDIUM),\n            uint256(ShipAndTechList.ANCIENT_MINING_SHIP_LARGE),\n            uint256(ShipAndTechList.PIRATE_SHIP)\n        ];\n    }\n\n    function getAllNonAncientWeapons() public pure returns (uint256[9] memory) {\n        return [\n            uint256(ShipAndTechList.FEDERATION_WEAPON_SYSTEM_SMALL),\n            uint256(ShipAndTechList.FEDERATION_WEAPON_SYSTEM_MEDIUM),\n            uint256(ShipAndTechList.FEDERATION_WEAPON_SYSTEM_LARGE),\n            uint256(ShipAndTechList.ALIEN_WEAPON_SYSTEM_SMALL),\n            uint256(ShipAndTechList.ALIEN_WEAPON_SYSTEM_MEDIUM),\n            uint256(ShipAndTechList.ALIEN_WEAPON_SYSTEM_LARGE),\n            uint256(ShipAndTechList.ADVANCED_RACE_WEAPON_SYSTEM_SMALL),\n            uint256(ShipAndTechList.ADVANCED_RACE_WEAPON_SYSTEM_MEDIUM),\n            uint256(ShipAndTechList.ADVANCED_RACE_WEAPON_SYSTEM_LARGE)\n        ];\n    }\n\n    function getAllWeapons() public pure returns (uint256[12] memory) {\n        return [\n            uint256(ShipAndTechList.FEDERATION_WEAPON_SYSTEM_SMALL),\n            uint256(ShipAndTechList.FEDERATION_WEAPON_SYSTEM_MEDIUM),\n            uint256(ShipAndTechList.FEDERATION_WEAPON_SYSTEM_LARGE),\n            uint256(ShipAndTechList.ALIEN_WEAPON_SYSTEM_SMALL),\n            uint256(ShipAndTechList.ALIEN_WEAPON_SYSTEM_MEDIUM),\n            uint256(ShipAndTechList.ALIEN_WEAPON_SYSTEM_LARGE),\n            uint256(ShipAndTechList.ADVANCED_RACE_WEAPON_SYSTEM_SMALL),\n            uint256(ShipAndTechList.ADVANCED_RACE_WEAPON_SYSTEM_MEDIUM),\n            uint256(ShipAndTechList.ADVANCED_RACE_WEAPON_SYSTEM_LARGE),\n            uint256(ShipAndTechList.ANCIENT_WEAPON_SYSTEM_SMALL),\n            uint256(ShipAndTechList.ANCIENT_WEAPON_SYSTEM_MEDIUM),\n            uint256(ShipAndTechList.ANCIENT_WEAPON_SYSTEM_LARGE)\n        ];\n    }\n}\n",
  "sourcePath": "C:\\Users\\James\\projects\\tsuno-fe\\contracts\\lib\\Types.sol",
  "compiler": {
    "name": "solc",
    "version": "0.6.12+commit.27d51765.Emscripten.clang"
  },
  "schemaVersion": "3.2.5",
  "updatedAt": "2020-10-09T10:38:50.289Z",
  "networkType": "ethereum",
  "devdoc": {
    "kind": "dev",
    "methods": {},
    "version": 1
  },
  "userdoc": {
    "kind": "user",
    "methods": {},
    "version": 1
  }
}